{
  "_format": "hh-sol-artifact-1",
  "contractName": "TradeEscrow",
  "sourceName": "contracts/trade/TradeEscrow.sol",
  "abi": [
    {
      "inputs": [
        {
          "internalType": "address",
          "name": "_feeRecipient",
          "type": "address"
        }
      ],
      "stateMutability": "nonpayable",
      "type": "constructor"
    },
    {
      "anonymous": false,
      "inputs": [
        {
          "indexed": true,
          "internalType": "uint256",
          "name": "dealIndex",
          "type": "uint256"
        },
        {
          "indexed": false,
          "internalType": "string",
          "name": "reason",
          "type": "string"
        }
      ],
      "name": "DealCancelled",
      "type": "event"
    },
    {
      "anonymous": false,
      "inputs": [
        {
          "indexed": true,
          "internalType": "uint256",
          "name": "dealIndex",
          "type": "uint256"
        },
        {
          "indexed": false,
          "internalType": "uint256",
          "name": "completedAt",
          "type": "uint256"
        }
      ],
      "name": "DealCompleted",
      "type": "event"
    },
    {
      "anonymous": false,
      "inputs": [
        {
          "indexed": true,
          "internalType": "uint256",
          "name": "dealIndex",
          "type": "uint256"
        },
        {
          "indexed": false,
          "internalType": "string",
          "name": "dealId",
          "type": "string"
        },
        {
          "indexed": true,
          "internalType": "address",
          "name": "buyer",
          "type": "address"
        },
        {
          "indexed": true,
          "internalType": "address",
          "name": "seller",
          "type": "address"
        },
        {
          "indexed": false,
          "internalType": "address",
          "name": "paymentToken",
          "type": "address"
        },
        {
          "indexed": false,
          "internalType": "uint256",
          "name": "totalAmount",
          "type": "uint256"
        }
      ],
      "name": "DealCreated",
      "type": "event"
    },
    {
      "anonymous": false,
      "inputs": [
        {
          "indexed": true,
          "internalType": "uint256",
          "name": "dealIndex",
          "type": "uint256"
        },
        {
          "indexed": false,
          "internalType": "uint256",
          "name": "amount",
          "type": "uint256"
        },
        {
          "indexed": false,
          "internalType": "uint256",
          "name": "platformFee",
          "type": "uint256"
        }
      ],
      "name": "DealFunded",
      "type": "event"
    },
    {
      "anonymous": false,
      "inputs": [
        {
          "indexed": true,
          "internalType": "uint256",
          "name": "dealIndex",
          "type": "uint256"
        },
        {
          "indexed": true,
          "internalType": "address",
          "name": "initiator",
          "type": "address"
        },
        {
          "indexed": false,
          "internalType": "string",
          "name": "reason",
          "type": "string"
        }
      ],
      "name": "DisputeInitiated",
      "type": "event"
    },
    {
      "anonymous": false,
      "inputs": [
        {
          "indexed": true,
          "internalType": "uint256",
          "name": "dealIndex",
          "type": "uint256"
        },
        {
          "indexed": false,
          "internalType": "address",
          "name": "resolver",
          "type": "address"
        },
        {
          "indexed": false,
          "internalType": "string",
          "name": "resolution",
          "type": "string"
        }
      ],
      "name": "DisputeResolved",
      "type": "event"
    },
    {
      "anonymous": false,
      "inputs": [
        {
          "indexed": true,
          "internalType": "uint256",
          "name": "dealIndex",
          "type": "uint256"
        },
        {
          "indexed": false,
          "internalType": "uint256",
          "name": "amount",
          "type": "uint256"
        },
        {
          "indexed": false,
          "internalType": "address",
          "name": "recipient",
          "type": "address"
        }
      ],
      "name": "FundsRefunded",
      "type": "event"
    },
    {
      "anonymous": false,
      "inputs": [
        {
          "indexed": true,
          "internalType": "uint256",
          "name": "dealIndex",
          "type": "uint256"
        },
        {
          "indexed": false,
          "internalType": "uint256",
          "name": "milestoneIndex",
          "type": "uint256"
        },
        {
          "indexed": false,
          "internalType": "uint256",
          "name": "amount",
          "type": "uint256"
        },
        {
          "indexed": false,
          "internalType": "address",
          "name": "recipient",
          "type": "address"
        }
      ],
      "name": "FundsReleased",
      "type": "event"
    },
    {
      "anonymous": false,
      "inputs": [
        {
          "indexed": true,
          "internalType": "uint256",
          "name": "dealIndex",
          "type": "uint256"
        },
        {
          "indexed": false,
          "internalType": "address",
          "name": "party",
          "type": "address"
        },
        {
          "indexed": false,
          "internalType": "bool",
          "name": "verified",
          "type": "bool"
        }
      ],
      "name": "KycStatusUpdated",
      "type": "event"
    },
    {
      "anonymous": false,
      "inputs": [
        {
          "indexed": true,
          "internalType": "uint256",
          "name": "dealIndex",
          "type": "uint256"
        },
        {
          "indexed": false,
          "internalType": "uint256",
          "name": "milestoneIndex",
          "type": "uint256"
        },
        {
          "indexed": false,
          "internalType": "string",
          "name": "name",
          "type": "string"
        },
        {
          "indexed": false,
          "internalType": "uint256",
          "name": "releasePercentage",
          "type": "uint256"
        }
      ],
      "name": "MilestoneAdded",
      "type": "event"
    },
    {
      "anonymous": false,
      "inputs": [
        {
          "indexed": true,
          "internalType": "uint256",
          "name": "dealIndex",
          "type": "uint256"
        },
        {
          "indexed": false,
          "internalType": "uint256",
          "name": "milestoneIndex",
          "type": "uint256"
        },
        {
          "indexed": false,
          "internalType": "address",
          "name": "approver",
          "type": "address"
        }
      ],
      "name": "MilestoneApproved",
      "type": "event"
    },
    {
      "anonymous": false,
      "inputs": [
        {
          "indexed": true,
          "internalType": "uint256",
          "name": "dealIndex",
          "type": "uint256"
        },
        {
          "indexed": false,
          "internalType": "uint256",
          "name": "milestoneIndex",
          "type": "uint256"
        },
        {
          "indexed": false,
          "internalType": "bytes32",
          "name": "documentHash",
          "type": "bytes32"
        }
      ],
      "name": "MilestoneCompleted",
      "type": "event"
    },
    {
      "anonymous": false,
      "inputs": [
        {
          "indexed": false,
          "internalType": "address",
          "name": "account",
          "type": "address"
        }
      ],
      "name": "Paused",
      "type": "event"
    },
    {
      "anonymous": false,
      "inputs": [
        {
          "indexed": true,
          "internalType": "bytes32",
          "name": "role",
          "type": "bytes32"
        },
        {
          "indexed": true,
          "internalType": "bytes32",
          "name": "previousAdminRole",
          "type": "bytes32"
        },
        {
          "indexed": true,
          "internalType": "bytes32",
          "name": "newAdminRole",
          "type": "bytes32"
        }
      ],
      "name": "RoleAdminChanged",
      "type": "event"
    },
    {
      "anonymous": false,
      "inputs": [
        {
          "indexed": true,
          "internalType": "bytes32",
          "name": "role",
          "type": "bytes32"
        },
        {
          "indexed": true,
          "internalType": "address",
          "name": "account",
          "type": "address"
        },
        {
          "indexed": true,
          "internalType": "address",
          "name": "sender",
          "type": "address"
        }
      ],
      "name": "RoleGranted",
      "type": "event"
    },
    {
      "anonymous": false,
      "inputs": [
        {
          "indexed": true,
          "internalType": "bytes32",
          "name": "role",
          "type": "bytes32"
        },
        {
          "indexed": true,
          "internalType": "address",
          "name": "account",
          "type": "address"
        },
        {
          "indexed": true,
          "internalType": "address",
          "name": "sender",
          "type": "address"
        }
      ],
      "name": "RoleRevoked",
      "type": "event"
    },
    {
      "anonymous": false,
      "inputs": [
        {
          "indexed": false,
          "internalType": "address",
          "name": "account",
          "type": "address"
        }
      ],
      "name": "Unpaused",
      "type": "event"
    },
    {
      "inputs": [],
      "name": "ARBITER_ROLE",
      "outputs": [
        {
          "internalType": "bytes32",
          "name": "",
          "type": "bytes32"
        }
      ],
      "stateMutability": "view",
      "type": "function"
    },
    {
      "inputs": [],
      "name": "COMPLIANCE_ROLE",
      "outputs": [
        {
          "internalType": "bytes32",
          "name": "",
          "type": "bytes32"
        }
      ],
      "stateMutability": "view",
      "type": "function"
    },
    {
      "inputs": [],
      "name": "DEFAULT_ADMIN_ROLE",
      "outputs": [
        {
          "internalType": "bytes32",
          "name": "",
          "type": "bytes32"
        }
      ],
      "stateMutability": "view",
      "type": "function"
    },
    {
      "inputs": [],
      "name": "PLATFORM_ADMIN",
      "outputs": [
        {
          "internalType": "bytes32",
          "name": "",
          "type": "bytes32"
        }
      ],
      "stateMutability": "view",
      "type": "function"
    },
    {
      "inputs": [
        {
          "internalType": "uint256",
          "name": "_dealIndex",
          "type": "uint256"
        },
        {
          "internalType": "string",
          "name": "_name",
          "type": "string"
        },
        {
          "internalType": "string",
          "name": "_description",
          "type": "string"
        },
        {
          "internalType": "uint256",
          "name": "_releasePercentage",
          "type": "uint256"
        }
      ],
      "name": "addMilestone",
      "outputs": [],
      "stateMutability": "nonpayable",
      "type": "function"
    },
    {
      "inputs": [
        {
          "internalType": "uint256",
          "name": "_dealIndex",
          "type": "uint256"
        },
        {
          "internalType": "uint256",
          "name": "_milestoneIndex",
          "type": "uint256"
        }
      ],
      "name": "approveMilestone",
      "outputs": [],
      "stateMutability": "nonpayable",
      "type": "function"
    },
    {
      "inputs": [
        {
          "internalType": "address",
          "name": "",
          "type": "address"
        },
        {
          "internalType": "uint256",
          "name": "",
          "type": "uint256"
        }
      ],
      "name": "buyerDeals",
      "outputs": [
        {
          "internalType": "uint256",
          "name": "",
          "type": "uint256"
        }
      ],
      "stateMutability": "view",
      "type": "function"
    },
    {
      "inputs": [
        {
          "internalType": "uint256",
          "name": "_dealIndex",
          "type": "uint256"
        },
        {
          "internalType": "string",
          "name": "_reason",
          "type": "string"
        }
      ],
      "name": "cancelDeal",
      "outputs": [],
      "stateMutability": "nonpayable",
      "type": "function"
    },
    {
      "inputs": [
        {
          "internalType": "uint256",
          "name": "_dealIndex",
          "type": "uint256"
        },
        {
          "internalType": "uint256",
          "name": "_milestoneIndex",
          "type": "uint256"
        },
        {
          "internalType": "bytes32",
          "name": "_documentHash",
          "type": "bytes32"
        }
      ],
      "name": "completeMilestone",
      "outputs": [],
      "stateMutability": "nonpayable",
      "type": "function"
    },
    {
      "inputs": [
        {
          "internalType": "string",
          "name": "_dealId",
          "type": "string"
        },
        {
          "internalType": "address",
          "name": "_seller",
          "type": "address"
        },
        {
          "internalType": "address",
          "name": "_paymentToken",
          "type": "address"
        },
        {
          "internalType": "uint256",
          "name": "_totalAmount",
          "type": "uint256"
        }
      ],
      "name": "createDeal",
      "outputs": [
        {
          "internalType": "uint256",
          "name": "",
          "type": "uint256"
        }
      ],
      "stateMutability": "nonpayable",
      "type": "function"
    },
    {
      "inputs": [
        {
          "internalType": "string",
          "name": "",
          "type": "string"
        }
      ],
      "name": "dealIdToIndex",
      "outputs": [
        {
          "internalType": "uint256",
          "name": "",
          "type": "uint256"
        }
      ],
      "stateMutability": "view",
      "type": "function"
    },
    {
      "inputs": [
        {
          "internalType": "uint256",
          "name": "",
          "type": "uint256"
        },
        {
          "internalType": "uint256",
          "name": "",
          "type": "uint256"
        }
      ],
      "name": "dealMilestones",
      "outputs": [
        {
          "internalType": "string",
          "name": "name",
          "type": "string"
        },
        {
          "internalType": "string",
          "name": "description",
          "type": "string"
        },
        {
          "internalType": "uint256",
          "name": "releasePercentage",
          "type": "uint256"
        },
        {
          "internalType": "uint256",
          "name": "releaseAmount",
          "type": "uint256"
        },
        {
          "internalType": "enum TradeEscrow.MilestoneStatus",
          "name": "status",
          "type": "uint8"
        },
        {
          "internalType": "bytes32",
          "name": "documentHash",
          "type": "bytes32"
        },
        {
          "internalType": "uint256",
          "name": "completedAt",
          "type": "uint256"
        },
        {
          "internalType": "uint256",
          "name": "releasedAt",
          "type": "uint256"
        }
      ],
      "stateMutability": "view",
      "type": "function"
    },
    {
      "inputs": [
        {
          "internalType": "uint256",
          "name": "",
          "type": "uint256"
        }
      ],
      "name": "deals",
      "outputs": [
        {
          "internalType": "string",
          "name": "dealId",
          "type": "string"
        },
        {
          "internalType": "address",
          "name": "buyer",
          "type": "address"
        },
        {
          "internalType": "address",
          "name": "seller",
          "type": "address"
        },
        {
          "internalType": "address",
          "name": "paymentToken",
          "type": "address"
        },
        {
          "internalType": "uint256",
          "name": "totalAmount",
          "type": "uint256"
        },
        {
          "internalType": "uint256",
          "name": "depositedAmount",
          "type": "uint256"
        },
        {
          "internalType": "uint256",
          "name": "releasedAmount",
          "type": "uint256"
        },
        {
          "internalType": "uint256",
          "name": "refundedAmount",
          "type": "uint256"
        },
        {
          "internalType": "enum TradeEscrow.DealStatus",
          "name": "status",
          "type": "uint8"
        },
        {
          "internalType": "uint256",
          "name": "createdAt",
          "type": "uint256"
        },
        {
          "internalType": "uint256",
          "name": "fundedAt",
          "type": "uint256"
        },
        {
          "internalType": "uint256",
          "name": "completedAt",
          "type": "uint256"
        },
        {
          "internalType": "uint256",
          "name": "disputeDeadline",
          "type": "uint256"
        },
        {
          "internalType": "bool",
          "name": "buyerKycVerified",
          "type": "bool"
        },
        {
          "internalType": "bool",
          "name": "sellerKycVerified",
          "type": "bool"
        }
      ],
      "stateMutability": "view",
      "type": "function"
    },
    {
      "inputs": [],
      "name": "disputeResolutionPeriod",
      "outputs": [
        {
          "internalType": "uint256",
          "name": "",
          "type": "uint256"
        }
      ],
      "stateMutability": "view",
      "type": "function"
    },
    {
      "inputs": [
        {
          "internalType": "uint256",
          "name": "",
          "type": "uint256"
        }
      ],
      "name": "disputes",
      "outputs": [
        {
          "internalType": "uint256",
          "name": "dealIndex",
          "type": "uint256"
        },
        {
          "internalType": "address",
          "name": "initiator",
          "type": "address"
        },
        {
          "internalType": "string",
          "name": "reason",
          "type": "string"
        },
        {
          "internalType": "uint256",
          "name": "claimedAmount",
          "type": "uint256"
        },
        {
          "internalType": "uint256",
          "name": "filedAt",
          "type": "uint256"
        },
        {
          "internalType": "uint256",
          "name": "resolvedAt",
          "type": "uint256"
        },
        {
          "internalType": "address",
          "name": "resolver",
          "type": "address"
        },
        {
          "internalType": "bool",
          "name": "resolved",
          "type": "bool"
        },
        {
          "internalType": "string",
          "name": "resolution",
          "type": "string"
        }
      ],
      "stateMutability": "view",
      "type": "function"
    },
    {
      "inputs": [
        {
          "internalType": "uint256",
          "name": "_dealIndex",
          "type": "uint256"
        }
      ],
      "name": "fundDeal",
      "outputs": [],
      "stateMutability": "nonpayable",
      "type": "function"
    },
    {
      "inputs": [
        {
          "internalType": "address",
          "name": "_buyer",
          "type": "address"
        }
      ],
      "name": "getBuyerDeals",
      "outputs": [
        {
          "internalType": "uint256[]",
          "name": "",
          "type": "uint256[]"
        }
      ],
      "stateMutability": "view",
      "type": "function"
    },
    {
      "inputs": [
        {
          "internalType": "uint256",
          "name": "_dealIndex",
          "type": "uint256"
        }
      ],
      "name": "getDeal",
      "outputs": [
        {
          "components": [
            {
              "internalType": "string",
              "name": "dealId",
              "type": "string"
            },
            {
              "internalType": "address",
              "name": "buyer",
              "type": "address"
            },
            {
              "internalType": "address",
              "name": "seller",
              "type": "address"
            },
            {
              "internalType": "address",
              "name": "paymentToken",
              "type": "address"
            },
            {
              "internalType": "uint256",
              "name": "totalAmount",
              "type": "uint256"
            },
            {
              "internalType": "uint256",
              "name": "depositedAmount",
              "type": "uint256"
            },
            {
              "internalType": "uint256",
              "name": "releasedAmount",
              "type": "uint256"
            },
            {
              "internalType": "uint256",
              "name": "refundedAmount",
              "type": "uint256"
            },
            {
              "internalType": "enum TradeEscrow.DealStatus",
              "name": "status",
              "type": "uint8"
            },
            {
              "internalType": "uint256",
              "name": "createdAt",
              "type": "uint256"
            },
            {
              "internalType": "uint256",
              "name": "fundedAt",
              "type": "uint256"
            },
            {
              "internalType": "uint256",
              "name": "completedAt",
              "type": "uint256"
            },
            {
              "internalType": "uint256",
              "name": "disputeDeadline",
              "type": "uint256"
            },
            {
              "internalType": "bool",
              "name": "buyerKycVerified",
              "type": "bool"
            },
            {
              "internalType": "bool",
              "name": "sellerKycVerified",
              "type": "bool"
            }
          ],
          "internalType": "struct TradeEscrow.Deal",
          "name": "",
          "type": "tuple"
        }
      ],
      "stateMutability": "view",
      "type": "function"
    },
    {
      "inputs": [
        {
          "internalType": "string",
          "name": "_dealId",
          "type": "string"
        }
      ],
      "name": "getDealByDealId",
      "outputs": [
        {
          "components": [
            {
              "internalType": "string",
              "name": "dealId",
              "type": "string"
            },
            {
              "internalType": "address",
              "name": "buyer",
              "type": "address"
            },
            {
              "internalType": "address",
              "name": "seller",
              "type": "address"
            },
            {
              "internalType": "address",
              "name": "paymentToken",
              "type": "address"
            },
            {
              "internalType": "uint256",
              "name": "totalAmount",
              "type": "uint256"
            },
            {
              "internalType": "uint256",
              "name": "depositedAmount",
              "type": "uint256"
            },
            {
              "internalType": "uint256",
              "name": "releasedAmount",
              "type": "uint256"
            },
            {
              "internalType": "uint256",
              "name": "refundedAmount",
              "type": "uint256"
            },
            {
              "internalType": "enum TradeEscrow.DealStatus",
              "name": "status",
              "type": "uint8"
            },
            {
              "internalType": "uint256",
              "name": "createdAt",
              "type": "uint256"
            },
            {
              "internalType": "uint256",
              "name": "fundedAt",
              "type": "uint256"
            },
            {
              "internalType": "uint256",
              "name": "completedAt",
              "type": "uint256"
            },
            {
              "internalType": "uint256",
              "name": "disputeDeadline",
              "type": "uint256"
            },
            {
              "internalType": "bool",
              "name": "buyerKycVerified",
              "type": "bool"
            },
            {
              "internalType": "bool",
              "name": "sellerKycVerified",
              "type": "bool"
            }
          ],
          "internalType": "struct TradeEscrow.Deal",
          "name": "",
          "type": "tuple"
        },
        {
          "internalType": "uint256",
          "name": "",
          "type": "uint256"
        }
      ],
      "stateMutability": "view",
      "type": "function"
    },
    {
      "inputs": [],
      "name": "getDealCount",
      "outputs": [
        {
          "internalType": "uint256",
          "name": "",
          "type": "uint256"
        }
      ],
      "stateMutability": "view",
      "type": "function"
    },
    {
      "inputs": [
        {
          "internalType": "uint256",
          "name": "_dealIndex",
          "type": "uint256"
        }
      ],
      "name": "getDealMilestones",
      "outputs": [
        {
          "components": [
            {
              "internalType": "string",
              "name": "name",
              "type": "string"
            },
            {
              "internalType": "string",
              "name": "description",
              "type": "string"
            },
            {
              "internalType": "uint256",
              "name": "releasePercentage",
              "type": "uint256"
            },
            {
              "internalType": "uint256",
              "name": "releaseAmount",
              "type": "uint256"
            },
            {
              "internalType": "enum TradeEscrow.MilestoneStatus",
              "name": "status",
              "type": "uint8"
            },
            {
              "internalType": "bytes32",
              "name": "documentHash",
              "type": "bytes32"
            },
            {
              "internalType": "uint256",
              "name": "completedAt",
              "type": "uint256"
            },
            {
              "internalType": "uint256",
              "name": "releasedAt",
              "type": "uint256"
            }
          ],
          "internalType": "struct TradeEscrow.Milestone[]",
          "name": "",
          "type": "tuple[]"
        }
      ],
      "stateMutability": "view",
      "type": "function"
    },
    {
      "inputs": [
        {
          "internalType": "uint256",
          "name": "_dealIndex",
          "type": "uint256"
        }
      ],
      "name": "getDispute",
      "outputs": [
        {
          "components": [
            {
              "internalType": "uint256",
              "name": "dealIndex",
              "type": "uint256"
            },
            {
              "internalType": "address",
              "name": "initiator",
              "type": "address"
            },
            {
              "internalType": "string",
              "name": "reason",
              "type": "string"
            },
            {
              "internalType": "uint256",
              "name": "claimedAmount",
              "type": "uint256"
            },
            {
              "internalType": "uint256",
              "name": "filedAt",
              "type": "uint256"
            },
            {
              "internalType": "uint256",
              "name": "resolvedAt",
              "type": "uint256"
            },
            {
              "internalType": "address",
              "name": "resolver",
              "type": "address"
            },
            {
              "internalType": "bool",
              "name": "resolved",
              "type": "bool"
            },
            {
              "internalType": "string",
              "name": "resolution",
              "type": "string"
            }
          ],
          "internalType": "struct TradeEscrow.Dispute",
          "name": "",
          "type": "tuple"
        }
      ],
      "stateMutability": "view",
      "type": "function"
    },
    {
      "inputs": [
        {
          "internalType": "bytes32",
          "name": "role",
          "type": "bytes32"
        }
      ],
      "name": "getRoleAdmin",
      "outputs": [
        {
          "internalType": "bytes32",
          "name": "",
          "type": "bytes32"
        }
      ],
      "stateMutability": "view",
      "type": "function"
    },
    {
      "inputs": [
        {
          "internalType": "address",
          "name": "_seller",
          "type": "address"
        }
      ],
      "name": "getSellerDeals",
      "outputs": [
        {
          "internalType": "uint256[]",
          "name": "",
          "type": "uint256[]"
        }
      ],
      "stateMutability": "view",
      "type": "function"
    },
    {
      "inputs": [
        {
          "internalType": "bytes32",
          "name": "role",
          "type": "bytes32"
        },
        {
          "internalType": "address",
          "name": "account",
          "type": "address"
        }
      ],
      "name": "grantRole",
      "outputs": [],
      "stateMutability": "nonpayable",
      "type": "function"
    },
    {
      "inputs": [
        {
          "internalType": "bytes32",
          "name": "role",
          "type": "bytes32"
        },
        {
          "internalType": "address",
          "name": "account",
          "type": "address"
        }
      ],
      "name": "hasRole",
      "outputs": [
        {
          "internalType": "bool",
          "name": "",
          "type": "bool"
        }
      ],
      "stateMutability": "view",
      "type": "function"
    },
    {
      "inputs": [
        {
          "internalType": "uint256",
          "name": "_dealIndex",
          "type": "uint256"
        },
        {
          "internalType": "string",
          "name": "_reason",
          "type": "string"
        },
        {
          "internalType": "uint256",
          "name": "_claimedAmount",
          "type": "uint256"
        }
      ],
      "name": "initiateDispute",
      "outputs": [],
      "stateMutability": "nonpayable",
      "type": "function"
    },
    {
      "inputs": [],
      "name": "pause",
      "outputs": [],
      "stateMutability": "nonpayable",
      "type": "function"
    },
    {
      "inputs": [],
      "name": "paused",
      "outputs": [
        {
          "internalType": "bool",
          "name": "",
          "type": "bool"
        }
      ],
      "stateMutability": "view",
      "type": "function"
    },
    {
      "inputs": [],
      "name": "platformFeeBps",
      "outputs": [
        {
          "internalType": "uint256",
          "name": "",
          "type": "uint256"
        }
      ],
      "stateMutability": "view",
      "type": "function"
    },
    {
      "inputs": [],
      "name": "platformFeeRecipient",
      "outputs": [
        {
          "internalType": "address",
          "name": "",
          "type": "address"
        }
      ],
      "stateMutability": "view",
      "type": "function"
    },
    {
      "inputs": [
        {
          "internalType": "bytes32",
          "name": "role",
          "type": "bytes32"
        },
        {
          "internalType": "address",
          "name": "account",
          "type": "address"
        }
      ],
      "name": "renounceRole",
      "outputs": [],
      "stateMutability": "nonpayable",
      "type": "function"
    },
    {
      "inputs": [
        {
          "internalType": "uint256",
          "name": "_dealIndex",
          "type": "uint256"
        },
        {
          "internalType": "uint256",
          "name": "_buyerAmount",
          "type": "uint256"
        },
        {
          "internalType": "uint256",
          "name": "_sellerAmount",
          "type": "uint256"
        },
        {
          "internalType": "string",
          "name": "_resolution",
          "type": "string"
        }
      ],
      "name": "resolveDispute",
      "outputs": [],
      "stateMutability": "nonpayable",
      "type": "function"
    },
    {
      "inputs": [
        {
          "internalType": "bytes32",
          "name": "role",
          "type": "bytes32"
        },
        {
          "internalType": "address",
          "name": "account",
          "type": "address"
        }
      ],
      "name": "revokeRole",
      "outputs": [],
      "stateMutability": "nonpayable",
      "type": "function"
    },
    {
      "inputs": [
        {
          "internalType": "address",
          "name": "",
          "type": "address"
        },
        {
          "internalType": "uint256",
          "name": "",
          "type": "uint256"
        }
      ],
      "name": "sellerDeals",
      "outputs": [
        {
          "internalType": "uint256",
          "name": "",
          "type": "uint256"
        }
      ],
      "stateMutability": "view",
      "type": "function"
    },
    {
      "inputs": [
        {
          "internalType": "uint256",
          "name": "_period",
          "type": "uint256"
        }
      ],
      "name": "setDisputePeriod",
      "outputs": [],
      "stateMutability": "nonpayable",
      "type": "function"
    },
    {
      "inputs": [
        {
          "internalType": "address",
          "name": "_recipient",
          "type": "address"
        }
      ],
      "name": "setFeeRecipient",
      "outputs": [],
      "stateMutability": "nonpayable",
      "type": "function"
    },
    {
      "inputs": [
        {
          "internalType": "uint256",
          "name": "_feeBps",
          "type": "uint256"
        }
      ],
      "name": "setPlatformFee",
      "outputs": [],
      "stateMutability": "nonpayable",
      "type": "function"
    },
    {
      "inputs": [
        {
          "internalType": "address",
          "name": "_token",
          "type": "address"
        },
        {
          "internalType": "bool",
          "name": "_supported",
          "type": "bool"
        }
      ],
      "name": "setSupportedToken",
      "outputs": [],
      "stateMutability": "nonpayable",
      "type": "function"
    },
    {
      "inputs": [
        {
          "internalType": "address",
          "name": "",
          "type": "address"
        }
      ],
      "name": "supportedTokens",
      "outputs": [
        {
          "internalType": "bool",
          "name": "",
          "type": "bool"
        }
      ],
      "stateMutability": "view",
      "type": "function"
    },
    {
      "inputs": [
        {
          "internalType": "bytes4",
          "name": "interfaceId",
          "type": "bytes4"
        }
      ],
      "name": "supportsInterface",
      "outputs": [
        {
          "internalType": "bool",
          "name": "",
          "type": "bool"
        }
      ],
      "stateMutability": "view",
      "type": "function"
    },
    {
      "inputs": [],
      "name": "unpause",
      "outputs": [],
      "stateMutability": "nonpayable",
      "type": "function"
    },
    {
      "inputs": [
        {
          "internalType": "uint256",
          "name": "_dealIndex",
          "type": "uint256"
        },
        {
          "internalType": "address",
          "name": "_party",
          "type": "address"
        },
        {
          "internalType": "bool",
          "name": "_verified",
          "type": "bool"
        }
      ],
      "name": "updateKycStatus",
      "outputs": [],
      "stateMutability": "nonpayable",
      "type": "function"
    }
  ],
  "bytecode": "0x6080346200016557601f6200431a38819003918201601f1916830192916001600160401b038411838510176200016a57808392604095865283396020928391810103126200016557516001600160a01b03811691908290036200016557600160009080825560ff199081600254166002556032600a5562127500600b55828052808452858320338452845260ff86842054161562000130575b7f4ff52032f36e32ac782042a01802e20394d4255c84a3c046490be98ab632691b93848452818152868420338552815260ff878520541615620000f7575b600980546001600160a01b0319168717905586516141799081620001818239f35b8484528181528684209033855252858320918254161790553391600080516020620042fa833981519152339280a43880808080620000d6565b82805280845285832033845284528583208183825416179055333384600080516020620042fa8339815191528180a462000098565b600080fd5b634e487b7160e01b600052604160045260246000fdfe608080604052600436101561001357600080fd5b60003560e01c90816301ffc9a7146132785750806303988f841461316c5780630451ddda14612fc3578063062d3bd714612f8857806307b1640014612eca5780630b0f585314612e5257806312e8e2c314612df4578063208d01fe1461289d57806320913da51461249e57806322dcd13e14612480578063248a9ca3146124515780632f2ff15d1461239e57806336568abe1461230c5780633f4ba83a146122785780634a3a83831461225a5780634a5ee49d146121d65780634d104adf1461219b578063564a565d146120e35780635a116aaa14611c6e5780635c975abb14611c4b57806363302e6e14611c0157806368c4ac2614611bc2578063731d48a4146116b657806382fd5bac146116775780638456cb591461161d57806385d60ec61461132f5780639194b8a214610e7857806391d1485414610e2b578063a217fddf14610e0f578063a83ba53e14610dee578063b188034514610b96578063bbecb512146109df578063bbeda0c0146106ab578063c1d0a7d814610670578063d547741f14610631578063e01b091b146105c4578063e3a96cbd14610452578063e74b981b146103ce578063e798646614610375578063eaccafde1461031d578063eb13554f146102f4578063ecb7dbe9146102d65763fbf79589146101f857600080fd5b346102d15760203660031901126102d1576004356001600160401b0381116102d15761022a6020913690600401613577565b9190610234614004565b5082604051938492833781016006815203019020546003548082109081156102c8575b5015610292578061027361026d610288936132cb565b50614074565b906040519283926040845260408401906135bc565b9060208301520390f35b60405162461bcd60e51b815260206004820152600e60248201526d1119585b081b9bdd08199bdd5b9960921b6044820152606490fd5b90501538610257565b600080fd5b346102d15760003660031901126102d1576020600b54604051908152f35b346102d15760003660031901126102d1576009546040516001600160a01b039091168152602090f35b346102d15760403660031901126102d157610336613510565b6001600160a01b03166000908152600860205260409020805460243591908210156102d157602091610367916135a4565b90546040519160031b1c8152f35b346102d15760403660031901126102d15761038e613510565b60243580151581036102d1576103cc916103a66136d1565b60018060a01b0316600052600c60205260406000209060ff801983541691151516179055565b005b346102d15760203660031901126102d1576103e7613510565b6103ef6136d1565b6001600160a01b0316801561041b576bffffffffffffffffffffffff60a01b6009541617600955600080f35b60405162461bcd60e51b815260206004820152600f60248201526e496e76616c6964206164647265737360881b6044820152606490fd5b346102d1576020806003193601126102d1576040519061047182613378565b600082528082016000905260408201606090526060820160009052608082016000905260a082016000905260c082016000905260e082016000905261010080920160609052600435600052600581526040600020604051926104d284613378565b8154845260018201546001600160a01b0390811684860190815290916104fa600285016133d0565b604087019081526003850154936060880194855260048601549560808901968752600581015460a08a019081526006820154938360c08c0193818716855260e08d019660a01c60ff1615158752600701610553906133d0565b97878d019889528b6040519d8e9d8e5251908d0152511660408b01525197610120988960608c01526101408b0161058991613499565b975160808b01525160a08a01525160c0890152511660e0870152511515908501525191601f1984830301908401526105c091613499565b0390f35b346102d15760203660031901126102d1576004356001600160401b0381116102d157366023820112156102d15761061e602061060b8193369060248160040135910161369a565b8160405193828580945193849201613476565b8101600681520301902054604051908152f35b346102d15760403660031901126102d1576103cc600435610650613526565b9080600052600160205261066b6001604060002001546138bf565b6139c8565b346102d15760003660031901126102d15760206040517f4ff52032f36e32ac782042a01802e20394d4255c84a3c046490be98ab632691b8152f35b346102d15760603660031901126102d1576004356106c7613526565b604435801515908181036102d1573360009081527ff41155e348e85c6a14e9e3a6cd1773874ea1b4e61af65092a08c79925afb80e160209081526040909120549091906001907f442a94f1a1fac79af32856af2a64f63648cfa2ef3b98610a5bb7cbec4cee69859060ff161561083a57506107456003548710613b39565b61074e866132cb565b50908101546001600160a01b039586169590811686036107b35750916107a860409492600d7f3a9f0c84eea6ecc7d79a619a62e1dd1e0a5cedac3c53ce5a040ea4b12cafa0ef9795019060ff801983541691151516179055565b8351928352820152a2005b600282015416850361080557600d01805461ff00191691151560081b61ff00169190911790557f3a9f0c84eea6ecc7d79a619a62e1dd1e0a5cedac3c53ce5a040ea4b12cafa0ef9260409290916107a8565b60405162461bcd60e51b815260048101849052600d60248201526c496e76616c696420706172747960981b6044820152606490fd5b838261084533613a6f565b926040519061085382613394565b604282528382019260603685378251156109c9576030845382518110156109c957607860218401536041905b80821161096f57505061092c576108f8936109079260489260405196879376020b1b1b2b9b9a1b7b73a3937b61d1030b1b1b7bab73a1604d1b888601526108cf815180928a603789019101613476565b8401917001034b99036b4b9b9b4b733903937b6329607d1b603784015251809386840190613476565b010360288101855201836133af565b61092860405192839262461bcd60e51b845260048401526024830190613499565b0390fd5b6064836040519062461bcd60e51b825280600483015260248201527f537472696e67733a20686578206c656e67746820696e73756666696369656e746044820152fd5b9091600f811660108110156109c9576f181899199a1a9b1b9c1cb0b131b232b360811b901a61099e8486613a5e565b5360041c9180156109b357600019019061087f565b634e487b7160e01b600052601160045260246000fd5b634e487b7160e01b600052603260045260246000fd5b346102d15760603660031901126102d15760043560243560443590610a076003548410613b39565b610a10836132cb565b50600201546001600160a01b03163303610b60576008610a2f846132cb565b500190610a5560ff835416610a43816134be565b60018114908115610b4c575b50613cc0565b836000526004602052610a78816040600020610a7381548310613fc4565b6134f4565b509260048401928354600160ff8216610a90816134be565b03610b0757856040958460057ff59cc352d2bd8850b69bee9a227386d0d038a4e3d6912f864b9ccc8bedd3bf0c990155600260ff19809416179055600642910155815490600160ff8316610ae3816134be565b14610af9575b50505082519182526020820152a2005b166002179055858080610ae9565b60405162461bcd60e51b815260206004820152601960248201527f4d696c6573746f6e65206e6f7420696e2070726f6772657373000000000000006044820152606490fd5b60029150610b59816134be565b1486610a4f565b60405162461bcd60e51b815260206004820152600e60248201526d2737ba103a34329039b2b63632b960911b6044820152606490fd5b346102d15760403660031901126102d1576004356024356001600160401b0381116102d157610bc9903690600401613577565b90610bd2613d5a565b610bdf6003548410613b39565b610be8836132cb565b50916008830160ff815416610bfc816134be565b8015908115610dbe575b5015610d89576001840180546001600160a01b03959086163381148015610d7a575b8015610d42575b15610d0c577fa8b8b3efbebafa658fb44a735ae6b22cee3289a25c09ff2a8cd300c915b201329688936005840154926006850154808511610c9e575b50505050505050600560ff19825416179055610c94604051928392602084526020840191613c60565b0390a26001600055005b7fe62f804d9288f09c557334132562098c307ce915418e34cb4f67566a2c5c10e395610ccf600792610cdf97613d11565b9586809487600385015416613db0565b0155546040805193845291166001600160a01b03166020830152819081010390a284868080808080610c6b565b60405162461bcd60e51b815260206004820152600e60248201526d139bdd08185d5d1a1bdc9a5e995960921b6044820152606490fd5b503360009081527f6c6746439175be9d65ee036dd6459ab0aaa575fbfcb50169861733a151cd793a602052604090205460ff16610c2f565b50866002830154163314610c28565b60405162461bcd60e51b815260206004820152600d60248201526c10d85b9b9bdd0818d85b98d95b609a1b6044820152606490fd5b60019150610dcb816134be565b1480610dd8575b86610c06565b5060028401546001600160a01b03163314610dd2565b346102d15760203660031901126102d157610e076136d1565b600435600b55005b346102d15760003660031901126102d157602060405160008152f35b346102d15760403660031901126102d157610e44613526565b600435600052600160205260406000209060018060a01b0316600052602052602060ff604060002054166040519015158152f35b346102d15760803660031901126102d1576024356001600160401b0381116102d157610ea8903690600401613577565b906044356001600160401b0381116102d157610ec8903690600401613577565b610ed760035460043510613b39565b610f046001610ee76004356132cb565b50818060a01b039182910154163314908115611314575b50613c81565b610f2960ff6008610f166004356132cb565b50015416610f23816134be565b15613cc0565b612710606435116112da57606435600435600052600460205260406000209260008454925b8382106112b25761271091501161127857610fa4612710610f81610f736004356132cb565b506004606435910154613a3e565b049160405194610f9086613340565b610f9b368a8a61369a565b8652369161369a565b60208401526064356040840152606083015260006080830152600060a0830152600060c0830152600060e0830152600160401b8110156111d557806001610fee92018455836134f4565b9190916112625780518051906001600160401b0382116111d557819061101e826110188754613306565b87613bbf565b602090601f83116001146111f6576000926111eb575b50508160011b916000199060031b1c19161782555b60208101518051906001600160401b0382116111d557611079826110706001870154613306565b60018701613bbf565b602090601f83116001146111605791806007949260e094600092611155575b50508160011b916000199060031b1c19161760018501555b60408101516002850155606081015160038501556110de60808201516110d5816134be565b60048601613c13565b60a0810151600585015560c081015160068501550151910155546000198101929083116109b3577fc67423104bf96f5ca8826913ae711e8c2254e1b2c04af907b2312853ed4cbed29161114291604051948552606060208601526060850191613c60565b91606435604082015280600435930390a2005b015190508980611098565b906001850160005260206000209160005b601f19851681106111bd5750926007949260019260e09583601f198116106111a4575b505050811b0160018501556110b0565b015160001960f88460031b161c19169055898080611194565b91926020600181928685015181550194019201611171565b634e487b7160e01b600052604160045260246000fd5b015190508780611034565b9250846000526020600020906000935b601f1984168510611247576001945083601f1981161061122e575b505050811b018255611049565b015160001960f88460031b161c19169055878080611221565b81810151835560209485019460019093019290910190611206565b634e487b7160e01b600052600060045260246000fd5b60405162461bcd60e51b8152602060048201526012602482015271546f74616c2065786365656473203130302560701b6044820152606490fd5b6112ce6112d49160026112c5858a6134f4565b50015490613a51565b91613d02565b90610f4e565b60405162461bcd60e51b8152602060048201526012602482015271496e76616c69642070657263656e7461676560701b6044820152606490fd5b905060026113236004356132cb565b50015416331486610efe565b346102d1576020806003193601126102d1576004359061134d613d5a565b611355613b7b565b6113626003548310613b39565b6001611384611370846132cb565b50828060a01b039283910154163314613d1e565b61139460ff6008610f16866132cb565b60ff600d6113a1856132cb565b5001541680611603575b156115cb576113b9836132cb565b50908360005260048352604060002091825492831561158e576000936000905b80821061156d57505061271080940361152857600482019261140b845495611403600a5488613a3e565b048096613a51565b81600385015416604051916323b872dd60e01b8984015233602484015230604484015260648301526064825260a082018281106001600160401b038211176111d557879261145c9160405282613dfb565b81611512575b50505082546005830155600882019160ff1992600184825416179055600a4291015580541580156114c7575b867f115b5cd2681a29b1d9bacf32cb5e30ad7cf021def391d47f9e1754ef18db8e0f604088888854918351928352820152a26001600055005b9492909391946109c9577f115b5cd2681a29b1d9bacf32cb5e30ad7cf021def391d47f9e1754ef18db8e0f94604094600052600160048560002001918254161790559193819361148e565b611520926009541690613db0565b868481611462565b60405162461bcd60e51b815260048101869052601a60248201527f4d696c6573746f6e6573206d75737420746f74616c20313030250000000000006044820152606490fd5b90946115826115889160026112c589876134f4565b95613d02565b906113d9565b60405162461bcd60e51b8152600481018690526015602482015274139bc81b5a5b195cdd1bdb995cc81919599a5b9959605a1b6044820152606490fd5b60405162461bcd60e51b815260048101839052601060248201526f12d650c81b9bdd081d995c9a599a595960821b6044820152606490fd5b5060ff600d611611856132cb565b50015460081c166113ab565b346102d15760003660031901126102d1576116366136d1565b61163e613b7b565b600160ff1960025416176002557f62e78cea01bee320cd4e420270b5ea74000d11b0c9f74754ebdbfc544b05a2586020604051338152a1005b346102d15760203660031901126102d157611690614004565b506105c06116a261026d6004356132cb565b6040519182916020835260208301906135bc565b346102d15760803660031901126102d1576024356064356001600160401b0381116102d1576116e9903690600401613577565b916116f2613d5a565b3360009081527faed648193feafdcf10a202d18bfaf813c22c251a317344cf02e69c92d48cb10160205260409020547fbb08418a67729a078f87bbc8d02a770929bb68f5bfdf134ae2ead6ed38e2f4ae9060ff1615611a75575061175b60035460043510613b39565b611781600460ff600861176e83356132cb565b5001541661177b816134be565b14613cc0565b61178c6004356132cb565b5090600435600052600560205260406000209060ff600683015460a01c16611a3d5760058301916117c38354600686015490613d11565b6117cf60443584613a51565b11611a085760038401546007926001600160a01b0390911690806119d8575b506044356119a1575b506006810180544260058401556001600160a81b0319163317600160a01b179055016001600160401b0385116111d55761183b856118358354613306565b83613bbf565b846000601f821160011461190f57917f7b71d2e00379bd165b2750d54298da2414376699827edca2bce2a096c491d2e9959391610c949593600091611904575b508760011b906000198960031b1c19161790555b60078201549054036118c857600801805460ff191660061790555b60405191829133835260406020840152600435956040840191613c60565b60068101546004820154036118f15760088101600360ff19825416179055600b429101556118aa565b600801805460ff191660021790556118aa565b90508401358861187b565b60008381526020812092508790601f198216905b8181106119865750917f7b71d2e00379bd165b2750d54298da2414376699827edca2bce2a096c491d2e997959391610c949795931061196c575b5050600187811b01905561188f565b85013560001960038a901b60f8161c19169055878061195d565b8884013585556001909401936020938401938a935001611923565b60028501546119bd91604435916001600160a01b031690613db0565b6119cd6044356006860154613a51565b6006850155866117f7565b60018601546119f29082906001600160a01b031684613db0565b611a00848701918254613a51565b9055876117ee565b60405162461bcd60e51b815260206004820152600d60248201526c457863656564732066756e647360981b6044820152606490fd5b60405162461bcd60e51b815260206004820152601060248201526f105b1c9958591e481c995cdbdb1d995960821b6044820152606490fd5b611a7e33613a6f565b60405191611a8b83613394565b60428352602083019060603683378351156109c957603082538351600110156109c9576078602185015360415b60018111611b805750611b3c576048611b0d92611b1c926109289560405195869376020b1b1b2b9b9a1b7b73a3937b61d1030b1b1b7bab73a1604d1b60208601526108cf815180926020603789019101613476565b010360288101845201826133af565b60405162461bcd60e51b8152602060048201529182916024830190613499565b606460405162461bcd60e51b815260206004820152602060248201527f537472696e67733a20686578206c656e67746820696e73756666696369656e746044820152fd5b90600f811660108110156109c9576f181899199a1a9b1b9c1cb0b131b232b360811b901a611bae8387613a5e565b5360041c9080156109b35760001901611ab8565b346102d15760203660031901126102d1576001600160a01b03611be3613510565b16600052600c602052602060ff604060002054166040519015158152f35b346102d15760403660031901126102d157611c1a613510565b6001600160a01b03166000908152600760205260409020805460243591908210156102d157602091610367916135a4565b346102d15760003660031901126102d157602060ff600254166040519015158152f35b346102d15760603660031901126102d1576024356001600160401b0381116102d157611c9e903690600401613577565b90611cae60035460043510613b39565b611cb96004356132cb565b50600101546001600160a01b0316331480156120bd575b611cd990613c81565b611ce46004356132cb565b50600881015460ff8116611cf7816134be565b600181149081156120a9575b501561207357600435600052600560205260046040600020015461203d5760049060ff1916176008820155600c611d3c600b5442613a51565b91015560405191611d4c83613378565b6004358352336020840152611d6236828461369a565b60408401526044356060840152426080840152600060a0840152600060c0840152600060e08401526040518060208101106001600160401b036020830111176111d557602081016040526000815261010084015260043560005260056020526040600020835181556001810160018060a01b036020860151166bffffffffffffffffffffffff60a01b82541617905560408401518051906001600160401b0382116111d557611e2182611e186002860154613306565b60028601613bbf565b602090601f8311600114611fc75791806101009492600794600092611fbc575b50508160011b916000199060031b1c19161760028201555b606086015160038201556080860151600482015560a086015160058201556006810160018060a01b0360c08801511681549060ff60a01b60e08a0151151560a01b16916affffffffffffffffffffff60a81b1617179055019301519283516001600160401b0381116111d557611ed981611ed38454613306565b84613bbf565b602094601f8211600114611f5657948192939495600092611f4b575b50508160011b916000199060031b1c19161790555b7f4c196d81c015a26ba0d0a677cab391ededa1ff786f26357d47ac370fd24f17a96040516020815280611f463395600435956020840191613c60565b0390a3005b015190508580611ef5565b601f198216958360005260206000209160005b888110611fa457508360019596979810611f8b575b505050811b019055611f0a565b015160001960f88460031b161c19169055858080611f7e565b91926020600181928685015181550194019201611f69565b015190508880611e41565b906002840160005260206000209160005b601f1985168110612025575092610100949260019260079583601f1981161061200c575b505050811b016002820155611e59565b015160001960f88460031b161c19169055888080611ffc565b91926020600181928685015181550194019201611fd8565b60405162461bcd60e51b815260206004820152600e60248201526d446973707574652065786973747360901b6044820152606490fd5b60405162461bcd60e51b815260206004820152600e60248201526d43616e6e6f74206469737075746560901b6044820152606490fd5b600291506120b6816134be565b1485611d03565b50611cd96120cc6004356132cb565b50600201546001600160a01b031633149050611cd0565b346102d15760203660031901126102d1576004356000526005602052604060002080546105c060018060a01b03806001850154169360ff612126600283016133d0565b91600381015493600482015460058301549061216b61214c6007600687015496016133d0565b966040519b8c9b8c5260208c01526101208060408d01528b0190613499565b9660608a0152608089015260a0880152811660c087015260a01c16151560e0850152838203610100850152613499565b346102d15760003660031901126102d15760206040517fbb08418a67729a078f87bbc8d02a770929bb68f5bfdf134ae2ead6ed38e2f4ae8152f35b346102d1576020806003193601126102d1576001600160a01b036121f8613510565b1660005260088152604060002090604051908181845491828152019360005281600020916000905b828210612243576105c085612237818903826133af565b6040519182918261353c565b835486529485019460019384019390910190612220565b346102d15760003660031901126102d1576020600354604051908152f35b346102d15760003660031901126102d1576122916136d1565b60025460ff8116156122d05760ff19166002557f5db9ee0a495bf2e6ff9c91a7834c1ba4fdd244a5e8aa4e537bd38aeae4b073aa6020604051338152a1005b60405162461bcd60e51b815260206004820152601460248201527314185d5cd8589b194e881b9bdd081c185d5cd95960621b6044820152606490fd5b346102d15760403660031901126102d157612325613526565b336001600160a01b03821603612341576103cc906004356139c8565b60405162461bcd60e51b815260206004820152602f60248201527f416363657373436f6e74726f6c3a2063616e206f6e6c792072656e6f756e636560448201526e103937b632b9903337b91039b2b63360891b6064820152608490fd5b346102d15760403660031901126102d1576004356123ba613526565b8160005260016020526123d46001604060002001546138bf565b81600052600160205260406000209060018060a01b0316908160005260205260ff604060002054161561240357005b8160005260016020526040600020816000526020526040600020600160ff1982541617905533917f2f8788117e7eff1d82e926ec794901d17c78024a50270940304540a733656f0d600080a4005b346102d15760203660031901126102d15760043560005260016020526020600160406000200154604051908152f35b346102d15760003660031901126102d1576020600a54604051908152f35b346102d157600160086124b0366134de565b906124b9613d5a565b6003906124c882548210613b39565b6124e86124d4826132cb565b50868060a01b039687910154163314613d1e565b60026124f3826132cb565b5060ff958691015416612505816134be565b03612861578060005260209160048352600461252c856040600020610a7381548310613fc4565b5001958654966002878916612540816134be565b0361281c5760ff19978816831790556040805186815233602082015284917f9ffbb52f2a1362273cd74689a516ca4f52c4282dc13e2e68b7e0646a9a7af7a391a261258a836132cb565b509083600052600485526125a28660406000206134f4565b5060048101805490858a83166125b7816134be565b036127e8578583019283549182156127ac5760058701549360068801946125df858754613a51565b11612772577f7c23647db3cb03f6f0d92ad3dcde207e9a1640d0b15a34689bd0ea8c8400f8d59693606096938f9360048d9b989561262895161790556007429101558254613a51565b9055612644600283898601541694019383855416835491613db0565b5491541660405191898352888301526040820152a2612662826132cb565b509082600052600484526040600020956001906000978054985b898110612730575b505050600495965080612720575b6126dd575b505060005252604060002090600181018091116109b357815481106126be575b6001600055005b6126cc6004916001936134f4565b5001918254161790558080806126b7565b600882019087825416179055600b42910155807fd78ea1895a54fef557b21f240ae42cdf7bed32528d9d4f42f81458e17a1db48283604051428152a28580612697565b5060068201548583015414612692565b6004838161273e84866134f4565b5001541661274b816134be565b0361275e5761275990613d02565b61267c565b505050506004949550600086958980612684565b60405162461bcd60e51b8152600481018c90526012602482015271496e73756666696369656e742066756e647360701b6044820152606490fd5b60405162461bcd60e51b8152600481018b905260146024820152734e6f20616d6f756e7420746f2072656c6561736560601b6044820152606490fd5b60405162461bcd60e51b815260048101899052600c60248201526b139bdd08185c1c1c9bdd995960a21b6044820152606490fd5b60405162461bcd60e51b815260048101869052601f60248201527f4d696c6573746f6e65206e6f74206177616974696e6720617070726f76616c006044820152606490fd5b60405162461bcd60e51b81526020600482015260146024820152734465616c206e6f7420696e2070726f677265737360601b6044820152606490fd5b346102d15760803660031901126102d1576004356001600160401b0381116102d1576128cd903690600401613577565b6128d5613526565b9060448035906001600160a01b03821682036102d1576128f3613b7b565b8215612dbe576001600160a01b038416151580612dab575b15612d76576001600160a01b0382166000908152600c602052604090205460ff1615612d3c5760643515612d075760405183868237602081858101600681520301902054158015612cfd575b15612cc85750600354926040519061296e8261335c565b61297936858861369a565b825233602083015260018060a01b038116604083015260018060a01b03831660608301526064356080830152600060a0830152600060c0830152600060e083015260006101008301524261012083015260006101408301526000610160830152600061018083015260006101a083015260006101c0830152600160401b8510156111d55760018501600355612a0d856132cb565b969096611262578251928351976001600160401b0389116111d557888895612a4160209b612a3b8554613306565b85613bbf565b8a90601f8311600114612c2657600d7f13663bb4876d0d3c73a43992e8a85195c2b14f6288cf9f3a904f45786687ba7997969484612b9695612bf298956101c095600092612c1b575b50508160011b916000199060031b1c19161781555b8d8401516001820180546001600160a01b039283166001600160a01b031991821617909155604086015160028401805491841691831691909117905560608601516003840180549190931691161790556080840151600482015560a0840151600582015560c0840151600682015560e08401516007820155610100840151612b3390612b2a816134be565b60088301613c13565b6101208401516009820155610140840151600a820155610160840151600b820155610180840151600c8201550191612b7e6101a08201511515849060ff801983541691151516179055565b0151815461ff00191690151560081b61ff0016179055565b84604051888382378a818a81016006815203019020553360005260078952612bc2856040600020613c2b565b60018060a01b03831660005260088952612be0856040600020613c2b565b60405196606088526060880191613c60565b6001600160a01b03948516868901526064356040870152931693339381900390a4604051908152f35b015190503880612a8a565b8360009897969594939298528b6000209060005b601f1984168110612cae5750612b96936001846101c0947f13663bb4876d0d3c73a43992e8a85195c2b14f6288cf9f3a904f45786687ba799b9c600d95612bf29b9a98601f19811610612c95575b505050811b018155612a9f565b015160001960f88460031b161c19169055388080612c88565b818a01518355988d01988c98506001909201918d01612c3a565b6064906d4465616c2049442065786973747360901b6040519162461bcd60e51b835260206004840152600e6024840152820152fd5b5060035415612957565b6064906d125b9d985b1a5908185b5bdd5b9d60921b6040519162461bcd60e51b835260206004840152600e6024840152820152fd5b60649072151bdad95b881b9bdd081cdd5c1c1bdc9d1959606a1b6040519162461bcd60e51b83526020600484015260136024840152820152fd5b6064906d24b73b30b634b21039b2b63632b960911b6040519162461bcd60e51b835260206004840152600e6024840152820152fd5b506001600160a01b03841633141561290b565b6064906e125b9d985b1a59081919585b081251608a1b6040519162461bcd60e51b835260206004840152600f6024840152820152fd5b346102d15760203660031901126102d157600435612e106136d1565b6101f48111612e1e57600a55005b60405162461bcd60e51b815260206004820152600c60248201526b08ccaca40e8dede40d0d2ced60a31b6044820152606490fd5b346102d1576020806003193601126102d1576001600160a01b03612e74613510565b1660005260078152604060002090604051908181845491828152019360005281600020916000905b828210612eb3576105c085612237818903826133af565b835486529485019460019384019390910190612e9c565b346102d157612ed8366134de565b906000526004602052604060002080548210156102d157612f4e91612efc916134f4565b50612f06816133d0565b90612f13600182016133d0565b600282015491600381015460ff600483015416600583015491612f5c6007600686015495015495604051998a99610100808c528b0190613499565b9089820360208b0152613499565b9560408801526060870152612f70816134be565b608086015260a085015260c084015260e08301520390f35b346102d15760003660031901126102d15760206040517f442a94f1a1fac79af32856af2a64f63648cfa2ef3b98610a5bb7cbec4cee69858152f35b346102d1576020806003193601126102d157600435600052600481526040600020908154916001600160401b0383116111d5576040519160059361300b8282871b01856133af565b8084528184018093600052826000206000915b8383106130e55750505050604051928184019082855251809152604081818601961b85010192916000955b8287106130565785850386f35b909192938280600192603f1989820301855287519060e0806130946130848551610100808752860190613499565b8686015185820388870152613499565b936040810151604085015260608082015190850152608080820151906130b9826134be565b85015260a0808201519085015260c0808201519085015201519101529601920196019592919092613049565b6008856001926040999799516130fa81613340565b613103866133d0565b81526131108587016133d0565b83820152600286015460408201526003860154606082015260ff600487015416613139816134be565b60808201528b86015460a0820152600686015460c0820152600786015460e082015281520192019201919095939561301e565b346102d15760203660031901126102d1576004356003548110156102d157613193906132cb565b5061319d816133d0565b600160a01b600190039182600182015416908360028201541693600382015416906004810154600582015460068301546007840154600885015460ff1690600986015492600a87015494600b88015496600c89015498600d0154996040519d8e809e6101e0808352820161321091613499565b9d60208201526040015260608d015260808c015260a08b015260c08a015260e089015261323c816134be565b61010088015261012087015261014086015261016085015261018084015260ff811615156101a084015260081c60ff1615156101c08301520390f35b346102d15760203660031901126102d1576004359063ffffffff60e01b82168092036102d157602091637965db0b60e01b81149081156132ba575b5015158152f35b6301ffc9a760e01b149050836132b3565b6003548110156109c957600e906003600052027fc2575a0e9e593c00f959f8c92f12db2869c3395a3b0502d05e2516446f71f85b0190600090565b90600182811c92168015613336575b602083101461332057565b634e487b7160e01b600052602260045260246000fd5b91607f1691613315565b61010081019081106001600160401b038211176111d557604052565b6101e081019081106001600160401b038211176111d557604052565b61012081019081106001600160401b038211176111d557604052565b608081019081106001600160401b038211176111d557604052565b90601f801991011681019081106001600160401b038211176111d557604052565b90604051918260008254926133e484613306565b9081845260019485811690816000146134535750600114613410575b505061340e925003836133af565b565b9093915060005260209081600020936000915b81831061343b57505061340e93508201013880613400565b85548884018501529485019487945091830191613423565b91505061340e94506020925060ff191682840152151560051b8201013880613400565b60005b8381106134895750506000910152565b8181015183820152602001613479565b906020916134b281518092818552858086019101613476565b601f01601f1916010190565b600711156134c857565b634e487b7160e01b600052602160045260246000fd5b60409060031901126102d1576004359060243590565b80548210156109c95760005260206000209060031b0190600090565b600435906001600160a01b03821682036102d157565b602435906001600160a01b03821682036102d157565b6020908160408183019282815285518094520193019160005b828110613563575050505090565b835185529381019392810192600101613555565b9181601f840112156102d1578235916001600160401b0383116102d157602083818601950101116102d157565b80548210156109c95760005260206000200190600090565b906135d082516101e0808452830190613499565b9160018060a01b0380602083015116602084015280604083015116604084015260608201511660608301526080810151608083015260a081015160a083015260c081015160c083015260e081015160e08301526101008082015190613634826134be565b83015261012080820151908301526101408082015190830152610160808201519083015261018080820151908301526101a0808201511515908301526101c080910151151591015290565b6001600160401b0381116111d557601f01601f191660200190565b9291926136a68261367f565b916136b460405193846133af565b8294818452818301116102d1578281602093846000960137010152565b3360009081527f6c6746439175be9d65ee036dd6459ab0aaa575fbfcb50169861733a151cd793a602090815260408083205490927f4ff52032f36e32ac782042a01802e20394d4255c84a3c046490be98ab632691b9160019060ff1615613739575050505050565b61374233613a6f565b9285519161374f83613394565b604283528583019360603686378351156138ab576030855383518210156138ab5790607860218501536041915b81831161383d575050506137fb5760486109289386936137df936137d0985198899376020b1b1b2b9b9a1b7b73a3937b61d1030b1b1b7bab73a1604d1b8a8601526108cf815180928c603789019101613476565b010360288101875201856133af565b5192839262461bcd60e51b845260048401526024830190613499565b60648486519062461bcd60e51b825280600483015260248201527f537472696e67733a20686578206c656e67746820696e73756666696369656e746044820152fd5b909192600f81166010811015613897576f181899199a1a9b1b9c1cb0b131b232b360811b901a61386d8587613a5e565b5360041c9280156138835760001901919061377c565b634e487b7160e01b82526011600452602482fd5b634e487b7160e01b83526032600452602483fd5b634e487b7160e01b81526032600452602490fd5b6000818152600191602091838352604093848220338352845260ff8583205416156138eb575050505050565b6138f433613a6f565b9285519161390183613394565b604283528583019360603686378351156138ab576030855383518210156138ab5790607860218501536041915b818311613982575050506137fb5760486109289386936137df936137d0985198899376020b1b1b2b9b9a1b7b73a3937b61d1030b1b1b7bab73a1604d1b8a8601526108cf815180928c603789019101613476565b909192600f81166010811015613897576f181899199a1a9b1b9c1cb0b131b232b360811b901a6139b28587613a5e565b5360041c9280156138835760001901919061392e565b906000918083526001602052604083209160018060a01b03169182845260205260ff6040842054166139f957505050565b8083526001602052604083208284526020526040832060ff1981541690557ff6391f5c32d9c69d2a47ea670b442974b53935d1edc7fd64eb21e047a839171b339380a4565b818102929181159184041417156109b357565b919082018092116109b357565b9081518110156109c9570160200190565b60405190606082018281106001600160401b038211176111d557604052602a82526020820160403682378251156109c9576030905381516001908110156109c957607860218401536029905b808211613acb575050611b3c5790565b9091600f81166010811015613b24576f181899199a1a9b1b9c1cb0b131b232b360811b901a613afa8486613a5e565b5360041c918015613b0f576000190190613abb565b60246000634e487b7160e01b81526011600452fd5b60246000634e487b7160e01b81526032600452fd5b15613b4057565b60405162461bcd60e51b81526020600482015260136024820152721119585b08191bd95cc81b9bdd08195e1a5cdd606a1b6044820152606490fd5b60ff60025416613b8757565b60405162461bcd60e51b815260206004820152601060248201526f14185d5cd8589b194e881c185d5cd95960821b6044820152606490fd5b90601f8111613bcd57505050565b600091825260208220906020601f850160051c83019410613c09575b601f0160051c01915b828110613bfe57505050565b818155600101613bf2565b9092508290613be9565b90613c1d816134be565b60ff80198354169116179055565b8054600160401b8110156111d557613c48916001820181556135a4565b819291549060031b91821b91600019901b1916179055565b908060209392818452848401376000828201840152601f01601f1916010190565b15613c8857565b60405162461bcd60e51b815260206004820152601060248201526f4e6f742061206465616c20706172747960801b6044820152606490fd5b15613cc757565b60405162461bcd60e51b8152602060048201526013602482015272496e76616c6964206465616c2073746174757360681b6044820152606490fd5b60001981146109b35760010190565b919082039182116109b357565b15613d2557565b60405162461bcd60e51b815260206004820152600d60248201526c2737ba103a343290313abcb2b960991b6044820152606490fd5b600260005414613d6b576002600055565b60405162461bcd60e51b815260206004820152601f60248201527f5265656e7472616e637947756172643a207265656e7472616e742063616c6c006044820152606490fd5b60405163a9059cbb60e01b60208201526001600160a01b03909216602483015260448083019390935291815260808101916001600160401b038311828410176111d55761340e926040525b60018060a01b03169060405160408101908082106001600160401b038311176111d557613e8a916040526020938482527f5361666545524332303a206c6f772d6c6576656c2063616c6c206661696c6564858301526000808587829751910182855af13d15613f27573d91613e6f8361367f565b92613e7d60405194856133af565b83523d868885013e613f2b565b805191821591848315613efc575b505050905015613ea55750565b6084906040519062461bcd60e51b82526004820152602a60248201527f5361666545524332303a204552433230206f7065726174696f6e20646964206e6044820152691bdd081cdd58d8d9595960b21b6064820152fd5b919381809450010312613f2357820151908115158203613f20575080388084613e98565b80fd5b5080fd5b6060915b91929015613f8d5750815115613f3f575090565b3b15613f485790565b60405162461bcd60e51b815260206004820152601d60248201527f416464726573733a2063616c6c20746f206e6f6e2d636f6e74726163740000006044820152606490fd5b825190915015613fa05750805190602001fd5b60405162461bcd60e51b815260206004820152908190610928906024830190613499565b15613fcb57565b60405162461bcd60e51b8152602060048201526011602482015270496e76616c6964206d696c6573746f6e6560781b6044820152606490fd5b604051906140118261335c565b81606081526101c06000918260208201528260408201528260608201528260808201528260a08201528260c08201528260e08201528261010082015282610120820152826101408201528261016082015282610180820152826101a08201520152565b906040516140818161335c565b6101c060ff600d8395614093816133d0565b855260018101546001600160a01b039081166020870152600282015481166040870152600382015416606086015260048101546080860152600581015460a0860152600681015460c0860152600781015460e0860152600881015483166140f9816134be565b6101008601526009810154610120860152600a810154610140860152600b810154610160860152600c810154610180860152015481811615156101a085015260081c16151591015256fea26469706673582212209cf1c5d247f09dedb0985076d166600d8900a21236b63b3fb3bdfddd180b4d0c64736f6c634300081400332f8788117e7eff1d82e926ec794901d17c78024a50270940304540a733656f0d",
  "linkReferences": {},
  "deployedLinkReferences": {}
}