{
  "_format": "hh-sol-artifact-1",
  "contractName": "ModularCompliance",
  "sourceName": "contracts/compliance/ModularCompliance.sol",
  "abi": [
    {
      "inputs": [],
      "name": "ModuleAlreadyBound",
      "type": "error"
    },
    {
      "inputs": [],
      "name": "ModuleNotBound",
      "type": "error"
    },
    {
      "inputs": [],
      "name": "NotTokenAgent",
      "type": "error"
    },
    {
      "inputs": [],
      "name": "OnlyBoundToken",
      "type": "error"
    },
    {
      "inputs": [],
      "name": "TokenAlreadyBound",
      "type": "error"
    },
    {
      "inputs": [],
      "name": "TokenNotBound",
      "type": "error"
    },
    {
      "inputs": [],
      "name": "TooManyModules",
      "type": "error"
    },
    {
      "inputs": [],
      "name": "Unauthorized",
      "type": "error"
    },
    {
      "inputs": [],
      "name": "ZeroAddress",
      "type": "error"
    },
    {
      "anonymous": false,
      "inputs": [
        {
          "indexed": false,
          "internalType": "address",
          "name": "previousAdmin",
          "type": "address"
        },
        {
          "indexed": false,
          "internalType": "address",
          "name": "newAdmin",
          "type": "address"
        }
      ],
      "name": "AdminChanged",
      "type": "event"
    },
    {
      "anonymous": false,
      "inputs": [
        {
          "indexed": true,
          "internalType": "address",
          "name": "beacon",
          "type": "address"
        }
      ],
      "name": "BeaconUpgraded",
      "type": "event"
    },
    {
      "anonymous": false,
      "inputs": [
        {
          "indexed": false,
          "internalType": "uint8",
          "name": "version",
          "type": "uint8"
        }
      ],
      "name": "Initialized",
      "type": "event"
    },
    {
      "anonymous": false,
      "inputs": [
        {
          "indexed": true,
          "internalType": "address",
          "name": "module",
          "type": "address"
        }
      ],
      "name": "ModuleAdded",
      "type": "event"
    },
    {
      "anonymous": false,
      "inputs": [
        {
          "indexed": true,
          "internalType": "address",
          "name": "module",
          "type": "address"
        },
        {
          "indexed": false,
          "internalType": "bytes4",
          "name": "selector",
          "type": "bytes4"
        },
        {
          "indexed": false,
          "internalType": "bool",
          "name": "success",
          "type": "bool"
        }
      ],
      "name": "ModuleFunctionCalled",
      "type": "event"
    },
    {
      "anonymous": false,
      "inputs": [
        {
          "indexed": true,
          "internalType": "address",
          "name": "module",
          "type": "address"
        }
      ],
      "name": "ModuleRemoved",
      "type": "event"
    },
    {
      "anonymous": false,
      "inputs": [
        {
          "indexed": true,
          "internalType": "address",
          "name": "previousOwner",
          "type": "address"
        },
        {
          "indexed": true,
          "internalType": "address",
          "name": "newOwner",
          "type": "address"
        }
      ],
      "name": "OwnershipTransferred",
      "type": "event"
    },
    {
      "anonymous": false,
      "inputs": [
        {
          "indexed": false,
          "internalType": "address",
          "name": "account",
          "type": "address"
        }
      ],
      "name": "Paused",
      "type": "event"
    },
    {
      "anonymous": false,
      "inputs": [
        {
          "indexed": true,
          "internalType": "address",
          "name": "agent",
          "type": "address"
        }
      ],
      "name": "TokenAgentAdded",
      "type": "event"
    },
    {
      "anonymous": false,
      "inputs": [
        {
          "indexed": true,
          "internalType": "address",
          "name": "agent",
          "type": "address"
        }
      ],
      "name": "TokenAgentRemoved",
      "type": "event"
    },
    {
      "anonymous": false,
      "inputs": [
        {
          "indexed": true,
          "internalType": "address",
          "name": "token",
          "type": "address"
        }
      ],
      "name": "TokenBound",
      "type": "event"
    },
    {
      "anonymous": false,
      "inputs": [
        {
          "indexed": true,
          "internalType": "address",
          "name": "token",
          "type": "address"
        }
      ],
      "name": "TokenUnbound",
      "type": "event"
    },
    {
      "anonymous": false,
      "inputs": [
        {
          "indexed": false,
          "internalType": "address",
          "name": "account",
          "type": "address"
        }
      ],
      "name": "Unpaused",
      "type": "event"
    },
    {
      "anonymous": false,
      "inputs": [
        {
          "indexed": true,
          "internalType": "address",
          "name": "implementation",
          "type": "address"
        }
      ],
      "name": "Upgraded",
      "type": "event"
    },
    {
      "inputs": [
        {
          "internalType": "address",
          "name": "_module",
          "type": "address"
        }
      ],
      "name": "addModule",
      "outputs": [],
      "stateMutability": "nonpayable",
      "type": "function"
    },
    {
      "inputs": [
        {
          "internalType": "address",
          "name": "_agent",
          "type": "address"
        }
      ],
      "name": "addTokenAgent",
      "outputs": [],
      "stateMutability": "nonpayable",
      "type": "function"
    },
    {
      "inputs": [
        {
          "internalType": "address",
          "name": "_token",
          "type": "address"
        }
      ],
      "name": "bindToken",
      "outputs": [],
      "stateMutability": "nonpayable",
      "type": "function"
    },
    {
      "inputs": [
        {
          "internalType": "bytes",
          "name": "_callData",
          "type": "bytes"
        },
        {
          "internalType": "address",
          "name": "_module",
          "type": "address"
        }
      ],
      "name": "callModuleFunction",
      "outputs": [],
      "stateMutability": "nonpayable",
      "type": "function"
    },
    {
      "inputs": [
        {
          "internalType": "address",
          "name": "_from",
          "type": "address"
        },
        {
          "internalType": "address",
          "name": "_to",
          "type": "address"
        },
        {
          "internalType": "uint256",
          "name": "_value",
          "type": "uint256"
        }
      ],
      "name": "canTransfer",
      "outputs": [
        {
          "internalType": "bool",
          "name": "",
          "type": "bool"
        }
      ],
      "stateMutability": "view",
      "type": "function"
    },
    {
      "inputs": [
        {
          "internalType": "address",
          "name": "_to",
          "type": "address"
        },
        {
          "internalType": "uint256",
          "name": "_value",
          "type": "uint256"
        }
      ],
      "name": "created",
      "outputs": [],
      "stateMutability": "nonpayable",
      "type": "function"
    },
    {
      "inputs": [
        {
          "internalType": "address",
          "name": "_from",
          "type": "address"
        },
        {
          "internalType": "uint256",
          "name": "_value",
          "type": "uint256"
        }
      ],
      "name": "destroyed",
      "outputs": [],
      "stateMutability": "nonpayable",
      "type": "function"
    },
    {
      "inputs": [],
      "name": "getModuleCount",
      "outputs": [
        {
          "internalType": "uint256",
          "name": "",
          "type": "uint256"
        }
      ],
      "stateMutability": "view",
      "type": "function"
    },
    {
      "inputs": [],
      "name": "getModules",
      "outputs": [
        {
          "internalType": "address[]",
          "name": "",
          "type": "address[]"
        }
      ],
      "stateMutability": "view",
      "type": "function"
    },
    {
      "inputs": [],
      "name": "getTokenBound",
      "outputs": [
        {
          "internalType": "address",
          "name": "",
          "type": "address"
        }
      ],
      "stateMutability": "view",
      "type": "function"
    },
    {
      "inputs": [
        {
          "internalType": "address",
          "name": "_owner",
          "type": "address"
        }
      ],
      "name": "initialize",
      "outputs": [],
      "stateMutability": "nonpayable",
      "type": "function"
    },
    {
      "inputs": [
        {
          "internalType": "address",
          "name": "_module",
          "type": "address"
        }
      ],
      "name": "isModuleBound",
      "outputs": [
        {
          "internalType": "bool",
          "name": "",
          "type": "bool"
        }
      ],
      "stateMutability": "view",
      "type": "function"
    },
    {
      "inputs": [
        {
          "internalType": "address",
          "name": "_agent",
          "type": "address"
        }
      ],
      "name": "isTokenAgent",
      "outputs": [
        {
          "internalType": "bool",
          "name": "",
          "type": "bool"
        }
      ],
      "stateMutability": "view",
      "type": "function"
    },
    {
      "inputs": [
        {
          "internalType": "address",
          "name": "_token",
          "type": "address"
        }
      ],
      "name": "isTokenBound",
      "outputs": [
        {
          "internalType": "bool",
          "name": "",
          "type": "bool"
        }
      ],
      "stateMutability": "view",
      "type": "function"
    },
    {
      "inputs": [],
      "name": "owner",
      "outputs": [
        {
          "internalType": "address",
          "name": "",
          "type": "address"
        }
      ],
      "stateMutability": "view",
      "type": "function"
    },
    {
      "inputs": [],
      "name": "pause",
      "outputs": [],
      "stateMutability": "nonpayable",
      "type": "function"
    },
    {
      "inputs": [],
      "name": "paused",
      "outputs": [
        {
          "internalType": "bool",
          "name": "",
          "type": "bool"
        }
      ],
      "stateMutability": "view",
      "type": "function"
    },
    {
      "inputs": [],
      "name": "proxiableUUID",
      "outputs": [
        {
          "internalType": "bytes32",
          "name": "",
          "type": "bytes32"
        }
      ],
      "stateMutability": "view",
      "type": "function"
    },
    {
      "inputs": [
        {
          "internalType": "address",
          "name": "_module",
          "type": "address"
        }
      ],
      "name": "removeModule",
      "outputs": [],
      "stateMutability": "nonpayable",
      "type": "function"
    },
    {
      "inputs": [
        {
          "internalType": "address",
          "name": "_agent",
          "type": "address"
        }
      ],
      "name": "removeTokenAgent",
      "outputs": [],
      "stateMutability": "nonpayable",
      "type": "function"
    },
    {
      "inputs": [],
      "name": "renounceOwnership",
      "outputs": [],
      "stateMutability": "nonpayable",
      "type": "function"
    },
    {
      "inputs": [
        {
          "internalType": "address",
          "name": "newOwner",
          "type": "address"
        }
      ],
      "name": "transferOwnership",
      "outputs": [],
      "stateMutability": "nonpayable",
      "type": "function"
    },
    {
      "inputs": [
        {
          "internalType": "address",
          "name": "_from",
          "type": "address"
        },
        {
          "internalType": "address",
          "name": "_to",
          "type": "address"
        },
        {
          "internalType": "uint256",
          "name": "_value",
          "type": "uint256"
        }
      ],
      "name": "transferred",
      "outputs": [],
      "stateMutability": "nonpayable",
      "type": "function"
    },
    {
      "inputs": [],
      "name": "unbindToken",
      "outputs": [],
      "stateMutability": "nonpayable",
      "type": "function"
    },
    {
      "inputs": [],
      "name": "unpause",
      "outputs": [],
      "stateMutability": "nonpayable",
      "type": "function"
    },
    {
      "inputs": [
        {
          "internalType": "address",
          "name": "newImplementation",
          "type": "address"
        }
      ],
      "name": "upgradeTo",
      "outputs": [],
      "stateMutability": "nonpayable",
      "type": "function"
    },
    {
      "inputs": [
        {
          "internalType": "address",
          "name": "newImplementation",
          "type": "address"
        },
        {
          "internalType": "bytes",
          "name": "data",
          "type": "bytes"
        }
      ],
      "name": "upgradeToAndCall",
      "outputs": [],
      "stateMutability": "payable",
      "type": "function"
    }
  ],
  "bytecode": "0x60a080604052346100315730608052611b3f90816100378239608051818181610d3001528181610e56015261121c0152f35b600080fdfe60406080815260048036101561001457600080fd5b600091823560e01c80631ed86f191461142a578063346531fa146113ec5780633659cfe6146111f65780633f4ba83a146111605780633ff5aa02146110ae5780634f1ef28614610ddd57806352d1902d14610d1b57806357d5626714610cfc5780635c975abb14610cd85780635f8dead314610c075780636a3edf2814610bde578063715018a614610b805780638456cb5914610aec5780638a883cda14610a785780638baf29b41461098c5780638d2ea7721461089f5780638da5cb5b14610876578063993e8b9514610842578063a063246114610671578063a446d49f14610633578063b2494df31461056b578063c4d66de8146103e3578063cdde29321461037d578063e46638e614610354578063efb22d331461025b578063f2fde38b146101c95763ff3e69541461014957600080fd5b346101c55760203660031901126101c557610162611560565b61016a61162f565b6001600160a01b03169182156101b7575081835260fe6020528220805460ff191660011790557fd62c45e13ac30396aceb3ad37c89bd1ba9048032fe61679000e92eb93dbfd67d8280a280f35b905163d92e233d60e01b8152fd5b8280fd5b5090346101c55760203660031901126101c5576101e4611560565b916101ed61162f565b6001600160a01b03831615610209578361020684611687565b80f35b906020608492519162461bcd60e51b8352820152602660248201527f4f776e61626c653a206e6577206f776e657220697320746865207a65726f206160448201526564647265737360d01b6064820152fd5b5090346101c557816003193601126101c55767ffffffffffffffff91813583811161033b573660238201121561033b578083013593841161033b576024810190602485369201011161033b576024356001600160a01b038116949085810361034f576102c561162f565b85875260fd60205260ff84882054161561033f57868091855184868237828186810182815203925af1936102f7611822565b501161033b57815190356001600160e01b031916815291151560208301527f1f26585fd2d483ed99505c2fd4f766c35a1cb72f6b6d0c6b2b165d1aec8cbd1b91a280f35b8480fd5b50505051633eed598960e11b8152fd5b600080fd5b8382346103795760209061037061036a366115fa565b916119f8565b90519015158152f35b5080fd5b83823461037957602036600319011261037957610398611560565b6103a061162f565b6001600160a01b031680835260fe602052908220805460ff191690557f6a659bb87bb23efbdc295f8eed8ae8c4379bfb77660ced2ef0f3d7d26b05c6a68280a280f35b5090346101c55760203660031901126101c5576103fe611560565b835460ff8160081c16159283809461055e575b8015610547575b156104ed5760ff19828116600117875591846104dc575b506001600160a01b038316156104ce5750906104909161045e60ff875460081c1661045981611926565b611926565b61046733611687565b61048460ff875460081c1661047b81611926565b61045981611926565b60c9541660c955611687565b610498575080f35b60207f7f26b83ff96e1f2b6a682f133852f6798a09c465da95921460cefb38474024989161ff001984541684555160018152a180f35b845163d92e233d60e01b8152fd5b61ffff19166101011786553861042f565b608490602086519162461bcd60e51b8352820152602e60248201527f496e697469616c697a61626c653a20636f6e747261637420697320616c72656160448201526d191e481a5b9a5d1a585b1a5e995960921b6064820152fd5b50303b1580156104185750600160ff831614610418565b50600160ff831610610411565b50823461063057806003193601126106305790805191829060fc54918285526020809501809360fc84527f371f36870d18f32a11fea0f144b021c8b407bb50f8e0267c711123f454b963c090845b81811061061357505050816105cf9103826115bc565b83519485948186019282875251809352850193925b8281106105f357505050500390f35b83516001600160a01b0316855286955093810193928101926001016105e4565b82546001600160a01b0316845292880192600192830192016105b9565b80fd5b8382346103795760203660031901126103795760209160ff9082906001600160a01b0361065e611560565b16815260fd855220541690519015158152f35b5090346101c55760203660031901126101c55761068c611560565b9161069561162f565b6001600160a01b0392831680855260fd6020528185205490939060ff1615610834579084929184845260fd60205281842060ff19815416905560fc805491855b838110610755575b50505050833b156101c557805191630694a5fb60e01b83523090830152828260248183885af190811561074c5750610738575b50807f0a1ee69f55c33d8467c69ca59ce2007a737a88603d75392972520bf67cb513b891a280f35b61074190611576565b610379578138610710565b513d84823e3d90fd5b90809293949596508761076783611986565b929054600393841b1c161461078c5750610780906119d3565b908795949392916106d5565b6000199897969594909392919089810190811161082157906107c1836107b46107e094611986565b905490881b1c1691611986565b90919082549060031b9160018060a01b03809116831b921b1916179055565b815497881561080e57879897969701926107f984611986565b81939154921b1b1916905555388080806106dd565b634e487b7160e01b885260318652602488fd5b634e487b7160e01b895260118752602489fd5b5051633eed598960e11b8152fd5b83823461037957602036600319011261037957602090610860611560565b9060018060a01b038060fb541691519216148152f35b83823461037957816003193601126103795760975490516001600160a01b039091168152602090f35b50346101c557806003193601126101c5576108b8611560565b60fb546001600160a01b039391929190602435908516330361097d5790859160fc5495835b8781106108e8578480f35b816108f282611986565b90549060031b1c16803b1561097957865162da1b3160e61b81526001600160a01b038916818701908152602081018690523060408201529091879183919082908490829060600103925af1801561096f5790869161095b575b5050610956906119d3565b6108dd565b61096490611576565b61033b57843861094b565b87513d88823e3d90fd5b8580fd5b509051632751f73d60e21b8152fd5b5090346101c55761099c366115fa565b60fb546001600160a01b03959391929086163303610a68579086929160fc5496845b8881106109c9578580f35b816109d382611986565b90549060031b1c16803b15610a6457875163cb2f377b60e01b81526001600160a01b03808716828c019081529086166020820152604081018890523060608201529091889183919082908490829060800103925af18015610a5a57908791610a46575b5050610a41906119d3565b6109be565b610a4f90611576565b610979578538610a36565b88513d89823e3d90fd5b8680fd5b50505051632751f73d60e21b8152fd5b5090346101c557826003193601126101c557610a9261162f565b60fb546001600160a01b038116929091908315610adf5750506001600160a01b03191660fb557f28a4ca7134a3b3f9aff286e79ad3daadb4a06d1b43d037a3a98bdc074edd9b7a8280a280f35b5163a20fb61560e01b8152fd5b5090346101c557826003193601126101c557610b0661162f565b60c9549060ff8216610b4a575060ff191660011760c955513381527f62e78cea01bee320cd4e420270b5ea74000d11b0c9f74754ebdbfc544b05a25890602090a180f35b606490602084519162461bcd60e51b8352820152601060248201526f14185d5cd8589b194e881c185d5cd95960821b6044820152fd5b8334610630578060031936011261063057610b9961162f565b609780546001600160a01b031981169091556000906001600160a01b03167f8be0079c531659141344cd1fd0a4f28419497f9722a3daafe3b4186f6b6457e08280a380f35b83823461037957816003193601126103795760fb5490516001600160a01b039091168152602090f35b50346101c557806003193601126101c557610c20611560565b60fb546001600160a01b039391929190602435908516330361097d5790859160fc5495835b878110610c50578480f35b81610c5a82611986565b90549060031b1c16803b1561097957865163d87d656760e01b81526001600160a01b038916818701908152602081018690523060408201529091879183919082908490829060600103925af1801561096f57908691610cc4575b5050610cbf906119d3565b610c45565b610ccd90611576565b61033b578438610cb4565b83823461037957816003193601126103795760209060ff60c9541690519015158152f35b83823461037957816003193601126103795760209060fc549051908152f35b509134610630578060031936011261063057507f00000000000000000000000000000000000000000000000000000000000000006001600160a01b03163003610d755760208251600080516020611aea8339815191528152f35b6020608492519162461bcd60e51b8352820152603860248201527f555550535570677261646561626c653a206d757374206e6f742062652063616c60448201527f6c6564207468726f7567682064656c656761746563616c6c00000000000000006064820152fd5b50806003193601126101c557610df1611560565b906024359067ffffffffffffffff821161033b573660238301121561033b5781840135610e1d816115de565b610e29835191826115bc565b818152866020948583019336602482840101116101c5578060248893018637830101526001600160a01b037f0000000000000000000000000000000000000000000000000000000000000000811690610e84308314156116d0565b610ea1600080516020611aea833981519152928284541614611731565b610ea961162f565b7f4910fdfa16fed3260ed0e7147f7cc6da11a60208b5b9406d12a635614ffd91435460ff1615610ee3575050505050506102069150611792565b8693949596169085516352d1902d60e01b815287818a81865afa6000918161107f575b50610f6557865162461bcd60e51b8152808a01899052602e60248201527f45524331393637557067726164653a206e657720696d706c656d656e7461746960448201526d6f6e206973206e6f74205555505360901b6064820152608490fd5b97919294979593950361102a5750610f7c84611792565b7fbc7cd75a20ee27fd9adebab32041f755214dbc6bffa90cc0225b39da2e5c2d3b600080a2815115801590611022575b610fb9575b505050505080f35b61101794600092660819985a5b195960ca1b837f416464726573733a206c6f772d6c6576656c2064656c65676174652063616c6c86955198610ffa8a6115a0565b60278a528901528701525190845af4611011611822565b91611852565b503880808080610fb1565b506001610fac565b825162461bcd60e51b8152908101869052602960248201527f45524331393637557067726164653a20756e737570706f727465642070726f786044820152681a58589b195555525160ba1b6064820152608490fd5b90918982813d83116110a7575b61109681836115bc565b810103126106305750519038610f06565b503d61108c565b5090346101c55760203660031901126101c5576001600160a01b0390816110d3611560565b169283156111535760fb549280841661114557609754163314158061113b575b61112f5750506001600160a01b031916811760fb557f2de35142b19ed5a07796cf30791959c592018f70b1d2d7c460eef8ffe713692b8280a280f35b516282b42960e81b8152fd5b50833314156110f3565b505163f8b5804160e01b8152fd5b5163d92e233d60e01b8152fd5b5090346101c557826003193601126101c55761117a61162f565b60c9549060ff8216156111bc575060ff191660c955513381527f5db9ee0a495bf2e6ff9c91a7834c1ba4fdd244a5e8aa4e537bd38aeae4b073aa90602090a180f35b606490602084519162461bcd60e51b8352820152601460248201527314185d5cd8589b194e881b9bdd081c185d5cd95960621b6044820152fd5b50346101c5576020806003193601126113e857611211611560565b916001600160a01b037f00000000000000000000000000000000000000000000000000000000000000008116611249308214156116d0565b611266600080516020611aea833981519152918383541614611731565b61126e61162f565b8251908482019282841067ffffffffffffffff8511176113d3578385528883527f4910fdfa16fed3260ed0e7147f7cc6da11a60208b5b9406d12a635614ffd91435460ff16156112c8575050505050506102069150611792565b8693949596169085516352d1902d60e01b815287818a81865afa600091816113a4575b5061134a57865162461bcd60e51b8152808a01899052602e60248201527f45524331393637557067726164653a206e657720696d706c656d656e7461746960448201526d6f6e206973206e6f74205555505360901b6064820152608490fd5b97919294979593950361102a575061136184611792565b7fbc7cd75a20ee27fd9adebab32041f755214dbc6bffa90cc0225b39da2e5c2d3b600080a281511580159061139c57610fb957505050505080f35b506000610fac565b90918982813d83116113cc575b6113bb81836115bc565b8101031261063057505190386112eb565b503d6113b1565b604188634e487b7160e01b6000525260246000fd5b8380fd5b8382346103795760203660031901126103795760209160ff9082906001600160a01b03611417611560565b16815260fe855220541690519015158152f35b5091903461037957602036600319011261037957611446611560565b9261144f61162f565b6001600160a01b0384169384156115525784845260fd60205260ff828520541661154457601960fc5410156115365784845260fd602052818420805460ff1916600117905560fc546801000000000000000081101561152357906107c18260016114bc940160fc55611986565b833b156101c5578051916312a4c95160e21b83523090830152828260248183885af190811561074c5750611514575b50907fead6a006345da1073a106d5f32372d2d2204f46cb0b4bca8f5ebafcbbed12b8a8280a280f35b61151d90611576565b386114eb565b634e487b7160e01b855260418452602485fd5b5051631fd53cd360e01b8152fd5b50516377ef7e8f60e01b8152fd5b505163d92e233d60e01b8152fd5b600435906001600160a01b038216820361034f57565b67ffffffffffffffff811161158a57604052565b634e487b7160e01b600052604160045260246000fd5b6060810190811067ffffffffffffffff82111761158a57604052565b90601f8019910116810190811067ffffffffffffffff82111761158a57604052565b67ffffffffffffffff811161158a57601f01601f191660200190565b606090600319011261034f576001600160a01b0390600435828116810361034f5791602435908116810361034f579060443590565b6097546001600160a01b0316330361164357565b606460405162461bcd60e51b815260206004820152602060248201527f4f776e61626c653a2063616c6c6572206973206e6f7420746865206f776e65726044820152fd5b609780546001600160a01b039283166001600160a01b0319821681179092559091167f8be0079c531659141344cd1fd0a4f28419497f9722a3daafe3b4186f6b6457e0600080a3565b156116d757565b60405162461bcd60e51b815260206004820152602c60248201527f46756e6374696f6e206d7573742062652063616c6c6564207468726f7567682060448201526b19195b1959d85d1958d85b1b60a21b6064820152608490fd5b1561173857565b60405162461bcd60e51b815260206004820152602c60248201527f46756e6374696f6e206d7573742062652063616c6c6564207468726f7567682060448201526b6163746976652070726f787960a01b6064820152608490fd5b803b156117c757600080516020611aea83398151915280546001600160a01b0319166001600160a01b03909216919091179055565b60405162461bcd60e51b815260206004820152602d60248201527f455243313936373a206e657720696d706c656d656e746174696f6e206973206e60448201526c1bdd08184818dbdb9d1c9858dd609a1b6064820152608490fd5b3d1561184d573d90611833826115de565b9161184160405193846115bc565b82523d6000602084013e565b606090565b919290156118b45750815115611866575090565b3b1561186f5790565b60405162461bcd60e51b815260206004820152601d60248201527f416464726573733a2063616c6c20746f206e6f6e2d636f6e74726163740000006044820152606490fd5b8251909150156118c75750805190602001fd5b6040519062461bcd60e51b82528160208060048301528251908160248401526000935b82851061190d575050604492506000838284010152601f80199101168101030190fd5b84810182015186860160440152938101938593506118ea565b1561192d57565b60405162461bcd60e51b815260206004820152602b60248201527f496e697469616c697a61626c653a20636f6e7472616374206973206e6f74206960448201526a6e697469616c697a696e6760a81b6064820152608490fd5b60fc548110156119bd5760fc6000527f371f36870d18f32a11fea0f144b021c8b407bb50f8e0267c711123f454b963c00190600090565b634e487b7160e01b600052603260045260246000fd5b60001981146119e25760010190565b634e487b7160e01b600052601160045260246000fd5b9060ff60c95416611ae15760fc549260005b848110611a1b575050505050600190565b611a2481611986565b905460408051624edf3960e21b81526001600160a01b0388811660048301528781166024830152604482018790523060648301529193909260209283928592608492849260031b9190911c165afa928315611ad75750600092611aa1575b505015611a9757611a92906119d3565b611a0a565b5050505050600090565b81813d8311611ad0575b611ab581836115bc565b81010312610379575190811515820361063057503880611a82565b503d611aab565b513d6000823e3d90fd5b50505060009056fe360894a13ba1a3210667c828492db98dca3e2076cc3735a920a3ca505d382bbca26469706673582212206b1b9f905f8a416f91a2b7c7ef695b00f19327a43a523967bfbed7d7b38769a864736f6c63430008140033",
  "linkReferences": {},
  "deployedLinkReferences": {}
}