{
  "_format": "hh-sol-artifact-1",
  "contractName": "CountryRestrictModule",
  "sourceName": "contracts/compliance/modules/CountryRestrictModule.sol",
  "abi": [
    {
      "inputs": [],
      "stateMutability": "nonpayable",
      "type": "constructor"
    },
    {
      "inputs": [],
      "name": "AlreadyBound",
      "type": "error"
    },
    {
      "inputs": [],
      "name": "BatchSizeExceeded",
      "type": "error"
    },
    {
      "inputs": [],
      "name": "CountryIsRestricted",
      "type": "error"
    },
    {
      "inputs": [],
      "name": "InvalidCacheDuration",
      "type": "error"
    },
    {
      "inputs": [],
      "name": "InvalidCountryCode",
      "type": "error"
    },
    {
      "inputs": [],
      "name": "InvalidKYCProof",
      "type": "error"
    },
    {
      "inputs": [],
      "name": "KYCExpired",
      "type": "error"
    },
    {
      "inputs": [],
      "name": "KYCLevelTooLow",
      "type": "error"
    },
    {
      "inputs": [],
      "name": "KYCNotCached",
      "type": "error"
    },
    {
      "inputs": [],
      "name": "ModuleNotEnabled",
      "type": "error"
    },
    {
      "inputs": [],
      "name": "NotBound",
      "type": "error"
    },
    {
      "inputs": [],
      "name": "NotCompliance",
      "type": "error"
    },
    {
      "inputs": [],
      "name": "ZeroAddress",
      "type": "error"
    },
    {
      "anonymous": false,
      "inputs": [
        {
          "indexed": false,
          "internalType": "address",
          "name": "previousAdmin",
          "type": "address"
        },
        {
          "indexed": false,
          "internalType": "address",
          "name": "newAdmin",
          "type": "address"
        }
      ],
      "name": "AdminChanged",
      "type": "event"
    },
    {
      "anonymous": false,
      "inputs": [
        {
          "indexed": true,
          "internalType": "address",
          "name": "beacon",
          "type": "address"
        }
      ],
      "name": "BeaconUpgraded",
      "type": "event"
    },
    {
      "anonymous": false,
      "inputs": [
        {
          "indexed": false,
          "internalType": "uint256",
          "name": "oldDuration",
          "type": "uint256"
        },
        {
          "indexed": false,
          "internalType": "uint256",
          "name": "newDuration",
          "type": "uint256"
        }
      ],
      "name": "CacheValidityUpdated",
      "type": "event"
    },
    {
      "anonymous": false,
      "inputs": [
        {
          "indexed": true,
          "internalType": "address",
          "name": "compliance",
          "type": "address"
        }
      ],
      "name": "ComplianceBound",
      "type": "event"
    },
    {
      "anonymous": false,
      "inputs": [
        {
          "indexed": true,
          "internalType": "address",
          "name": "compliance",
          "type": "address"
        }
      ],
      "name": "ComplianceUnbound",
      "type": "event"
    },
    {
      "anonymous": false,
      "inputs": [
        {
          "indexed": true,
          "internalType": "address",
          "name": "compliance",
          "type": "address"
        },
        {
          "indexed": true,
          "internalType": "uint16",
          "name": "countryCode",
          "type": "uint16"
        }
      ],
      "name": "CountryRestricted",
      "type": "event"
    },
    {
      "anonymous": false,
      "inputs": [
        {
          "indexed": true,
          "internalType": "address",
          "name": "compliance",
          "type": "address"
        },
        {
          "indexed": true,
          "internalType": "uint16",
          "name": "countryCode",
          "type": "uint16"
        }
      ],
      "name": "CountryUnrestricted",
      "type": "event"
    },
    {
      "anonymous": false,
      "inputs": [
        {
          "indexed": false,
          "internalType": "uint8",
          "name": "version",
          "type": "uint8"
        }
      ],
      "name": "Initialized",
      "type": "event"
    },
    {
      "anonymous": false,
      "inputs": [
        {
          "indexed": true,
          "internalType": "address",
          "name": "compliance",
          "type": "address"
        },
        {
          "indexed": true,
          "internalType": "address",
          "name": "wallet",
          "type": "address"
        },
        {
          "indexed": false,
          "internalType": "uint16",
          "name": "countryCode",
          "type": "uint16"
        },
        {
          "indexed": false,
          "internalType": "uint8",
          "name": "level",
          "type": "uint8"
        }
      ],
      "name": "KYCCached",
      "type": "event"
    },
    {
      "anonymous": false,
      "inputs": [
        {
          "indexed": true,
          "internalType": "address",
          "name": "compliance",
          "type": "address"
        },
        {
          "indexed": false,
          "internalType": "bool",
          "name": "required",
          "type": "bool"
        }
      ],
      "name": "KYCRequirementChanged",
      "type": "event"
    },
    {
      "anonymous": false,
      "inputs": [
        {
          "indexed": true,
          "internalType": "address",
          "name": "oldVerifier",
          "type": "address"
        },
        {
          "indexed": true,
          "internalType": "address",
          "name": "newVerifier",
          "type": "address"
        }
      ],
      "name": "KYCVerifierUpdated",
      "type": "event"
    },
    {
      "anonymous": false,
      "inputs": [
        {
          "indexed": true,
          "internalType": "address",
          "name": "compliance",
          "type": "address"
        },
        {
          "indexed": false,
          "internalType": "uint8",
          "name": "level",
          "type": "uint8"
        }
      ],
      "name": "MinKYCLevelUpdated",
      "type": "event"
    },
    {
      "anonymous": false,
      "inputs": [
        {
          "indexed": true,
          "internalType": "address",
          "name": "compliance",
          "type": "address"
        },
        {
          "indexed": false,
          "internalType": "bool",
          "name": "blacklistMode",
          "type": "bool"
        }
      ],
      "name": "ModeChanged",
      "type": "event"
    },
    {
      "anonymous": false,
      "inputs": [
        {
          "indexed": true,
          "internalType": "address",
          "name": "compliance",
          "type": "address"
        },
        {
          "indexed": false,
          "internalType": "bool",
          "name": "enabled",
          "type": "bool"
        }
      ],
      "name": "ModuleEnabled",
      "type": "event"
    },
    {
      "anonymous": false,
      "inputs": [
        {
          "indexed": true,
          "internalType": "address",
          "name": "previousOwner",
          "type": "address"
        },
        {
          "indexed": true,
          "internalType": "address",
          "name": "newOwner",
          "type": "address"
        }
      ],
      "name": "OwnershipTransferred",
      "type": "event"
    },
    {
      "anonymous": false,
      "inputs": [
        {
          "indexed": false,
          "internalType": "address",
          "name": "account",
          "type": "address"
        }
      ],
      "name": "Paused",
      "type": "event"
    },
    {
      "anonymous": false,
      "inputs": [
        {
          "indexed": false,
          "internalType": "address",
          "name": "account",
          "type": "address"
        }
      ],
      "name": "Unpaused",
      "type": "event"
    },
    {
      "anonymous": false,
      "inputs": [
        {
          "indexed": true,
          "internalType": "address",
          "name": "implementation",
          "type": "address"
        }
      ],
      "name": "Upgraded",
      "type": "event"
    },
    {
      "inputs": [
        {
          "internalType": "address",
          "name": "_compliance",
          "type": "address"
        },
        {
          "internalType": "uint16",
          "name": "_countryCode",
          "type": "uint16"
        }
      ],
      "name": "addCountryRestriction",
      "outputs": [],
      "stateMutability": "nonpayable",
      "type": "function"
    },
    {
      "inputs": [
        {
          "internalType": "address",
          "name": "_compliance",
          "type": "address"
        },
        {
          "internalType": "uint16[]",
          "name": "_countryCodes",
          "type": "uint16[]"
        }
      ],
      "name": "batchAddCountryRestrictions",
      "outputs": [],
      "stateMutability": "nonpayable",
      "type": "function"
    },
    {
      "inputs": [
        {
          "internalType": "address",
          "name": "_compliance",
          "type": "address"
        },
        {
          "internalType": "address[]",
          "name": "_wallets",
          "type": "address[]"
        },
        {
          "components": [
            {
              "internalType": "uint8",
              "name": "level",
              "type": "uint8"
            },
            {
              "internalType": "uint16",
              "name": "countryCode",
              "type": "uint16"
            },
            {
              "internalType": "uint256",
              "name": "expiry",
              "type": "uint256"
            },
            {
              "internalType": "bytes",
              "name": "signature",
              "type": "bytes"
            }
          ],
          "internalType": "struct CountryRestrictModule.KYCProof[]",
          "name": "_proofs",
          "type": "tuple[]"
        }
      ],
      "name": "batchCacheKYCProofs",
      "outputs": [],
      "stateMutability": "nonpayable",
      "type": "function"
    },
    {
      "inputs": [
        {
          "internalType": "address",
          "name": "_compliance",
          "type": "address"
        },
        {
          "internalType": "uint16[]",
          "name": "_countryCodes",
          "type": "uint16[]"
        }
      ],
      "name": "batchRemoveCountryRestrictions",
      "outputs": [],
      "stateMutability": "nonpayable",
      "type": "function"
    },
    {
      "inputs": [
        {
          "internalType": "address",
          "name": "_compliance",
          "type": "address"
        }
      ],
      "name": "bindCompliance",
      "outputs": [],
      "stateMutability": "nonpayable",
      "type": "function"
    },
    {
      "inputs": [
        {
          "internalType": "address",
          "name": "_compliance",
          "type": "address"
        },
        {
          "internalType": "address",
          "name": "_wallet",
          "type": "address"
        },
        {
          "components": [
            {
              "internalType": "uint8",
              "name": "level",
              "type": "uint8"
            },
            {
              "internalType": "uint16",
              "name": "countryCode",
              "type": "uint16"
            },
            {
              "internalType": "uint256",
              "name": "expiry",
              "type": "uint256"
            },
            {
              "internalType": "bytes",
              "name": "signature",
              "type": "bytes"
            }
          ],
          "internalType": "struct CountryRestrictModule.KYCProof",
          "name": "_proof",
          "type": "tuple"
        }
      ],
      "name": "cacheKYCProof",
      "outputs": [],
      "stateMutability": "nonpayable",
      "type": "function"
    },
    {
      "inputs": [],
      "name": "cacheValidityDuration",
      "outputs": [
        {
          "internalType": "uint256",
          "name": "",
          "type": "uint256"
        }
      ],
      "stateMutability": "view",
      "type": "function"
    },
    {
      "inputs": [
        {
          "internalType": "address",
          "name": "_compliance",
          "type": "address"
        }
      ],
      "name": "canComplianceBind",
      "outputs": [
        {
          "internalType": "bool",
          "name": "",
          "type": "bool"
        }
      ],
      "stateMutability": "view",
      "type": "function"
    },
    {
      "inputs": [
        {
          "internalType": "address",
          "name": "_compliance",
          "type": "address"
        },
        {
          "internalType": "address",
          "name": "_wallet",
          "type": "address"
        },
        {
          "components": [
            {
              "internalType": "uint8",
              "name": "level",
              "type": "uint8"
            },
            {
              "internalType": "uint16",
              "name": "countryCode",
              "type": "uint16"
            },
            {
              "internalType": "uint256",
              "name": "expiry",
              "type": "uint256"
            },
            {
              "internalType": "bytes",
              "name": "signature",
              "type": "bytes"
            }
          ],
          "internalType": "struct CountryRestrictModule.KYCProof",
          "name": "_proof",
          "type": "tuple"
        }
      ],
      "name": "checkWithProof",
      "outputs": [
        {
          "internalType": "bool",
          "name": "",
          "type": "bool"
        }
      ],
      "stateMutability": "view",
      "type": "function"
    },
    {
      "inputs": [
        {
          "internalType": "address",
          "name": "_compliance",
          "type": "address"
        },
        {
          "internalType": "address",
          "name": "_wallet",
          "type": "address"
        }
      ],
      "name": "getCachedKYC",
      "outputs": [
        {
          "internalType": "uint16",
          "name": "countryCode",
          "type": "uint16"
        },
        {
          "internalType": "uint8",
          "name": "level",
          "type": "uint8"
        },
        {
          "internalType": "uint256",
          "name": "expiry",
          "type": "uint256"
        },
        {
          "internalType": "uint256",
          "name": "cachedAt",
          "type": "uint256"
        },
        {
          "internalType": "bool",
          "name": "isValid",
          "type": "bool"
        }
      ],
      "stateMutability": "view",
      "type": "function"
    },
    {
      "inputs": [],
      "name": "getKYCVerifier",
      "outputs": [
        {
          "internalType": "address",
          "name": "",
          "type": "address"
        }
      ],
      "stateMutability": "view",
      "type": "function"
    },
    {
      "inputs": [
        {
          "internalType": "address",
          "name": "_compliance",
          "type": "address"
        }
      ],
      "name": "getMinKYCLevel",
      "outputs": [
        {
          "internalType": "uint8",
          "name": "",
          "type": "uint8"
        }
      ],
      "stateMutability": "view",
      "type": "function"
    },
    {
      "inputs": [
        {
          "internalType": "address",
          "name": "_kycVerifier",
          "type": "address"
        }
      ],
      "name": "initialize",
      "outputs": [],
      "stateMutability": "nonpayable",
      "type": "function"
    },
    {
      "inputs": [
        {
          "internalType": "address",
          "name": "_compliance",
          "type": "address"
        }
      ],
      "name": "isBlacklistMode",
      "outputs": [
        {
          "internalType": "bool",
          "name": "",
          "type": "bool"
        }
      ],
      "stateMutability": "view",
      "type": "function"
    },
    {
      "inputs": [
        {
          "internalType": "address",
          "name": "_compliance",
          "type": "address"
        }
      ],
      "name": "isComplianceBound",
      "outputs": [
        {
          "internalType": "bool",
          "name": "",
          "type": "bool"
        }
      ],
      "stateMutability": "view",
      "type": "function"
    },
    {
      "inputs": [
        {
          "internalType": "address",
          "name": "_compliance",
          "type": "address"
        },
        {
          "internalType": "uint16",
          "name": "_countryCode",
          "type": "uint16"
        }
      ],
      "name": "isCountryRestricted",
      "outputs": [
        {
          "internalType": "bool",
          "name": "",
          "type": "bool"
        }
      ],
      "stateMutability": "view",
      "type": "function"
    },
    {
      "inputs": [
        {
          "internalType": "address",
          "name": "_compliance",
          "type": "address"
        }
      ],
      "name": "isKYCRequired",
      "outputs": [
        {
          "internalType": "bool",
          "name": "",
          "type": "bool"
        }
      ],
      "stateMutability": "view",
      "type": "function"
    },
    {
      "inputs": [
        {
          "internalType": "address",
          "name": "_compliance",
          "type": "address"
        }
      ],
      "name": "isModuleEnabled",
      "outputs": [
        {
          "internalType": "bool",
          "name": "",
          "type": "bool"
        }
      ],
      "stateMutability": "view",
      "type": "function"
    },
    {
      "inputs": [],
      "name": "isPlugAndPlay",
      "outputs": [
        {
          "internalType": "bool",
          "name": "",
          "type": "bool"
        }
      ],
      "stateMutability": "pure",
      "type": "function"
    },
    {
      "inputs": [],
      "name": "kycVerifier",
      "outputs": [
        {
          "internalType": "contract IKYCVerifier",
          "name": "",
          "type": "address"
        }
      ],
      "stateMutability": "view",
      "type": "function"
    },
    {
      "inputs": [
        {
          "internalType": "address",
          "name": "_from",
          "type": "address"
        },
        {
          "internalType": "uint256",
          "name": "_amount",
          "type": "uint256"
        },
        {
          "internalType": "address",
          "name": "_compliance",
          "type": "address"
        }
      ],
      "name": "moduleBurnAction",
      "outputs": [],
      "stateMutability": "nonpayable",
      "type": "function"
    },
    {
      "inputs": [
        {
          "internalType": "address",
          "name": "_from",
          "type": "address"
        },
        {
          "internalType": "address",
          "name": "_to",
          "type": "address"
        },
        {
          "internalType": "uint256",
          "name": "_amount",
          "type": "uint256"
        },
        {
          "internalType": "address",
          "name": "_compliance",
          "type": "address"
        }
      ],
      "name": "moduleCheck",
      "outputs": [
        {
          "internalType": "bool",
          "name": "",
          "type": "bool"
        }
      ],
      "stateMutability": "view",
      "type": "function"
    },
    {
      "inputs": [
        {
          "internalType": "address",
          "name": "_to",
          "type": "address"
        },
        {
          "internalType": "uint256",
          "name": "_amount",
          "type": "uint256"
        },
        {
          "internalType": "address",
          "name": "_compliance",
          "type": "address"
        }
      ],
      "name": "moduleMintAction",
      "outputs": [],
      "stateMutability": "nonpayable",
      "type": "function"
    },
    {
      "inputs": [
        {
          "internalType": "address",
          "name": "_from",
          "type": "address"
        },
        {
          "internalType": "address",
          "name": "_to",
          "type": "address"
        },
        {
          "internalType": "uint256",
          "name": "_amount",
          "type": "uint256"
        },
        {
          "internalType": "address",
          "name": "_compliance",
          "type": "address"
        }
      ],
      "name": "moduleTransferAction",
      "outputs": [],
      "stateMutability": "nonpayable",
      "type": "function"
    },
    {
      "inputs": [],
      "name": "name",
      "outputs": [
        {
          "internalType": "string",
          "name": "",
          "type": "string"
        }
      ],
      "stateMutability": "pure",
      "type": "function"
    },
    {
      "inputs": [],
      "name": "owner",
      "outputs": [
        {
          "internalType": "address",
          "name": "",
          "type": "address"
        }
      ],
      "stateMutability": "view",
      "type": "function"
    },
    {
      "inputs": [],
      "name": "pause",
      "outputs": [],
      "stateMutability": "nonpayable",
      "type": "function"
    },
    {
      "inputs": [],
      "name": "paused",
      "outputs": [
        {
          "internalType": "bool",
          "name": "",
          "type": "bool"
        }
      ],
      "stateMutability": "view",
      "type": "function"
    },
    {
      "inputs": [],
      "name": "proxiableUUID",
      "outputs": [
        {
          "internalType": "bytes32",
          "name": "",
          "type": "bytes32"
        }
      ],
      "stateMutability": "view",
      "type": "function"
    },
    {
      "inputs": [
        {
          "internalType": "address",
          "name": "_compliance",
          "type": "address"
        },
        {
          "internalType": "uint16",
          "name": "_countryCode",
          "type": "uint16"
        }
      ],
      "name": "removeCountryRestriction",
      "outputs": [],
      "stateMutability": "nonpayable",
      "type": "function"
    },
    {
      "inputs": [],
      "name": "renounceOwnership",
      "outputs": [],
      "stateMutability": "nonpayable",
      "type": "function"
    },
    {
      "inputs": [
        {
          "internalType": "address",
          "name": "_compliance",
          "type": "address"
        },
        {
          "internalType": "bool",
          "name": "_blacklist",
          "type": "bool"
        }
      ],
      "name": "setBlacklistMode",
      "outputs": [],
      "stateMutability": "nonpayable",
      "type": "function"
    },
    {
      "inputs": [
        {
          "internalType": "uint256",
          "name": "_duration",
          "type": "uint256"
        }
      ],
      "name": "setCacheValidityDuration",
      "outputs": [],
      "stateMutability": "nonpayable",
      "type": "function"
    },
    {
      "inputs": [
        {
          "internalType": "address",
          "name": "_compliance",
          "type": "address"
        },
        {
          "internalType": "bool",
          "name": "_required",
          "type": "bool"
        }
      ],
      "name": "setKYCRequired",
      "outputs": [],
      "stateMutability": "nonpayable",
      "type": "function"
    },
    {
      "inputs": [
        {
          "internalType": "address",
          "name": "_kycVerifier",
          "type": "address"
        }
      ],
      "name": "setKYCVerifier",
      "outputs": [],
      "stateMutability": "nonpayable",
      "type": "function"
    },
    {
      "inputs": [
        {
          "internalType": "address",
          "name": "_compliance",
          "type": "address"
        },
        {
          "internalType": "uint8",
          "name": "_level",
          "type": "uint8"
        }
      ],
      "name": "setMinKYCLevel",
      "outputs": [],
      "stateMutability": "nonpayable",
      "type": "function"
    },
    {
      "inputs": [
        {
          "internalType": "address",
          "name": "_compliance",
          "type": "address"
        },
        {
          "internalType": "bool",
          "name": "_enabled",
          "type": "bool"
        }
      ],
      "name": "setModuleEnabled",
      "outputs": [],
      "stateMutability": "nonpayable",
      "type": "function"
    },
    {
      "inputs": [
        {
          "internalType": "address",
          "name": "newOwner",
          "type": "address"
        }
      ],
      "name": "transferOwnership",
      "outputs": [],
      "stateMutability": "nonpayable",
      "type": "function"
    },
    {
      "inputs": [
        {
          "internalType": "address",
          "name": "_compliance",
          "type": "address"
        }
      ],
      "name": "unbindCompliance",
      "outputs": [],
      "stateMutability": "nonpayable",
      "type": "function"
    },
    {
      "inputs": [],
      "name": "unpause",
      "outputs": [],
      "stateMutability": "nonpayable",
      "type": "function"
    },
    {
      "inputs": [
        {
          "internalType": "address",
          "name": "newImplementation",
          "type": "address"
        }
      ],
      "name": "upgradeTo",
      "outputs": [],
      "stateMutability": "nonpayable",
      "type": "function"
    },
    {
      "inputs": [
        {
          "internalType": "address",
          "name": "newImplementation",
          "type": "address"
        },
        {
          "internalType": "bytes",
          "name": "data",
          "type": "bytes"
        }
      ],
      "name": "upgradeToAndCall",
      "outputs": [],
      "stateMutability": "payable",
      "type": "function"
    }
  ],
  "bytecode": "0x60a080604052346100dc57306080526000549060ff8260081c1661008a575060ff8082160361004f575b6040516126b390816100e28239608051818181610c0101528181610d2801526114590152f35b60ff90811916176000557f7f26b83ff96e1f2b6a682f133852f6798a09c465da95921460cefb3847402498602060405160ff8152a138610029565b62461bcd60e51b815260206004820152602760248201527f496e697469616c697a61626c653a20636f6e747261637420697320696e697469604482015266616c697a696e6760c81b6064820152608490fd5b600080fdfe6040608081526004908136101561001557600080fd5b600091823560e01c8063013b7ce414611b975780630694a5fb14611afb57806306fdde0314611a835780630aabe439146119e957806318324e20146119345780631990fb37146116fe57806329775ff1146116c15780632c321fbc146116a15780632d9ad53d1461166357806330236f4a146116235780633659cfe614611432578063367e24171461131d5780633686cc40146102a35780633978cefc1461125b5780633f4ba83a146111c657806340f3df34146110a95780634a93254414610fe95780634cf4d29514610fab5780634f1ef28614610cae57806352d1902d14610bec5780635c975abb14610bc85780636e4df88f14610a735780636f64d55f14610a1a578063715018a6146109bd5780637c7a0cbf1461097e5780638456cb59146109235780638da5cb5b146108fa57806395c6df001461087b57806398fec68f146107e25780639e3a7ac114610728578063b3b6a976146106eb578063b554a0ef1461060b578063b60da085146105e2578063b937e7cc146105e2578063bcc21053146105b2578063c4d66de814610407578063cb2f377b146103ee578063d0bac4ae1461032e578063d17f6417146102a8578063d87d6567146102a3578063e6f5e807146102835763f2fde38b146101ef57600080fd5b3461027f57602036600319011261027f57610208611bb5565b91610211611e42565b6001600160a01b0383161561022d578361022a84611e9a565b80f35b906020608492519162461bcd60e51b8352820152602660248201527f4f776e61626c653a206e6577206f776e657220697320746865207a65726f206160448201526564647265737360d01b6064820152fd5b8280fd5b50503461029f578160031936011261029f576020905160018152f35b5080fd5b611d30565b503461027f57602036600319011261027f576102c2611bb5565b906102cb611e42565b6001600160a01b0391821692831561032157505060fb54826bffffffffffffffffffffffff60a01b82161760fb55167f4900e8de75d157a21080e6f17b8c48972095afb692f9fd506645277c99153ae38380a380f35b5163d92e233d60e01b8152fd5b50903461027f5761033e36611c5b565b6001600160a01b0391821680865260fd6020528386205490949193929060ff16156103df578433141590816103d0575b506103c257507f5a16f9367e01a86c4c2edc62f5a9364d229352125194b50c35d26fba096e7a639160209184865260fe83526103b8828288209060ff801983541691151516179055565b519015158152a280f35b9051630195cd0960e41b8152fd5b9050603354163314153861036e565b50905163179435b360e01b8152fd5b8334610404576103fd36611bd0565b5050505080f35b80fd5b503461027f57602036600319011261027f57610421611bb5565b83549160ff8360081c1615918280936105a5575b801561058e575b156105345760ff1984811660011787559383610523575b506001600160a01b0316908115610515575061047e60ff865460081c16610479816120ca565b6120ca565b61048733611e9a565b61049033611e9a565b8454926104af60ff8560081c166104a6816120ca565b610479816120ca565b60c9541660c9556bffffffffffffffffffffffff60a01b60fb54161760fb55610e10610103556104dd578280f35b61ff001916825551600181527f7f26b83ff96e1f2b6a682f133852f6798a09c465da95921460cefb384740249890602090a138808280f35b845163d92e233d60e01b8152fd5b61ffff191661010117865538610453565b845162461bcd60e51b8152602081840152602e60248201527f496e697469616c697a61626c653a20636f6e747261637420697320616c72656160448201526d191e481a5b9a5d1a585b1a5e995960921b6064820152608490fd5b50303b15801561043c5750600160ff85161461043c565b50600160ff851610610435565b50503461029f57602036600319011261029f576020906001600160a01b036105d8611bb5565b1615159051908152f35b50503461029f578160031936011261029f5760fb5490516001600160a01b039091168152602090f35b50903461027f5761061b36611c8a565b6001600160a01b0391821680865260fd602052838620549093929060ff16156106db578333141590816106cc575b506106bc5761ffff1692831580156106b1575b6106a3575081845260fc602052808420838552602052832060ff1981541690557fa4d06cbfce90542be69fd660878388224a2d79a25784cc9c0cbae08154bc9fa88380a380f35b90516304e7559960e21b8152fd5b506103e7841161065c565b8151630195cd0960e41b81528490fd5b90506033541633141538610649565b825163179435b360e01b81528590fd5b50503461029f57602036600319011261029f5760209160ff9082906001600160a01b03610716611bb5565b16815261010285522054169051908152f35b50503461029f578060031936011261029f57610742611bb5565b6001600160a01b0360243581811692908390036107de579160a0949184931682526101016020528282209082526020522090600282015480151591826107c6575b826107b7575b600184549401549060ff81519561ffff8116875260101c166020860152840152606083015215156080820152f35b60018401544211159250610789565b91506107d56101035482612432565b42111591610783565b8480fd5b50903461027f576107f236611c5b565b6001600160a01b0391821680865260fd6020528386205490949193929060ff16156103df5784331415908161086c575b506103c257507f2f45b37ec0644bd1c44b901f676ff4adc88c427498f5fe7de33af28c6ef57ee39160209184865260ff83526103b8828288209060ff801983541691151516179055565b90506033541633141538610822565b503461027f57602036600319011261027f57803590610898611e42565b811580156108ee575b6108e05750907f0a3d230b2e71a570517bc88f25cc1ca3252ed4632814efc0aa717b20b00b7a4a9161010390808254925582519182526020820152a180f35b825163064e9f0360e51b8152fd5b5062093a8082116108a1565b50503461029f578160031936011261029f5760335490516001600160a01b039091168152602090f35b50503461029f578160031936011261029f5760207f62e78cea01bee320cd4e420270b5ea74000d11b0c9f74754ebdbfc544b05a25891610961611e42565b610969612147565b600160ff1960c954161760c95551338152a180f35b50503461029f57602036600319011261029f5760209160ff9082906001600160a01b036109a9611bb5565b168152610100855220541690519015158152f35b83346104045780600319360112610404576109d6611e42565b603380546001600160a01b0319811690915581906001600160a01b03167f8be0079c531659141344cd1fd0a4f28419497f9722a3daafe3b4186f6b6457e08280a380f35b503461027f57918160ff93610a2e36611d61565b6001600160a01b038316865260fd6020529390942054929590921615610a65575092610a5c91602094612532565b90519015158152f35b835163179435b360e01b8152fd5b50903461027f57610a8336611cec565b6001600160a01b0392831680875260fd602090815285882054909591949293929060ff1615610bb857843314159081610ba9575b50610b9a5760328311610b8b57865b838110610ad1578780f35b61ffff80610ae8610ae38488886121b0565b61212a565b16158015610b71575b610b615790610b5c91868a5260fc8852838a2081610b13610ae3858a8a6121b0565b168b528852838a20805460ff19169055610b31610ae38388886121b0565b16867fa4d06cbfce90542be69fd660878388224a2d79a25784cc9c0cbae08154bc9fa88b80a361218b565b610ac6565b82516304e7559960e21b81528890fd5b506103e781610b84610ae38589896121b0565b1611610af1565b5163abcf3d2360e01b81528590fd5b51630195cd0960e41b81528590fd5b90506033541633141538610ab7565b815163179435b360e01b81528790fd5b50503461029f578160031936011261029f5760209060ff60c9541690519015158152f35b508234610404578060031936011261040457507f00000000000000000000000000000000000000000000000000000000000000006001600160a01b03163003610c46576020825160008051602061265e8339815191528152f35b6020608492519162461bcd60e51b8352820152603860248201527f555550535570677261646561626c653a206d757374206e6f742062652063616c60448201527f6c6564207468726f7567682064656c656761746563616c6c00000000000000006064820152fd5b50908060031936011261027f57610cc3611bb5565b906024359067ffffffffffffffff82116107de57366023830112156107de5781840135610cef81611e26565b610cfb83519182611e04565b8181528660209485830193366024828401011161027f578060248893018637830101526001600160a01b037f0000000000000000000000000000000000000000000000000000000000000000811690610d5630831415611ee3565b610d7360008051602061265e833981519152928284541614611f44565b610d7b611e42565b7f4910fdfa16fed3260ed0e7147f7cc6da11a60208b5b9406d12a635614ffd91435460ff1615610db55750505050505061022a9150611fa5565b869293949596169085516352d1902d60e01b815287818a81865afa8a9181610f78575b50610e3757865162461bcd60e51b8152808a01899052602e60248201527f45524331393637557067726164653a206e657720696d706c656d656e7461746960448201526d6f6e206973206e6f74205555505360901b6064820152608490fd5b979192939695949703610f235750610e4e82611fa5565b7fbc7cd75a20ee27fd9adebab32041f755214dbc6bffa90cc0225b39da2e5c2d3b8780a285845115801590610f1b575b610e8c575b50505050505080f35b80610f0596845196610e9d88611de8565b602788527f416464726573733a206c6f772d6c6576656c2064656c65676174652063616c6c87890152660819985a5b195960ca1b868901525190845af4913d15610f11573d610ef7610eee82611e26565b92519283611e04565b81528681943d92013e612035565b50388080808085610e83565b5060609250612035565b506001610e7e565b835162461bcd60e51b8152908101859052602960248201527f45524331393637557067726164653a20756e737570706f727465642070726f786044820152681a58589b195555525160ba1b6064820152608490fd5b9091508881813d8311610fa4575b610f908183611e04565b81010312610fa057519038610dd8565b8a80fd5b503d610f86565b50503461029f57602036600319011261029f5760209160ff9082906001600160a01b03610fd6611bb5565b16815260fd855220541690519015158152f35b50903461027f57602091826003193601126110a557611006611bb5565b61100e611e42565b6001600160a01b03169081156110975781855260fd845260ff8386205416611089575090600191845260fd83526101028185209360ff1994848682541617905560fe8152828620848682541617905560ff81528286208486825416179055610100815282862084868254161790555283209182541617905580f35b825163682a906560e01b8152fd5b825163d92e233d60e01b8152fd5b8380fd5b503461027f576110b836611d61565b9160018060a09693961b03908181169485885260fd60205260ff848920541615610a65575083866110e7612147565b6110f0926122a7565b60208301906110fe8261212a565b9061110885612139565b9184519261111584611db6565b61ffff8092168452602084019060ff168152858401918688013583526060850193428552898c52610101602052878c209a16998a8c52602052868b209451168454915160101b62ff0000169162ffffff1916171783555160018301555190600201556111809061212a565b9161118a90612139565b905161ffff92909216825260ff1660208201527ff4ffce649e4da243cdf50c4e41b64bff0dbc2549a1ff4db768523bdf2a050c5090604090a380f35b503461027f578260031936011261027f576111df611e42565b60c9549060ff821615611221575060ff191660c955513381527f5db9ee0a495bf2e6ff9c91a7834c1ba4fdd244a5e8aa4e537bd38aeae4b073aa90602090a180f35b606490602084519162461bcd60e51b8352820152601460248201527314185d5cd8589b194e881b9bdd081c185d5cd95960621b6044820152fd5b503461027f578160031936011261027f57611274611bb5565b916024359160ff83168093036107de576001600160a01b0393841680865260fd6020528286205490949060ff16156103df5784331415908161130e575b506103c25780831161130057507f6361187d32cb0d3230d9d7812783d03d49179c4b0abffe1792fb73797bc3441a9160209184865261010283528086208260ff1982541617905551908152a280f35b90516302cc37df60e51b8152fd5b905060335416331415386112b1565b50903461027f5761132d36611cec565b6001600160a01b0392831680875260fd602090815285882054909591949293929060ff1615610bb857843314159081611423575b50610b9a5760328311610b8b57865b83811061137b578780f35b61ffff8061138d610ae38488886121b0565b16158015611409575b610b61579061140491868a5260fc8852838a20816113b8610ae3858a8a6121b0565b168b528852838a20805460ff191660011790556113d9610ae38388886121b0565b16867f2778eb1463234a01ba959ad6d07ee162be6641bb0f00e119a2c29f2ca0f9d8a18b80a361218b565b611370565b506103e78161141c610ae38589896121b0565b1611611396565b90506033541633141538611361565b50903461027f576020806003193601126110a55761144e611bb5565b916001600160a01b037f0000000000000000000000000000000000000000000000000000000000000000811661148630821415611ee3565b6114a360008051602061265e833981519152918383541614611f44565b6114ab611e42565b8251908482019282841067ffffffffffffffff851117611610578385528883527f4910fdfa16fed3260ed0e7147f7cc6da11a60208b5b9406d12a635614ffd91435460ff16156115055750505050505061022a9150611fa5565b869293949596169085516352d1902d60e01b815287818a81865afa8a91816115e1575b5061158757865162461bcd60e51b8152808a01899052602e60248201527f45524331393637557067726164653a206e657720696d706c656d656e7461746960448201526d6f6e206973206e6f74205555505360901b6064820152608490fd5b979192939695949703610f23575061159e82611fa5565b7fbc7cd75a20ee27fd9adebab32041f755214dbc6bffa90cc0225b39da2e5c2d3b8780a2858451158015906115da57610e8c5750505050505080f35b5080610e7e565b9091508881813d8311611609575b6115f98183611e04565b81010312610fa057519038611528565b503d6115ef565b634e487b7160e01b895260418852602489fd5b50503461029f5760ff8160209361163936611c8a565b6001600160a01b03909116825260fc865282822061ffff9091168252855220549151911615158152f35b50503461029f57602036600319011261029f5760209160ff9082906001600160a01b0361168e611bb5565b16815260fe855220541690519015158152f35b50503461029f578160031936011261029f57602090610103549051908152f35b50503461029f57602036600319011261029f5760209160ff9082906001600160a01b036116ec611bb5565b16815282855220541690519015158152f35b5082903461029f576060928360031936011261027f5761171c611bb5565b9167ffffffffffffffff6024358181116119305761173d9036908401611cbb565b92909160443590811161192c576117579036908301611cbb565b9060018060a01b039384881695868a5260209460fd865260ff90818a8d2054161561191e57611784612147565b858303611910576032831161191057508a5b8281106117a1578b80f35b8c8989888f8f8f9091898e8d946117ba8b8f85906121b0565b6117c3906121d6565b6117ce8c89896121ea565b906117d8926122a7565b83816117e58c89896121ea565b016117ef9061212a565b958b6117fc818a846121ea565b61180590612139565b9861180f926121ea565b01359684519961181e8b611db6565b61ffff8097168b528c838c0198168852858b019889528a0198428a52845261010182528d8b86862094611850926121b0565b611859906121d6565b16835252209451168454915160101b62ff0000169162ffffff1916171783555160018301555190600201558989896118928487896121b0565b61189b906121d6565b8a6118a7868c8c6121ea565b016118b19061212a565b6118bc868c8c6121ea565b6118c590612139565b945161ffff91909116815260ff909416602085015216917ff4ffce649e4da243cdf50c4e41b64bff0dbc2549a1ff4db768523bdf2a050c5090604090a361190b9061218b565b611796565b895163abcf3d2360e01b8152fd5b895163179435b360e01b8152fd5b8680fd5b8580fd5b50903461027f5761194436611c8a565b6001600160a01b0391821680865260fd602052838620549093929060ff16156106db578333141590816119da575b506106bc5761ffff1692831580156119cf575b6106a3575081845260fc6020528084208385526020528320600160ff198254161790557f2778eb1463234a01ba959ad6d07ee162be6641bb0f00e119a2c29f2ca0f9d8a18380a380f35b506103e78411611985565b90506033541633141538611972565b50903461027f576119f936611c5b565b6001600160a01b0391821680865260fd6020528386205490949193929060ff16156103df57843314159081611a74575b506103c257507fb60cecfaf66492428ca99b90b791f6eab008678662e4ea91534f23d2226c4b269160209184865261010083526103b8828288209060ff801983541691151516179055565b90506033541633141538611a29565b5091903461029f578160031936011261029f578051918183019083821067ffffffffffffffff831117611ae85750611ae4935081526015825274436f756e74727952657374726963744d6f64756c6560581b60208301525191829182611c12565b0390f35b634e487b7160e01b815260418552602490fd5b503461027f57602036600319011261027f576001600160a01b039081611b1f611bb5565b169182855260fd60205260ff848620541615611b8857823314159081611b79575b50611b6b5750825260fd6020528082209060ff199182815416905560fe602052822090815416905580f35b8251630195cd0960e41b8152fd5b90506033541633141538611b40565b50825163179435b360e01b8152fd5b50503461029f57602090610a5c611bad36611bd0565b9290506123ba565b600435906001600160a01b0382168203611bcb57565b600080fd5b6080906003190112611bcb576001600160a01b03906004358281168103611bcb57916024358181168103611bcb5791604435916064359081168103611bcb5790565b6020808252825181830181905290939260005b828110611c4757505060409293506000838284010152601f8019910116010190565b818101860151848201604001528501611c25565b6040906003190112611bcb576004356001600160a01b0381168103611bcb57906024358015158103611bcb5790565b6040906003190112611bcb576004356001600160a01b0381168103611bcb579060243561ffff81168103611bcb5790565b9181601f84011215611bcb5782359167ffffffffffffffff8311611bcb576020808501948460051b010111611bcb57565b906040600319830112611bcb576004356001600160a01b0381168103611bcb57916024359067ffffffffffffffff8211611bcb57611d2c91600401611cbb565b9091565b34611bcb576060366003190112611bcb576001600160a01b0360043581811603611bcb5760443590811603611bcb57005b60031991606082840112611bcb576001600160a01b03926004358481168103611bcb57936024359081168103611bcb57926044359167ffffffffffffffff8311611bcb5782608092030112611bcb5760040190565b6080810190811067ffffffffffffffff821117611dd257604052565b634e487b7160e01b600052604160045260246000fd5b6060810190811067ffffffffffffffff821117611dd257604052565b90601f8019910116810190811067ffffffffffffffff821117611dd257604052565b67ffffffffffffffff8111611dd257601f01601f191660200190565b6033546001600160a01b03163303611e5657565b606460405162461bcd60e51b815260206004820152602060248201527f4f776e61626c653a2063616c6c6572206973206e6f7420746865206f776e65726044820152fd5b603380546001600160a01b039283166001600160a01b0319821681179092559091167f8be0079c531659141344cd1fd0a4f28419497f9722a3daafe3b4186f6b6457e0600080a3565b15611eea57565b60405162461bcd60e51b815260206004820152602c60248201527f46756e6374696f6e206d7573742062652063616c6c6564207468726f7567682060448201526b19195b1959d85d1958d85b1b60a21b6064820152608490fd5b15611f4b57565b60405162461bcd60e51b815260206004820152602c60248201527f46756e6374696f6e206d7573742062652063616c6c6564207468726f7567682060448201526b6163746976652070726f787960a01b6064820152608490fd5b803b15611fda5760008051602061265e83398151915280546001600160a01b0319166001600160a01b03909216919091179055565b60405162461bcd60e51b815260206004820152602d60248201527f455243313936373a206e657720696d706c656d656e746174696f6e206973206e60448201526c1bdd08184818dbdb9d1c9858dd609a1b6064820152608490fd5b919290156120975750815115612049575090565b3b156120525790565b60405162461bcd60e51b815260206004820152601d60248201527f416464726573733a2063616c6c20746f206e6f6e2d636f6e74726163740000006044820152606490fd5b8251909150156120aa5750805190602001fd5b60405162461bcd60e51b81529081906120c69060048301611c12565b0390fd5b156120d157565b60405162461bcd60e51b815260206004820152602b60248201527f496e697469616c697a61626c653a20636f6e7472616374206973206e6f74206960448201526a6e697469616c697a696e6760a81b6064820152608490fd5b3561ffff81168103611bcb5790565b3560ff81168103611bcb5790565b60ff60c9541661215357565b60405162461bcd60e51b815260206004820152601060248201526f14185d5cd8589b194e881c185d5cd95960821b6044820152606490fd5b600019811461219a5760010190565b634e487b7160e01b600052601160045260246000fd5b91908110156121c05760051b0190565b634e487b7160e01b600052603260045260246000fd5b356001600160a01b0381168103611bcb5790565b91908110156121c05760051b81013590607e1981360301821215611bcb570190565b903590601e1981360301821215611bcb570180359067ffffffffffffffff8211611bcb57602001918136038313611bcb57565b90816020910312611bcb57518015158103611bcb5790565b94918694919360ff61ffff9260c0999660018060a01b03168952166020880152166040860152606085015260a060808501528160a0850152848401376000828201840152601f01601f1916010190565b60fb546001600160a01b039081169391929091906122c482612139565b9060206122d281850161212a565b604097888601359485946123096122ec60608a018a61220c565b908d5198899788968796631da9612560e11b885260048801612257565b03915afa9081156123af57600091612381575b501561237057421161235f5761233190612139565b911660005261010260205260ff8083600020541691161061234f5750565b516302cc37df60e51b8152600490fd5b8351634973d8d560e11b8152600490fd5b845163249d777160e21b8152600490fd5b6123a2915060203d81116123a8575b61239a8183611e04565b81019061223f565b3861231c565b503d612390565b86513d6000823e3d90fd5b60018060a01b039081841660005260fe60205260ff60406000205416156124295781811661240c575b5081166123f2575b5050600190565b6123fb9161243f565b156124075738806123eb565b600090565b612416908461243f565b1561242157386123e3565b505050600090565b50505050600190565b9190820180921161219a57565b9060018060a01b038092169160008381526020926101018452604092838320911682528352818120928482526101009081815260ff948585852054166124d8575b5461ffff1691821590816124c8575b506124bd57849160fc82528484209084528152818484205416958352522054166000146124ba571590565b90565b505050505050600190565b825250838320548516153861248f565b6002810154801561252757610103546124f091612432565b421161251d576001810154421161251d5785815460101c1687855261010283528686862054161115612480575b5050509250505090565b505050509250505090565b91909160018060a01b038091169260009084825260209060fe825260ff94604094868686205416156126505760fb54169161256c82612139565b90848084019461257b8661212a565b90898601359485946125b08c61259460608b018b61220c565b9151631da9612560e11b81529889978896879660048801612257565b03915afa908115612646578691612629575b501561252757421161251d576125d790612139565b8684526101028352858086862054169116106126205790849160fc825261ffff6126038686209261212a565b1684528152818484205416958352522054166000146124ba571590565b50509250505090565b6126409150853d87116123a85761239a8183611e04565b386125c2565b87513d88823e3d90fd5b505050505050505060019056fe360894a13ba1a3210667c828492db98dca3e2076cc3735a920a3ca505d382bbca2646970667358221220e8564e41b565c87ab7906c6ff923c05fa503d548caf3efca4ce3b878cb5df3b564736f6c63430008140033",
  "linkReferences": {},
  "deployedLinkReferences": {}
}