{"contracts/tokenize/RWATokenizationFactory.sol":{"RWATokenizationFactory":{"abi":[{"inputs":[],"name":"AlreadyHasModule","type":"error"},{"inputs":[{"internalType":"uint16","name":"countryCode","type":"uint16"}],"name":"CountryRestricted","type":"error"},{"inputs":[],"name":"DeployerNotApproved","type":"error"},{"inputs":[],"name":"DeploymentNotFound","type":"error"},{"inputs":[],"name":"InvalidAddress","type":"error"},{"inputs":[],"name":"InvalidKYCLevel","type":"error"},{"inputs":[],"name":"InvalidKYCProof","type":"error"},{"inputs":[],"name":"InvalidSupply","type":"error"},{"inputs":[],"name":"KYCExpired","type":"error"},{"inputs":[{"internalType":"uint8","name":"required","type":"uint8"},{"internalType":"uint8","name":"provided","type":"uint8"}],"name":"KYCLevelTooLow","type":"error"},{"inputs":[],"name":"NotDeploymentOwner","type":"error"},{"anonymous":false,"inputs":[{"indexed":false,"internalType":"address","name":"previousAdmin","type":"address"},{"indexed":false,"internalType":"address","name":"newAdmin","type":"address"}],"name":"AdminChanged","type":"event"},{"anonymous":false,"inputs":[{"indexed":true,"internalType":"address","name":"beacon","type":"address"}],"name":"BeaconUpgraded","type":"event"},{"anonymous":false,"inputs":[{"indexed":false,"internalType":"uint16","name":"countryCode","type":"uint16"},{"indexed":false,"internalType":"bool","name":"restricted","type":"bool"}],"name":"DefaultRestrictedCountryUpdated","type":"event"},{"anonymous":false,"inputs":[{"indexed":true,"internalType":"address","name":"deployer","type":"address"},{"indexed":false,"internalType":"bool","name":"approved","type":"bool"}],"name":"DeployerApprovalUpdated","type":"event"},{"anonymous":false,"inputs":[{"indexed":true,"internalType":"uint256","name":"deploymentId","type":"uint256"},{"indexed":false,"internalType":"uint16","name":"countryCode","type":"uint16"},{"indexed":false,"internalType":"bool","name":"restricted","type":"bool"}],"name":"DeploymentCountryRestrictionUpdated","type":"event"},{"anonymous":false,"inputs":[{"indexed":true,"internalType":"uint256","name":"deploymentId","type":"uint256"}],"name":"DeploymentDeactivated","type":"event"},{"anonymous":false,"inputs":[{"indexed":true,"internalType":"uint256","name":"deploymentId","type":"uint256"},{"indexed":false,"internalType":"uint8","name":"oldLevel","type":"uint8"},{"indexed":false,"internalType":"uint8","name":"newLevel","type":"uint8"}],"name":"DeploymentKYCLevelUpdated","type":"event"},{"anonymous":false,"inputs":[{"indexed":true,"internalType":"uint256","name":"deploymentId","type":"uint256"},{"indexed":true,"internalType":"address","name":"owner","type":"address"},{"indexed":false,"internalType":"address","name":"dividendDistributor","type":"address"}],"name":"DividendModuleDeployed","type":"event"},{"anonymous":false,"inputs":[{"indexed":true,"internalType":"uint256","name":"deploymentId","type":"uint256"},{"indexed":true,"internalType":"address","name":"owner","type":"address"},{"indexed":false,"internalType":"address","name":"tradeEscrow","type":"address"}],"name":"EscrowDeployed","type":"event"},{"anonymous":false,"inputs":[{"indexed":true,"internalType":"uint8","name":"implType","type":"uint8"},{"indexed":true,"internalType":"address","name":"oldImpl","type":"address"},{"indexed":true,"internalType":"address","name":"newImpl","type":"address"}],"name":"ImplementationUpdated","type":"event"},{"anonymous":false,"inputs":[{"indexed":false,"internalType":"uint8","name":"version","type":"uint8"}],"name":"Initialized","type":"event"},{"anonymous":false,"inputs":[{"indexed":false,"internalType":"bool","name":"required","type":"bool"},{"indexed":false,"internalType":"uint8","name":"minLevel","type":"uint8"}],"name":"KYCRequirementUpdated","type":"event"},{"anonymous":false,"inputs":[{"indexed":true,"internalType":"address","name":"oldVerifier","type":"address"},{"indexed":true,"internalType":"address","name":"newVerifier","type":"address"}],"name":"KYCVerifierUpdated","type":"event"},{"anonymous":false,"inputs":[{"indexed":true,"internalType":"address","name":"previousOwner","type":"address"},{"indexed":true,"internalType":"address","name":"newOwner","type":"address"}],"name":"OwnershipTransferred","type":"event"},{"anonymous":false,"inputs":[{"indexed":false,"internalType":"address","name":"account","type":"address"}],"name":"Paused","type":"event"},{"anonymous":false,"inputs":[{"indexed":true,"internalType":"uint256","name":"deploymentId","type":"uint256"},{"indexed":true,"internalType":"address","name":"owner","type":"address"},{"indexed":false,"internalType":"address","name":"projectNFT","type":"address"},{"indexed":false,"internalType":"enum RWATokenizationFactory.DeploymentType","name":"deploymentType","type":"uint8"}],"name":"ProjectNFTDeployed","type":"event"},{"anonymous":false,"inputs":[{"indexed":true,"internalType":"uint256","name":"deploymentId","type":"uint256"},{"indexed":true,"internalType":"address","name":"owner","type":"address"},{"indexed":false,"internalType":"address","name":"securityToken","type":"address"},{"indexed":false,"internalType":"uint256","name":"supply","type":"uint256"},{"indexed":false,"internalType":"enum RWATokenizationFactory.DeploymentType","name":"deploymentType","type":"uint8"},{"indexed":false,"internalType":"uint8","name":"minKYCLevel","type":"uint8"}],"name":"TokenDeployed","type":"event"},{"anonymous":false,"inputs":[{"indexed":false,"internalType":"address","name":"account","type":"address"}],"name":"Unpaused","type":"event"},{"anonymous":false,"inputs":[{"indexed":true,"internalType":"address","name":"implementation","type":"address"}],"name":"Upgraded","type":"event"},{"inputs":[{"internalType":"uint16","name":"_countryCode","type":"uint16"}],"name":"addDefaultRestrictedCountry","outputs":[],"stateMutability":"nonpayable","type":"function"},{"inputs":[{"internalType":"uint256","name":"_deploymentId","type":"uint256"}],"name":"addDividendModule","outputs":[{"internalType":"address","name":"dividendDistributor","type":"address"}],"stateMutability":"nonpayable","type":"function"},{"inputs":[{"internalType":"uint256","name":"_deploymentId","type":"uint256"}],"name":"addEscrow","outputs":[{"internalType":"address","name":"tradeEscrow","type":"address"}],"stateMutability":"nonpayable","type":"function"},{"inputs":[{"internalType":"address","name":"","type":"address"}],"name":"approvedDeployers","outputs":[{"internalType":"bool","name":"","type":"bool"}],"stateMutability":"view","type":"function"},{"inputs":[{"internalType":"uint256","name":"_deploymentId","type":"uint256"},{"internalType":"uint16[]","name":"_countryCodes","type":"uint16[]"},{"internalType":"bool","name":"_restricted","type":"bool"}],"name":"batchSetDeploymentCountryRestrictions","outputs":[],"stateMutability":"nonpayable","type":"function"},{"inputs":[{"internalType":"uint256","name":"_deploymentId","type":"uint256"}],"name":"deactivateDeployment","outputs":[],"stateMutability":"nonpayable","type":"function"},{"inputs":[{"internalType":"uint256","name":"","type":"uint256"}],"name":"defaultRestrictedCountries","outputs":[{"internalType":"uint16","name":"","type":"uint16"}],"stateMutability":"view","type":"function"},{"inputs":[{"internalType":"string","name":"_name","type":"string"},{"internalType":"string","name":"_symbol","type":"string"},{"internalType":"uint256","name":"_supply","type":"uint256"},{"internalType":"string","name":"_metadataURI","type":"string"},{"internalType":"uint8","name":"_minKYCLevel","type":"uint8"},{"components":[{"internalType":"uint8","name":"level","type":"uint8"},{"internalType":"uint16","name":"countryCode","type":"uint16"},{"internalType":"uint256","name":"expiry","type":"uint256"},{"internalType":"bytes","name":"signature","type":"bytes"}],"internalType":"struct RWATokenizationFactory.KYCProof","name":"_kycProof","type":"tuple"}],"name":"deployNFTAndToken","outputs":[{"internalType":"uint256","name":"deploymentId","type":"uint256"},{"internalType":"address","name":"securityToken","type":"address"},{"internalType":"address","name":"projectNFT","type":"address"}],"stateMutability":"nonpayable","type":"function"},{"inputs":[{"internalType":"string","name":"_name","type":"string"},{"internalType":"string","name":"_symbol","type":"string"},{"internalType":"string","name":"_metadataURI","type":"string"},{"components":[{"internalType":"uint8","name":"level","type":"uint8"},{"internalType":"uint16","name":"countryCode","type":"uint16"},{"internalType":"uint256","name":"expiry","type":"uint256"},{"internalType":"bytes","name":"signature","type":"bytes"}],"internalType":"struct RWATokenizationFactory.KYCProof","name":"_kycProof","type":"tuple"}],"name":"deployProjectNFT","outputs":[{"internalType":"uint256","name":"deploymentId","type":"uint256"},{"internalType":"address","name":"projectNFT","type":"address"}],"stateMutability":"nonpayable","type":"function"},{"inputs":[{"internalType":"string","name":"_name","type":"string"},{"internalType":"string","name":"_symbol","type":"string"},{"internalType":"uint256","name":"_supply","type":"uint256"},{"internalType":"string","name":"_metadataURI","type":"string"},{"internalType":"uint8","name":"_minKYCLevel","type":"uint8"},{"components":[{"internalType":"uint8","name":"level","type":"uint8"},{"internalType":"uint16","name":"countryCode","type":"uint16"},{"internalType":"uint256","name":"expiry","type":"uint256"},{"internalType":"bytes","name":"signature","type":"bytes"}],"internalType":"struct RWATokenizationFactory.KYCProof","name":"_kycProof","type":"tuple"}],"name":"deployToken","outputs":[{"internalType":"uint256","name":"deploymentId","type":"uint256"},{"internalType":"address","name":"securityToken","type":"address"}],"stateMutability":"nonpayable","type":"function"},{"inputs":[{"internalType":"string","name":"_name","type":"string"},{"internalType":"string","name":"_symbol","type":"string"},{"internalType":"uint256","name":"_supply","type":"uint256"},{"internalType":"string","name":"_metadataURI","type":"string"},{"internalType":"uint8","name":"_minKYCLevel","type":"uint8"},{"components":[{"internalType":"uint8","name":"level","type":"uint8"},{"internalType":"uint16","name":"countryCode","type":"uint16"},{"internalType":"uint256","name":"expiry","type":"uint256"},{"internalType":"bytes","name":"signature","type":"bytes"}],"internalType":"struct RWATokenizationFactory.KYCProof","name":"_kycProof","type":"tuple"}],"name":"deployWithEscrow","outputs":[{"internalType":"uint256","name":"deploymentId","type":"uint256"},{"internalType":"address","name":"securityToken","type":"address"},{"internalType":"address","name":"projectNFT","type":"address"},{"internalType":"address","name":"tradeEscrow","type":"address"}],"stateMutability":"nonpayable","type":"function"},{"inputs":[],"name":"deploymentCounter","outputs":[{"internalType":"uint256","name":"","type":"uint256"}],"stateMutability":"view","type":"function"},{"inputs":[{"internalType":"uint256","name":"","type":"uint256"},{"internalType":"uint16","name":"","type":"uint16"}],"name":"deploymentRestrictedCountries","outputs":[{"internalType":"bool","name":"","type":"bool"}],"stateMutability":"view","type":"function"},{"inputs":[{"internalType":"uint256","name":"","type":"uint256"}],"name":"deployments","outputs":[{"internalType":"uint256","name":"deploymentId","type":"uint256"},{"internalType":"address","name":"owner","type":"address"},{"internalType":"address","name":"securityToken","type":"address"},{"internalType":"address","name":"projectNFT","type":"address"},{"internalType":"address","name":"tradeEscrow","type":"address"},{"internalType":"address","name":"dividendDistributor","type":"address"},{"internalType":"enum RWATokenizationFactory.DeploymentType","name":"deploymentType","type":"uint8"},{"internalType":"uint256","name":"deployedAt","type":"uint256"},{"internalType":"bool","name":"active","type":"bool"},{"internalType":"string","name":"metadataURI","type":"string"},{"internalType":"uint8","name":"minKYCLevel","type":"uint8"}],"stateMutability":"view","type":"function"},{"inputs":[],"name":"escrowTransactionFeeBps","outputs":[{"internalType":"uint256","name":"","type":"uint256"}],"stateMutability":"view","type":"function"},{"inputs":[],"name":"getDefaultRestrictedCountries","outputs":[{"internalType":"uint16[]","name":"","type":"uint16[]"}],"stateMutability":"view","type":"function"},{"inputs":[{"internalType":"uint256","name":"_deploymentId","type":"uint256"}],"name":"getDeployment","outputs":[{"components":[{"internalType":"uint256","name":"deploymentId","type":"uint256"},{"internalType":"address","name":"owner","type":"address"},{"internalType":"address","name":"securityToken","type":"address"},{"internalType":"address","name":"projectNFT","type":"address"},{"internalType":"address","name":"tradeEscrow","type":"address"},{"internalType":"address","name":"dividendDistributor","type":"address"},{"internalType":"enum RWATokenizationFactory.DeploymentType","name":"deploymentType","type":"uint8"},{"internalType":"uint256","name":"deployedAt","type":"uint256"},{"internalType":"bool","name":"active","type":"bool"},{"internalType":"string","name":"metadataURI","type":"string"},{"internalType":"uint8","name":"minKYCLevel","type":"uint8"}],"internalType":"struct RWATokenizationFactory.TokenDeployment","name":"","type":"tuple"}],"stateMutability":"view","type":"function"},{"inputs":[{"internalType":"uint256","name":"_deploymentId","type":"uint256"}],"name":"getDeploymentMinKYCLevel","outputs":[{"internalType":"uint8","name":"","type":"uint8"}],"stateMutability":"view","type":"function"},{"inputs":[],"name":"getImplementations","outputs":[{"components":[{"internalType":"address","name":"securityToken","type":"address"},{"internalType":"address","name":"projectNFT","type":"address"},{"internalType":"address","name":"compliance","type":"address"},{"internalType":"address","name":"tradeEscrow","type":"address"},{"internalType":"address","name":"dividendDistributor","type":"address"}],"internalType":"struct RWATokenizationFactory.Implementations","name":"","type":"tuple"}],"stateMutability":"view","type":"function"},{"inputs":[],"name":"getKYCVerifier","outputs":[{"internalType":"address","name":"","type":"address"}],"stateMutability":"view","type":"function"},{"inputs":[{"internalType":"address","name":"_owner","type":"address"}],"name":"getOwnerDeploymentCount","outputs":[{"internalType":"uint256","name":"","type":"uint256"}],"stateMutability":"view","type":"function"},{"inputs":[{"internalType":"address","name":"_owner","type":"address"}],"name":"getOwnerDeployments","outputs":[{"internalType":"uint256[]","name":"","type":"uint256[]"}],"stateMutability":"view","type":"function"},{"inputs":[],"name":"implementations","outputs":[{"internalType":"address","name":"securityToken","type":"address"},{"internalType":"address","name":"projectNFT","type":"address"},{"internalType":"address","name":"compliance","type":"address"},{"internalType":"address","name":"tradeEscrow","type":"address"},{"internalType":"address","name":"dividendDistributor","type":"address"}],"stateMutability":"view","type":"function"},{"inputs":[{"internalType":"address","name":"_admin","type":"address"},{"internalType":"address","name":"_securityTokenImpl","type":"address"},{"internalType":"address","name":"_projectNFTImpl","type":"address"},{"internalType":"address","name":"_complianceImpl","type":"address"},{"internalType":"address","name":"_kycVerifier","type":"address"},{"internalType":"address","name":"_feeRecipient","type":"address"}],"name":"initialize","outputs":[],"stateMutability":"nonpayable","type":"function"},{"inputs":[{"internalType":"uint16","name":"_countryCode","type":"uint16"},{"internalType":"uint256","name":"_deploymentId","type":"uint256"}],"name":"isCountryRestricted","outputs":[{"internalType":"bool","name":"","type":"bool"}],"stateMutability":"view","type":"function"},{"inputs":[{"internalType":"address","name":"_deployer","type":"address"}],"name":"isDeployerApproved","outputs":[{"internalType":"bool","name":"","type":"bool"}],"stateMutability":"view","type":"function"},{"inputs":[],"name":"kycVerifier","outputs":[{"internalType":"address","name":"","type":"address"}],"stateMutability":"view","type":"function"},{"inputs":[],"name":"minKYCLevelForDeployment","outputs":[{"internalType":"uint8","name":"","type":"uint8"}],"stateMutability":"view","type":"function"},{"inputs":[],"name":"owner","outputs":[{"internalType":"address","name":"","type":"address"}],"stateMutability":"view","type":"function"},{"inputs":[{"internalType":"address","name":"","type":"address"},{"internalType":"uint256","name":"","type":"uint256"}],"name":"ownerDeployments","outputs":[{"internalType":"uint256","name":"","type":"uint256"}],"stateMutability":"view","type":"function"},{"inputs":[],"name":"pause","outputs":[],"stateMutability":"nonpayable","type":"function"},{"inputs":[],"name":"paused","outputs":[{"internalType":"bool","name":"","type":"bool"}],"stateMutability":"view","type":"function"},{"inputs":[],"name":"platformFeeRecipient","outputs":[{"internalType":"address","name":"","type":"address"}],"stateMutability":"view","type":"function"},{"inputs":[],"name":"proxiableUUID","outputs":[{"internalType":"bytes32","name":"","type":"bytes32"}],"stateMutability":"view","type":"function"},{"inputs":[{"internalType":"uint16","name":"_countryCode","type":"uint16"}],"name":"removeDefaultRestrictedCountry","outputs":[],"stateMutability":"nonpayable","type":"function"},{"inputs":[],"name":"renounceOwnership","outputs":[],"stateMutability":"nonpayable","type":"function"},{"inputs":[],"name":"requireApproval","outputs":[{"internalType":"bool","name":"","type":"bool"}],"stateMutability":"view","type":"function"},{"inputs":[],"name":"requireKYCForDeployment","outputs":[{"internalType":"bool","name":"","type":"bool"}],"stateMutability":"view","type":"function"},{"inputs":[{"internalType":"address","name":"_deployer","type":"address"},{"internalType":"bool","name":"_approved","type":"bool"}],"name":"setDeployerApproval","outputs":[],"stateMutability":"nonpayable","type":"function"},{"inputs":[{"internalType":"uint256","name":"_deploymentId","type":"uint256"},{"internalType":"uint16","name":"_countryCode","type":"uint16"},{"internalType":"bool","name":"_restricted","type":"bool"}],"name":"setDeploymentCountryRestriction","outputs":[],"stateMutability":"nonpayable","type":"function"},{"inputs":[{"internalType":"uint256","name":"_deploymentId","type":"uint256"},{"internalType":"uint8","name":"_minLevel","type":"uint8"}],"name":"setDeploymentMinKYCLevel","outputs":[],"stateMutability":"nonpayable","type":"function"},{"inputs":[{"internalType":"uint256","name":"_feeBps","type":"uint256"}],"name":"setEscrowTransactionFee","outputs":[],"stateMutability":"nonpayable","type":"function"},{"inputs":[{"internalType":"uint8","name":"_implType","type":"uint8"},{"internalType":"address","name":"_impl","type":"address"}],"name":"setImplementation","outputs":[],"stateMutability":"nonpayable","type":"function"},{"inputs":[{"internalType":"bool","name":"_required","type":"bool"},{"internalType":"uint8","name":"_minLevel","type":"uint8"}],"name":"setKYCRequirement","outputs":[],"stateMutability":"nonpayable","type":"function"},{"inputs":[{"internalType":"address","name":"_verifier","type":"address"}],"name":"setKYCVerifier","outputs":[],"stateMutability":"nonpayable","type":"function"},{"inputs":[{"internalType":"address","name":"_recipient","type":"address"}],"name":"setPlatformFeeRecipient","outputs":[],"stateMutability":"nonpayable","type":"function"},{"inputs":[{"internalType":"bool","name":"_require","type":"bool"}],"name":"setRequireApproval","outputs":[],"stateMutability":"nonpayable","type":"function"},{"inputs":[{"internalType":"address","name":"newOwner","type":"address"}],"name":"transferOwnership","outputs":[],"stateMutability":"nonpayable","type":"function"},{"inputs":[],"name":"unpause","outputs":[],"stateMutability":"nonpayable","type":"function"},{"inputs":[{"internalType":"address","name":"newImplementation","type":"address"}],"name":"upgradeTo","outputs":[],"stateMutability":"nonpayable","type":"function"},{"inputs":[{"internalType":"address","name":"newImplementation","type":"address"},{"internalType":"bytes","name":"data","type":"bytes"}],"name":"upgradeToAndCall","outputs":[],"stateMutability":"payable","type":"function"},{"inputs":[{"internalType":"address","name":"_holder","type":"address"},{"internalType":"uint256","name":"_deploymentId","type":"uint256"},{"components":[{"internalType":"uint8","name":"level","type":"uint8"},{"internalType":"uint16","name":"countryCode","type":"uint16"},{"internalType":"uint256","name":"expiry","type":"uint256"},{"internalType":"bytes","name":"signature","type":"bytes"}],"internalType":"struct RWATokenizationFactory.KYCProof","name":"_proof","type":"tuple"}],"name":"verifyHolderKYC","outputs":[{"internalType":"bool","name":"valid","type":"bool"}],"stateMutability":"view","type":"function"},{"stateMutability":"payable","type":"receive"}],"evm":{"bytecode":{"linkReferences":{},"object":"60a08060405234610031573060805261519090816100378239608051818181611f58015281816120e0015261266a0152f35b600080fdfe60808060405260043610156200001f575b5036156200001d57600080fd5b005b600090813560e01c90816304a19f4d14620038215750806306609bbe146200374257806315b17d1f14620036e15780631871e24314620036925780631ea67d66146200366957806323e71358146200362557806325da1698146200343257806327e1ff021462002f0f5780632b9fa38d14620029e857806330e9012c14620029905780633128228b14620029055780633659cfe61462002641578063374a08fb14620025e357806339feabf814620025965780633f4ba83a14620024fc5780634503101114620024db57806345583b7a14620023aa5780634ce5c35314620023835780634f1ef286146200208a5780634feefa9b146200200b57806352d1902d1462001f435780635c975abb1462001f1e5780635e6884ae1462001e3b57806360bfa7241462001ce4578063615f64fe1462001c2e5780636780f8e51462001c045780636d9ca0fb1462001bd15780637083e3401462001747578063715018a614620016e557806372adaab214620016a157806382d5ea6c146200167b5780638340581d146200163d5780638456cb5914620015dc578063876f6d4814620015aa5780638da5cb5b146200157f5780639b82178e146200154d5780639d4c51aa1462001515578063a40f8f33146200103f578063a4ba23f41462000ed8578063b52d0f831462000e0f578063b60da0851462000de3578063b937e7cc1462000de3578063ba6c4f8d1462000a5f578063cc2a9a5b14620006a2578063d17f6417146200062a578063d7e0e54114620005ed578063dd6ca7621462000541578063e83b86e11462000520578063eb13554f14620004f4578063f2fde38b146200045a578063fd322a1f14620003bc5763fd52c63f03620000105734620003b9576020366003190112620003b957604060043591620002bb62004017565b620002c562003fd2565b82815261013660205220600181015490916001600160a01b039182168015620003a75733036200039557816002840154169283156200037157600401918083541662000383578061013054161562000371576200032460209462004801565b1691826001600160601b0360a01b825416179055604051908282527fe5c9c12ceba4010c539736de12d295843fb58a5127edbf481306a98e1e30d560843393a3600160fb55604051908152f35b60405163e6c4247b60e01b8152600490fd5b604051630616314960e51b8152600490fd5b6040516327dd236f60e21b8152600490fd5b604051630a92fe1f60e31b8152600490fd5b80fd5b5034620003b9576040366003190112620003b957620003da620038d9565b60243590811515908183036200045557620003f462003cd6565b6001600160a01b031691821562000371577f944b31d2fab28bfc29fbc2fb7020539e835cc45ecc5ab856fecef32647cd7bbc916200044b6020928587526101388452604087209060ff801983541691151516179055565b604051908152a280f35b600080fd5b5034620003b9576020366003190112620003b95762000478620038d9565b6200048262003cd6565b6001600160a01b03811615620004a0576200049d9062003d2f565b80f35b60405162461bcd60e51b815260206004820152602660248201527f4f776e61626c653a206e6577206f776e657220697320746865207a65726f206160448201526564647265737360d01b6064820152608490fd5b5034620003b95780600319360112620003b957610133546040516001600160a01b039091168152602090f35b5034620003b95780600319360112620003b957602061013554604051908152f35b5034620003b9576040366003190112620003b9576200055f62003cc6565b6200056962003b6e565b906200057462003cd6565b60ff82169160048311620005db577fd78aa6e58e09d304582d80eb0741642b60f9291a2d180f37b605f39e681d655b9260409215159161013b9062ff000082549160101b169061ff008560081b169062ffff0019161717905582519182526020820152a180f35b604051633d98a22f60e21b8152600490fd5b5034620003b9576020366003190112620003b9576200060b62003cc6565b6200061562003cd6565b61013b9060ff80198354169115151617905580f35b5034620003b9576020366003190112620003b95762000648620038d9565b6200065262003cd6565b6001600160a01b0390811680156200037157610132918183549182167f4900e8de75d157a21080e6f17b8c48972095afb692f9fd506645277c99153ae38680a36001600160a01b03191617905580f35b5034620003b95760c0366003190112620003b957620006c0620038d9565b620006ca620038f0565b6044356001600160a01b038181169291839003620004555760643590808216809203620004555760843590808216809203620004555760a43592818416809403620004555787549560ff8760081c16159687809862000a51575b801562000a38575b15620009dc5760019860ff1991898b848316178d55620009ca575b50848116158015620009bf575b8015620009b6575b8015620009ad575b8015620009a4575b6200037157620007de620007e8926200079760ff8e5460081c16620007918162003f71565b62003f71565b620007a23362003d2f565b60ff8d5460081c1690620007b68262003f71565b620007c18262003f71565b620007cc8262003f71565b60c9541660c955620007918162003f71565b8960fb5562003d2f565b8860808460405198620007fb8a62003975565b169788815283602082015284604082015282606082015201526001600160601b0360a01b9561012d908782541617905561012e908682541617905561012f908582541617905586166101308185825416179055610131908482541617905561013290838254161790556101339182541617905560646101345561013b8262ffffff1982541617905561013a805490600160401b91828110156200098e578085620008a89201835562003ae7565b929080549360031b61ffff9485610198831b921b19161790558154818110156200098e578086620008dc9201845562003ae7565b81549060031b908561016c831b921b19161790558154818110156200098e5780866200090b9201845562003ae7565b81549060031b90856102f8831b921b19161790558154908110156200098e576200093a91858201905562003ae7565b819291549060031b9160c0831b921b191617905562000957575080f35b60207f7f26b83ff96e1f2b6a682f133852f6798a09c465da95921460cefb38474024989161ff00198454168455604051908152a180f35b634e487b7160e01b600052604160045260246000fd5b5086156200076c565b50851562000764565b5083156200075c565b508488161562000754565b61ffff1916610101178b553862000747565b60405162461bcd60e51b815260206004820152602e60248201527f496e697469616c697a61626c653a20636f6e747261637420697320616c72656160448201526d191e481a5b9a5d1a585b1a5e995960921b6064820152608490fd5b50303b1580156200072c5750600160ff8216146200072c565b50600160ff82161062000724565b5034620003b95780600319360112620003b9576040518061013a91825480825282602080809401809688527f1cc3277f886bc7650038e458160d07e0113c6dbe808de6ada3226131dc5802519388905b80600f83011062000d185762000b619554918482821062000d03575b82821062000ceb575b82821062000cd4575b82821062000cbc575b82821062000ca4575b82821062000c8c575b82821062000c74575b82821062000c5c575b82821062000c44575b82821062000c2c575b82821062000c14575b82821062000bfc575b82821062000be4575b82821062000bcc575b82821062000bb4575b501062000ba5575b50905095929493950385620039ad565b60405193838594850191818652518092526040850193925b82811062000b8957505050500390f35b835161ffff168552869550938101939281019260010162000b79565b60f01c81520183903862000b51565b6001919461ffff8560e01c1681520193018462000b49565b6001919461ffff8560d01c1681520193018462000b40565b6001919461ffff8560c01c1681520193018462000b37565b6001919461ffff8560b01c1681520193018462000b2e565b6001919461ffff8560a01c1681520193018462000b25565b6001919461ffff8560901c1681520193018462000b1c565b6001919461ffff8560801c1681520193018462000b13565b6001919461ffff8560701c1681520193018462000b0a565b6001919461ffff8560601c1681520193018462000b01565b6001919461ffff8560501c1681520193018462000af8565b6001919461ffff8560401c1681520193018462000aef565b6001919461ffff8560301c1681520193018462000ae6565b6001919461ffff85831c1681520193018462000add565b6001919461ffff8560101c1681520193018462000ad4565b6001919461ffff851681520193018462000acb565b925092506001610200601092865461ffff80821683528082871c168a84015280828b1c16604084015280826060828260301c168187015282826080828260401c16818a0152828260a092828260501c16848d0152828260c0981c16878d0152828260701c1660e08d01521c166101008a0152828260901c166101208a01521c16610140870152828260b01c166101608701521c16610180840152808260d01c166101a08401528160e01c166101c083015260f01c6101e0820152019401920192859293859262000aaf565b5034620003b95780600319360112620003b957610132546040516001600160a01b039091168152602090f35b5034620003b9576040366003190112620003b95760043562000e3062003b6e565b8183526101366020526040832060018101549091906001600160a01b039081168015620003a757331415908162000ec8575b50620003955760ff811660048111620005db57600992909201805460ff19811690931790556040805160ff93841681529190921660208201527f0fa8490501759793412d4d59a4c0d695e3a6ceeac67e30f2e3d94fd79612f45591819081015b0390a280f35b9050609754163314153862000e62565b5034620003b9576020366003190112620003b95760043562000ef962004017565b62000f0362003fd2565b8082526101366020526040822060018101549091906001600160a01b039081168015620003a757330362000395578060028401541692831562000371576005019281845416620003835781610131541690811562000371578261013354166040519163c0c53b8b60e01b6020840152602483015233604483015260648201526064815262000f918162003975565b60405191610416808401908482106001600160401b038311176200102b579184939162000fc49362004d258639620045c4565b039085f080156200102057602094501691826001600160601b0360a01b825416179055604051908282527fe433ba284fb3e6c1bd18e82622f1d5047266130c0d9a5379c1098a4cc980b4c3843393a3600160fb55604051908152f35b6040513d86823e3d90fd5b634e487b7160e01b89526041600452602489fd5b5034620003b957620010513662003b7f565b6200106799959399989294979896919662004017565b6200107162003fd2565b60ff61013b541680620014fc575b80620014e6575b620014d45762001096906200406e565b600460ff871611620005db578615620014c257620010d5928791610135998a549a620010c28c62004489565b9055620010ce620045eb565b946200466f565b956001600160a01b0387163b15620014be576040516340c10f1960e01b8152336004820152602481018690528381604481836001600160a01b038d165af180156200102057908491620014a6575b50506200118a90620011363389620048b1565b60405192620011458462003944565b87845233602085015260018060a01b03891660408501528460608501528460808501528460a08501528460c08501524260e08501526001610100850152369162003c7a565b61012082015260ff831661014082015284825261013660205260408220815181556001810160018060a01b03602084015116906001600160601b0360a01b91828254161790556002820160018060a01b03604085015116828254161790556003820160018060a01b0360608501511682825416179055600482019060018060a01b03608085015116908254161790556005810160018060a01b0360a08401511681549060c08501516004811015620014925760ff60a01b9060a01b16916001600160581b0360a81b161717905560e08201516006820155620012826101008301511515600783019060ff801983541691151516179055565b6101208201518051906001600160401b0382116200147e57908291620012af60088a979695015462003907565b601f81116200141d575b50602090601f83116001146200139057610140600960409585899660ff9c9b99968d966200131d9c9262001384575b50508160011b916000199060031b1c19161760088201555b01920151168719825416179055338152610137602052206200458c565b6040519260018060a01b0386168452602084015260006040840152166060820152817f3ff1e0761d6ac9f2f05ec5865ebe47ad1bc85f22900deb91a5c3ef4dc4938a0d60803393a3600160fb55604080519182526001600160a01b03929092166020820152f35b015190503880620012e8565b969594939291906008830185526020852097855b601f198416811062001401575060096200131d97969460018560ff9c8d966101409660409b99601f19811610620013e7575b505050811b01600882015562001300565b015160001960f88460031b161c19169055388080620013d6565b828201518a556001909901988b975060209283019201620013a4565b9091929394955060088401865260208620601f840160051c8101916020851062001473575b90601f8b989796959493920160051c01905b818110620014635750620012b9565b600081558a975060010162001454565b909150819062001442565b634e487b7160e01b85526041600452602485fd5b634e487b7160e01b87526021600452602487fd5b620014b19062003961565b620014be57823862001123565b8280fd5b6040516315ae672760e01b8152600490fd5b60405163a05532f560e01b8152600490fd5b506097546001600160a01b031633141562001086565b5033865261013860205260ff604087205416156200107f565b5034620003b9576040366003190112620003b9576020620015436200153962003c4c565b6024359062004500565b6040519015158152f35b5034620003b9576020366003190112620003b9576200049d6200156f62003c4c565b6200157962003cd6565b62004bed565b5034620003b95780600319360112620003b9576097546040516001600160a01b039091168152602090f35b5034620003b9576020366003190112620003b9576200049d620015cc62003c4c565b620015d662003cd6565b62004b2e565b5034620003b95780600319360112620003b957620015f962003cd6565b6200160362003fd2565b600160ff1960c954161760c9557f62e78cea01bee320cd4e420270b5ea74000d11b0c9f74754ebdbfc544b05a2586020604051338152a180f35b5034620003b9576020366003190112620003b9576020906040906001600160a01b0362001669620038d9565b16815261013783522054604051908152f35b5034620003b95780600319360112620003b957602060ff61013b54166040519015158152f35b5034620003b9576020366003190112620003b95760209060ff906040906001600160a01b03620016d0620038d9565b16815261013884522054166040519015158152f35b5034620003b95780600319360112620003b9576200170262003cd6565b609780546001600160a01b031981169091556000906001600160a01b03167f8be0079c531659141344cd1fd0a4f28419497f9722a3daafe3b4186f6b6457e08280a380f35b5034620003b95760031990608036830112620003b9576004356001600160401b03811162001bcd576200177f90369060040162003b3e565b90916024356001600160401b03811162001bcd57620017a390369060040162003b3e565b946044356001600160401b03811162001bc957620017c690369060040162003b3e565b969095606435926001600160401b03841162001bc557608090843603011262001bc157620017f362004017565b620017fd62003fd2565b60ff61013b54168062001ba8575b8062001b92575b620014d457620018b993620018536200185c926200183762001863966004016200406e565b61013598895499620018498b62004489565b9055369162003c7a565b92369162003c7a565b9062004792565b9360405195620018738762003944565b84875233602088015283604088015260018060a01b03861660608801528360808801528360a0880152600160c08801524260e08801526001610100880152369162003c7a565b610120850152806101408501528181526101366020526040812093805185556001850160018060a01b03602083015116906001600160601b0360a01b91828254161790556002860160018060a01b03604084015116828254161790556003860160018060a01b0360608401511682825416179055600486019060018060a01b036080840151169082541617905560018060a01b0360a08201511660058601549060c0830151600481101562001b7e5760ff60a01b9060a01b16916001600160581b0360a81b161717600586015560e08101516006860155620019b16101008201511515600787019060ff801983541691151516179055565b60088501946101208201519586516001600160401b0381116200147e57620019da825462003907565b97601f891162001b33575b8697985085969550602090601f831160011462001ab6578794604096948460ff956101409560099562001a4c9d9262001aaa575b50508160011b916000199060031b1c19161790555b019201511660ff19825416179055338152610137602052206200458c565b604080516001600160a01b038416815260016020820152339183917f1a1586c4c8dc32a7041328ae1935d2559560e3aca49936375553a13447d318ba9190a3600160fb55604080519182526001600160a01b03929092166020820152f35b01519050388062001a19565b838852602088209190601f198416895b81811062001b175750946001856101409560099562001a4c9d9a9560ff9960409d9b1062001afd575b505050811b01905562001a2e565b015160001960f88460031b161c1916905538808062001aef565b8284015185558b99506001909401936020938401930162001ac6565b82865260208620601f830160051c8101996020841062001b73575b601f0160051c01985b89811062001b665750620019e5565b6000815560010162001b57565b909950899062001b4e565b634e487b7160e01b85526021600452602485fd5b506097546001600160a01b031633141562001812565b5033855261013860205260ff604086205416156200180b565b8480fd5b8580fd5b8380fd5b5080fd5b5034620003b9576020366003190112620003b95760ff600960406020936004358152610136855220015416604051908152f35b5034620003b9576020366003190112620003b95760206200154362001c28620038d9565b62004ce2565b5034620003b95780600319360112620003b957608060405162001c518162003975565b828152826020820152826040820152826060820152015260a060405162001c788162003975565b600180831b038061012d541691828152818061012e541660208301908152818061012f5416604085019081528180610130541693606087019485526080826101315416970196875260405198895251166020880152511660408601525116606084015251166080820152f35b5034620003b9576060366003190112620003b9576024356004356001600160401b0380831162001bc9573660238401121562001bc957826004013590811162001bc9576024830192602436918360051b01011162001bc95762001d4662003cb6565b90828552602093610136855260018060a01b03806001604089200154168015620003a757331415908162001e2b575b506200039557855b82811062001d89578680f35b62001e259085885261013987526040882061ffff62001db462001dae84888862004b1d565b620040cf565b16600052875262001dd58560406000209060ff801983541691151516179055565b857f625799a2edd125851a06a320ad052c8cb280dbe12db8ffece940d57f6499e2978662001e0962001dae85898962004b1d565b6040805161ffff9290921682529115156020820152a262004489565b62001d7d565b9050609754163314153862001d75565b5034620003b9576060366003190112620003b95760043562001e5c62003c3a565b62001e6662003cb6565b82845261013660205260408420600101546001600160a01b039081168015620003a757331415908162001f0e575b5062000395577f625799a2edd125851a06a320ad052c8cb280dbe12db8ffece940d57f6499e297918385526101396020526040852061ffff821660005260205262001eef8260406000209060ff801983541691151516179055565b6040805161ffff90921682529115156020820152908190810162000ec2565b9050609754163314153862001e94565b5034620003b95780600319360112620003b957602060ff60c954166040519015158152f35b5034620003b95780600319360112620003b9577f00000000000000000000000000000000000000000000000000000000000000006001600160a01b0316300362001fa05760206040516000805160206200513b8339815191528152f35b60405162461bcd60e51b815260206004820152603860248201527f555550535570677261646561626c653a206d757374206e6f742062652063616c60448201527f6c6564207468726f7567682064656c656761746563616c6c00000000000000006064820152608490fd5b5034620003b9576020366003190112620003b9576004356200202c62003cd6565b808252610136602081905260408320600101546001600160a01b031615620003a75781835260205260408220600701805460ff191690557f50f787e82be2d97241da1eb7f0386a6cfdcae62def7289dd9745e1fff44749f78280a280f35b506040366003190112620003b957620020a2620038d9565b6024356001600160401b038111620014be5736602382011215620014be57620020d690369060248160040135910162003c7a565b6001600160a01b037f00000000000000000000000000000000000000000000000000000000000000008116929190620021123085141562003d78565b620021326000805160206200513b83398151915294828654161462003dda565b6200213c62003cd6565b7f4910fdfa16fed3260ed0e7147f7cc6da11a60208b5b9406d12a635614ffd91435460ff1615620021755750506200049d915062003e3c565b8216604051936352d1902d60e01b85526020948581600481865afa600091816200234e575b50620021fc5760405162461bcd60e51b815260048101879052602e60248201527f45524331393637557067726164653a206e657720696d706c656d656e7461746960448201526d6f6e206973206e6f74205555505360901b6064820152608490fd5b9492939403620022f757620022118462003e3c565b7fbc7cd75a20ee27fd9adebab32041f755214dbc6bffa90cc0225b39da2e5c2d3b600080a2815115801590620022ee575b6200224e575b50505080f35b620022da9260008060405194620022658662003991565b602786527f416464726573733a206c6f772d6c6576656c2064656c65676174652063616c6c85870152660819985a5b195960ca1b60408701528481519101845af4903d15620022e4573d620022ba8162003c5e565b90620022ca6040519283620039ad565b8152600081943d92013e62003ece565b5038808062002248565b6060925062003ece565b50600162002242565b60405162461bcd60e51b815260048101839052602960248201527f45524331393637557067726164653a20756e737570706f727465642070726f786044820152681a58589b195555525160ba1b6064820152608490fd5b90918782813d83116200237b575b620023688183620039ad565b81010312620003b957505190386200219a565b503d6200235c565b5034620003b95780600319360112620003b957602060ff61013b5460101c16604051908152f35b5034620003b9576040366003190112620003b95760043560ff81168091036200045557620023d7620038f0565b90620023e262003cd6565b6001600160a01b03918216918215620003715783826200243e575061012d80546001600160a01b03198116851790915581165b16907fee98ab479506a480f6aaf2f74e304414ff825cb97856ec07c9c0da0cb97b43928480a480f35b6001830362002466575061012e80546001600160a01b03198116851790915581165b62002415565b600283036200248d575061012f80546001600160a01b031981168517909155811662002415565b60038303620024b4575061013080546001600160a01b031981168517909155811662002415565b6004830362002460575061013180546001600160a01b031981168517909155811662002415565b5034620003b95780600319360112620003b957602061013454604051908152f35b5034620003b95780600319360112620003b9576200251962003cd6565b60c95460ff8116156200255a5760ff191660c9557f5db9ee0a495bf2e6ff9c91a7834c1ba4fdd244a5e8aa4e537bd38aeae4b073aa6020604051338152a180f35b60405162461bcd60e51b815260206004820152601460248201527314185d5cd8589b194e881b9bdd081c185d5cd95960621b6044820152606490fd5b5034620003b9576040366003190112620003b95761ffff6040620025b962003c3a565b926004358152610139602052209116600052602052602060ff604060002054166040519015158152f35b5034620003b9576040366003190112620003b95762002601620038d9565b6001600160a01b031681526101376020526040812080546024359290831015620003b957602062002633848462003c21565b90546040519160031b1c8152f35b5034620003b95760208060031936011262001bcd5762002660620038d9565b6001600160a01b037f00000000000000000000000000000000000000000000000000000000000000008116620026993082141562003d78565b620026b96000805160206200513b83398151915291838354161462003dda565b620026c362003cd6565b60405190848201928284106001600160401b038511176200098e578360405286835260ff7f4910fdfa16fed3260ed0e7147f7cc6da11a60208b5b9406d12a635614ffd914354166000146200272257505050506200049d915062003e3c565b8492939416906040516352d1902d60e01b81528681600481865afa60009181620028d0575b50620027a95760405162461bcd60e51b815260048101889052602e60248201527f45524331393637557067726164653a206e657720696d706c656d656e7461746960448201526d6f6e206973206e6f74205555505360901b6064820152608490fd5b95939495036200287957620027be8262003e3c565b7fbc7cd75a20ee27fd9adebab32041f755214dbc6bffa90cc0225b39da2e5c2d3b600080a282511580159062002870575b620027fc575b5050505080f35b600080620028659560405195620028138762003991565b602787527f416464726573733a206c6f772d6c6576656c2064656c65676174652063616c6c86880152660819985a5b195960ca1b60408801525190845af4903d15620022e4573d620022ba8162003c5e565b5038808080620027f5565b506000620027ef565b60405162461bcd60e51b815260048101849052602960248201527f45524331393637557067726164653a20756e737570706f727465642070726f786044820152681a58589b195555525160ba1b6064820152608490fd5b90918882813d8311620028fd575b620028ea8183620039ad565b81010312620003b9575051903862002747565b503d620028de565b5034620003b95760031990606036830112620003b95762002925620038d9565b9160243591604435916001600160401b03831162001bcd576080908336030112620003b9578281526101366020526040902060018101549093906001600160a01b031615620003a75760ff600962002985950154169160040190620042ef565b602060405160018152f35b5034620003b95780600319360112620003b95760a0600180821b038061012d5416908061012e5416908061012f5416816101305416916101315416926040519485526020850152604084015260608301526080820152f35b5034620003b957620029fa3662003b7f565b62002a1099939792999896989591949562004017565b62002a1a62003fd2565b60ff61013b54168062002ef6575b8062002ee0575b620014d45762002a3f906200406e565b600460ff851611620005db578415620014c25762002ae89162002ae260236101359a8b549b62002a6f8d62004489565b905562002ab9602862002a8a8c8c89868a620010ce620045eb565b9b86604051978892602084013781016708141c9bda9958dd60c21b6020820152036008810187520185620039ad565b84604051958692602084013781016228292560e91b6020820152036003810185520183620039ad565b62004792565b946001600160a01b0385163b1562001bcd576040516340c10f1960e01b8152336004820152602481018590528281604481836001600160a01b038b165af1801562002ed55790839162002ebd575b505062002ba39062002b493387620048b1565b6040519862002b588a62003944565b888a523360208b01526001600160a01b0387811660408c0152881660608b015260808a0184905260a08a01849052600260c08b01524260e08b015260016101008b0152369162003c7a565b61012088015260ff82166101408801528581526101366020526040812096805188556001880160018060a01b03602083015116906001600160601b0360a01b91828254161790556002890160018060a01b03604084015116828254161790556003890160018060a01b0360608401511682825416179055600489019060018060a01b03608084015116908254161790556005880160018060a01b0360a08301511681549060c0840151600481101562002ea95760ff60a01b9060a01b16916001600160581b0360a81b161717905560e0810151600689015562002c9c610100820151151560078a019060ff801983541691151516179055565b6101208101518051906001600160401b03821162002e955762002cc360088b015462003907565b601f811162002e47575b50602090601f831160011462002ddb579362002d319360ff610140600960609e878f98604098869d9c8992620013845750508160011b916000199060031b1c191617600882015501920151168719825416179055338152610137602052206200458c565b6040519260018060a01b03851684526020840152600260408401521685820152837f3ff1e0761d6ac9f2f05ec5865ebe47ad1bc85f22900deb91a5c3ef4dc4938a0d60803393a3604080516001600160a01b038416815260026020820152339185917f1a1586c4c8dc32a7041328ae1935d2559560e3aca49936375553a13447d318ba9190a3600160fb55604080519384526001600160a01b039182166020850152911690820152f35b9060088b0185526020852091855b601f198516811062002e2e57509360ff610140600960609e60018f98604098869d9c9862002d319c83601f19811610620013e757505050811b01600882015562001300565b9192602060018192868501518155019401920162002de9565b60088b01855260208520601f840160051c8101916020851062002e8a575b601f0160051c01905b81811062002e7d575062002ccd565b6000815560010162002e6e565b909150819062002e65565b634e487b7160e01b84526041600452602484fd5b634e487b7160e01b86526021600452602486fd5b62002ec89062003961565b62001bcd57813862002b36565b6040513d85823e3d90fd5b506097546001600160a01b031633141562002a2f565b5033845261013860205260ff6040852054161562002a28565b5034620003b95762002f213662003b7f565b62002f3499969895919397929962004017565b62002f3e62003fd2565b60ff61013b54168062003419575b8062003403575b620014d45762002f63906200406e565b600460ff841611620005db578315620014c257610130546001600160a01b031615620003715762002ff09162002ae260236101359a8b549b62002fa68d62004489565b905562002ab9602862002fc18b8b89868a620010ce620045eb565b9a86604051978892602084013781016708141c9bda9958dd60c21b6020820152036008810187520185620039ad565b9362002ffc8462004801565b956001600160a01b0385163b1562001bcd576040516340c10f1960e01b8152336004820152602481018590528281604481836001600160a01b038b165af1801562002ed557620033ea575b50620030b490620030593387620048b1565b60405199620030688b62003944565b898b523360208c01526001600160a01b0387811660408d015288811660608d0152891660808c015260a08b01849052600360c08c01524260e08c015260016101008c0152369162003c7a565b61012089015260ff82166101408901528681526101366020526040812097805189556001890160018060a01b03602083015116906001600160601b0360a01b918282541617905560028a0160018060a01b036040840151168282541617905560038a0160018060a01b036060840151168282541617905560048a019060018060a01b03608084015116908254161790556005890160018060a01b0360a08301511681549060c0840151600481101562002ea95760ff60a01b9060a01b16916001600160581b0360a81b161717905560e081015160068a0155620031ad610100820151151560078b019060ff801983541691151516179055565b6101208101518051906001600160401b03821162002e9557620031d460088c015462003907565b601f81116200339c575b50602090601f83116001146200332f5793620032429360ff610140600960809f8f9780604098869d9c8992620013845750508160011b916000199060031b1c191617600882015501920151168719825416179055338152610137602052206200458c565b6040519260018060a01b0385168452602084015260036040840152166060820152847f3ff1e0761d6ac9f2f05ec5865ebe47ad1bc85f22900deb91a5c3ef4dc4938a0d873393a3604080516001600160a01b038416815260036020820152339186917f1a1586c4c8dc32a7041328ae1935d2559560e3aca49936375553a13447d318ba9190a36040516001600160a01b0384168152339085907fe5c9c12ceba4010c539736de12d295843fb58a5127edbf481306a98e1e30d56090602090a3600160fb55604080519485526001600160a01b03918216602086015291811691840191909152166060820152f35b9060088c0185526020852091855b601f19851681106200338357509360ff610140600960809f8f9780604098869d9c98620032429c600194601f19811610620013e757505050811b01600882015562001300565b919260206001819286850151815501940192016200333d565b60088c01855260208520601f840160051c81019160208510620033df575b601f0160051c01905b818110620033d25750620031de565b60008155600101620033c3565b9091508190620033ba565b91620033fb620030b4929362003961565b919062003047565b506097546001600160a01b031633141562002f53565b5033875261013860205260ff6040882054161562002f4c565b5034620003b9576020366003190112620003b95780610140604051620034588162003944565b8281528260208201528260408201528260608201528260808201528260a08201528260c08201528260e0820152826101008201526060610120820152015260043581526101366020526040812060405191620034b48362003944565b8154835260018201546001600160a01b03908116602085015260028301548116604085015260038301548116606085015260048084015482166080860152600584015491821660a0808701919091529190911c60ff16919082101562003611575060ff9160099160c0850152600681015460e08501528260078201541615156101008501526200354760088201620039cf565b6101208501520154166101408201526040805160208082528351818301528301516001600160a01b03908116828401529183015182166060808301919091528301518216608080830191909152830151821660a08083019190915283015190911660c08083019190915282015190918291620035c89060e084019062003a81565b60e0810151610100830152610100810151151561012083015261012081015160ff6101406200360561016093848388015261018087019062003aa5565b93015116908301520390f35b634e487b7160e01b81526021600452602490fd5b5034620003b9576020366003190112620003b9576004359061013a54821015620003b957602061ffff620036598462003ae7565b9190546040519260031b1c168152f35b5034620003b95780600319360112620003b957602060ff61013b5460081c166040519015158152f35b5034620003b9576020366003190112620003b957620036b0620038d9565b620036ba62003cd6565b6001600160a01b03168015620003715761013380546001600160a01b031916909117905580f35b5034620003b9576020366003190112620003b9576004356200370262003cd6565b6103e8811162003713576101345580f35b60405162461bcd60e51b81526020600482015260076024820152664d61782031302560c81b6044820152606490fd5b5034620003b9576020366003190112620003b957604090600435815261013660205220805460018060a01b0362003816816001850154169382600282015416928060038301541690620037f6816004850154169160058501549060068601549360ff6007880154169560ff6009620037bd60088b01620039cf565b99015416996040519c8d9c8d5260208d015260408c015260608b015260808a0152811660a089015260ff60c089019160a01c1662003a81565b60e086015215156101008501526101608061012086015284019062003aa5565b906101408301520390f35b90503462001bcd5760209081600319360112620014be57916001600160a01b036200384b620038d9565b168152610137825260408120908154808552838501908193835284832090835b818110620038c4575050508462003884910385620039ad565b60405193838594850191818652518092526040850193925b828110620038ac57505050500390f35b8351855286955093810193928101926001016200389c565b8254845292860192600192830192016200386b565b600435906001600160a01b03821682036200045557565b602435906001600160a01b03821682036200045557565b90600182811c9216801562003939575b60208310146200392357565b634e487b7160e01b600052602260045260246000fd5b91607f169162003917565b61016081019081106001600160401b038211176200098e57604052565b6001600160401b0381116200098e57604052565b60a081019081106001600160401b038211176200098e57604052565b606081019081106001600160401b038211176200098e57604052565b90601f801991011681019081106001600160401b038211176200098e57604052565b9060405191826000825492620039e58462003907565b90818452600194858116908160001462003a5c575060011462003a15575b505062003a1392500383620039ad565b565b9093915060005260209081600020936000915b81831062003a4357505062003a139350820101388062003a03565b8554888401850152948501948794509183019162003a28565b91505062003a1394506020925060ff191682840152151560051b820101388062003a03565b90600482101562003a8f5752565b634e487b7160e01b600052602160045260246000fd5b919082519283825260005b84811062003ad2575050826000602080949584010152601f8019910116010190565b60208183018101518483018201520162003ab0565b9061013a805483101562003b2857600052601e8260041c7f1cc3277f886bc7650038e458160d07e0113c6dbe808de6ada3226131dc580251019260011b1690565b634e487b7160e01b600052603260045260246000fd5b9181601f8401121562000455578235916001600160401b0383116200045557602083818601950101116200045557565b6024359060ff821682036200045557565b6003199060c08183011262000455576001600160401b039160043583811162000455578262003bb19160040162003b3e565b9490949360243581811162000455578462003bcf9160040162003b3e565b949094936044359360643584811162000455578362003bf19160040162003b3e565b9490949360843560ff8116810362000455579360a435928311620004555782608092030112620004555760040190565b805482101562003b285760005260206000200190600090565b6024359061ffff821682036200045557565b6004359061ffff821682036200045557565b6001600160401b0381116200098e57601f01601f191660200190565b92919262003c888262003c5e565b9162003c986040519384620039ad565b82948184528183011162000455578281602093846000960137010152565b6044359081151582036200045557565b6004359081151582036200045557565b6097546001600160a01b0316330362003ceb57565b606460405162461bcd60e51b815260206004820152602060248201527f4f776e61626c653a2063616c6c6572206973206e6f7420746865206f776e65726044820152fd5b609780546001600160a01b039283166001600160a01b0319821681179092559091167f8be0079c531659141344cd1fd0a4f28419497f9722a3daafe3b4186f6b6457e0600080a3565b1562003d8057565b60405162461bcd60e51b815260206004820152602c60248201527f46756e6374696f6e206d7573742062652063616c6c6564207468726f7567682060448201526b19195b1959d85d1958d85b1b60a21b6064820152608490fd5b1562003de257565b60405162461bcd60e51b815260206004820152602c60248201527f46756e6374696f6e206d7573742062652063616c6c6564207468726f7567682060448201526b6163746976652070726f787960a01b6064820152608490fd5b803b1562003e73576000805160206200513b83398151915280546001600160a01b0319166001600160a01b03909216919091179055565b60405162461bcd60e51b815260206004820152602d60248201527f455243313936373a206e657720696d706c656d656e746174696f6e206973206e60448201526c1bdd08184818dbdb9d1c9858dd609a1b6064820152608490fd5b9192901562003f33575081511562003ee4575090565b3b1562003eee5790565b60405162461bcd60e51b815260206004820152601d60248201527f416464726573733a2063616c6c20746f206e6f6e2d636f6e74726163740000006044820152606490fd5b82519091501562003f475750805190602001fd5b60405162461bcd60e51b81526020600482015290819062003f6d90602483019062003aa5565b0390fd5b1562003f7957565b60405162461bcd60e51b815260206004820152602b60248201527f496e697469616c697a61626c653a20636f6e7472616374206973206e6f74206960448201526a6e697469616c697a696e6760a81b6064820152608490fd5b60ff60c9541662003fdf57565b60405162461bcd60e51b815260206004820152601060248201526f14185d5cd8589b194e881c185d5cd95960821b6044820152606490fd5b600260fb54146200402957600260fb55565b60405162461bcd60e51b815260206004820152601f60248201527f5265656e7472616e637947756172643a207265656e7472616e742063616c6c006044820152606490fd5b60408101351580620040ab575b620040a85761013b549060ff8260081c1662004095575050565b60ff62003a139260101c16903362004100565b50565b506097546001600160a01b031633146200407b565b3560ff81168103620004555790565b3561ffff81168103620004555790565b908060209392818452848401376000828201840152601f01601f1916010190565b61013254919290916001600160a01b0391908216908115620042e8576200412785620040c0565b946020808201946200413986620040cf565b9660409889850135966060860135601e198736030181121562000455578601938435946001600160401b038611620004555786019385360385136200045557620041c3879560ff978f5198899788968796631da9612560e11b885216600487015216602485015261ffff9e8f1660448501528c606485015260a0608485015260a4840191620040df565b03915afa918215620042dd57600092620042a0575b5050156200428f57620041eb81620040c0565b60ff8084169116106200425557505042116200424457620042166200421082620040cf565b620044af565b6200422057505050565b602493506200422f90620040cf565b9151638167b56960e01b815291166004820152fd5b8251634973d8d560e11b8152600490fd5b9062003f6d620042668793620040c0565b92516301b1064f60e11b815260ff92831660048201529190921660248201529081906044820190565b855163249d777160e21b8152600490fd5b81813d8311620042d5575b620042b78183620039ad565b8101031262001bcd5751908115158203620003b957503880620041d8565b503d620042ab565b88513d6000823e3d90fd5b5050505050565b61013254919390926001600160a01b0392831690811562004481576200431586620040c0565b956020808201956200432787620040cf565b976040998a850135966060860135601e198736030181121562000455578601938435946001600160401b03861162000455578601938536038513620004555786948e5196879586948594631da9612560e11b865216600485015260ff16602484015261ffff9e8f1660448401528b60648401526084830160a0905260a4830190620043b292620040df565b03915afa918215620044765760009262004439575b5050156200442857620043da81620040c0565b60ff808416911610620044175750504211620044065762004216906200440083620040cf565b62004500565b8351634973d8d560e11b8152600490fd5b9062003f6d620042668893620040c0565b865163249d777160e21b8152600490fd5b81813d83116200446e575b620044508183620039ad565b8101031262001bcd5751908115158203620003b957503880620043c7565b503d62004444565b89513d6000823e3d90fd5b505050505050565b6000198114620044995760010190565b634e487b7160e01b600052601160045260246000fd5b61013a549060005b828110620044c757505050600090565b620044d28162003ae7565b905461ffff908185169260031b1c1614620044f857620044f29062004489565b620044b7565b505050600190565b90801515908162004561575b506200455b5761013a549060005b8281106200452a57505050600090565b620045358162003ae7565b905461ffff908185169260031b1c1614620044f857620045559062004489565b6200451a565b50600190565b9050600052610139602052604060002061ffff821660005260205260ff60406000205416386200450c565b8054600160401b8110156200098e57620045ac9160018201815562003c21565b819291549060031b91821b91600019901b1916179055565b6001600160a01b039091168152604060208201819052620045e89291019062003aa5565b90565b61012f5460405163189acdbd60e31b60208201523060248083019190915281526001600160a01b03918216620046218262003991565b6040519161041690818401928484106001600160401b038511176200098e578493620046539362004d258639620045c4565b03906000f0801562004663571690565b6040513d6000823e3d90fd5b9392959490620046f89160018060a01b039485620046d08161012d5416968261013254169b620046bd6040519b8c986376f9f14f60e11b60208b015260c060248b015260e48a0191620040df565b87810360231901604489015291620040df565b92306064860152169889608485015260a484015260c483015203601f198101855284620039ad565b6040519261041690818501928584106001600160401b038511176200098e5785936200472a9362004d258639620045c4565b0360009283f0801562004787571692803b1562001bcd57818091602460405180958193631ffad50160e11b83528960048401525af19081156200477b5750620047705750565b62003a139062003961565b604051903d90823e3d90fd5b6040513d84823e3d90fd5b61012e546040516303bf912560e11b6020820152606060248201526001600160a01b039390929184169162004621918491620047ec9190620047d990608485019062003aa5565b8381036023190160448501529062003aa5565b33606483015203601f198101845283620039ad565b61013054610132546101335461013454604051637b809f7b60e11b60208201523360248201526001600160a01b0395861660448201529285166064840152908416608483015260a480830191909152815260e08101916001600160401b0391908416828411828510176200098e578360405261041660e08184010193858510908511176200098e57620048a091839162004d25873960df1994620045c4565b0301906000f0801562004663571690565b6040805163a217fddf60e01b80825260009492936004936001600160a01b0390911692602092919083818781885afa90811562004b1357889162004ae0575b50843b1562004adc578651632f2ff15d60e01b8082528782019283526001600160a01b0384166020840152918990829081906040010381838a5af1801562004abc5762004ac6575b50865163d539139360e01b81529084828881895afa91821562004abc57899262004a87575b50853b1562004a835787519081528681019182526001600160a01b039092166020820152879082908190604001038183885af1801562004a795790879162004a61575b5050845190815281818581865afa91821562004a5757869262004a23575b5050813b1562001bc1578351631b2b455f60e11b81529283019081523060208201529192918491849182908490829060400103925af190811562004a1a575062004a06575050565b62004a12829162003961565b620003b95750565b513d84823e3d90fd5b90809250813d831162004a4f575b62004a3d8183620039ad565b810103126200045557513880620049be565b503d62004a31565b85513d88823e3d90fd5b62004a6c9062003961565b62001bc5578538620049a0565b86513d89823e3d90fd5b8880fd5b9091508481813d831162004ab4575b62004aa28183620039ad565b8101031262000455575190386200495d565b503d62004a96565b88513d8b823e3d90fd5b62004ad49098919862003961565b963862004938565b8780fd5b90508381813d831162004b0b575b62004afa8183620039ad565b8101031262004adc575138620048f0565b503d62004aee565b87513d8a823e3d90fd5b919081101562003b285760051b0190565b61013a9081549060005b82811062004bb65750600160401b8210156200098e5762004ba38162004b88847f52447c0c1f6e76aceccd86733d7b9b1efa3fccde0f25070f3ca6193d0e3ba09c96600160409701905562003ae7565b90919082549060031b9161ffff809116831b921b1916179055565b61ffff82519116815260016020820152a1565b62004bc18162003ae7565b905461ffff908185169260031b1c161462004be75762004be19062004489565b62004b38565b50505050565b61013a9081549060005b82811062004c055750505050565b62004c108162003ae7565b905461ffff8481169260039290831b1c8116831462004c3d5750505062004c379062004489565b62004bf7565b6000199692959194509192868201918211620044995762004b888362004c6762004c759462003ae7565b905490881b1c169162003ae7565b815494851562004ccc577f52447c0c1f6e76aceccd86733d7b9b1efa3fccde0f25070f3ca6193d0e3ba09c95019262004cae8462003ae7565b81939154921b1b1916905555604090815190815260006020820152a1565b634e487b7160e01b600052603160045260246000fd5b60ff61013b5416156200455b576001600160a01b039081166000818152610138602052604090205460ff1691821562004d1a57505090565b609754161491905056fe604060808152610416908138038061001681610218565b93843982019181818403126102135780516001600160a01b038116808203610213576020838101516001600160401b0394919391858211610213570186601f820112156102135780519061007161006c83610253565b610218565b918083528583019886828401011161021357888661008f930161026e565b813b156101b9577f360894a13ba1a3210667c828492db98dca3e2076cc3735a920a3ca505d382bbc80546001600160a01b031916841790556000927fbc7cd75a20ee27fd9adebab32041f755214dbc6bffa90cc0225b39da2e5c2d3b8480a28051158015906101b2575b61010b575b855160d190816103458239f35b855194606086019081118682101761019e578697849283926101889952602788527f416464726573733a206c6f772d6c6576656c2064656c65676174652063616c6c87890152660819985a5b195960ca1b8a8901525190845af4913d15610194573d9061017a61006c83610253565b91825281943d92013e610291565b508038808080806100fe565b5060609250610291565b634e487b7160e01b84526041600452602484fd5b50826100f9565b855162461bcd60e51b815260048101859052602d60248201527f455243313936373a206e657720696d706c656d656e746174696f6e206973206e60448201526c1bdd08184818dbdb9d1c9858dd609a1b6064820152608490fd5b600080fd5b6040519190601f01601f191682016001600160401b0381118382101761023d57604052565b634e487b7160e01b600052604160045260246000fd5b6001600160401b03811161023d57601f01601f191660200190565b60005b8381106102815750506000910152565b8181015183820152602001610271565b919290156102f357508151156102a5575090565b3b156102ae5790565b60405162461bcd60e51b815260206004820152601d60248201527f416464726573733a2063616c6c20746f206e6f6e2d636f6e74726163740000006044820152606490fd5b8251909150156103065750805190602001fd5b6044604051809262461bcd60e51b825260206004830152610336815180928160248601526020868601910161026e565b601f01601f19168101030190fdfe608060405236156054577f360894a13ba1a3210667c828492db98dca3e2076cc3735a920a3ca505d382bbc54600090819081906001600160a01b0316368280378136915af43d82803e156050573d90f35b3d90fd5b7f360894a13ba1a3210667c828492db98dca3e2076cc3735a920a3ca505d382bbc54600090819081906001600160a01b0316368280378136915af43d82803e156050573d90f3fea2646970667358221220044b95600c5a8b16f58ad7053fc82847c6e00cbcad98e443169bf78d6395632364736f6c63430008140033360894a13ba1a3210667c828492db98dca3e2076cc3735a920a3ca505d382bbca26469706673582212205eda63b06fbede8cfcaa5a8607eb1b75602fed1187aad288f818055c540e1b8364736f6c63430008140033","opcodes":"PUSH1 0xA0 DUP1 PUSH1 0x40 MSTORE CALLVALUE PUSH2 0x31 JUMPI ADDRESS PUSH1 0x80 MSTORE PUSH2 0x5190 SWAP1 DUP2 PUSH2 0x37 DUP3 CODECOPY PUSH1 0x80 MLOAD DUP2 DUP2 DUP2 PUSH2 0x1F58 ADD MSTORE DUP2 DUP2 PUSH2 0x20E0 ADD MSTORE PUSH2 0x266A ADD MSTORE RETURN JUMPDEST PUSH1 0x0 DUP1 REVERT INVALID PUSH1 0x80 DUP1 PUSH1 0x40 MSTORE PUSH1 0x4 CALLDATASIZE LT ISZERO PUSH3 0x1F JUMPI JUMPDEST POP CALLDATASIZE ISZERO PUSH3 0x1D JUMPI PUSH1 0x0 DUP1 REVERT JUMPDEST STOP JUMPDEST PUSH1 0x0 SWAP1 DUP2 CALLDATALOAD PUSH1 0xE0 SHR SWAP1 DUP2 PUSH4 0x4A19F4D EQ PUSH3 0x3821 JUMPI POP DUP1 PUSH4 0x6609BBE EQ PUSH3 0x3742 JUMPI DUP1 PUSH4 0x15B17D1F EQ PUSH3 0x36E1 JUMPI DUP1 PUSH4 0x1871E243 EQ PUSH3 0x3692 JUMPI DUP1 PUSH4 0x1EA67D66 EQ PUSH3 0x3669 JUMPI DUP1 PUSH4 0x23E71358 EQ PUSH3 0x3625 JUMPI DUP1 PUSH4 0x25DA1698 EQ PUSH3 0x3432 JUMPI DUP1 PUSH4 0x27E1FF02 EQ PUSH3 0x2F0F JUMPI DUP1 PUSH4 0x2B9FA38D EQ PUSH3 0x29E8 JUMPI DUP1 PUSH4 0x30E9012C EQ PUSH3 0x2990 JUMPI DUP1 PUSH4 0x3128228B EQ PUSH3 0x2905 JUMPI DUP1 PUSH4 0x3659CFE6 EQ PUSH3 0x2641 JUMPI DUP1 PUSH4 0x374A08FB EQ PUSH3 0x25E3 JUMPI DUP1 PUSH4 0x39FEABF8 EQ PUSH3 0x2596 JUMPI DUP1 PUSH4 0x3F4BA83A EQ PUSH3 0x24FC JUMPI DUP1 PUSH4 0x45031011 EQ PUSH3 0x24DB JUMPI DUP1 PUSH4 0x45583B7A EQ PUSH3 0x23AA JUMPI DUP1 PUSH4 0x4CE5C353 EQ PUSH3 0x2383 JUMPI DUP1 PUSH4 0x4F1EF286 EQ PUSH3 0x208A JUMPI DUP1 PUSH4 0x4FEEFA9B EQ PUSH3 0x200B JUMPI DUP1 PUSH4 0x52D1902D EQ PUSH3 0x1F43 JUMPI DUP1 PUSH4 0x5C975ABB EQ PUSH3 0x1F1E JUMPI DUP1 PUSH4 0x5E6884AE EQ PUSH3 0x1E3B JUMPI DUP1 PUSH4 0x60BFA724 EQ PUSH3 0x1CE4 JUMPI DUP1 PUSH4 0x615F64FE EQ PUSH3 0x1C2E JUMPI DUP1 PUSH4 0x6780F8E5 EQ PUSH3 0x1C04 JUMPI DUP1 PUSH4 0x6D9CA0FB EQ PUSH3 0x1BD1 JUMPI DUP1 PUSH4 0x7083E340 EQ PUSH3 0x1747 JUMPI DUP1 PUSH4 0x715018A6 EQ PUSH3 0x16E5 JUMPI DUP1 PUSH4 0x72ADAAB2 EQ PUSH3 0x16A1 JUMPI DUP1 PUSH4 0x82D5EA6C EQ PUSH3 0x167B JUMPI DUP1 PUSH4 0x8340581D EQ PUSH3 0x163D JUMPI DUP1 PUSH4 0x8456CB59 EQ PUSH3 0x15DC JUMPI DUP1 PUSH4 0x876F6D48 EQ PUSH3 0x15AA JUMPI DUP1 PUSH4 0x8DA5CB5B EQ PUSH3 0x157F JUMPI DUP1 PUSH4 0x9B82178E EQ PUSH3 0x154D JUMPI DUP1 PUSH4 0x9D4C51AA EQ PUSH3 0x1515 JUMPI DUP1 PUSH4 0xA40F8F33 EQ PUSH3 0x103F JUMPI DUP1 PUSH4 0xA4BA23F4 EQ PUSH3 0xED8 JUMPI DUP1 PUSH4 0xB52D0F83 EQ PUSH3 0xE0F JUMPI DUP1 PUSH4 0xB60DA085 EQ PUSH3 0xDE3 JUMPI DUP1 PUSH4 0xB937E7CC EQ PUSH3 0xDE3 JUMPI DUP1 PUSH4 0xBA6C4F8D EQ PUSH3 0xA5F JUMPI DUP1 PUSH4 0xCC2A9A5B EQ PUSH3 0x6A2 JUMPI DUP1 PUSH4 0xD17F6417 EQ PUSH3 0x62A JUMPI DUP1 PUSH4 0xD7E0E541 EQ PUSH3 0x5ED JUMPI DUP1 PUSH4 0xDD6CA762 EQ PUSH3 0x541 JUMPI DUP1 PUSH4 0xE83B86E1 EQ PUSH3 0x520 JUMPI DUP1 PUSH4 0xEB13554F EQ PUSH3 0x4F4 JUMPI DUP1 PUSH4 0xF2FDE38B EQ PUSH3 0x45A JUMPI DUP1 PUSH4 0xFD322A1F EQ PUSH3 0x3BC JUMPI PUSH4 0xFD52C63F SUB PUSH3 0x10 JUMPI CALLVALUE PUSH3 0x3B9 JUMPI PUSH1 0x20 CALLDATASIZE PUSH1 0x3 NOT ADD SLT PUSH3 0x3B9 JUMPI PUSH1 0x40 PUSH1 0x4 CALLDATALOAD SWAP2 PUSH3 0x2BB PUSH3 0x4017 JUMP JUMPDEST PUSH3 0x2C5 PUSH3 0x3FD2 JUMP JUMPDEST DUP3 DUP2 MSTORE PUSH2 0x136 PUSH1 0x20 MSTORE KECCAK256 PUSH1 0x1 DUP2 ADD SLOAD SWAP1 SWAP2 PUSH1 0x1 PUSH1 0x1 PUSH1 0xA0 SHL SUB SWAP2 DUP3 AND DUP1 ISZERO PUSH3 0x3A7 JUMPI CALLER SUB PUSH3 0x395 JUMPI DUP2 PUSH1 0x2 DUP5 ADD SLOAD AND SWAP3 DUP4 ISZERO PUSH3 0x371 JUMPI PUSH1 0x4 ADD SWAP2 DUP1 DUP4 SLOAD AND PUSH3 0x383 JUMPI DUP1 PUSH2 0x130 SLOAD AND ISZERO PUSH3 0x371 JUMPI PUSH3 0x324 PUSH1 0x20 SWAP5 PUSH3 0x4801 JUMP JUMPDEST AND SWAP2 DUP3 PUSH1 0x1 PUSH1 0x1 PUSH1 0x60 SHL SUB PUSH1 0xA0 SHL DUP3 SLOAD AND OR SWAP1 SSTORE PUSH1 0x40 MLOAD SWAP1 DUP3 DUP3 MSTORE PUSH32 0xE5C9C12CEBA4010C539736DE12D295843FB58A5127EDBF481306A98E1E30D560 DUP5 CALLER SWAP4 LOG3 PUSH1 0x1 PUSH1 0xFB SSTORE PUSH1 0x40 MLOAD SWAP1 DUP2 MSTORE RETURN JUMPDEST PUSH1 0x40 MLOAD PUSH4 0xE6C4247B PUSH1 0xE0 SHL DUP2 MSTORE PUSH1 0x4 SWAP1 REVERT JUMPDEST PUSH1 0x40 MLOAD PUSH4 0x6163149 PUSH1 0xE5 SHL DUP2 MSTORE PUSH1 0x4 SWAP1 REVERT JUMPDEST PUSH1 0x40 MLOAD PUSH4 0x27DD236F PUSH1 0xE2 SHL DUP2 MSTORE PUSH1 0x4 SWAP1 REVERT JUMPDEST PUSH1 0x40 MLOAD PUSH4 0xA92FE1F PUSH1 0xE3 SHL DUP2 MSTORE PUSH1 0x4 SWAP1 REVERT JUMPDEST DUP1 REVERT JUMPDEST POP CALLVALUE PUSH3 0x3B9 JUMPI PUSH1 0x40 CALLDATASIZE PUSH1 0x3 NOT ADD SLT PUSH3 0x3B9 JUMPI PUSH3 0x3DA PUSH3 0x38D9 JUMP JUMPDEST PUSH1 0x24 CALLDATALOAD SWAP1 DUP2 ISZERO ISZERO SWAP1 DUP2 DUP4 SUB PUSH3 0x455 JUMPI PUSH3 0x3F4 PUSH3 0x3CD6 JUMP JUMPDEST PUSH1 0x1 PUSH1 0x1 PUSH1 0xA0 SHL SUB AND SWAP2 DUP3 ISZERO PUSH3 0x371 JUMPI PUSH32 0x944B31D2FAB28BFC29FBC2FB7020539E835CC45ECC5AB856FECEF32647CD7BBC SWAP2 PUSH3 0x44B PUSH1 0x20 SWAP3 DUP6 DUP8 MSTORE PUSH2 0x138 DUP5 MSTORE PUSH1 0x40 DUP8 KECCAK256 SWAP1 PUSH1 0xFF DUP1 NOT DUP4 SLOAD AND SWAP2 ISZERO ISZERO AND OR SWAP1 SSTORE JUMP JUMPDEST PUSH1 0x40 MLOAD SWAP1 DUP2 MSTORE LOG2 DUP1 RETURN JUMPDEST PUSH1 0x0 DUP1 REVERT JUMPDEST POP CALLVALUE PUSH3 0x3B9 JUMPI PUSH1 0x20 CALLDATASIZE PUSH1 0x3 NOT ADD SLT PUSH3 0x3B9 JUMPI PUSH3 0x478 PUSH3 0x38D9 JUMP JUMPDEST PUSH3 0x482 PUSH3 0x3CD6 JUMP JUMPDEST PUSH1 0x1 PUSH1 0x1 PUSH1 0xA0 SHL SUB DUP2 AND ISZERO PUSH3 0x4A0 JUMPI PUSH3 0x49D SWAP1 PUSH3 0x3D2F JUMP JUMPDEST DUP1 RETURN JUMPDEST PUSH1 0x40 MLOAD PUSH3 0x461BCD PUSH1 0xE5 SHL DUP2 MSTORE PUSH1 0x20 PUSH1 0x4 DUP3 ADD MSTORE PUSH1 0x26 PUSH1 0x24 DUP3 ADD MSTORE PUSH32 0x4F776E61626C653A206E6577206F776E657220697320746865207A65726F2061 PUSH1 0x44 DUP3 ADD MSTORE PUSH6 0x646472657373 PUSH1 0xD0 SHL PUSH1 0x64 DUP3 ADD MSTORE PUSH1 0x84 SWAP1 REVERT JUMPDEST POP CALLVALUE PUSH3 0x3B9 JUMPI DUP1 PUSH1 0x3 NOT CALLDATASIZE ADD SLT PUSH3 0x3B9 JUMPI PUSH2 0x133 SLOAD PUSH1 0x40 MLOAD PUSH1 0x1 PUSH1 0x1 PUSH1 0xA0 SHL SUB SWAP1 SWAP2 AND DUP2 MSTORE PUSH1 0x20 SWAP1 RETURN JUMPDEST POP CALLVALUE PUSH3 0x3B9 JUMPI DUP1 PUSH1 0x3 NOT CALLDATASIZE ADD SLT PUSH3 0x3B9 JUMPI PUSH1 0x20 PUSH2 0x135 SLOAD PUSH1 0x40 MLOAD SWAP1 DUP2 MSTORE RETURN JUMPDEST POP CALLVALUE PUSH3 0x3B9 JUMPI PUSH1 0x40 CALLDATASIZE PUSH1 0x3 NOT ADD SLT PUSH3 0x3B9 JUMPI PUSH3 0x55F PUSH3 0x3CC6 JUMP JUMPDEST PUSH3 0x569 PUSH3 0x3B6E JUMP JUMPDEST SWAP1 PUSH3 0x574 PUSH3 0x3CD6 JUMP JUMPDEST PUSH1 0xFF DUP3 AND SWAP2 PUSH1 0x4 DUP4 GT PUSH3 0x5DB JUMPI PUSH32 0xD78AA6E58E09D304582D80EB0741642B60F9291A2D180F37B605F39E681D655B SWAP3 PUSH1 0x40 SWAP3 ISZERO ISZERO SWAP2 PUSH2 0x13B SWAP1 PUSH3 0xFF0000 DUP3 SLOAD SWAP2 PUSH1 0x10 SHL AND SWAP1 PUSH2 0xFF00 DUP6 PUSH1 0x8 SHL AND SWAP1 PUSH3 0xFFFF00 NOT AND OR OR SWAP1 SSTORE DUP3 MLOAD SWAP2 DUP3 MSTORE PUSH1 0x20 DUP3 ADD MSTORE LOG1 DUP1 RETURN JUMPDEST PUSH1 0x40 MLOAD PUSH4 0x3D98A22F PUSH1 0xE2 SHL DUP2 MSTORE PUSH1 0x4 SWAP1 REVERT JUMPDEST POP CALLVALUE PUSH3 0x3B9 JUMPI PUSH1 0x20 CALLDATASIZE PUSH1 0x3 NOT ADD SLT PUSH3 0x3B9 JUMPI PUSH3 0x60B PUSH3 0x3CC6 JUMP JUMPDEST PUSH3 0x615 PUSH3 0x3CD6 JUMP JUMPDEST PUSH2 0x13B SWAP1 PUSH1 0xFF DUP1 NOT DUP4 SLOAD AND SWAP2 ISZERO ISZERO AND OR SWAP1 SSTORE DUP1 RETURN JUMPDEST POP CALLVALUE PUSH3 0x3B9 JUMPI PUSH1 0x20 CALLDATASIZE PUSH1 0x3 NOT ADD SLT PUSH3 0x3B9 JUMPI PUSH3 0x648 PUSH3 0x38D9 JUMP JUMPDEST PUSH3 0x652 PUSH3 0x3CD6 JUMP JUMPDEST PUSH1 0x1 PUSH1 0x1 PUSH1 0xA0 SHL SUB SWAP1 DUP2 AND DUP1 ISZERO PUSH3 0x371 JUMPI PUSH2 0x132 SWAP2 DUP2 DUP4 SLOAD SWAP2 DUP3 AND PUSH32 0x4900E8DE75D157A21080E6F17B8C48972095AFB692F9FD506645277C99153AE3 DUP7 DUP1 LOG3 PUSH1 0x1 PUSH1 0x1 PUSH1 0xA0 SHL SUB NOT AND OR SWAP1 SSTORE DUP1 RETURN JUMPDEST POP CALLVALUE PUSH3 0x3B9 JUMPI PUSH1 0xC0 CALLDATASIZE PUSH1 0x3 NOT ADD SLT PUSH3 0x3B9 JUMPI PUSH3 0x6C0 PUSH3 0x38D9 JUMP JUMPDEST PUSH3 0x6CA PUSH3 0x38F0 JUMP JUMPDEST PUSH1 0x44 CALLDATALOAD PUSH1 0x1 PUSH1 0x1 PUSH1 0xA0 SHL SUB DUP2 DUP2 AND SWAP3 SWAP2 DUP4 SWAP1 SUB PUSH3 0x455 JUMPI PUSH1 0x64 CALLDATALOAD SWAP1 DUP1 DUP3 AND DUP1 SWAP3 SUB PUSH3 0x455 JUMPI PUSH1 0x84 CALLDATALOAD SWAP1 DUP1 DUP3 AND DUP1 SWAP3 SUB PUSH3 0x455 JUMPI PUSH1 0xA4 CALLDATALOAD SWAP3 DUP2 DUP5 AND DUP1 SWAP5 SUB PUSH3 0x455 JUMPI DUP8 SLOAD SWAP6 PUSH1 0xFF DUP8 PUSH1 0x8 SHR AND ISZERO SWAP7 DUP8 DUP1 SWAP9 PUSH3 0xA51 JUMPI JUMPDEST DUP1 ISZERO PUSH3 0xA38 JUMPI JUMPDEST ISZERO PUSH3 0x9DC JUMPI PUSH1 0x1 SWAP9 PUSH1 0xFF NOT SWAP2 DUP10 DUP12 DUP5 DUP4 AND OR DUP14 SSTORE PUSH3 0x9CA JUMPI JUMPDEST POP DUP5 DUP2 AND ISZERO DUP1 ISZERO PUSH3 0x9BF JUMPI JUMPDEST DUP1 ISZERO PUSH3 0x9B6 JUMPI JUMPDEST DUP1 ISZERO PUSH3 0x9AD JUMPI JUMPDEST DUP1 ISZERO PUSH3 0x9A4 JUMPI JUMPDEST PUSH3 0x371 JUMPI PUSH3 0x7DE PUSH3 0x7E8 SWAP3 PUSH3 0x797 PUSH1 0xFF DUP15 SLOAD PUSH1 0x8 SHR AND PUSH3 0x791 DUP2 PUSH3 0x3F71 JUMP JUMPDEST PUSH3 0x3F71 JUMP JUMPDEST PUSH3 0x7A2 CALLER PUSH3 0x3D2F JUMP JUMPDEST PUSH1 0xFF DUP14 SLOAD PUSH1 0x8 SHR AND SWAP1 PUSH3 0x7B6 DUP3 PUSH3 0x3F71 JUMP JUMPDEST PUSH3 0x7C1 DUP3 PUSH3 0x3F71 JUMP JUMPDEST PUSH3 0x7CC DUP3 PUSH3 0x3F71 JUMP JUMPDEST PUSH1 0xC9 SLOAD AND PUSH1 0xC9 SSTORE PUSH3 0x791 DUP2 PUSH3 0x3F71 JUMP JUMPDEST DUP10 PUSH1 0xFB SSTORE PUSH3 0x3D2F JUMP JUMPDEST DUP9 PUSH1 0x80 DUP5 PUSH1 0x40 MLOAD SWAP9 PUSH3 0x7FB DUP11 PUSH3 0x3975 JUMP JUMPDEST AND SWAP8 DUP9 DUP2 MSTORE DUP4 PUSH1 0x20 DUP3 ADD MSTORE DUP5 PUSH1 0x40 DUP3 ADD MSTORE DUP3 PUSH1 0x60 DUP3 ADD MSTORE ADD MSTORE PUSH1 0x1 PUSH1 0x1 PUSH1 0x60 SHL SUB PUSH1 0xA0 SHL SWAP6 PUSH2 0x12D SWAP1 DUP8 DUP3 SLOAD AND OR SWAP1 SSTORE PUSH2 0x12E SWAP1 DUP7 DUP3 SLOAD AND OR SWAP1 SSTORE PUSH2 0x12F SWAP1 DUP6 DUP3 SLOAD AND OR SWAP1 SSTORE DUP7 AND PUSH2 0x130 DUP2 DUP6 DUP3 SLOAD AND OR SWAP1 SSTORE PUSH2 0x131 SWAP1 DUP5 DUP3 SLOAD AND OR SWAP1 SSTORE PUSH2 0x132 SWAP1 DUP4 DUP3 SLOAD AND OR SWAP1 SSTORE PUSH2 0x133 SWAP2 DUP3 SLOAD AND OR SWAP1 SSTORE PUSH1 0x64 PUSH2 0x134 SSTORE PUSH2 0x13B DUP3 PUSH3 0xFFFFFF NOT DUP3 SLOAD AND OR SWAP1 SSTORE PUSH2 0x13A DUP1 SLOAD SWAP1 PUSH1 0x1 PUSH1 0x40 SHL SWAP2 DUP3 DUP2 LT ISZERO PUSH3 0x98E JUMPI DUP1 DUP6 PUSH3 0x8A8 SWAP3 ADD DUP4 SSTORE PUSH3 0x3AE7 JUMP JUMPDEST SWAP3 SWAP1 DUP1 SLOAD SWAP4 PUSH1 0x3 SHL PUSH2 0xFFFF SWAP5 DUP6 PUSH2 0x198 DUP4 SHL SWAP3 SHL NOT AND OR SWAP1 SSTORE DUP2 SLOAD DUP2 DUP2 LT ISZERO PUSH3 0x98E JUMPI DUP1 DUP7 PUSH3 0x8DC SWAP3 ADD DUP5 SSTORE PUSH3 0x3AE7 JUMP JUMPDEST DUP2 SLOAD SWAP1 PUSH1 0x3 SHL SWAP1 DUP6 PUSH2 0x16C DUP4 SHL SWAP3 SHL NOT AND OR SWAP1 SSTORE DUP2 SLOAD DUP2 DUP2 LT ISZERO PUSH3 0x98E JUMPI DUP1 DUP7 PUSH3 0x90B SWAP3 ADD DUP5 SSTORE PUSH3 0x3AE7 JUMP JUMPDEST DUP2 SLOAD SWAP1 PUSH1 0x3 SHL SWAP1 DUP6 PUSH2 0x2F8 DUP4 SHL SWAP3 SHL NOT AND OR SWAP1 SSTORE DUP2 SLOAD SWAP1 DUP2 LT ISZERO PUSH3 0x98E JUMPI PUSH3 0x93A SWAP2 DUP6 DUP3 ADD SWAP1 SSTORE PUSH3 0x3AE7 JUMP JUMPDEST DUP2 SWAP3 SWAP2 SLOAD SWAP1 PUSH1 0x3 SHL SWAP2 PUSH1 0xC0 DUP4 SHL SWAP3 SHL NOT AND OR SWAP1 SSTORE PUSH3 0x957 JUMPI POP DUP1 RETURN JUMPDEST PUSH1 0x20 PUSH32 0x7F26B83FF96E1F2B6A682F133852F6798A09C465DA95921460CEFB3847402498 SWAP2 PUSH2 0xFF00 NOT DUP5 SLOAD AND DUP5 SSTORE PUSH1 0x40 MLOAD SWAP1 DUP2 MSTORE LOG1 DUP1 RETURN JUMPDEST PUSH4 0x4E487B71 PUSH1 0xE0 SHL PUSH1 0x0 MSTORE PUSH1 0x41 PUSH1 0x4 MSTORE PUSH1 0x24 PUSH1 0x0 REVERT JUMPDEST POP DUP7 ISZERO PUSH3 0x76C JUMP JUMPDEST POP DUP6 ISZERO PUSH3 0x764 JUMP JUMPDEST POP DUP4 ISZERO PUSH3 0x75C JUMP JUMPDEST POP DUP5 DUP9 AND ISZERO PUSH3 0x754 JUMP JUMPDEST PUSH2 0xFFFF NOT AND PUSH2 0x101 OR DUP12 SSTORE CODESIZE PUSH3 0x747 JUMP JUMPDEST PUSH1 0x40 MLOAD PUSH3 0x461BCD PUSH1 0xE5 SHL DUP2 MSTORE PUSH1 0x20 PUSH1 0x4 DUP3 ADD MSTORE PUSH1 0x2E PUSH1 0x24 DUP3 ADD MSTORE PUSH32 0x496E697469616C697A61626C653A20636F6E747261637420697320616C726561 PUSH1 0x44 DUP3 ADD MSTORE PUSH14 0x191E481A5B9A5D1A585B1A5E9959 PUSH1 0x92 SHL PUSH1 0x64 DUP3 ADD MSTORE PUSH1 0x84 SWAP1 REVERT JUMPDEST POP ADDRESS EXTCODESIZE ISZERO DUP1 ISZERO PUSH3 0x72C JUMPI POP PUSH1 0x1 PUSH1 0xFF DUP3 AND EQ PUSH3 0x72C JUMP JUMPDEST POP PUSH1 0x1 PUSH1 0xFF DUP3 AND LT PUSH3 0x724 JUMP JUMPDEST POP CALLVALUE PUSH3 0x3B9 JUMPI DUP1 PUSH1 0x3 NOT CALLDATASIZE ADD SLT PUSH3 0x3B9 JUMPI PUSH1 0x40 MLOAD DUP1 PUSH2 0x13A SWAP2 DUP3 SLOAD DUP1 DUP3 MSTORE DUP3 PUSH1 0x20 DUP1 DUP1 SWAP5 ADD DUP1 SWAP7 DUP9 MSTORE PUSH32 0x1CC3277F886BC7650038E458160D07E0113C6DBE808DE6ADA3226131DC580251 SWAP4 DUP9 SWAP1 JUMPDEST DUP1 PUSH1 0xF DUP4 ADD LT PUSH3 0xD18 JUMPI PUSH3 0xB61 SWAP6 SLOAD SWAP2 DUP5 DUP3 DUP3 LT PUSH3 0xD03 JUMPI JUMPDEST DUP3 DUP3 LT PUSH3 0xCEB JUMPI JUMPDEST DUP3 DUP3 LT PUSH3 0xCD4 JUMPI JUMPDEST DUP3 DUP3 LT PUSH3 0xCBC JUMPI JUMPDEST DUP3 DUP3 LT PUSH3 0xCA4 JUMPI JUMPDEST DUP3 DUP3 LT PUSH3 0xC8C JUMPI JUMPDEST DUP3 DUP3 LT PUSH3 0xC74 JUMPI JUMPDEST DUP3 DUP3 LT PUSH3 0xC5C JUMPI JUMPDEST DUP3 DUP3 LT PUSH3 0xC44 JUMPI JUMPDEST DUP3 DUP3 LT PUSH3 0xC2C JUMPI JUMPDEST DUP3 DUP3 LT PUSH3 0xC14 JUMPI JUMPDEST DUP3 DUP3 LT PUSH3 0xBFC JUMPI JUMPDEST DUP3 DUP3 LT PUSH3 0xBE4 JUMPI JUMPDEST DUP3 DUP3 LT PUSH3 0xBCC JUMPI JUMPDEST DUP3 DUP3 LT PUSH3 0xBB4 JUMPI JUMPDEST POP LT PUSH3 0xBA5 JUMPI JUMPDEST POP SWAP1 POP SWAP6 SWAP3 SWAP5 SWAP4 SWAP6 SUB DUP6 PUSH3 0x39AD JUMP JUMPDEST PUSH1 0x40 MLOAD SWAP4 DUP4 DUP6 SWAP5 DUP6 ADD SWAP2 DUP2 DUP7 MSTORE MLOAD DUP1 SWAP3 MSTORE PUSH1 0x40 DUP6 ADD SWAP4 SWAP3 JUMPDEST DUP3 DUP2 LT PUSH3 0xB89 JUMPI POP POP POP POP SUB SWAP1 RETURN JUMPDEST DUP4 MLOAD PUSH2 0xFFFF AND DUP6 MSTORE DUP7 SWAP6 POP SWAP4 DUP2 ADD SWAP4 SWAP3 DUP2 ADD SWAP3 PUSH1 0x1 ADD PUSH3 0xB79 JUMP JUMPDEST PUSH1 0xF0 SHR DUP2 MSTORE ADD DUP4 SWAP1 CODESIZE PUSH3 0xB51 JUMP JUMPDEST PUSH1 0x1 SWAP2 SWAP5 PUSH2 0xFFFF DUP6 PUSH1 0xE0 SHR AND DUP2 MSTORE ADD SWAP4 ADD DUP5 PUSH3 0xB49 JUMP JUMPDEST PUSH1 0x1 SWAP2 SWAP5 PUSH2 0xFFFF DUP6 PUSH1 0xD0 SHR AND DUP2 MSTORE ADD SWAP4 ADD DUP5 PUSH3 0xB40 JUMP JUMPDEST PUSH1 0x1 SWAP2 SWAP5 PUSH2 0xFFFF DUP6 PUSH1 0xC0 SHR AND DUP2 MSTORE ADD SWAP4 ADD DUP5 PUSH3 0xB37 JUMP JUMPDEST PUSH1 0x1 SWAP2 SWAP5 PUSH2 0xFFFF DUP6 PUSH1 0xB0 SHR AND DUP2 MSTORE ADD SWAP4 ADD DUP5 PUSH3 0xB2E JUMP JUMPDEST PUSH1 0x1 SWAP2 SWAP5 PUSH2 0xFFFF DUP6 PUSH1 0xA0 SHR AND DUP2 MSTORE ADD SWAP4 ADD DUP5 PUSH3 0xB25 JUMP JUMPDEST PUSH1 0x1 SWAP2 SWAP5 PUSH2 0xFFFF DUP6 PUSH1 0x90 SHR AND DUP2 MSTORE ADD SWAP4 ADD DUP5 PUSH3 0xB1C JUMP JUMPDEST PUSH1 0x1 SWAP2 SWAP5 PUSH2 0xFFFF DUP6 PUSH1 0x80 SHR AND DUP2 MSTORE ADD SWAP4 ADD DUP5 PUSH3 0xB13 JUMP JUMPDEST PUSH1 0x1 SWAP2 SWAP5 PUSH2 0xFFFF DUP6 PUSH1 0x70 SHR AND DUP2 MSTORE ADD SWAP4 ADD DUP5 PUSH3 0xB0A JUMP JUMPDEST PUSH1 0x1 SWAP2 SWAP5 PUSH2 0xFFFF DUP6 PUSH1 0x60 SHR AND DUP2 MSTORE ADD SWAP4 ADD DUP5 PUSH3 0xB01 JUMP JUMPDEST PUSH1 0x1 SWAP2 SWAP5 PUSH2 0xFFFF DUP6 PUSH1 0x50 SHR AND DUP2 MSTORE ADD SWAP4 ADD DUP5 PUSH3 0xAF8 JUMP JUMPDEST PUSH1 0x1 SWAP2 SWAP5 PUSH2 0xFFFF DUP6 PUSH1 0x40 SHR AND DUP2 MSTORE ADD SWAP4 ADD DUP5 PUSH3 0xAEF JUMP JUMPDEST PUSH1 0x1 SWAP2 SWAP5 PUSH2 0xFFFF DUP6 PUSH1 0x30 SHR AND DUP2 MSTORE ADD SWAP4 ADD DUP5 PUSH3 0xAE6 JUMP JUMPDEST PUSH1 0x1 SWAP2 SWAP5 PUSH2 0xFFFF DUP6 DUP4 SHR AND DUP2 MSTORE ADD SWAP4 ADD DUP5 PUSH3 0xADD JUMP JUMPDEST PUSH1 0x1 SWAP2 SWAP5 PUSH2 0xFFFF DUP6 PUSH1 0x10 SHR AND DUP2 MSTORE ADD SWAP4 ADD DUP5 PUSH3 0xAD4 JUMP JUMPDEST PUSH1 0x1 SWAP2 SWAP5 PUSH2 0xFFFF DUP6 AND DUP2 MSTORE ADD SWAP4 ADD DUP5 PUSH3 0xACB JUMP JUMPDEST SWAP3 POP SWAP3 POP PUSH1 0x1 PUSH2 0x200 PUSH1 0x10 SWAP3 DUP7 SLOAD PUSH2 0xFFFF DUP1 DUP3 AND DUP4 MSTORE DUP1 DUP3 DUP8 SHR AND DUP11 DUP5 ADD MSTORE DUP1 DUP3 DUP12 SHR AND PUSH1 0x40 DUP5 ADD MSTORE DUP1 DUP3 PUSH1 0x60 DUP3 DUP3 PUSH1 0x30 SHR AND DUP2 DUP8 ADD MSTORE DUP3 DUP3 PUSH1 0x80 DUP3 DUP3 PUSH1 0x40 SHR AND DUP2 DUP11 ADD MSTORE DUP3 DUP3 PUSH1 0xA0 SWAP3 DUP3 DUP3 PUSH1 0x50 SHR AND DUP5 DUP14 ADD MSTORE DUP3 DUP3 PUSH1 0xC0 SWAP9 SHR AND DUP8 DUP14 ADD MSTORE DUP3 DUP3 PUSH1 0x70 SHR AND PUSH1 0xE0 DUP14 ADD MSTORE SHR AND PUSH2 0x100 DUP11 ADD MSTORE DUP3 DUP3 PUSH1 0x90 SHR AND PUSH2 0x120 DUP11 ADD MSTORE SHR AND PUSH2 0x140 DUP8 ADD MSTORE DUP3 DUP3 PUSH1 0xB0 SHR AND PUSH2 0x160 DUP8 ADD MSTORE SHR AND PUSH2 0x180 DUP5 ADD MSTORE DUP1 DUP3 PUSH1 0xD0 SHR AND PUSH2 0x1A0 DUP5 ADD MSTORE DUP2 PUSH1 0xE0 SHR AND PUSH2 0x1C0 DUP4 ADD MSTORE PUSH1 0xF0 SHR PUSH2 0x1E0 DUP3 ADD MSTORE ADD SWAP5 ADD SWAP3 ADD SWAP3 DUP6 SWAP3 SWAP4 DUP6 SWAP3 PUSH3 0xAAF JUMP JUMPDEST POP CALLVALUE PUSH3 0x3B9 JUMPI DUP1 PUSH1 0x3 NOT CALLDATASIZE ADD SLT PUSH3 0x3B9 JUMPI PUSH2 0x132 SLOAD PUSH1 0x40 MLOAD PUSH1 0x1 PUSH1 0x1 PUSH1 0xA0 SHL SUB SWAP1 SWAP2 AND DUP2 MSTORE PUSH1 0x20 SWAP1 RETURN JUMPDEST POP CALLVALUE PUSH3 0x3B9 JUMPI PUSH1 0x40 CALLDATASIZE PUSH1 0x3 NOT ADD SLT PUSH3 0x3B9 JUMPI PUSH1 0x4 CALLDATALOAD PUSH3 0xE30 PUSH3 0x3B6E JUMP JUMPDEST DUP2 DUP4 MSTORE PUSH2 0x136 PUSH1 0x20 MSTORE PUSH1 0x40 DUP4 KECCAK256 PUSH1 0x1 DUP2 ADD SLOAD SWAP1 SWAP2 SWAP1 PUSH1 0x1 PUSH1 0x1 PUSH1 0xA0 SHL SUB SWAP1 DUP2 AND DUP1 ISZERO PUSH3 0x3A7 JUMPI CALLER EQ ISZERO SWAP1 DUP2 PUSH3 0xEC8 JUMPI JUMPDEST POP PUSH3 0x395 JUMPI PUSH1 0xFF DUP2 AND PUSH1 0x4 DUP2 GT PUSH3 0x5DB JUMPI PUSH1 0x9 SWAP3 SWAP1 SWAP3 ADD DUP1 SLOAD PUSH1 0xFF NOT DUP2 AND SWAP1 SWAP4 OR SWAP1 SSTORE PUSH1 0x40 DUP1 MLOAD PUSH1 0xFF SWAP4 DUP5 AND DUP2 MSTORE SWAP2 SWAP1 SWAP3 AND PUSH1 0x20 DUP3 ADD MSTORE PUSH32 0xFA8490501759793412D4D59A4C0D695E3A6CEEAC67E30F2E3D94FD79612F455 SWAP2 DUP2 SWAP1 DUP2 ADD JUMPDEST SUB SWAP1 LOG2 DUP1 RETURN JUMPDEST SWAP1 POP PUSH1 0x97 SLOAD AND CALLER EQ ISZERO CODESIZE PUSH3 0xE62 JUMP JUMPDEST POP CALLVALUE PUSH3 0x3B9 JUMPI PUSH1 0x20 CALLDATASIZE PUSH1 0x3 NOT ADD SLT PUSH3 0x3B9 JUMPI PUSH1 0x4 CALLDATALOAD PUSH3 0xEF9 PUSH3 0x4017 JUMP JUMPDEST PUSH3 0xF03 PUSH3 0x3FD2 JUMP JUMPDEST DUP1 DUP3 MSTORE PUSH2 0x136 PUSH1 0x20 MSTORE PUSH1 0x40 DUP3 KECCAK256 PUSH1 0x1 DUP2 ADD SLOAD SWAP1 SWAP2 SWAP1 PUSH1 0x1 PUSH1 0x1 PUSH1 0xA0 SHL SUB SWAP1 DUP2 AND DUP1 ISZERO PUSH3 0x3A7 JUMPI CALLER SUB PUSH3 0x395 JUMPI DUP1 PUSH1 0x2 DUP5 ADD SLOAD AND SWAP3 DUP4 ISZERO PUSH3 0x371 JUMPI PUSH1 0x5 ADD SWAP3 DUP2 DUP5 SLOAD AND PUSH3 0x383 JUMPI DUP2 PUSH2 0x131 SLOAD AND SWAP1 DUP2 ISZERO PUSH3 0x371 JUMPI DUP3 PUSH2 0x133 SLOAD AND PUSH1 0x40 MLOAD SWAP2 PUSH4 0xC0C53B8B PUSH1 0xE0 SHL PUSH1 0x20 DUP5 ADD MSTORE PUSH1 0x24 DUP4 ADD MSTORE CALLER PUSH1 0x44 DUP4 ADD MSTORE PUSH1 0x64 DUP3 ADD MSTORE PUSH1 0x64 DUP2 MSTORE PUSH3 0xF91 DUP2 PUSH3 0x3975 JUMP JUMPDEST PUSH1 0x40 MLOAD SWAP2 PUSH2 0x416 DUP1 DUP5 ADD SWAP1 DUP5 DUP3 LT PUSH1 0x1 PUSH1 0x1 PUSH1 0x40 SHL SUB DUP4 GT OR PUSH3 0x102B JUMPI SWAP2 DUP5 SWAP4 SWAP2 PUSH3 0xFC4 SWAP4 PUSH3 0x4D25 DUP7 CODECOPY PUSH3 0x45C4 JUMP JUMPDEST SUB SWAP1 DUP6 CREATE DUP1 ISZERO PUSH3 0x1020 JUMPI PUSH1 0x20 SWAP5 POP AND SWAP2 DUP3 PUSH1 0x1 PUSH1 0x1 PUSH1 0x60 SHL SUB PUSH1 0xA0 SHL DUP3 SLOAD AND OR SWAP1 SSTORE PUSH1 0x40 MLOAD SWAP1 DUP3 DUP3 MSTORE PUSH32 0xE433BA284FB3E6C1BD18E82622F1D5047266130C0D9A5379C1098A4CC980B4C3 DUP5 CALLER SWAP4 LOG3 PUSH1 0x1 PUSH1 0xFB SSTORE PUSH1 0x40 MLOAD SWAP1 DUP2 MSTORE RETURN JUMPDEST PUSH1 0x40 MLOAD RETURNDATASIZE DUP7 DUP3 RETURNDATACOPY RETURNDATASIZE SWAP1 REVERT JUMPDEST PUSH4 0x4E487B71 PUSH1 0xE0 SHL DUP10 MSTORE PUSH1 0x41 PUSH1 0x4 MSTORE PUSH1 0x24 DUP10 REVERT JUMPDEST POP CALLVALUE PUSH3 0x3B9 JUMPI PUSH3 0x1051 CALLDATASIZE PUSH3 0x3B7F JUMP JUMPDEST PUSH3 0x1067 SWAP10 SWAP6 SWAP4 SWAP10 SWAP9 SWAP3 SWAP5 SWAP8 SWAP9 SWAP7 SWAP2 SWAP7 PUSH3 0x4017 JUMP JUMPDEST PUSH3 0x1071 PUSH3 0x3FD2 JUMP JUMPDEST PUSH1 0xFF PUSH2 0x13B SLOAD AND DUP1 PUSH3 0x14FC JUMPI JUMPDEST DUP1 PUSH3 0x14E6 JUMPI JUMPDEST PUSH3 0x14D4 JUMPI PUSH3 0x1096 SWAP1 PUSH3 0x406E JUMP JUMPDEST PUSH1 0x4 PUSH1 0xFF DUP8 AND GT PUSH3 0x5DB JUMPI DUP7 ISZERO PUSH3 0x14C2 JUMPI PUSH3 0x10D5 SWAP3 DUP8 SWAP2 PUSH2 0x135 SWAP10 DUP11 SLOAD SWAP11 PUSH3 0x10C2 DUP13 PUSH3 0x4489 JUMP JUMPDEST SWAP1 SSTORE PUSH3 0x10CE PUSH3 0x45EB JUMP JUMPDEST SWAP5 PUSH3 0x466F JUMP JUMPDEST SWAP6 PUSH1 0x1 PUSH1 0x1 PUSH1 0xA0 SHL SUB DUP8 AND EXTCODESIZE ISZERO PUSH3 0x14BE JUMPI PUSH1 0x40 MLOAD PUSH4 0x40C10F19 PUSH1 0xE0 SHL DUP2 MSTORE CALLER PUSH1 0x4 DUP3 ADD MSTORE PUSH1 0x24 DUP2 ADD DUP7 SWAP1 MSTORE DUP4 DUP2 PUSH1 0x44 DUP2 DUP4 PUSH1 0x1 PUSH1 0x1 PUSH1 0xA0 SHL SUB DUP14 AND GAS CALL DUP1 ISZERO PUSH3 0x1020 JUMPI SWAP1 DUP5 SWAP2 PUSH3 0x14A6 JUMPI JUMPDEST POP POP PUSH3 0x118A SWAP1 PUSH3 0x1136 CALLER DUP10 PUSH3 0x48B1 JUMP JUMPDEST PUSH1 0x40 MLOAD SWAP3 PUSH3 0x1145 DUP5 PUSH3 0x3944 JUMP JUMPDEST DUP8 DUP5 MSTORE CALLER PUSH1 0x20 DUP6 ADD MSTORE PUSH1 0x1 DUP1 PUSH1 0xA0 SHL SUB DUP10 AND PUSH1 0x40 DUP6 ADD MSTORE DUP5 PUSH1 0x60 DUP6 ADD MSTORE DUP5 PUSH1 0x80 DUP6 ADD MSTORE DUP5 PUSH1 0xA0 DUP6 ADD MSTORE DUP5 PUSH1 0xC0 DUP6 ADD MSTORE TIMESTAMP PUSH1 0xE0 DUP6 ADD MSTORE PUSH1 0x1 PUSH2 0x100 DUP6 ADD MSTORE CALLDATASIZE SWAP2 PUSH3 0x3C7A JUMP JUMPDEST PUSH2 0x120 DUP3 ADD MSTORE PUSH1 0xFF DUP4 AND PUSH2 0x140 DUP3 ADD MSTORE DUP5 DUP3 MSTORE PUSH2 0x136 PUSH1 0x20 MSTORE PUSH1 0x40 DUP3 KECCAK256 DUP2 MLOAD DUP2 SSTORE PUSH1 0x1 DUP2 ADD PUSH1 0x1 DUP1 PUSH1 0xA0 SHL SUB PUSH1 0x20 DUP5 ADD MLOAD AND SWAP1 PUSH1 0x1 PUSH1 0x1 PUSH1 0x60 SHL SUB PUSH1 0xA0 SHL SWAP2 DUP3 DUP3 SLOAD AND OR SWAP1 SSTORE PUSH1 0x2 DUP3 ADD PUSH1 0x1 DUP1 PUSH1 0xA0 SHL SUB PUSH1 0x40 DUP6 ADD MLOAD AND DUP3 DUP3 SLOAD AND OR SWAP1 SSTORE PUSH1 0x3 DUP3 ADD PUSH1 0x1 DUP1 PUSH1 0xA0 SHL SUB PUSH1 0x60 DUP6 ADD MLOAD AND DUP3 DUP3 SLOAD AND OR SWAP1 SSTORE PUSH1 0x4 DUP3 ADD SWAP1 PUSH1 0x1 DUP1 PUSH1 0xA0 SHL SUB PUSH1 0x80 DUP6 ADD MLOAD AND SWAP1 DUP3 SLOAD AND OR SWAP1 SSTORE PUSH1 0x5 DUP2 ADD PUSH1 0x1 DUP1 PUSH1 0xA0 SHL SUB PUSH1 0xA0 DUP5 ADD MLOAD AND DUP2 SLOAD SWAP1 PUSH1 0xC0 DUP6 ADD MLOAD PUSH1 0x4 DUP2 LT ISZERO PUSH3 0x1492 JUMPI PUSH1 0xFF PUSH1 0xA0 SHL SWAP1 PUSH1 0xA0 SHL AND SWAP2 PUSH1 0x1 PUSH1 0x1 PUSH1 0x58 SHL SUB PUSH1 0xA8 SHL AND OR OR SWAP1 SSTORE PUSH1 0xE0 DUP3 ADD MLOAD PUSH1 0x6 DUP3 ADD SSTORE PUSH3 0x1282 PUSH2 0x100 DUP4 ADD MLOAD ISZERO ISZERO PUSH1 0x7 DUP4 ADD SWAP1 PUSH1 0xFF DUP1 NOT DUP4 SLOAD AND SWAP2 ISZERO ISZERO AND OR SWAP1 SSTORE JUMP JUMPDEST PUSH2 0x120 DUP3 ADD MLOAD DUP1 MLOAD SWAP1 PUSH1 0x1 PUSH1 0x1 PUSH1 0x40 SHL SUB DUP3 GT PUSH3 0x147E JUMPI SWAP1 DUP3 SWAP2 PUSH3 0x12AF PUSH1 0x8 DUP11 SWAP8 SWAP7 SWAP6 ADD SLOAD PUSH3 0x3907 JUMP JUMPDEST PUSH1 0x1F DUP2 GT PUSH3 0x141D JUMPI JUMPDEST POP PUSH1 0x20 SWAP1 PUSH1 0x1F DUP4 GT PUSH1 0x1 EQ PUSH3 0x1390 JUMPI PUSH2 0x140 PUSH1 0x9 PUSH1 0x40 SWAP6 DUP6 DUP10 SWAP7 PUSH1 0xFF SWAP13 SWAP12 SWAP10 SWAP7 DUP14 SWAP7 PUSH3 0x131D SWAP13 SWAP3 PUSH3 0x1384 JUMPI JUMPDEST POP POP DUP2 PUSH1 0x1 SHL SWAP2 PUSH1 0x0 NOT SWAP1 PUSH1 0x3 SHL SHR NOT AND OR PUSH1 0x8 DUP3 ADD SSTORE JUMPDEST ADD SWAP3 ADD MLOAD AND DUP8 NOT DUP3 SLOAD AND OR SWAP1 SSTORE CALLER DUP2 MSTORE PUSH2 0x137 PUSH1 0x20 MSTORE KECCAK256 PUSH3 0x458C JUMP JUMPDEST PUSH1 0x40 MLOAD SWAP3 PUSH1 0x1 DUP1 PUSH1 0xA0 SHL SUB DUP7 AND DUP5 MSTORE PUSH1 0x20 DUP5 ADD MSTORE PUSH1 0x0 PUSH1 0x40 DUP5 ADD MSTORE AND PUSH1 0x60 DUP3 ADD MSTORE DUP2 PUSH32 0x3FF1E0761D6AC9F2F05EC5865EBE47AD1BC85F22900DEB91A5C3EF4DC4938A0D PUSH1 0x80 CALLER SWAP4 LOG3 PUSH1 0x1 PUSH1 0xFB SSTORE PUSH1 0x40 DUP1 MLOAD SWAP2 DUP3 MSTORE PUSH1 0x1 PUSH1 0x1 PUSH1 0xA0 SHL SUB SWAP3 SWAP1 SWAP3 AND PUSH1 0x20 DUP3 ADD MSTORE RETURN JUMPDEST ADD MLOAD SWAP1 POP CODESIZE DUP1 PUSH3 0x12E8 JUMP JUMPDEST SWAP7 SWAP6 SWAP5 SWAP4 SWAP3 SWAP2 SWAP1 PUSH1 0x8 DUP4 ADD DUP6 MSTORE PUSH1 0x20 DUP6 KECCAK256 SWAP8 DUP6 JUMPDEST PUSH1 0x1F NOT DUP5 AND DUP2 LT PUSH3 0x1401 JUMPI POP PUSH1 0x9 PUSH3 0x131D SWAP8 SWAP7 SWAP5 PUSH1 0x1 DUP6 PUSH1 0xFF SWAP13 DUP14 SWAP7 PUSH2 0x140 SWAP7 PUSH1 0x40 SWAP12 SWAP10 PUSH1 0x1F NOT DUP2 AND LT PUSH3 0x13E7 JUMPI JUMPDEST POP POP POP DUP2 SHL ADD PUSH1 0x8 DUP3 ADD SSTORE PUSH3 0x1300 JUMP JUMPDEST ADD MLOAD PUSH1 0x0 NOT PUSH1 0xF8 DUP5 PUSH1 0x3 SHL AND SHR NOT AND SWAP1 SSTORE CODESIZE DUP1 DUP1 PUSH3 0x13D6 JUMP JUMPDEST DUP3 DUP3 ADD MLOAD DUP11 SSTORE PUSH1 0x1 SWAP1 SWAP10 ADD SWAP9 DUP12 SWAP8 POP PUSH1 0x20 SWAP3 DUP4 ADD SWAP3 ADD PUSH3 0x13A4 JUMP JUMPDEST SWAP1 SWAP2 SWAP3 SWAP4 SWAP5 SWAP6 POP PUSH1 0x8 DUP5 ADD DUP7 MSTORE PUSH1 0x20 DUP7 KECCAK256 PUSH1 0x1F DUP5 ADD PUSH1 0x5 SHR DUP2 ADD SWAP2 PUSH1 0x20 DUP6 LT PUSH3 0x1473 JUMPI JUMPDEST SWAP1 PUSH1 0x1F DUP12 SWAP9 SWAP8 SWAP7 SWAP6 SWAP5 SWAP4 SWAP3 ADD PUSH1 0x5 SHR ADD SWAP1 JUMPDEST DUP2 DUP2 LT PUSH3 0x1463 JUMPI POP PUSH3 0x12B9 JUMP JUMPDEST PUSH1 0x0 DUP2 SSTORE DUP11 SWAP8 POP PUSH1 0x1 ADD PUSH3 0x1454 JUMP JUMPDEST SWAP1 SWAP2 POP DUP2 SWAP1 PUSH3 0x1442 JUMP JUMPDEST PUSH4 0x4E487B71 PUSH1 0xE0 SHL DUP6 MSTORE PUSH1 0x41 PUSH1 0x4 MSTORE PUSH1 0x24 DUP6 REVERT JUMPDEST PUSH4 0x4E487B71 PUSH1 0xE0 SHL DUP8 MSTORE PUSH1 0x21 PUSH1 0x4 MSTORE PUSH1 0x24 DUP8 REVERT JUMPDEST PUSH3 0x14B1 SWAP1 PUSH3 0x3961 JUMP JUMPDEST PUSH3 0x14BE JUMPI DUP3 CODESIZE PUSH3 0x1123 JUMP JUMPDEST DUP3 DUP1 REVERT JUMPDEST PUSH1 0x40 MLOAD PUSH4 0x15AE6727 PUSH1 0xE0 SHL DUP2 MSTORE PUSH1 0x4 SWAP1 REVERT JUMPDEST PUSH1 0x40 MLOAD PUSH4 0xA05532F5 PUSH1 0xE0 SHL DUP2 MSTORE PUSH1 0x4 SWAP1 REVERT JUMPDEST POP PUSH1 0x97 SLOAD PUSH1 0x1 PUSH1 0x1 PUSH1 0xA0 SHL SUB AND CALLER EQ ISZERO PUSH3 0x1086 JUMP JUMPDEST POP CALLER DUP7 MSTORE PUSH2 0x138 PUSH1 0x20 MSTORE PUSH1 0xFF PUSH1 0x40 DUP8 KECCAK256 SLOAD AND ISZERO PUSH3 0x107F JUMP JUMPDEST POP CALLVALUE PUSH3 0x3B9 JUMPI PUSH1 0x40 CALLDATASIZE PUSH1 0x3 NOT ADD SLT PUSH3 0x3B9 JUMPI PUSH1 0x20 PUSH3 0x1543 PUSH3 0x1539 PUSH3 0x3C4C JUMP JUMPDEST PUSH1 0x24 CALLDATALOAD SWAP1 PUSH3 0x4500 JUMP JUMPDEST PUSH1 0x40 MLOAD SWAP1 ISZERO ISZERO DUP2 MSTORE RETURN JUMPDEST POP CALLVALUE PUSH3 0x3B9 JUMPI PUSH1 0x20 CALLDATASIZE PUSH1 0x3 NOT ADD SLT PUSH3 0x3B9 JUMPI PUSH3 0x49D PUSH3 0x156F PUSH3 0x3C4C JUMP JUMPDEST PUSH3 0x1579 PUSH3 0x3CD6 JUMP JUMPDEST PUSH3 0x4BED JUMP JUMPDEST POP CALLVALUE PUSH3 0x3B9 JUMPI DUP1 PUSH1 0x3 NOT CALLDATASIZE ADD SLT PUSH3 0x3B9 JUMPI PUSH1 0x97 SLOAD PUSH1 0x40 MLOAD PUSH1 0x1 PUSH1 0x1 PUSH1 0xA0 SHL SUB SWAP1 SWAP2 AND DUP2 MSTORE PUSH1 0x20 SWAP1 RETURN JUMPDEST POP CALLVALUE PUSH3 0x3B9 JUMPI PUSH1 0x20 CALLDATASIZE PUSH1 0x3 NOT ADD SLT PUSH3 0x3B9 JUMPI PUSH3 0x49D PUSH3 0x15CC PUSH3 0x3C4C JUMP JUMPDEST PUSH3 0x15D6 PUSH3 0x3CD6 JUMP JUMPDEST PUSH3 0x4B2E JUMP JUMPDEST POP CALLVALUE PUSH3 0x3B9 JUMPI DUP1 PUSH1 0x3 NOT CALLDATASIZE ADD SLT PUSH3 0x3B9 JUMPI PUSH3 0x15F9 PUSH3 0x3CD6 JUMP JUMPDEST PUSH3 0x1603 PUSH3 0x3FD2 JUMP JUMPDEST PUSH1 0x1 PUSH1 0xFF NOT PUSH1 0xC9 SLOAD AND OR PUSH1 0xC9 SSTORE PUSH32 0x62E78CEA01BEE320CD4E420270B5EA74000D11B0C9F74754EBDBFC544B05A258 PUSH1 0x20 PUSH1 0x40 MLOAD CALLER DUP2 MSTORE LOG1 DUP1 RETURN JUMPDEST POP CALLVALUE PUSH3 0x3B9 JUMPI PUSH1 0x20 CALLDATASIZE PUSH1 0x3 NOT ADD SLT PUSH3 0x3B9 JUMPI PUSH1 0x20 SWAP1 PUSH1 0x40 SWAP1 PUSH1 0x1 PUSH1 0x1 PUSH1 0xA0 SHL SUB PUSH3 0x1669 PUSH3 0x38D9 JUMP JUMPDEST AND DUP2 MSTORE PUSH2 0x137 DUP4 MSTORE KECCAK256 SLOAD PUSH1 0x40 MLOAD SWAP1 DUP2 MSTORE RETURN JUMPDEST POP CALLVALUE PUSH3 0x3B9 JUMPI DUP1 PUSH1 0x3 NOT CALLDATASIZE ADD SLT PUSH3 0x3B9 JUMPI PUSH1 0x20 PUSH1 0xFF PUSH2 0x13B SLOAD AND PUSH1 0x40 MLOAD SWAP1 ISZERO ISZERO DUP2 MSTORE RETURN JUMPDEST POP CALLVALUE PUSH3 0x3B9 JUMPI PUSH1 0x20 CALLDATASIZE PUSH1 0x3 NOT ADD SLT PUSH3 0x3B9 JUMPI PUSH1 0x20 SWAP1 PUSH1 0xFF SWAP1 PUSH1 0x40 SWAP1 PUSH1 0x1 PUSH1 0x1 PUSH1 0xA0 SHL SUB PUSH3 0x16D0 PUSH3 0x38D9 JUMP JUMPDEST AND DUP2 MSTORE PUSH2 0x138 DUP5 MSTORE KECCAK256 SLOAD AND PUSH1 0x40 MLOAD SWAP1 ISZERO ISZERO DUP2 MSTORE RETURN JUMPDEST POP CALLVALUE PUSH3 0x3B9 JUMPI DUP1 PUSH1 0x3 NOT CALLDATASIZE ADD SLT PUSH3 0x3B9 JUMPI PUSH3 0x1702 PUSH3 0x3CD6 JUMP JUMPDEST PUSH1 0x97 DUP1 SLOAD PUSH1 0x1 PUSH1 0x1 PUSH1 0xA0 SHL SUB NOT DUP2 AND SWAP1 SWAP2 SSTORE PUSH1 0x0 SWAP1 PUSH1 0x1 PUSH1 0x1 PUSH1 0xA0 SHL SUB AND PUSH32 0x8BE0079C531659141344CD1FD0A4F28419497F9722A3DAAFE3B4186F6B6457E0 DUP3 DUP1 LOG3 DUP1 RETURN JUMPDEST POP CALLVALUE PUSH3 0x3B9 JUMPI PUSH1 0x3 NOT SWAP1 PUSH1 0x80 CALLDATASIZE DUP4 ADD SLT PUSH3 0x3B9 JUMPI PUSH1 0x4 CALLDATALOAD PUSH1 0x1 PUSH1 0x1 PUSH1 0x40 SHL SUB DUP2 GT PUSH3 0x1BCD JUMPI PUSH3 0x177F SWAP1 CALLDATASIZE SWAP1 PUSH1 0x4 ADD PUSH3 0x3B3E JUMP JUMPDEST SWAP1 SWAP2 PUSH1 0x24 CALLDATALOAD PUSH1 0x1 PUSH1 0x1 PUSH1 0x40 SHL SUB DUP2 GT PUSH3 0x1BCD JUMPI PUSH3 0x17A3 SWAP1 CALLDATASIZE SWAP1 PUSH1 0x4 ADD PUSH3 0x3B3E JUMP JUMPDEST SWAP5 PUSH1 0x44 CALLDATALOAD PUSH1 0x1 PUSH1 0x1 PUSH1 0x40 SHL SUB DUP2 GT PUSH3 0x1BC9 JUMPI PUSH3 0x17C6 SWAP1 CALLDATASIZE SWAP1 PUSH1 0x4 ADD PUSH3 0x3B3E JUMP JUMPDEST SWAP7 SWAP1 SWAP6 PUSH1 0x64 CALLDATALOAD SWAP3 PUSH1 0x1 PUSH1 0x1 PUSH1 0x40 SHL SUB DUP5 GT PUSH3 0x1BC5 JUMPI PUSH1 0x80 SWAP1 DUP5 CALLDATASIZE SUB ADD SLT PUSH3 0x1BC1 JUMPI PUSH3 0x17F3 PUSH3 0x4017 JUMP JUMPDEST PUSH3 0x17FD PUSH3 0x3FD2 JUMP JUMPDEST PUSH1 0xFF PUSH2 0x13B SLOAD AND DUP1 PUSH3 0x1BA8 JUMPI JUMPDEST DUP1 PUSH3 0x1B92 JUMPI JUMPDEST PUSH3 0x14D4 JUMPI PUSH3 0x18B9 SWAP4 PUSH3 0x1853 PUSH3 0x185C SWAP3 PUSH3 0x1837 PUSH3 0x1863 SWAP7 PUSH1 0x4 ADD PUSH3 0x406E JUMP JUMPDEST PUSH2 0x135 SWAP9 DUP10 SLOAD SWAP10 PUSH3 0x1849 DUP12 PUSH3 0x4489 JUMP JUMPDEST SWAP1 SSTORE CALLDATASIZE SWAP2 PUSH3 0x3C7A JUMP JUMPDEST SWAP3 CALLDATASIZE SWAP2 PUSH3 0x3C7A JUMP JUMPDEST SWAP1 PUSH3 0x4792 JUMP JUMPDEST SWAP4 PUSH1 0x40 MLOAD SWAP6 PUSH3 0x1873 DUP8 PUSH3 0x3944 JUMP JUMPDEST DUP5 DUP8 MSTORE CALLER PUSH1 0x20 DUP9 ADD MSTORE DUP4 PUSH1 0x40 DUP9 ADD MSTORE PUSH1 0x1 DUP1 PUSH1 0xA0 SHL SUB DUP7 AND PUSH1 0x60 DUP9 ADD MSTORE DUP4 PUSH1 0x80 DUP9 ADD MSTORE DUP4 PUSH1 0xA0 DUP9 ADD MSTORE PUSH1 0x1 PUSH1 0xC0 DUP9 ADD MSTORE TIMESTAMP PUSH1 0xE0 DUP9 ADD MSTORE PUSH1 0x1 PUSH2 0x100 DUP9 ADD MSTORE CALLDATASIZE SWAP2 PUSH3 0x3C7A JUMP JUMPDEST PUSH2 0x120 DUP6 ADD MSTORE DUP1 PUSH2 0x140 DUP6 ADD MSTORE DUP2 DUP2 MSTORE PUSH2 0x136 PUSH1 0x20 MSTORE PUSH1 0x40 DUP2 KECCAK256 SWAP4 DUP1 MLOAD DUP6 SSTORE PUSH1 0x1 DUP6 ADD PUSH1 0x1 DUP1 PUSH1 0xA0 SHL SUB PUSH1 0x20 DUP4 ADD MLOAD AND SWAP1 PUSH1 0x1 PUSH1 0x1 PUSH1 0x60 SHL SUB PUSH1 0xA0 SHL SWAP2 DUP3 DUP3 SLOAD AND OR SWAP1 SSTORE PUSH1 0x2 DUP7 ADD PUSH1 0x1 DUP1 PUSH1 0xA0 SHL SUB PUSH1 0x40 DUP5 ADD MLOAD AND DUP3 DUP3 SLOAD AND OR SWAP1 SSTORE PUSH1 0x3 DUP7 ADD PUSH1 0x1 DUP1 PUSH1 0xA0 SHL SUB PUSH1 0x60 DUP5 ADD MLOAD AND DUP3 DUP3 SLOAD AND OR SWAP1 SSTORE PUSH1 0x4 DUP7 ADD SWAP1 PUSH1 0x1 DUP1 PUSH1 0xA0 SHL SUB PUSH1 0x80 DUP5 ADD MLOAD AND SWAP1 DUP3 SLOAD AND OR SWAP1 SSTORE PUSH1 0x1 DUP1 PUSH1 0xA0 SHL SUB PUSH1 0xA0 DUP3 ADD MLOAD AND PUSH1 0x5 DUP7 ADD SLOAD SWAP1 PUSH1 0xC0 DUP4 ADD MLOAD PUSH1 0x4 DUP2 LT ISZERO PUSH3 0x1B7E JUMPI PUSH1 0xFF PUSH1 0xA0 SHL SWAP1 PUSH1 0xA0 SHL AND SWAP2 PUSH1 0x1 PUSH1 0x1 PUSH1 0x58 SHL SUB PUSH1 0xA8 SHL AND OR OR PUSH1 0x5 DUP7 ADD SSTORE PUSH1 0xE0 DUP2 ADD MLOAD PUSH1 0x6 DUP7 ADD SSTORE PUSH3 0x19B1 PUSH2 0x100 DUP3 ADD MLOAD ISZERO ISZERO PUSH1 0x7 DUP8 ADD SWAP1 PUSH1 0xFF DUP1 NOT DUP4 SLOAD AND SWAP2 ISZERO ISZERO AND OR SWAP1 SSTORE JUMP JUMPDEST PUSH1 0x8 DUP6 ADD SWAP5 PUSH2 0x120 DUP3 ADD MLOAD SWAP6 DUP7 MLOAD PUSH1 0x1 PUSH1 0x1 PUSH1 0x40 SHL SUB DUP2 GT PUSH3 0x147E JUMPI PUSH3 0x19DA DUP3 SLOAD PUSH3 0x3907 JUMP JUMPDEST SWAP8 PUSH1 0x1F DUP10 GT PUSH3 0x1B33 JUMPI JUMPDEST DUP7 SWAP8 SWAP9 POP DUP6 SWAP7 SWAP6 POP PUSH1 0x20 SWAP1 PUSH1 0x1F DUP4 GT PUSH1 0x1 EQ PUSH3 0x1AB6 JUMPI DUP8 SWAP5 PUSH1 0x40 SWAP7 SWAP5 DUP5 PUSH1 0xFF SWAP6 PUSH2 0x140 SWAP6 PUSH1 0x9 SWAP6 PUSH3 0x1A4C SWAP14 SWAP3 PUSH3 0x1AAA JUMPI JUMPDEST POP POP DUP2 PUSH1 0x1 SHL SWAP2 PUSH1 0x0 NOT SWAP1 PUSH1 0x3 SHL SHR NOT AND OR SWAP1 SSTORE JUMPDEST ADD SWAP3 ADD MLOAD AND PUSH1 0xFF NOT DUP3 SLOAD AND OR SWAP1 SSTORE CALLER DUP2 MSTORE PUSH2 0x137 PUSH1 0x20 MSTORE KECCAK256 PUSH3 0x458C JUMP JUMPDEST PUSH1 0x40 DUP1 MLOAD PUSH1 0x1 PUSH1 0x1 PUSH1 0xA0 SHL SUB DUP5 AND DUP2 MSTORE PUSH1 0x1 PUSH1 0x20 DUP3 ADD MSTORE CALLER SWAP2 DUP4 SWAP2 PUSH32 0x1A1586C4C8DC32A7041328AE1935D2559560E3ACA49936375553A13447D318BA SWAP2 SWAP1 LOG3 PUSH1 0x1 PUSH1 0xFB SSTORE PUSH1 0x40 DUP1 MLOAD SWAP2 DUP3 MSTORE PUSH1 0x1 PUSH1 0x1 PUSH1 0xA0 SHL SUB SWAP3 SWAP1 SWAP3 AND PUSH1 0x20 DUP3 ADD MSTORE RETURN JUMPDEST ADD MLOAD SWAP1 POP CODESIZE DUP1 PUSH3 0x1A19 JUMP JUMPDEST DUP4 DUP9 MSTORE PUSH1 0x20 DUP9 KECCAK256 SWAP2 SWAP1 PUSH1 0x1F NOT DUP5 AND DUP10 JUMPDEST DUP2 DUP2 LT PUSH3 0x1B17 JUMPI POP SWAP5 PUSH1 0x1 DUP6 PUSH2 0x140 SWAP6 PUSH1 0x9 SWAP6 PUSH3 0x1A4C SWAP14 SWAP11 SWAP6 PUSH1 0xFF SWAP10 PUSH1 0x40 SWAP14 SWAP12 LT PUSH3 0x1AFD JUMPI JUMPDEST POP POP POP DUP2 SHL ADD SWAP1 SSTORE PUSH3 0x1A2E JUMP JUMPDEST ADD MLOAD PUSH1 0x0 NOT PUSH1 0xF8 DUP5 PUSH1 0x3 SHL AND SHR NOT AND SWAP1 SSTORE CODESIZE DUP1 DUP1 PUSH3 0x1AEF JUMP JUMPDEST DUP3 DUP5 ADD MLOAD DUP6 SSTORE DUP12 SWAP10 POP PUSH1 0x1 SWAP1 SWAP5 ADD SWAP4 PUSH1 0x20 SWAP4 DUP5 ADD SWAP4 ADD PUSH3 0x1AC6 JUMP JUMPDEST DUP3 DUP7 MSTORE PUSH1 0x20 DUP7 KECCAK256 PUSH1 0x1F DUP4 ADD PUSH1 0x5 SHR DUP2 ADD SWAP10 PUSH1 0x20 DUP5 LT PUSH3 0x1B73 JUMPI JUMPDEST PUSH1 0x1F ADD PUSH1 0x5 SHR ADD SWAP9 JUMPDEST DUP10 DUP2 LT PUSH3 0x1B66 JUMPI POP PUSH3 0x19E5 JUMP JUMPDEST PUSH1 0x0 DUP2 SSTORE PUSH1 0x1 ADD PUSH3 0x1B57 JUMP JUMPDEST SWAP1 SWAP10 POP DUP10 SWAP1 PUSH3 0x1B4E JUMP JUMPDEST PUSH4 0x4E487B71 PUSH1 0xE0 SHL DUP6 MSTORE PUSH1 0x21 PUSH1 0x4 MSTORE PUSH1 0x24 DUP6 REVERT JUMPDEST POP PUSH1 0x97 SLOAD PUSH1 0x1 PUSH1 0x1 PUSH1 0xA0 SHL SUB AND CALLER EQ ISZERO PUSH3 0x1812 JUMP JUMPDEST POP CALLER DUP6 MSTORE PUSH2 0x138 PUSH1 0x20 MSTORE PUSH1 0xFF PUSH1 0x40 DUP7 KECCAK256 SLOAD AND ISZERO PUSH3 0x180B JUMP JUMPDEST DUP5 DUP1 REVERT JUMPDEST DUP6 DUP1 REVERT JUMPDEST DUP4 DUP1 REVERT JUMPDEST POP DUP1 REVERT JUMPDEST POP CALLVALUE PUSH3 0x3B9 JUMPI PUSH1 0x20 CALLDATASIZE PUSH1 0x3 NOT ADD SLT PUSH3 0x3B9 JUMPI PUSH1 0xFF PUSH1 0x9 PUSH1 0x40 PUSH1 0x20 SWAP4 PUSH1 0x4 CALLDATALOAD DUP2 MSTORE PUSH2 0x136 DUP6 MSTORE KECCAK256 ADD SLOAD AND PUSH1 0x40 MLOAD SWAP1 DUP2 MSTORE RETURN JUMPDEST POP CALLVALUE PUSH3 0x3B9 JUMPI PUSH1 0x20 CALLDATASIZE PUSH1 0x3 NOT ADD SLT PUSH3 0x3B9 JUMPI PUSH1 0x20 PUSH3 0x1543 PUSH3 0x1C28 PUSH3 0x38D9 JUMP JUMPDEST PUSH3 0x4CE2 JUMP JUMPDEST POP CALLVALUE PUSH3 0x3B9 JUMPI DUP1 PUSH1 0x3 NOT CALLDATASIZE ADD SLT PUSH3 0x3B9 JUMPI PUSH1 0x80 PUSH1 0x40 MLOAD PUSH3 0x1C51 DUP2 PUSH3 0x3975 JUMP JUMPDEST DUP3 DUP2 MSTORE DUP3 PUSH1 0x20 DUP3 ADD MSTORE DUP3 PUSH1 0x40 DUP3 ADD MSTORE DUP3 PUSH1 0x60 DUP3 ADD MSTORE ADD MSTORE PUSH1 0xA0 PUSH1 0x40 MLOAD PUSH3 0x1C78 DUP2 PUSH3 0x3975 JUMP JUMPDEST PUSH1 0x1 DUP1 DUP4 SHL SUB DUP1 PUSH2 0x12D SLOAD AND SWAP2 DUP3 DUP2 MSTORE DUP2 DUP1 PUSH2 0x12E SLOAD AND PUSH1 0x20 DUP4 ADD SWAP1 DUP2 MSTORE DUP2 DUP1 PUSH2 0x12F SLOAD AND PUSH1 0x40 DUP6 ADD SWAP1 DUP2 MSTORE DUP2 DUP1 PUSH2 0x130 SLOAD AND SWAP4 PUSH1 0x60 DUP8 ADD SWAP5 DUP6 MSTORE PUSH1 0x80 DUP3 PUSH2 0x131 SLOAD AND SWAP8 ADD SWAP7 DUP8 MSTORE PUSH1 0x40 MLOAD SWAP9 DUP10 MSTORE MLOAD AND PUSH1 0x20 DUP9 ADD MSTORE MLOAD AND PUSH1 0x40 DUP7 ADD MSTORE MLOAD AND PUSH1 0x60 DUP5 ADD MSTORE MLOAD AND PUSH1 0x80 DUP3 ADD MSTORE RETURN JUMPDEST POP CALLVALUE PUSH3 0x3B9 JUMPI PUSH1 0x60 CALLDATASIZE PUSH1 0x3 NOT ADD SLT PUSH3 0x3B9 JUMPI PUSH1 0x24 CALLDATALOAD PUSH1 0x4 CALLDATALOAD PUSH1 0x1 PUSH1 0x1 PUSH1 0x40 SHL SUB DUP1 DUP4 GT PUSH3 0x1BC9 JUMPI CALLDATASIZE PUSH1 0x23 DUP5 ADD SLT ISZERO PUSH3 0x1BC9 JUMPI DUP3 PUSH1 0x4 ADD CALLDATALOAD SWAP1 DUP2 GT PUSH3 0x1BC9 JUMPI PUSH1 0x24 DUP4 ADD SWAP3 PUSH1 0x24 CALLDATASIZE SWAP2 DUP4 PUSH1 0x5 SHL ADD ADD GT PUSH3 0x1BC9 JUMPI PUSH3 0x1D46 PUSH3 0x3CB6 JUMP JUMPDEST SWAP1 DUP3 DUP6 MSTORE PUSH1 0x20 SWAP4 PUSH2 0x136 DUP6 MSTORE PUSH1 0x1 DUP1 PUSH1 0xA0 SHL SUB DUP1 PUSH1 0x1 PUSH1 0x40 DUP10 KECCAK256 ADD SLOAD AND DUP1 ISZERO PUSH3 0x3A7 JUMPI CALLER EQ ISZERO SWAP1 DUP2 PUSH3 0x1E2B JUMPI JUMPDEST POP PUSH3 0x395 JUMPI DUP6 JUMPDEST DUP3 DUP2 LT PUSH3 0x1D89 JUMPI DUP7 DUP1 RETURN JUMPDEST PUSH3 0x1E25 SWAP1 DUP6 DUP9 MSTORE PUSH2 0x139 DUP8 MSTORE PUSH1 0x40 DUP9 KECCAK256 PUSH2 0xFFFF PUSH3 0x1DB4 PUSH3 0x1DAE DUP5 DUP9 DUP9 PUSH3 0x4B1D JUMP JUMPDEST PUSH3 0x40CF JUMP JUMPDEST AND PUSH1 0x0 MSTORE DUP8 MSTORE PUSH3 0x1DD5 DUP6 PUSH1 0x40 PUSH1 0x0 KECCAK256 SWAP1 PUSH1 0xFF DUP1 NOT DUP4 SLOAD AND SWAP2 ISZERO ISZERO AND OR SWAP1 SSTORE JUMP JUMPDEST DUP6 PUSH32 0x625799A2EDD125851A06A320AD052C8CB280DBE12DB8FFECE940D57F6499E297 DUP7 PUSH3 0x1E09 PUSH3 0x1DAE DUP6 DUP10 DUP10 PUSH3 0x4B1D JUMP JUMPDEST PUSH1 0x40 DUP1 MLOAD PUSH2 0xFFFF SWAP3 SWAP1 SWAP3 AND DUP3 MSTORE SWAP2 ISZERO ISZERO PUSH1 0x20 DUP3 ADD MSTORE LOG2 PUSH3 0x4489 JUMP JUMPDEST PUSH3 0x1D7D JUMP JUMPDEST SWAP1 POP PUSH1 0x97 SLOAD AND CALLER EQ ISZERO CODESIZE PUSH3 0x1D75 JUMP JUMPDEST POP CALLVALUE PUSH3 0x3B9 JUMPI PUSH1 0x60 CALLDATASIZE PUSH1 0x3 NOT ADD SLT PUSH3 0x3B9 JUMPI PUSH1 0x4 CALLDATALOAD PUSH3 0x1E5C PUSH3 0x3C3A JUMP JUMPDEST PUSH3 0x1E66 PUSH3 0x3CB6 JUMP JUMPDEST DUP3 DUP5 MSTORE PUSH2 0x136 PUSH1 0x20 MSTORE PUSH1 0x40 DUP5 KECCAK256 PUSH1 0x1 ADD SLOAD PUSH1 0x1 PUSH1 0x1 PUSH1 0xA0 SHL SUB SWAP1 DUP2 AND DUP1 ISZERO PUSH3 0x3A7 JUMPI CALLER EQ ISZERO SWAP1 DUP2 PUSH3 0x1F0E JUMPI JUMPDEST POP PUSH3 0x395 JUMPI PUSH32 0x625799A2EDD125851A06A320AD052C8CB280DBE12DB8FFECE940D57F6499E297 SWAP2 DUP4 DUP6 MSTORE PUSH2 0x139 PUSH1 0x20 MSTORE PUSH1 0x40 DUP6 KECCAK256 PUSH2 0xFFFF DUP3 AND PUSH1 0x0 MSTORE PUSH1 0x20 MSTORE PUSH3 0x1EEF DUP3 PUSH1 0x40 PUSH1 0x0 KECCAK256 SWAP1 PUSH1 0xFF DUP1 NOT DUP4 SLOAD AND SWAP2 ISZERO ISZERO AND OR SWAP1 SSTORE JUMP JUMPDEST PUSH1 0x40 DUP1 MLOAD PUSH2 0xFFFF SWAP1 SWAP3 AND DUP3 MSTORE SWAP2 ISZERO ISZERO PUSH1 0x20 DUP3 ADD MSTORE SWAP1 DUP2 SWAP1 DUP2 ADD PUSH3 0xEC2 JUMP JUMPDEST SWAP1 POP PUSH1 0x97 SLOAD AND CALLER EQ ISZERO CODESIZE PUSH3 0x1E94 JUMP JUMPDEST POP CALLVALUE PUSH3 0x3B9 JUMPI DUP1 PUSH1 0x3 NOT CALLDATASIZE ADD SLT PUSH3 0x3B9 JUMPI PUSH1 0x20 PUSH1 0xFF PUSH1 0xC9 SLOAD AND PUSH1 0x40 MLOAD SWAP1 ISZERO ISZERO DUP2 MSTORE RETURN JUMPDEST POP CALLVALUE PUSH3 0x3B9 JUMPI DUP1 PUSH1 0x3 NOT CALLDATASIZE ADD SLT PUSH3 0x3B9 JUMPI PUSH32 0x0 PUSH1 0x1 PUSH1 0x1 PUSH1 0xA0 SHL SUB AND ADDRESS SUB PUSH3 0x1FA0 JUMPI PUSH1 0x20 PUSH1 0x40 MLOAD PUSH1 0x0 DUP1 MLOAD PUSH1 0x20 PUSH3 0x513B DUP4 CODECOPY DUP2 MLOAD SWAP2 MSTORE DUP2 MSTORE RETURN JUMPDEST PUSH1 0x40 MLOAD PUSH3 0x461BCD PUSH1 0xE5 SHL DUP2 MSTORE PUSH1 0x20 PUSH1 0x4 DUP3 ADD MSTORE PUSH1 0x38 PUSH1 0x24 DUP3 ADD MSTORE PUSH32 0x555550535570677261646561626C653A206D757374206E6F742062652063616C PUSH1 0x44 DUP3 ADD MSTORE PUSH32 0x6C6564207468726F7567682064656C656761746563616C6C0000000000000000 PUSH1 0x64 DUP3 ADD MSTORE PUSH1 0x84 SWAP1 REVERT JUMPDEST POP CALLVALUE PUSH3 0x3B9 JUMPI PUSH1 0x20 CALLDATASIZE PUSH1 0x3 NOT ADD SLT PUSH3 0x3B9 JUMPI PUSH1 0x4 CALLDATALOAD PUSH3 0x202C PUSH3 0x3CD6 JUMP JUMPDEST DUP1 DUP3 MSTORE PUSH2 0x136 PUSH1 0x20 DUP2 SWAP1 MSTORE PUSH1 0x40 DUP4 KECCAK256 PUSH1 0x1 ADD SLOAD PUSH1 0x1 PUSH1 0x1 PUSH1 0xA0 SHL SUB AND ISZERO PUSH3 0x3A7 JUMPI DUP2 DUP4 MSTORE PUSH1 0x20 MSTORE PUSH1 0x40 DUP3 KECCAK256 PUSH1 0x7 ADD DUP1 SLOAD PUSH1 0xFF NOT AND SWAP1 SSTORE PUSH32 0x50F787E82BE2D97241DA1EB7F0386A6CFDCAE62DEF7289DD9745E1FFF44749F7 DUP3 DUP1 LOG2 DUP1 RETURN JUMPDEST POP PUSH1 0x40 CALLDATASIZE PUSH1 0x3 NOT ADD SLT PUSH3 0x3B9 JUMPI PUSH3 0x20A2 PUSH3 0x38D9 JUMP JUMPDEST PUSH1 0x24 CALLDATALOAD PUSH1 0x1 PUSH1 0x1 PUSH1 0x40 SHL SUB DUP2 GT PUSH3 0x14BE JUMPI CALLDATASIZE PUSH1 0x23 DUP3 ADD SLT ISZERO PUSH3 0x14BE JUMPI PUSH3 0x20D6 SWAP1 CALLDATASIZE SWAP1 PUSH1 0x24 DUP2 PUSH1 0x4 ADD CALLDATALOAD SWAP2 ADD PUSH3 0x3C7A JUMP JUMPDEST PUSH1 0x1 PUSH1 0x1 PUSH1 0xA0 SHL SUB PUSH32 0x0 DUP2 AND SWAP3 SWAP2 SWAP1 PUSH3 0x2112 ADDRESS DUP6 EQ ISZERO PUSH3 0x3D78 JUMP JUMPDEST PUSH3 0x2132 PUSH1 0x0 DUP1 MLOAD PUSH1 0x20 PUSH3 0x513B DUP4 CODECOPY DUP2 MLOAD SWAP2 MSTORE SWAP5 DUP3 DUP7 SLOAD AND EQ PUSH3 0x3DDA JUMP JUMPDEST PUSH3 0x213C PUSH3 0x3CD6 JUMP JUMPDEST PUSH32 0x4910FDFA16FED3260ED0E7147F7CC6DA11A60208B5B9406D12A635614FFD9143 SLOAD PUSH1 0xFF AND ISZERO PUSH3 0x2175 JUMPI POP POP PUSH3 0x49D SWAP2 POP PUSH3 0x3E3C JUMP JUMPDEST DUP3 AND PUSH1 0x40 MLOAD SWAP4 PUSH4 0x52D1902D PUSH1 0xE0 SHL DUP6 MSTORE PUSH1 0x20 SWAP5 DUP6 DUP2 PUSH1 0x4 DUP2 DUP7 GAS STATICCALL PUSH1 0x0 SWAP2 DUP2 PUSH3 0x234E JUMPI JUMPDEST POP PUSH3 0x21FC JUMPI PUSH1 0x40 MLOAD PUSH3 0x461BCD PUSH1 0xE5 SHL DUP2 MSTORE PUSH1 0x4 DUP2 ADD DUP8 SWAP1 MSTORE PUSH1 0x2E PUSH1 0x24 DUP3 ADD MSTORE PUSH32 0x45524331393637557067726164653A206E657720696D706C656D656E74617469 PUSH1 0x44 DUP3 ADD MSTORE PUSH14 0x6F6E206973206E6F742055555053 PUSH1 0x90 SHL PUSH1 0x64 DUP3 ADD MSTORE PUSH1 0x84 SWAP1 REVERT JUMPDEST SWAP5 SWAP3 SWAP4 SWAP5 SUB PUSH3 0x22F7 JUMPI PUSH3 0x2211 DUP5 PUSH3 0x3E3C JUMP JUMPDEST PUSH32 0xBC7CD75A20EE27FD9ADEBAB32041F755214DBC6BFFA90CC0225B39DA2E5C2D3B PUSH1 0x0 DUP1 LOG2 DUP2 MLOAD ISZERO DUP1 ISZERO SWAP1 PUSH3 0x22EE JUMPI JUMPDEST PUSH3 0x224E JUMPI JUMPDEST POP POP POP DUP1 RETURN JUMPDEST PUSH3 0x22DA SWAP3 PUSH1 0x0 DUP1 PUSH1 0x40 MLOAD SWAP5 PUSH3 0x2265 DUP7 PUSH3 0x3991 JUMP JUMPDEST PUSH1 0x27 DUP7 MSTORE PUSH32 0x416464726573733A206C6F772D6C6576656C2064656C65676174652063616C6C DUP6 DUP8 ADD MSTORE PUSH7 0x819985A5B1959 PUSH1 0xCA SHL PUSH1 0x40 DUP8 ADD MSTORE DUP5 DUP2 MLOAD SWAP2 ADD DUP5 GAS DELEGATECALL SWAP1 RETURNDATASIZE ISZERO PUSH3 0x22E4 JUMPI RETURNDATASIZE PUSH3 0x22BA DUP2 PUSH3 0x3C5E JUMP JUMPDEST SWAP1 PUSH3 0x22CA PUSH1 0x40 MLOAD SWAP3 DUP4 PUSH3 0x39AD JUMP JUMPDEST DUP2 MSTORE PUSH1 0x0 DUP2 SWAP5 RETURNDATASIZE SWAP3 ADD RETURNDATACOPY PUSH3 0x3ECE JUMP JUMPDEST POP CODESIZE DUP1 DUP1 PUSH3 0x2248 JUMP JUMPDEST PUSH1 0x60 SWAP3 POP PUSH3 0x3ECE JUMP JUMPDEST POP PUSH1 0x1 PUSH3 0x2242 JUMP JUMPDEST PUSH1 0x40 MLOAD PUSH3 0x461BCD PUSH1 0xE5 SHL DUP2 MSTORE PUSH1 0x4 DUP2 ADD DUP4 SWAP1 MSTORE PUSH1 0x29 PUSH1 0x24 DUP3 ADD MSTORE PUSH32 0x45524331393637557067726164653A20756E737570706F727465642070726F78 PUSH1 0x44 DUP3 ADD MSTORE PUSH9 0x1A58589B1955555251 PUSH1 0xBA SHL PUSH1 0x64 DUP3 ADD MSTORE PUSH1 0x84 SWAP1 REVERT JUMPDEST SWAP1 SWAP2 DUP8 DUP3 DUP2 RETURNDATASIZE DUP4 GT PUSH3 0x237B JUMPI JUMPDEST PUSH3 0x2368 DUP2 DUP4 PUSH3 0x39AD JUMP JUMPDEST DUP2 ADD SUB SLT PUSH3 0x3B9 JUMPI POP MLOAD SWAP1 CODESIZE PUSH3 0x219A JUMP JUMPDEST POP RETURNDATASIZE PUSH3 0x235C JUMP JUMPDEST POP CALLVALUE PUSH3 0x3B9 JUMPI DUP1 PUSH1 0x3 NOT CALLDATASIZE ADD SLT PUSH3 0x3B9 JUMPI PUSH1 0x20 PUSH1 0xFF PUSH2 0x13B SLOAD PUSH1 0x10 SHR AND PUSH1 0x40 MLOAD SWAP1 DUP2 MSTORE RETURN JUMPDEST POP CALLVALUE PUSH3 0x3B9 JUMPI PUSH1 0x40 CALLDATASIZE PUSH1 0x3 NOT ADD SLT PUSH3 0x3B9 JUMPI PUSH1 0x4 CALLDATALOAD PUSH1 0xFF DUP2 AND DUP1 SWAP2 SUB PUSH3 0x455 JUMPI PUSH3 0x23D7 PUSH3 0x38F0 JUMP JUMPDEST SWAP1 PUSH3 0x23E2 PUSH3 0x3CD6 JUMP JUMPDEST PUSH1 0x1 PUSH1 0x1 PUSH1 0xA0 SHL SUB SWAP2 DUP3 AND SWAP2 DUP3 ISZERO PUSH3 0x371 JUMPI DUP4 DUP3 PUSH3 0x243E JUMPI POP PUSH2 0x12D DUP1 SLOAD PUSH1 0x1 PUSH1 0x1 PUSH1 0xA0 SHL SUB NOT DUP2 AND DUP6 OR SWAP1 SWAP2 SSTORE DUP2 AND JUMPDEST AND SWAP1 PUSH32 0xEE98AB479506A480F6AAF2F74E304414FF825CB97856EC07C9C0DA0CB97B4392 DUP5 DUP1 LOG4 DUP1 RETURN JUMPDEST PUSH1 0x1 DUP4 SUB PUSH3 0x2466 JUMPI POP PUSH2 0x12E DUP1 SLOAD PUSH1 0x1 PUSH1 0x1 PUSH1 0xA0 SHL SUB NOT DUP2 AND DUP6 OR SWAP1 SWAP2 SSTORE DUP2 AND JUMPDEST PUSH3 0x2415 JUMP JUMPDEST PUSH1 0x2 DUP4 SUB PUSH3 0x248D JUMPI POP PUSH2 0x12F DUP1 SLOAD PUSH1 0x1 PUSH1 0x1 PUSH1 0xA0 SHL SUB NOT DUP2 AND DUP6 OR SWAP1 SWAP2 SSTORE DUP2 AND PUSH3 0x2415 JUMP JUMPDEST PUSH1 0x3 DUP4 SUB PUSH3 0x24B4 JUMPI POP PUSH2 0x130 DUP1 SLOAD PUSH1 0x1 PUSH1 0x1 PUSH1 0xA0 SHL SUB NOT DUP2 AND DUP6 OR SWAP1 SWAP2 SSTORE DUP2 AND PUSH3 0x2415 JUMP JUMPDEST PUSH1 0x4 DUP4 SUB PUSH3 0x2460 JUMPI POP PUSH2 0x131 DUP1 SLOAD PUSH1 0x1 PUSH1 0x1 PUSH1 0xA0 SHL SUB NOT DUP2 AND DUP6 OR SWAP1 SWAP2 SSTORE DUP2 AND PUSH3 0x2415 JUMP JUMPDEST POP CALLVALUE PUSH3 0x3B9 JUMPI DUP1 PUSH1 0x3 NOT CALLDATASIZE ADD SLT PUSH3 0x3B9 JUMPI PUSH1 0x20 PUSH2 0x134 SLOAD PUSH1 0x40 MLOAD SWAP1 DUP2 MSTORE RETURN JUMPDEST POP CALLVALUE PUSH3 0x3B9 JUMPI DUP1 PUSH1 0x3 NOT CALLDATASIZE ADD SLT PUSH3 0x3B9 JUMPI PUSH3 0x2519 PUSH3 0x3CD6 JUMP JUMPDEST PUSH1 0xC9 SLOAD PUSH1 0xFF DUP2 AND ISZERO PUSH3 0x255A JUMPI PUSH1 0xFF NOT AND PUSH1 0xC9 SSTORE PUSH32 0x5DB9EE0A495BF2E6FF9C91A7834C1BA4FDD244A5E8AA4E537BD38AEAE4B073AA PUSH1 0x20 PUSH1 0x40 MLOAD CALLER DUP2 MSTORE LOG1 DUP1 RETURN JUMPDEST PUSH1 0x40 MLOAD PUSH3 0x461BCD PUSH1 0xE5 SHL DUP2 MSTORE PUSH1 0x20 PUSH1 0x4 DUP3 ADD MSTORE PUSH1 0x14 PUSH1 0x24 DUP3 ADD MSTORE PUSH20 0x14185D5CD8589B194E881B9BDD081C185D5CD959 PUSH1 0x62 SHL PUSH1 0x44 DUP3 ADD MSTORE PUSH1 0x64 SWAP1 REVERT JUMPDEST POP CALLVALUE PUSH3 0x3B9 JUMPI PUSH1 0x40 CALLDATASIZE PUSH1 0x3 NOT ADD SLT PUSH3 0x3B9 JUMPI PUSH2 0xFFFF PUSH1 0x40 PUSH3 0x25B9 PUSH3 0x3C3A JUMP JUMPDEST SWAP3 PUSH1 0x4 CALLDATALOAD DUP2 MSTORE PUSH2 0x139 PUSH1 0x20 MSTORE KECCAK256 SWAP2 AND PUSH1 0x0 MSTORE PUSH1 0x20 MSTORE PUSH1 0x20 PUSH1 0xFF PUSH1 0x40 PUSH1 0x0 KECCAK256 SLOAD AND PUSH1 0x40 MLOAD SWAP1 ISZERO ISZERO DUP2 MSTORE RETURN JUMPDEST POP CALLVALUE PUSH3 0x3B9 JUMPI PUSH1 0x40 CALLDATASIZE PUSH1 0x3 NOT ADD SLT PUSH3 0x3B9 JUMPI PUSH3 0x2601 PUSH3 0x38D9 JUMP JUMPDEST PUSH1 0x1 PUSH1 0x1 PUSH1 0xA0 SHL SUB AND DUP2 MSTORE PUSH2 0x137 PUSH1 0x20 MSTORE PUSH1 0x40 DUP2 KECCAK256 DUP1 SLOAD PUSH1 0x24 CALLDATALOAD SWAP3 SWAP1 DUP4 LT ISZERO PUSH3 0x3B9 JUMPI PUSH1 0x20 PUSH3 0x2633 DUP5 DUP5 PUSH3 0x3C21 JUMP JUMPDEST SWAP1 SLOAD PUSH1 0x40 MLOAD SWAP2 PUSH1 0x3 SHL SHR DUP2 MSTORE RETURN JUMPDEST POP CALLVALUE PUSH3 0x3B9 JUMPI PUSH1 0x20 DUP1 PUSH1 0x3 NOT CALLDATASIZE ADD SLT PUSH3 0x1BCD JUMPI PUSH3 0x2660 PUSH3 0x38D9 JUMP JUMPDEST PUSH1 0x1 PUSH1 0x1 PUSH1 0xA0 SHL SUB PUSH32 0x0 DUP2 AND PUSH3 0x2699 ADDRESS DUP3 EQ ISZERO PUSH3 0x3D78 JUMP JUMPDEST PUSH3 0x26B9 PUSH1 0x0 DUP1 MLOAD PUSH1 0x20 PUSH3 0x513B DUP4 CODECOPY DUP2 MLOAD SWAP2 MSTORE SWAP2 DUP4 DUP4 SLOAD AND EQ PUSH3 0x3DDA JUMP JUMPDEST PUSH3 0x26C3 PUSH3 0x3CD6 JUMP JUMPDEST PUSH1 0x40 MLOAD SWAP1 DUP5 DUP3 ADD SWAP3 DUP3 DUP5 LT PUSH1 0x1 PUSH1 0x1 PUSH1 0x40 SHL SUB DUP6 GT OR PUSH3 0x98E JUMPI DUP4 PUSH1 0x40 MSTORE DUP7 DUP4 MSTORE PUSH1 0xFF PUSH32 0x4910FDFA16FED3260ED0E7147F7CC6DA11A60208B5B9406D12A635614FFD9143 SLOAD AND PUSH1 0x0 EQ PUSH3 0x2722 JUMPI POP POP POP POP PUSH3 0x49D SWAP2 POP PUSH3 0x3E3C JUMP JUMPDEST DUP5 SWAP3 SWAP4 SWAP5 AND SWAP1 PUSH1 0x40 MLOAD PUSH4 0x52D1902D PUSH1 0xE0 SHL DUP2 MSTORE DUP7 DUP2 PUSH1 0x4 DUP2 DUP7 GAS STATICCALL PUSH1 0x0 SWAP2 DUP2 PUSH3 0x28D0 JUMPI JUMPDEST POP PUSH3 0x27A9 JUMPI PUSH1 0x40 MLOAD PUSH3 0x461BCD PUSH1 0xE5 SHL DUP2 MSTORE PUSH1 0x4 DUP2 ADD DUP9 SWAP1 MSTORE PUSH1 0x2E PUSH1 0x24 DUP3 ADD MSTORE PUSH32 0x45524331393637557067726164653A206E657720696D706C656D656E74617469 PUSH1 0x44 DUP3 ADD MSTORE PUSH14 0x6F6E206973206E6F742055555053 PUSH1 0x90 SHL PUSH1 0x64 DUP3 ADD MSTORE PUSH1 0x84 SWAP1 REVERT JUMPDEST SWAP6 SWAP4 SWAP5 SWAP6 SUB PUSH3 0x2879 JUMPI PUSH3 0x27BE DUP3 PUSH3 0x3E3C JUMP JUMPDEST PUSH32 0xBC7CD75A20EE27FD9ADEBAB32041F755214DBC6BFFA90CC0225B39DA2E5C2D3B PUSH1 0x0 DUP1 LOG2 DUP3 MLOAD ISZERO DUP1 ISZERO SWAP1 PUSH3 0x2870 JUMPI JUMPDEST PUSH3 0x27FC JUMPI JUMPDEST POP POP POP POP DUP1 RETURN JUMPDEST PUSH1 0x0 DUP1 PUSH3 0x2865 SWAP6 PUSH1 0x40 MLOAD SWAP6 PUSH3 0x2813 DUP8 PUSH3 0x3991 JUMP JUMPDEST PUSH1 0x27 DUP8 MSTORE PUSH32 0x416464726573733A206C6F772D6C6576656C2064656C65676174652063616C6C DUP7 DUP9 ADD MSTORE PUSH7 0x819985A5B1959 PUSH1 0xCA SHL PUSH1 0x40 DUP9 ADD MSTORE MLOAD SWAP1 DUP5 GAS DELEGATECALL SWAP1 RETURNDATASIZE ISZERO PUSH3 0x22E4 JUMPI RETURNDATASIZE PUSH3 0x22BA DUP2 PUSH3 0x3C5E JUMP JUMPDEST POP CODESIZE DUP1 DUP1 DUP1 PUSH3 0x27F5 JUMP JUMPDEST POP PUSH1 0x0 PUSH3 0x27EF JUMP JUMPDEST PUSH1 0x40 MLOAD PUSH3 0x461BCD PUSH1 0xE5 SHL DUP2 MSTORE PUSH1 0x4 DUP2 ADD DUP5 SWAP1 MSTORE PUSH1 0x29 PUSH1 0x24 DUP3 ADD MSTORE PUSH32 0x45524331393637557067726164653A20756E737570706F727465642070726F78 PUSH1 0x44 DUP3 ADD MSTORE PUSH9 0x1A58589B1955555251 PUSH1 0xBA SHL PUSH1 0x64 DUP3 ADD MSTORE PUSH1 0x84 SWAP1 REVERT JUMPDEST SWAP1 SWAP2 DUP9 DUP3 DUP2 RETURNDATASIZE DUP4 GT PUSH3 0x28FD JUMPI JUMPDEST PUSH3 0x28EA DUP2 DUP4 PUSH3 0x39AD JUMP JUMPDEST DUP2 ADD SUB SLT PUSH3 0x3B9 JUMPI POP MLOAD SWAP1 CODESIZE PUSH3 0x2747 JUMP JUMPDEST POP RETURNDATASIZE PUSH3 0x28DE JUMP JUMPDEST POP CALLVALUE PUSH3 0x3B9 JUMPI PUSH1 0x3 NOT SWAP1 PUSH1 0x60 CALLDATASIZE DUP4 ADD SLT PUSH3 0x3B9 JUMPI PUSH3 0x2925 PUSH3 0x38D9 JUMP JUMPDEST SWAP2 PUSH1 0x24 CALLDATALOAD SWAP2 PUSH1 0x44 CALLDATALOAD SWAP2 PUSH1 0x1 PUSH1 0x1 PUSH1 0x40 SHL SUB DUP4 GT PUSH3 0x1BCD JUMPI PUSH1 0x80 SWAP1 DUP4 CALLDATASIZE SUB ADD SLT PUSH3 0x3B9 JUMPI DUP3 DUP2 MSTORE PUSH2 0x136 PUSH1 0x20 MSTORE PUSH1 0x40 SWAP1 KECCAK256 PUSH1 0x1 DUP2 ADD SLOAD SWAP1 SWAP4 SWAP1 PUSH1 0x1 PUSH1 0x1 PUSH1 0xA0 SHL SUB AND ISZERO PUSH3 0x3A7 JUMPI PUSH1 0xFF PUSH1 0x9 PUSH3 0x2985 SWAP6 ADD SLOAD AND SWAP2 PUSH1 0x4 ADD SWAP1 PUSH3 0x42EF JUMP JUMPDEST PUSH1 0x20 PUSH1 0x40 MLOAD PUSH1 0x1 DUP2 MSTORE RETURN JUMPDEST POP CALLVALUE PUSH3 0x3B9 JUMPI DUP1 PUSH1 0x3 NOT CALLDATASIZE ADD SLT PUSH3 0x3B9 JUMPI PUSH1 0xA0 PUSH1 0x1 DUP1 DUP3 SHL SUB DUP1 PUSH2 0x12D SLOAD AND SWAP1 DUP1 PUSH2 0x12E SLOAD AND SWAP1 DUP1 PUSH2 0x12F SLOAD AND DUP2 PUSH2 0x130 SLOAD AND SWAP2 PUSH2 0x131 SLOAD AND SWAP3 PUSH1 0x40 MLOAD SWAP5 DUP6 MSTORE PUSH1 0x20 DUP6 ADD MSTORE PUSH1 0x40 DUP5 ADD MSTORE PUSH1 0x60 DUP4 ADD MSTORE PUSH1 0x80 DUP3 ADD MSTORE RETURN JUMPDEST POP CALLVALUE PUSH3 0x3B9 JUMPI PUSH3 0x29FA CALLDATASIZE PUSH3 0x3B7F JUMP JUMPDEST PUSH3 0x2A10 SWAP10 SWAP4 SWAP8 SWAP3 SWAP10 SWAP9 SWAP7 SWAP9 SWAP6 SWAP2 SWAP5 SWAP6 PUSH3 0x4017 JUMP JUMPDEST PUSH3 0x2A1A PUSH3 0x3FD2 JUMP JUMPDEST PUSH1 0xFF PUSH2 0x13B SLOAD AND DUP1 PUSH3 0x2EF6 JUMPI JUMPDEST DUP1 PUSH3 0x2EE0 JUMPI JUMPDEST PUSH3 0x14D4 JUMPI PUSH3 0x2A3F SWAP1 PUSH3 0x406E JUMP JUMPDEST PUSH1 0x4 PUSH1 0xFF DUP6 AND GT PUSH3 0x5DB JUMPI DUP5 ISZERO PUSH3 0x14C2 JUMPI PUSH3 0x2AE8 SWAP2 PUSH3 0x2AE2 PUSH1 0x23 PUSH2 0x135 SWAP11 DUP12 SLOAD SWAP12 PUSH3 0x2A6F DUP14 PUSH3 0x4489 JUMP JUMPDEST SWAP1 SSTORE PUSH3 0x2AB9 PUSH1 0x28 PUSH3 0x2A8A DUP13 DUP13 DUP10 DUP7 DUP11 PUSH3 0x10CE PUSH3 0x45EB JUMP JUMPDEST SWAP12 DUP7 PUSH1 0x40 MLOAD SWAP8 DUP9 SWAP3 PUSH1 0x20 DUP5 ADD CALLDATACOPY DUP2 ADD PUSH8 0x8141C9BDA9958DD PUSH1 0xC2 SHL PUSH1 0x20 DUP3 ADD MSTORE SUB PUSH1 0x8 DUP2 ADD DUP8 MSTORE ADD DUP6 PUSH3 0x39AD JUMP JUMPDEST DUP5 PUSH1 0x40 MLOAD SWAP6 DUP7 SWAP3 PUSH1 0x20 DUP5 ADD CALLDATACOPY DUP2 ADD PUSH3 0x282925 PUSH1 0xE9 SHL PUSH1 0x20 DUP3 ADD MSTORE SUB PUSH1 0x3 DUP2 ADD DUP6 MSTORE ADD DUP4 PUSH3 0x39AD JUMP JUMPDEST PUSH3 0x4792 JUMP JUMPDEST SWAP5 PUSH1 0x1 PUSH1 0x1 PUSH1 0xA0 SHL SUB DUP6 AND EXTCODESIZE ISZERO PUSH3 0x1BCD JUMPI PUSH1 0x40 MLOAD PUSH4 0x40C10F19 PUSH1 0xE0 SHL DUP2 MSTORE CALLER PUSH1 0x4 DUP3 ADD MSTORE PUSH1 0x24 DUP2 ADD DUP6 SWAP1 MSTORE DUP3 DUP2 PUSH1 0x44 DUP2 DUP4 PUSH1 0x1 PUSH1 0x1 PUSH1 0xA0 SHL SUB DUP12 AND GAS CALL DUP1 ISZERO PUSH3 0x2ED5 JUMPI SWAP1 DUP4 SWAP2 PUSH3 0x2EBD JUMPI JUMPDEST POP POP PUSH3 0x2BA3 SWAP1 PUSH3 0x2B49 CALLER DUP8 PUSH3 0x48B1 JUMP JUMPDEST PUSH1 0x40 MLOAD SWAP9 PUSH3 0x2B58 DUP11 PUSH3 0x3944 JUMP JUMPDEST DUP9 DUP11 MSTORE CALLER PUSH1 0x20 DUP12 ADD MSTORE PUSH1 0x1 PUSH1 0x1 PUSH1 0xA0 SHL SUB DUP8 DUP2 AND PUSH1 0x40 DUP13 ADD MSTORE DUP9 AND PUSH1 0x60 DUP12 ADD MSTORE PUSH1 0x80 DUP11 ADD DUP5 SWAP1 MSTORE PUSH1 0xA0 DUP11 ADD DUP5 SWAP1 MSTORE PUSH1 0x2 PUSH1 0xC0 DUP12 ADD MSTORE TIMESTAMP PUSH1 0xE0 DUP12 ADD MSTORE PUSH1 0x1 PUSH2 0x100 DUP12 ADD MSTORE CALLDATASIZE SWAP2 PUSH3 0x3C7A JUMP JUMPDEST PUSH2 0x120 DUP9 ADD MSTORE PUSH1 0xFF DUP3 AND PUSH2 0x140 DUP9 ADD MSTORE DUP6 DUP2 MSTORE PUSH2 0x136 PUSH1 0x20 MSTORE PUSH1 0x40 DUP2 KECCAK256 SWAP7 DUP1 MLOAD DUP9 SSTORE PUSH1 0x1 DUP9 ADD PUSH1 0x1 DUP1 PUSH1 0xA0 SHL SUB PUSH1 0x20 DUP4 ADD MLOAD AND SWAP1 PUSH1 0x1 PUSH1 0x1 PUSH1 0x60 SHL SUB PUSH1 0xA0 SHL SWAP2 DUP3 DUP3 SLOAD AND OR SWAP1 SSTORE PUSH1 0x2 DUP10 ADD PUSH1 0x1 DUP1 PUSH1 0xA0 SHL SUB PUSH1 0x40 DUP5 ADD MLOAD AND DUP3 DUP3 SLOAD AND OR SWAP1 SSTORE PUSH1 0x3 DUP10 ADD PUSH1 0x1 DUP1 PUSH1 0xA0 SHL SUB PUSH1 0x60 DUP5 ADD MLOAD AND DUP3 DUP3 SLOAD AND OR SWAP1 SSTORE PUSH1 0x4 DUP10 ADD SWAP1 PUSH1 0x1 DUP1 PUSH1 0xA0 SHL SUB PUSH1 0x80 DUP5 ADD MLOAD AND SWAP1 DUP3 SLOAD AND OR SWAP1 SSTORE PUSH1 0x5 DUP9 ADD PUSH1 0x1 DUP1 PUSH1 0xA0 SHL SUB PUSH1 0xA0 DUP4 ADD MLOAD AND DUP2 SLOAD SWAP1 PUSH1 0xC0 DUP5 ADD MLOAD PUSH1 0x4 DUP2 LT ISZERO PUSH3 0x2EA9 JUMPI PUSH1 0xFF PUSH1 0xA0 SHL SWAP1 PUSH1 0xA0 SHL AND SWAP2 PUSH1 0x1 PUSH1 0x1 PUSH1 0x58 SHL SUB PUSH1 0xA8 SHL AND OR OR SWAP1 SSTORE PUSH1 0xE0 DUP2 ADD MLOAD PUSH1 0x6 DUP10 ADD SSTORE PUSH3 0x2C9C PUSH2 0x100 DUP3 ADD MLOAD ISZERO ISZERO PUSH1 0x7 DUP11 ADD SWAP1 PUSH1 0xFF DUP1 NOT DUP4 SLOAD AND SWAP2 ISZERO ISZERO AND OR SWAP1 SSTORE JUMP JUMPDEST PUSH2 0x120 DUP2 ADD MLOAD DUP1 MLOAD SWAP1 PUSH1 0x1 PUSH1 0x1 PUSH1 0x40 SHL SUB DUP3 GT PUSH3 0x2E95 JUMPI PUSH3 0x2CC3 PUSH1 0x8 DUP12 ADD SLOAD PUSH3 0x3907 JUMP JUMPDEST PUSH1 0x1F DUP2 GT PUSH3 0x2E47 JUMPI JUMPDEST POP PUSH1 0x20 SWAP1 PUSH1 0x1F DUP4 GT PUSH1 0x1 EQ PUSH3 0x2DDB JUMPI SWAP4 PUSH3 0x2D31 SWAP4 PUSH1 0xFF PUSH2 0x140 PUSH1 0x9 PUSH1 0x60 SWAP15 DUP8 DUP16 SWAP9 PUSH1 0x40 SWAP9 DUP7 SWAP14 SWAP13 DUP10 SWAP3 PUSH3 0x1384 JUMPI POP POP DUP2 PUSH1 0x1 SHL SWAP2 PUSH1 0x0 NOT SWAP1 PUSH1 0x3 SHL SHR NOT AND OR PUSH1 0x8 DUP3 ADD SSTORE ADD SWAP3 ADD MLOAD AND DUP8 NOT DUP3 SLOAD AND OR SWAP1 SSTORE CALLER DUP2 MSTORE PUSH2 0x137 PUSH1 0x20 MSTORE KECCAK256 PUSH3 0x458C JUMP JUMPDEST PUSH1 0x40 MLOAD SWAP3 PUSH1 0x1 DUP1 PUSH1 0xA0 SHL SUB DUP6 AND DUP5 MSTORE PUSH1 0x20 DUP5 ADD MSTORE PUSH1 0x2 PUSH1 0x40 DUP5 ADD MSTORE AND DUP6 DUP3 ADD MSTORE DUP4 PUSH32 0x3FF1E0761D6AC9F2F05EC5865EBE47AD1BC85F22900DEB91A5C3EF4DC4938A0D PUSH1 0x80 CALLER SWAP4 LOG3 PUSH1 0x40 DUP1 MLOAD PUSH1 0x1 PUSH1 0x1 PUSH1 0xA0 SHL SUB DUP5 AND DUP2 MSTORE PUSH1 0x2 PUSH1 0x20 DUP3 ADD MSTORE CALLER SWAP2 DUP6 SWAP2 PUSH32 0x1A1586C4C8DC32A7041328AE1935D2559560E3ACA49936375553A13447D318BA SWAP2 SWAP1 LOG3 PUSH1 0x1 PUSH1 0xFB SSTORE PUSH1 0x40 DUP1 MLOAD SWAP4 DUP5 MSTORE PUSH1 0x1 PUSH1 0x1 PUSH1 0xA0 SHL SUB SWAP2 DUP3 AND PUSH1 0x20 DUP6 ADD MSTORE SWAP2 AND SWAP1 DUP3 ADD MSTORE RETURN JUMPDEST SWAP1 PUSH1 0x8 DUP12 ADD DUP6 MSTORE PUSH1 0x20 DUP6 KECCAK256 SWAP2 DUP6 JUMPDEST PUSH1 0x1F NOT DUP6 AND DUP2 LT PUSH3 0x2E2E JUMPI POP SWAP4 PUSH1 0xFF PUSH2 0x140 PUSH1 0x9 PUSH1 0x60 SWAP15 PUSH1 0x1 DUP16 SWAP9 PUSH1 0x40 SWAP9 DUP7 SWAP14 SWAP13 SWAP9 PUSH3 0x2D31 SWAP13 DUP4 PUSH1 0x1F NOT DUP2 AND LT PUSH3 0x13E7 JUMPI POP POP POP DUP2 SHL ADD PUSH1 0x8 DUP3 ADD SSTORE PUSH3 0x1300 JUMP JUMPDEST SWAP2 SWAP3 PUSH1 0x20 PUSH1 0x1 DUP2 SWAP3 DUP7 DUP6 ADD MLOAD DUP2 SSTORE ADD SWAP5 ADD SWAP3 ADD PUSH3 0x2DE9 JUMP JUMPDEST PUSH1 0x8 DUP12 ADD DUP6 MSTORE PUSH1 0x20 DUP6 KECCAK256 PUSH1 0x1F DUP5 ADD PUSH1 0x5 SHR DUP2 ADD SWAP2 PUSH1 0x20 DUP6 LT PUSH3 0x2E8A JUMPI JUMPDEST PUSH1 0x1F ADD PUSH1 0x5 SHR ADD SWAP1 JUMPDEST DUP2 DUP2 LT PUSH3 0x2E7D JUMPI POP PUSH3 0x2CCD JUMP JUMPDEST PUSH1 0x0 DUP2 SSTORE PUSH1 0x1 ADD PUSH3 0x2E6E JUMP JUMPDEST SWAP1 SWAP2 POP DUP2 SWAP1 PUSH3 0x2E65 JUMP JUMPDEST PUSH4 0x4E487B71 PUSH1 0xE0 SHL DUP5 MSTORE PUSH1 0x41 PUSH1 0x4 MSTORE PUSH1 0x24 DUP5 REVERT JUMPDEST PUSH4 0x4E487B71 PUSH1 0xE0 SHL DUP7 MSTORE PUSH1 0x21 PUSH1 0x4 MSTORE PUSH1 0x24 DUP7 REVERT JUMPDEST PUSH3 0x2EC8 SWAP1 PUSH3 0x3961 JUMP JUMPDEST PUSH3 0x1BCD JUMPI DUP2 CODESIZE PUSH3 0x2B36 JUMP JUMPDEST PUSH1 0x40 MLOAD RETURNDATASIZE DUP6 DUP3 RETURNDATACOPY RETURNDATASIZE SWAP1 REVERT JUMPDEST POP PUSH1 0x97 SLOAD PUSH1 0x1 PUSH1 0x1 PUSH1 0xA0 SHL SUB AND CALLER EQ ISZERO PUSH3 0x2A2F JUMP JUMPDEST POP CALLER DUP5 MSTORE PUSH2 0x138 PUSH1 0x20 MSTORE PUSH1 0xFF PUSH1 0x40 DUP6 KECCAK256 SLOAD AND ISZERO PUSH3 0x2A28 JUMP JUMPDEST POP CALLVALUE PUSH3 0x3B9 JUMPI PUSH3 0x2F21 CALLDATASIZE PUSH3 0x3B7F JUMP JUMPDEST PUSH3 0x2F34 SWAP10 SWAP7 SWAP9 SWAP6 SWAP2 SWAP4 SWAP8 SWAP3 SWAP10 PUSH3 0x4017 JUMP JUMPDEST PUSH3 0x2F3E PUSH3 0x3FD2 JUMP JUMPDEST PUSH1 0xFF PUSH2 0x13B SLOAD AND DUP1 PUSH3 0x3419 JUMPI JUMPDEST DUP1 PUSH3 0x3403 JUMPI JUMPDEST PUSH3 0x14D4 JUMPI PUSH3 0x2F63 SWAP1 PUSH3 0x406E JUMP JUMPDEST PUSH1 0x4 PUSH1 0xFF DUP5 AND GT PUSH3 0x5DB JUMPI DUP4 ISZERO PUSH3 0x14C2 JUMPI PUSH2 0x130 SLOAD PUSH1 0x1 PUSH1 0x1 PUSH1 0xA0 SHL SUB AND ISZERO PUSH3 0x371 JUMPI PUSH3 0x2FF0 SWAP2 PUSH3 0x2AE2 PUSH1 0x23 PUSH2 0x135 SWAP11 DUP12 SLOAD SWAP12 PUSH3 0x2FA6 DUP14 PUSH3 0x4489 JUMP JUMPDEST SWAP1 SSTORE PUSH3 0x2AB9 PUSH1 0x28 PUSH3 0x2FC1 DUP12 DUP12 DUP10 DUP7 DUP11 PUSH3 0x10CE PUSH3 0x45EB JUMP JUMPDEST SWAP11 DUP7 PUSH1 0x40 MLOAD SWAP8 DUP9 SWAP3 PUSH1 0x20 DUP5 ADD CALLDATACOPY DUP2 ADD PUSH8 0x8141C9BDA9958DD PUSH1 0xC2 SHL PUSH1 0x20 DUP3 ADD MSTORE SUB PUSH1 0x8 DUP2 ADD DUP8 MSTORE ADD DUP6 PUSH3 0x39AD JUMP JUMPDEST SWAP4 PUSH3 0x2FFC DUP5 PUSH3 0x4801 JUMP JUMPDEST SWAP6 PUSH1 0x1 PUSH1 0x1 PUSH1 0xA0 SHL SUB DUP6 AND EXTCODESIZE ISZERO PUSH3 0x1BCD JUMPI PUSH1 0x40 MLOAD PUSH4 0x40C10F19 PUSH1 0xE0 SHL DUP2 MSTORE CALLER PUSH1 0x4 DUP3 ADD MSTORE PUSH1 0x24 DUP2 ADD DUP6 SWAP1 MSTORE DUP3 DUP2 PUSH1 0x44 DUP2 DUP4 PUSH1 0x1 PUSH1 0x1 PUSH1 0xA0 SHL SUB DUP12 AND GAS CALL DUP1 ISZERO PUSH3 0x2ED5 JUMPI PUSH3 0x33EA JUMPI JUMPDEST POP PUSH3 0x30B4 SWAP1 PUSH3 0x3059 CALLER DUP8 PUSH3 0x48B1 JUMP JUMPDEST PUSH1 0x40 MLOAD SWAP10 PUSH3 0x3068 DUP12 PUSH3 0x3944 JUMP JUMPDEST DUP10 DUP12 MSTORE CALLER PUSH1 0x20 DUP13 ADD MSTORE PUSH1 0x1 PUSH1 0x1 PUSH1 0xA0 SHL SUB DUP8 DUP2 AND PUSH1 0x40 DUP14 ADD MSTORE DUP9 DUP2 AND PUSH1 0x60 DUP14 ADD MSTORE DUP10 AND PUSH1 0x80 DUP13 ADD MSTORE PUSH1 0xA0 DUP12 ADD DUP5 SWAP1 MSTORE PUSH1 0x3 PUSH1 0xC0 DUP13 ADD MSTORE TIMESTAMP PUSH1 0xE0 DUP13 ADD MSTORE PUSH1 0x1 PUSH2 0x100 DUP13 ADD MSTORE CALLDATASIZE SWAP2 PUSH3 0x3C7A JUMP JUMPDEST PUSH2 0x120 DUP10 ADD MSTORE PUSH1 0xFF DUP3 AND PUSH2 0x140 DUP10 ADD MSTORE DUP7 DUP2 MSTORE PUSH2 0x136 PUSH1 0x20 MSTORE PUSH1 0x40 DUP2 KECCAK256 SWAP8 DUP1 MLOAD DUP10 SSTORE PUSH1 0x1 DUP10 ADD PUSH1 0x1 DUP1 PUSH1 0xA0 SHL SUB PUSH1 0x20 DUP4 ADD MLOAD AND SWAP1 PUSH1 0x1 PUSH1 0x1 PUSH1 0x60 SHL SUB PUSH1 0xA0 SHL SWAP2 DUP3 DUP3 SLOAD AND OR SWAP1 SSTORE PUSH1 0x2 DUP11 ADD PUSH1 0x1 DUP1 PUSH1 0xA0 SHL SUB PUSH1 0x40 DUP5 ADD MLOAD AND DUP3 DUP3 SLOAD AND OR SWAP1 SSTORE PUSH1 0x3 DUP11 ADD PUSH1 0x1 DUP1 PUSH1 0xA0 SHL SUB PUSH1 0x60 DUP5 ADD MLOAD AND DUP3 DUP3 SLOAD AND OR SWAP1 SSTORE PUSH1 0x4 DUP11 ADD SWAP1 PUSH1 0x1 DUP1 PUSH1 0xA0 SHL SUB PUSH1 0x80 DUP5 ADD MLOAD AND SWAP1 DUP3 SLOAD AND OR SWAP1 SSTORE PUSH1 0x5 DUP10 ADD PUSH1 0x1 DUP1 PUSH1 0xA0 SHL SUB PUSH1 0xA0 DUP4 ADD MLOAD AND DUP2 SLOAD SWAP1 PUSH1 0xC0 DUP5 ADD MLOAD PUSH1 0x4 DUP2 LT ISZERO PUSH3 0x2EA9 JUMPI PUSH1 0xFF PUSH1 0xA0 SHL SWAP1 PUSH1 0xA0 SHL AND SWAP2 PUSH1 0x1 PUSH1 0x1 PUSH1 0x58 SHL SUB PUSH1 0xA8 SHL AND OR OR SWAP1 SSTORE PUSH1 0xE0 DUP2 ADD MLOAD PUSH1 0x6 DUP11 ADD SSTORE PUSH3 0x31AD PUSH2 0x100 DUP3 ADD MLOAD ISZERO ISZERO PUSH1 0x7 DUP12 ADD SWAP1 PUSH1 0xFF DUP1 NOT DUP4 SLOAD AND SWAP2 ISZERO ISZERO AND OR SWAP1 SSTORE JUMP JUMPDEST PUSH2 0x120 DUP2 ADD MLOAD DUP1 MLOAD SWAP1 PUSH1 0x1 PUSH1 0x1 PUSH1 0x40 SHL SUB DUP3 GT PUSH3 0x2E95 JUMPI PUSH3 0x31D4 PUSH1 0x8 DUP13 ADD SLOAD PUSH3 0x3907 JUMP JUMPDEST PUSH1 0x1F DUP2 GT PUSH3 0x339C JUMPI JUMPDEST POP PUSH1 0x20 SWAP1 PUSH1 0x1F DUP4 GT PUSH1 0x1 EQ PUSH3 0x332F JUMPI SWAP4 PUSH3 0x3242 SWAP4 PUSH1 0xFF PUSH2 0x140 PUSH1 0x9 PUSH1 0x80 SWAP16 DUP16 SWAP8 DUP1 PUSH1 0x40 SWAP9 DUP7 SWAP14 SWAP13 DUP10 SWAP3 PUSH3 0x1384 JUMPI POP POP DUP2 PUSH1 0x1 SHL SWAP2 PUSH1 0x0 NOT SWAP1 PUSH1 0x3 SHL SHR NOT AND OR PUSH1 0x8 DUP3 ADD SSTORE ADD SWAP3 ADD MLOAD AND DUP8 NOT DUP3 SLOAD AND OR SWAP1 SSTORE CALLER DUP2 MSTORE PUSH2 0x137 PUSH1 0x20 MSTORE KECCAK256 PUSH3 0x458C JUMP JUMPDEST PUSH1 0x40 MLOAD SWAP3 PUSH1 0x1 DUP1 PUSH1 0xA0 SHL SUB DUP6 AND DUP5 MSTORE PUSH1 0x20 DUP5 ADD MSTORE PUSH1 0x3 PUSH1 0x40 DUP5 ADD MSTORE AND PUSH1 0x60 DUP3 ADD MSTORE DUP5 PUSH32 0x3FF1E0761D6AC9F2F05EC5865EBE47AD1BC85F22900DEB91A5C3EF4DC4938A0D DUP8 CALLER SWAP4 LOG3 PUSH1 0x40 DUP1 MLOAD PUSH1 0x1 PUSH1 0x1 PUSH1 0xA0 SHL SUB DUP5 AND DUP2 MSTORE PUSH1 0x3 PUSH1 0x20 DUP3 ADD MSTORE CALLER SWAP2 DUP7 SWAP2 PUSH32 0x1A1586C4C8DC32A7041328AE1935D2559560E3ACA49936375553A13447D318BA SWAP2 SWAP1 LOG3 PUSH1 0x40 MLOAD PUSH1 0x1 PUSH1 0x1 PUSH1 0xA0 SHL SUB DUP5 AND DUP2 MSTORE CALLER SWAP1 DUP6 SWAP1 PUSH32 0xE5C9C12CEBA4010C539736DE12D295843FB58A5127EDBF481306A98E1E30D560 SWAP1 PUSH1 0x20 SWAP1 LOG3 PUSH1 0x1 PUSH1 0xFB SSTORE PUSH1 0x40 DUP1 MLOAD SWAP5 DUP6 MSTORE PUSH1 0x1 PUSH1 0x1 PUSH1 0xA0 SHL SUB SWAP2 DUP3 AND PUSH1 0x20 DUP7 ADD MSTORE SWAP2 DUP2 AND SWAP2 DUP5 ADD SWAP2 SWAP1 SWAP2 MSTORE AND PUSH1 0x60 DUP3 ADD MSTORE RETURN JUMPDEST SWAP1 PUSH1 0x8 DUP13 ADD DUP6 MSTORE PUSH1 0x20 DUP6 KECCAK256 SWAP2 DUP6 JUMPDEST PUSH1 0x1F NOT DUP6 AND DUP2 LT PUSH3 0x3383 JUMPI POP SWAP4 PUSH1 0xFF PUSH2 0x140 PUSH1 0x9 PUSH1 0x80 SWAP16 DUP16 SWAP8 DUP1 PUSH1 0x40 SWAP9 DUP7 SWAP14 SWAP13 SWAP9 PUSH3 0x3242 SWAP13 PUSH1 0x1 SWAP5 PUSH1 0x1F NOT DUP2 AND LT PUSH3 0x13E7 JUMPI POP POP POP DUP2 SHL ADD PUSH1 0x8 DUP3 ADD SSTORE PUSH3 0x1300 JUMP JUMPDEST SWAP2 SWAP3 PUSH1 0x20 PUSH1 0x1 DUP2 SWAP3 DUP7 DUP6 ADD MLOAD DUP2 SSTORE ADD SWAP5 ADD SWAP3 ADD PUSH3 0x333D JUMP JUMPDEST PUSH1 0x8 DUP13 ADD DUP6 MSTORE PUSH1 0x20 DUP6 KECCAK256 PUSH1 0x1F DUP5 ADD PUSH1 0x5 SHR DUP2 ADD SWAP2 PUSH1 0x20 DUP6 LT PUSH3 0x33DF JUMPI JUMPDEST PUSH1 0x1F ADD PUSH1 0x5 SHR ADD SWAP1 JUMPDEST DUP2 DUP2 LT PUSH3 0x33D2 JUMPI POP PUSH3 0x31DE JUMP JUMPDEST PUSH1 0x0 DUP2 SSTORE PUSH1 0x1 ADD PUSH3 0x33C3 JUMP JUMPDEST SWAP1 SWAP2 POP DUP2 SWAP1 PUSH3 0x33BA JUMP JUMPDEST SWAP2 PUSH3 0x33FB PUSH3 0x30B4 SWAP3 SWAP4 PUSH3 0x3961 JUMP JUMPDEST SWAP2 SWAP1 PUSH3 0x3047 JUMP JUMPDEST POP PUSH1 0x97 SLOAD PUSH1 0x1 PUSH1 0x1 PUSH1 0xA0 SHL SUB AND CALLER EQ ISZERO PUSH3 0x2F53 JUMP JUMPDEST POP CALLER DUP8 MSTORE PUSH2 0x138 PUSH1 0x20 MSTORE PUSH1 0xFF PUSH1 0x40 DUP9 KECCAK256 SLOAD AND ISZERO PUSH3 0x2F4C JUMP JUMPDEST POP CALLVALUE PUSH3 0x3B9 JUMPI PUSH1 0x20 CALLDATASIZE PUSH1 0x3 NOT ADD SLT PUSH3 0x3B9 JUMPI DUP1 PUSH2 0x140 PUSH1 0x40 MLOAD PUSH3 0x3458 DUP2 PUSH3 0x3944 JUMP JUMPDEST DUP3 DUP2 MSTORE DUP3 PUSH1 0x20 DUP3 ADD MSTORE DUP3 PUSH1 0x40 DUP3 ADD MSTORE DUP3 PUSH1 0x60 DUP3 ADD MSTORE DUP3 PUSH1 0x80 DUP3 ADD MSTORE DUP3 PUSH1 0xA0 DUP3 ADD MSTORE DUP3 PUSH1 0xC0 DUP3 ADD MSTORE DUP3 PUSH1 0xE0 DUP3 ADD MSTORE DUP3 PUSH2 0x100 DUP3 ADD MSTORE PUSH1 0x60 PUSH2 0x120 DUP3 ADD MSTORE ADD MSTORE PUSH1 0x4 CALLDATALOAD DUP2 MSTORE PUSH2 0x136 PUSH1 0x20 MSTORE PUSH1 0x40 DUP2 KECCAK256 PUSH1 0x40 MLOAD SWAP2 PUSH3 0x34B4 DUP4 PUSH3 0x3944 JUMP JUMPDEST DUP2 SLOAD DUP4 MSTORE PUSH1 0x1 DUP3 ADD SLOAD PUSH1 0x1 PUSH1 0x1 PUSH1 0xA0 SHL SUB SWAP1 DUP2 AND PUSH1 0x20 DUP6 ADD MSTORE PUSH1 0x2 DUP4 ADD SLOAD DUP2 AND PUSH1 0x40 DUP6 ADD MSTORE PUSH1 0x3 DUP4 ADD SLOAD DUP2 AND PUSH1 0x60 DUP6 ADD MSTORE PUSH1 0x4 DUP1 DUP5 ADD SLOAD DUP3 AND PUSH1 0x80 DUP7 ADD MSTORE PUSH1 0x5 DUP5 ADD SLOAD SWAP2 DUP3 AND PUSH1 0xA0 DUP1 DUP8 ADD SWAP2 SWAP1 SWAP2 MSTORE SWAP2 SWAP1 SWAP2 SHR PUSH1 0xFF AND SWAP2 SWAP1 DUP3 LT ISZERO PUSH3 0x3611 JUMPI POP PUSH1 0xFF SWAP2 PUSH1 0x9 SWAP2 PUSH1 0xC0 DUP6 ADD MSTORE PUSH1 0x6 DUP2 ADD SLOAD PUSH1 0xE0 DUP6 ADD MSTORE DUP3 PUSH1 0x7 DUP3 ADD SLOAD AND ISZERO ISZERO PUSH2 0x100 DUP6 ADD MSTORE PUSH3 0x3547 PUSH1 0x8 DUP3 ADD PUSH3 0x39CF JUMP JUMPDEST PUSH2 0x120 DUP6 ADD MSTORE ADD SLOAD AND PUSH2 0x140 DUP3 ADD MSTORE PUSH1 0x40 DUP1 MLOAD PUSH1 0x20 DUP1 DUP3 MSTORE DUP4 MLOAD DUP2 DUP4 ADD MSTORE DUP4 ADD MLOAD PUSH1 0x1 PUSH1 0x1 PUSH1 0xA0 SHL SUB SWAP1 DUP2 AND DUP3 DUP5 ADD MSTORE SWAP2 DUP4 ADD MLOAD DUP3 AND PUSH1 0x60 DUP1 DUP4 ADD SWAP2 SWAP1 SWAP2 MSTORE DUP4 ADD MLOAD DUP3 AND PUSH1 0x80 DUP1 DUP4 ADD SWAP2 SWAP1 SWAP2 MSTORE DUP4 ADD MLOAD DUP3 AND PUSH1 0xA0 DUP1 DUP4 ADD SWAP2 SWAP1 SWAP2 MSTORE DUP4 ADD MLOAD SWAP1 SWAP2 AND PUSH1 0xC0 DUP1 DUP4 ADD SWAP2 SWAP1 SWAP2 MSTORE DUP3 ADD MLOAD SWAP1 SWAP2 DUP3 SWAP2 PUSH3 0x35C8 SWAP1 PUSH1 0xE0 DUP5 ADD SWAP1 PUSH3 0x3A81 JUMP JUMPDEST PUSH1 0xE0 DUP2 ADD MLOAD PUSH2 0x100 DUP4 ADD MSTORE PUSH2 0x100 DUP2 ADD MLOAD ISZERO ISZERO PUSH2 0x120 DUP4 ADD MSTORE PUSH2 0x120 DUP2 ADD MLOAD PUSH1 0xFF PUSH2 0x140 PUSH3 0x3605 PUSH2 0x160 SWAP4 DUP5 DUP4 DUP9 ADD MSTORE PUSH2 0x180 DUP8 ADD SWAP1 PUSH3 0x3AA5 JUMP JUMPDEST SWAP4 ADD MLOAD AND SWAP1 DUP4 ADD MSTORE SUB SWAP1 RETURN JUMPDEST PUSH4 0x4E487B71 PUSH1 0xE0 SHL DUP2 MSTORE PUSH1 0x21 PUSH1 0x4 MSTORE PUSH1 0x24 SWAP1 REVERT JUMPDEST POP CALLVALUE PUSH3 0x3B9 JUMPI PUSH1 0x20 CALLDATASIZE PUSH1 0x3 NOT ADD SLT PUSH3 0x3B9 JUMPI PUSH1 0x4 CALLDATALOAD SWAP1 PUSH2 0x13A SLOAD DUP3 LT ISZERO PUSH3 0x3B9 JUMPI PUSH1 0x20 PUSH2 0xFFFF PUSH3 0x3659 DUP5 PUSH3 0x3AE7 JUMP JUMPDEST SWAP2 SWAP1 SLOAD PUSH1 0x40 MLOAD SWAP3 PUSH1 0x3 SHL SHR AND DUP2 MSTORE RETURN JUMPDEST POP CALLVALUE PUSH3 0x3B9 JUMPI DUP1 PUSH1 0x3 NOT CALLDATASIZE ADD SLT PUSH3 0x3B9 JUMPI PUSH1 0x20 PUSH1 0xFF PUSH2 0x13B SLOAD PUSH1 0x8 SHR AND PUSH1 0x40 MLOAD SWAP1 ISZERO ISZERO DUP2 MSTORE RETURN JUMPDEST POP CALLVALUE PUSH3 0x3B9 JUMPI PUSH1 0x20 CALLDATASIZE PUSH1 0x3 NOT ADD SLT PUSH3 0x3B9 JUMPI PUSH3 0x36B0 PUSH3 0x38D9 JUMP JUMPDEST PUSH3 0x36BA PUSH3 0x3CD6 JUMP JUMPDEST PUSH1 0x1 PUSH1 0x1 PUSH1 0xA0 SHL SUB AND DUP1 ISZERO PUSH3 0x371 JUMPI PUSH2 0x133 DUP1 SLOAD PUSH1 0x1 PUSH1 0x1 PUSH1 0xA0 SHL SUB NOT AND SWAP1 SWAP2 OR SWAP1 SSTORE DUP1 RETURN JUMPDEST POP CALLVALUE PUSH3 0x3B9 JUMPI PUSH1 0x20 CALLDATASIZE PUSH1 0x3 NOT ADD SLT PUSH3 0x3B9 JUMPI PUSH1 0x4 CALLDATALOAD PUSH3 0x3702 PUSH3 0x3CD6 JUMP JUMPDEST PUSH2 0x3E8 DUP2 GT PUSH3 0x3713 JUMPI PUSH2 0x134 SSTORE DUP1 RETURN JUMPDEST PUSH1 0x40 MLOAD PUSH3 0x461BCD PUSH1 0xE5 SHL DUP2 MSTORE PUSH1 0x20 PUSH1 0x4 DUP3 ADD MSTORE PUSH1 0x7 PUSH1 0x24 DUP3 ADD MSTORE PUSH7 0x4D617820313025 PUSH1 0xC8 SHL PUSH1 0x44 DUP3 ADD MSTORE PUSH1 0x64 SWAP1 REVERT JUMPDEST POP CALLVALUE PUSH3 0x3B9 JUMPI PUSH1 0x20 CALLDATASIZE PUSH1 0x3 NOT ADD SLT PUSH3 0x3B9 JUMPI PUSH1 0x40 SWAP1 PUSH1 0x4 CALLDATALOAD DUP2 MSTORE PUSH2 0x136 PUSH1 0x20 MSTORE KECCAK256 DUP1 SLOAD PUSH1 0x1 DUP1 PUSH1 0xA0 SHL SUB PUSH3 0x3816 DUP2 PUSH1 0x1 DUP6 ADD SLOAD AND SWAP4 DUP3 PUSH1 0x2 DUP3 ADD SLOAD AND SWAP3 DUP1 PUSH1 0x3 DUP4 ADD SLOAD AND SWAP1 PUSH3 0x37F6 DUP2 PUSH1 0x4 DUP6 ADD SLOAD AND SWAP2 PUSH1 0x5 DUP6 ADD SLOAD SWAP1 PUSH1 0x6 DUP7 ADD SLOAD SWAP4 PUSH1 0xFF PUSH1 0x7 DUP9 ADD SLOAD AND SWAP6 PUSH1 0xFF PUSH1 0x9 PUSH3 0x37BD PUSH1 0x8 DUP12 ADD PUSH3 0x39CF JUMP JUMPDEST SWAP10 ADD SLOAD AND SWAP10 PUSH1 0x40 MLOAD SWAP13 DUP14 SWAP13 DUP14 MSTORE PUSH1 0x20 DUP14 ADD MSTORE PUSH1 0x40 DUP13 ADD MSTORE PUSH1 0x60 DUP12 ADD MSTORE PUSH1 0x80 DUP11 ADD MSTORE DUP2 AND PUSH1 0xA0 DUP10 ADD MSTORE PUSH1 0xFF PUSH1 0xC0 DUP10 ADD SWAP2 PUSH1 0xA0 SHR AND PUSH3 0x3A81 JUMP JUMPDEST PUSH1 0xE0 DUP7 ADD MSTORE ISZERO ISZERO PUSH2 0x100 DUP6 ADD MSTORE PUSH2 0x160 DUP1 PUSH2 0x120 DUP7 ADD MSTORE DUP5 ADD SWAP1 PUSH3 0x3AA5 JUMP JUMPDEST SWAP1 PUSH2 0x140 DUP4 ADD MSTORE SUB SWAP1 RETURN JUMPDEST SWAP1 POP CALLVALUE PUSH3 0x1BCD JUMPI PUSH1 0x20 SWAP1 DUP2 PUSH1 0x3 NOT CALLDATASIZE ADD SLT PUSH3 0x14BE JUMPI SWAP2 PUSH1 0x1 PUSH1 0x1 PUSH1 0xA0 SHL SUB PUSH3 0x384B PUSH3 0x38D9 JUMP JUMPDEST AND DUP2 MSTORE PUSH2 0x137 DUP3 MSTORE PUSH1 0x40 DUP2 KECCAK256 SWAP1 DUP2 SLOAD DUP1 DUP6 MSTORE DUP4 DUP6 ADD SWAP1 DUP2 SWAP4 DUP4 MSTORE DUP5 DUP4 KECCAK256 SWAP1 DUP4 JUMPDEST DUP2 DUP2 LT PUSH3 0x38C4 JUMPI POP POP POP DUP5 PUSH3 0x3884 SWAP2 SUB DUP6 PUSH3 0x39AD JUMP JUMPDEST PUSH1 0x40 MLOAD SWAP4 DUP4 DUP6 SWAP5 DUP6 ADD SWAP2 DUP2 DUP7 MSTORE MLOAD DUP1 SWAP3 MSTORE PUSH1 0x40 DUP6 ADD SWAP4 SWAP3 JUMPDEST DUP3 DUP2 LT PUSH3 0x38AC JUMPI POP POP POP POP SUB SWAP1 RETURN JUMPDEST DUP4 MLOAD DUP6 MSTORE DUP7 SWAP6 POP SWAP4 DUP2 ADD SWAP4 SWAP3 DUP2 ADD SWAP3 PUSH1 0x1 ADD PUSH3 0x389C JUMP JUMPDEST DUP3 SLOAD DUP5 MSTORE SWAP3 DUP7 ADD SWAP3 PUSH1 0x1 SWAP3 DUP4 ADD SWAP3 ADD PUSH3 0x386B JUMP JUMPDEST PUSH1 0x4 CALLDATALOAD SWAP1 PUSH1 0x1 PUSH1 0x1 PUSH1 0xA0 SHL SUB DUP3 AND DUP3 SUB PUSH3 0x455 JUMPI JUMP JUMPDEST PUSH1 0x24 CALLDATALOAD SWAP1 PUSH1 0x1 PUSH1 0x1 PUSH1 0xA0 SHL SUB DUP3 AND DUP3 SUB PUSH3 0x455 JUMPI JUMP JUMPDEST SWAP1 PUSH1 0x1 DUP3 DUP2 SHR SWAP3 AND DUP1 ISZERO PUSH3 0x3939 JUMPI JUMPDEST PUSH1 0x20 DUP4 LT EQ PUSH3 0x3923 JUMPI JUMP JUMPDEST PUSH4 0x4E487B71 PUSH1 0xE0 SHL PUSH1 0x0 MSTORE PUSH1 0x22 PUSH1 0x4 MSTORE PUSH1 0x24 PUSH1 0x0 REVERT JUMPDEST SWAP2 PUSH1 0x7F AND SWAP2 PUSH3 0x3917 JUMP JUMPDEST PUSH2 0x160 DUP2 ADD SWAP1 DUP2 LT PUSH1 0x1 PUSH1 0x1 PUSH1 0x40 SHL SUB DUP3 GT OR PUSH3 0x98E JUMPI PUSH1 0x40 MSTORE JUMP JUMPDEST PUSH1 0x1 PUSH1 0x1 PUSH1 0x40 SHL SUB DUP2 GT PUSH3 0x98E JUMPI PUSH1 0x40 MSTORE JUMP JUMPDEST PUSH1 0xA0 DUP2 ADD SWAP1 DUP2 LT PUSH1 0x1 PUSH1 0x1 PUSH1 0x40 SHL SUB DUP3 GT OR PUSH3 0x98E JUMPI PUSH1 0x40 MSTORE JUMP JUMPDEST PUSH1 0x60 DUP2 ADD SWAP1 DUP2 LT PUSH1 0x1 PUSH1 0x1 PUSH1 0x40 SHL SUB DUP3 GT OR PUSH3 0x98E JUMPI PUSH1 0x40 MSTORE JUMP JUMPDEST SWAP1 PUSH1 0x1F DUP1 NOT SWAP2 ADD AND DUP2 ADD SWAP1 DUP2 LT PUSH1 0x1 PUSH1 0x1 PUSH1 0x40 SHL SUB DUP3 GT OR PUSH3 0x98E JUMPI PUSH1 0x40 MSTORE JUMP JUMPDEST SWAP1 PUSH1 0x40 MLOAD SWAP2 DUP3 PUSH1 0x0 DUP3 SLOAD SWAP3 PUSH3 0x39E5 DUP5 PUSH3 0x3907 JUMP JUMPDEST SWAP1 DUP2 DUP5 MSTORE PUSH1 0x1 SWAP5 DUP6 DUP2 AND SWAP1 DUP2 PUSH1 0x0 EQ PUSH3 0x3A5C JUMPI POP PUSH1 0x1 EQ PUSH3 0x3A15 JUMPI JUMPDEST POP POP PUSH3 0x3A13 SWAP3 POP SUB DUP4 PUSH3 0x39AD JUMP JUMPDEST JUMP JUMPDEST SWAP1 SWAP4 SWAP2 POP PUSH1 0x0 MSTORE PUSH1 0x20 SWAP1 DUP2 PUSH1 0x0 KECCAK256 SWAP4 PUSH1 0x0 SWAP2 JUMPDEST DUP2 DUP4 LT PUSH3 0x3A43 JUMPI POP POP PUSH3 0x3A13 SWAP4 POP DUP3 ADD ADD CODESIZE DUP1 PUSH3 0x3A03 JUMP JUMPDEST DUP6 SLOAD DUP9 DUP5 ADD DUP6 ADD MSTORE SWAP5 DUP6 ADD SWAP5 DUP8 SWAP5 POP SWAP2 DUP4 ADD SWAP2 PUSH3 0x3A28 JUMP JUMPDEST SWAP2 POP POP PUSH3 0x3A13 SWAP5 POP PUSH1 0x20 SWAP3 POP PUSH1 0xFF NOT AND DUP3 DUP5 ADD MSTORE ISZERO ISZERO PUSH1 0x5 SHL DUP3 ADD ADD CODESIZE DUP1 PUSH3 0x3A03 JUMP JUMPDEST SWAP1 PUSH1 0x4 DUP3 LT ISZERO PUSH3 0x3A8F JUMPI MSTORE JUMP JUMPDEST PUSH4 0x4E487B71 PUSH1 0xE0 SHL PUSH1 0x0 MSTORE PUSH1 0x21 PUSH1 0x4 MSTORE PUSH1 0x24 PUSH1 0x0 REVERT JUMPDEST SWAP2 SWAP1 DUP3 MLOAD SWAP3 DUP4 DUP3 MSTORE PUSH1 0x0 JUMPDEST DUP5 DUP2 LT PUSH3 0x3AD2 JUMPI POP POP DUP3 PUSH1 0x0 PUSH1 0x20 DUP1 SWAP5 SWAP6 DUP5 ADD ADD MSTORE PUSH1 0x1F DUP1 NOT SWAP2 ADD AND ADD ADD SWAP1 JUMP JUMPDEST PUSH1 0x20 DUP2 DUP4 ADD DUP2 ADD MLOAD DUP5 DUP4 ADD DUP3 ADD MSTORE ADD PUSH3 0x3AB0 JUMP JUMPDEST SWAP1 PUSH2 0x13A DUP1 SLOAD DUP4 LT ISZERO PUSH3 0x3B28 JUMPI PUSH1 0x0 MSTORE PUSH1 0x1E DUP3 PUSH1 0x4 SHR PUSH32 0x1CC3277F886BC7650038E458160D07E0113C6DBE808DE6ADA3226131DC580251 ADD SWAP3 PUSH1 0x1 SHL AND SWAP1 JUMP JUMPDEST PUSH4 0x4E487B71 PUSH1 0xE0 SHL PUSH1 0x0 MSTORE PUSH1 0x32 PUSH1 0x4 MSTORE PUSH1 0x24 PUSH1 0x0 REVERT JUMPDEST SWAP2 DUP2 PUSH1 0x1F DUP5 ADD SLT ISZERO PUSH3 0x455 JUMPI DUP3 CALLDATALOAD SWAP2 PUSH1 0x1 PUSH1 0x1 PUSH1 0x40 SHL SUB DUP4 GT PUSH3 0x455 JUMPI PUSH1 0x20 DUP4 DUP2 DUP7 ADD SWAP6 ADD ADD GT PUSH3 0x455 JUMPI JUMP JUMPDEST PUSH1 0x24 CALLDATALOAD SWAP1 PUSH1 0xFF DUP3 AND DUP3 SUB PUSH3 0x455 JUMPI JUMP JUMPDEST PUSH1 0x3 NOT SWAP1 PUSH1 0xC0 DUP2 DUP4 ADD SLT PUSH3 0x455 JUMPI PUSH1 0x1 PUSH1 0x1 PUSH1 0x40 SHL SUB SWAP2 PUSH1 0x4 CALLDATALOAD DUP4 DUP2 GT PUSH3 0x455 JUMPI DUP3 PUSH3 0x3BB1 SWAP2 PUSH1 0x4 ADD PUSH3 0x3B3E JUMP JUMPDEST SWAP5 SWAP1 SWAP5 SWAP4 PUSH1 0x24 CALLDATALOAD DUP2 DUP2 GT PUSH3 0x455 JUMPI DUP5 PUSH3 0x3BCF SWAP2 PUSH1 0x4 ADD PUSH3 0x3B3E JUMP JUMPDEST SWAP5 SWAP1 SWAP5 SWAP4 PUSH1 0x44 CALLDATALOAD SWAP4 PUSH1 0x64 CALLDATALOAD DUP5 DUP2 GT PUSH3 0x455 JUMPI DUP4 PUSH3 0x3BF1 SWAP2 PUSH1 0x4 ADD PUSH3 0x3B3E JUMP JUMPDEST SWAP5 SWAP1 SWAP5 SWAP4 PUSH1 0x84 CALLDATALOAD PUSH1 0xFF DUP2 AND DUP2 SUB PUSH3 0x455 JUMPI SWAP4 PUSH1 0xA4 CALLDATALOAD SWAP3 DUP4 GT PUSH3 0x455 JUMPI DUP3 PUSH1 0x80 SWAP3 SUB ADD SLT PUSH3 0x455 JUMPI PUSH1 0x4 ADD SWAP1 JUMP JUMPDEST DUP1 SLOAD DUP3 LT ISZERO PUSH3 0x3B28 JUMPI PUSH1 0x0 MSTORE PUSH1 0x20 PUSH1 0x0 KECCAK256 ADD SWAP1 PUSH1 0x0 SWAP1 JUMP JUMPDEST PUSH1 0x24 CALLDATALOAD SWAP1 PUSH2 0xFFFF DUP3 AND DUP3 SUB PUSH3 0x455 JUMPI JUMP JUMPDEST PUSH1 0x4 CALLDATALOAD SWAP1 PUSH2 0xFFFF DUP3 AND DUP3 SUB PUSH3 0x455 JUMPI JUMP JUMPDEST PUSH1 0x1 PUSH1 0x1 PUSH1 0x40 SHL SUB DUP2 GT PUSH3 0x98E JUMPI PUSH1 0x1F ADD PUSH1 0x1F NOT AND PUSH1 0x20 ADD SWAP1 JUMP JUMPDEST SWAP3 SWAP2 SWAP3 PUSH3 0x3C88 DUP3 PUSH3 0x3C5E JUMP JUMPDEST SWAP2 PUSH3 0x3C98 PUSH1 0x40 MLOAD SWAP4 DUP5 PUSH3 0x39AD JUMP JUMPDEST DUP3 SWAP5 DUP2 DUP5 MSTORE DUP2 DUP4 ADD GT PUSH3 0x455 JUMPI DUP3 DUP2 PUSH1 0x20 SWAP4 DUP5 PUSH1 0x0 SWAP7 ADD CALLDATACOPY ADD ADD MSTORE JUMP JUMPDEST PUSH1 0x44 CALLDATALOAD SWAP1 DUP2 ISZERO ISZERO DUP3 SUB PUSH3 0x455 JUMPI JUMP JUMPDEST PUSH1 0x4 CALLDATALOAD SWAP1 DUP2 ISZERO ISZERO DUP3 SUB PUSH3 0x455 JUMPI JUMP JUMPDEST PUSH1 0x97 SLOAD PUSH1 0x1 PUSH1 0x1 PUSH1 0xA0 SHL SUB AND CALLER SUB PUSH3 0x3CEB JUMPI JUMP JUMPDEST PUSH1 0x64 PUSH1 0x40 MLOAD PUSH3 0x461BCD PUSH1 0xE5 SHL DUP2 MSTORE PUSH1 0x20 PUSH1 0x4 DUP3 ADD MSTORE PUSH1 0x20 PUSH1 0x24 DUP3 ADD MSTORE PUSH32 0x4F776E61626C653A2063616C6C6572206973206E6F7420746865206F776E6572 PUSH1 0x44 DUP3 ADD MSTORE REVERT JUMPDEST PUSH1 0x97 DUP1 SLOAD PUSH1 0x1 PUSH1 0x1 PUSH1 0xA0 SHL SUB SWAP3 DUP4 AND PUSH1 0x1 PUSH1 0x1 PUSH1 0xA0 SHL SUB NOT DUP3 AND DUP2 OR SWAP1 SWAP3 SSTORE SWAP1 SWAP2 AND PUSH32 0x8BE0079C531659141344CD1FD0A4F28419497F9722A3DAAFE3B4186F6B6457E0 PUSH1 0x0 DUP1 LOG3 JUMP JUMPDEST ISZERO PUSH3 0x3D80 JUMPI JUMP JUMPDEST PUSH1 0x40 MLOAD PUSH3 0x461BCD PUSH1 0xE5 SHL DUP2 MSTORE PUSH1 0x20 PUSH1 0x4 DUP3 ADD MSTORE PUSH1 0x2C PUSH1 0x24 DUP3 ADD MSTORE PUSH32 0x46756E6374696F6E206D7573742062652063616C6C6564207468726F75676820 PUSH1 0x44 DUP3 ADD MSTORE PUSH12 0x19195B1959D85D1958D85B1B PUSH1 0xA2 SHL PUSH1 0x64 DUP3 ADD MSTORE PUSH1 0x84 SWAP1 REVERT JUMPDEST ISZERO PUSH3 0x3DE2 JUMPI JUMP JUMPDEST PUSH1 0x40 MLOAD PUSH3 0x461BCD PUSH1 0xE5 SHL DUP2 MSTORE PUSH1 0x20 PUSH1 0x4 DUP3 ADD MSTORE PUSH1 0x2C PUSH1 0x24 DUP3 ADD MSTORE PUSH32 0x46756E6374696F6E206D7573742062652063616C6C6564207468726F75676820 PUSH1 0x44 DUP3 ADD MSTORE PUSH12 0x6163746976652070726F7879 PUSH1 0xA0 SHL PUSH1 0x64 DUP3 ADD MSTORE PUSH1 0x84 SWAP1 REVERT JUMPDEST DUP1 EXTCODESIZE ISZERO PUSH3 0x3E73 JUMPI PUSH1 0x0 DUP1 MLOAD PUSH1 0x20 PUSH3 0x513B DUP4 CODECOPY DUP2 MLOAD SWAP2 MSTORE DUP1 SLOAD PUSH1 0x1 PUSH1 0x1 PUSH1 0xA0 SHL SUB NOT AND PUSH1 0x1 PUSH1 0x1 PUSH1 0xA0 SHL SUB SWAP1 SWAP3 AND SWAP2 SWAP1 SWAP2 OR SWAP1 SSTORE JUMP JUMPDEST PUSH1 0x40 MLOAD PUSH3 0x461BCD PUSH1 0xE5 SHL DUP2 MSTORE PUSH1 0x20 PUSH1 0x4 DUP3 ADD MSTORE PUSH1 0x2D PUSH1 0x24 DUP3 ADD MSTORE PUSH32 0x455243313936373A206E657720696D706C656D656E746174696F6E206973206E PUSH1 0x44 DUP3 ADD MSTORE PUSH13 0x1BDD08184818DBDB9D1C9858DD PUSH1 0x9A SHL PUSH1 0x64 DUP3 ADD MSTORE PUSH1 0x84 SWAP1 REVERT JUMPDEST SWAP2 SWAP3 SWAP1 ISZERO PUSH3 0x3F33 JUMPI POP DUP2 MLOAD ISZERO PUSH3 0x3EE4 JUMPI POP SWAP1 JUMP JUMPDEST EXTCODESIZE ISZERO PUSH3 0x3EEE JUMPI SWAP1 JUMP JUMPDEST PUSH1 0x40 MLOAD PUSH3 0x461BCD PUSH1 0xE5 SHL DUP2 MSTORE PUSH1 0x20 PUSH1 0x4 DUP3 ADD MSTORE PUSH1 0x1D PUSH1 0x24 DUP3 ADD MSTORE PUSH32 0x416464726573733A2063616C6C20746F206E6F6E2D636F6E7472616374000000 PUSH1 0x44 DUP3 ADD MSTORE PUSH1 0x64 SWAP1 REVERT JUMPDEST DUP3 MLOAD SWAP1 SWAP2 POP ISZERO PUSH3 0x3F47 JUMPI POP DUP1 MLOAD SWAP1 PUSH1 0x20 ADD REVERT JUMPDEST PUSH1 0x40 MLOAD PUSH3 0x461BCD PUSH1 0xE5 SHL DUP2 MSTORE PUSH1 0x20 PUSH1 0x4 DUP3 ADD MSTORE SWAP1 DUP2 SWAP1 PUSH3 0x3F6D SWAP1 PUSH1 0x24 DUP4 ADD SWAP1 PUSH3 0x3AA5 JUMP JUMPDEST SUB SWAP1 REVERT JUMPDEST ISZERO PUSH3 0x3F79 JUMPI JUMP JUMPDEST PUSH1 0x40 MLOAD PUSH3 0x461BCD PUSH1 0xE5 SHL DUP2 MSTORE PUSH1 0x20 PUSH1 0x4 DUP3 ADD MSTORE PUSH1 0x2B PUSH1 0x24 DUP3 ADD MSTORE PUSH32 0x496E697469616C697A61626C653A20636F6E7472616374206973206E6F742069 PUSH1 0x44 DUP3 ADD MSTORE PUSH11 0x6E697469616C697A696E67 PUSH1 0xA8 SHL PUSH1 0x64 DUP3 ADD MSTORE PUSH1 0x84 SWAP1 REVERT JUMPDEST PUSH1 0xFF PUSH1 0xC9 SLOAD AND PUSH3 0x3FDF JUMPI JUMP JUMPDEST PUSH1 0x40 MLOAD PUSH3 0x461BCD PUSH1 0xE5 SHL DUP2 MSTORE PUSH1 0x20 PUSH1 0x4 DUP3 ADD MSTORE PUSH1 0x10 PUSH1 0x24 DUP3 ADD MSTORE PUSH16 0x14185D5CD8589B194E881C185D5CD959 PUSH1 0x82 SHL PUSH1 0x44 DUP3 ADD MSTORE PUSH1 0x64 SWAP1 REVERT JUMPDEST PUSH1 0x2 PUSH1 0xFB SLOAD EQ PUSH3 0x4029 JUMPI PUSH1 0x2 PUSH1 0xFB SSTORE JUMP JUMPDEST PUSH1 0x40 MLOAD PUSH3 0x461BCD PUSH1 0xE5 SHL DUP2 MSTORE PUSH1 0x20 PUSH1 0x4 DUP3 ADD MSTORE PUSH1 0x1F PUSH1 0x24 DUP3 ADD MSTORE PUSH32 0x5265656E7472616E637947756172643A207265656E7472616E742063616C6C00 PUSH1 0x44 DUP3 ADD MSTORE PUSH1 0x64 SWAP1 REVERT JUMPDEST PUSH1 0x40 DUP2 ADD CALLDATALOAD ISZERO DUP1 PUSH3 0x40AB JUMPI JUMPDEST PUSH3 0x40A8 JUMPI PUSH2 0x13B SLOAD SWAP1 PUSH1 0xFF DUP3 PUSH1 0x8 SHR AND PUSH3 0x4095 JUMPI POP POP JUMP JUMPDEST PUSH1 0xFF PUSH3 0x3A13 SWAP3 PUSH1 0x10 SHR AND SWAP1 CALLER PUSH3 0x4100 JUMP JUMPDEST POP JUMP JUMPDEST POP PUSH1 0x97 SLOAD PUSH1 0x1 PUSH1 0x1 PUSH1 0xA0 SHL SUB AND CALLER EQ PUSH3 0x407B JUMP JUMPDEST CALLDATALOAD PUSH1 0xFF DUP2 AND DUP2 SUB PUSH3 0x455 JUMPI SWAP1 JUMP JUMPDEST CALLDATALOAD PUSH2 0xFFFF DUP2 AND DUP2 SUB PUSH3 0x455 JUMPI SWAP1 JUMP JUMPDEST SWAP1 DUP1 PUSH1 0x20 SWAP4 SWAP3 DUP2 DUP5 MSTORE DUP5 DUP5 ADD CALLDATACOPY PUSH1 0x0 DUP3 DUP3 ADD DUP5 ADD MSTORE PUSH1 0x1F ADD PUSH1 0x1F NOT AND ADD ADD SWAP1 JUMP JUMPDEST PUSH2 0x132 SLOAD SWAP2 SWAP3 SWAP1 SWAP2 PUSH1 0x1 PUSH1 0x1 PUSH1 0xA0 SHL SUB SWAP2 SWAP1 DUP3 AND SWAP1 DUP2 ISZERO PUSH3 0x42E8 JUMPI PUSH3 0x4127 DUP6 PUSH3 0x40C0 JUMP JUMPDEST SWAP5 PUSH1 0x20 DUP1 DUP3 ADD SWAP5 PUSH3 0x4139 DUP7 PUSH3 0x40CF JUMP JUMPDEST SWAP7 PUSH1 0x40 SWAP9 DUP10 DUP6 ADD CALLDATALOAD SWAP7 PUSH1 0x60 DUP7 ADD CALLDATALOAD PUSH1 0x1E NOT DUP8 CALLDATASIZE SUB ADD DUP2 SLT ISZERO PUSH3 0x455 JUMPI DUP7 ADD SWAP4 DUP5 CALLDATALOAD SWAP5 PUSH1 0x1 PUSH1 0x1 PUSH1 0x40 SHL SUB DUP7 GT PUSH3 0x455 JUMPI DUP7 ADD SWAP4 DUP6 CALLDATASIZE SUB DUP6 SGT PUSH3 0x455 JUMPI PUSH3 0x41C3 DUP8 SWAP6 PUSH1 0xFF SWAP8 DUP16 MLOAD SWAP9 DUP10 SWAP8 DUP9 SWAP7 DUP8 SWAP7 PUSH4 0x1DA96125 PUSH1 0xE1 SHL DUP9 MSTORE AND PUSH1 0x4 DUP8 ADD MSTORE AND PUSH1 0x24 DUP6 ADD MSTORE PUSH2 0xFFFF SWAP15 DUP16 AND PUSH1 0x44 DUP6 ADD MSTORE DUP13 PUSH1 0x64 DUP6 ADD MSTORE PUSH1 0xA0 PUSH1 0x84 DUP6 ADD MSTORE PUSH1 0xA4 DUP5 ADD SWAP2 PUSH3 0x40DF JUMP JUMPDEST SUB SWAP2 GAS STATICCALL SWAP2 DUP3 ISZERO PUSH3 0x42DD JUMPI PUSH1 0x0 SWAP3 PUSH3 0x42A0 JUMPI JUMPDEST POP POP ISZERO PUSH3 0x428F JUMPI PUSH3 0x41EB DUP2 PUSH3 0x40C0 JUMP JUMPDEST PUSH1 0xFF DUP1 DUP5 AND SWAP2 AND LT PUSH3 0x4255 JUMPI POP POP TIMESTAMP GT PUSH3 0x4244 JUMPI PUSH3 0x4216 PUSH3 0x4210 DUP3 PUSH3 0x40CF JUMP JUMPDEST PUSH3 0x44AF JUMP JUMPDEST PUSH3 0x4220 JUMPI POP POP POP JUMP JUMPDEST PUSH1 0x24 SWAP4 POP PUSH3 0x422F SWAP1 PUSH3 0x40CF JUMP JUMPDEST SWAP2 MLOAD PUSH4 0x8167B569 PUSH1 0xE0 SHL DUP2 MSTORE SWAP2 AND PUSH1 0x4 DUP3 ADD MSTORE REVERT JUMPDEST DUP3 MLOAD PUSH4 0x4973D8D5 PUSH1 0xE1 SHL DUP2 MSTORE PUSH1 0x4 SWAP1 REVERT JUMPDEST SWAP1 PUSH3 0x3F6D PUSH3 0x4266 DUP8 SWAP4 PUSH3 0x40C0 JUMP JUMPDEST SWAP3 MLOAD PUSH4 0x1B1064F PUSH1 0xE1 SHL DUP2 MSTORE PUSH1 0xFF SWAP3 DUP4 AND PUSH1 0x4 DUP3 ADD MSTORE SWAP2 SWAP1 SWAP3 AND PUSH1 0x24 DUP3 ADD MSTORE SWAP1 DUP2 SWAP1 PUSH1 0x44 DUP3 ADD SWAP1 JUMP JUMPDEST DUP6 MLOAD PUSH4 0x249D7771 PUSH1 0xE2 SHL DUP2 MSTORE PUSH1 0x4 SWAP1 REVERT JUMPDEST DUP2 DUP2 RETURNDATASIZE DUP4 GT PUSH3 0x42D5 JUMPI JUMPDEST PUSH3 0x42B7 DUP2 DUP4 PUSH3 0x39AD JUMP JUMPDEST DUP2 ADD SUB SLT PUSH3 0x1BCD JUMPI MLOAD SWAP1 DUP2 ISZERO ISZERO DUP3 SUB PUSH3 0x3B9 JUMPI POP CODESIZE DUP1 PUSH3 0x41D8 JUMP JUMPDEST POP RETURNDATASIZE PUSH3 0x42AB JUMP JUMPDEST DUP9 MLOAD RETURNDATASIZE PUSH1 0x0 DUP3 RETURNDATACOPY RETURNDATASIZE SWAP1 REVERT JUMPDEST POP POP POP POP POP JUMP JUMPDEST PUSH2 0x132 SLOAD SWAP2 SWAP4 SWAP1 SWAP3 PUSH1 0x1 PUSH1 0x1 PUSH1 0xA0 SHL SUB SWAP3 DUP4 AND SWAP1 DUP2 ISZERO PUSH3 0x4481 JUMPI PUSH3 0x4315 DUP7 PUSH3 0x40C0 JUMP JUMPDEST SWAP6 PUSH1 0x20 DUP1 DUP3 ADD SWAP6 PUSH3 0x4327 DUP8 PUSH3 0x40CF JUMP JUMPDEST SWAP8 PUSH1 0x40 SWAP10 DUP11 DUP6 ADD CALLDATALOAD SWAP7 PUSH1 0x60 DUP7 ADD CALLDATALOAD PUSH1 0x1E NOT DUP8 CALLDATASIZE SUB ADD DUP2 SLT ISZERO PUSH3 0x455 JUMPI DUP7 ADD SWAP4 DUP5 CALLDATALOAD SWAP5 PUSH1 0x1 PUSH1 0x1 PUSH1 0x40 SHL SUB DUP7 GT PUSH3 0x455 JUMPI DUP7 ADD SWAP4 DUP6 CALLDATASIZE SUB DUP6 SGT PUSH3 0x455 JUMPI DUP7 SWAP5 DUP15 MLOAD SWAP7 DUP8 SWAP6 DUP7 SWAP5 DUP6 SWAP5 PUSH4 0x1DA96125 PUSH1 0xE1 SHL DUP7 MSTORE AND PUSH1 0x4 DUP6 ADD MSTORE PUSH1 0xFF AND PUSH1 0x24 DUP5 ADD MSTORE PUSH2 0xFFFF SWAP15 DUP16 AND PUSH1 0x44 DUP5 ADD MSTORE DUP12 PUSH1 0x64 DUP5 ADD MSTORE PUSH1 0x84 DUP4 ADD PUSH1 0xA0 SWAP1 MSTORE PUSH1 0xA4 DUP4 ADD SWAP1 PUSH3 0x43B2 SWAP3 PUSH3 0x40DF JUMP JUMPDEST SUB SWAP2 GAS STATICCALL SWAP2 DUP3 ISZERO PUSH3 0x4476 JUMPI PUSH1 0x0 SWAP3 PUSH3 0x4439 JUMPI JUMPDEST POP POP ISZERO PUSH3 0x4428 JUMPI PUSH3 0x43DA DUP2 PUSH3 0x40C0 JUMP JUMPDEST PUSH1 0xFF DUP1 DUP5 AND SWAP2 AND LT PUSH3 0x4417 JUMPI POP POP TIMESTAMP GT PUSH3 0x4406 JUMPI PUSH3 0x4216 SWAP1 PUSH3 0x4400 DUP4 PUSH3 0x40CF JUMP JUMPDEST PUSH3 0x4500 JUMP JUMPDEST DUP4 MLOAD PUSH4 0x4973D8D5 PUSH1 0xE1 SHL DUP2 MSTORE PUSH1 0x4 SWAP1 REVERT JUMPDEST SWAP1 PUSH3 0x3F6D PUSH3 0x4266 DUP9 SWAP4 PUSH3 0x40C0 JUMP JUMPDEST DUP7 MLOAD PUSH4 0x249D7771 PUSH1 0xE2 SHL DUP2 MSTORE PUSH1 0x4 SWAP1 REVERT JUMPDEST DUP2 DUP2 RETURNDATASIZE DUP4 GT PUSH3 0x446E JUMPI JUMPDEST PUSH3 0x4450 DUP2 DUP4 PUSH3 0x39AD JUMP JUMPDEST DUP2 ADD SUB SLT PUSH3 0x1BCD JUMPI MLOAD SWAP1 DUP2 ISZERO ISZERO DUP3 SUB PUSH3 0x3B9 JUMPI POP CODESIZE DUP1 PUSH3 0x43C7 JUMP JUMPDEST POP RETURNDATASIZE PUSH3 0x4444 JUMP JUMPDEST DUP10 MLOAD RETURNDATASIZE PUSH1 0x0 DUP3 RETURNDATACOPY RETURNDATASIZE SWAP1 REVERT JUMPDEST POP POP POP POP POP POP JUMP JUMPDEST PUSH1 0x0 NOT DUP2 EQ PUSH3 0x4499 JUMPI PUSH1 0x1 ADD SWAP1 JUMP JUMPDEST PUSH4 0x4E487B71 PUSH1 0xE0 SHL PUSH1 0x0 MSTORE PUSH1 0x11 PUSH1 0x4 MSTORE PUSH1 0x24 PUSH1 0x0 REVERT JUMPDEST PUSH2 0x13A SLOAD SWAP1 PUSH1 0x0 JUMPDEST DUP3 DUP2 LT PUSH3 0x44C7 JUMPI POP POP POP PUSH1 0x0 SWAP1 JUMP JUMPDEST PUSH3 0x44D2 DUP2 PUSH3 0x3AE7 JUMP JUMPDEST SWAP1 SLOAD PUSH2 0xFFFF SWAP1 DUP2 DUP6 AND SWAP3 PUSH1 0x3 SHL SHR AND EQ PUSH3 0x44F8 JUMPI PUSH3 0x44F2 SWAP1 PUSH3 0x4489 JUMP JUMPDEST PUSH3 0x44B7 JUMP JUMPDEST POP POP POP PUSH1 0x1 SWAP1 JUMP JUMPDEST SWAP1 DUP1 ISZERO ISZERO SWAP1 DUP2 PUSH3 0x4561 JUMPI JUMPDEST POP PUSH3 0x455B JUMPI PUSH2 0x13A SLOAD SWAP1 PUSH1 0x0 JUMPDEST DUP3 DUP2 LT PUSH3 0x452A JUMPI POP POP POP PUSH1 0x0 SWAP1 JUMP JUMPDEST PUSH3 0x4535 DUP2 PUSH3 0x3AE7 JUMP JUMPDEST SWAP1 SLOAD PUSH2 0xFFFF SWAP1 DUP2 DUP6 AND SWAP3 PUSH1 0x3 SHL SHR AND EQ PUSH3 0x44F8 JUMPI PUSH3 0x4555 SWAP1 PUSH3 0x4489 JUMP JUMPDEST PUSH3 0x451A JUMP JUMPDEST POP PUSH1 0x1 SWAP1 JUMP JUMPDEST SWAP1 POP PUSH1 0x0 MSTORE PUSH2 0x139 PUSH1 0x20 MSTORE PUSH1 0x40 PUSH1 0x0 KECCAK256 PUSH2 0xFFFF DUP3 AND PUSH1 0x0 MSTORE PUSH1 0x20 MSTORE PUSH1 0xFF PUSH1 0x40 PUSH1 0x0 KECCAK256 SLOAD AND CODESIZE PUSH3 0x450C JUMP JUMPDEST DUP1 SLOAD PUSH1 0x1 PUSH1 0x40 SHL DUP2 LT ISZERO PUSH3 0x98E JUMPI PUSH3 0x45AC SWAP2 PUSH1 0x1 DUP3 ADD DUP2 SSTORE PUSH3 0x3C21 JUMP JUMPDEST DUP2 SWAP3 SWAP2 SLOAD SWAP1 PUSH1 0x3 SHL SWAP2 DUP3 SHL SWAP2 PUSH1 0x0 NOT SWAP1 SHL NOT AND OR SWAP1 SSTORE JUMP JUMPDEST PUSH1 0x1 PUSH1 0x1 PUSH1 0xA0 SHL SUB SWAP1 SWAP2 AND DUP2 MSTORE PUSH1 0x40 PUSH1 0x20 DUP3 ADD DUP2 SWAP1 MSTORE PUSH3 0x45E8 SWAP3 SWAP2 ADD SWAP1 PUSH3 0x3AA5 JUMP JUMPDEST SWAP1 JUMP JUMPDEST PUSH2 0x12F SLOAD PUSH1 0x40 MLOAD PUSH4 0x189ACDBD PUSH1 0xE3 SHL PUSH1 0x20 DUP3 ADD MSTORE ADDRESS PUSH1 0x24 DUP1 DUP4 ADD SWAP2 SWAP1 SWAP2 MSTORE DUP2 MSTORE PUSH1 0x1 PUSH1 0x1 PUSH1 0xA0 SHL SUB SWAP2 DUP3 AND PUSH3 0x4621 DUP3 PUSH3 0x3991 JUMP JUMPDEST PUSH1 0x40 MLOAD SWAP2 PUSH2 0x416 SWAP1 DUP2 DUP5 ADD SWAP3 DUP5 DUP5 LT PUSH1 0x1 PUSH1 0x1 PUSH1 0x40 SHL SUB DUP6 GT OR PUSH3 0x98E JUMPI DUP5 SWAP4 PUSH3 0x4653 SWAP4 PUSH3 0x4D25 DUP7 CODECOPY PUSH3 0x45C4 JUMP JUMPDEST SUB SWAP1 PUSH1 0x0 CREATE DUP1 ISZERO PUSH3 0x4663 JUMPI AND SWAP1 JUMP JUMPDEST PUSH1 0x40 MLOAD RETURNDATASIZE PUSH1 0x0 DUP3 RETURNDATACOPY RETURNDATASIZE SWAP1 REVERT JUMPDEST SWAP4 SWAP3 SWAP6 SWAP5 SWAP1 PUSH3 0x46F8 SWAP2 PUSH1 0x1 DUP1 PUSH1 0xA0 SHL SUB SWAP5 DUP6 PUSH3 0x46D0 DUP2 PUSH2 0x12D SLOAD AND SWAP7 DUP3 PUSH2 0x132 SLOAD AND SWAP12 PUSH3 0x46BD PUSH1 0x40 MLOAD SWAP12 DUP13 SWAP9 PUSH4 0x76F9F14F PUSH1 0xE1 SHL PUSH1 0x20 DUP12 ADD MSTORE PUSH1 0xC0 PUSH1 0x24 DUP12 ADD MSTORE PUSH1 0xE4 DUP11 ADD SWAP2 PUSH3 0x40DF JUMP JUMPDEST DUP8 DUP2 SUB PUSH1 0x23 NOT ADD PUSH1 0x44 DUP10 ADD MSTORE SWAP2 PUSH3 0x40DF JUMP JUMPDEST SWAP3 ADDRESS PUSH1 0x64 DUP7 ADD MSTORE AND SWAP9 DUP10 PUSH1 0x84 DUP6 ADD MSTORE PUSH1 0xA4 DUP5 ADD MSTORE PUSH1 0xC4 DUP4 ADD MSTORE SUB PUSH1 0x1F NOT DUP2 ADD DUP6 MSTORE DUP5 PUSH3 0x39AD JUMP JUMPDEST PUSH1 0x40 MLOAD SWAP3 PUSH2 0x416 SWAP1 DUP2 DUP6 ADD SWAP3 DUP6 DUP5 LT PUSH1 0x1 PUSH1 0x1 PUSH1 0x40 SHL SUB DUP6 GT OR PUSH3 0x98E JUMPI DUP6 SWAP4 PUSH3 0x472A SWAP4 PUSH3 0x4D25 DUP7 CODECOPY PUSH3 0x45C4 JUMP JUMPDEST SUB PUSH1 0x0 SWAP3 DUP4 CREATE DUP1 ISZERO PUSH3 0x4787 JUMPI AND SWAP3 DUP1 EXTCODESIZE ISZERO PUSH3 0x1BCD JUMPI DUP2 DUP1 SWAP2 PUSH1 0x24 PUSH1 0x40 MLOAD DUP1 SWAP6 DUP2 SWAP4 PUSH4 0x1FFAD501 PUSH1 0xE1 SHL DUP4 MSTORE DUP10 PUSH1 0x4 DUP5 ADD MSTORE GAS CALL SWAP1 DUP2 ISZERO PUSH3 0x477B JUMPI POP PUSH3 0x4770 JUMPI POP JUMP JUMPDEST PUSH3 0x3A13 SWAP1 PUSH3 0x3961 JUMP JUMPDEST PUSH1 0x40 MLOAD SWAP1 RETURNDATASIZE SWAP1 DUP3 RETURNDATACOPY RETURNDATASIZE SWAP1 REVERT JUMPDEST PUSH1 0x40 MLOAD RETURNDATASIZE DUP5 DUP3 RETURNDATACOPY RETURNDATASIZE SWAP1 REVERT JUMPDEST PUSH2 0x12E SLOAD PUSH1 0x40 MLOAD PUSH4 0x3BF9125 PUSH1 0xE1 SHL PUSH1 0x20 DUP3 ADD MSTORE PUSH1 0x60 PUSH1 0x24 DUP3 ADD MSTORE PUSH1 0x1 PUSH1 0x1 PUSH1 0xA0 SHL SUB SWAP4 SWAP1 SWAP3 SWAP2 DUP5 AND SWAP2 PUSH3 0x4621 SWAP2 DUP5 SWAP2 PUSH3 0x47EC SWAP2 SWAP1 PUSH3 0x47D9 SWAP1 PUSH1 0x84 DUP6 ADD SWAP1 PUSH3 0x3AA5 JUMP JUMPDEST DUP4 DUP2 SUB PUSH1 0x23 NOT ADD PUSH1 0x44 DUP6 ADD MSTORE SWAP1 PUSH3 0x3AA5 JUMP JUMPDEST CALLER PUSH1 0x64 DUP4 ADD MSTORE SUB PUSH1 0x1F NOT DUP2 ADD DUP5 MSTORE DUP4 PUSH3 0x39AD JUMP JUMPDEST PUSH2 0x130 SLOAD PUSH2 0x132 SLOAD PUSH2 0x133 SLOAD PUSH2 0x134 SLOAD PUSH1 0x40 MLOAD PUSH4 0x7B809F7B PUSH1 0xE1 SHL PUSH1 0x20 DUP3 ADD MSTORE CALLER PUSH1 0x24 DUP3 ADD MSTORE PUSH1 0x1 PUSH1 0x1 PUSH1 0xA0 SHL SUB SWAP6 DUP7 AND PUSH1 0x44 DUP3 ADD MSTORE SWAP3 DUP6 AND PUSH1 0x64 DUP5 ADD MSTORE SWAP1 DUP5 AND PUSH1 0x84 DUP4 ADD MSTORE PUSH1 0xA4 DUP1 DUP4 ADD SWAP2 SWAP1 SWAP2 MSTORE DUP2 MSTORE PUSH1 0xE0 DUP2 ADD SWAP2 PUSH1 0x1 PUSH1 0x1 PUSH1 0x40 SHL SUB SWAP2 SWAP1 DUP5 AND DUP3 DUP5 GT DUP3 DUP6 LT OR PUSH3 0x98E JUMPI DUP4 PUSH1 0x40 MSTORE PUSH2 0x416 PUSH1 0xE0 DUP2 DUP5 ADD ADD SWAP4 DUP6 DUP6 LT SWAP1 DUP6 GT OR PUSH3 0x98E JUMPI PUSH3 0x48A0 SWAP2 DUP4 SWAP2 PUSH3 0x4D25 DUP8 CODECOPY PUSH1 0xDF NOT SWAP5 PUSH3 0x45C4 JUMP JUMPDEST SUB ADD SWAP1 PUSH1 0x0 CREATE DUP1 ISZERO PUSH3 0x4663 JUMPI AND SWAP1 JUMP JUMPDEST PUSH1 0x40 DUP1 MLOAD PUSH4 0xA217FDDF PUSH1 0xE0 SHL DUP1 DUP3 MSTORE PUSH1 0x0 SWAP5 SWAP3 SWAP4 PUSH1 0x4 SWAP4 PUSH1 0x1 PUSH1 0x1 PUSH1 0xA0 SHL SUB SWAP1 SWAP2 AND SWAP3 PUSH1 0x20 SWAP3 SWAP2 SWAP1 DUP4 DUP2 DUP8 DUP2 DUP9 GAS STATICCALL SWAP1 DUP2 ISZERO PUSH3 0x4B13 JUMPI DUP9 SWAP2 PUSH3 0x4AE0 JUMPI JUMPDEST POP DUP5 EXTCODESIZE ISZERO PUSH3 0x4ADC JUMPI DUP7 MLOAD PUSH4 0x2F2FF15D PUSH1 0xE0 SHL DUP1 DUP3 MSTORE DUP8 DUP3 ADD SWAP3 DUP4 MSTORE PUSH1 0x1 PUSH1 0x1 PUSH1 0xA0 SHL SUB DUP5 AND PUSH1 0x20 DUP5 ADD MSTORE SWAP2 DUP10 SWAP1 DUP3 SWAP1 DUP2 SWAP1 PUSH1 0x40 ADD SUB DUP2 DUP4 DUP11 GAS CALL DUP1 ISZERO PUSH3 0x4ABC JUMPI PUSH3 0x4AC6 JUMPI JUMPDEST POP DUP7 MLOAD PUSH4 0xD5391393 PUSH1 0xE0 SHL DUP2 MSTORE SWAP1 DUP5 DUP3 DUP9 DUP2 DUP10 GAS STATICCALL SWAP2 DUP3 ISZERO PUSH3 0x4ABC JUMPI DUP10 SWAP3 PUSH3 0x4A87 JUMPI JUMPDEST POP DUP6 EXTCODESIZE ISZERO PUSH3 0x4A83 JUMPI DUP8 MLOAD SWAP1 DUP2 MSTORE DUP7 DUP2 ADD SWAP2 DUP3 MSTORE PUSH1 0x1 PUSH1 0x1 PUSH1 0xA0 SHL SUB SWAP1 SWAP3 AND PUSH1 0x20 DUP3 ADD MSTORE DUP8 SWAP1 DUP3 SWAP1 DUP2 SWAP1 PUSH1 0x40 ADD SUB DUP2 DUP4 DUP9 GAS CALL DUP1 ISZERO PUSH3 0x4A79 JUMPI SWAP1 DUP8 SWAP2 PUSH3 0x4A61 JUMPI JUMPDEST POP POP DUP5 MLOAD SWAP1 DUP2 MSTORE DUP2 DUP2 DUP6 DUP2 DUP7 GAS STATICCALL SWAP2 DUP3 ISZERO PUSH3 0x4A57 JUMPI DUP7 SWAP3 PUSH3 0x4A23 JUMPI JUMPDEST POP POP DUP2 EXTCODESIZE ISZERO PUSH3 0x1BC1 JUMPI DUP4 MLOAD PUSH4 0x1B2B455F PUSH1 0xE1 SHL DUP2 MSTORE SWAP3 DUP4 ADD SWAP1 DUP2 MSTORE ADDRESS PUSH1 0x20 DUP3 ADD MSTORE SWAP2 SWAP3 SWAP2 DUP5 SWAP2 DUP5 SWAP2 DUP3 SWAP1 DUP5 SWAP1 DUP3 SWAP1 PUSH1 0x40 ADD SUB SWAP3 GAS CALL SWAP1 DUP2 ISZERO PUSH3 0x4A1A JUMPI POP PUSH3 0x4A06 JUMPI POP POP JUMP JUMPDEST PUSH3 0x4A12 DUP3 SWAP2 PUSH3 0x3961 JUMP JUMPDEST PUSH3 0x3B9 JUMPI POP JUMP JUMPDEST MLOAD RETURNDATASIZE DUP5 DUP3 RETURNDATACOPY RETURNDATASIZE SWAP1 REVERT JUMPDEST SWAP1 DUP1 SWAP3 POP DUP2 RETURNDATASIZE DUP4 GT PUSH3 0x4A4F JUMPI JUMPDEST PUSH3 0x4A3D DUP2 DUP4 PUSH3 0x39AD JUMP JUMPDEST DUP2 ADD SUB SLT PUSH3 0x455 JUMPI MLOAD CODESIZE DUP1 PUSH3 0x49BE JUMP JUMPDEST POP RETURNDATASIZE PUSH3 0x4A31 JUMP JUMPDEST DUP6 MLOAD RETURNDATASIZE DUP9 DUP3 RETURNDATACOPY RETURNDATASIZE SWAP1 REVERT JUMPDEST PUSH3 0x4A6C SWAP1 PUSH3 0x3961 JUMP JUMPDEST PUSH3 0x1BC5 JUMPI DUP6 CODESIZE PUSH3 0x49A0 JUMP JUMPDEST DUP7 MLOAD RETURNDATASIZE DUP10 DUP3 RETURNDATACOPY RETURNDATASIZE SWAP1 REVERT JUMPDEST DUP9 DUP1 REVERT JUMPDEST SWAP1 SWAP2 POP DUP5 DUP2 DUP2 RETURNDATASIZE DUP4 GT PUSH3 0x4AB4 JUMPI JUMPDEST PUSH3 0x4AA2 DUP2 DUP4 PUSH3 0x39AD JUMP JUMPDEST DUP2 ADD SUB SLT PUSH3 0x455 JUMPI MLOAD SWAP1 CODESIZE PUSH3 0x495D JUMP JUMPDEST POP RETURNDATASIZE PUSH3 0x4A96 JUMP JUMPDEST DUP9 MLOAD RETURNDATASIZE DUP12 DUP3 RETURNDATACOPY RETURNDATASIZE SWAP1 REVERT JUMPDEST PUSH3 0x4AD4 SWAP1 SWAP9 SWAP2 SWAP9 PUSH3 0x3961 JUMP JUMPDEST SWAP7 CODESIZE PUSH3 0x4938 JUMP JUMPDEST DUP8 DUP1 REVERT JUMPDEST SWAP1 POP DUP4 DUP2 DUP2 RETURNDATASIZE DUP4 GT PUSH3 0x4B0B JUMPI JUMPDEST PUSH3 0x4AFA DUP2 DUP4 PUSH3 0x39AD JUMP JUMPDEST DUP2 ADD SUB SLT PUSH3 0x4ADC JUMPI MLOAD CODESIZE PUSH3 0x48F0 JUMP JUMPDEST POP RETURNDATASIZE PUSH3 0x4AEE JUMP JUMPDEST DUP8 MLOAD RETURNDATASIZE DUP11 DUP3 RETURNDATACOPY RETURNDATASIZE SWAP1 REVERT JUMPDEST SWAP2 SWAP1 DUP2 LT ISZERO PUSH3 0x3B28 JUMPI PUSH1 0x5 SHL ADD SWAP1 JUMP JUMPDEST PUSH2 0x13A SWAP1 DUP2 SLOAD SWAP1 PUSH1 0x0 JUMPDEST DUP3 DUP2 LT PUSH3 0x4BB6 JUMPI POP PUSH1 0x1 PUSH1 0x40 SHL DUP3 LT ISZERO PUSH3 0x98E JUMPI PUSH3 0x4BA3 DUP2 PUSH3 0x4B88 DUP5 PUSH32 0x52447C0C1F6E76ACECCD86733D7B9B1EFA3FCCDE0F25070F3CA6193D0E3BA09C SWAP7 PUSH1 0x1 PUSH1 0x40 SWAP8 ADD SWAP1 SSTORE PUSH3 0x3AE7 JUMP JUMPDEST SWAP1 SWAP2 SWAP1 DUP3 SLOAD SWAP1 PUSH1 0x3 SHL SWAP2 PUSH2 0xFFFF DUP1 SWAP2 AND DUP4 SHL SWAP3 SHL NOT AND OR SWAP1 SSTORE JUMP JUMPDEST PUSH2 0xFFFF DUP3 MLOAD SWAP2 AND DUP2 MSTORE PUSH1 0x1 PUSH1 0x20 DUP3 ADD MSTORE LOG1 JUMP JUMPDEST PUSH3 0x4BC1 DUP2 PUSH3 0x3AE7 JUMP JUMPDEST SWAP1 SLOAD PUSH2 0xFFFF SWAP1 DUP2 DUP6 AND SWAP3 PUSH1 0x3 SHL SHR AND EQ PUSH3 0x4BE7 JUMPI PUSH3 0x4BE1 SWAP1 PUSH3 0x4489 JUMP JUMPDEST PUSH3 0x4B38 JUMP JUMPDEST POP POP POP POP JUMP JUMPDEST PUSH2 0x13A SWAP1 DUP2 SLOAD SWAP1 PUSH1 0x0 JUMPDEST DUP3 DUP2 LT PUSH3 0x4C05 JUMPI POP POP POP POP JUMP JUMPDEST PUSH3 0x4C10 DUP2 PUSH3 0x3AE7 JUMP JUMPDEST SWAP1 SLOAD PUSH2 0xFFFF DUP5 DUP2 AND SWAP3 PUSH1 0x3 SWAP3 SWAP1 DUP4 SHL SHR DUP2 AND DUP4 EQ PUSH3 0x4C3D JUMPI POP POP POP PUSH3 0x4C37 SWAP1 PUSH3 0x4489 JUMP JUMPDEST PUSH3 0x4BF7 JUMP JUMPDEST PUSH1 0x0 NOT SWAP7 SWAP3 SWAP6 SWAP2 SWAP5 POP SWAP2 SWAP3 DUP7 DUP3 ADD SWAP2 DUP3 GT PUSH3 0x4499 JUMPI PUSH3 0x4B88 DUP4 PUSH3 0x4C67 PUSH3 0x4C75 SWAP5 PUSH3 0x3AE7 JUMP JUMPDEST SWAP1 SLOAD SWAP1 DUP9 SHL SHR AND SWAP2 PUSH3 0x3AE7 JUMP JUMPDEST DUP2 SLOAD SWAP5 DUP6 ISZERO PUSH3 0x4CCC JUMPI PUSH32 0x52447C0C1F6E76ACECCD86733D7B9B1EFA3FCCDE0F25070F3CA6193D0E3BA09C SWAP6 ADD SWAP3 PUSH3 0x4CAE DUP5 PUSH3 0x3AE7 JUMP JUMPDEST DUP2 SWAP4 SWAP2 SLOAD SWAP3 SHL SHL NOT AND SWAP1 SSTORE SSTORE PUSH1 0x40 SWAP1 DUP2 MLOAD SWAP1 DUP2 MSTORE PUSH1 0x0 PUSH1 0x20 DUP3 ADD MSTORE LOG1 JUMP JUMPDEST PUSH4 0x4E487B71 PUSH1 0xE0 SHL PUSH1 0x0 MSTORE PUSH1 0x31 PUSH1 0x4 MSTORE PUSH1 0x24 PUSH1 0x0 REVERT JUMPDEST PUSH1 0xFF PUSH2 0x13B SLOAD AND ISZERO PUSH3 0x455B JUMPI PUSH1 0x1 PUSH1 0x1 PUSH1 0xA0 SHL SUB SWAP1 DUP2 AND PUSH1 0x0 DUP2 DUP2 MSTORE PUSH2 0x138 PUSH1 0x20 MSTORE PUSH1 0x40 SWAP1 KECCAK256 SLOAD PUSH1 0xFF AND SWAP2 DUP3 ISZERO PUSH3 0x4D1A JUMPI POP POP SWAP1 JUMP JUMPDEST PUSH1 0x97 SLOAD AND EQ SWAP2 SWAP1 POP JUMP INVALID PUSH1 0x40 PUSH1 0x80 DUP2 MSTORE PUSH2 0x416 SWAP1 DUP2 CODESIZE SUB DUP1 PUSH2 0x16 DUP2 PUSH2 0x218 JUMP JUMPDEST SWAP4 DUP5 CODECOPY DUP3 ADD SWAP2 DUP2 DUP2 DUP5 SUB SLT PUSH2 0x213 JUMPI DUP1 MLOAD PUSH1 0x1 PUSH1 0x1 PUSH1 0xA0 SHL SUB DUP2 AND DUP1 DUP3 SUB PUSH2 0x213 JUMPI PUSH1 0x20 DUP4 DUP2 ADD MLOAD PUSH1 0x1 PUSH1 0x1 PUSH1 0x40 SHL SUB SWAP5 SWAP2 SWAP4 SWAP2 DUP6 DUP3 GT PUSH2 0x213 JUMPI ADD DUP7 PUSH1 0x1F DUP3 ADD SLT ISZERO PUSH2 0x213 JUMPI DUP1 MLOAD SWAP1 PUSH2 0x71 PUSH2 0x6C DUP4 PUSH2 0x253 JUMP JUMPDEST PUSH2 0x218 JUMP JUMPDEST SWAP2 DUP1 DUP4 MSTORE DUP6 DUP4 ADD SWAP9 DUP7 DUP3 DUP5 ADD ADD GT PUSH2 0x213 JUMPI DUP9 DUP7 PUSH2 0x8F SWAP4 ADD PUSH2 0x26E JUMP JUMPDEST DUP2 EXTCODESIZE ISZERO PUSH2 0x1B9 JUMPI PUSH32 0x360894A13BA1A3210667C828492DB98DCA3E2076CC3735A920A3CA505D382BBC DUP1 SLOAD PUSH1 0x1 PUSH1 0x1 PUSH1 0xA0 SHL SUB NOT AND DUP5 OR SWAP1 SSTORE PUSH1 0x0 SWAP3 PUSH32 0xBC7CD75A20EE27FD9ADEBAB32041F755214DBC6BFFA90CC0225B39DA2E5C2D3B DUP5 DUP1 LOG2 DUP1 MLOAD ISZERO DUP1 ISZERO SWAP1 PUSH2 0x1B2 JUMPI JUMPDEST PUSH2 0x10B JUMPI JUMPDEST DUP6 MLOAD PUSH1 0xD1 SWAP1 DUP2 PUSH2 0x345 DUP3 CODECOPY RETURN JUMPDEST DUP6 MLOAD SWAP5 PUSH1 0x60 DUP7 ADD SWAP1 DUP2 GT DUP7 DUP3 LT OR PUSH2 0x19E JUMPI DUP7 SWAP8 DUP5 SWAP3 DUP4 SWAP3 PUSH2 0x188 SWAP10 MSTORE PUSH1 0x27 DUP9 MSTORE PUSH32 0x416464726573733A206C6F772D6C6576656C2064656C65676174652063616C6C DUP8 DUP10 ADD MSTORE PUSH7 0x819985A5B1959 PUSH1 0xCA SHL DUP11 DUP10 ADD MSTORE MLOAD SWAP1 DUP5 GAS DELEGATECALL SWAP2 RETURNDATASIZE ISZERO PUSH2 0x194 JUMPI RETURNDATASIZE SWAP1 PUSH2 0x17A PUSH2 0x6C DUP4 PUSH2 0x253 JUMP JUMPDEST SWAP2 DUP3 MSTORE DUP2 SWAP5 RETURNDATASIZE SWAP3 ADD RETURNDATACOPY PUSH2 0x291 JUMP JUMPDEST POP DUP1 CODESIZE DUP1 DUP1 DUP1 DUP1 PUSH2 0xFE JUMP JUMPDEST POP PUSH1 0x60 SWAP3 POP PUSH2 0x291 JUMP JUMPDEST PUSH4 0x4E487B71 PUSH1 0xE0 SHL DUP5 MSTORE PUSH1 0x41 PUSH1 0x4 MSTORE PUSH1 0x24 DUP5 REVERT JUMPDEST POP DUP3 PUSH2 0xF9 JUMP JUMPDEST DUP6 MLOAD PUSH3 0x461BCD PUSH1 0xE5 SHL DUP2 MSTORE PUSH1 0x4 DUP2 ADD DUP6 SWAP1 MSTORE PUSH1 0x2D PUSH1 0x24 DUP3 ADD MSTORE PUSH32 0x455243313936373A206E657720696D706C656D656E746174696F6E206973206E PUSH1 0x44 DUP3 ADD MSTORE PUSH13 0x1BDD08184818DBDB9D1C9858DD PUSH1 0x9A SHL PUSH1 0x64 DUP3 ADD MSTORE PUSH1 0x84 SWAP1 REVERT JUMPDEST PUSH1 0x0 DUP1 REVERT JUMPDEST PUSH1 0x40 MLOAD SWAP2 SWAP1 PUSH1 0x1F ADD PUSH1 0x1F NOT AND DUP3 ADD PUSH1 0x1 PUSH1 0x1 PUSH1 0x40 SHL SUB DUP2 GT DUP4 DUP3 LT OR PUSH2 0x23D JUMPI PUSH1 0x40 MSTORE JUMP JUMPDEST PUSH4 0x4E487B71 PUSH1 0xE0 SHL PUSH1 0x0 MSTORE PUSH1 0x41 PUSH1 0x4 MSTORE PUSH1 0x24 PUSH1 0x0 REVERT JUMPDEST PUSH1 0x1 PUSH1 0x1 PUSH1 0x40 SHL SUB DUP2 GT PUSH2 0x23D JUMPI PUSH1 0x1F ADD PUSH1 0x1F NOT AND PUSH1 0x20 ADD SWAP1 JUMP JUMPDEST PUSH1 0x0 JUMPDEST DUP4 DUP2 LT PUSH2 0x281 JUMPI POP POP PUSH1 0x0 SWAP2 ADD MSTORE JUMP JUMPDEST DUP2 DUP2 ADD MLOAD DUP4 DUP3 ADD MSTORE PUSH1 0x20 ADD PUSH2 0x271 JUMP JUMPDEST SWAP2 SWAP3 SWAP1 ISZERO PUSH2 0x2F3 JUMPI POP DUP2 MLOAD ISZERO PUSH2 0x2A5 JUMPI POP SWAP1 JUMP JUMPDEST EXTCODESIZE ISZERO PUSH2 0x2AE JUMPI SWAP1 JUMP JUMPDEST PUSH1 0x40 MLOAD PUSH3 0x461BCD PUSH1 0xE5 SHL DUP2 MSTORE PUSH1 0x20 PUSH1 0x4 DUP3 ADD MSTORE PUSH1 0x1D PUSH1 0x24 DUP3 ADD MSTORE PUSH32 0x416464726573733A2063616C6C20746F206E6F6E2D636F6E7472616374000000 PUSH1 0x44 DUP3 ADD MSTORE PUSH1 0x64 SWAP1 REVERT JUMPDEST DUP3 MLOAD SWAP1 SWAP2 POP ISZERO PUSH2 0x306 JUMPI POP DUP1 MLOAD SWAP1 PUSH1 0x20 ADD REVERT JUMPDEST PUSH1 0x44 PUSH1 0x40 MLOAD DUP1 SWAP3 PUSH3 0x461BCD PUSH1 0xE5 SHL DUP3 MSTORE PUSH1 0x20 PUSH1 0x4 DUP4 ADD MSTORE PUSH2 0x336 DUP2 MLOAD DUP1 SWAP3 DUP2 PUSH1 0x24 DUP7 ADD MSTORE PUSH1 0x20 DUP7 DUP7 ADD SWAP2 ADD PUSH2 0x26E JUMP JUMPDEST PUSH1 0x1F ADD PUSH1 0x1F NOT AND DUP2 ADD SUB ADD SWAP1 REVERT INVALID PUSH1 0x80 PUSH1 0x40 MSTORE CALLDATASIZE ISZERO PUSH1 0x54 JUMPI PUSH32 0x360894A13BA1A3210667C828492DB98DCA3E2076CC3735A920A3CA505D382BBC SLOAD PUSH1 0x0 SWAP1 DUP2 SWAP1 DUP2 SWAP1 PUSH1 0x1 PUSH1 0x1 PUSH1 0xA0 SHL SUB AND CALLDATASIZE DUP3 DUP1 CALLDATACOPY DUP2 CALLDATASIZE SWAP2 GAS DELEGATECALL RETURNDATASIZE DUP3 DUP1 RETURNDATACOPY ISZERO PUSH1 0x50 JUMPI RETURNDATASIZE SWAP1 RETURN JUMPDEST RETURNDATASIZE SWAP1 REVERT JUMPDEST PUSH32 0x360894A13BA1A3210667C828492DB98DCA3E2076CC3735A920A3CA505D382BBC SLOAD PUSH1 0x0 SWAP1 DUP2 SWAP1 DUP2 SWAP1 PUSH1 0x1 PUSH1 0x1 PUSH1 0xA0 SHL SUB AND CALLDATASIZE DUP3 DUP1 CALLDATACOPY DUP2 CALLDATASIZE SWAP2 GAS DELEGATECALL RETURNDATASIZE DUP3 DUP1 RETURNDATACOPY ISZERO PUSH1 0x50 JUMPI RETURNDATASIZE SWAP1 RETURN INVALID LOG2 PUSH5 0x6970667358 0x22 SLT KECCAK256 DIV 0x4B SWAP6 PUSH1 0xC GAS DUP12 AND CREATE2 DUP11 0xD7 SDIV EXTCODEHASH 0xC8 0x28 SELFBALANCE 0xC6 0xE0 0xC 0xBC 0xAD SWAP9 0xE4 NUMBER AND SWAP12 0xF7 DUP14 PUSH4 0x95632364 PUSH20 0x6F6C63430008140033360894A13BA1A3210667C8 0x28 0x49 0x2D 0xB9 DUP14 0xCA RETURNDATACOPY KECCAK256 PUSH23 0xCC3735A920A3CA505D382BBCA26469706673582212205E 0xDA PUSH4 0xB06FBEDE DUP13 0xFC 0xAA GAS DUP7 SMOD 0xEB SHL PUSH22 0x602FED1187AAD288F818055C540E1B8364736F6C6343 STOP ADDMOD EQ STOP CALLER "},"methodIdentifiers":{"addDefaultRestrictedCountry(uint16)":"876f6d48","addDividendModule(uint256)":"a4ba23f4","addEscrow(uint256)":"fd52c63f","approvedDeployers(address)":"72adaab2","batchSetDeploymentCountryRestrictions(uint256,uint16[],bool)":"60bfa724","deactivateDeployment(uint256)":"4feefa9b","defaultRestrictedCountries(uint256)":"23e71358","deployNFTAndToken(string,string,uint256,string,uint8,(uint8,uint16,uint256,bytes))":"2b9fa38d","deployProjectNFT(string,string,string,(uint8,uint16,uint256,bytes))":"7083e340","deployToken(string,string,uint256,string,uint8,(uint8,uint16,uint256,bytes))":"a40f8f33","deployWithEscrow(string,string,uint256,string,uint8,(uint8,uint16,uint256,bytes))":"27e1ff02","deploymentCounter()":"e83b86e1","deploymentRestrictedCountries(uint256,uint16)":"39feabf8","deployments(uint256)":"06609bbe","escrowTransactionFeeBps()":"45031011","getDefaultRestrictedCountries()":"ba6c4f8d","getDeployment(uint256)":"25da1698","getDeploymentMinKYCLevel(uint256)":"6d9ca0fb","getImplementations()":"615f64fe","getKYCVerifier()":"b60da085","getOwnerDeploymentCount(address)":"8340581d","getOwnerDeployments(address)":"04a19f4d","implementations()":"30e9012c","initialize(address,address,address,address,address,address)":"cc2a9a5b","isCountryRestricted(uint16,uint256)":"9d4c51aa","isDeployerApproved(address)":"6780f8e5","kycVerifier()":"b937e7cc","minKYCLevelForDeployment()":"4ce5c353","owner()":"8da5cb5b","ownerDeployments(address,uint256)":"374a08fb","pause()":"8456cb59","paused()":"5c975abb","platformFeeRecipient()":"eb13554f","proxiableUUID()":"52d1902d","removeDefaultRestrictedCountry(uint16)":"9b82178e","renounceOwnership()":"715018a6","requireApproval()":"82d5ea6c","requireKYCForDeployment()":"1ea67d66","setDeployerApproval(address,bool)":"fd322a1f","setDeploymentCountryRestriction(uint256,uint16,bool)":"5e6884ae","setDeploymentMinKYCLevel(uint256,uint8)":"b52d0f83","setEscrowTransactionFee(uint256)":"15b17d1f","setImplementation(uint8,address)":"45583b7a","setKYCRequirement(bool,uint8)":"dd6ca762","setKYCVerifier(address)":"d17f6417","setPlatformFeeRecipient(address)":"1871e243","setRequireApproval(bool)":"d7e0e541","transferOwnership(address)":"f2fde38b","unpause()":"3f4ba83a","upgradeTo(address)":"3659cfe6","upgradeToAndCall(address,bytes)":"4f1ef286","verifyHolderKYC(address,uint256,(uint8,uint16,uint256,bytes))":"3128228b"}},"storageLayout":{"storage":[{"astId":915,"contract":"contracts/tokenize/RWATokenizationFactory.sol:RWATokenizationFactory","label":"_initialized","offset":0,"slot":"0","type":"t_uint8"},{"astId":918,"contract":"contracts/tokenize/RWATokenizationFactory.sol:RWATokenizationFactory","label":"_initializing","offset":1,"slot":"0","type":"t_bool"},{"astId":897,"contract":"contracts/tokenize/RWATokenizationFactory.sol:RWATokenizationFactory","label":"__gap","offset":0,"slot":"1","type":"t_array(t_uint256)50_storage"},{"astId":1213,"contract":"contracts/tokenize/RWATokenizationFactory.sol:RWATokenizationFactory","label":"__gap","offset":0,"slot":"51","type":"t_array(t_uint256)50_storage"},{"astId":3089,"contract":"contracts/tokenize/RWATokenizationFactory.sol:RWATokenizationFactory","label":"__gap","offset":0,"slot":"101","type":"t_array(t_uint256)50_storage"},{"astId":421,"contract":"contracts/tokenize/RWATokenizationFactory.sol:RWATokenizationFactory","label":"_owner","offset":0,"slot":"151","type":"t_address"},{"astId":541,"contract":"contracts/tokenize/RWATokenizationFactory.sol:RWATokenizationFactory","label":"__gap","offset":0,"slot":"152","type":"t_array(t_uint256)49_storage"},{"astId":1236,"contract":"contracts/tokenize/RWATokenizationFactory.sol:RWATokenizationFactory","label":"_paused","offset":0,"slot":"201","type":"t_bool"},{"astId":1341,"contract":"contracts/tokenize/RWATokenizationFactory.sol:RWATokenizationFactory","label":"__gap","offset":0,"slot":"202","type":"t_array(t_uint256)49_storage"},{"astId":1357,"contract":"contracts/tokenize/RWATokenizationFactory.sol:RWATokenizationFactory","label":"_status","offset":0,"slot":"251","type":"t_uint256"},{"astId":1426,"contract":"contracts/tokenize/RWATokenizationFactory.sol:RWATokenizationFactory","label":"__gap","offset":0,"slot":"252","type":"t_array(t_uint256)49_storage"},{"astId":8223,"contract":"contracts/tokenize/RWATokenizationFactory.sol:RWATokenizationFactory","label":"implementations","offset":0,"slot":"301","type":"t_struct(Implementations)8182_storage"},{"astId":8225,"contract":"contracts/tokenize/RWATokenizationFactory.sol:RWATokenizationFactory","label":"kycVerifier","offset":0,"slot":"306","type":"t_address"},{"astId":8227,"contract":"contracts/tokenize/RWATokenizationFactory.sol:RWATokenizationFactory","label":"platformFeeRecipient","offset":0,"slot":"307","type":"t_address"},{"astId":8229,"contract":"contracts/tokenize/RWATokenizationFactory.sol:RWATokenizationFactory","label":"escrowTransactionFeeBps","offset":0,"slot":"308","type":"t_uint256"},{"astId":8231,"contract":"contracts/tokenize/RWATokenizationFactory.sol:RWATokenizationFactory","label":"deploymentCounter","offset":0,"slot":"309","type":"t_uint256"},{"astId":8236,"contract":"contracts/tokenize/RWATokenizationFactory.sol:RWATokenizationFactory","label":"deployments","offset":0,"slot":"310","type":"t_mapping(t_uint256,t_struct(TokenDeployment)8206_storage)"},{"astId":8241,"contract":"contracts/tokenize/RWATokenizationFactory.sol:RWATokenizationFactory","label":"ownerDeployments","offset":0,"slot":"311","type":"t_mapping(t_address,t_array(t_uint256)dyn_storage)"},{"astId":8245,"contract":"contracts/tokenize/RWATokenizationFactory.sol:RWATokenizationFactory","label":"approvedDeployers","offset":0,"slot":"312","type":"t_mapping(t_address,t_bool)"},{"astId":8251,"contract":"contracts/tokenize/RWATokenizationFactory.sol:RWATokenizationFactory","label":"deploymentRestrictedCountries","offset":0,"slot":"313","type":"t_mapping(t_uint256,t_mapping(t_uint16,t_bool))"},{"astId":8254,"contract":"contracts/tokenize/RWATokenizationFactory.sol:RWATokenizationFactory","label":"defaultRestrictedCountries","offset":0,"slot":"314","type":"t_array(t_uint16)dyn_storage"},{"astId":8256,"contract":"contracts/tokenize/RWATokenizationFactory.sol:RWATokenizationFactory","label":"requireApproval","offset":0,"slot":"315","type":"t_bool"},{"astId":8258,"contract":"contracts/tokenize/RWATokenizationFactory.sol:RWATokenizationFactory","label":"requireKYCForDeployment","offset":1,"slot":"315","type":"t_bool"},{"astId":8260,"contract":"contracts/tokenize/RWATokenizationFactory.sol:RWATokenizationFactory","label":"minKYCLevelForDeployment","offset":2,"slot":"315","type":"t_uint8"}],"types":{"t_address":{"encoding":"inplace","label":"address","numberOfBytes":"20"},"t_array(t_uint16)dyn_storage":{"base":"t_uint16","encoding":"dynamic_array","label":"uint16[]","numberOfBytes":"32"},"t_array(t_uint256)49_storage":{"base":"t_uint256","encoding":"inplace","label":"uint256[49]","numberOfBytes":"1568"},"t_array(t_uint256)50_storage":{"base":"t_uint256","encoding":"inplace","label":"uint256[50]","numberOfBytes":"1600"},"t_array(t_uint256)dyn_storage":{"base":"t_uint256","encoding":"dynamic_array","label":"uint256[]","numberOfBytes":"32"},"t_bool":{"encoding":"inplace","label":"bool","numberOfBytes":"1"},"t_enum(DeploymentType)8211":{"encoding":"inplace","label":"enum RWATokenizationFactory.DeploymentType","numberOfBytes":"1"},"t_mapping(t_address,t_array(t_uint256)dyn_storage)":{"encoding":"mapping","key":"t_address","label":"mapping(address => uint256[])","numberOfBytes":"32","value":"t_array(t_uint256)dyn_storage"},"t_mapping(t_address,t_bool)":{"encoding":"mapping","key":"t_address","label":"mapping(address => bool)","numberOfBytes":"32","value":"t_bool"},"t_mapping(t_uint16,t_bool)":{"encoding":"mapping","key":"t_uint16","label":"mapping(uint16 => bool)","numberOfBytes":"32","value":"t_bool"},"t_mapping(t_uint256,t_mapping(t_uint16,t_bool))":{"encoding":"mapping","key":"t_uint256","label":"mapping(uint256 => mapping(uint16 => bool))","numberOfBytes":"32","value":"t_mapping(t_uint16,t_bool)"},"t_mapping(t_uint256,t_struct(TokenDeployment)8206_storage)":{"encoding":"mapping","key":"t_uint256","label":"mapping(uint256 => struct RWATokenizationFactory.TokenDeployment)","numberOfBytes":"32","value":"t_struct(TokenDeployment)8206_storage"},"t_string_storage":{"encoding":"bytes","label":"string","numberOfBytes":"32"},"t_struct(Implementations)8182_storage":{"encoding":"inplace","label":"struct RWATokenizationFactory.Implementations","members":[{"astId":8173,"contract":"contracts/tokenize/RWATokenizationFactory.sol:RWATokenizationFactory","label":"securityToken","offset":0,"slot":"0","type":"t_address"},{"astId":8175,"contract":"contracts/tokenize/RWATokenizationFactory.sol:RWATokenizationFactory","label":"projectNFT","offset":0,"slot":"1","type":"t_address"},{"astId":8177,"contract":"contracts/tokenize/RWATokenizationFactory.sol:RWATokenizationFactory","label":"compliance","offset":0,"slot":"2","type":"t_address"},{"astId":8179,"contract":"contracts/tokenize/RWATokenizationFactory.sol:RWATokenizationFactory","label":"tradeEscrow","offset":0,"slot":"3","type":"t_address"},{"astId":8181,"contract":"contracts/tokenize/RWATokenizationFactory.sol:RWATokenizationFactory","label":"dividendDistributor","offset":0,"slot":"4","type":"t_address"}],"numberOfBytes":"160"},"t_struct(TokenDeployment)8206_storage":{"encoding":"inplace","label":"struct RWATokenizationFactory.TokenDeployment","members":[{"astId":8184,"contract":"contracts/tokenize/RWATokenizationFactory.sol:RWATokenizationFactory","label":"deploymentId","offset":0,"slot":"0","type":"t_uint256"},{"astId":8186,"contract":"contracts/tokenize/RWATokenizationFactory.sol:RWATokenizationFactory","label":"owner","offset":0,"slot":"1","type":"t_address"},{"astId":8188,"contract":"contracts/tokenize/RWATokenizationFactory.sol:RWATokenizationFactory","label":"securityToken","offset":0,"slot":"2","type":"t_address"},{"astId":8190,"contract":"contracts/tokenize/RWATokenizationFactory.sol:RWATokenizationFactory","label":"projectNFT","offset":0,"slot":"3","type":"t_address"},{"astId":8192,"contract":"contracts/tokenize/RWATokenizationFactory.sol:RWATokenizationFactory","label":"tradeEscrow","offset":0,"slot":"4","type":"t_address"},{"astId":8194,"contract":"contracts/tokenize/RWATokenizationFactory.sol:RWATokenizationFactory","label":"dividendDistributor","offset":0,"slot":"5","type":"t_address"},{"astId":8197,"contract":"contracts/tokenize/RWATokenizationFactory.sol:RWATokenizationFactory","label":"deploymentType","offset":20,"slot":"5","type":"t_enum(DeploymentType)8211"},{"astId":8199,"contract":"contracts/tokenize/RWATokenizationFactory.sol:RWATokenizationFactory","label":"deployedAt","offset":0,"slot":"6","type":"t_uint256"},{"astId":8201,"contract":"contracts/tokenize/RWATokenizationFactory.sol:RWATokenizationFactory","label":"active","offset":0,"slot":"7","type":"t_bool"},{"astId":8203,"contract":"contracts/tokenize/RWATokenizationFactory.sol:RWATokenizationFactory","label":"metadataURI","offset":0,"slot":"8","type":"t_string_storage"},{"astId":8205,"contract":"contracts/tokenize/RWATokenizationFactory.sol:RWATokenizationFactory","label":"minKYCLevel","offset":0,"slot":"9","type":"t_uint8"}],"numberOfBytes":"320"},"t_uint16":{"encoding":"inplace","label":"uint16","numberOfBytes":"2"},"t_uint256":{"encoding":"inplace","label":"uint256","numberOfBytes":"32"},"t_uint8":{"encoding":"inplace","label":"uint8","numberOfBytes":"1"}}}}}}