{"contracts/core/RWASecurityToken.sol":{"RWASecurityToken":{"abi":[{"inputs":[],"stateMutability":"nonpayable","type":"constructor"},{"inputs":[],"name":"AddressIsFrozen","type":"error"},{"inputs":[],"name":"AmountExceedsFrozenTokens","type":"error"},{"inputs":[],"name":"ArrayLengthMismatch","type":"error"},{"inputs":[],"name":"BatchTooLarge","type":"error"},{"inputs":[],"name":"CountryRestricted","type":"error"},{"inputs":[],"name":"InsufficientUnfrozenBalance","type":"error"},{"inputs":[],"name":"InvalidAddress","type":"error"},{"inputs":[],"name":"InvalidKYCLevel","type":"error"},{"inputs":[],"name":"InvalidKYCProof","type":"error"},{"inputs":[],"name":"KYCExpired","type":"error"},{"inputs":[],"name":"KYCLevelTooLow","type":"error"},{"inputs":[],"name":"KYCNotVerified","type":"error"},{"inputs":[],"name":"MaxSupplyExceeded","type":"error"},{"inputs":[],"name":"PaymentAlreadyProcessed","type":"error"},{"inputs":[],"name":"RecoveryFailed","type":"error"},{"inputs":[],"name":"TransferNotCompliant","type":"error"},{"anonymous":false,"inputs":[{"indexed":true,"internalType":"address","name":"_userAddress","type":"address"},{"indexed":true,"internalType":"bool","name":"_isFrozen","type":"bool"},{"indexed":true,"internalType":"address","name":"_owner","type":"address"}],"name":"AddressFrozen","type":"event"},{"anonymous":false,"inputs":[{"indexed":false,"internalType":"address","name":"previousAdmin","type":"address"},{"indexed":false,"internalType":"address","name":"newAdmin","type":"address"}],"name":"AdminChanged","type":"event"},{"anonymous":false,"inputs":[{"indexed":true,"internalType":"address","name":"owner","type":"address"},{"indexed":true,"internalType":"address","name":"spender","type":"address"},{"indexed":false,"internalType":"uint256","name":"value","type":"uint256"}],"name":"Approval","type":"event"},{"anonymous":false,"inputs":[{"indexed":true,"internalType":"address","name":"beacon","type":"address"}],"name":"BeaconUpgraded","type":"event"},{"anonymous":false,"inputs":[{"indexed":true,"internalType":"address","name":"_compliance","type":"address"}],"name":"ComplianceAdded","type":"event"},{"anonymous":false,"inputs":[{"indexed":true,"internalType":"uint16","name":"countryCode","type":"uint16"},{"indexed":false,"internalType":"bool","name":"restricted","type":"bool"}],"name":"CountryRestrictionUpdated","type":"event"},{"anonymous":false,"inputs":[{"indexed":false,"internalType":"uint8","name":"version","type":"uint8"}],"name":"Initialized","type":"event"},{"anonymous":false,"inputs":[{"indexed":true,"internalType":"address","name":"wallet","type":"address"},{"indexed":false,"internalType":"uint8","name":"level","type":"uint8"},{"indexed":false,"internalType":"uint16","name":"countryCode","type":"uint16"},{"indexed":false,"internalType":"uint256","name":"expiry","type":"uint256"}],"name":"KYCCached","type":"event"},{"anonymous":false,"inputs":[{"indexed":false,"internalType":"bool","name":"enforced","type":"bool"}],"name":"KYCEnforcementUpdated","type":"event"},{"anonymous":false,"inputs":[{"indexed":true,"internalType":"address","name":"oldVerifier","type":"address"},{"indexed":true,"internalType":"address","name":"newVerifier","type":"address"}],"name":"KYCVerifierUpdated","type":"event"},{"anonymous":false,"inputs":[{"indexed":false,"internalType":"uint256","name":"oldMaxSupply","type":"uint256"},{"indexed":false,"internalType":"uint256","name":"newMaxSupply","type":"uint256"}],"name":"MaxSupplyUpdated","type":"event"},{"anonymous":false,"inputs":[{"indexed":false,"internalType":"uint8","name":"oldLevel","type":"uint8"},{"indexed":false,"internalType":"uint8","name":"newLevel","type":"uint8"}],"name":"MinKYCLevelUpdated","type":"event"},{"anonymous":false,"inputs":[{"indexed":true,"internalType":"address","name":"to","type":"address"},{"indexed":false,"internalType":"uint256","name":"amount","type":"uint256"},{"indexed":false,"internalType":"string","name":"paymentReference","type":"string"}],"name":"OffChainPaymentMinted","type":"event"},{"anonymous":false,"inputs":[{"indexed":false,"internalType":"address","name":"account","type":"address"}],"name":"Paused","type":"event"},{"anonymous":false,"inputs":[{"indexed":true,"internalType":"address","name":"_lostWallet","type":"address"},{"indexed":true,"internalType":"address","name":"_newWallet","type":"address"},{"indexed":true,"internalType":"address","name":"_investorOnchainID","type":"address"}],"name":"RecoverySuccess","type":"event"},{"anonymous":false,"inputs":[{"indexed":true,"internalType":"bytes32","name":"role","type":"bytes32"},{"indexed":true,"internalType":"bytes32","name":"previousAdminRole","type":"bytes32"},{"indexed":true,"internalType":"bytes32","name":"newAdminRole","type":"bytes32"}],"name":"RoleAdminChanged","type":"event"},{"anonymous":false,"inputs":[{"indexed":true,"internalType":"bytes32","name":"role","type":"bytes32"},{"indexed":true,"internalType":"address","name":"account","type":"address"},{"indexed":true,"internalType":"address","name":"sender","type":"address"}],"name":"RoleGranted","type":"event"},{"anonymous":false,"inputs":[{"indexed":true,"internalType":"bytes32","name":"role","type":"bytes32"},{"indexed":true,"internalType":"address","name":"account","type":"address"},{"indexed":true,"internalType":"address","name":"sender","type":"address"}],"name":"RoleRevoked","type":"event"},{"anonymous":false,"inputs":[{"indexed":false,"internalType":"uint256","name":"id","type":"uint256"}],"name":"Snapshot","type":"event"},{"anonymous":false,"inputs":[{"indexed":true,"internalType":"uint256","name":"snapshotId","type":"uint256"},{"indexed":false,"internalType":"uint256","name":"blockNumber","type":"uint256"}],"name":"SnapshotCreated","type":"event"},{"anonymous":false,"inputs":[{"indexed":true,"internalType":"address","name":"from","type":"address"},{"indexed":false,"internalType":"uint256","name":"amount","type":"uint256"}],"name":"TokensBurned","type":"event"},{"anonymous":false,"inputs":[{"indexed":true,"internalType":"address","name":"_userAddress","type":"address"},{"indexed":false,"internalType":"uint256","name":"_amount","type":"uint256"}],"name":"TokensFrozen","type":"event"},{"anonymous":false,"inputs":[{"indexed":true,"internalType":"address","name":"to","type":"address"},{"indexed":false,"internalType":"uint256","name":"amount","type":"uint256"}],"name":"TokensMinted","type":"event"},{"anonymous":false,"inputs":[{"indexed":true,"internalType":"address","name":"_userAddress","type":"address"},{"indexed":false,"internalType":"uint256","name":"_amount","type":"uint256"}],"name":"TokensUnfrozen","type":"event"},{"anonymous":false,"inputs":[{"indexed":true,"internalType":"address","name":"from","type":"address"},{"indexed":true,"internalType":"address","name":"to","type":"address"},{"indexed":false,"internalType":"uint256","name":"value","type":"uint256"}],"name":"Transfer","type":"event"},{"anonymous":false,"inputs":[{"indexed":false,"internalType":"address","name":"account","type":"address"}],"name":"Unpaused","type":"event"},{"anonymous":false,"inputs":[{"indexed":true,"internalType":"string","name":"_newName","type":"string"},{"indexed":true,"internalType":"string","name":"_newSymbol","type":"string"},{"indexed":false,"internalType":"uint8","name":"_newDecimals","type":"uint8"},{"indexed":false,"internalType":"string","name":"_newVersion","type":"string"},{"indexed":true,"internalType":"address","name":"_newOnchainID","type":"address"}],"name":"UpdatedTokenInformation","type":"event"},{"anonymous":false,"inputs":[{"indexed":true,"internalType":"address","name":"implementation","type":"address"}],"name":"Upgraded","type":"event"},{"inputs":[],"name":"AGENT_ROLE","outputs":[{"internalType":"bytes32","name":"","type":"bytes32"}],"stateMutability":"view","type":"function"},{"inputs":[],"name":"BURNER_ROLE","outputs":[{"internalType":"bytes32","name":"","type":"bytes32"}],"stateMutability":"view","type":"function"},{"inputs":[],"name":"COMPLIANCE_ROLE","outputs":[{"internalType":"bytes32","name":"","type":"bytes32"}],"stateMutability":"view","type":"function"},{"inputs":[],"name":"DEFAULT_ADMIN_ROLE","outputs":[{"internalType":"bytes32","name":"","type":"bytes32"}],"stateMutability":"view","type":"function"},{"inputs":[],"name":"MINTER_ROLE","outputs":[{"internalType":"bytes32","name":"","type":"bytes32"}],"stateMutability":"view","type":"function"},{"inputs":[],"name":"RECOVERY_ROLE","outputs":[{"internalType":"bytes32","name":"","type":"bytes32"}],"stateMutability":"view","type":"function"},{"inputs":[],"name":"SNAPSHOT_ROLE","outputs":[{"internalType":"bytes32","name":"","type":"bytes32"}],"stateMutability":"view","type":"function"},{"inputs":[{"internalType":"address","name":"owner","type":"address"},{"internalType":"address","name":"spender","type":"address"}],"name":"allowance","outputs":[{"internalType":"uint256","name":"","type":"uint256"}],"stateMutability":"view","type":"function"},{"inputs":[{"internalType":"address","name":"spender","type":"address"},{"internalType":"uint256","name":"amount","type":"uint256"}],"name":"approve","outputs":[{"internalType":"bool","name":"","type":"bool"}],"stateMutability":"nonpayable","type":"function"},{"inputs":[{"internalType":"address","name":"account","type":"address"}],"name":"balanceOf","outputs":[{"internalType":"uint256","name":"","type":"uint256"}],"stateMutability":"view","type":"function"},{"inputs":[{"internalType":"address","name":"account","type":"address"},{"internalType":"uint256","name":"snapshotId","type":"uint256"}],"name":"balanceOfAt","outputs":[{"internalType":"uint256","name":"","type":"uint256"}],"stateMutability":"view","type":"function"},{"inputs":[{"internalType":"address[]","name":"_addrs","type":"address[]"},{"internalType":"uint256[]","name":"_amounts","type":"uint256[]"}],"name":"batchBurn","outputs":[],"stateMutability":"nonpayable","type":"function"},{"inputs":[{"internalType":"address[]","name":"_wallets","type":"address[]"},{"components":[{"internalType":"uint8","name":"level","type":"uint8"},{"internalType":"uint16","name":"countryCode","type":"uint16"},{"internalType":"uint256","name":"expiry","type":"uint256"},{"internalType":"bytes","name":"signature","type":"bytes"}],"internalType":"struct RWASecurityToken.KYCProof[]","name":"_proofs","type":"tuple[]"}],"name":"batchCacheKYC","outputs":[],"stateMutability":"nonpayable","type":"function"},{"inputs":[{"internalType":"address[]","name":"_fromList","type":"address[]"},{"internalType":"address[]","name":"_toList","type":"address[]"},{"internalType":"uint256[]","name":"_amounts","type":"uint256[]"}],"name":"batchForcedTransfer","outputs":[],"stateMutability":"nonpayable","type":"function"},{"inputs":[{"internalType":"address[]","name":"_addrs","type":"address[]"},{"internalType":"uint256[]","name":"_amounts","type":"uint256[]"}],"name":"batchFreezePartialTokens","outputs":[],"stateMutability":"nonpayable","type":"function"},{"inputs":[{"internalType":"address[]","name":"_toList","type":"address[]"},{"internalType":"uint256[]","name":"_amounts","type":"uint256[]"}],"name":"batchMint","outputs":[],"stateMutability":"nonpayable","type":"function"},{"inputs":[{"internalType":"address[]","name":"_addrs","type":"address[]"},{"internalType":"bool[]","name":"_freeze","type":"bool[]"}],"name":"batchSetAddressFrozen","outputs":[],"stateMutability":"nonpayable","type":"function"},{"inputs":[{"internalType":"address[]","name":"_addrs","type":"address[]"},{"internalType":"uint256[]","name":"_amounts","type":"uint256[]"}],"name":"batchUnfreezePartialTokens","outputs":[],"stateMutability":"nonpayable","type":"function"},{"inputs":[{"internalType":"address","name":"_userAddress","type":"address"},{"internalType":"uint256","name":"_amount","type":"uint256"}],"name":"burn","outputs":[],"stateMutability":"nonpayable","type":"function"},{"inputs":[{"internalType":"address","name":"_wallet","type":"address"},{"components":[{"internalType":"uint8","name":"level","type":"uint8"},{"internalType":"uint16","name":"countryCode","type":"uint16"},{"internalType":"uint256","name":"expiry","type":"uint256"},{"internalType":"bytes","name":"signature","type":"bytes"}],"internalType":"struct RWASecurityToken.KYCProof","name":"_proof","type":"tuple"}],"name":"cacheKYC","outputs":[],"stateMutability":"nonpayable","type":"function"},{"inputs":[],"name":"compliance","outputs":[{"internalType":"contract IModularCompliance","name":"","type":"address"}],"stateMutability":"view","type":"function"},{"inputs":[],"name":"decimals","outputs":[{"internalType":"uint8","name":"","type":"uint8"}],"stateMutability":"view","type":"function"},{"inputs":[{"internalType":"address","name":"spender","type":"address"},{"internalType":"uint256","name":"subtractedValue","type":"uint256"}],"name":"decreaseAllowance","outputs":[{"internalType":"bool","name":"","type":"bool"}],"stateMutability":"nonpayable","type":"function"},{"inputs":[{"internalType":"address","name":"_from","type":"address"},{"internalType":"address","name":"_to","type":"address"},{"internalType":"uint256","name":"_amount","type":"uint256"}],"name":"forcedTransfer","outputs":[{"internalType":"bool","name":"","type":"bool"}],"stateMutability":"nonpayable","type":"function"},{"inputs":[{"internalType":"address","name":"_userAddress","type":"address"},{"internalType":"uint256","name":"_amount","type":"uint256"}],"name":"freezePartialTokens","outputs":[],"stateMutability":"nonpayable","type":"function"},{"inputs":[{"internalType":"address","name":"_wallet","type":"address"}],"name":"getCachedKYC","outputs":[{"internalType":"uint8","name":"","type":"uint8"},{"internalType":"uint16","name":"","type":"uint16"},{"internalType":"uint256","name":"","type":"uint256"},{"internalType":"uint256","name":"","type":"uint256"},{"internalType":"bool","name":"","type":"bool"}],"stateMutability":"view","type":"function"},{"inputs":[],"name":"getCurrentSnapshotId","outputs":[{"internalType":"uint256","name":"","type":"uint256"}],"stateMutability":"view","type":"function"},{"inputs":[{"internalType":"address","name":"_addr","type":"address"}],"name":"getFrozenTokens","outputs":[{"internalType":"uint256","name":"","type":"uint256"}],"stateMutability":"view","type":"function"},{"inputs":[],"name":"getKYCVerifier","outputs":[{"internalType":"address","name":"","type":"address"}],"stateMutability":"view","type":"function"},{"inputs":[{"internalType":"bytes32","name":"role","type":"bytes32"}],"name":"getRoleAdmin","outputs":[{"internalType":"bytes32","name":"","type":"bytes32"}],"stateMutability":"view","type":"function"},{"inputs":[{"internalType":"uint256","name":"_id","type":"uint256"}],"name":"getSnapshotBlock","outputs":[{"internalType":"uint256","name":"","type":"uint256"}],"stateMutability":"view","type":"function"},{"inputs":[{"internalType":"address","name":"_addr","type":"address"}],"name":"getUnfrozenBalance","outputs":[{"internalType":"uint256","name":"","type":"uint256"}],"stateMutability":"view","type":"function"},{"inputs":[{"internalType":"bytes32","name":"role","type":"bytes32"},{"internalType":"address","name":"account","type":"address"}],"name":"grantRole","outputs":[],"stateMutability":"nonpayable","type":"function"},{"inputs":[{"internalType":"bytes32","name":"role","type":"bytes32"},{"internalType":"address","name":"account","type":"address"}],"name":"hasRole","outputs":[{"internalType":"bool","name":"","type":"bool"}],"stateMutability":"view","type":"function"},{"inputs":[{"internalType":"address","name":"spender","type":"address"},{"internalType":"uint256","name":"addedValue","type":"uint256"}],"name":"increaseAllowance","outputs":[{"internalType":"bool","name":"","type":"bool"}],"stateMutability":"nonpayable","type":"function"},{"inputs":[{"internalType":"string","name":"_name","type":"string"},{"internalType":"string","name":"_symbol","type":"string"},{"internalType":"address","name":"_admin","type":"address"},{"internalType":"address","name":"_compliance","type":"address"},{"internalType":"address","name":"_kycVerifier","type":"address"},{"internalType":"uint256","name":"_maxSupply","type":"uint256"}],"name":"initialize","outputs":[],"stateMutability":"nonpayable","type":"function"},{"inputs":[{"internalType":"uint16","name":"_code","type":"uint16"}],"name":"isCountryRestricted","outputs":[{"internalType":"bool","name":"","type":"bool"}],"stateMutability":"view","type":"function"},{"inputs":[{"internalType":"address","name":"_addr","type":"address"}],"name":"isFrozen","outputs":[{"internalType":"bool","name":"","type":"bool"}],"stateMutability":"view","type":"function"},{"inputs":[{"internalType":"address","name":"_wallet","type":"address"}],"name":"isKYCValid","outputs":[{"internalType":"bool","name":"","type":"bool"}],"stateMutability":"view","type":"function"},{"inputs":[{"internalType":"string","name":"_ref","type":"string"}],"name":"isPaymentProcessed","outputs":[{"internalType":"bool","name":"","type":"bool"}],"stateMutability":"view","type":"function"},{"inputs":[],"name":"kycCacheValidityDuration","outputs":[{"internalType":"uint256","name":"","type":"uint256"}],"stateMutability":"view","type":"function"},{"inputs":[],"name":"kycEnforced","outputs":[{"internalType":"bool","name":"","type":"bool"}],"stateMutability":"view","type":"function"},{"inputs":[],"name":"kycVerifier","outputs":[{"internalType":"contract IKYCVerifier","name":"","type":"address"}],"stateMutability":"view","type":"function"},{"inputs":[],"name":"maxSupply","outputs":[{"internalType":"uint256","name":"","type":"uint256"}],"stateMutability":"view","type":"function"},{"inputs":[],"name":"minKYCLevel","outputs":[{"internalType":"uint8","name":"","type":"uint8"}],"stateMutability":"view","type":"function"},{"inputs":[{"internalType":"address","name":"_to","type":"address"},{"internalType":"uint256","name":"_amount","type":"uint256"}],"name":"mint","outputs":[],"stateMutability":"nonpayable","type":"function"},{"inputs":[{"internalType":"address","name":"_to","type":"address"},{"internalType":"uint256","name":"_amount","type":"uint256"},{"internalType":"string","name":"_ref","type":"string"}],"name":"mintForOffChainPayment","outputs":[],"stateMutability":"nonpayable","type":"function"},{"inputs":[{"internalType":"address","name":"_to","type":"address"},{"internalType":"uint256","name":"_amount","type":"uint256"},{"components":[{"internalType":"uint8","name":"level","type":"uint8"},{"internalType":"uint16","name":"countryCode","type":"uint16"},{"internalType":"uint256","name":"expiry","type":"uint256"},{"internalType":"bytes","name":"signature","type":"bytes"}],"internalType":"struct RWASecurityToken.KYCProof","name":"_proof","type":"tuple"}],"name":"mintWithKYC","outputs":[],"stateMutability":"nonpayable","type":"function"},{"inputs":[],"name":"name","outputs":[{"internalType":"string","name":"","type":"string"}],"stateMutability":"view","type":"function"},{"inputs":[],"name":"onchainID","outputs":[{"internalType":"address","name":"","type":"address"}],"stateMutability":"view","type":"function"},{"inputs":[],"name":"pause","outputs":[],"stateMutability":"nonpayable","type":"function"},{"inputs":[],"name":"paused","outputs":[{"internalType":"bool","name":"","type":"bool"}],"stateMutability":"view","type":"function"},{"inputs":[],"name":"proxiableUUID","outputs":[{"internalType":"bytes32","name":"","type":"bytes32"}],"stateMutability":"view","type":"function"},{"inputs":[{"internalType":"address","name":"_lostWallet","type":"address"},{"internalType":"address","name":"_newWallet","type":"address"},{"internalType":"address","name":"_investorOnchainID","type":"address"}],"name":"recoveryAddress","outputs":[{"internalType":"bool","name":"","type":"bool"}],"stateMutability":"nonpayable","type":"function"},{"inputs":[{"internalType":"bytes32","name":"role","type":"bytes32"},{"internalType":"address","name":"account","type":"address"}],"name":"renounceRole","outputs":[],"stateMutability":"nonpayable","type":"function"},{"inputs":[{"internalType":"bytes32","name":"role","type":"bytes32"},{"internalType":"address","name":"account","type":"address"}],"name":"revokeRole","outputs":[],"stateMutability":"nonpayable","type":"function"},{"inputs":[{"internalType":"address","name":"_userAddress","type":"address"},{"internalType":"bool","name":"_freeze","type":"bool"}],"name":"setAddressFrozen","outputs":[],"stateMutability":"nonpayable","type":"function"},{"inputs":[{"internalType":"address","name":"_compliance","type":"address"}],"name":"setCompliance","outputs":[],"stateMutability":"nonpayable","type":"function"},{"inputs":[{"internalType":"uint16","name":"_countryCode","type":"uint16"},{"internalType":"bool","name":"_restricted","type":"bool"}],"name":"setCountryRestriction","outputs":[],"stateMutability":"nonpayable","type":"function"},{"inputs":[{"internalType":"uint256","name":"_duration","type":"uint256"}],"name":"setKYCCacheValidityDuration","outputs":[],"stateMutability":"nonpayable","type":"function"},{"inputs":[{"internalType":"bool","name":"_enforced","type":"bool"}],"name":"setKYCEnforced","outputs":[],"stateMutability":"nonpayable","type":"function"},{"inputs":[{"internalType":"address","name":"_kycVerifier","type":"address"}],"name":"setKYCVerifier","outputs":[],"stateMutability":"nonpayable","type":"function"},{"inputs":[{"internalType":"uint256","name":"_maxSupply","type":"uint256"}],"name":"setMaxSupply","outputs":[],"stateMutability":"nonpayable","type":"function"},{"inputs":[{"internalType":"uint8","name":"_level","type":"uint8"}],"name":"setMinKYCLevel","outputs":[],"stateMutability":"nonpayable","type":"function"},{"inputs":[{"internalType":"string","name":"_name","type":"string"}],"name":"setName","outputs":[],"stateMutability":"nonpayable","type":"function"},{"inputs":[{"internalType":"address","name":"_onchainID","type":"address"}],"name":"setOnchainID","outputs":[],"stateMutability":"nonpayable","type":"function"},{"inputs":[{"internalType":"string","name":"_symbol","type":"string"}],"name":"setSymbol","outputs":[],"stateMutability":"nonpayable","type":"function"},{"inputs":[],"name":"snapshot","outputs":[{"internalType":"uint256","name":"","type":"uint256"}],"stateMutability":"nonpayable","type":"function"},{"inputs":[{"internalType":"bytes4","name":"interfaceId","type":"bytes4"}],"name":"supportsInterface","outputs":[{"internalType":"bool","name":"","type":"bool"}],"stateMutability":"view","type":"function"},{"inputs":[],"name":"symbol","outputs":[{"internalType":"string","name":"","type":"string"}],"stateMutability":"view","type":"function"},{"inputs":[],"name":"totalSupply","outputs":[{"internalType":"uint256","name":"","type":"uint256"}],"stateMutability":"view","type":"function"},{"inputs":[{"internalType":"uint256","name":"snapshotId","type":"uint256"}],"name":"totalSupplyAt","outputs":[{"internalType":"uint256","name":"","type":"uint256"}],"stateMutability":"view","type":"function"},{"inputs":[{"internalType":"address","name":"to","type":"address"},{"internalType":"uint256","name":"amount","type":"uint256"}],"name":"transfer","outputs":[{"internalType":"bool","name":"","type":"bool"}],"stateMutability":"nonpayable","type":"function"},{"inputs":[{"internalType":"address","name":"from","type":"address"},{"internalType":"address","name":"to","type":"address"},{"internalType":"uint256","name":"amount","type":"uint256"}],"name":"transferFrom","outputs":[{"internalType":"bool","name":"","type":"bool"}],"stateMutability":"nonpayable","type":"function"},{"inputs":[{"internalType":"address","name":"_userAddress","type":"address"},{"internalType":"uint256","name":"_amount","type":"uint256"}],"name":"unfreezePartialTokens","outputs":[],"stateMutability":"nonpayable","type":"function"},{"inputs":[],"name":"unpause","outputs":[],"stateMutability":"nonpayable","type":"function"},{"inputs":[{"internalType":"address","name":"newImplementation","type":"address"}],"name":"upgradeTo","outputs":[],"stateMutability":"nonpayable","type":"function"},{"inputs":[{"internalType":"address","name":"newImplementation","type":"address"},{"internalType":"bytes","name":"data","type":"bytes"}],"name":"upgradeToAndCall","outputs":[],"stateMutability":"payable","type":"function"},{"inputs":[],"name":"version","outputs":[{"internalType":"string","name":"","type":"string"}],"stateMutability":"view","type":"function"}],"evm":{"bytecode":{"linkReferences":{},"object":"60a08060405234620000e157306080526000549060ff8260081c166200008f575060ff8082160362000053575b604051615e2a9081620000e7823960805181818161240e015281816125090152612ffe0152f35b60ff90811916176000557f7f26b83ff96e1f2b6a682f133852f6798a09c465da95921460cefb3847402498602060405160ff8152a1386200002c565b62461bcd60e51b815260206004820152602760248201527f496e697469616c697a61626c653a20636f6e747261637420697320696e697469604482015266616c697a696e6760c81b6064820152608490fd5b600080fdfe608060408181526004908136101561001657600080fd5b600092833560e01c90816301ffc9a714613d1e575080630615f67714613c9e578063062d3bd714613c6357806306fdde0314613c3e578063095ea7b314613c145780630c848ed314613bf4578063125c4a3314613b4f578063149f2e8814613af8578063158b1a5714613abf57806316442f5814613a9657806318160ddd14613a775780631a7af379146139685780631fe56f7d146138cb57806322459e181461389057806323b872dd146137d7578063248a9ca3146137ab578063282c51f3146137705780632f2ff15d146136d65780632f7506091461368157806330957ba8146135ce578063313ce567146135b257806331993a1c1461357757806331ac1a7a1461332257806336568abe146132905780633659cfe614612fd85780633950935114612f895780633d1ddc5b14612ee85780633f4ba83a14612e5257806340c10f1914612d3e57806342a47abc14612a3d5780634710362d1461294c5780634a6cc677146127ea5780634ee2cd7e1461278c5780634f1ef286146124bb57806352d1902d146123f95780635439ad86146123d957806354fd4d50146123b45780635c975abb146123905780636290865d14612366578063685731071461217b5780636cf30d8c1461212e5780636f8b44b0146120975780637028e2cd1461205c57806370a0823114612034578063778af12b14611fb75780638446fae414611f6b5780638456cb5914611f105780638b3c493214611eac57806391d1485414611e655780639285948a14611c0857806395d89b4114611bce5780639711715a14611949578063981b24d0146119105780639dc29fac146118135780639fc1d0e714611692578063a1f8fb4c14611622578063a217fddf14611607578063a226e445146115e2578063a457c2d714611539578063a9059cbb14611508578063aba63705146114de578063b60da085146113ff578063b84c824614611429578063b937e7cc146113ff578063bc4c8552146113c7578063c409e58b146113a4578063c47f0027146112ea578063c69c09cf14611259578063cf0e0f9d1461122a578063d17f6417146111b5578063d53913931461117a578063d547741f1461113c578063d59b7e4214610f74578063d5abeb0114610f54578063dd62ed3e14610f06578063e583983614610ec7578063edf3e29e1461057c578063f8981789146105005763fc7e5fa81461038957600080fd5b346104fc5761039736613e60565b90946103a49392936143c6565b8184036104ee57603284116104e05750855b8381106103c1578680f35b6103f5906001600160a01b03806103e16103dc8489896155ab565b6155bb565b1615158061047b575b6103fa575b5061559c565b6103b6565b7fa065e63c631c86f1b9f66a4a2f63f2093bf1c2168d23290259dbd969e0222a4561042683868b6155ab565b35826104366103dc868b8b6155ab565b168b526020906101fe825261044f8a8d20918254614b7d565b905561045f6103dc858a8a6155ab565b9261046b85888d6155ab565b35938a519485521692a2386103ef565b506104a861048d6103dc8489896155ab565b6001600160a01b031660009081526033602052604090205490565b816104b76103dc858a8a6155ab565b168a526101fe6020526104d9888b20546104d285888d6155ab565b3590614b7d565b11156103ea565b84516305beb17160e11b8152fd5b845163512509d360e11b8152fd5b8280fd5b5090346104fc5760203660031901126104fc5761051b613dc1565b610523614774565b6001600160a01b031691821561056f5750506101f580546001600160a01b031916821790557f7f3a888862559648ec01d97deb7b5012bff86dc91e654a1de397170db40e35b68280a280f35b5163e6c4247b60e01b8152fd5b50919034610ec35760c0366003190112610ec3576001600160401b03908035828111610ebf576105af90369083016141ed565b90602435838111610ebb576105c790369083016141ed565b946105d0613ded565b956001600160a01b0393606435858116949190859003610eb65760843596868816809803610eb65788549360ff93848660081c16159889809a610eaa575b8015610e94575b15610e3a578b9c60019c9b9c9b8c988c60ff199a8b8316178355610e28575b5050169384158015610e20575b8015610e18575b610e0957610664868e5460081c1661065f816154f8565b6154f8565b805190848211610df6578d829161067c603654613fb1565b601f8111610da7575b50602091601f8411600114610d1e5792610d13575b5050600019600383901b1c1916908b1b176036555b8151928311610d00575081906106c6603754613fb1565b601f8111610ca6575b50602090601f8311600114610c27578c92610c1c575b5050600019600383901b1c191690881b176037555b610742828a5460081c1661070d816154f8565b610716816154f8565b8460655416606555610727816154f8565b610730816154f8565b610739816154f8565b61065f816154f8565b866101c3556000805261012d8060205284600020826000526020528285600020541615610be2575b7f9f2df0fed2c77648de5860a4cc508cd0818c85b8b8a1ab4ceeef8d981c8956a6806000528160205285600020836000526020528386600020541615610ba7575b507f3c11d16cbaffd01df69ce1c404f6340ee057498f5f00246190ea54220576a848806000528160205285600020836000526020528386600020541615610b6c575b507f442a94f1a1fac79af32856af2a64f63648cfa2ef3b98610a5bb7cbec4cee6985806000528160205285600020836000526020528386600020541615610b31575b507f5fdbd35e8da83ee755d5e62a539e5ed7f47126abede0b8b10f9ea43dc6eed07f806000528160205285600020836000526020528386600020541615610af6575b507fcab5a0bfe0b79d2c4b1c2e02599fa044d115b7511f9659307cb4276950967709806000528160205285600020836000526020528386600020541615610abb575b507f0acf805600123ef007091da3b3ffb39474074c656c127aa68cb0ffec232a8ff8928360005281602052856000208360005260205285600020541615610a80575b5050506bffffffffffffffffffffffff60a01b6101f58482825416179055866101f69182541617905560a4356101f7556101f96109328154613fb1565b601f8111610a35575b50600a640322e312e360dc1b0190556102008054821686179055610e10610202556102038054821690556101988752610201602052818720805482168617905561016c875281872080548216861790556102f88752818720805482168617905560c087528187208054909116851790555193857f4900e8de75d157a21080e6f17b8c48972095afb692f9fd506645277c99153ae38180a37f7f3a888862559648ec01d97deb7b5012bff86dc91e654a1de397170db40e35b68580a26109fe578280f35b825461ff001916835581527f7f26b83ff96e1f2b6a682f133852f6798a09c465da95921460cefb384740249890602090a138808280f35b8160005286601f7f29eba5f30ca2030a69ed2d7f74871c83bbc526b071320256f127653c7dfff4e9920160051c8201915b828110610a7457505061093b565b60008155018790610a66565b8260005260205283600020816000526020528360002087848254161790553391600080516020615d75833981519152600080a43880806108f5565b80600052816020528560002083600052602052856000208986825416179055823391600080516020615d75833981519152600080a4386108b3565b80600052816020528560002083600052602052856000208986825416179055823391600080516020615d75833981519152600080a438610871565b80600052816020528560002083600052602052856000208986825416179055823391600080516020615d75833981519152600080a43861082f565b80600052816020528560002083600052602052856000208986825416179055823391600080516020615d75833981519152600080a4386107ed565b80600052816020528560002083600052602052856000208986825416179055823391600080516020615d75833981519152600080a4386107ab565b6000805280602052846000208260005260205284600020888582541617905533826000600080516020615d758339815191528180a461076a565b0151905038806106e5565b60378d528a93507f42a7b7dd785cd69714a189dffb3fd7d7174edc9ece837694ce50f7078f7c31ae9190601f1984168e5b818110610c8e57508411610c75575b505050811b016037556106fa565b015160001960f88460031b161c19169055388080610c67565b8284015185558d969094019360209384019301610c58565b610cf09060376000527f42a7b7dd785cd69714a189dffb3fd7d7174edc9ece837694ce50f7078f7c31ae601f850160051c81019160208610610cf6575b601f0160051c01906154e1565b386106cf565b9091508190610ce3565b634e487b7160e01b8c526041905260248bfd5b01519050388061069a565b91908e9450601f198416603684527f4a11f94e20a93c79f6ec743a1954ec4fc2c08429ae2122118bf234b2185c81b8935b818110610d8557508411610d6c575b505050811b016036556106af565b015160001960f88460031b161c19169055388080610d5e565b93839596602092939491839286015181550195019301908f9594939291610d4f565b610df09060366000527f4a11f94e20a93c79f6ec743a1954ec4fc2c08429ae2122118bf234b2185c81b8601f860160051c81019160208710610cf657601f0160051c01906154e1565b38610685565b634e487b7160e01b8e526041835260248efd5b50865163e6c4247b60e01b8152fd5b508b15610648565b508815610641565b61ffff19166101011790558d38610634565b875162461bcd60e51b8152602081840152602e60248201527f496e697469616c697a61626c653a20636f6e747261637420697320616c72656160448201526d191e481a5b9a5d1a585b1a5e995960921b6064820152608490fd5b50303b1580156106155750600186881614610615565b5060018688161061060e565b600080fd5b8480fd5b8380fd5b5080fd5b838234610ec3576020366003190112610ec35760209160ff9082906001600160a01b03610ef2613dc1565b1681526101fd855220541690519015158152f35b838234610ec35780600319360112610ec357602091610f23613dc1565b82610f2c613dd7565b6001600160a01b03928316845260348652922091166000908152908352819020549051908152f35b838234610ec35781600319360112610ec3576020906101f7549051908152f35b5090346104fc5760603660031901126104fc57610f8f613dc1565b916024356044356001600160401b0381116110ee57610fb19036908501613e03565b9093610fbb614500565b610fc3615558565b6001600160a01b038681169690871561112c57610fe285603554614b7d565b6101f7541061111c57610ff48261580f565b1561110c5785518488823760ff858201916020816101fc948581520301902054166110fc579089939291602088518092888c833781890190815203019020805460ff1916600117905561104786836158ca565b6101f5541691823b15610ebf578651635f8dead360e01b81526001600160a01b03909216908201908152602081018690529091839183919082908490829060400103925af180156110f2576110da575b50507f159bd2d45ddfd0857ac3174ea323b67309ca30d284f2fc364e1f4e4727df985f936110d49184519485948552806020860152840191615636565b0390a280f35b6110e390613f10565b6110ee578538611097565b8580fd5b85513d84823e3d90fd5b865163424e8d7160e01b81528490fd5b855163174a0ba560e31b81528390fd5b8551638a164f6360e01b81528390fd5b855163e6c4247b60e01b81528390fd5b50346104fc57806003193601126104fc576111779135611172600161115f613dd7565b9383875261012d602052862001546148ae565b6149ad565b80f35b838234610ec35781600319360112610ec357602090517f9f2df0fed2c77648de5860a4cc508cd0818c85b8b8a1ab4ceeef8d981c8956a68152f35b50346104fc5760203660031901126104fc576111cf613dc1565b916111d8614774565b6001600160a01b0392831691821561056f5750506101f6918183549182167f4900e8de75d157a21080e6f17b8c48972095afb692f9fd506645277c99153ae38680a36001600160a01b03191617905580f35b838234610ec3576020366003190112610ec35760209061125061124b613dc1565b61580f565b90519015158152f35b5090346104fc57816003193601126104fc57611273613dc1565b9161127c6141de565b926112856143c6565b6001600160a01b03169182156112dc57508184526101fd6020528320805460ff191660ff8415151617905533911515907f7fa523c84ab8d7fc5b72f08b9e46dbbf10c39e119a075b3e317002d14bc9f4368480a480f35b905163e6c4247b60e01b8152fd5b5090346104fc5760203660031901126104fc578035906001600160401b038211610ebf5761131a91369101613e03565b61132592919261420b565b7f6a1105ac8148a3c319adbc369f9072573e8a11d3a3d195e067e7c40767ec54d161139e6113878451936113638561135c8161408f565b0386613f3e565b60018060a01b036101f854169681875192839283378101600081520390209361589d565b938051918291601283528060208401528201614116565b0390a480f35b838234610ec35781600319360112610ec35760209060ff61020054169051908152f35b838234610ec3576020366003190112610ec35760ff8160209361ffff6113eb6141cd565b168152610201855220541690519015158152f35b838234610ec35781600319360112610ec3576101f65490516001600160a01b039091168152602090f35b5090346104fc5760203660031901126104fc578035906001600160401b038211610ebf5761145991369101613e03565b919061146361420b565b7f6a1105ac8148a3c319adbc369f9072573e8a11d3a3d195e067e7c40767ec54d161139e83519461149e8661149781613feb565b0387613f3e565b6101f8546001600160a01b0316956114b59061589d565b938186519283928337810160008152039020938051918291601283528060208401528201614116565b838234610ec35781600319360112610ec3576101f85490516001600160a01b039091168152602090f35b838234610ec35780600319360112610ec357602090611532611528613dc1565b6024359033614ba0565b5160018152f35b5091346115df57826003193601126115df57611553613dc1565b91836024359233815260346020522060018060a01b03841660005260205283600020549082821061158e576020856115328585038733614f27565b608490602086519162461bcd60e51b8352820152602560248201527f45524332303a2064656372656173656420616c6c6f77616e63652062656c6f77604482015264207a65726f60d81b6064820152fd5b80fd5b838234610ec35781600319360112610ec35760209060ff610203541690519015158152f35b838234610ec35781600319360112610ec35751908152602090f35b838234610ec3576020366003190112610ec357908160a092611642613dc1565b92600180861b03841681526101ff602052209182549261166b600260018301549201549261580f565b9261ffff81519560ff8116875260081c166020860152840152606083015215156080820152f35b5090346104fc576116a236613eaa565b9290916116ad6143c6565b6116b5615558565b6001600160a01b03818116158015611809575b61112c576116d58461580f565b1561110c576101f5805487516372331c7360e11b81526001600160a01b03858116878301908152908816602080830191909152604082018a90529192839182900360600190829087165afa9081156117ff5789916117d1575b50156117c15790829161174587878b989796614ba0565b541691823b15610ebb5786516322ebca6d60e21b81526001600160a01b039283169181019182529190931660208401526040830194909452839182908490829060600103925af180156117b5576117a1575b6020825160018152f35b6117ab8391613f10565b610ec35781611797565b505051903d90823e3d90fd5b86516310a151f560e01b81528490fd5b6117f2915060203d81116117f8575b6117ea8183613f3e565b81019061561e565b3861172e565b503d6117e0565b88513d8b823e3d90fd5b50808416156116c8565b5090346104fc57816003193601126104fc5761182d613dc1565b916024359161183a61463a565b611842615558565b6001600160a01b038481169490851561190057908692916118638683615b18565b6101f5541691823b15610ebf57845163469753b960e11b81526001600160a01b03909216908201908152602081018690529091839183919082908490829060400103925af180156118f6576118e2575b50507ffd38818f5291bf0bb3a2a48aadc06ba8757865d1dabd804585338aab3009dcb69160209151908152a280f35b6118eb90613f10565b610ebf5783386118b3565b83513d84823e3d90fd5b835163e6c4247b60e01b81528390fd5b5090346104fc5760203660031901126104fc5791611930602093356150c5565b91501561193f57905b51908152f35b5060355490611939565b50829034610ec35781600319360112610ec3577f5fdbd35e8da83ee755d5e62a539e5ed7f47126abede0b8b10f9ea43dc6eed07f928360005260209361012d85528260002033600052855260ff83600020541615611a17575050600160cc5401918260cc557f8030e83b04d87bef53480e26263266d6ca66863aa8506aca6f2559d18aa1cb67848351858152a1826101fb558281526101fa84528143912055817f0a5b69dda4109f3b3c9a78321d06fd4c59f56d886e9c6c8abaddd33d3d16c103848351438152a251908152f35b8490611a22336153e3565b845190611a2e82613edf565b60428252838201926060368537825115611bb957603084538251600190811015611ba457607860218501536041905b808211611b37575050611af557611af1938693611add93611ace604894611aa59a519a85600080516020615d958339815191528d978801528251928391603789019101613d72565b8401917001034b99036b4b9b9b4b733903937b6329607d1b603784015251809386840190613d72565b01036028810187520185613f3e565b5162461bcd60e51b81529283928301613d95565b0390fd5b50505080606493519262461bcd60e51b845283015260248201527f537472696e67733a20686578206c656e67746820696e73756666696369656e746044820152fd5b9091600f81166010811015611b8f576f181899199a1a9b1b9c1cb0b131b232b360811b901a611b6684876153d2565b53871c918015611b7a576000190190611a5d565b601188634e487b7160e01b6000525260246000fd5b603289634e487b7160e01b6000525260246000fd5b603287634e487b7160e01b6000525260246000fd5b603286634e487b7160e01b6000525260246000fd5b838234610ec35781600319360112610ec3578051611c0491611bfa82611bf38161408f565b0383613f3e565b5191829182613d95565b0390f35b5091346115df5760603660031901126115df57611c23613dc1565b611c2b613dd7565b611c33613ded565b937f0acf805600123ef007091da3b3ffb39474074c656c127aa68cb0ffec232a8ff8958660005260209661012d88528160002033600052885260ff82600020541615611d935750611c82615558565b6001600160a01b038481169390929084158015611d89575b8015611d7f575b611d7057611cae8161580f565b15611d61578487526033895282872054918215611d5357507ff0c9129a94f30f1caaceb63e44b9811d0a3edf1d6c23757f346093af5553fed0939291611d47918689526101fe8b52838920549785821698898b52858b2055878a5289858120556101fd8c52611d3460ff868c2054168a8c52868c209060ff801983541691151516179055565b878a52848a20805460ff19169055614ba0565b5195169380a460018152f35b835163a4b6690960e01b8152fd5b50905163174a0ba560e31b8152fd5b50905163e6c4247b60e01b8152fd5b5083881615611ca1565b5083811615611c9a565b878391611d9f336153e3565b845190611dab82613edf565b60428252838201926060368537825115611bb957603084538251600190811015611ba457607860218501536041905b808211611e22575050611af557611af1938693611add93611ace604894611aa59a519a85600080516020615d958339815191528d978801528251928391603789019101613d72565b9091600f81166010811015611b8f576f181899199a1a9b1b9c1cb0b131b232b360811b901a611e5184876153d2565b53871c918015611b7a576000190190611dda565b5090346104fc57816003193601126104fc5781602093611e83613dd7565b9235815261012d8552209060018060a01b0316600052825260ff81600020541690519015158152f35b5090346104fc5760203660031901126104fc573590811515809203610eb6577f739b4efcd22d225c4bbeed6e54a88253a34d8da882233c30550a40fcff3ddcd291602091611ef861420b565b61020360ff1981541660ff841617905551908152a180f35b838234610ec35781600319360112610ec35760207f62e78cea01bee320cd4e420270b5ea74000d11b0c9f74754ebdbfc544b05a25891611f4e61420b565b611f56615558565b600160ff19606554161760655551338152a180f35b50346104fc5760031990368201126104fc57611f85613dc1565b90602435906001600160401b038211610ebb576080908236030112610ebf5761117792611fb0615558565b019061568e565b838234610ec35780600319360112610ec3577f9215246e93bea9c817db5ac4a897e08e604a0ab1e11cfa9295c828ef61003f486020611ff46141cd565b61ffff611fff6141de565b9161200861420b565b1693848652610201835261202a828288209060ff801983541691151516179055565b519015158152a280f35b838234610ec3576020366003190112610ec35760209061205561048d613dc1565b9051908152f35b838234610ec35781600319360112610ec357602090517f5fdbd35e8da83ee755d5e62a539e5ed7f47126abede0b8b10f9ea43dc6eed07f8152f35b50346104fc5760203660031901126104fc578135916120b461420b565b60355483106120f557507f44ecfc706d63e347851cfd40acfa6cf2e3a41faa3e8b460210c03938e84a91ad6101f79182548151908152846020820152a15580f35b6020606492519162461bcd60e51b8352820152601460248201527342656c6f772063757272656e7420737570706c7960601b6044820152fd5b5090346104fc5760203660031901126104fc5780359161214c61420b565b8215801561216f575b6121625750506102025580f35b51633d98a22f60e21b8152fd5b5062093a808311612155565b50346104fc5761218a36613e60565b9091612197949394614500565b61219f615558565b81810361235657603281116123465786805b828210612328576121c59150603554614b7d565b6101f7541061231857865b8181106121db578780f35b6001600160a01b0390816121f36103dc83868b6155ab565b16151580612301575b612210575b61220b915061559c565b6121d0565b6122336122216103dc83868b6155ab565b61222c8387896155ab565b35906158ca565b88826101f554166122486103dc84878c6155ab565b61225384888a6155ab565b35823b15610ebf578951635f8dead360e01b81526001600160a01b03909216828d0190815260208101919091529091839183919082908490829060400103925af180156122f7576122df575b505061220b91600080516020615db583398151915260206122c46103dc85888d6155ab565b926122d085898b6155ab565b35938a519485521692a2612201565b6122e890613f10565b6122f357883861229f565b8880fd5b88513d84823e3d90fd5b5061231361124b6103dc83868b6155ab565b6121fc565b8351638a164f6360e01b81528690fd5b61233a612340916104d28487896155ab565b9161559c565b906121b1565b83516305beb17160e11b81528690fd5b835163512509d360e11b81528690fd5b838234610ec35781600319360112610ec3576101f55490516001600160a01b039091168152602090f35b838234610ec35781600319360112610ec35760209060ff6065541690519015158152f35b838234610ec35781600319360112610ec3578051611c0491611bfa82611bf381614116565b838234610ec35781600319360112610ec3576020906101fb549051908152f35b5091346115df57806003193601126115df57507f00000000000000000000000000000000000000000000000000000000000000006001600160a01b031630036124535760208251600080516020615dd58339815191528152f35b6020608492519162461bcd60e51b8352820152603860248201527f555550535570677261646561626c653a206d757374206e6f742062652063616c60448201527f6c6564207468726f7567682064656c656761746563616c6c00000000000000006064820152fd5b50806003193601126104fc576124cf613dc1565b906024356001600160401b038111610ebb5736602382011215610ebb576124ff9036906024818701359101613f7a565b6001600160a01b037f0000000000000000000000000000000000000000000000000000000000000000811692919061253930851415614a2b565b612556600080516020615dd5833981519152948286541614614a8c565b61255e61420b565b7f4910fdfa16fed3260ed0e7147f7cc6da11a60208b5b9406d12a635614ffd91435460ff161561259657505050506111779150614aed565b82516352d1902d60e01b81526020959394918416919086818981865afa6000918161275d575b5061261b57855162461bcd60e51b8152808901889052602e60248201527f45524331393637557067726164653a206e657720696d706c656d656e7461746960448201526d6f6e206973206e6f74205555505360901b6064820152608490fd5b9691929594939603612708575061263185614aed565b7fbc7cd75a20ee27fd9adebab32041f755214dbc6bffa90cc0225b39da2e5c2d3b600080a2825115801590612700575b61266d575b5050505080f35b6126ec9360008083519561268087613f23565b602787527f416464726573733a206c6f772d6c6576656c2064656c65676174652063616c6c86880152660819985a5b195960ca1b858801528581519101845af4913d156126f6573d6126dd6126d482613f5f565b92519283613f3e565b8152600081943d92013e6151c0565b5038808080612666565b50606092506151c0565b506001612661565b825162461bcd60e51b8152908101849052602960248201527f45524331393637557067726164653a20756e737570706f727465642070726f786044820152681a58589b195555525160ba1b6064820152608490fd5b90918882813d8311612785575b6127748183613f3e565b810103126115df57505190386125bc565b503d61276a565b838234610ec35780600319360112610ec357602091816001600160a01b036127b2613dc1565b169182815260c985526127c9828220602435615189565b9390156127da575050509051908152f35b8152603385522054919050611939565b50346104fc576127f936613e60565b909161280694939461463a565b61280e615558565b818103612356576032811161234657865b81811061282a578780f35b6001600160a01b0390816128426103dc83868b6155ab565b16612857575b612852915061559c565b61281f565b61287a6128686103dc83868b6155ab565b6128738387896155ab565b3590615b18565b88826101f5541661288f6103dc84878c6155ab565b61289a84888a6155ab565b35823b15610ebf57895163469753b960e11b81526001600160a01b03909216828d0190815260208101919091529091839183919082908490829060400103925af180156122f757612938575b5050612852917ffd38818f5291bf0bb3a2a48aadc06ba8757865d1dabd804585338aab3009dcb6602061291d6103dc85888d6155ab565b9261292985898b6155ab565b35938a519485521692a2612848565b61294190613f10565b6122f35788386128e6565b50346104fc5761295b36613e60565b90946129689392936143c6565b8184036104ee57603284116104e05750855b838110612985578680f35b6129b3906001600160a01b03806129a06103dc8489896155ab565b16151580612a0d575b6129b8575061559c565b61297a565b7f9bed35cb62ad0dba04f9d5bfee4b5bc91443e77da8a65c4c84834c51bb08b0d66129e483868b6155ab565b35826129f46103dc868b8b6155ab565b168b526020906101fe825261044f8a8d20918254615251565b5080612a1d6103dc8489896155ab565b1689526101fe60205286892054612a3583868b6155ab565b3511156129a9565b5090346104fc5760603660031901126104fc576001600160401b03918135838111610ebb57612a6f9036908401613e30565b9390602435828111612d3a57612a889036908601613e30565b92604435908111612d3657612aa09036908701613e30565b9093612aaa6143c6565b612ab2615558565b808814801590612d2c575b612d1c5760328811612d0c57885b888110612ad6578980f35b896001600160a01b038685858c8c8f8b898589612af76103dc84878d6155ab565b1615159283612cf2575b83612cd7575b505050612b25575b5050505050505050612b209061559c565b612acb565b8d898d816101f599818c8c541696612b3c926155ab565b612b45906155bb565b97612b4f926155ab565b612b58906155bb565b96612b62926155ab565b91516372331c7360e11b81526001600160a01b0394851693810193845293909416602083810191909152903560408301529283918391908290819060600103915afa918215612ccd57878f8c8c958f958d958b92612cb0575b5050612bd1575b95508f9294508e919350612b0f565b92612bf76103dc8b612bfd95612bf16103dc838098612c049d9c9b6155ab565b986155ab565b936155ab565b3591614ba0565b5416612c146103dc848d8a6155ab565b612c226103dc85878a6155ab565b612c2d85888c6155ab565b3592803b15610ebb578b516322ebca6d60e21b81526001600160a01b03938416818f01908152939092166020840152604083019390935291839183919082908490829060600103925af18015612ca657612c8e575b80868987878f8c612bc2565b612c9790613f10565b612ca2578938612c82565b8980fd5b89513d84823e3d90fd5b612cc69250803d106117f8576117ea8183613f3e565b3880612bbb565b8c513d87823e3d90fd5b612cea9350916103dc9161124b936155ab565b89858e612b07565b925089612d036103dc8484876155ab565b16151592612b01565b85516305beb17160e11b81528790fd5b855163512509d360e11b81528790fd5b5081811415612abd565b8780fd5b8680fd5b5090346104fc57816003193601126104fc57612d58613dc1565b9160243591612d65614500565b612d6d615558565b6001600160a01b038481169490851561190057612d8c85603554614b7d565b6101f75410612e4257612d9e8261580f565b15612e325790869291612db186836158ca565b6101f5541691823b15610ebf578451635f8dead360e01b81526001600160a01b03909216908201908152602081018690529091839183919082908490829060400103925af180156118f657612e1e575b5050600080516020615db58339815191529160209151908152a280f35b612e2790613f10565b610ebf578338612e01565b835163174a0ba560e31b81528390fd5b8351638a164f6360e01b81528390fd5b5090346104fc57826003193601126104fc57612e6c61420b565b6065549060ff821615612eae575060ff1916606555513381527f5db9ee0a495bf2e6ff9c91a7834c1ba4fdd244a5e8aa4e537bd38aeae4b073aa90602090a180f35b606490602084519162461bcd60e51b8352820152601460248201527314185d5cd8589b194e881b9bdd081c185d5cd95960621b6044820152fd5b50346104fc5760203660031901126104fc57612f02613dc1565b612f0a61420b565b6001600160a01b03169182156112dc57506101f880546001600160a01b031916831790558051612f4481612f3d81613feb565b0382613f3e565b7f6a1105ac8148a3c319adbc369f9072573e8a11d3a3d195e067e7c40767ec54d161139e611387612f83855194612f7e866114978161408f565b61589d565b9361589d565b838234610ec35780600319360112610ec35761153260209282612faa613dc1565b91338152603486522060018060a01b0382166000528452612fd16024358460002054614b7d565b9033614f27565b50346104fc57602080600319360112610ebf57612ff3613dc1565b916001600160a01b037f0000000000000000000000000000000000000000000000000000000000000000811661302b30821415614a2b565b613048600080516020615dd5833981519152918383541614614a8c565b61305061420b565b825190848201928284106001600160401b0385111761327b578385528883527f4910fdfa16fed3260ed0e7147f7cc6da11a60208b5b9406d12a635614ffd91435460ff16156130a9575050505050506111779150614aed565b869293949596169085516352d1902d60e01b815287818a81865afa6000918161324c575b5061312c57865162461bcd60e51b8152808a01899052602e60248201527f45524331393637557067726164653a206e657720696d706c656d656e7461746960448201526d6f6e206973206e6f74205555505360901b6064820152608490fd5b9791929396959497036131f7575061314382614aed565b7fbc7cd75a20ee27fd9adebab32041f755214dbc6bffa90cc0225b39da2e5c2d3b600080a28351158015906131ef575b613180575b505050505080f35b6000806131e49684519661319388613f23565b602788527f416464726573733a206c6f772d6c6576656c2064656c65676174652063616c6c87890152660819985a5b195960ca1b868901525190845af4913d156126f6573d6126dd6126d482613f5f565b503880808080613178565b506000613173565b835162461bcd60e51b8152908101859052602960248201527f45524331393637557067726164653a20756e737570706f727465642070726f786044820152681a58589b195555525160ba1b6064820152608490fd5b90918982813d8311613274575b6132638183613f3e565b810103126115df57505190386130cd565b503d613259565b604188634e487b7160e01b6000525260246000fd5b50919034610ec35782600319360112610ec3576132ab613dd7565b90336001600160a01b038316036132c7579061117791356149ad565b608490602085519162461bcd60e51b8352820152602f60248201527f416363657373436f6e74726f6c3a2063616e206f6e6c792072656e6f756e636560448201526e103937b632b9903337b91039b2b63360891b6064820152fd5b50919034610ec357600319926060368501126104fc57613340613dc1565b9160243594604435906001600160401b0382116110ee5760808284019183360301126110ee5761336e614500565b613376615558565b6001600160a01b038581169590939086156135685761339789603554614b7d565b6101f75410613559576133aa83826159e2565b6133b3836155cf565b9460248501956002898b60446133c88b6155dd565b9901359860ff8c51956133da87613edf565b16855261ffff602086019116815260ff8c808701938c8552606088019542875281526101ff6020522095511662ffff008654925160081b169162ffffff191617178455516001840155519101556134318a836158ca565b6101f5541691823b156122f3578651635f8dead360e01b81526001600160a01b03909216908201908152602081018a90529091889183919082908490829060400103925af1801561354f576134f7575b50906134d46134ce6110d49387600080516020615db583398151915260207fed42ed2983f8437a9d3a38e7d50abc7050716d3ab29ff7f5a6b268533a3f55b99a9b9c8a51908152a26155cf565b936155dd565b93519384938461ffff60409295949360ff60608401971683521660208201520152565b6134ce6110d4939287600080516020615db583398151915260207fed42ed2983f8437a9d3a38e7d50abc7050716d3ab29ff7f5a6b268533a3f55b99a9b6135406134d497613f10565b9b505050975092935050613481565b85513d89823e3d90fd5b508451638a164f6360e01b8152fd5b50845163e6c4247b60e01b8152fd5b838234610ec35781600319360112610ec357602090517f0acf805600123ef007091da3b3ffb39474074c656c127aa68cb0ffec232a8ff88152f35b838234610ec35781600319360112610ec3576020905160128152f35b5090346104fc576135de36613e60565b94916135ec94919394615558565b858103613672576032928382116136635750865b81811061360b578780f35b6136196103dc8284896155ab565b9087811015613651578060051b860135607e1987360301811215612ca25761364c926136479188019061568e565b61559c565b613600565b634e487b7160e01b8952848452602489fd5b516305beb17160e11b81529050fd5b50905163512509d360e11b8152fd5b838234610ec3576020366003190112610ec3576020916001600160a01b036136a7613dc1565b16815260338352818120546101fe84528282205490818111156136ce576120559250615251565b505090611939565b5090346104fc57816003193601126104fc5735906136f2613dd7565b9082845261012d8060205261370c600183872001546148ae565b83855260208181528286206001600160a01b039094168087529390528185205460ff1615613738578480f35b8385526020528084208285526020528320600160ff198254161790553391600080516020615d758339815191528480a4388080808480f35b838234610ec35781600319360112610ec357602090517f3c11d16cbaffd01df69ce1c404f6340ee057498f5f00246190ea54220576a8488152f35b5090346104fc5760203660031901126104fc578160209360019235815261012d85522001549051908152f35b5091346115df57826137e836613eaa565b6001600160a01b03831685526034602090815284862033875290529290932054919390919060018201613824575b602086611532878787614ba0565b84821061384d57509183916138426020969561153295033383614f27565b919394819350613816565b606490602087519162461bcd60e51b8352820152601d60248201527f45524332303a20696e73756666696369656e7420616c6c6f77616e63650000006044820152fd5b838234610ec35781600319360112610ec357602090517fcab5a0bfe0b79d2c4b1c2e02599fa044d115b7511f9659307cb42769509677098152f35b50346104fc57806003193601126104fc576138e4613dc1565b90602435916138f16143c6565b6001600160a01b03169283156112dc578385526101fe908160205283838720541061395a5750916020917f9bed35cb62ad0dba04f9d5bfee4b5bc91443e77da8a65c4c84834c51bb08b0d6938587528352808620613950838254615251565b905551908152a280f35b8251630dd895cb60e11b8152fd5b5090346104fc5761397836613e60565b936139849391936143c6565b848303613a695760328311613a5b5750855b8281106139a1578680f35b6139c7906001600160a01b03806139bc6103dc8488886155ab565b166139cc575061559c565b613996565b613a0e6139e26139dd848a8a6155ab565b6158bd565b826139f16103dc868a8a6155ab565b168b526101fd602052898b209060ff801983541691151516179055565b613a1c6103dc8387876155ab565b613a2a6139dd848a8a6155ab565b913392151591167f7fa523c84ab8d7fc5b72f08b9e46dbbf10c39e119a075b3e317002d14bc9f4368b80a4386103ef565b85516305beb17160e11b8152fd5b855163512509d360e11b8152fd5b838234610ec35781600319360112610ec3576020906035549051908152f35b5090346104fc5760203660031901126104fc5760209282913581526101fa845220549051908152f35b838234610ec3576020366003190112610ec35760209181906001600160a01b03613ae7613dc1565b1681526101fe845220549051908152f35b5082346115df5760203660031901126115df578235906001600160401b0382116115df57506020613b2f819460ff93369101613e03565b9190828551938492833781016101fc815203019020541690519015158152f35b50346104fc57806003193601126104fc57613b68613dc1565b9060243591613b756143c6565b6001600160a01b03169283156112dc57838552603360205281852054906101fe9182602052613ba78585892054614b7d565b11613be65750916020917fa065e63c631c86f1b9f66a4a2f63f2093bf1c2168d23290259dbd969e0222a45938587528352808620613950838254614b7d565b82516311acc28f60e01b8152fd5b838234610ec35781600319360112610ec357602090610202549051908152f35b838234610ec35780600319360112610ec357602090611532613c34613dc1565b6024359033614f27565b838234610ec35781600319360112610ec3578051611c0491611bfa82611bf381613feb565b838234610ec35781600319360112610ec357602090517f442a94f1a1fac79af32856af2a64f63648cfa2ef3b98610a5bb7cbec4cee69858152f35b5090346104fc5760203660031901126104fc5780359060ff8216809203610ebf57613cc761420b565b808211613d105750610200917fa71931ddbbc8dd83299d827601bf2c7b962cf80465dc1cf5259521d550924dcb835491805160ff84168152846020820152a160ff191617905580f35b8251633d98a22f60e21b8152fd5b849084346104fc5760203660031901126104fc573563ffffffff60e01b81168091036104fc5760209250637965db0b60e01b8114908115613d61575b5015158152f35b6301ffc9a760e01b14905083613d5a565b60005b838110613d855750506000910152565b8181015183820152602001613d75565b60409160208252613db58151809281602086015260208686019101613d72565b601f01601f1916010190565b600435906001600160a01b0382168203610eb657565b602435906001600160a01b0382168203610eb657565b604435906001600160a01b0382168203610eb657565b9181601f84011215610eb6578235916001600160401b038311610eb65760208381860195010111610eb657565b9181601f84011215610eb6578235916001600160401b038311610eb6576020808501948460051b010111610eb657565b6040600319820112610eb6576001600160401b0391600435838111610eb65782613e8c91600401613e30565b93909392602435918211610eb657613ea691600401613e30565b9091565b6060906003190112610eb6576001600160a01b03906004358281168103610eb657916024359081168103610eb6579060443590565b608081019081106001600160401b03821117613efa57604052565b634e487b7160e01b600052604160045260246000fd5b6001600160401b038111613efa57604052565b606081019081106001600160401b03821117613efa57604052565b90601f801991011681019081106001600160401b03821117613efa57604052565b6001600160401b038111613efa57601f01601f191660200190565b929192613f8682613f5f565b91613f946040519384613f3e565b829481845281830111610eb6578281602093846000960137010152565b90600182811c92168015613fe1575b6020831014613fcb57565b634e487b7160e01b600052602260045260246000fd5b91607f1691613fc0565b60365460009291613ffb82613fb1565b80825291600190818116908115614072575060011461401957505050565b9192935060366000527f4a11f94e20a93c79f6ec743a1954ec4fc2c08429ae2122118bf234b2185c81b8916000925b84841061405a57505060209250010190565b80546020858501810191909152909301928101614048565b915050602093945060ff929192191683830152151560051b010190565b6037546000929161409f82613fb1565b8082529160019081811690811561407257506001146140bd57505050565b9192935060376000527f42a7b7dd785cd69714a189dffb3fd7d7174edc9ece837694ce50f7078f7c31ae916000925b8484106140fe57505060209250010190565b805460208585018101919091529093019281016140ec565b906000916101f990815461412981613fb1565b808352926001918083169081156141a85750600114614149575b50505050565b90929394506000527f29eba5f30ca2030a69ed2d7f74871c83bbc526b071320256f127653c7dfff4e9916000925b8484106141905750506020925001019038808080614143565b80546020858501810191909152909301928101614177565b92505050602093945060ff929192191683830152151560051b01019038808080614143565b6004359061ffff82168203610eb657565b602435908115158203610eb657565b9080601f83011215610eb65781602061420893359101613f7a565b90565b3360009081527fa581b17bfc4d6578e300cafbf34fd2dc1fef0270d8c73f88a99dcde2859a6639602090815260408083205490929060ff161561424d57505050565b614256336153e3565b8351908261426383613edf565b604283528483019360603686378351156143b257603085538351906001918210156143b25790607860218601536041915b8183116143445750505061430257611aa59385936142ec936142dd604894611af199519885600080516020615d958339815191528b978801528251928391603789019101613d72565b01036028810185520183613f3e565b5162461bcd60e51b815291829160048301613d95565b60648486519062461bcd60e51b825280600483015260248201527f537472696e67733a20686578206c656e67746820696e73756666696369656e746044820152fd5b909192600f8116601081101561439e576f181899199a1a9b1b9c1cb0b131b232b360811b901a61437485886153d2565b5360041c92801561438a57600019019190614294565b634e487b7160e01b82526011600452602482fd5b634e487b7160e01b83526032600452602483fd5b634e487b7160e01b81526032600452602490fd5b3360009081527fca3346ab0194374a9830c2a0a931880b81826ff6372ce38de14898a43cd3d16060209081526040808320549092907fcab5a0bfe0b79d2c4b1c2e02599fa044d115b7511f9659307cb42769509677099060ff161561442b5750505050565b614434336153e3565b84519161444083613edf565b604283528483019360603686378351156143b257603085538351906001918210156143b25790607860218601536041915b8183116144ba5750505061430257611aa59385936142ec936142dd604894611af199519885600080516020615d958339815191528b978801528251928391603789019101613d72565b909192600f8116601081101561439e576f181899199a1a9b1b9c1cb0b131b232b360811b901a6144ea85886153d2565b5360041c92801561438a57600019019190614471565b3360009081527fad02ca31225c1e77b97240fae26f6efe4c4dfc9dbe77f7a176ac7a45a4e1b80560209081526040808320549092907f9f2df0fed2c77648de5860a4cc508cd0818c85b8b8a1ab4ceeef8d981c8956a69060ff16156145655750505050565b61456e336153e3565b84519161457a83613edf565b604283528483019360603686378351156143b257603085538351906001918210156143b25790607860218601536041915b8183116145f45750505061430257611aa59385936142ec936142dd604894611af199519885600080516020615d958339815191528b978801528251928391603789019101613d72565b909192600f8116601081101561439e576f181899199a1a9b1b9c1cb0b131b232b360811b901a61462485886153d2565b5360041c92801561438a576000190191906145ab565b3360009081527f2f0a9cc3579d9a1b82746fec99ed9e27b3c9d44e220d80b4b64711a402f0c07560209081526040808320549092907f3c11d16cbaffd01df69ce1c404f6340ee057498f5f00246190ea54220576a8489060ff161561469f5750505050565b6146a8336153e3565b8451916146b483613edf565b604283528483019360603686378351156143b257603085538351906001918210156143b25790607860218601536041915b81831161472e5750505061430257611aa59385936142ec936142dd604894611af199519885600080516020615d958339815191528b978801528251928391603789019101613d72565b909192600f8116601081101561439e576f181899199a1a9b1b9c1cb0b131b232b360811b901a61475e85886153d2565b5360041c92801561438a576000190191906146e5565b3360009081527f87abf7b738b5b0f23b2e555eb56721f20406fe4aec0b75c67590e223bff8712c60209081526040808320549092907f442a94f1a1fac79af32856af2a64f63648cfa2ef3b98610a5bb7cbec4cee69859060ff16156147d95750505050565b6147e2336153e3565b8451916147ee83613edf565b604283528483019360603686378351156143b257603085538351906001918210156143b25790607860218601536041915b8183116148685750505061430257611aa59385936142ec936142dd604894611af199519885600080516020615d958339815191528b978801528251928391603789019101613d72565b909192600f8116601081101561439e576f181899199a1a9b1b9c1cb0b131b232b360811b901a61489885886153d2565b5360041c92801561438a5760001901919061481f565b600081815260209061012d8252604092838220338352835260ff8483205416156148d85750505050565b6148e1336153e3565b8451916148ed83613edf565b604283528483019360603686378351156143b257603085538351906001918210156143b25790607860218601536041915b8183116149675750505061430257611aa59385936142ec936142dd604894611af199519885600080516020615d958339815191528b978801528251928391603789019101613d72565b909192600f8116601081101561439e576f181899199a1a9b1b9c1cb0b131b232b360811b901a61499785886153d2565b5360041c92801561438a5760001901919061491e565b9060009180835261012d80602052604084209260018060a01b03169283855260205260ff6040852054166149e15750505050565b818452602052604083208284526020526040832060ff1981541690557ff6391f5c32d9c69d2a47ea670b442974b53935d1edc7fd64eb21e047a839171b339380a438808080614143565b15614a3257565b60405162461bcd60e51b815260206004820152602c60248201527f46756e6374696f6e206d7573742062652063616c6c6564207468726f7567682060448201526b19195b1959d85d1958d85b1b60a21b6064820152608490fd5b15614a9357565b60405162461bcd60e51b815260206004820152602c60248201527f46756e6374696f6e206d7573742062652063616c6c6564207468726f7567682060448201526b6163746976652070726f787960a01b6064820152608490fd5b803b15614b2257600080516020615dd583398151915280546001600160a01b0319166001600160a01b03909216919091179055565b60405162461bcd60e51b815260206004820152602d60248201527f455243313936373a206e657720696d706c656d656e746174696f6e206973206e60448201526c1bdd08184818dbdb9d1c9858dd609a1b6064820152608490fd5b91908201809211614b8a57565b634e487b7160e01b600052601160045260246000fd5b6001600160a01b03808216949390929091908515614ed457838116938415614e83576000968088526101fd9560209187835260409760ff898c205416614e7257828b52835260ff888b205416614e6157808a5260338352614c0d888b20546101fe8552898c205490615251565b8711614e5057614c1c8661580f565b15614e3f57614c2a8561580f565b15614e3f576101f5805489516372331c7360e11b81526001600160a01b03898116600483015288166024820152604481018a9052919491908290829060649082908a165afa908115614e35578c91614e18575b5015614e075760ff60655416614db157614c9687615c40565b614c9f86615c40565b818b5260338152888b2054888110614d5e5790887fddf252ad1be2c89b69c2b068fc378daa952ba7f163c4a11628f55a4df523b3ef92848e5260338352038a8d2055838c52898c208981540190558951898152a3541691823b15612d3a5784516322ebca6d60e21b81526001600160a01b0391821660048201529116602482015260448101929092529293909281908490606490829084905af1918215614d54575050614d495750565b614d5290613f10565b565b51903d90823e3d90fd5b895162461bcd60e51b815260048101839052602660248201527f45524332303a207472616e7366657220616d6f756e7420657863656564732062604482015265616c616e636560d01b6064820152608490fd5b60849089519062461bcd60e51b82526004820152602a60248201527f45524332305061757361626c653a20746f6b656e207472616e736665722077686044820152691a5b19481c185d5cd95960b21b6064820152fd5b88516310a151f560e01b8152600490fd5b614e2f9150823d84116117f8576117ea8183613f3e565b38614c7d565b8a513d8e823e3d90fd5b875163174a0ba560e31b8152600490fd5b87516311acc28f60e01b8152600490fd5b87516328d329b760e11b8152600490fd5b88516328d329b760e11b8152600490fd5b60405162461bcd60e51b815260206004820152602360248201527f45524332303a207472616e7366657220746f20746865207a65726f206164647260448201526265737360e81b6064820152608490fd5b60405162461bcd60e51b815260206004820152602560248201527f45524332303a207472616e736665722066726f6d20746865207a65726f206164604482015264647265737360d81b6064820152608490fd5b6001600160a01b03908116918215614fd85716918215614f885760207f8c5be1e5ebec7d5bd14f71427d1e84f3dd0314c0f7b2291e5b200ac8c7c3b925918360005260348252604060002085600052825280604060002055604051908152a3565b60405162461bcd60e51b815260206004820152602260248201527f45524332303a20617070726f766520746f20746865207a65726f206164647265604482015261737360f01b6064820152608490fd5b60405162461bcd60e51b8152602060048201526024808201527f45524332303a20617070726f76652066726f6d20746865207a65726f206164646044820152637265737360e01b6064820152608490fd5b60cb548110156150605760cb6000527fa7ce836d032b2bf62b7e2097a8e0a6d8aeb35405ad15271e96d3b0188a1d06fb0190600090565b634e487b7160e01b600052603260045260246000fd5b60ca548110156150605760ca6000527f42d72674974f694b5f5159593243114d38a5c39c89d6b62fee061ff523240ee10190600090565b80548210156150605760005260206000200190600090565b801561514b5760cc548111615106576150dd9061525e565b60ca5481036150ef5750600090600090565b6150f890615029565b90549060031b1c9060019190565b60405162461bcd60e51b815260206004820152601d60248201527f4552433230536e617073686f743a206e6f6e6578697374656e742069640000006044820152606490fd5b60405162461bcd60e51b815260206004820152601660248201527504552433230536e617073686f743a20696420697320360541b6044820152606490fd5b801561514b5760cc548111615106576151a29082615338565b815481036151b4575050600090600090565b60016150f892016150ad565b9192901561522257508151156151d4575090565b3b156151dd5790565b60405162461bcd60e51b815260206004820152601d60248201527f416464726573733a2063616c6c20746f206e6f6e2d636f6e74726163740000006044820152606490fd5b8251909150156152355750805190602001fd5b60405162461bcd60e51b8152908190611af19060048301613d95565b91908203918211614b8a57565b60ca8054918215615330576000925b8084106152d257508215159182615295575b505015614208576000198101908111614b8a5790565b90915082600019810111614b8a576000527f42d72674974f694b5f5159593243114d38a5c39c89d6b62fee061ff523240ee082015414388061527f565b6001906152e5818618831c828716614b7d565b918460005283837f42d72674974f694b5f5159593243114d38a5c39c89d6b62fee061ff523240ee101541160001461531e57505061526d565b9094508101809111614b8a579261526d565b505050600090565b8054918215615330576000925b8084106153905750821515918261536c57505015614208576000198101908111614b8a5790565b909150600019908382810111614b8a5760005282602060002001015414388061527f565b6001906153a3818618831c828716614b7d565b9184600052838360206000200154116000146153c0575050615345565b9094508101809111614b8a5792615345565b908151811015615060570160200190565b604051906153f082613f23565b602a82526020820160403682378251156150605760309053815160019081101561506057607860218401536029905b80821161547357505061542f5790565b606460405162461bcd60e51b815260206004820152602060248201527f537472696e67733a20686578206c656e67746820696e73756666696369656e746044820152fd5b9091600f811660108110156154cc576f181899199a1a9b1b9c1cb0b131b232b360811b901a6154a284866153d2565b5360041c9180156154b757600019019061541f565b60246000634e487b7160e01b81526011600452fd5b60246000634e487b7160e01b81526032600452fd5b8181106154ec575050565b600081556001016154e1565b156154ff57565b60405162461bcd60e51b815260206004820152602b60248201527f496e697469616c697a61626c653a20636f6e7472616374206973206e6f74206960448201526a6e697469616c697a696e6760a81b6064820152608490fd5b60ff6065541661556457565b60405162461bcd60e51b815260206004820152601060248201526f14185d5cd8589b194e881c185d5cd95960821b6044820152606490fd5b6000198114614b8a5760010190565b91908110156150605760051b0190565b356001600160a01b0381168103610eb65790565b3560ff81168103610eb65790565b3561ffff81168103610eb65790565b903590601e1981360301821215610eb657018035906001600160401b038211610eb657602001918136038313610eb657565b90816020910312610eb657518015158103610eb65790565b908060209392818452848401376000828201840152601f01601f1916010190565b9160a09360ff61ffff92614208999794600180891b0316865216602085015216604083015260608201528160808201520191615636565b6101f65490916001600160a01b0391821691906156aa816155cf565b90602094858201936156f7876156bf876155dd565b95604098898701359788926156d760608a018a6155ec565b8d51631da9612560e11b8152978896879586959294928d60048801615657565b03915afa908115615804576000916157e7575b50156157d6574284106157c5576134ce83866002899897956134d4957fed42ed2983f8437a9d3a38e7d50abc7050716d3ab29ff7f5a6b268533a3f55b99b61ffff8e60ff61576361575d6157c09e6155cf565b986155dd565b93519761576f89613edf565b1687528601911681526101ff8c8601928a84526060870194428652169e8f6000525260ff8c60002095511662ffff008654925160081b169162ffffff191617178455516001840155519101556155cf565b0390a2565b8551634973d8d560e11b8152600490fd5b855163249d777160e21b8152600490fd5b6157fe9150883d8a116117f8576117ea8183613f3e565b3861570a565b87513d6000823e3d90fd5b60ff610203541615615897576001600160a01b031660009081526101ff6020526040812060028101548015615892576102025461584b91614b7d565b421161588e576001810154421161588e575460ff610200541660ff82161061588e5760081c61ffff168152610201602052604081205460ff166142085750600190565b5090565b505090565b50600190565b6158b590602060405192828480945193849201613d72565b810103902090565b358015158103610eb65790565b6001600160a01b03811691821561599d5760ff606554166159455760207fddf252ad1be2c89b69c2b068fc378daa952ba7f163c4a11628f55a4df523b3ef91615914600094615c40565b61591c615c8d565b61592881603554614b7d565b6035558484526033825260408420818154019055604051908152a3565b60405162461bcd60e51b815260206004820152602a60248201527f45524332305061757361626c653a20746f6b656e207472616e736665722077686044820152691a5b19481c185d5cd95960b21b6064820152608490fd5b60405162461bcd60e51b815260206004820152601f60248201527f45524332303a206d696e7420746f20746865207a65726f2061646472657373006044820152606490fd5b60ff610203541615615b14576101f6546001600160a01b031691615a05816155cf565b60208201926020615a15856155dd565b60409687860135948594615a4c615a2f60608a018a6155ec565b908c5198899788968796631da9612560e11b885260048801615657565b03915afa908115615b0957600091615aeb575b5015615ada574211615ac957615a74906155cf565b60ff806102005416911610615ab857615a8f61ffff916155dd565b1660005261020160205260ff816000205416615aa85750565b5163a281120f60e01b8152600490fd5b81516302cc37df60e51b8152600490fd5b8251634973d8d560e11b8152600490fd5b835163249d777160e21b8152600490fd5b615b03915060203d81116117f8576117ea8183613f3e565b38615a5f565b85513d6000823e3d90fd5b5050565b6001600160a01b038116908115615bf15760ff6065541661594557615b3c90615c40565b615b44615c8d565b80600052603360205260406000205491808310615ba1576020817fddf252ad1be2c89b69c2b068fc378daa952ba7f163c4a11628f55a4df523b3ef92600095858752603384520360408620558060355403603555604051908152a3565b60405162461bcd60e51b815260206004820152602260248201527f45524332303a206275726e20616d6f756e7420657863656564732062616c616e604482015261636560f01b6064820152608490fd5b60405162461bcd60e51b815260206004820152602160248201527f45524332303a206275726e2066726f6d20746865207a65726f206164647265736044820152607360f81b6064820152608490fd5b60018060a01b031660005260c96020526040600020603360205260406000205460cc5480615c6d84615d51565b10615c7757505050565b82615c87600192614d5295615d01565b01615d01565b60355460cc549081615c9d615d24565b10615ca6575050565b60ca54600160401b9283821015613efa57615cca826001615ce3940160ca55615076565b90919082549060031b91821b91600019901b1916179055565b60cb5491821015613efa57615cca826001614d52940160cb55615029565b90815491600160401b831015613efa5782615cca916001614d52950181556150ad565b60ca5480615d325750600090565b6000198101908111614b8a57615d4790615076565b90549060031b1c90565b805480615d5f575050600090565b6000198101908111614b8a57615d47916150ad56fe2f8788117e7eff1d82e926ec794901d17c78024a50270940304540a733656f0d416363657373436f6e74726f6c3a206163636f756e74200000000000000000003f2c9d57c068687834f0de942a9babb9e5acab57d516d3480a3c16ee165a4273360894a13ba1a3210667c828492db98dca3e2076cc3735a920a3ca505d382bbca2646970667358221220685ac5b624681c149886d4b84a3034ed64f1abb2590ccd9361248a0ba54c3f3764736f6c63430008140033","opcodes":"PUSH1 0xA0 DUP1 PUSH1 0x40 MSTORE CALLVALUE PUSH3 0xE1 JUMPI ADDRESS PUSH1 0x80 MSTORE PUSH1 0x0 SLOAD SWAP1 PUSH1 0xFF DUP3 PUSH1 0x8 SHR AND PUSH3 0x8F JUMPI POP PUSH1 0xFF DUP1 DUP3 AND SUB PUSH3 0x53 JUMPI JUMPDEST PUSH1 0x40 MLOAD PUSH2 0x5E2A SWAP1 DUP2 PUSH3 0xE7 DUP3 CODECOPY PUSH1 0x80 MLOAD DUP2 DUP2 DUP2 PUSH2 0x240E ADD MSTORE DUP2 DUP2 PUSH2 0x2509 ADD MSTORE PUSH2 0x2FFE ADD MSTORE RETURN JUMPDEST PUSH1 0xFF SWAP1 DUP2 NOT AND OR PUSH1 0x0 SSTORE PUSH32 0x7F26B83FF96E1F2B6A682F133852F6798A09C465DA95921460CEFB3847402498 PUSH1 0x20 PUSH1 0x40 MLOAD PUSH1 0xFF DUP2 MSTORE LOG1 CODESIZE PUSH3 0x2C JUMP JUMPDEST PUSH3 0x461BCD PUSH1 0xE5 SHL DUP2 MSTORE PUSH1 0x20 PUSH1 0x4 DUP3 ADD MSTORE PUSH1 0x27 PUSH1 0x24 DUP3 ADD MSTORE PUSH32 0x496E697469616C697A61626C653A20636F6E747261637420697320696E697469 PUSH1 0x44 DUP3 ADD MSTORE PUSH7 0x616C697A696E67 PUSH1 0xC8 SHL PUSH1 0x64 DUP3 ADD MSTORE PUSH1 0x84 SWAP1 REVERT JUMPDEST PUSH1 0x0 DUP1 REVERT INVALID PUSH1 0x80 PUSH1 0x40 DUP2 DUP2 MSTORE PUSH1 0x4 SWAP1 DUP2 CALLDATASIZE LT ISZERO PUSH2 0x16 JUMPI PUSH1 0x0 DUP1 REVERT JUMPDEST PUSH1 0x0 SWAP3 DUP4 CALLDATALOAD PUSH1 0xE0 SHR SWAP1 DUP2 PUSH4 0x1FFC9A7 EQ PUSH2 0x3D1E JUMPI POP DUP1 PUSH4 0x615F677 EQ PUSH2 0x3C9E JUMPI DUP1 PUSH4 0x62D3BD7 EQ PUSH2 0x3C63 JUMPI DUP1 PUSH4 0x6FDDE03 EQ PUSH2 0x3C3E JUMPI DUP1 PUSH4 0x95EA7B3 EQ PUSH2 0x3C14 JUMPI DUP1 PUSH4 0xC848ED3 EQ PUSH2 0x3BF4 JUMPI DUP1 PUSH4 0x125C4A33 EQ PUSH2 0x3B4F JUMPI DUP1 PUSH4 0x149F2E88 EQ PUSH2 0x3AF8 JUMPI DUP1 PUSH4 0x158B1A57 EQ PUSH2 0x3ABF JUMPI DUP1 PUSH4 0x16442F58 EQ PUSH2 0x3A96 JUMPI DUP1 PUSH4 0x18160DDD EQ PUSH2 0x3A77 JUMPI DUP1 PUSH4 0x1A7AF379 EQ PUSH2 0x3968 JUMPI DUP1 PUSH4 0x1FE56F7D EQ PUSH2 0x38CB JUMPI DUP1 PUSH4 0x22459E18 EQ PUSH2 0x3890 JUMPI DUP1 PUSH4 0x23B872DD EQ PUSH2 0x37D7 JUMPI DUP1 PUSH4 0x248A9CA3 EQ PUSH2 0x37AB JUMPI DUP1 PUSH4 0x282C51F3 EQ PUSH2 0x3770 JUMPI DUP1 PUSH4 0x2F2FF15D EQ PUSH2 0x36D6 JUMPI DUP1 PUSH4 0x2F750609 EQ PUSH2 0x3681 JUMPI DUP1 PUSH4 0x30957BA8 EQ PUSH2 0x35CE JUMPI DUP1 PUSH4 0x313CE567 EQ PUSH2 0x35B2 JUMPI DUP1 PUSH4 0x31993A1C EQ PUSH2 0x3577 JUMPI DUP1 PUSH4 0x31AC1A7A EQ PUSH2 0x3322 JUMPI DUP1 PUSH4 0x36568ABE EQ PUSH2 0x3290 JUMPI DUP1 PUSH4 0x3659CFE6 EQ PUSH2 0x2FD8 JUMPI DUP1 PUSH4 0x39509351 EQ PUSH2 0x2F89 JUMPI DUP1 PUSH4 0x3D1DDC5B EQ PUSH2 0x2EE8 JUMPI DUP1 PUSH4 0x3F4BA83A EQ PUSH2 0x2E52 JUMPI DUP1 PUSH4 0x40C10F19 EQ PUSH2 0x2D3E JUMPI DUP1 PUSH4 0x42A47ABC EQ PUSH2 0x2A3D JUMPI DUP1 PUSH4 0x4710362D EQ PUSH2 0x294C JUMPI DUP1 PUSH4 0x4A6CC677 EQ PUSH2 0x27EA JUMPI DUP1 PUSH4 0x4EE2CD7E EQ PUSH2 0x278C JUMPI DUP1 PUSH4 0x4F1EF286 EQ PUSH2 0x24BB JUMPI DUP1 PUSH4 0x52D1902D EQ PUSH2 0x23F9 JUMPI DUP1 PUSH4 0x5439AD86 EQ PUSH2 0x23D9 JUMPI DUP1 PUSH4 0x54FD4D50 EQ PUSH2 0x23B4 JUMPI DUP1 PUSH4 0x5C975ABB EQ PUSH2 0x2390 JUMPI DUP1 PUSH4 0x6290865D EQ PUSH2 0x2366 JUMPI DUP1 PUSH4 0x68573107 EQ PUSH2 0x217B JUMPI DUP1 PUSH4 0x6CF30D8C EQ PUSH2 0x212E JUMPI DUP1 PUSH4 0x6F8B44B0 EQ PUSH2 0x2097 JUMPI DUP1 PUSH4 0x7028E2CD EQ PUSH2 0x205C JUMPI DUP1 PUSH4 0x70A08231 EQ PUSH2 0x2034 JUMPI DUP1 PUSH4 0x778AF12B EQ PUSH2 0x1FB7 JUMPI DUP1 PUSH4 0x8446FAE4 EQ PUSH2 0x1F6B JUMPI DUP1 PUSH4 0x8456CB59 EQ PUSH2 0x1F10 JUMPI DUP1 PUSH4 0x8B3C4932 EQ PUSH2 0x1EAC JUMPI DUP1 PUSH4 0x91D14854 EQ PUSH2 0x1E65 JUMPI DUP1 PUSH4 0x9285948A EQ PUSH2 0x1C08 JUMPI DUP1 PUSH4 0x95D89B41 EQ PUSH2 0x1BCE JUMPI DUP1 PUSH4 0x9711715A EQ PUSH2 0x1949 JUMPI DUP1 PUSH4 0x981B24D0 EQ PUSH2 0x1910 JUMPI DUP1 PUSH4 0x9DC29FAC EQ PUSH2 0x1813 JUMPI DUP1 PUSH4 0x9FC1D0E7 EQ PUSH2 0x1692 JUMPI DUP1 PUSH4 0xA1F8FB4C EQ PUSH2 0x1622 JUMPI DUP1 PUSH4 0xA217FDDF EQ PUSH2 0x1607 JUMPI DUP1 PUSH4 0xA226E445 EQ PUSH2 0x15E2 JUMPI DUP1 PUSH4 0xA457C2D7 EQ PUSH2 0x1539 JUMPI DUP1 PUSH4 0xA9059CBB EQ PUSH2 0x1508 JUMPI DUP1 PUSH4 0xABA63705 EQ PUSH2 0x14DE JUMPI DUP1 PUSH4 0xB60DA085 EQ PUSH2 0x13FF JUMPI DUP1 PUSH4 0xB84C8246 EQ PUSH2 0x1429 JUMPI DUP1 PUSH4 0xB937E7CC EQ PUSH2 0x13FF JUMPI DUP1 PUSH4 0xBC4C8552 EQ PUSH2 0x13C7 JUMPI DUP1 PUSH4 0xC409E58B EQ PUSH2 0x13A4 JUMPI DUP1 PUSH4 0xC47F0027 EQ PUSH2 0x12EA JUMPI DUP1 PUSH4 0xC69C09CF EQ PUSH2 0x1259 JUMPI DUP1 PUSH4 0xCF0E0F9D EQ PUSH2 0x122A JUMPI DUP1 PUSH4 0xD17F6417 EQ PUSH2 0x11B5 JUMPI DUP1 PUSH4 0xD5391393 EQ PUSH2 0x117A JUMPI DUP1 PUSH4 0xD547741F EQ PUSH2 0x113C JUMPI DUP1 PUSH4 0xD59B7E42 EQ PUSH2 0xF74 JUMPI DUP1 PUSH4 0xD5ABEB01 EQ PUSH2 0xF54 JUMPI DUP1 PUSH4 0xDD62ED3E EQ PUSH2 0xF06 JUMPI DUP1 PUSH4 0xE5839836 EQ PUSH2 0xEC7 JUMPI DUP1 PUSH4 0xEDF3E29E EQ PUSH2 0x57C JUMPI DUP1 PUSH4 0xF8981789 EQ PUSH2 0x500 JUMPI PUSH4 0xFC7E5FA8 EQ PUSH2 0x389 JUMPI PUSH1 0x0 DUP1 REVERT JUMPDEST CALLVALUE PUSH2 0x4FC JUMPI PUSH2 0x397 CALLDATASIZE PUSH2 0x3E60 JUMP JUMPDEST SWAP1 SWAP5 PUSH2 0x3A4 SWAP4 SWAP3 SWAP4 PUSH2 0x43C6 JUMP JUMPDEST DUP2 DUP5 SUB PUSH2 0x4EE JUMPI PUSH1 0x32 DUP5 GT PUSH2 0x4E0 JUMPI POP DUP6 JUMPDEST DUP4 DUP2 LT PUSH2 0x3C1 JUMPI DUP7 DUP1 RETURN JUMPDEST PUSH2 0x3F5 SWAP1 PUSH1 0x1 PUSH1 0x1 PUSH1 0xA0 SHL SUB DUP1 PUSH2 0x3E1 PUSH2 0x3DC DUP5 DUP10 DUP10 PUSH2 0x55AB JUMP JUMPDEST PUSH2 0x55BB JUMP JUMPDEST AND ISZERO ISZERO DUP1 PUSH2 0x47B JUMPI JUMPDEST PUSH2 0x3FA JUMPI JUMPDEST POP PUSH2 0x559C JUMP JUMPDEST PUSH2 0x3B6 JUMP JUMPDEST PUSH32 0xA065E63C631C86F1B9F66A4A2F63F2093BF1C2168D23290259DBD969E0222A45 PUSH2 0x426 DUP4 DUP7 DUP12 PUSH2 0x55AB JUMP JUMPDEST CALLDATALOAD DUP3 PUSH2 0x436 PUSH2 0x3DC DUP7 DUP12 DUP12 PUSH2 0x55AB JUMP JUMPDEST AND DUP12 MSTORE PUSH1 0x20 SWAP1 PUSH2 0x1FE DUP3 MSTORE PUSH2 0x44F DUP11 DUP14 KECCAK256 SWAP2 DUP3 SLOAD PUSH2 0x4B7D JUMP JUMPDEST SWAP1 SSTORE PUSH2 0x45F PUSH2 0x3DC DUP6 DUP11 DUP11 PUSH2 0x55AB JUMP JUMPDEST SWAP3 PUSH2 0x46B DUP6 DUP9 DUP14 PUSH2 0x55AB JUMP JUMPDEST CALLDATALOAD SWAP4 DUP11 MLOAD SWAP5 DUP6 MSTORE AND SWAP3 LOG2 CODESIZE PUSH2 0x3EF JUMP JUMPDEST POP PUSH2 0x4A8 PUSH2 0x48D PUSH2 0x3DC DUP5 DUP10 DUP10 PUSH2 0x55AB JUMP JUMPDEST PUSH1 0x1 PUSH1 0x1 PUSH1 0xA0 SHL SUB AND PUSH1 0x0 SWAP1 DUP2 MSTORE PUSH1 0x33 PUSH1 0x20 MSTORE PUSH1 0x40 SWAP1 KECCAK256 SLOAD SWAP1 JUMP JUMPDEST DUP2 PUSH2 0x4B7 PUSH2 0x3DC DUP6 DUP11 DUP11 PUSH2 0x55AB JUMP JUMPDEST AND DUP11 MSTORE PUSH2 0x1FE PUSH1 0x20 MSTORE PUSH2 0x4D9 DUP9 DUP12 KECCAK256 SLOAD PUSH2 0x4D2 DUP6 DUP9 DUP14 PUSH2 0x55AB JUMP JUMPDEST CALLDATALOAD SWAP1 PUSH2 0x4B7D JUMP JUMPDEST GT ISZERO PUSH2 0x3EA JUMP JUMPDEST DUP5 MLOAD PUSH4 0x5BEB171 PUSH1 0xE1 SHL DUP2 MSTORE REVERT JUMPDEST DUP5 MLOAD PUSH4 0x512509D3 PUSH1 0xE1 SHL DUP2 MSTORE REVERT JUMPDEST DUP3 DUP1 REVERT JUMPDEST POP SWAP1 CALLVALUE PUSH2 0x4FC JUMPI PUSH1 0x20 CALLDATASIZE PUSH1 0x3 NOT ADD SLT PUSH2 0x4FC JUMPI PUSH2 0x51B PUSH2 0x3DC1 JUMP JUMPDEST PUSH2 0x523 PUSH2 0x4774 JUMP JUMPDEST PUSH1 0x1 PUSH1 0x1 PUSH1 0xA0 SHL SUB AND SWAP2 DUP3 ISZERO PUSH2 0x56F JUMPI POP POP PUSH2 0x1F5 DUP1 SLOAD PUSH1 0x1 PUSH1 0x1 PUSH1 0xA0 SHL SUB NOT AND DUP3 OR SWAP1 SSTORE PUSH32 0x7F3A888862559648EC01D97DEB7B5012BFF86DC91E654A1DE397170DB40E35B6 DUP3 DUP1 LOG2 DUP1 RETURN JUMPDEST MLOAD PUSH4 0xE6C4247B PUSH1 0xE0 SHL DUP2 MSTORE REVERT JUMPDEST POP SWAP2 SWAP1 CALLVALUE PUSH2 0xEC3 JUMPI PUSH1 0xC0 CALLDATASIZE PUSH1 0x3 NOT ADD SLT PUSH2 0xEC3 JUMPI PUSH1 0x1 PUSH1 0x1 PUSH1 0x40 SHL SUB SWAP1 DUP1 CALLDATALOAD DUP3 DUP2 GT PUSH2 0xEBF JUMPI PUSH2 0x5AF SWAP1 CALLDATASIZE SWAP1 DUP4 ADD PUSH2 0x41ED JUMP JUMPDEST SWAP1 PUSH1 0x24 CALLDATALOAD DUP4 DUP2 GT PUSH2 0xEBB JUMPI PUSH2 0x5C7 SWAP1 CALLDATASIZE SWAP1 DUP4 ADD PUSH2 0x41ED JUMP JUMPDEST SWAP5 PUSH2 0x5D0 PUSH2 0x3DED JUMP JUMPDEST SWAP6 PUSH1 0x1 PUSH1 0x1 PUSH1 0xA0 SHL SUB SWAP4 PUSH1 0x64 CALLDATALOAD DUP6 DUP2 AND SWAP5 SWAP2 SWAP1 DUP6 SWAP1 SUB PUSH2 0xEB6 JUMPI PUSH1 0x84 CALLDATALOAD SWAP7 DUP7 DUP9 AND DUP1 SWAP9 SUB PUSH2 0xEB6 JUMPI DUP9 SLOAD SWAP4 PUSH1 0xFF SWAP4 DUP5 DUP7 PUSH1 0x8 SHR AND ISZERO SWAP9 DUP10 DUP1 SWAP11 PUSH2 0xEAA JUMPI JUMPDEST DUP1 ISZERO PUSH2 0xE94 JUMPI JUMPDEST ISZERO PUSH2 0xE3A JUMPI DUP12 SWAP13 PUSH1 0x1 SWAP13 SWAP12 SWAP13 SWAP12 DUP13 SWAP9 DUP13 PUSH1 0xFF NOT SWAP11 DUP12 DUP4 AND OR DUP4 SSTORE PUSH2 0xE28 JUMPI JUMPDEST POP POP AND SWAP4 DUP5 ISZERO DUP1 ISZERO PUSH2 0xE20 JUMPI JUMPDEST DUP1 ISZERO PUSH2 0xE18 JUMPI JUMPDEST PUSH2 0xE09 JUMPI PUSH2 0x664 DUP7 DUP15 SLOAD PUSH1 0x8 SHR AND PUSH2 0x65F DUP2 PUSH2 0x54F8 JUMP JUMPDEST PUSH2 0x54F8 JUMP JUMPDEST DUP1 MLOAD SWAP1 DUP5 DUP3 GT PUSH2 0xDF6 JUMPI DUP14 DUP3 SWAP2 PUSH2 0x67C PUSH1 0x36 SLOAD PUSH2 0x3FB1 JUMP JUMPDEST PUSH1 0x1F DUP2 GT PUSH2 0xDA7 JUMPI JUMPDEST POP PUSH1 0x20 SWAP2 PUSH1 0x1F DUP5 GT PUSH1 0x1 EQ PUSH2 0xD1E JUMPI SWAP3 PUSH2 0xD13 JUMPI JUMPDEST POP POP PUSH1 0x0 NOT PUSH1 0x3 DUP4 SWAP1 SHL SHR NOT AND SWAP1 DUP12 SHL OR PUSH1 0x36 SSTORE JUMPDEST DUP2 MLOAD SWAP3 DUP4 GT PUSH2 0xD00 JUMPI POP DUP2 SWAP1 PUSH2 0x6C6 PUSH1 0x37 SLOAD PUSH2 0x3FB1 JUMP JUMPDEST PUSH1 0x1F DUP2 GT PUSH2 0xCA6 JUMPI JUMPDEST POP PUSH1 0x20 SWAP1 PUSH1 0x1F DUP4 GT PUSH1 0x1 EQ PUSH2 0xC27 JUMPI DUP13 SWAP3 PUSH2 0xC1C JUMPI JUMPDEST POP POP PUSH1 0x0 NOT PUSH1 0x3 DUP4 SWAP1 SHL SHR NOT AND SWAP1 DUP9 SHL OR PUSH1 0x37 SSTORE JUMPDEST PUSH2 0x742 DUP3 DUP11 SLOAD PUSH1 0x8 SHR AND PUSH2 0x70D DUP2 PUSH2 0x54F8 JUMP JUMPDEST PUSH2 0x716 DUP2 PUSH2 0x54F8 JUMP JUMPDEST DUP5 PUSH1 0x65 SLOAD AND PUSH1 0x65 SSTORE PUSH2 0x727 DUP2 PUSH2 0x54F8 JUMP JUMPDEST PUSH2 0x730 DUP2 PUSH2 0x54F8 JUMP JUMPDEST PUSH2 0x739 DUP2 PUSH2 0x54F8 JUMP JUMPDEST PUSH2 0x65F DUP2 PUSH2 0x54F8 JUMP JUMPDEST DUP7 PUSH2 0x1C3 SSTORE PUSH1 0x0 DUP1 MSTORE PUSH2 0x12D DUP1 PUSH1 0x20 MSTORE DUP5 PUSH1 0x0 KECCAK256 DUP3 PUSH1 0x0 MSTORE PUSH1 0x20 MSTORE DUP3 DUP6 PUSH1 0x0 KECCAK256 SLOAD AND ISZERO PUSH2 0xBE2 JUMPI JUMPDEST PUSH32 0x9F2DF0FED2C77648DE5860A4CC508CD0818C85B8B8A1AB4CEEEF8D981C8956A6 DUP1 PUSH1 0x0 MSTORE DUP2 PUSH1 0x20 MSTORE DUP6 PUSH1 0x0 KECCAK256 DUP4 PUSH1 0x0 MSTORE PUSH1 0x20 MSTORE DUP4 DUP7 PUSH1 0x0 KECCAK256 SLOAD AND ISZERO PUSH2 0xBA7 JUMPI JUMPDEST POP PUSH32 0x3C11D16CBAFFD01DF69CE1C404F6340EE057498F5F00246190EA54220576A848 DUP1 PUSH1 0x0 MSTORE DUP2 PUSH1 0x20 MSTORE DUP6 PUSH1 0x0 KECCAK256 DUP4 PUSH1 0x0 MSTORE PUSH1 0x20 MSTORE DUP4 DUP7 PUSH1 0x0 KECCAK256 SLOAD AND ISZERO PUSH2 0xB6C JUMPI JUMPDEST POP PUSH32 0x442A94F1A1FAC79AF32856AF2A64F63648CFA2EF3B98610A5BB7CBEC4CEE6985 DUP1 PUSH1 0x0 MSTORE DUP2 PUSH1 0x20 MSTORE DUP6 PUSH1 0x0 KECCAK256 DUP4 PUSH1 0x0 MSTORE PUSH1 0x20 MSTORE DUP4 DUP7 PUSH1 0x0 KECCAK256 SLOAD AND ISZERO PUSH2 0xB31 JUMPI JUMPDEST POP PUSH32 0x5FDBD35E8DA83EE755D5E62A539E5ED7F47126ABEDE0B8B10F9EA43DC6EED07F DUP1 PUSH1 0x0 MSTORE DUP2 PUSH1 0x20 MSTORE DUP6 PUSH1 0x0 KECCAK256 DUP4 PUSH1 0x0 MSTORE PUSH1 0x20 MSTORE DUP4 DUP7 PUSH1 0x0 KECCAK256 SLOAD AND ISZERO PUSH2 0xAF6 JUMPI JUMPDEST POP PUSH32 0xCAB5A0BFE0B79D2C4B1C2E02599FA044D115B7511F9659307CB4276950967709 DUP1 PUSH1 0x0 MSTORE DUP2 PUSH1 0x20 MSTORE DUP6 PUSH1 0x0 KECCAK256 DUP4 PUSH1 0x0 MSTORE PUSH1 0x20 MSTORE DUP4 DUP7 PUSH1 0x0 KECCAK256 SLOAD AND ISZERO PUSH2 0xABB JUMPI JUMPDEST POP PUSH32 0xACF805600123EF007091DA3B3FFB39474074C656C127AA68CB0FFEC232A8FF8 SWAP3 DUP4 PUSH1 0x0 MSTORE DUP2 PUSH1 0x20 MSTORE DUP6 PUSH1 0x0 KECCAK256 DUP4 PUSH1 0x0 MSTORE PUSH1 0x20 MSTORE DUP6 PUSH1 0x0 KECCAK256 SLOAD AND ISZERO PUSH2 0xA80 JUMPI JUMPDEST POP POP POP PUSH12 0xFFFFFFFFFFFFFFFFFFFFFFFF PUSH1 0xA0 SHL PUSH2 0x1F5 DUP5 DUP3 DUP3 SLOAD AND OR SWAP1 SSTORE DUP7 PUSH2 0x1F6 SWAP2 DUP3 SLOAD AND OR SWAP1 SSTORE PUSH1 0xA4 CALLDATALOAD PUSH2 0x1F7 SSTORE PUSH2 0x1F9 PUSH2 0x932 DUP2 SLOAD PUSH2 0x3FB1 JUMP JUMPDEST PUSH1 0x1F DUP2 GT PUSH2 0xA35 JUMPI JUMPDEST POP PUSH1 0xA PUSH5 0x322E312E3 PUSH1 0xDC SHL ADD SWAP1 SSTORE PUSH2 0x200 DUP1 SLOAD DUP3 AND DUP7 OR SWAP1 SSTORE PUSH2 0xE10 PUSH2 0x202 SSTORE PUSH2 0x203 DUP1 SLOAD DUP3 AND SWAP1 SSTORE PUSH2 0x198 DUP8 MSTORE PUSH2 0x201 PUSH1 0x20 MSTORE DUP2 DUP8 KECCAK256 DUP1 SLOAD DUP3 AND DUP7 OR SWAP1 SSTORE PUSH2 0x16C DUP8 MSTORE DUP2 DUP8 KECCAK256 DUP1 SLOAD DUP3 AND DUP7 OR SWAP1 SSTORE PUSH2 0x2F8 DUP8 MSTORE DUP2 DUP8 KECCAK256 DUP1 SLOAD DUP3 AND DUP7 OR SWAP1 SSTORE PUSH1 0xC0 DUP8 MSTORE DUP2 DUP8 KECCAK256 DUP1 SLOAD SWAP1 SWAP2 AND DUP6 OR SWAP1 SSTORE MLOAD SWAP4 DUP6 PUSH32 0x4900E8DE75D157A21080E6F17B8C48972095AFB692F9FD506645277C99153AE3 DUP2 DUP1 LOG3 PUSH32 0x7F3A888862559648EC01D97DEB7B5012BFF86DC91E654A1DE397170DB40E35B6 DUP6 DUP1 LOG2 PUSH2 0x9FE JUMPI DUP3 DUP1 RETURN JUMPDEST DUP3 SLOAD PUSH2 0xFF00 NOT AND DUP4 SSTORE DUP2 MSTORE PUSH32 0x7F26B83FF96E1F2B6A682F133852F6798A09C465DA95921460CEFB3847402498 SWAP1 PUSH1 0x20 SWAP1 LOG1 CODESIZE DUP1 DUP3 DUP1 RETURN JUMPDEST DUP2 PUSH1 0x0 MSTORE DUP7 PUSH1 0x1F PUSH32 0x29EBA5F30CA2030A69ED2D7F74871C83BBC526B071320256F127653C7DFFF4E9 SWAP3 ADD PUSH1 0x5 SHR DUP3 ADD SWAP2 JUMPDEST DUP3 DUP2 LT PUSH2 0xA74 JUMPI POP POP PUSH2 0x93B JUMP JUMPDEST PUSH1 0x0 DUP2 SSTORE ADD DUP8 SWAP1 PUSH2 0xA66 JUMP JUMPDEST DUP3 PUSH1 0x0 MSTORE PUSH1 0x20 MSTORE DUP4 PUSH1 0x0 KECCAK256 DUP2 PUSH1 0x0 MSTORE PUSH1 0x20 MSTORE DUP4 PUSH1 0x0 KECCAK256 DUP8 DUP5 DUP3 SLOAD AND OR SWAP1 SSTORE CALLER SWAP2 PUSH1 0x0 DUP1 MLOAD PUSH1 0x20 PUSH2 0x5D75 DUP4 CODECOPY DUP2 MLOAD SWAP2 MSTORE PUSH1 0x0 DUP1 LOG4 CODESIZE DUP1 DUP1 PUSH2 0x8F5 JUMP JUMPDEST DUP1 PUSH1 0x0 MSTORE DUP2 PUSH1 0x20 MSTORE DUP6 PUSH1 0x0 KECCAK256 DUP4 PUSH1 0x0 MSTORE PUSH1 0x20 MSTORE DUP6 PUSH1 0x0 KECCAK256 DUP10 DUP7 DUP3 SLOAD AND OR SWAP1 SSTORE DUP3 CALLER SWAP2 PUSH1 0x0 DUP1 MLOAD PUSH1 0x20 PUSH2 0x5D75 DUP4 CODECOPY DUP2 MLOAD SWAP2 MSTORE PUSH1 0x0 DUP1 LOG4 CODESIZE PUSH2 0x8B3 JUMP JUMPDEST DUP1 PUSH1 0x0 MSTORE DUP2 PUSH1 0x20 MSTORE DUP6 PUSH1 0x0 KECCAK256 DUP4 PUSH1 0x0 MSTORE PUSH1 0x20 MSTORE DUP6 PUSH1 0x0 KECCAK256 DUP10 DUP7 DUP3 SLOAD AND OR SWAP1 SSTORE DUP3 CALLER SWAP2 PUSH1 0x0 DUP1 MLOAD PUSH1 0x20 PUSH2 0x5D75 DUP4 CODECOPY DUP2 MLOAD SWAP2 MSTORE PUSH1 0x0 DUP1 LOG4 CODESIZE PUSH2 0x871 JUMP JUMPDEST DUP1 PUSH1 0x0 MSTORE DUP2 PUSH1 0x20 MSTORE DUP6 PUSH1 0x0 KECCAK256 DUP4 PUSH1 0x0 MSTORE PUSH1 0x20 MSTORE DUP6 PUSH1 0x0 KECCAK256 DUP10 DUP7 DUP3 SLOAD AND OR SWAP1 SSTORE DUP3 CALLER SWAP2 PUSH1 0x0 DUP1 MLOAD PUSH1 0x20 PUSH2 0x5D75 DUP4 CODECOPY DUP2 MLOAD SWAP2 MSTORE PUSH1 0x0 DUP1 LOG4 CODESIZE PUSH2 0x82F JUMP JUMPDEST DUP1 PUSH1 0x0 MSTORE DUP2 PUSH1 0x20 MSTORE DUP6 PUSH1 0x0 KECCAK256 DUP4 PUSH1 0x0 MSTORE PUSH1 0x20 MSTORE DUP6 PUSH1 0x0 KECCAK256 DUP10 DUP7 DUP3 SLOAD AND OR SWAP1 SSTORE DUP3 CALLER SWAP2 PUSH1 0x0 DUP1 MLOAD PUSH1 0x20 PUSH2 0x5D75 DUP4 CODECOPY DUP2 MLOAD SWAP2 MSTORE PUSH1 0x0 DUP1 LOG4 CODESIZE PUSH2 0x7ED JUMP JUMPDEST DUP1 PUSH1 0x0 MSTORE DUP2 PUSH1 0x20 MSTORE DUP6 PUSH1 0x0 KECCAK256 DUP4 PUSH1 0x0 MSTORE PUSH1 0x20 MSTORE DUP6 PUSH1 0x0 KECCAK256 DUP10 DUP7 DUP3 SLOAD AND OR SWAP1 SSTORE DUP3 CALLER SWAP2 PUSH1 0x0 DUP1 MLOAD PUSH1 0x20 PUSH2 0x5D75 DUP4 CODECOPY DUP2 MLOAD SWAP2 MSTORE PUSH1 0x0 DUP1 LOG4 CODESIZE PUSH2 0x7AB JUMP JUMPDEST PUSH1 0x0 DUP1 MSTORE DUP1 PUSH1 0x20 MSTORE DUP5 PUSH1 0x0 KECCAK256 DUP3 PUSH1 0x0 MSTORE PUSH1 0x20 MSTORE DUP5 PUSH1 0x0 KECCAK256 DUP9 DUP6 DUP3 SLOAD AND OR SWAP1 SSTORE CALLER DUP3 PUSH1 0x0 PUSH1 0x0 DUP1 MLOAD PUSH1 0x20 PUSH2 0x5D75 DUP4 CODECOPY DUP2 MLOAD SWAP2 MSTORE DUP2 DUP1 LOG4 PUSH2 0x76A JUMP JUMPDEST ADD MLOAD SWAP1 POP CODESIZE DUP1 PUSH2 0x6E5 JUMP JUMPDEST PUSH1 0x37 DUP14 MSTORE DUP11 SWAP4 POP PUSH32 0x42A7B7DD785CD69714A189DFFB3FD7D7174EDC9ECE837694CE50F7078F7C31AE SWAP2 SWAP1 PUSH1 0x1F NOT DUP5 AND DUP15 JUMPDEST DUP2 DUP2 LT PUSH2 0xC8E JUMPI POP DUP5 GT PUSH2 0xC75 JUMPI JUMPDEST POP POP POP DUP2 SHL ADD PUSH1 0x37 SSTORE PUSH2 0x6FA JUMP JUMPDEST ADD MLOAD PUSH1 0x0 NOT PUSH1 0xF8 DUP5 PUSH1 0x3 SHL AND SHR NOT AND SWAP1 SSTORE CODESIZE DUP1 DUP1 PUSH2 0xC67 JUMP JUMPDEST DUP3 DUP5 ADD MLOAD DUP6 SSTORE DUP14 SWAP7 SWAP1 SWAP5 ADD SWAP4 PUSH1 0x20 SWAP4 DUP5 ADD SWAP4 ADD PUSH2 0xC58 JUMP JUMPDEST PUSH2 0xCF0 SWAP1 PUSH1 0x37 PUSH1 0x0 MSTORE PUSH32 0x42A7B7DD785CD69714A189DFFB3FD7D7174EDC9ECE837694CE50F7078F7C31AE PUSH1 0x1F DUP6 ADD PUSH1 0x5 SHR DUP2 ADD SWAP2 PUSH1 0x20 DUP7 LT PUSH2 0xCF6 JUMPI JUMPDEST PUSH1 0x1F ADD PUSH1 0x5 SHR ADD SWAP1 PUSH2 0x54E1 JUMP JUMPDEST CODESIZE PUSH2 0x6CF JUMP JUMPDEST SWAP1 SWAP2 POP DUP2 SWAP1 PUSH2 0xCE3 JUMP JUMPDEST PUSH4 0x4E487B71 PUSH1 0xE0 SHL DUP13 MSTORE PUSH1 0x41 SWAP1 MSTORE PUSH1 0x24 DUP12 REVERT JUMPDEST ADD MLOAD SWAP1 POP CODESIZE DUP1 PUSH2 0x69A JUMP JUMPDEST SWAP2 SWAP1 DUP15 SWAP5 POP PUSH1 0x1F NOT DUP5 AND PUSH1 0x36 DUP5 MSTORE PUSH32 0x4A11F94E20A93C79F6EC743A1954EC4FC2C08429AE2122118BF234B2185C81B8 SWAP4 JUMPDEST DUP2 DUP2 LT PUSH2 0xD85 JUMPI POP DUP5 GT PUSH2 0xD6C JUMPI JUMPDEST POP POP POP DUP2 SHL ADD PUSH1 0x36 SSTORE PUSH2 0x6AF JUMP JUMPDEST ADD MLOAD PUSH1 0x0 NOT PUSH1 0xF8 DUP5 PUSH1 0x3 SHL AND SHR NOT AND SWAP1 SSTORE CODESIZE DUP1 DUP1 PUSH2 0xD5E JUMP JUMPDEST SWAP4 DUP4 SWAP6 SWAP7 PUSH1 0x20 SWAP3 SWAP4 SWAP5 SWAP2 DUP4 SWAP3 DUP7 ADD MLOAD DUP2 SSTORE ADD SWAP6 ADD SWAP4 ADD SWAP1 DUP16 SWAP6 SWAP5 SWAP4 SWAP3 SWAP2 PUSH2 0xD4F JUMP JUMPDEST PUSH2 0xDF0 SWAP1 PUSH1 0x36 PUSH1 0x0 MSTORE PUSH32 0x4A11F94E20A93C79F6EC743A1954EC4FC2C08429AE2122118BF234B2185C81B8 PUSH1 0x1F DUP7 ADD PUSH1 0x5 SHR DUP2 ADD SWAP2 PUSH1 0x20 DUP8 LT PUSH2 0xCF6 JUMPI PUSH1 0x1F ADD PUSH1 0x5 SHR ADD SWAP1 PUSH2 0x54E1 JUMP JUMPDEST CODESIZE PUSH2 0x685 JUMP JUMPDEST PUSH4 0x4E487B71 PUSH1 0xE0 SHL DUP15 MSTORE PUSH1 0x41 DUP4 MSTORE PUSH1 0x24 DUP15 REVERT JUMPDEST POP DUP7 MLOAD PUSH4 0xE6C4247B PUSH1 0xE0 SHL DUP2 MSTORE REVERT JUMPDEST POP DUP12 ISZERO PUSH2 0x648 JUMP JUMPDEST POP DUP9 ISZERO PUSH2 0x641 JUMP JUMPDEST PUSH2 0xFFFF NOT AND PUSH2 0x101 OR SWAP1 SSTORE DUP14 CODESIZE PUSH2 0x634 JUMP JUMPDEST DUP8 MLOAD PUSH3 0x461BCD PUSH1 0xE5 SHL DUP2 MSTORE PUSH1 0x20 DUP2 DUP5 ADD MSTORE PUSH1 0x2E PUSH1 0x24 DUP3 ADD MSTORE PUSH32 0x496E697469616C697A61626C653A20636F6E747261637420697320616C726561 PUSH1 0x44 DUP3 ADD MSTORE PUSH14 0x191E481A5B9A5D1A585B1A5E9959 PUSH1 0x92 SHL PUSH1 0x64 DUP3 ADD MSTORE PUSH1 0x84 SWAP1 REVERT JUMPDEST POP ADDRESS EXTCODESIZE ISZERO DUP1 ISZERO PUSH2 0x615 JUMPI POP PUSH1 0x1 DUP7 DUP9 AND EQ PUSH2 0x615 JUMP JUMPDEST POP PUSH1 0x1 DUP7 DUP9 AND LT PUSH2 0x60E JUMP JUMPDEST PUSH1 0x0 DUP1 REVERT JUMPDEST DUP5 DUP1 REVERT JUMPDEST DUP4 DUP1 REVERT JUMPDEST POP DUP1 REVERT JUMPDEST DUP4 DUP3 CALLVALUE PUSH2 0xEC3 JUMPI PUSH1 0x20 CALLDATASIZE PUSH1 0x3 NOT ADD SLT PUSH2 0xEC3 JUMPI PUSH1 0x20 SWAP2 PUSH1 0xFF SWAP1 DUP3 SWAP1 PUSH1 0x1 PUSH1 0x1 PUSH1 0xA0 SHL SUB PUSH2 0xEF2 PUSH2 0x3DC1 JUMP JUMPDEST AND DUP2 MSTORE PUSH2 0x1FD DUP6 MSTORE KECCAK256 SLOAD AND SWAP1 MLOAD SWAP1 ISZERO ISZERO DUP2 MSTORE RETURN JUMPDEST DUP4 DUP3 CALLVALUE PUSH2 0xEC3 JUMPI DUP1 PUSH1 0x3 NOT CALLDATASIZE ADD SLT PUSH2 0xEC3 JUMPI PUSH1 0x20 SWAP2 PUSH2 0xF23 PUSH2 0x3DC1 JUMP JUMPDEST DUP3 PUSH2 0xF2C PUSH2 0x3DD7 JUMP JUMPDEST PUSH1 0x1 PUSH1 0x1 PUSH1 0xA0 SHL SUB SWAP3 DUP4 AND DUP5 MSTORE PUSH1 0x34 DUP7 MSTORE SWAP3 KECCAK256 SWAP2 AND PUSH1 0x0 SWAP1 DUP2 MSTORE SWAP1 DUP4 MSTORE DUP2 SWAP1 KECCAK256 SLOAD SWAP1 MLOAD SWAP1 DUP2 MSTORE RETURN JUMPDEST DUP4 DUP3 CALLVALUE PUSH2 0xEC3 JUMPI DUP2 PUSH1 0x3 NOT CALLDATASIZE ADD SLT PUSH2 0xEC3 JUMPI PUSH1 0x20 SWAP1 PUSH2 0x1F7 SLOAD SWAP1 MLOAD SWAP1 DUP2 MSTORE RETURN JUMPDEST POP SWAP1 CALLVALUE PUSH2 0x4FC JUMPI PUSH1 0x60 CALLDATASIZE PUSH1 0x3 NOT ADD SLT PUSH2 0x4FC JUMPI PUSH2 0xF8F PUSH2 0x3DC1 JUMP JUMPDEST SWAP2 PUSH1 0x24 CALLDATALOAD PUSH1 0x44 CALLDATALOAD PUSH1 0x1 PUSH1 0x1 PUSH1 0x40 SHL SUB DUP2 GT PUSH2 0x10EE JUMPI PUSH2 0xFB1 SWAP1 CALLDATASIZE SWAP1 DUP6 ADD PUSH2 0x3E03 JUMP JUMPDEST SWAP1 SWAP4 PUSH2 0xFBB PUSH2 0x4500 JUMP JUMPDEST PUSH2 0xFC3 PUSH2 0x5558 JUMP JUMPDEST PUSH1 0x1 PUSH1 0x1 PUSH1 0xA0 SHL SUB DUP7 DUP2 AND SWAP7 SWAP1 DUP8 ISZERO PUSH2 0x112C JUMPI PUSH2 0xFE2 DUP6 PUSH1 0x35 SLOAD PUSH2 0x4B7D JUMP JUMPDEST PUSH2 0x1F7 SLOAD LT PUSH2 0x111C JUMPI PUSH2 0xFF4 DUP3 PUSH2 0x580F JUMP JUMPDEST ISZERO PUSH2 0x110C JUMPI DUP6 MLOAD DUP5 DUP9 DUP3 CALLDATACOPY PUSH1 0xFF DUP6 DUP3 ADD SWAP2 PUSH1 0x20 DUP2 PUSH2 0x1FC SWAP5 DUP6 DUP2 MSTORE SUB ADD SWAP1 KECCAK256 SLOAD AND PUSH2 0x10FC JUMPI SWAP1 DUP10 SWAP4 SWAP3 SWAP2 PUSH1 0x20 DUP9 MLOAD DUP1 SWAP3 DUP9 DUP13 DUP4 CALLDATACOPY DUP2 DUP10 ADD SWAP1 DUP2 MSTORE SUB ADD SWAP1 KECCAK256 DUP1 SLOAD PUSH1 0xFF NOT AND PUSH1 0x1 OR SWAP1 SSTORE PUSH2 0x1047 DUP7 DUP4 PUSH2 0x58CA JUMP JUMPDEST PUSH2 0x1F5 SLOAD AND SWAP2 DUP3 EXTCODESIZE ISZERO PUSH2 0xEBF JUMPI DUP7 MLOAD PUSH4 0x5F8DEAD3 PUSH1 0xE0 SHL DUP2 MSTORE PUSH1 0x1 PUSH1 0x1 PUSH1 0xA0 SHL SUB SWAP1 SWAP3 AND SWAP1 DUP3 ADD SWAP1 DUP2 MSTORE PUSH1 0x20 DUP2 ADD DUP7 SWAP1 MSTORE SWAP1 SWAP2 DUP4 SWAP2 DUP4 SWAP2 SWAP1 DUP3 SWAP1 DUP5 SWAP1 DUP3 SWAP1 PUSH1 0x40 ADD SUB SWAP3 GAS CALL DUP1 ISZERO PUSH2 0x10F2 JUMPI PUSH2 0x10DA JUMPI JUMPDEST POP POP PUSH32 0x159BD2D45DDFD0857AC3174EA323B67309CA30D284F2FC364E1F4E4727DF985F SWAP4 PUSH2 0x10D4 SWAP2 DUP5 MLOAD SWAP5 DUP6 SWAP5 DUP6 MSTORE DUP1 PUSH1 0x20 DUP7 ADD MSTORE DUP5 ADD SWAP2 PUSH2 0x5636 JUMP JUMPDEST SUB SWAP1 LOG2 DUP1 RETURN JUMPDEST PUSH2 0x10E3 SWAP1 PUSH2 0x3F10 JUMP JUMPDEST PUSH2 0x10EE JUMPI DUP6 CODESIZE PUSH2 0x1097 JUMP JUMPDEST DUP6 DUP1 REVERT JUMPDEST DUP6 MLOAD RETURNDATASIZE DUP5 DUP3 RETURNDATACOPY RETURNDATASIZE SWAP1 REVERT JUMPDEST DUP7 MLOAD PUSH4 0x424E8D71 PUSH1 0xE0 SHL DUP2 MSTORE DUP5 SWAP1 REVERT JUMPDEST DUP6 MLOAD PUSH4 0x174A0BA5 PUSH1 0xE3 SHL DUP2 MSTORE DUP4 SWAP1 REVERT JUMPDEST DUP6 MLOAD PUSH4 0x8A164F63 PUSH1 0xE0 SHL DUP2 MSTORE DUP4 SWAP1 REVERT JUMPDEST DUP6 MLOAD PUSH4 0xE6C4247B PUSH1 0xE0 SHL DUP2 MSTORE DUP4 SWAP1 REVERT JUMPDEST POP CALLVALUE PUSH2 0x4FC JUMPI DUP1 PUSH1 0x3 NOT CALLDATASIZE ADD SLT PUSH2 0x4FC JUMPI PUSH2 0x1177 SWAP2 CALLDATALOAD PUSH2 0x1172 PUSH1 0x1 PUSH2 0x115F PUSH2 0x3DD7 JUMP JUMPDEST SWAP4 DUP4 DUP8 MSTORE PUSH2 0x12D PUSH1 0x20 MSTORE DUP7 KECCAK256 ADD SLOAD PUSH2 0x48AE JUMP JUMPDEST PUSH2 0x49AD JUMP JUMPDEST DUP1 RETURN JUMPDEST DUP4 DUP3 CALLVALUE PUSH2 0xEC3 JUMPI DUP2 PUSH1 0x3 NOT CALLDATASIZE ADD SLT PUSH2 0xEC3 JUMPI PUSH1 0x20 SWAP1 MLOAD PUSH32 0x9F2DF0FED2C77648DE5860A4CC508CD0818C85B8B8A1AB4CEEEF8D981C8956A6 DUP2 MSTORE RETURN JUMPDEST POP CALLVALUE PUSH2 0x4FC JUMPI PUSH1 0x20 CALLDATASIZE PUSH1 0x3 NOT ADD SLT PUSH2 0x4FC JUMPI PUSH2 0x11CF PUSH2 0x3DC1 JUMP JUMPDEST SWAP2 PUSH2 0x11D8 PUSH2 0x4774 JUMP JUMPDEST PUSH1 0x1 PUSH1 0x1 PUSH1 0xA0 SHL SUB SWAP3 DUP4 AND SWAP2 DUP3 ISZERO PUSH2 0x56F JUMPI POP POP PUSH2 0x1F6 SWAP2 DUP2 DUP4 SLOAD SWAP2 DUP3 AND PUSH32 0x4900E8DE75D157A21080E6F17B8C48972095AFB692F9FD506645277C99153AE3 DUP7 DUP1 LOG3 PUSH1 0x1 PUSH1 0x1 PUSH1 0xA0 SHL SUB NOT AND OR SWAP1 SSTORE DUP1 RETURN JUMPDEST DUP4 DUP3 CALLVALUE PUSH2 0xEC3 JUMPI PUSH1 0x20 CALLDATASIZE PUSH1 0x3 NOT ADD SLT PUSH2 0xEC3 JUMPI PUSH1 0x20 SWAP1 PUSH2 0x1250 PUSH2 0x124B PUSH2 0x3DC1 JUMP JUMPDEST PUSH2 0x580F JUMP JUMPDEST SWAP1 MLOAD SWAP1 ISZERO ISZERO DUP2 MSTORE RETURN JUMPDEST POP SWAP1 CALLVALUE PUSH2 0x4FC JUMPI DUP2 PUSH1 0x3 NOT CALLDATASIZE ADD SLT PUSH2 0x4FC JUMPI PUSH2 0x1273 PUSH2 0x3DC1 JUMP JUMPDEST SWAP2 PUSH2 0x127C PUSH2 0x41DE JUMP JUMPDEST SWAP3 PUSH2 0x1285 PUSH2 0x43C6 JUMP JUMPDEST PUSH1 0x1 PUSH1 0x1 PUSH1 0xA0 SHL SUB AND SWAP2 DUP3 ISZERO PUSH2 0x12DC JUMPI POP DUP2 DUP5 MSTORE PUSH2 0x1FD PUSH1 0x20 MSTORE DUP4 KECCAK256 DUP1 SLOAD PUSH1 0xFF NOT AND PUSH1 0xFF DUP5 ISZERO ISZERO AND OR SWAP1 SSTORE CALLER SWAP2 ISZERO ISZERO SWAP1 PUSH32 0x7FA523C84AB8D7FC5B72F08B9E46DBBF10C39E119A075B3E317002D14BC9F436 DUP5 DUP1 LOG4 DUP1 RETURN JUMPDEST SWAP1 MLOAD PUSH4 0xE6C4247B PUSH1 0xE0 SHL DUP2 MSTORE REVERT JUMPDEST POP SWAP1 CALLVALUE PUSH2 0x4FC JUMPI PUSH1 0x20 CALLDATASIZE PUSH1 0x3 NOT ADD SLT PUSH2 0x4FC JUMPI DUP1 CALLDATALOAD SWAP1 PUSH1 0x1 PUSH1 0x1 PUSH1 0x40 SHL SUB DUP3 GT PUSH2 0xEBF JUMPI PUSH2 0x131A SWAP2 CALLDATASIZE SWAP2 ADD PUSH2 0x3E03 JUMP JUMPDEST PUSH2 0x1325 SWAP3 SWAP2 SWAP3 PUSH2 0x420B JUMP JUMPDEST PUSH32 0x6A1105AC8148A3C319ADBC369F9072573E8A11D3A3D195E067E7C40767EC54D1 PUSH2 0x139E PUSH2 0x1387 DUP5 MLOAD SWAP4 PUSH2 0x1363 DUP6 PUSH2 0x135C DUP2 PUSH2 0x408F JUMP JUMPDEST SUB DUP7 PUSH2 0x3F3E JUMP JUMPDEST PUSH1 0x1 DUP1 PUSH1 0xA0 SHL SUB PUSH2 0x1F8 SLOAD AND SWAP7 DUP2 DUP8 MLOAD SWAP3 DUP4 SWAP3 DUP4 CALLDATACOPY DUP2 ADD PUSH1 0x0 DUP2 MSTORE SUB SWAP1 KECCAK256 SWAP4 PUSH2 0x589D JUMP JUMPDEST SWAP4 DUP1 MLOAD SWAP2 DUP3 SWAP2 PUSH1 0x12 DUP4 MSTORE DUP1 PUSH1 0x20 DUP5 ADD MSTORE DUP3 ADD PUSH2 0x4116 JUMP JUMPDEST SUB SWAP1 LOG4 DUP1 RETURN JUMPDEST DUP4 DUP3 CALLVALUE PUSH2 0xEC3 JUMPI DUP2 PUSH1 0x3 NOT CALLDATASIZE ADD SLT PUSH2 0xEC3 JUMPI PUSH1 0x20 SWAP1 PUSH1 0xFF PUSH2 0x200 SLOAD AND SWAP1 MLOAD SWAP1 DUP2 MSTORE RETURN JUMPDEST DUP4 DUP3 CALLVALUE PUSH2 0xEC3 JUMPI PUSH1 0x20 CALLDATASIZE PUSH1 0x3 NOT ADD SLT PUSH2 0xEC3 JUMPI PUSH1 0xFF DUP2 PUSH1 0x20 SWAP4 PUSH2 0xFFFF PUSH2 0x13EB PUSH2 0x41CD JUMP JUMPDEST AND DUP2 MSTORE PUSH2 0x201 DUP6 MSTORE KECCAK256 SLOAD AND SWAP1 MLOAD SWAP1 ISZERO ISZERO DUP2 MSTORE RETURN JUMPDEST DUP4 DUP3 CALLVALUE PUSH2 0xEC3 JUMPI DUP2 PUSH1 0x3 NOT CALLDATASIZE ADD SLT PUSH2 0xEC3 JUMPI PUSH2 0x1F6 SLOAD SWAP1 MLOAD PUSH1 0x1 PUSH1 0x1 PUSH1 0xA0 SHL SUB SWAP1 SWAP2 AND DUP2 MSTORE PUSH1 0x20 SWAP1 RETURN JUMPDEST POP SWAP1 CALLVALUE PUSH2 0x4FC JUMPI PUSH1 0x20 CALLDATASIZE PUSH1 0x3 NOT ADD SLT PUSH2 0x4FC JUMPI DUP1 CALLDATALOAD SWAP1 PUSH1 0x1 PUSH1 0x1 PUSH1 0x40 SHL SUB DUP3 GT PUSH2 0xEBF JUMPI PUSH2 0x1459 SWAP2 CALLDATASIZE SWAP2 ADD PUSH2 0x3E03 JUMP JUMPDEST SWAP2 SWAP1 PUSH2 0x1463 PUSH2 0x420B JUMP JUMPDEST PUSH32 0x6A1105AC8148A3C319ADBC369F9072573E8A11D3A3D195E067E7C40767EC54D1 PUSH2 0x139E DUP4 MLOAD SWAP5 PUSH2 0x149E DUP7 PUSH2 0x1497 DUP2 PUSH2 0x3FEB JUMP JUMPDEST SUB DUP8 PUSH2 0x3F3E JUMP JUMPDEST PUSH2 0x1F8 SLOAD PUSH1 0x1 PUSH1 0x1 PUSH1 0xA0 SHL SUB AND SWAP6 PUSH2 0x14B5 SWAP1 PUSH2 0x589D JUMP JUMPDEST SWAP4 DUP2 DUP7 MLOAD SWAP3 DUP4 SWAP3 DUP4 CALLDATACOPY DUP2 ADD PUSH1 0x0 DUP2 MSTORE SUB SWAP1 KECCAK256 SWAP4 DUP1 MLOAD SWAP2 DUP3 SWAP2 PUSH1 0x12 DUP4 MSTORE DUP1 PUSH1 0x20 DUP5 ADD MSTORE DUP3 ADD PUSH2 0x4116 JUMP JUMPDEST DUP4 DUP3 CALLVALUE PUSH2 0xEC3 JUMPI DUP2 PUSH1 0x3 NOT CALLDATASIZE ADD SLT PUSH2 0xEC3 JUMPI PUSH2 0x1F8 SLOAD SWAP1 MLOAD PUSH1 0x1 PUSH1 0x1 PUSH1 0xA0 SHL SUB SWAP1 SWAP2 AND DUP2 MSTORE PUSH1 0x20 SWAP1 RETURN JUMPDEST DUP4 DUP3 CALLVALUE PUSH2 0xEC3 JUMPI DUP1 PUSH1 0x3 NOT CALLDATASIZE ADD SLT PUSH2 0xEC3 JUMPI PUSH1 0x20 SWAP1 PUSH2 0x1532 PUSH2 0x1528 PUSH2 0x3DC1 JUMP JUMPDEST PUSH1 0x24 CALLDATALOAD SWAP1 CALLER PUSH2 0x4BA0 JUMP JUMPDEST MLOAD PUSH1 0x1 DUP2 MSTORE RETURN JUMPDEST POP SWAP2 CALLVALUE PUSH2 0x15DF JUMPI DUP3 PUSH1 0x3 NOT CALLDATASIZE ADD SLT PUSH2 0x15DF JUMPI PUSH2 0x1553 PUSH2 0x3DC1 JUMP JUMPDEST SWAP2 DUP4 PUSH1 0x24 CALLDATALOAD SWAP3 CALLER DUP2 MSTORE PUSH1 0x34 PUSH1 0x20 MSTORE KECCAK256 PUSH1 0x1 DUP1 PUSH1 0xA0 SHL SUB DUP5 AND PUSH1 0x0 MSTORE PUSH1 0x20 MSTORE DUP4 PUSH1 0x0 KECCAK256 SLOAD SWAP1 DUP3 DUP3 LT PUSH2 0x158E JUMPI PUSH1 0x20 DUP6 PUSH2 0x1532 DUP6 DUP6 SUB DUP8 CALLER PUSH2 0x4F27 JUMP JUMPDEST PUSH1 0x84 SWAP1 PUSH1 0x20 DUP7 MLOAD SWAP2 PUSH3 0x461BCD PUSH1 0xE5 SHL DUP4 MSTORE DUP3 ADD MSTORE PUSH1 0x25 PUSH1 0x24 DUP3 ADD MSTORE PUSH32 0x45524332303A2064656372656173656420616C6C6F77616E63652062656C6F77 PUSH1 0x44 DUP3 ADD MSTORE PUSH5 0x207A65726F PUSH1 0xD8 SHL PUSH1 0x64 DUP3 ADD MSTORE REVERT JUMPDEST DUP1 REVERT JUMPDEST DUP4 DUP3 CALLVALUE PUSH2 0xEC3 JUMPI DUP2 PUSH1 0x3 NOT CALLDATASIZE ADD SLT PUSH2 0xEC3 JUMPI PUSH1 0x20 SWAP1 PUSH1 0xFF PUSH2 0x203 SLOAD AND SWAP1 MLOAD SWAP1 ISZERO ISZERO DUP2 MSTORE RETURN JUMPDEST DUP4 DUP3 CALLVALUE PUSH2 0xEC3 JUMPI DUP2 PUSH1 0x3 NOT CALLDATASIZE ADD SLT PUSH2 0xEC3 JUMPI MLOAD SWAP1 DUP2 MSTORE PUSH1 0x20 SWAP1 RETURN JUMPDEST DUP4 DUP3 CALLVALUE PUSH2 0xEC3 JUMPI PUSH1 0x20 CALLDATASIZE PUSH1 0x3 NOT ADD SLT PUSH2 0xEC3 JUMPI SWAP1 DUP2 PUSH1 0xA0 SWAP3 PUSH2 0x1642 PUSH2 0x3DC1 JUMP JUMPDEST SWAP3 PUSH1 0x1 DUP1 DUP7 SHL SUB DUP5 AND DUP2 MSTORE PUSH2 0x1FF PUSH1 0x20 MSTORE KECCAK256 SWAP2 DUP3 SLOAD SWAP3 PUSH2 0x166B PUSH1 0x2 PUSH1 0x1 DUP4 ADD SLOAD SWAP3 ADD SLOAD SWAP3 PUSH2 0x580F JUMP JUMPDEST SWAP3 PUSH2 0xFFFF DUP2 MLOAD SWAP6 PUSH1 0xFF DUP2 AND DUP8 MSTORE PUSH1 0x8 SHR AND PUSH1 0x20 DUP7 ADD MSTORE DUP5 ADD MSTORE PUSH1 0x60 DUP4 ADD MSTORE ISZERO ISZERO PUSH1 0x80 DUP3 ADD MSTORE RETURN JUMPDEST POP SWAP1 CALLVALUE PUSH2 0x4FC JUMPI PUSH2 0x16A2 CALLDATASIZE PUSH2 0x3EAA JUMP JUMPDEST SWAP3 SWAP1 SWAP2 PUSH2 0x16AD PUSH2 0x43C6 JUMP JUMPDEST PUSH2 0x16B5 PUSH2 0x5558 JUMP JUMPDEST PUSH1 0x1 PUSH1 0x1 PUSH1 0xA0 SHL SUB DUP2 DUP2 AND ISZERO DUP1 ISZERO PUSH2 0x1809 JUMPI JUMPDEST PUSH2 0x112C JUMPI PUSH2 0x16D5 DUP5 PUSH2 0x580F JUMP JUMPDEST ISZERO PUSH2 0x110C JUMPI PUSH2 0x1F5 DUP1 SLOAD DUP8 MLOAD PUSH4 0x72331C73 PUSH1 0xE1 SHL DUP2 MSTORE PUSH1 0x1 PUSH1 0x1 PUSH1 0xA0 SHL SUB DUP6 DUP2 AND DUP8 DUP4 ADD SWAP1 DUP2 MSTORE SWAP1 DUP9 AND PUSH1 0x20 DUP1 DUP4 ADD SWAP2 SWAP1 SWAP2 MSTORE PUSH1 0x40 DUP3 ADD DUP11 SWAP1 MSTORE SWAP2 SWAP3 DUP4 SWAP2 DUP3 SWAP1 SUB PUSH1 0x60 ADD SWAP1 DUP3 SWAP1 DUP8 AND GAS STATICCALL SWAP1 DUP2 ISZERO PUSH2 0x17FF JUMPI DUP10 SWAP2 PUSH2 0x17D1 JUMPI JUMPDEST POP ISZERO PUSH2 0x17C1 JUMPI SWAP1 DUP3 SWAP2 PUSH2 0x1745 DUP8 DUP8 DUP12 SWAP9 SWAP8 SWAP7 PUSH2 0x4BA0 JUMP JUMPDEST SLOAD AND SWAP2 DUP3 EXTCODESIZE ISZERO PUSH2 0xEBB JUMPI DUP7 MLOAD PUSH4 0x22EBCA6D PUSH1 0xE2 SHL DUP2 MSTORE PUSH1 0x1 PUSH1 0x1 PUSH1 0xA0 SHL SUB SWAP3 DUP4 AND SWAP2 DUP2 ADD SWAP2 DUP3 MSTORE SWAP2 SWAP1 SWAP4 AND PUSH1 0x20 DUP5 ADD MSTORE PUSH1 0x40 DUP4 ADD SWAP5 SWAP1 SWAP5 MSTORE DUP4 SWAP2 DUP3 SWAP1 DUP5 SWAP1 DUP3 SWAP1 PUSH1 0x60 ADD SUB SWAP3 GAS CALL DUP1 ISZERO PUSH2 0x17B5 JUMPI PUSH2 0x17A1 JUMPI JUMPDEST PUSH1 0x20 DUP3 MLOAD PUSH1 0x1 DUP2 MSTORE RETURN JUMPDEST PUSH2 0x17AB DUP4 SWAP2 PUSH2 0x3F10 JUMP JUMPDEST PUSH2 0xEC3 JUMPI DUP2 PUSH2 0x1797 JUMP JUMPDEST POP POP MLOAD SWAP1 RETURNDATASIZE SWAP1 DUP3 RETURNDATACOPY RETURNDATASIZE SWAP1 REVERT JUMPDEST DUP7 MLOAD PUSH4 0x10A151F5 PUSH1 0xE0 SHL DUP2 MSTORE DUP5 SWAP1 REVERT JUMPDEST PUSH2 0x17F2 SWAP2 POP PUSH1 0x20 RETURNDATASIZE DUP2 GT PUSH2 0x17F8 JUMPI JUMPDEST PUSH2 0x17EA DUP2 DUP4 PUSH2 0x3F3E JUMP JUMPDEST DUP2 ADD SWAP1 PUSH2 0x561E JUMP JUMPDEST CODESIZE PUSH2 0x172E JUMP JUMPDEST POP RETURNDATASIZE PUSH2 0x17E0 JUMP JUMPDEST DUP9 MLOAD RETURNDATASIZE DUP12 DUP3 RETURNDATACOPY RETURNDATASIZE SWAP1 REVERT JUMPDEST POP DUP1 DUP5 AND ISZERO PUSH2 0x16C8 JUMP JUMPDEST POP SWAP1 CALLVALUE PUSH2 0x4FC JUMPI DUP2 PUSH1 0x3 NOT CALLDATASIZE ADD SLT PUSH2 0x4FC JUMPI PUSH2 0x182D PUSH2 0x3DC1 JUMP JUMPDEST SWAP2 PUSH1 0x24 CALLDATALOAD SWAP2 PUSH2 0x183A PUSH2 0x463A JUMP JUMPDEST PUSH2 0x1842 PUSH2 0x5558 JUMP JUMPDEST PUSH1 0x1 PUSH1 0x1 PUSH1 0xA0 SHL SUB DUP5 DUP2 AND SWAP5 SWAP1 DUP6 ISZERO PUSH2 0x1900 JUMPI SWAP1 DUP7 SWAP3 SWAP2 PUSH2 0x1863 DUP7 DUP4 PUSH2 0x5B18 JUMP JUMPDEST PUSH2 0x1F5 SLOAD AND SWAP2 DUP3 EXTCODESIZE ISZERO PUSH2 0xEBF JUMPI DUP5 MLOAD PUSH4 0x469753B9 PUSH1 0xE1 SHL DUP2 MSTORE PUSH1 0x1 PUSH1 0x1 PUSH1 0xA0 SHL SUB SWAP1 SWAP3 AND SWAP1 DUP3 ADD SWAP1 DUP2 MSTORE PUSH1 0x20 DUP2 ADD DUP7 SWAP1 MSTORE SWAP1 SWAP2 DUP4 SWAP2 DUP4 SWAP2 SWAP1 DUP3 SWAP1 DUP5 SWAP1 DUP3 SWAP1 PUSH1 0x40 ADD SUB SWAP3 GAS CALL DUP1 ISZERO PUSH2 0x18F6 JUMPI PUSH2 0x18E2 JUMPI JUMPDEST POP POP PUSH32 0xFD38818F5291BF0BB3A2A48AADC06BA8757865D1DABD804585338AAB3009DCB6 SWAP2 PUSH1 0x20 SWAP2 MLOAD SWAP1 DUP2 MSTORE LOG2 DUP1 RETURN JUMPDEST PUSH2 0x18EB SWAP1 PUSH2 0x3F10 JUMP JUMPDEST PUSH2 0xEBF JUMPI DUP4 CODESIZE PUSH2 0x18B3 JUMP JUMPDEST DUP4 MLOAD RETURNDATASIZE DUP5 DUP3 RETURNDATACOPY RETURNDATASIZE SWAP1 REVERT JUMPDEST DUP4 MLOAD PUSH4 0xE6C4247B PUSH1 0xE0 SHL DUP2 MSTORE DUP4 SWAP1 REVERT JUMPDEST POP SWAP1 CALLVALUE PUSH2 0x4FC JUMPI PUSH1 0x20 CALLDATASIZE PUSH1 0x3 NOT ADD SLT PUSH2 0x4FC JUMPI SWAP2 PUSH2 0x1930 PUSH1 0x20 SWAP4 CALLDATALOAD PUSH2 0x50C5 JUMP JUMPDEST SWAP2 POP ISZERO PUSH2 0x193F JUMPI SWAP1 JUMPDEST MLOAD SWAP1 DUP2 MSTORE RETURN JUMPDEST POP PUSH1 0x35 SLOAD SWAP1 PUSH2 0x1939 JUMP JUMPDEST POP DUP3 SWAP1 CALLVALUE PUSH2 0xEC3 JUMPI DUP2 PUSH1 0x3 NOT CALLDATASIZE ADD SLT PUSH2 0xEC3 JUMPI PUSH32 0x5FDBD35E8DA83EE755D5E62A539E5ED7F47126ABEDE0B8B10F9EA43DC6EED07F SWAP3 DUP4 PUSH1 0x0 MSTORE PUSH1 0x20 SWAP4 PUSH2 0x12D DUP6 MSTORE DUP3 PUSH1 0x0 KECCAK256 CALLER PUSH1 0x0 MSTORE DUP6 MSTORE PUSH1 0xFF DUP4 PUSH1 0x0 KECCAK256 SLOAD AND ISZERO PUSH2 0x1A17 JUMPI POP POP PUSH1 0x1 PUSH1 0xCC SLOAD ADD SWAP2 DUP3 PUSH1 0xCC SSTORE PUSH32 0x8030E83B04D87BEF53480E26263266D6CA66863AA8506ACA6F2559D18AA1CB67 DUP5 DUP4 MLOAD DUP6 DUP2 MSTORE LOG1 DUP3 PUSH2 0x1FB SSTORE DUP3 DUP2 MSTORE PUSH2 0x1FA DUP5 MSTORE DUP2 NUMBER SWAP2 KECCAK256 SSTORE DUP2 PUSH32 0xA5B69DDA4109F3B3C9A78321D06FD4C59F56D886E9C6C8ABADDD33D3D16C103 DUP5 DUP4 MLOAD NUMBER DUP2 MSTORE LOG2 MLOAD SWAP1 DUP2 MSTORE RETURN JUMPDEST DUP5 SWAP1 PUSH2 0x1A22 CALLER PUSH2 0x53E3 JUMP JUMPDEST DUP5 MLOAD SWAP1 PUSH2 0x1A2E DUP3 PUSH2 0x3EDF JUMP JUMPDEST PUSH1 0x42 DUP3 MSTORE DUP4 DUP3 ADD SWAP3 PUSH1 0x60 CALLDATASIZE DUP6 CALLDATACOPY DUP3 MLOAD ISZERO PUSH2 0x1BB9 JUMPI PUSH1 0x30 DUP5 MSTORE8 DUP3 MLOAD PUSH1 0x1 SWAP1 DUP2 LT ISZERO PUSH2 0x1BA4 JUMPI PUSH1 0x78 PUSH1 0x21 DUP6 ADD MSTORE8 PUSH1 0x41 SWAP1 JUMPDEST DUP1 DUP3 GT PUSH2 0x1B37 JUMPI POP POP PUSH2 0x1AF5 JUMPI PUSH2 0x1AF1 SWAP4 DUP7 SWAP4 PUSH2 0x1ADD SWAP4 PUSH2 0x1ACE PUSH1 0x48 SWAP5 PUSH2 0x1AA5 SWAP11 MLOAD SWAP11 DUP6 PUSH1 0x0 DUP1 MLOAD PUSH1 0x20 PUSH2 0x5D95 DUP4 CODECOPY DUP2 MLOAD SWAP2 MSTORE DUP14 SWAP8 DUP9 ADD MSTORE DUP3 MLOAD SWAP3 DUP4 SWAP2 PUSH1 0x37 DUP10 ADD SWAP2 ADD PUSH2 0x3D72 JUMP JUMPDEST DUP5 ADD SWAP2 PUSH17 0x1034B99036B4B9B9B4B733903937B6329 PUSH1 0x7D SHL PUSH1 0x37 DUP5 ADD MSTORE MLOAD DUP1 SWAP4 DUP7 DUP5 ADD SWAP1 PUSH2 0x3D72 JUMP JUMPDEST ADD SUB PUSH1 0x28 DUP2 ADD DUP8 MSTORE ADD DUP6 PUSH2 0x3F3E JUMP JUMPDEST MLOAD PUSH3 0x461BCD PUSH1 0xE5 SHL DUP2 MSTORE SWAP3 DUP4 SWAP3 DUP4 ADD PUSH2 0x3D95 JUMP JUMPDEST SUB SWAP1 REVERT JUMPDEST POP POP POP DUP1 PUSH1 0x64 SWAP4 MLOAD SWAP3 PUSH3 0x461BCD PUSH1 0xE5 SHL DUP5 MSTORE DUP4 ADD MSTORE PUSH1 0x24 DUP3 ADD MSTORE PUSH32 0x537472696E67733A20686578206C656E67746820696E73756666696369656E74 PUSH1 0x44 DUP3 ADD MSTORE REVERT JUMPDEST SWAP1 SWAP2 PUSH1 0xF DUP2 AND PUSH1 0x10 DUP2 LT ISZERO PUSH2 0x1B8F JUMPI PUSH16 0x181899199A1A9B1B9C1CB0B131B232B3 PUSH1 0x81 SHL SWAP1 BYTE PUSH2 0x1B66 DUP5 DUP8 PUSH2 0x53D2 JUMP JUMPDEST MSTORE8 DUP8 SHR SWAP2 DUP1 ISZERO PUSH2 0x1B7A JUMPI PUSH1 0x0 NOT ADD SWAP1 PUSH2 0x1A5D JUMP JUMPDEST PUSH1 0x11 DUP9 PUSH4 0x4E487B71 PUSH1 0xE0 SHL PUSH1 0x0 MSTORE MSTORE PUSH1 0x24 PUSH1 0x0 REVERT JUMPDEST PUSH1 0x32 DUP10 PUSH4 0x4E487B71 PUSH1 0xE0 SHL PUSH1 0x0 MSTORE MSTORE PUSH1 0x24 PUSH1 0x0 REVERT JUMPDEST PUSH1 0x32 DUP8 PUSH4 0x4E487B71 PUSH1 0xE0 SHL PUSH1 0x0 MSTORE MSTORE PUSH1 0x24 PUSH1 0x0 REVERT JUMPDEST PUSH1 0x32 DUP7 PUSH4 0x4E487B71 PUSH1 0xE0 SHL PUSH1 0x0 MSTORE MSTORE PUSH1 0x24 PUSH1 0x0 REVERT JUMPDEST DUP4 DUP3 CALLVALUE PUSH2 0xEC3 JUMPI DUP2 PUSH1 0x3 NOT CALLDATASIZE ADD SLT PUSH2 0xEC3 JUMPI DUP1 MLOAD PUSH2 0x1C04 SWAP2 PUSH2 0x1BFA DUP3 PUSH2 0x1BF3 DUP2 PUSH2 0x408F JUMP JUMPDEST SUB DUP4 PUSH2 0x3F3E JUMP JUMPDEST MLOAD SWAP2 DUP3 SWAP2 DUP3 PUSH2 0x3D95 JUMP JUMPDEST SUB SWAP1 RETURN JUMPDEST POP SWAP2 CALLVALUE PUSH2 0x15DF JUMPI PUSH1 0x60 CALLDATASIZE PUSH1 0x3 NOT ADD SLT PUSH2 0x15DF JUMPI PUSH2 0x1C23 PUSH2 0x3DC1 JUMP JUMPDEST PUSH2 0x1C2B PUSH2 0x3DD7 JUMP JUMPDEST PUSH2 0x1C33 PUSH2 0x3DED JUMP JUMPDEST SWAP4 PUSH32 0xACF805600123EF007091DA3B3FFB39474074C656C127AA68CB0FFEC232A8FF8 SWAP6 DUP7 PUSH1 0x0 MSTORE PUSH1 0x20 SWAP7 PUSH2 0x12D DUP9 MSTORE DUP2 PUSH1 0x0 KECCAK256 CALLER PUSH1 0x0 MSTORE DUP9 MSTORE PUSH1 0xFF DUP3 PUSH1 0x0 KECCAK256 SLOAD AND ISZERO PUSH2 0x1D93 JUMPI POP PUSH2 0x1C82 PUSH2 0x5558 JUMP JUMPDEST PUSH1 0x1 PUSH1 0x1 PUSH1 0xA0 SHL SUB DUP5 DUP2 AND SWAP4 SWAP1 SWAP3 SWAP1 DUP5 ISZERO DUP1 ISZERO PUSH2 0x1D89 JUMPI JUMPDEST DUP1 ISZERO PUSH2 0x1D7F JUMPI JUMPDEST PUSH2 0x1D70 JUMPI PUSH2 0x1CAE DUP2 PUSH2 0x580F JUMP JUMPDEST ISZERO PUSH2 0x1D61 JUMPI DUP5 DUP8 MSTORE PUSH1 0x33 DUP10 MSTORE DUP3 DUP8 KECCAK256 SLOAD SWAP2 DUP3 ISZERO PUSH2 0x1D53 JUMPI POP PUSH32 0xF0C9129A94F30F1CAACEB63E44B9811D0A3EDF1D6C23757F346093AF5553FED0 SWAP4 SWAP3 SWAP2 PUSH2 0x1D47 SWAP2 DUP7 DUP10 MSTORE PUSH2 0x1FE DUP12 MSTORE DUP4 DUP10 KECCAK256 SLOAD SWAP8 DUP6 DUP3 AND SWAP9 DUP10 DUP12 MSTORE DUP6 DUP12 KECCAK256 SSTORE DUP8 DUP11 MSTORE DUP10 DUP6 DUP2 KECCAK256 SSTORE PUSH2 0x1FD DUP13 MSTORE PUSH2 0x1D34 PUSH1 0xFF DUP7 DUP13 KECCAK256 SLOAD AND DUP11 DUP13 MSTORE DUP7 DUP13 KECCAK256 SWAP1 PUSH1 0xFF DUP1 NOT DUP4 SLOAD AND SWAP2 ISZERO ISZERO AND OR SWAP1 SSTORE JUMP JUMPDEST DUP8 DUP11 MSTORE DUP5 DUP11 KECCAK256 DUP1 SLOAD PUSH1 0xFF NOT AND SWAP1 SSTORE PUSH2 0x4BA0 JUMP JUMPDEST MLOAD SWAP6 AND SWAP4 DUP1 LOG4 PUSH1 0x1 DUP2 MSTORE RETURN JUMPDEST DUP4 MLOAD PUSH4 0xA4B66909 PUSH1 0xE0 SHL DUP2 MSTORE REVERT JUMPDEST POP SWAP1 MLOAD PUSH4 0x174A0BA5 PUSH1 0xE3 SHL DUP2 MSTORE REVERT JUMPDEST POP SWAP1 MLOAD PUSH4 0xE6C4247B PUSH1 0xE0 SHL DUP2 MSTORE REVERT JUMPDEST POP DUP4 DUP9 AND ISZERO PUSH2 0x1CA1 JUMP JUMPDEST POP DUP4 DUP2 AND ISZERO PUSH2 0x1C9A JUMP JUMPDEST DUP8 DUP4 SWAP2 PUSH2 0x1D9F CALLER PUSH2 0x53E3 JUMP JUMPDEST DUP5 MLOAD SWAP1 PUSH2 0x1DAB DUP3 PUSH2 0x3EDF JUMP JUMPDEST PUSH1 0x42 DUP3 MSTORE DUP4 DUP3 ADD SWAP3 PUSH1 0x60 CALLDATASIZE DUP6 CALLDATACOPY DUP3 MLOAD ISZERO PUSH2 0x1BB9 JUMPI PUSH1 0x30 DUP5 MSTORE8 DUP3 MLOAD PUSH1 0x1 SWAP1 DUP2 LT ISZERO PUSH2 0x1BA4 JUMPI PUSH1 0x78 PUSH1 0x21 DUP6 ADD MSTORE8 PUSH1 0x41 SWAP1 JUMPDEST DUP1 DUP3 GT PUSH2 0x1E22 JUMPI POP POP PUSH2 0x1AF5 JUMPI PUSH2 0x1AF1 SWAP4 DUP7 SWAP4 PUSH2 0x1ADD SWAP4 PUSH2 0x1ACE PUSH1 0x48 SWAP5 PUSH2 0x1AA5 SWAP11 MLOAD SWAP11 DUP6 PUSH1 0x0 DUP1 MLOAD PUSH1 0x20 PUSH2 0x5D95 DUP4 CODECOPY DUP2 MLOAD SWAP2 MSTORE DUP14 SWAP8 DUP9 ADD MSTORE DUP3 MLOAD SWAP3 DUP4 SWAP2 PUSH1 0x37 DUP10 ADD SWAP2 ADD PUSH2 0x3D72 JUMP JUMPDEST SWAP1 SWAP2 PUSH1 0xF DUP2 AND PUSH1 0x10 DUP2 LT ISZERO PUSH2 0x1B8F JUMPI PUSH16 0x181899199A1A9B1B9C1CB0B131B232B3 PUSH1 0x81 SHL SWAP1 BYTE PUSH2 0x1E51 DUP5 DUP8 PUSH2 0x53D2 JUMP JUMPDEST MSTORE8 DUP8 SHR SWAP2 DUP1 ISZERO PUSH2 0x1B7A JUMPI PUSH1 0x0 NOT ADD SWAP1 PUSH2 0x1DDA JUMP JUMPDEST POP SWAP1 CALLVALUE PUSH2 0x4FC JUMPI DUP2 PUSH1 0x3 NOT CALLDATASIZE ADD SLT PUSH2 0x4FC JUMPI DUP2 PUSH1 0x20 SWAP4 PUSH2 0x1E83 PUSH2 0x3DD7 JUMP JUMPDEST SWAP3 CALLDATALOAD DUP2 MSTORE PUSH2 0x12D DUP6 MSTORE KECCAK256 SWAP1 PUSH1 0x1 DUP1 PUSH1 0xA0 SHL SUB AND PUSH1 0x0 MSTORE DUP3 MSTORE PUSH1 0xFF DUP2 PUSH1 0x0 KECCAK256 SLOAD AND SWAP1 MLOAD SWAP1 ISZERO ISZERO DUP2 MSTORE RETURN JUMPDEST POP SWAP1 CALLVALUE PUSH2 0x4FC JUMPI PUSH1 0x20 CALLDATASIZE PUSH1 0x3 NOT ADD SLT PUSH2 0x4FC JUMPI CALLDATALOAD SWAP1 DUP2 ISZERO ISZERO DUP1 SWAP3 SUB PUSH2 0xEB6 JUMPI PUSH32 0x739B4EFCD22D225C4BBEED6E54A88253A34D8DA882233C30550A40FCFF3DDCD2 SWAP2 PUSH1 0x20 SWAP2 PUSH2 0x1EF8 PUSH2 0x420B JUMP JUMPDEST PUSH2 0x203 PUSH1 0xFF NOT DUP2 SLOAD AND PUSH1 0xFF DUP5 AND OR SWAP1 SSTORE MLOAD SWAP1 DUP2 MSTORE LOG1 DUP1 RETURN JUMPDEST DUP4 DUP3 CALLVALUE PUSH2 0xEC3 JUMPI DUP2 PUSH1 0x3 NOT CALLDATASIZE ADD SLT PUSH2 0xEC3 JUMPI PUSH1 0x20 PUSH32 0x62E78CEA01BEE320CD4E420270B5EA74000D11B0C9F74754EBDBFC544B05A258 SWAP2 PUSH2 0x1F4E PUSH2 0x420B JUMP JUMPDEST PUSH2 0x1F56 PUSH2 0x5558 JUMP JUMPDEST PUSH1 0x1 PUSH1 0xFF NOT PUSH1 0x65 SLOAD AND OR PUSH1 0x65 SSTORE MLOAD CALLER DUP2 MSTORE LOG1 DUP1 RETURN JUMPDEST POP CALLVALUE PUSH2 0x4FC JUMPI PUSH1 0x3 NOT SWAP1 CALLDATASIZE DUP3 ADD SLT PUSH2 0x4FC JUMPI PUSH2 0x1F85 PUSH2 0x3DC1 JUMP JUMPDEST SWAP1 PUSH1 0x24 CALLDATALOAD SWAP1 PUSH1 0x1 PUSH1 0x1 PUSH1 0x40 SHL SUB DUP3 GT PUSH2 0xEBB JUMPI PUSH1 0x80 SWAP1 DUP3 CALLDATASIZE SUB ADD SLT PUSH2 0xEBF JUMPI PUSH2 0x1177 SWAP3 PUSH2 0x1FB0 PUSH2 0x5558 JUMP JUMPDEST ADD SWAP1 PUSH2 0x568E JUMP JUMPDEST DUP4 DUP3 CALLVALUE PUSH2 0xEC3 JUMPI DUP1 PUSH1 0x3 NOT CALLDATASIZE ADD SLT PUSH2 0xEC3 JUMPI PUSH32 0x9215246E93BEA9C817DB5AC4A897E08E604A0AB1E11CFA9295C828EF61003F48 PUSH1 0x20 PUSH2 0x1FF4 PUSH2 0x41CD JUMP JUMPDEST PUSH2 0xFFFF PUSH2 0x1FFF PUSH2 0x41DE JUMP JUMPDEST SWAP2 PUSH2 0x2008 PUSH2 0x420B JUMP JUMPDEST AND SWAP4 DUP5 DUP7 MSTORE PUSH2 0x201 DUP4 MSTORE PUSH2 0x202A DUP3 DUP3 DUP9 KECCAK256 SWAP1 PUSH1 0xFF DUP1 NOT DUP4 SLOAD AND SWAP2 ISZERO ISZERO AND OR SWAP1 SSTORE JUMP JUMPDEST MLOAD SWAP1 ISZERO ISZERO DUP2 MSTORE LOG2 DUP1 RETURN JUMPDEST DUP4 DUP3 CALLVALUE PUSH2 0xEC3 JUMPI PUSH1 0x20 CALLDATASIZE PUSH1 0x3 NOT ADD SLT PUSH2 0xEC3 JUMPI PUSH1 0x20 SWAP1 PUSH2 0x2055 PUSH2 0x48D PUSH2 0x3DC1 JUMP JUMPDEST SWAP1 MLOAD SWAP1 DUP2 MSTORE RETURN JUMPDEST DUP4 DUP3 CALLVALUE PUSH2 0xEC3 JUMPI DUP2 PUSH1 0x3 NOT CALLDATASIZE ADD SLT PUSH2 0xEC3 JUMPI PUSH1 0x20 SWAP1 MLOAD PUSH32 0x5FDBD35E8DA83EE755D5E62A539E5ED7F47126ABEDE0B8B10F9EA43DC6EED07F DUP2 MSTORE RETURN JUMPDEST POP CALLVALUE PUSH2 0x4FC JUMPI PUSH1 0x20 CALLDATASIZE PUSH1 0x3 NOT ADD SLT PUSH2 0x4FC JUMPI DUP2 CALLDATALOAD SWAP2 PUSH2 0x20B4 PUSH2 0x420B JUMP JUMPDEST PUSH1 0x35 SLOAD DUP4 LT PUSH2 0x20F5 JUMPI POP PUSH32 0x44ECFC706D63E347851CFD40ACFA6CF2E3A41FAA3E8B460210C03938E84A91AD PUSH2 0x1F7 SWAP2 DUP3 SLOAD DUP2 MLOAD SWAP1 DUP2 MSTORE DUP5 PUSH1 0x20 DUP3 ADD MSTORE LOG1 SSTORE DUP1 RETURN JUMPDEST PUSH1 0x20 PUSH1 0x64 SWAP3 MLOAD SWAP2 PUSH3 0x461BCD PUSH1 0xE5 SHL DUP4 MSTORE DUP3 ADD MSTORE PUSH1 0x14 PUSH1 0x24 DUP3 ADD MSTORE PUSH20 0x42656C6F772063757272656E7420737570706C79 PUSH1 0x60 SHL PUSH1 0x44 DUP3 ADD MSTORE REVERT JUMPDEST POP SWAP1 CALLVALUE PUSH2 0x4FC JUMPI PUSH1 0x20 CALLDATASIZE PUSH1 0x3 NOT ADD SLT PUSH2 0x4FC JUMPI DUP1 CALLDATALOAD SWAP2 PUSH2 0x214C PUSH2 0x420B JUMP JUMPDEST DUP3 ISZERO DUP1 ISZERO PUSH2 0x216F JUMPI JUMPDEST PUSH2 0x2162 JUMPI POP POP PUSH2 0x202 SSTORE DUP1 RETURN JUMPDEST MLOAD PUSH4 0x3D98A22F PUSH1 0xE2 SHL DUP2 MSTORE REVERT JUMPDEST POP PUSH3 0x93A80 DUP4 GT PUSH2 0x2155 JUMP JUMPDEST POP CALLVALUE PUSH2 0x4FC JUMPI PUSH2 0x218A CALLDATASIZE PUSH2 0x3E60 JUMP JUMPDEST SWAP1 SWAP2 PUSH2 0x2197 SWAP5 SWAP4 SWAP5 PUSH2 0x4500 JUMP JUMPDEST PUSH2 0x219F PUSH2 0x5558 JUMP JUMPDEST DUP2 DUP2 SUB PUSH2 0x2356 JUMPI PUSH1 0x32 DUP2 GT PUSH2 0x2346 JUMPI DUP7 DUP1 JUMPDEST DUP3 DUP3 LT PUSH2 0x2328 JUMPI PUSH2 0x21C5 SWAP2 POP PUSH1 0x35 SLOAD PUSH2 0x4B7D JUMP JUMPDEST PUSH2 0x1F7 SLOAD LT PUSH2 0x2318 JUMPI DUP7 JUMPDEST DUP2 DUP2 LT PUSH2 0x21DB JUMPI DUP8 DUP1 RETURN JUMPDEST PUSH1 0x1 PUSH1 0x1 PUSH1 0xA0 SHL SUB SWAP1 DUP2 PUSH2 0x21F3 PUSH2 0x3DC DUP4 DUP7 DUP12 PUSH2 0x55AB JUMP JUMPDEST AND ISZERO ISZERO DUP1 PUSH2 0x2301 JUMPI JUMPDEST PUSH2 0x2210 JUMPI JUMPDEST PUSH2 0x220B SWAP2 POP PUSH2 0x559C JUMP JUMPDEST PUSH2 0x21D0 JUMP JUMPDEST PUSH2 0x2233 PUSH2 0x2221 PUSH2 0x3DC DUP4 DUP7 DUP12 PUSH2 0x55AB JUMP JUMPDEST PUSH2 0x222C DUP4 DUP8 DUP10 PUSH2 0x55AB JUMP JUMPDEST CALLDATALOAD SWAP1 PUSH2 0x58CA JUMP JUMPDEST DUP9 DUP3 PUSH2 0x1F5 SLOAD AND PUSH2 0x2248 PUSH2 0x3DC DUP5 DUP8 DUP13 PUSH2 0x55AB JUMP JUMPDEST PUSH2 0x2253 DUP5 DUP9 DUP11 PUSH2 0x55AB JUMP JUMPDEST CALLDATALOAD DUP3 EXTCODESIZE ISZERO PUSH2 0xEBF JUMPI DUP10 MLOAD PUSH4 0x5F8DEAD3 PUSH1 0xE0 SHL DUP2 MSTORE PUSH1 0x1 PUSH1 0x1 PUSH1 0xA0 SHL SUB SWAP1 SWAP3 AND DUP3 DUP14 ADD SWAP1 DUP2 MSTORE PUSH1 0x20 DUP2 ADD SWAP2 SWAP1 SWAP2 MSTORE SWAP1 SWAP2 DUP4 SWAP2 DUP4 SWAP2 SWAP1 DUP3 SWAP1 DUP5 SWAP1 DUP3 SWAP1 PUSH1 0x40 ADD SUB SWAP3 GAS CALL DUP1 ISZERO PUSH2 0x22F7 JUMPI PUSH2 0x22DF JUMPI JUMPDEST POP POP PUSH2 0x220B SWAP2 PUSH1 0x0 DUP1 MLOAD PUSH1 0x20 PUSH2 0x5DB5 DUP4 CODECOPY DUP2 MLOAD SWAP2 MSTORE PUSH1 0x20 PUSH2 0x22C4 PUSH2 0x3DC DUP6 DUP9 DUP14 PUSH2 0x55AB JUMP JUMPDEST SWAP3 PUSH2 0x22D0 DUP6 DUP10 DUP12 PUSH2 0x55AB JUMP JUMPDEST CALLDATALOAD SWAP4 DUP11 MLOAD SWAP5 DUP6 MSTORE AND SWAP3 LOG2 PUSH2 0x2201 JUMP JUMPDEST PUSH2 0x22E8 SWAP1 PUSH2 0x3F10 JUMP JUMPDEST PUSH2 0x22F3 JUMPI DUP9 CODESIZE PUSH2 0x229F JUMP JUMPDEST DUP9 DUP1 REVERT JUMPDEST DUP9 MLOAD RETURNDATASIZE DUP5 DUP3 RETURNDATACOPY RETURNDATASIZE SWAP1 REVERT JUMPDEST POP PUSH2 0x2313 PUSH2 0x124B PUSH2 0x3DC DUP4 DUP7 DUP12 PUSH2 0x55AB JUMP JUMPDEST PUSH2 0x21FC JUMP JUMPDEST DUP4 MLOAD PUSH4 0x8A164F63 PUSH1 0xE0 SHL DUP2 MSTORE DUP7 SWAP1 REVERT JUMPDEST PUSH2 0x233A PUSH2 0x2340 SWAP2 PUSH2 0x4D2 DUP5 DUP8 DUP10 PUSH2 0x55AB JUMP JUMPDEST SWAP2 PUSH2 0x559C JUMP JUMPDEST SWAP1 PUSH2 0x21B1 JUMP JUMPDEST DUP4 MLOAD PUSH4 0x5BEB171 PUSH1 0xE1 SHL DUP2 MSTORE DUP7 SWAP1 REVERT JUMPDEST DUP4 MLOAD PUSH4 0x512509D3 PUSH1 0xE1 SHL DUP2 MSTORE DUP7 SWAP1 REVERT JUMPDEST DUP4 DUP3 CALLVALUE PUSH2 0xEC3 JUMPI DUP2 PUSH1 0x3 NOT CALLDATASIZE ADD SLT PUSH2 0xEC3 JUMPI PUSH2 0x1F5 SLOAD SWAP1 MLOAD PUSH1 0x1 PUSH1 0x1 PUSH1 0xA0 SHL SUB SWAP1 SWAP2 AND DUP2 MSTORE PUSH1 0x20 SWAP1 RETURN JUMPDEST DUP4 DUP3 CALLVALUE PUSH2 0xEC3 JUMPI DUP2 PUSH1 0x3 NOT CALLDATASIZE ADD SLT PUSH2 0xEC3 JUMPI PUSH1 0x20 SWAP1 PUSH1 0xFF PUSH1 0x65 SLOAD AND SWAP1 MLOAD SWAP1 ISZERO ISZERO DUP2 MSTORE RETURN JUMPDEST DUP4 DUP3 CALLVALUE PUSH2 0xEC3 JUMPI DUP2 PUSH1 0x3 NOT CALLDATASIZE ADD SLT PUSH2 0xEC3 JUMPI DUP1 MLOAD PUSH2 0x1C04 SWAP2 PUSH2 0x1BFA DUP3 PUSH2 0x1BF3 DUP2 PUSH2 0x4116 JUMP JUMPDEST DUP4 DUP3 CALLVALUE PUSH2 0xEC3 JUMPI DUP2 PUSH1 0x3 NOT CALLDATASIZE ADD SLT PUSH2 0xEC3 JUMPI PUSH1 0x20 SWAP1 PUSH2 0x1FB SLOAD SWAP1 MLOAD SWAP1 DUP2 MSTORE RETURN JUMPDEST POP SWAP2 CALLVALUE PUSH2 0x15DF JUMPI DUP1 PUSH1 0x3 NOT CALLDATASIZE ADD SLT PUSH2 0x15DF JUMPI POP PUSH32 0x0 PUSH1 0x1 PUSH1 0x1 PUSH1 0xA0 SHL SUB AND ADDRESS SUB PUSH2 0x2453 JUMPI PUSH1 0x20 DUP3 MLOAD PUSH1 0x0 DUP1 MLOAD PUSH1 0x20 PUSH2 0x5DD5 DUP4 CODECOPY DUP2 MLOAD SWAP2 MSTORE DUP2 MSTORE RETURN JUMPDEST PUSH1 0x20 PUSH1 0x84 SWAP3 MLOAD SWAP2 PUSH3 0x461BCD PUSH1 0xE5 SHL DUP4 MSTORE DUP3 ADD MSTORE PUSH1 0x38 PUSH1 0x24 DUP3 ADD MSTORE PUSH32 0x555550535570677261646561626C653A206D757374206E6F742062652063616C PUSH1 0x44 DUP3 ADD MSTORE PUSH32 0x6C6564207468726F7567682064656C656761746563616C6C0000000000000000 PUSH1 0x64 DUP3 ADD MSTORE REVERT JUMPDEST POP DUP1 PUSH1 0x3 NOT CALLDATASIZE ADD SLT PUSH2 0x4FC JUMPI PUSH2 0x24CF PUSH2 0x3DC1 JUMP JUMPDEST SWAP1 PUSH1 0x24 CALLDATALOAD PUSH1 0x1 PUSH1 0x1 PUSH1 0x40 SHL SUB DUP2 GT PUSH2 0xEBB JUMPI CALLDATASIZE PUSH1 0x23 DUP3 ADD SLT ISZERO PUSH2 0xEBB JUMPI PUSH2 0x24FF SWAP1 CALLDATASIZE SWAP1 PUSH1 0x24 DUP2 DUP8 ADD CALLDATALOAD SWAP2 ADD PUSH2 0x3F7A JUMP JUMPDEST PUSH1 0x1 PUSH1 0x1 PUSH1 0xA0 SHL SUB PUSH32 0x0 DUP2 AND SWAP3 SWAP2 SWAP1 PUSH2 0x2539 ADDRESS DUP6 EQ ISZERO PUSH2 0x4A2B JUMP JUMPDEST PUSH2 0x2556 PUSH1 0x0 DUP1 MLOAD PUSH1 0x20 PUSH2 0x5DD5 DUP4 CODECOPY DUP2 MLOAD SWAP2 MSTORE SWAP5 DUP3 DUP7 SLOAD AND EQ PUSH2 0x4A8C JUMP JUMPDEST PUSH2 0x255E PUSH2 0x420B JUMP JUMPDEST PUSH32 0x4910FDFA16FED3260ED0E7147F7CC6DA11A60208B5B9406D12A635614FFD9143 SLOAD PUSH1 0xFF AND ISZERO PUSH2 0x2596 JUMPI POP POP POP POP PUSH2 0x1177 SWAP2 POP PUSH2 0x4AED JUMP JUMPDEST DUP3 MLOAD PUSH4 0x52D1902D PUSH1 0xE0 SHL DUP2 MSTORE PUSH1 0x20 SWAP6 SWAP4 SWAP5 SWAP2 DUP5 AND SWAP2 SWAP1 DUP7 DUP2 DUP10 DUP2 DUP7 GAS STATICCALL PUSH1 0x0 SWAP2 DUP2 PUSH2 0x275D JUMPI JUMPDEST POP PUSH2 0x261B JUMPI DUP6 MLOAD PUSH3 0x461BCD PUSH1 0xE5 SHL DUP2 MSTORE DUP1 DUP10 ADD DUP9 SWAP1 MSTORE PUSH1 0x2E PUSH1 0x24 DUP3 ADD MSTORE PUSH32 0x45524331393637557067726164653A206E657720696D706C656D656E74617469 PUSH1 0x44 DUP3 ADD MSTORE PUSH14 0x6F6E206973206E6F742055555053 PUSH1 0x90 SHL PUSH1 0x64 DUP3 ADD MSTORE PUSH1 0x84 SWAP1 REVERT JUMPDEST SWAP7 SWAP2 SWAP3 SWAP6 SWAP5 SWAP4 SWAP7 SUB PUSH2 0x2708 JUMPI POP PUSH2 0x2631 DUP6 PUSH2 0x4AED JUMP JUMPDEST PUSH32 0xBC7CD75A20EE27FD9ADEBAB32041F755214DBC6BFFA90CC0225B39DA2E5C2D3B PUSH1 0x0 DUP1 LOG2 DUP3 MLOAD ISZERO DUP1 ISZERO SWAP1 PUSH2 0x2700 JUMPI JUMPDEST PUSH2 0x266D JUMPI JUMPDEST POP POP POP POP DUP1 RETURN JUMPDEST PUSH2 0x26EC SWAP4 PUSH1 0x0 DUP1 DUP4 MLOAD SWAP6 PUSH2 0x2680 DUP8 PUSH2 0x3F23 JUMP JUMPDEST PUSH1 0x27 DUP8 MSTORE PUSH32 0x416464726573733A206C6F772D6C6576656C2064656C65676174652063616C6C DUP7 DUP9 ADD MSTORE PUSH7 0x819985A5B1959 PUSH1 0xCA SHL DUP6 DUP9 ADD MSTORE DUP6 DUP2 MLOAD SWAP2 ADD DUP5 GAS DELEGATECALL SWAP2 RETURNDATASIZE ISZERO PUSH2 0x26F6 JUMPI RETURNDATASIZE PUSH2 0x26DD PUSH2 0x26D4 DUP3 PUSH2 0x3F5F JUMP JUMPDEST SWAP3 MLOAD SWAP3 DUP4 PUSH2 0x3F3E JUMP JUMPDEST DUP2 MSTORE PUSH1 0x0 DUP2 SWAP5 RETURNDATASIZE SWAP3 ADD RETURNDATACOPY PUSH2 0x51C0 JUMP JUMPDEST POP CODESIZE DUP1 DUP1 DUP1 PUSH2 0x2666 JUMP JUMPDEST POP PUSH1 0x60 SWAP3 POP PUSH2 0x51C0 JUMP JUMPDEST POP PUSH1 0x1 PUSH2 0x2661 JUMP JUMPDEST DUP3 MLOAD PUSH3 0x461BCD PUSH1 0xE5 SHL DUP2 MSTORE SWAP1 DUP2 ADD DUP5 SWAP1 MSTORE PUSH1 0x29 PUSH1 0x24 DUP3 ADD MSTORE PUSH32 0x45524331393637557067726164653A20756E737570706F727465642070726F78 PUSH1 0x44 DUP3 ADD MSTORE PUSH9 0x1A58589B1955555251 PUSH1 0xBA SHL PUSH1 0x64 DUP3 ADD MSTORE PUSH1 0x84 SWAP1 REVERT JUMPDEST SWAP1 SWAP2 DUP9 DUP3 DUP2 RETURNDATASIZE DUP4 GT PUSH2 0x2785 JUMPI JUMPDEST PUSH2 0x2774 DUP2 DUP4 PUSH2 0x3F3E JUMP JUMPDEST DUP2 ADD SUB SLT PUSH2 0x15DF JUMPI POP MLOAD SWAP1 CODESIZE PUSH2 0x25BC JUMP JUMPDEST POP RETURNDATASIZE PUSH2 0x276A JUMP JUMPDEST DUP4 DUP3 CALLVALUE PUSH2 0xEC3 JUMPI DUP1 PUSH1 0x3 NOT CALLDATASIZE ADD SLT PUSH2 0xEC3 JUMPI PUSH1 0x20 SWAP2 DUP2 PUSH1 0x1 PUSH1 0x1 PUSH1 0xA0 SHL SUB PUSH2 0x27B2 PUSH2 0x3DC1 JUMP JUMPDEST AND SWAP2 DUP3 DUP2 MSTORE PUSH1 0xC9 DUP6 MSTORE PUSH2 0x27C9 DUP3 DUP3 KECCAK256 PUSH1 0x24 CALLDATALOAD PUSH2 0x5189 JUMP JUMPDEST SWAP4 SWAP1 ISZERO PUSH2 0x27DA JUMPI POP POP POP SWAP1 MLOAD SWAP1 DUP2 MSTORE RETURN JUMPDEST DUP2 MSTORE PUSH1 0x33 DUP6 MSTORE KECCAK256 SLOAD SWAP2 SWAP1 POP PUSH2 0x1939 JUMP JUMPDEST POP CALLVALUE PUSH2 0x4FC JUMPI PUSH2 0x27F9 CALLDATASIZE PUSH2 0x3E60 JUMP JUMPDEST SWAP1 SWAP2 PUSH2 0x2806 SWAP5 SWAP4 SWAP5 PUSH2 0x463A JUMP JUMPDEST PUSH2 0x280E PUSH2 0x5558 JUMP JUMPDEST DUP2 DUP2 SUB PUSH2 0x2356 JUMPI PUSH1 0x32 DUP2 GT PUSH2 0x2346 JUMPI DUP7 JUMPDEST DUP2 DUP2 LT PUSH2 0x282A JUMPI DUP8 DUP1 RETURN JUMPDEST PUSH1 0x1 PUSH1 0x1 PUSH1 0xA0 SHL SUB SWAP1 DUP2 PUSH2 0x2842 PUSH2 0x3DC DUP4 DUP7 DUP12 PUSH2 0x55AB JUMP JUMPDEST AND PUSH2 0x2857 JUMPI JUMPDEST PUSH2 0x2852 SWAP2 POP PUSH2 0x559C JUMP JUMPDEST PUSH2 0x281F JUMP JUMPDEST PUSH2 0x287A PUSH2 0x2868 PUSH2 0x3DC DUP4 DUP7 DUP12 PUSH2 0x55AB JUMP JUMPDEST PUSH2 0x2873 DUP4 DUP8 DUP10 PUSH2 0x55AB JUMP JUMPDEST CALLDATALOAD SWAP1 PUSH2 0x5B18 JUMP JUMPDEST DUP9 DUP3 PUSH2 0x1F5 SLOAD AND PUSH2 0x288F PUSH2 0x3DC DUP5 DUP8 DUP13 PUSH2 0x55AB JUMP JUMPDEST PUSH2 0x289A DUP5 DUP9 DUP11 PUSH2 0x55AB JUMP JUMPDEST CALLDATALOAD DUP3 EXTCODESIZE ISZERO PUSH2 0xEBF JUMPI DUP10 MLOAD PUSH4 0x469753B9 PUSH1 0xE1 SHL DUP2 MSTORE PUSH1 0x1 PUSH1 0x1 PUSH1 0xA0 SHL SUB SWAP1 SWAP3 AND DUP3 DUP14 ADD SWAP1 DUP2 MSTORE PUSH1 0x20 DUP2 ADD SWAP2 SWAP1 SWAP2 MSTORE SWAP1 SWAP2 DUP4 SWAP2 DUP4 SWAP2 SWAP1 DUP3 SWAP1 DUP5 SWAP1 DUP3 SWAP1 PUSH1 0x40 ADD SUB SWAP3 GAS CALL DUP1 ISZERO PUSH2 0x22F7 JUMPI PUSH2 0x2938 JUMPI JUMPDEST POP POP PUSH2 0x2852 SWAP2 PUSH32 0xFD38818F5291BF0BB3A2A48AADC06BA8757865D1DABD804585338AAB3009DCB6 PUSH1 0x20 PUSH2 0x291D PUSH2 0x3DC DUP6 DUP9 DUP14 PUSH2 0x55AB JUMP JUMPDEST SWAP3 PUSH2 0x2929 DUP6 DUP10 DUP12 PUSH2 0x55AB JUMP JUMPDEST CALLDATALOAD SWAP4 DUP11 MLOAD SWAP5 DUP6 MSTORE AND SWAP3 LOG2 PUSH2 0x2848 JUMP JUMPDEST PUSH2 0x2941 SWAP1 PUSH2 0x3F10 JUMP JUMPDEST PUSH2 0x22F3 JUMPI DUP9 CODESIZE PUSH2 0x28E6 JUMP JUMPDEST POP CALLVALUE PUSH2 0x4FC JUMPI PUSH2 0x295B CALLDATASIZE PUSH2 0x3E60 JUMP JUMPDEST SWAP1 SWAP5 PUSH2 0x2968 SWAP4 SWAP3 SWAP4 PUSH2 0x43C6 JUMP JUMPDEST DUP2 DUP5 SUB PUSH2 0x4EE JUMPI PUSH1 0x32 DUP5 GT PUSH2 0x4E0 JUMPI POP DUP6 JUMPDEST DUP4 DUP2 LT PUSH2 0x2985 JUMPI DUP7 DUP1 RETURN JUMPDEST PUSH2 0x29B3 SWAP1 PUSH1 0x1 PUSH1 0x1 PUSH1 0xA0 SHL SUB DUP1 PUSH2 0x29A0 PUSH2 0x3DC DUP5 DUP10 DUP10 PUSH2 0x55AB JUMP JUMPDEST AND ISZERO ISZERO DUP1 PUSH2 0x2A0D JUMPI JUMPDEST PUSH2 0x29B8 JUMPI POP PUSH2 0x559C JUMP JUMPDEST PUSH2 0x297A JUMP JUMPDEST PUSH32 0x9BED35CB62AD0DBA04F9D5BFEE4B5BC91443E77DA8A65C4C84834C51BB08B0D6 PUSH2 0x29E4 DUP4 DUP7 DUP12 PUSH2 0x55AB JUMP JUMPDEST CALLDATALOAD DUP3 PUSH2 0x29F4 PUSH2 0x3DC DUP7 DUP12 DUP12 PUSH2 0x55AB JUMP JUMPDEST AND DUP12 MSTORE PUSH1 0x20 SWAP1 PUSH2 0x1FE DUP3 MSTORE PUSH2 0x44F DUP11 DUP14 KECCAK256 SWAP2 DUP3 SLOAD PUSH2 0x5251 JUMP JUMPDEST POP DUP1 PUSH2 0x2A1D PUSH2 0x3DC DUP5 DUP10 DUP10 PUSH2 0x55AB JUMP JUMPDEST AND DUP10 MSTORE PUSH2 0x1FE PUSH1 0x20 MSTORE DUP7 DUP10 KECCAK256 SLOAD PUSH2 0x2A35 DUP4 DUP7 DUP12 PUSH2 0x55AB JUMP JUMPDEST CALLDATALOAD GT ISZERO PUSH2 0x29A9 JUMP JUMPDEST POP SWAP1 CALLVALUE PUSH2 0x4FC JUMPI PUSH1 0x60 CALLDATASIZE PUSH1 0x3 NOT ADD SLT PUSH2 0x4FC JUMPI PUSH1 0x1 PUSH1 0x1 PUSH1 0x40 SHL SUB SWAP2 DUP2 CALLDATALOAD DUP4 DUP2 GT PUSH2 0xEBB JUMPI PUSH2 0x2A6F SWAP1 CALLDATASIZE SWAP1 DUP5 ADD PUSH2 0x3E30 JUMP JUMPDEST SWAP4 SWAP1 PUSH1 0x24 CALLDATALOAD DUP3 DUP2 GT PUSH2 0x2D3A JUMPI PUSH2 0x2A88 SWAP1 CALLDATASIZE SWAP1 DUP7 ADD PUSH2 0x3E30 JUMP JUMPDEST SWAP3 PUSH1 0x44 CALLDATALOAD SWAP1 DUP2 GT PUSH2 0x2D36 JUMPI PUSH2 0x2AA0 SWAP1 CALLDATASIZE SWAP1 DUP8 ADD PUSH2 0x3E30 JUMP JUMPDEST SWAP1 SWAP4 PUSH2 0x2AAA PUSH2 0x43C6 JUMP JUMPDEST PUSH2 0x2AB2 PUSH2 0x5558 JUMP JUMPDEST DUP1 DUP9 EQ DUP1 ISZERO SWAP1 PUSH2 0x2D2C JUMPI JUMPDEST PUSH2 0x2D1C JUMPI PUSH1 0x32 DUP9 GT PUSH2 0x2D0C JUMPI DUP9 JUMPDEST DUP9 DUP2 LT PUSH2 0x2AD6 JUMPI DUP10 DUP1 RETURN JUMPDEST DUP10 PUSH1 0x1 PUSH1 0x1 PUSH1 0xA0 SHL SUB DUP7 DUP6 DUP6 DUP13 DUP13 DUP16 DUP12 DUP10 DUP6 DUP10 PUSH2 0x2AF7 PUSH2 0x3DC DUP5 DUP8 DUP14 PUSH2 0x55AB JUMP JUMPDEST AND ISZERO ISZERO SWAP3 DUP4 PUSH2 0x2CF2 JUMPI JUMPDEST DUP4 PUSH2 0x2CD7 JUMPI JUMPDEST POP POP POP PUSH2 0x2B25 JUMPI JUMPDEST POP POP POP POP POP POP POP POP PUSH2 0x2B20 SWAP1 PUSH2 0x559C JUMP JUMPDEST PUSH2 0x2ACB JUMP JUMPDEST DUP14 DUP10 DUP14 DUP2 PUSH2 0x1F5 SWAP10 DUP2 DUP13 DUP13 SLOAD AND SWAP7 PUSH2 0x2B3C SWAP3 PUSH2 0x55AB JUMP JUMPDEST PUSH2 0x2B45 SWAP1 PUSH2 0x55BB JUMP JUMPDEST SWAP8 PUSH2 0x2B4F SWAP3 PUSH2 0x55AB JUMP JUMPDEST PUSH2 0x2B58 SWAP1 PUSH2 0x55BB JUMP JUMPDEST SWAP7 PUSH2 0x2B62 SWAP3 PUSH2 0x55AB JUMP JUMPDEST SWAP2 MLOAD PUSH4 0x72331C73 PUSH1 0xE1 SHL DUP2 MSTORE PUSH1 0x1 PUSH1 0x1 PUSH1 0xA0 SHL SUB SWAP5 DUP6 AND SWAP4 DUP2 ADD SWAP4 DUP5 MSTORE SWAP4 SWAP1 SWAP5 AND PUSH1 0x20 DUP4 DUP2 ADD SWAP2 SWAP1 SWAP2 MSTORE SWAP1 CALLDATALOAD PUSH1 0x40 DUP4 ADD MSTORE SWAP3 DUP4 SWAP2 DUP4 SWAP2 SWAP1 DUP3 SWAP1 DUP2 SWAP1 PUSH1 0x60 ADD SUB SWAP2 GAS STATICCALL SWAP2 DUP3 ISZERO PUSH2 0x2CCD JUMPI DUP8 DUP16 DUP13 DUP13 SWAP6 DUP16 SWAP6 DUP14 SWAP6 DUP12 SWAP3 PUSH2 0x2CB0 JUMPI JUMPDEST POP POP PUSH2 0x2BD1 JUMPI JUMPDEST SWAP6 POP DUP16 SWAP3 SWAP5 POP DUP15 SWAP2 SWAP4 POP PUSH2 0x2B0F JUMP JUMPDEST SWAP3 PUSH2 0x2BF7 PUSH2 0x3DC DUP12 PUSH2 0x2BFD SWAP6 PUSH2 0x2BF1 PUSH2 0x3DC DUP4 DUP1 SWAP9 PUSH2 0x2C04 SWAP14 SWAP13 SWAP12 PUSH2 0x55AB JUMP JUMPDEST SWAP9 PUSH2 0x55AB JUMP JUMPDEST SWAP4 PUSH2 0x55AB JUMP JUMPDEST CALLDATALOAD SWAP2 PUSH2 0x4BA0 JUMP JUMPDEST SLOAD AND PUSH2 0x2C14 PUSH2 0x3DC DUP5 DUP14 DUP11 PUSH2 0x55AB JUMP JUMPDEST PUSH2 0x2C22 PUSH2 0x3DC DUP6 DUP8 DUP11 PUSH2 0x55AB JUMP JUMPDEST PUSH2 0x2C2D DUP6 DUP9 DUP13 PUSH2 0x55AB JUMP JUMPDEST CALLDATALOAD SWAP3 DUP1 EXTCODESIZE ISZERO PUSH2 0xEBB JUMPI DUP12 MLOAD PUSH4 0x22EBCA6D PUSH1 0xE2 SHL DUP2 MSTORE PUSH1 0x1 PUSH1 0x1 PUSH1 0xA0 SHL SUB SWAP4 DUP5 AND DUP2 DUP16 ADD SWAP1 DUP2 MSTORE SWAP4 SWAP1 SWAP3 AND PUSH1 0x20 DUP5 ADD MSTORE PUSH1 0x40 DUP4 ADD SWAP4 SWAP1 SWAP4 MSTORE SWAP2 DUP4 SWAP2 DUP4 SWAP2 SWAP1 DUP3 SWAP1 DUP5 SWAP1 DUP3 SWAP1 PUSH1 0x60 ADD SUB SWAP3 GAS CALL DUP1 ISZERO PUSH2 0x2CA6 JUMPI PUSH2 0x2C8E JUMPI JUMPDEST DUP1 DUP7 DUP10 DUP8 DUP8 DUP16 DUP13 PUSH2 0x2BC2 JUMP JUMPDEST PUSH2 0x2C97 SWAP1 PUSH2 0x3F10 JUMP JUMPDEST PUSH2 0x2CA2 JUMPI DUP10 CODESIZE PUSH2 0x2C82 JUMP JUMPDEST DUP10 DUP1 REVERT JUMPDEST DUP10 MLOAD RETURNDATASIZE DUP5 DUP3 RETURNDATACOPY RETURNDATASIZE SWAP1 REVERT JUMPDEST PUSH2 0x2CC6 SWAP3 POP DUP1 RETURNDATASIZE LT PUSH2 0x17F8 JUMPI PUSH2 0x17EA DUP2 DUP4 PUSH2 0x3F3E JUMP JUMPDEST CODESIZE DUP1 PUSH2 0x2BBB JUMP JUMPDEST DUP13 MLOAD RETURNDATASIZE DUP8 DUP3 RETURNDATACOPY RETURNDATASIZE SWAP1 REVERT JUMPDEST PUSH2 0x2CEA SWAP4 POP SWAP2 PUSH2 0x3DC SWAP2 PUSH2 0x124B SWAP4 PUSH2 0x55AB JUMP JUMPDEST DUP10 DUP6 DUP15 PUSH2 0x2B07 JUMP JUMPDEST SWAP3 POP DUP10 PUSH2 0x2D03 PUSH2 0x3DC DUP5 DUP5 DUP8 PUSH2 0x55AB JUMP JUMPDEST AND ISZERO ISZERO SWAP3 PUSH2 0x2B01 JUMP JUMPDEST DUP6 MLOAD PUSH4 0x5BEB171 PUSH1 0xE1 SHL DUP2 MSTORE DUP8 SWAP1 REVERT JUMPDEST DUP6 MLOAD PUSH4 0x512509D3 PUSH1 0xE1 SHL DUP2 MSTORE DUP8 SWAP1 REVERT JUMPDEST POP DUP2 DUP2 EQ ISZERO PUSH2 0x2ABD JUMP JUMPDEST DUP8 DUP1 REVERT JUMPDEST DUP7 DUP1 REVERT JUMPDEST POP SWAP1 CALLVALUE PUSH2 0x4FC JUMPI DUP2 PUSH1 0x3 NOT CALLDATASIZE ADD SLT PUSH2 0x4FC JUMPI PUSH2 0x2D58 PUSH2 0x3DC1 JUMP JUMPDEST SWAP2 PUSH1 0x24 CALLDATALOAD SWAP2 PUSH2 0x2D65 PUSH2 0x4500 JUMP JUMPDEST PUSH2 0x2D6D PUSH2 0x5558 JUMP JUMPDEST PUSH1 0x1 PUSH1 0x1 PUSH1 0xA0 SHL SUB DUP5 DUP2 AND SWAP5 SWAP1 DUP6 ISZERO PUSH2 0x1900 JUMPI PUSH2 0x2D8C DUP6 PUSH1 0x35 SLOAD PUSH2 0x4B7D JUMP JUMPDEST PUSH2 0x1F7 SLOAD LT PUSH2 0x2E42 JUMPI PUSH2 0x2D9E DUP3 PUSH2 0x580F JUMP JUMPDEST ISZERO PUSH2 0x2E32 JUMPI SWAP1 DUP7 SWAP3 SWAP2 PUSH2 0x2DB1 DUP7 DUP4 PUSH2 0x58CA JUMP JUMPDEST PUSH2 0x1F5 SLOAD AND SWAP2 DUP3 EXTCODESIZE ISZERO PUSH2 0xEBF JUMPI DUP5 MLOAD PUSH4 0x5F8DEAD3 PUSH1 0xE0 SHL DUP2 MSTORE PUSH1 0x1 PUSH1 0x1 PUSH1 0xA0 SHL SUB SWAP1 SWAP3 AND SWAP1 DUP3 ADD SWAP1 DUP2 MSTORE PUSH1 0x20 DUP2 ADD DUP7 SWAP1 MSTORE SWAP1 SWAP2 DUP4 SWAP2 DUP4 SWAP2 SWAP1 DUP3 SWAP1 DUP5 SWAP1 DUP3 SWAP1 PUSH1 0x40 ADD SUB SWAP3 GAS CALL DUP1 ISZERO PUSH2 0x18F6 JUMPI PUSH2 0x2E1E JUMPI JUMPDEST POP POP PUSH1 0x0 DUP1 MLOAD PUSH1 0x20 PUSH2 0x5DB5 DUP4 CODECOPY DUP2 MLOAD SWAP2 MSTORE SWAP2 PUSH1 0x20 SWAP2 MLOAD SWAP1 DUP2 MSTORE LOG2 DUP1 RETURN JUMPDEST PUSH2 0x2E27 SWAP1 PUSH2 0x3F10 JUMP JUMPDEST PUSH2 0xEBF JUMPI DUP4 CODESIZE PUSH2 0x2E01 JUMP JUMPDEST DUP4 MLOAD PUSH4 0x174A0BA5 PUSH1 0xE3 SHL DUP2 MSTORE DUP4 SWAP1 REVERT JUMPDEST DUP4 MLOAD PUSH4 0x8A164F63 PUSH1 0xE0 SHL DUP2 MSTORE DUP4 SWAP1 REVERT JUMPDEST POP SWAP1 CALLVALUE PUSH2 0x4FC JUMPI DUP3 PUSH1 0x3 NOT CALLDATASIZE ADD SLT PUSH2 0x4FC JUMPI PUSH2 0x2E6C PUSH2 0x420B JUMP JUMPDEST PUSH1 0x65 SLOAD SWAP1 PUSH1 0xFF DUP3 AND ISZERO PUSH2 0x2EAE JUMPI POP PUSH1 0xFF NOT AND PUSH1 0x65 SSTORE MLOAD CALLER DUP2 MSTORE PUSH32 0x5DB9EE0A495BF2E6FF9C91A7834C1BA4FDD244A5E8AA4E537BD38AEAE4B073AA SWAP1 PUSH1 0x20 SWAP1 LOG1 DUP1 RETURN JUMPDEST PUSH1 0x64 SWAP1 PUSH1 0x20 DUP5 MLOAD SWAP2 PUSH3 0x461BCD PUSH1 0xE5 SHL DUP4 MSTORE DUP3 ADD MSTORE PUSH1 0x14 PUSH1 0x24 DUP3 ADD MSTORE PUSH20 0x14185D5CD8589B194E881B9BDD081C185D5CD959 PUSH1 0x62 SHL PUSH1 0x44 DUP3 ADD MSTORE REVERT JUMPDEST POP CALLVALUE PUSH2 0x4FC JUMPI PUSH1 0x20 CALLDATASIZE PUSH1 0x3 NOT ADD SLT PUSH2 0x4FC JUMPI PUSH2 0x2F02 PUSH2 0x3DC1 JUMP JUMPDEST PUSH2 0x2F0A PUSH2 0x420B JUMP JUMPDEST PUSH1 0x1 PUSH1 0x1 PUSH1 0xA0 SHL SUB AND SWAP2 DUP3 ISZERO PUSH2 0x12DC JUMPI POP PUSH2 0x1F8 DUP1 SLOAD PUSH1 0x1 PUSH1 0x1 PUSH1 0xA0 SHL SUB NOT AND DUP4 OR SWAP1 SSTORE DUP1 MLOAD PUSH2 0x2F44 DUP2 PUSH2 0x2F3D DUP2 PUSH2 0x3FEB JUMP JUMPDEST SUB DUP3 PUSH2 0x3F3E JUMP JUMPDEST PUSH32 0x6A1105AC8148A3C319ADBC369F9072573E8A11D3A3D195E067E7C40767EC54D1 PUSH2 0x139E PUSH2 0x1387 PUSH2 0x2F83 DUP6 MLOAD SWAP5 PUSH2 0x2F7E DUP7 PUSH2 0x1497 DUP2 PUSH2 0x408F JUMP JUMPDEST PUSH2 0x589D JUMP JUMPDEST SWAP4 PUSH2 0x589D JUMP JUMPDEST DUP4 DUP3 CALLVALUE PUSH2 0xEC3 JUMPI DUP1 PUSH1 0x3 NOT CALLDATASIZE ADD SLT PUSH2 0xEC3 JUMPI PUSH2 0x1532 PUSH1 0x20 SWAP3 DUP3 PUSH2 0x2FAA PUSH2 0x3DC1 JUMP JUMPDEST SWAP2 CALLER DUP2 MSTORE PUSH1 0x34 DUP7 MSTORE KECCAK256 PUSH1 0x1 DUP1 PUSH1 0xA0 SHL SUB DUP3 AND PUSH1 0x0 MSTORE DUP5 MSTORE PUSH2 0x2FD1 PUSH1 0x24 CALLDATALOAD DUP5 PUSH1 0x0 KECCAK256 SLOAD PUSH2 0x4B7D JUMP JUMPDEST SWAP1 CALLER PUSH2 0x4F27 JUMP JUMPDEST POP CALLVALUE PUSH2 0x4FC JUMPI PUSH1 0x20 DUP1 PUSH1 0x3 NOT CALLDATASIZE ADD SLT PUSH2 0xEBF JUMPI PUSH2 0x2FF3 PUSH2 0x3DC1 JUMP JUMPDEST SWAP2 PUSH1 0x1 PUSH1 0x1 PUSH1 0xA0 SHL SUB PUSH32 0x0 DUP2 AND PUSH2 0x302B ADDRESS DUP3 EQ ISZERO PUSH2 0x4A2B JUMP JUMPDEST PUSH2 0x3048 PUSH1 0x0 DUP1 MLOAD PUSH1 0x20 PUSH2 0x5DD5 DUP4 CODECOPY DUP2 MLOAD SWAP2 MSTORE SWAP2 DUP4 DUP4 SLOAD AND EQ PUSH2 0x4A8C JUMP JUMPDEST PUSH2 0x3050 PUSH2 0x420B JUMP JUMPDEST DUP3 MLOAD SWAP1 DUP5 DUP3 ADD SWAP3 DUP3 DUP5 LT PUSH1 0x1 PUSH1 0x1 PUSH1 0x40 SHL SUB DUP6 GT OR PUSH2 0x327B JUMPI DUP4 DUP6 MSTORE DUP9 DUP4 MSTORE PUSH32 0x4910FDFA16FED3260ED0E7147F7CC6DA11A60208B5B9406D12A635614FFD9143 SLOAD PUSH1 0xFF AND ISZERO PUSH2 0x30A9 JUMPI POP POP POP POP POP POP PUSH2 0x1177 SWAP2 POP PUSH2 0x4AED JUMP JUMPDEST DUP7 SWAP3 SWAP4 SWAP5 SWAP6 SWAP7 AND SWAP1 DUP6 MLOAD PUSH4 0x52D1902D PUSH1 0xE0 SHL DUP2 MSTORE DUP8 DUP2 DUP11 DUP2 DUP7 GAS STATICCALL PUSH1 0x0 SWAP2 DUP2 PUSH2 0x324C JUMPI JUMPDEST POP PUSH2 0x312C JUMPI DUP7 MLOAD PUSH3 0x461BCD PUSH1 0xE5 SHL DUP2 MSTORE DUP1 DUP11 ADD DUP10 SWAP1 MSTORE PUSH1 0x2E PUSH1 0x24 DUP3 ADD MSTORE PUSH32 0x45524331393637557067726164653A206E657720696D706C656D656E74617469 PUSH1 0x44 DUP3 ADD MSTORE PUSH14 0x6F6E206973206E6F742055555053 PUSH1 0x90 SHL PUSH1 0x64 DUP3 ADD MSTORE PUSH1 0x84 SWAP1 REVERT JUMPDEST SWAP8 SWAP2 SWAP3 SWAP4 SWAP7 SWAP6 SWAP5 SWAP8 SUB PUSH2 0x31F7 JUMPI POP PUSH2 0x3143 DUP3 PUSH2 0x4AED JUMP JUMPDEST PUSH32 0xBC7CD75A20EE27FD9ADEBAB32041F755214DBC6BFFA90CC0225B39DA2E5C2D3B PUSH1 0x0 DUP1 LOG2 DUP4 MLOAD ISZERO DUP1 ISZERO SWAP1 PUSH2 0x31EF JUMPI JUMPDEST PUSH2 0x3180 JUMPI JUMPDEST POP POP POP POP POP DUP1 RETURN JUMPDEST PUSH1 0x0 DUP1 PUSH2 0x31E4 SWAP7 DUP5 MLOAD SWAP7 PUSH2 0x3193 DUP9 PUSH2 0x3F23 JUMP JUMPDEST PUSH1 0x27 DUP9 MSTORE PUSH32 0x416464726573733A206C6F772D6C6576656C2064656C65676174652063616C6C DUP8 DUP10 ADD MSTORE PUSH7 0x819985A5B1959 PUSH1 0xCA SHL DUP7 DUP10 ADD MSTORE MLOAD SWAP1 DUP5 GAS DELEGATECALL SWAP2 RETURNDATASIZE ISZERO PUSH2 0x26F6 JUMPI RETURNDATASIZE PUSH2 0x26DD PUSH2 0x26D4 DUP3 PUSH2 0x3F5F JUMP JUMPDEST POP CODESIZE DUP1 DUP1 DUP1 DUP1 PUSH2 0x3178 JUMP JUMPDEST POP PUSH1 0x0 PUSH2 0x3173 JUMP JUMPDEST DUP4 MLOAD PUSH3 0x461BCD PUSH1 0xE5 SHL DUP2 MSTORE SWAP1 DUP2 ADD DUP6 SWAP1 MSTORE PUSH1 0x29 PUSH1 0x24 DUP3 ADD MSTORE PUSH32 0x45524331393637557067726164653A20756E737570706F727465642070726F78 PUSH1 0x44 DUP3 ADD MSTORE PUSH9 0x1A58589B1955555251 PUSH1 0xBA SHL PUSH1 0x64 DUP3 ADD MSTORE PUSH1 0x84 SWAP1 REVERT JUMPDEST SWAP1 SWAP2 DUP10 DUP3 DUP2 RETURNDATASIZE DUP4 GT PUSH2 0x3274 JUMPI JUMPDEST PUSH2 0x3263 DUP2 DUP4 PUSH2 0x3F3E JUMP JUMPDEST DUP2 ADD SUB SLT PUSH2 0x15DF JUMPI POP MLOAD SWAP1 CODESIZE PUSH2 0x30CD JUMP JUMPDEST POP RETURNDATASIZE PUSH2 0x3259 JUMP JUMPDEST PUSH1 0x41 DUP9 PUSH4 0x4E487B71 PUSH1 0xE0 SHL PUSH1 0x0 MSTORE MSTORE PUSH1 0x24 PUSH1 0x0 REVERT JUMPDEST POP SWAP2 SWAP1 CALLVALUE PUSH2 0xEC3 JUMPI DUP3 PUSH1 0x3 NOT CALLDATASIZE ADD SLT PUSH2 0xEC3 JUMPI PUSH2 0x32AB PUSH2 0x3DD7 JUMP JUMPDEST SWAP1 CALLER PUSH1 0x1 PUSH1 0x1 PUSH1 0xA0 SHL SUB DUP4 AND SUB PUSH2 0x32C7 JUMPI SWAP1 PUSH2 0x1177 SWAP2 CALLDATALOAD PUSH2 0x49AD JUMP JUMPDEST PUSH1 0x84 SWAP1 PUSH1 0x20 DUP6 MLOAD SWAP2 PUSH3 0x461BCD PUSH1 0xE5 SHL DUP4 MSTORE DUP3 ADD MSTORE PUSH1 0x2F PUSH1 0x24 DUP3 ADD MSTORE PUSH32 0x416363657373436F6E74726F6C3A2063616E206F6E6C792072656E6F756E6365 PUSH1 0x44 DUP3 ADD MSTORE PUSH15 0x103937B632B9903337B91039B2B633 PUSH1 0x89 SHL PUSH1 0x64 DUP3 ADD MSTORE REVERT JUMPDEST POP SWAP2 SWAP1 CALLVALUE PUSH2 0xEC3 JUMPI PUSH1 0x3 NOT SWAP3 PUSH1 0x60 CALLDATASIZE DUP6 ADD SLT PUSH2 0x4FC JUMPI PUSH2 0x3340 PUSH2 0x3DC1 JUMP JUMPDEST SWAP2 PUSH1 0x24 CALLDATALOAD SWAP5 PUSH1 0x44 CALLDATALOAD SWAP1 PUSH1 0x1 PUSH1 0x1 PUSH1 0x40 SHL SUB DUP3 GT PUSH2 0x10EE JUMPI PUSH1 0x80 DUP3 DUP5 ADD SWAP2 DUP4 CALLDATASIZE SUB ADD SLT PUSH2 0x10EE JUMPI PUSH2 0x336E PUSH2 0x4500 JUMP JUMPDEST PUSH2 0x3376 PUSH2 0x5558 JUMP JUMPDEST PUSH1 0x1 PUSH1 0x1 PUSH1 0xA0 SHL SUB DUP6 DUP2 AND SWAP6 SWAP1 SWAP4 SWAP1 DUP7 ISZERO PUSH2 0x3568 JUMPI PUSH2 0x3397 DUP10 PUSH1 0x35 SLOAD PUSH2 0x4B7D JUMP JUMPDEST PUSH2 0x1F7 SLOAD LT PUSH2 0x3559 JUMPI PUSH2 0x33AA DUP4 DUP3 PUSH2 0x59E2 JUMP JUMPDEST PUSH2 0x33B3 DUP4 PUSH2 0x55CF JUMP JUMPDEST SWAP5 PUSH1 0x24 DUP6 ADD SWAP6 PUSH1 0x2 DUP10 DUP12 PUSH1 0x44 PUSH2 0x33C8 DUP12 PUSH2 0x55DD JUMP JUMPDEST SWAP10 ADD CALLDATALOAD SWAP9 PUSH1 0xFF DUP13 MLOAD SWAP6 PUSH2 0x33DA DUP8 PUSH2 0x3EDF JUMP JUMPDEST AND DUP6 MSTORE PUSH2 0xFFFF PUSH1 0x20 DUP7 ADD SWAP2 AND DUP2 MSTORE PUSH1 0xFF DUP13 DUP1 DUP8 ADD SWAP4 DUP13 DUP6 MSTORE PUSH1 0x60 DUP9 ADD SWAP6 TIMESTAMP DUP8 MSTORE DUP2 MSTORE PUSH2 0x1FF PUSH1 0x20 MSTORE KECCAK256 SWAP6 MLOAD AND PUSH3 0xFFFF00 DUP7 SLOAD SWAP3 MLOAD PUSH1 0x8 SHL AND SWAP2 PUSH3 0xFFFFFF NOT AND OR OR DUP5 SSTORE MLOAD PUSH1 0x1 DUP5 ADD SSTORE MLOAD SWAP2 ADD SSTORE PUSH2 0x3431 DUP11 DUP4 PUSH2 0x58CA JUMP JUMPDEST PUSH2 0x1F5 SLOAD AND SWAP2 DUP3 EXTCODESIZE ISZERO PUSH2 0x22F3 JUMPI DUP7 MLOAD PUSH4 0x5F8DEAD3 PUSH1 0xE0 SHL DUP2 MSTORE PUSH1 0x1 PUSH1 0x1 PUSH1 0xA0 SHL SUB SWAP1 SWAP3 AND SWAP1 DUP3 ADD SWAP1 DUP2 MSTORE PUSH1 0x20 DUP2 ADD DUP11 SWAP1 MSTORE SWAP1 SWAP2 DUP9 SWAP2 DUP4 SWAP2 SWAP1 DUP3 SWAP1 DUP5 SWAP1 DUP3 SWAP1 PUSH1 0x40 ADD SUB SWAP3 GAS CALL DUP1 ISZERO PUSH2 0x354F JUMPI PUSH2 0x34F7 JUMPI JUMPDEST POP SWAP1 PUSH2 0x34D4 PUSH2 0x34CE PUSH2 0x10D4 SWAP4 DUP8 PUSH1 0x0 DUP1 MLOAD PUSH1 0x20 PUSH2 0x5DB5 DUP4 CODECOPY DUP2 MLOAD SWAP2 MSTORE PUSH1 0x20 PUSH32 0xED42ED2983F8437A9D3A38E7D50ABC7050716D3AB29FF7F5A6B268533A3F55B9 SWAP11 SWAP12 SWAP13 DUP11 MLOAD SWAP1 DUP2 MSTORE LOG2 PUSH2 0x55CF JUMP JUMPDEST SWAP4 PUSH2 0x55DD JUMP JUMPDEST SWAP4 MLOAD SWAP4 DUP5 SWAP4 DUP5 PUSH2 0xFFFF PUSH1 0x40 SWAP3 SWAP6 SWAP5 SWAP4 PUSH1 0xFF PUSH1 0x60 DUP5 ADD SWAP8 AND DUP4 MSTORE AND PUSH1 0x20 DUP3 ADD MSTORE ADD MSTORE JUMP JUMPDEST PUSH2 0x34CE PUSH2 0x10D4 SWAP4 SWAP3 DUP8 PUSH1 0x0 DUP1 MLOAD PUSH1 0x20 PUSH2 0x5DB5 DUP4 CODECOPY DUP2 MLOAD SWAP2 MSTORE PUSH1 0x20 PUSH32 0xED42ED2983F8437A9D3A38E7D50ABC7050716D3AB29FF7F5A6B268533A3F55B9 SWAP11 SWAP12 PUSH2 0x3540 PUSH2 0x34D4 SWAP8 PUSH2 0x3F10 JUMP JUMPDEST SWAP12 POP POP POP SWAP8 POP SWAP3 SWAP4 POP POP PUSH2 0x3481 JUMP JUMPDEST DUP6 MLOAD RETURNDATASIZE DUP10 DUP3 RETURNDATACOPY RETURNDATASIZE SWAP1 REVERT JUMPDEST POP DUP5 MLOAD PUSH4 0x8A164F63 PUSH1 0xE0 SHL DUP2 MSTORE REVERT JUMPDEST POP DUP5 MLOAD PUSH4 0xE6C4247B PUSH1 0xE0 SHL DUP2 MSTORE REVERT JUMPDEST DUP4 DUP3 CALLVALUE PUSH2 0xEC3 JUMPI DUP2 PUSH1 0x3 NOT CALLDATASIZE ADD SLT PUSH2 0xEC3 JUMPI PUSH1 0x20 SWAP1 MLOAD PUSH32 0xACF805600123EF007091DA3B3FFB39474074C656C127AA68CB0FFEC232A8FF8 DUP2 MSTORE RETURN JUMPDEST DUP4 DUP3 CALLVALUE PUSH2 0xEC3 JUMPI DUP2 PUSH1 0x3 NOT CALLDATASIZE ADD SLT PUSH2 0xEC3 JUMPI PUSH1 0x20 SWAP1 MLOAD PUSH1 0x12 DUP2 MSTORE RETURN JUMPDEST POP SWAP1 CALLVALUE PUSH2 0x4FC JUMPI PUSH2 0x35DE CALLDATASIZE PUSH2 0x3E60 JUMP JUMPDEST SWAP5 SWAP2 PUSH2 0x35EC SWAP5 SWAP2 SWAP4 SWAP5 PUSH2 0x5558 JUMP JUMPDEST DUP6 DUP2 SUB PUSH2 0x3672 JUMPI PUSH1 0x32 SWAP3 DUP4 DUP3 GT PUSH2 0x3663 JUMPI POP DUP7 JUMPDEST DUP2 DUP2 LT PUSH2 0x360B JUMPI DUP8 DUP1 RETURN JUMPDEST PUSH2 0x3619 PUSH2 0x3DC DUP3 DUP5 DUP10 PUSH2 0x55AB JUMP JUMPDEST SWAP1 DUP8 DUP2 LT ISZERO PUSH2 0x3651 JUMPI DUP1 PUSH1 0x5 SHL DUP7 ADD CALLDATALOAD PUSH1 0x7E NOT DUP8 CALLDATASIZE SUB ADD DUP2 SLT ISZERO PUSH2 0x2CA2 JUMPI PUSH2 0x364C SWAP3 PUSH2 0x3647 SWAP2 DUP9 ADD SWAP1 PUSH2 0x568E JUMP JUMPDEST PUSH2 0x559C JUMP JUMPDEST PUSH2 0x3600 JUMP JUMPDEST PUSH4 0x4E487B71 PUSH1 0xE0 SHL DUP10 MSTORE DUP5 DUP5 MSTORE PUSH1 0x24 DUP10 REVERT JUMPDEST MLOAD PUSH4 0x5BEB171 PUSH1 0xE1 SHL DUP2 MSTORE SWAP1 POP REVERT JUMPDEST POP SWAP1 MLOAD PUSH4 0x512509D3 PUSH1 0xE1 SHL DUP2 MSTORE REVERT JUMPDEST DUP4 DUP3 CALLVALUE PUSH2 0xEC3 JUMPI PUSH1 0x20 CALLDATASIZE PUSH1 0x3 NOT ADD SLT PUSH2 0xEC3 JUMPI PUSH1 0x20 SWAP2 PUSH1 0x1 PUSH1 0x1 PUSH1 0xA0 SHL SUB PUSH2 0x36A7 PUSH2 0x3DC1 JUMP JUMPDEST AND DUP2 MSTORE PUSH1 0x33 DUP4 MSTORE DUP2 DUP2 KECCAK256 SLOAD PUSH2 0x1FE DUP5 MSTORE DUP3 DUP3 KECCAK256 SLOAD SWAP1 DUP2 DUP2 GT ISZERO PUSH2 0x36CE JUMPI PUSH2 0x2055 SWAP3 POP PUSH2 0x5251 JUMP JUMPDEST POP POP SWAP1 PUSH2 0x1939 JUMP JUMPDEST POP SWAP1 CALLVALUE PUSH2 0x4FC JUMPI DUP2 PUSH1 0x3 NOT CALLDATASIZE ADD SLT PUSH2 0x4FC JUMPI CALLDATALOAD SWAP1 PUSH2 0x36F2 PUSH2 0x3DD7 JUMP JUMPDEST SWAP1 DUP3 DUP5 MSTORE PUSH2 0x12D DUP1 PUSH1 0x20 MSTORE PUSH2 0x370C PUSH1 0x1 DUP4 DUP8 KECCAK256 ADD SLOAD PUSH2 0x48AE JUMP JUMPDEST DUP4 DUP6 MSTORE PUSH1 0x20 DUP2 DUP2 MSTORE DUP3 DUP7 KECCAK256 PUSH1 0x1 PUSH1 0x1 PUSH1 0xA0 SHL SUB SWAP1 SWAP5 AND DUP1 DUP8 MSTORE SWAP4 SWAP1 MSTORE DUP2 DUP6 KECCAK256 SLOAD PUSH1 0xFF AND ISZERO PUSH2 0x3738 JUMPI DUP5 DUP1 RETURN JUMPDEST DUP4 DUP6 MSTORE PUSH1 0x20 MSTORE DUP1 DUP5 KECCAK256 DUP3 DUP6 MSTORE PUSH1 0x20 MSTORE DUP4 KECCAK256 PUSH1 0x1 PUSH1 0xFF NOT DUP3 SLOAD AND OR SWAP1 SSTORE CALLER SWAP2 PUSH1 0x0 DUP1 MLOAD PUSH1 0x20 PUSH2 0x5D75 DUP4 CODECOPY DUP2 MLOAD SWAP2 MSTORE DUP5 DUP1 LOG4 CODESIZE DUP1 DUP1 DUP1 DUP5 DUP1 RETURN JUMPDEST DUP4 DUP3 CALLVALUE PUSH2 0xEC3 JUMPI DUP2 PUSH1 0x3 NOT CALLDATASIZE ADD SLT PUSH2 0xEC3 JUMPI PUSH1 0x20 SWAP1 MLOAD PUSH32 0x3C11D16CBAFFD01DF69CE1C404F6340EE057498F5F00246190EA54220576A848 DUP2 MSTORE RETURN JUMPDEST POP SWAP1 CALLVALUE PUSH2 0x4FC JUMPI PUSH1 0x20 CALLDATASIZE PUSH1 0x3 NOT ADD SLT PUSH2 0x4FC JUMPI DUP2 PUSH1 0x20 SWAP4 PUSH1 0x1 SWAP3 CALLDATALOAD DUP2 MSTORE PUSH2 0x12D DUP6 MSTORE KECCAK256 ADD SLOAD SWAP1 MLOAD SWAP1 DUP2 MSTORE RETURN JUMPDEST POP SWAP2 CALLVALUE PUSH2 0x15DF JUMPI DUP3 PUSH2 0x37E8 CALLDATASIZE PUSH2 0x3EAA JUMP JUMPDEST PUSH1 0x1 PUSH1 0x1 PUSH1 0xA0 SHL SUB DUP4 AND DUP6 MSTORE PUSH1 0x34 PUSH1 0x20 SWAP1 DUP2 MSTORE DUP5 DUP7 KECCAK256 CALLER DUP8 MSTORE SWAP1 MSTORE SWAP3 SWAP1 SWAP4 KECCAK256 SLOAD SWAP2 SWAP4 SWAP1 SWAP2 SWAP1 PUSH1 0x1 DUP3 ADD PUSH2 0x3824 JUMPI JUMPDEST PUSH1 0x20 DUP7 PUSH2 0x1532 DUP8 DUP8 DUP8 PUSH2 0x4BA0 JUMP JUMPDEST DUP5 DUP3 LT PUSH2 0x384D JUMPI POP SWAP2 DUP4 SWAP2 PUSH2 0x3842 PUSH1 0x20 SWAP7 SWAP6 PUSH2 0x1532 SWAP6 SUB CALLER DUP4 PUSH2 0x4F27 JUMP JUMPDEST SWAP2 SWAP4 SWAP5 DUP2 SWAP4 POP PUSH2 0x3816 JUMP JUMPDEST PUSH1 0x64 SWAP1 PUSH1 0x20 DUP8 MLOAD SWAP2 PUSH3 0x461BCD PUSH1 0xE5 SHL DUP4 MSTORE DUP3 ADD MSTORE PUSH1 0x1D PUSH1 0x24 DUP3 ADD MSTORE PUSH32 0x45524332303A20696E73756666696369656E7420616C6C6F77616E6365000000 PUSH1 0x44 DUP3 ADD MSTORE REVERT JUMPDEST DUP4 DUP3 CALLVALUE PUSH2 0xEC3 JUMPI DUP2 PUSH1 0x3 NOT CALLDATASIZE ADD SLT PUSH2 0xEC3 JUMPI PUSH1 0x20 SWAP1 MLOAD PUSH32 0xCAB5A0BFE0B79D2C4B1C2E02599FA044D115B7511F9659307CB4276950967709 DUP2 MSTORE RETURN JUMPDEST POP CALLVALUE PUSH2 0x4FC JUMPI DUP1 PUSH1 0x3 NOT CALLDATASIZE ADD SLT PUSH2 0x4FC JUMPI PUSH2 0x38E4 PUSH2 0x3DC1 JUMP JUMPDEST SWAP1 PUSH1 0x24 CALLDATALOAD SWAP2 PUSH2 0x38F1 PUSH2 0x43C6 JUMP JUMPDEST PUSH1 0x1 PUSH1 0x1 PUSH1 0xA0 SHL SUB AND SWAP3 DUP4 ISZERO PUSH2 0x12DC JUMPI DUP4 DUP6 MSTORE PUSH2 0x1FE SWAP1 DUP2 PUSH1 0x20 MSTORE DUP4 DUP4 DUP8 KECCAK256 SLOAD LT PUSH2 0x395A JUMPI POP SWAP2 PUSH1 0x20 SWAP2 PUSH32 0x9BED35CB62AD0DBA04F9D5BFEE4B5BC91443E77DA8A65C4C84834C51BB08B0D6 SWAP4 DUP6 DUP8 MSTORE DUP4 MSTORE DUP1 DUP7 KECCAK256 PUSH2 0x3950 DUP4 DUP3 SLOAD PUSH2 0x5251 JUMP JUMPDEST SWAP1 SSTORE MLOAD SWAP1 DUP2 MSTORE LOG2 DUP1 RETURN JUMPDEST DUP3 MLOAD PUSH4 0xDD895CB PUSH1 0xE1 SHL DUP2 MSTORE REVERT JUMPDEST POP SWAP1 CALLVALUE PUSH2 0x4FC JUMPI PUSH2 0x3978 CALLDATASIZE PUSH2 0x3E60 JUMP JUMPDEST SWAP4 PUSH2 0x3984 SWAP4 SWAP2 SWAP4 PUSH2 0x43C6 JUMP JUMPDEST DUP5 DUP4 SUB PUSH2 0x3A69 JUMPI PUSH1 0x32 DUP4 GT PUSH2 0x3A5B JUMPI POP DUP6 JUMPDEST DUP3 DUP2 LT PUSH2 0x39A1 JUMPI DUP7 DUP1 RETURN JUMPDEST PUSH2 0x39C7 SWAP1 PUSH1 0x1 PUSH1 0x1 PUSH1 0xA0 SHL SUB DUP1 PUSH2 0x39BC PUSH2 0x3DC DUP5 DUP9 DUP9 PUSH2 0x55AB JUMP JUMPDEST AND PUSH2 0x39CC JUMPI POP PUSH2 0x559C JUMP JUMPDEST PUSH2 0x3996 JUMP JUMPDEST PUSH2 0x3A0E PUSH2 0x39E2 PUSH2 0x39DD DUP5 DUP11 DUP11 PUSH2 0x55AB JUMP JUMPDEST PUSH2 0x58BD JUMP JUMPDEST DUP3 PUSH2 0x39F1 PUSH2 0x3DC DUP7 DUP11 DUP11 PUSH2 0x55AB JUMP JUMPDEST AND DUP12 MSTORE PUSH2 0x1FD PUSH1 0x20 MSTORE DUP10 DUP12 KECCAK256 SWAP1 PUSH1 0xFF DUP1 NOT DUP4 SLOAD AND SWAP2 ISZERO ISZERO AND OR SWAP1 SSTORE JUMP JUMPDEST PUSH2 0x3A1C PUSH2 0x3DC DUP4 DUP8 DUP8 PUSH2 0x55AB JUMP JUMPDEST PUSH2 0x3A2A PUSH2 0x39DD DUP5 DUP11 DUP11 PUSH2 0x55AB JUMP JUMPDEST SWAP2 CALLER SWAP3 ISZERO ISZERO SWAP2 AND PUSH32 0x7FA523C84AB8D7FC5B72F08B9E46DBBF10C39E119A075B3E317002D14BC9F436 DUP12 DUP1 LOG4 CODESIZE PUSH2 0x3EF JUMP JUMPDEST DUP6 MLOAD PUSH4 0x5BEB171 PUSH1 0xE1 SHL DUP2 MSTORE REVERT JUMPDEST DUP6 MLOAD PUSH4 0x512509D3 PUSH1 0xE1 SHL DUP2 MSTORE REVERT JUMPDEST DUP4 DUP3 CALLVALUE PUSH2 0xEC3 JUMPI DUP2 PUSH1 0x3 NOT CALLDATASIZE ADD SLT PUSH2 0xEC3 JUMPI PUSH1 0x20 SWAP1 PUSH1 0x35 SLOAD SWAP1 MLOAD SWAP1 DUP2 MSTORE RETURN JUMPDEST POP SWAP1 CALLVALUE PUSH2 0x4FC JUMPI PUSH1 0x20 CALLDATASIZE PUSH1 0x3 NOT ADD SLT PUSH2 0x4FC JUMPI PUSH1 0x20 SWAP3 DUP3 SWAP2 CALLDATALOAD DUP2 MSTORE PUSH2 0x1FA DUP5 MSTORE KECCAK256 SLOAD SWAP1 MLOAD SWAP1 DUP2 MSTORE RETURN JUMPDEST DUP4 DUP3 CALLVALUE PUSH2 0xEC3 JUMPI PUSH1 0x20 CALLDATASIZE PUSH1 0x3 NOT ADD SLT PUSH2 0xEC3 JUMPI PUSH1 0x20 SWAP2 DUP2 SWAP1 PUSH1 0x1 PUSH1 0x1 PUSH1 0xA0 SHL SUB PUSH2 0x3AE7 PUSH2 0x3DC1 JUMP JUMPDEST AND DUP2 MSTORE PUSH2 0x1FE DUP5 MSTORE KECCAK256 SLOAD SWAP1 MLOAD SWAP1 DUP2 MSTORE RETURN JUMPDEST POP DUP3 CALLVALUE PUSH2 0x15DF JUMPI PUSH1 0x20 CALLDATASIZE PUSH1 0x3 NOT ADD SLT PUSH2 0x15DF JUMPI DUP3 CALLDATALOAD SWAP1 PUSH1 0x1 PUSH1 0x1 PUSH1 0x40 SHL SUB DUP3 GT PUSH2 0x15DF JUMPI POP PUSH1 0x20 PUSH2 0x3B2F DUP2 SWAP5 PUSH1 0xFF SWAP4 CALLDATASIZE SWAP2 ADD PUSH2 0x3E03 JUMP JUMPDEST SWAP2 SWAP1 DUP3 DUP6 MLOAD SWAP4 DUP5 SWAP3 DUP4 CALLDATACOPY DUP2 ADD PUSH2 0x1FC DUP2 MSTORE SUB ADD SWAP1 KECCAK256 SLOAD AND SWAP1 MLOAD SWAP1 ISZERO ISZERO DUP2 MSTORE RETURN JUMPDEST POP CALLVALUE PUSH2 0x4FC JUMPI DUP1 PUSH1 0x3 NOT CALLDATASIZE ADD SLT PUSH2 0x4FC JUMPI PUSH2 0x3B68 PUSH2 0x3DC1 JUMP JUMPDEST SWAP1 PUSH1 0x24 CALLDATALOAD SWAP2 PUSH2 0x3B75 PUSH2 0x43C6 JUMP JUMPDEST PUSH1 0x1 PUSH1 0x1 PUSH1 0xA0 SHL SUB AND SWAP3 DUP4 ISZERO PUSH2 0x12DC JUMPI DUP4 DUP6 MSTORE PUSH1 0x33 PUSH1 0x20 MSTORE DUP2 DUP6 KECCAK256 SLOAD SWAP1 PUSH2 0x1FE SWAP2 DUP3 PUSH1 0x20 MSTORE PUSH2 0x3BA7 DUP6 DUP6 DUP10 KECCAK256 SLOAD PUSH2 0x4B7D JUMP JUMPDEST GT PUSH2 0x3BE6 JUMPI POP SWAP2 PUSH1 0x20 SWAP2 PUSH32 0xA065E63C631C86F1B9F66A4A2F63F2093BF1C2168D23290259DBD969E0222A45 SWAP4 DUP6 DUP8 MSTORE DUP4 MSTORE DUP1 DUP7 KECCAK256 PUSH2 0x3950 DUP4 DUP3 SLOAD PUSH2 0x4B7D JUMP JUMPDEST DUP3 MLOAD PUSH4 0x11ACC28F PUSH1 0xE0 SHL DUP2 MSTORE REVERT JUMPDEST DUP4 DUP3 CALLVALUE PUSH2 0xEC3 JUMPI DUP2 PUSH1 0x3 NOT CALLDATASIZE ADD SLT PUSH2 0xEC3 JUMPI PUSH1 0x20 SWAP1 PUSH2 0x202 SLOAD SWAP1 MLOAD SWAP1 DUP2 MSTORE RETURN JUMPDEST DUP4 DUP3 CALLVALUE PUSH2 0xEC3 JUMPI DUP1 PUSH1 0x3 NOT CALLDATASIZE ADD SLT PUSH2 0xEC3 JUMPI PUSH1 0x20 SWAP1 PUSH2 0x1532 PUSH2 0x3C34 PUSH2 0x3DC1 JUMP JUMPDEST PUSH1 0x24 CALLDATALOAD SWAP1 CALLER PUSH2 0x4F27 JUMP JUMPDEST DUP4 DUP3 CALLVALUE PUSH2 0xEC3 JUMPI DUP2 PUSH1 0x3 NOT CALLDATASIZE ADD SLT PUSH2 0xEC3 JUMPI DUP1 MLOAD PUSH2 0x1C04 SWAP2 PUSH2 0x1BFA DUP3 PUSH2 0x1BF3 DUP2 PUSH2 0x3FEB JUMP JUMPDEST DUP4 DUP3 CALLVALUE PUSH2 0xEC3 JUMPI DUP2 PUSH1 0x3 NOT CALLDATASIZE ADD SLT PUSH2 0xEC3 JUMPI PUSH1 0x20 SWAP1 MLOAD PUSH32 0x442A94F1A1FAC79AF32856AF2A64F63648CFA2EF3B98610A5BB7CBEC4CEE6985 DUP2 MSTORE RETURN JUMPDEST POP SWAP1 CALLVALUE PUSH2 0x4FC JUMPI PUSH1 0x20 CALLDATASIZE PUSH1 0x3 NOT ADD SLT PUSH2 0x4FC JUMPI DUP1 CALLDATALOAD SWAP1 PUSH1 0xFF DUP3 AND DUP1 SWAP3 SUB PUSH2 0xEBF JUMPI PUSH2 0x3CC7 PUSH2 0x420B JUMP JUMPDEST DUP1 DUP3 GT PUSH2 0x3D10 JUMPI POP PUSH2 0x200 SWAP2 PUSH32 0xA71931DDBBC8DD83299D827601BF2C7B962CF80465DC1CF5259521D550924DCB DUP4 SLOAD SWAP2 DUP1 MLOAD PUSH1 0xFF DUP5 AND DUP2 MSTORE DUP5 PUSH1 0x20 DUP3 ADD MSTORE LOG1 PUSH1 0xFF NOT AND OR SWAP1 SSTORE DUP1 RETURN JUMPDEST DUP3 MLOAD PUSH4 0x3D98A22F PUSH1 0xE2 SHL DUP2 MSTORE REVERT JUMPDEST DUP5 SWAP1 DUP5 CALLVALUE PUSH2 0x4FC JUMPI PUSH1 0x20 CALLDATASIZE PUSH1 0x3 NOT ADD SLT PUSH2 0x4FC JUMPI CALLDATALOAD PUSH4 0xFFFFFFFF PUSH1 0xE0 SHL DUP2 AND DUP1 SWAP2 SUB PUSH2 0x4FC JUMPI PUSH1 0x20 SWAP3 POP PUSH4 0x7965DB0B PUSH1 0xE0 SHL DUP2 EQ SWAP1 DUP2 ISZERO PUSH2 0x3D61 JUMPI JUMPDEST POP ISZERO ISZERO DUP2 MSTORE RETURN JUMPDEST PUSH4 0x1FFC9A7 PUSH1 0xE0 SHL EQ SWAP1 POP DUP4 PUSH2 0x3D5A JUMP JUMPDEST PUSH1 0x0 JUMPDEST DUP4 DUP2 LT PUSH2 0x3D85 JUMPI POP POP PUSH1 0x0 SWAP2 ADD MSTORE JUMP JUMPDEST DUP2 DUP2 ADD MLOAD DUP4 DUP3 ADD MSTORE PUSH1 0x20 ADD PUSH2 0x3D75 JUMP JUMPDEST PUSH1 0x40 SWAP2 PUSH1 0x20 DUP3 MSTORE PUSH2 0x3DB5 DUP2 MLOAD DUP1 SWAP3 DUP2 PUSH1 0x20 DUP7 ADD MSTORE PUSH1 0x20 DUP7 DUP7 ADD SWAP2 ADD PUSH2 0x3D72 JUMP JUMPDEST PUSH1 0x1F ADD PUSH1 0x1F NOT AND ADD ADD SWAP1 JUMP JUMPDEST PUSH1 0x4 CALLDATALOAD SWAP1 PUSH1 0x1 PUSH1 0x1 PUSH1 0xA0 SHL SUB DUP3 AND DUP3 SUB PUSH2 0xEB6 JUMPI JUMP JUMPDEST PUSH1 0x24 CALLDATALOAD SWAP1 PUSH1 0x1 PUSH1 0x1 PUSH1 0xA0 SHL SUB DUP3 AND DUP3 SUB PUSH2 0xEB6 JUMPI JUMP JUMPDEST PUSH1 0x44 CALLDATALOAD SWAP1 PUSH1 0x1 PUSH1 0x1 PUSH1 0xA0 SHL SUB DUP3 AND DUP3 SUB PUSH2 0xEB6 JUMPI JUMP JUMPDEST SWAP2 DUP2 PUSH1 0x1F DUP5 ADD SLT ISZERO PUSH2 0xEB6 JUMPI DUP3 CALLDATALOAD SWAP2 PUSH1 0x1 PUSH1 0x1 PUSH1 0x40 SHL SUB DUP4 GT PUSH2 0xEB6 JUMPI PUSH1 0x20 DUP4 DUP2 DUP7 ADD SWAP6 ADD ADD GT PUSH2 0xEB6 JUMPI JUMP JUMPDEST SWAP2 DUP2 PUSH1 0x1F DUP5 ADD SLT ISZERO PUSH2 0xEB6 JUMPI DUP3 CALLDATALOAD SWAP2 PUSH1 0x1 PUSH1 0x1 PUSH1 0x40 SHL SUB DUP4 GT PUSH2 0xEB6 JUMPI PUSH1 0x20 DUP1 DUP6 ADD SWAP5 DUP5 PUSH1 0x5 SHL ADD ADD GT PUSH2 0xEB6 JUMPI JUMP JUMPDEST PUSH1 0x40 PUSH1 0x3 NOT DUP3 ADD SLT PUSH2 0xEB6 JUMPI PUSH1 0x1 PUSH1 0x1 PUSH1 0x40 SHL SUB SWAP2 PUSH1 0x4 CALLDATALOAD DUP4 DUP2 GT PUSH2 0xEB6 JUMPI DUP3 PUSH2 0x3E8C SWAP2 PUSH1 0x4 ADD PUSH2 0x3E30 JUMP JUMPDEST SWAP4 SWAP1 SWAP4 SWAP3 PUSH1 0x24 CALLDATALOAD SWAP2 DUP3 GT PUSH2 0xEB6 JUMPI PUSH2 0x3EA6 SWAP2 PUSH1 0x4 ADD PUSH2 0x3E30 JUMP JUMPDEST SWAP1 SWAP2 JUMP JUMPDEST PUSH1 0x60 SWAP1 PUSH1 0x3 NOT ADD SLT PUSH2 0xEB6 JUMPI PUSH1 0x1 PUSH1 0x1 PUSH1 0xA0 SHL SUB SWAP1 PUSH1 0x4 CALLDATALOAD DUP3 DUP2 AND DUP2 SUB PUSH2 0xEB6 JUMPI SWAP2 PUSH1 0x24 CALLDATALOAD SWAP1 DUP2 AND DUP2 SUB PUSH2 0xEB6 JUMPI SWAP1 PUSH1 0x44 CALLDATALOAD SWAP1 JUMP JUMPDEST PUSH1 0x80 DUP2 ADD SWAP1 DUP2 LT PUSH1 0x1 PUSH1 0x1 PUSH1 0x40 SHL SUB DUP3 GT OR PUSH2 0x3EFA JUMPI PUSH1 0x40 MSTORE JUMP JUMPDEST PUSH4 0x4E487B71 PUSH1 0xE0 SHL PUSH1 0x0 MSTORE PUSH1 0x41 PUSH1 0x4 MSTORE PUSH1 0x24 PUSH1 0x0 REVERT JUMPDEST PUSH1 0x1 PUSH1 0x1 PUSH1 0x40 SHL SUB DUP2 GT PUSH2 0x3EFA JUMPI PUSH1 0x40 MSTORE JUMP JUMPDEST PUSH1 0x60 DUP2 ADD SWAP1 DUP2 LT PUSH1 0x1 PUSH1 0x1 PUSH1 0x40 SHL SUB DUP3 GT OR PUSH2 0x3EFA JUMPI PUSH1 0x40 MSTORE JUMP JUMPDEST SWAP1 PUSH1 0x1F DUP1 NOT SWAP2 ADD AND DUP2 ADD SWAP1 DUP2 LT PUSH1 0x1 PUSH1 0x1 PUSH1 0x40 SHL SUB DUP3 GT OR PUSH2 0x3EFA JUMPI PUSH1 0x40 MSTORE JUMP JUMPDEST PUSH1 0x1 PUSH1 0x1 PUSH1 0x40 SHL SUB DUP2 GT PUSH2 0x3EFA JUMPI PUSH1 0x1F ADD PUSH1 0x1F NOT AND PUSH1 0x20 ADD SWAP1 JUMP JUMPDEST SWAP3 SWAP2 SWAP3 PUSH2 0x3F86 DUP3 PUSH2 0x3F5F JUMP JUMPDEST SWAP2 PUSH2 0x3F94 PUSH1 0x40 MLOAD SWAP4 DUP5 PUSH2 0x3F3E JUMP JUMPDEST DUP3 SWAP5 DUP2 DUP5 MSTORE DUP2 DUP4 ADD GT PUSH2 0xEB6 JUMPI DUP3 DUP2 PUSH1 0x20 SWAP4 DUP5 PUSH1 0x0 SWAP7 ADD CALLDATACOPY ADD ADD MSTORE JUMP JUMPDEST SWAP1 PUSH1 0x1 DUP3 DUP2 SHR SWAP3 AND DUP1 ISZERO PUSH2 0x3FE1 JUMPI JUMPDEST PUSH1 0x20 DUP4 LT EQ PUSH2 0x3FCB JUMPI JUMP JUMPDEST PUSH4 0x4E487B71 PUSH1 0xE0 SHL PUSH1 0x0 MSTORE PUSH1 0x22 PUSH1 0x4 MSTORE PUSH1 0x24 PUSH1 0x0 REVERT JUMPDEST SWAP2 PUSH1 0x7F AND SWAP2 PUSH2 0x3FC0 JUMP JUMPDEST PUSH1 0x36 SLOAD PUSH1 0x0 SWAP3 SWAP2 PUSH2 0x3FFB DUP3 PUSH2 0x3FB1 JUMP JUMPDEST DUP1 DUP3 MSTORE SWAP2 PUSH1 0x1 SWAP1 DUP2 DUP2 AND SWAP1 DUP2 ISZERO PUSH2 0x4072 JUMPI POP PUSH1 0x1 EQ PUSH2 0x4019 JUMPI POP POP POP JUMP JUMPDEST SWAP2 SWAP3 SWAP4 POP PUSH1 0x36 PUSH1 0x0 MSTORE PUSH32 0x4A11F94E20A93C79F6EC743A1954EC4FC2C08429AE2122118BF234B2185C81B8 SWAP2 PUSH1 0x0 SWAP3 JUMPDEST DUP5 DUP5 LT PUSH2 0x405A JUMPI POP POP PUSH1 0x20 SWAP3 POP ADD ADD SWAP1 JUMP JUMPDEST DUP1 SLOAD PUSH1 0x20 DUP6 DUP6 ADD DUP2 ADD SWAP2 SWAP1 SWAP2 MSTORE SWAP1 SWAP4 ADD SWAP3 DUP2 ADD PUSH2 0x4048 JUMP JUMPDEST SWAP2 POP POP PUSH1 0x20 SWAP4 SWAP5 POP PUSH1 0xFF SWAP3 SWAP2 SWAP3 NOT AND DUP4 DUP4 ADD MSTORE ISZERO ISZERO PUSH1 0x5 SHL ADD ADD SWAP1 JUMP JUMPDEST PUSH1 0x37 SLOAD PUSH1 0x0 SWAP3 SWAP2 PUSH2 0x409F DUP3 PUSH2 0x3FB1 JUMP JUMPDEST DUP1 DUP3 MSTORE SWAP2 PUSH1 0x1 SWAP1 DUP2 DUP2 AND SWAP1 DUP2 ISZERO PUSH2 0x4072 JUMPI POP PUSH1 0x1 EQ PUSH2 0x40BD JUMPI POP POP POP JUMP JUMPDEST SWAP2 SWAP3 SWAP4 POP PUSH1 0x37 PUSH1 0x0 MSTORE PUSH32 0x42A7B7DD785CD69714A189DFFB3FD7D7174EDC9ECE837694CE50F7078F7C31AE SWAP2 PUSH1 0x0 SWAP3 JUMPDEST DUP5 DUP5 LT PUSH2 0x40FE JUMPI POP POP PUSH1 0x20 SWAP3 POP ADD ADD SWAP1 JUMP JUMPDEST DUP1 SLOAD PUSH1 0x20 DUP6 DUP6 ADD DUP2 ADD SWAP2 SWAP1 SWAP2 MSTORE SWAP1 SWAP4 ADD SWAP3 DUP2 ADD PUSH2 0x40EC JUMP JUMPDEST SWAP1 PUSH1 0x0 SWAP2 PUSH2 0x1F9 SWAP1 DUP2 SLOAD PUSH2 0x4129 DUP2 PUSH2 0x3FB1 JUMP JUMPDEST DUP1 DUP4 MSTORE SWAP3 PUSH1 0x1 SWAP2 DUP1 DUP4 AND SWAP1 DUP2 ISZERO PUSH2 0x41A8 JUMPI POP PUSH1 0x1 EQ PUSH2 0x4149 JUMPI JUMPDEST POP POP POP POP JUMP JUMPDEST SWAP1 SWAP3 SWAP4 SWAP5 POP PUSH1 0x0 MSTORE PUSH32 0x29EBA5F30CA2030A69ED2D7F74871C83BBC526B071320256F127653C7DFFF4E9 SWAP2 PUSH1 0x0 SWAP3 JUMPDEST DUP5 DUP5 LT PUSH2 0x4190 JUMPI POP POP PUSH1 0x20 SWAP3 POP ADD ADD SWAP1 CODESIZE DUP1 DUP1 DUP1 PUSH2 0x4143 JUMP JUMPDEST DUP1 SLOAD PUSH1 0x20 DUP6 DUP6 ADD DUP2 ADD SWAP2 SWAP1 SWAP2 MSTORE SWAP1 SWAP4 ADD SWAP3 DUP2 ADD PUSH2 0x4177 JUMP JUMPDEST SWAP3 POP POP POP PUSH1 0x20 SWAP4 SWAP5 POP PUSH1 0xFF SWAP3 SWAP2 SWAP3 NOT AND DUP4 DUP4 ADD MSTORE ISZERO ISZERO PUSH1 0x5 SHL ADD ADD SWAP1 CODESIZE DUP1 DUP1 DUP1 PUSH2 0x4143 JUMP JUMPDEST PUSH1 0x4 CALLDATALOAD SWAP1 PUSH2 0xFFFF DUP3 AND DUP3 SUB PUSH2 0xEB6 JUMPI JUMP JUMPDEST PUSH1 0x24 CALLDATALOAD SWAP1 DUP2 ISZERO ISZERO DUP3 SUB PUSH2 0xEB6 JUMPI JUMP JUMPDEST SWAP1 DUP1 PUSH1 0x1F DUP4 ADD SLT ISZERO PUSH2 0xEB6 JUMPI DUP2 PUSH1 0x20 PUSH2 0x4208 SWAP4 CALLDATALOAD SWAP2 ADD PUSH2 0x3F7A JUMP JUMPDEST SWAP1 JUMP JUMPDEST CALLER PUSH1 0x0 SWAP1 DUP2 MSTORE PUSH32 0xA581B17BFC4D6578E300CAFBF34FD2DC1FEF0270D8C73F88A99DCDE2859A6639 PUSH1 0x20 SWAP1 DUP2 MSTORE PUSH1 0x40 DUP1 DUP4 KECCAK256 SLOAD SWAP1 SWAP3 SWAP1 PUSH1 0xFF AND ISZERO PUSH2 0x424D JUMPI POP POP POP JUMP JUMPDEST PUSH2 0x4256 CALLER PUSH2 0x53E3 JUMP JUMPDEST DUP4 MLOAD SWAP1 DUP3 PUSH2 0x4263 DUP4 PUSH2 0x3EDF JUMP JUMPDEST PUSH1 0x42 DUP4 MSTORE DUP5 DUP4 ADD SWAP4 PUSH1 0x60 CALLDATASIZE DUP7 CALLDATACOPY DUP4 MLOAD ISZERO PUSH2 0x43B2 JUMPI PUSH1 0x30 DUP6 MSTORE8 DUP4 MLOAD SWAP1 PUSH1 0x1 SWAP2 DUP3 LT ISZERO PUSH2 0x43B2 JUMPI SWAP1 PUSH1 0x78 PUSH1 0x21 DUP7 ADD MSTORE8 PUSH1 0x41 SWAP2 JUMPDEST DUP2 DUP4 GT PUSH2 0x4344 JUMPI POP POP POP PUSH2 0x4302 JUMPI PUSH2 0x1AA5 SWAP4 DUP6 SWAP4 PUSH2 0x42EC SWAP4 PUSH2 0x42DD PUSH1 0x48 SWAP5 PUSH2 0x1AF1 SWAP10 MLOAD SWAP9 DUP6 PUSH1 0x0 DUP1 MLOAD PUSH1 0x20 PUSH2 0x5D95 DUP4 CODECOPY DUP2 MLOAD SWAP2 MSTORE DUP12 SWAP8 DUP9 ADD MSTORE DUP3 MLOAD SWAP3 DUP4 SWAP2 PUSH1 0x37 DUP10 ADD SWAP2 ADD PUSH2 0x3D72 JUMP JUMPDEST ADD SUB PUSH1 0x28 DUP2 ADD DUP6 MSTORE ADD DUP4 PUSH2 0x3F3E JUMP JUMPDEST MLOAD PUSH3 0x461BCD PUSH1 0xE5 SHL DUP2 MSTORE SWAP2 DUP3 SWAP2 PUSH1 0x4 DUP4 ADD PUSH2 0x3D95 JUMP JUMPDEST PUSH1 0x64 DUP5 DUP7 MLOAD SWAP1 PUSH3 0x461BCD PUSH1 0xE5 SHL DUP3 MSTORE DUP1 PUSH1 0x4 DUP4 ADD MSTORE PUSH1 0x24 DUP3 ADD MSTORE PUSH32 0x537472696E67733A20686578206C656E67746820696E73756666696369656E74 PUSH1 0x44 DUP3 ADD MSTORE REVERT JUMPDEST SWAP1 SWAP2 SWAP3 PUSH1 0xF DUP2 AND PUSH1 0x10 DUP2 LT ISZERO PUSH2 0x439E JUMPI PUSH16 0x181899199A1A9B1B9C1CB0B131B232B3 PUSH1 0x81 SHL SWAP1 BYTE PUSH2 0x4374 DUP6 DUP9 PUSH2 0x53D2 JUMP JUMPDEST MSTORE8 PUSH1 0x4 SHR SWAP3 DUP1 ISZERO PUSH2 0x438A JUMPI PUSH1 0x0 NOT ADD SWAP2 SWAP1 PUSH2 0x4294 JUMP JUMPDEST PUSH4 0x4E487B71 PUSH1 0xE0 SHL DUP3 MSTORE PUSH1 0x11 PUSH1 0x4 MSTORE PUSH1 0x24 DUP3 REVERT JUMPDEST PUSH4 0x4E487B71 PUSH1 0xE0 SHL DUP4 MSTORE PUSH1 0x32 PUSH1 0x4 MSTORE PUSH1 0x24 DUP4 REVERT JUMPDEST PUSH4 0x4E487B71 PUSH1 0xE0 SHL DUP2 MSTORE PUSH1 0x32 PUSH1 0x4 MSTORE PUSH1 0x24 SWAP1 REVERT JUMPDEST CALLER PUSH1 0x0 SWAP1 DUP2 MSTORE PUSH32 0xCA3346AB0194374A9830C2A0A931880B81826FF6372CE38DE14898A43CD3D160 PUSH1 0x20 SWAP1 DUP2 MSTORE PUSH1 0x40 DUP1 DUP4 KECCAK256 SLOAD SWAP1 SWAP3 SWAP1 PUSH32 0xCAB5A0BFE0B79D2C4B1C2E02599FA044D115B7511F9659307CB4276950967709 SWAP1 PUSH1 0xFF AND ISZERO PUSH2 0x442B JUMPI POP POP POP POP JUMP JUMPDEST PUSH2 0x4434 CALLER PUSH2 0x53E3 JUMP JUMPDEST DUP5 MLOAD SWAP2 PUSH2 0x4440 DUP4 PUSH2 0x3EDF JUMP JUMPDEST PUSH1 0x42 DUP4 MSTORE DUP5 DUP4 ADD SWAP4 PUSH1 0x60 CALLDATASIZE DUP7 CALLDATACOPY DUP4 MLOAD ISZERO PUSH2 0x43B2 JUMPI PUSH1 0x30 DUP6 MSTORE8 DUP4 MLOAD SWAP1 PUSH1 0x1 SWAP2 DUP3 LT ISZERO PUSH2 0x43B2 JUMPI SWAP1 PUSH1 0x78 PUSH1 0x21 DUP7 ADD MSTORE8 PUSH1 0x41 SWAP2 JUMPDEST DUP2 DUP4 GT PUSH2 0x44BA JUMPI POP POP POP PUSH2 0x4302 JUMPI PUSH2 0x1AA5 SWAP4 DUP6 SWAP4 PUSH2 0x42EC SWAP4 PUSH2 0x42DD PUSH1 0x48 SWAP5 PUSH2 0x1AF1 SWAP10 MLOAD SWAP9 DUP6 PUSH1 0x0 DUP1 MLOAD PUSH1 0x20 PUSH2 0x5D95 DUP4 CODECOPY DUP2 MLOAD SWAP2 MSTORE DUP12 SWAP8 DUP9 ADD MSTORE DUP3 MLOAD SWAP3 DUP4 SWAP2 PUSH1 0x37 DUP10 ADD SWAP2 ADD PUSH2 0x3D72 JUMP JUMPDEST SWAP1 SWAP2 SWAP3 PUSH1 0xF DUP2 AND PUSH1 0x10 DUP2 LT ISZERO PUSH2 0x439E JUMPI PUSH16 0x181899199A1A9B1B9C1CB0B131B232B3 PUSH1 0x81 SHL SWAP1 BYTE PUSH2 0x44EA DUP6 DUP9 PUSH2 0x53D2 JUMP JUMPDEST MSTORE8 PUSH1 0x4 SHR SWAP3 DUP1 ISZERO PUSH2 0x438A JUMPI PUSH1 0x0 NOT ADD SWAP2 SWAP1 PUSH2 0x4471 JUMP JUMPDEST CALLER PUSH1 0x0 SWAP1 DUP2 MSTORE PUSH32 0xAD02CA31225C1E77B97240FAE26F6EFE4C4DFC9DBE77F7A176AC7A45A4E1B805 PUSH1 0x20 SWAP1 DUP2 MSTORE PUSH1 0x40 DUP1 DUP4 KECCAK256 SLOAD SWAP1 SWAP3 SWAP1 PUSH32 0x9F2DF0FED2C77648DE5860A4CC508CD0818C85B8B8A1AB4CEEEF8D981C8956A6 SWAP1 PUSH1 0xFF AND ISZERO PUSH2 0x4565 JUMPI POP POP POP POP JUMP JUMPDEST PUSH2 0x456E CALLER PUSH2 0x53E3 JUMP JUMPDEST DUP5 MLOAD SWAP2 PUSH2 0x457A DUP4 PUSH2 0x3EDF JUMP JUMPDEST PUSH1 0x42 DUP4 MSTORE DUP5 DUP4 ADD SWAP4 PUSH1 0x60 CALLDATASIZE DUP7 CALLDATACOPY DUP4 MLOAD ISZERO PUSH2 0x43B2 JUMPI PUSH1 0x30 DUP6 MSTORE8 DUP4 MLOAD SWAP1 PUSH1 0x1 SWAP2 DUP3 LT ISZERO PUSH2 0x43B2 JUMPI SWAP1 PUSH1 0x78 PUSH1 0x21 DUP7 ADD MSTORE8 PUSH1 0x41 SWAP2 JUMPDEST DUP2 DUP4 GT PUSH2 0x45F4 JUMPI POP POP POP PUSH2 0x4302 JUMPI PUSH2 0x1AA5 SWAP4 DUP6 SWAP4 PUSH2 0x42EC SWAP4 PUSH2 0x42DD PUSH1 0x48 SWAP5 PUSH2 0x1AF1 SWAP10 MLOAD SWAP9 DUP6 PUSH1 0x0 DUP1 MLOAD PUSH1 0x20 PUSH2 0x5D95 DUP4 CODECOPY DUP2 MLOAD SWAP2 MSTORE DUP12 SWAP8 DUP9 ADD MSTORE DUP3 MLOAD SWAP3 DUP4 SWAP2 PUSH1 0x37 DUP10 ADD SWAP2 ADD PUSH2 0x3D72 JUMP JUMPDEST SWAP1 SWAP2 SWAP3 PUSH1 0xF DUP2 AND PUSH1 0x10 DUP2 LT ISZERO PUSH2 0x439E JUMPI PUSH16 0x181899199A1A9B1B9C1CB0B131B232B3 PUSH1 0x81 SHL SWAP1 BYTE PUSH2 0x4624 DUP6 DUP9 PUSH2 0x53D2 JUMP JUMPDEST MSTORE8 PUSH1 0x4 SHR SWAP3 DUP1 ISZERO PUSH2 0x438A JUMPI PUSH1 0x0 NOT ADD SWAP2 SWAP1 PUSH2 0x45AB JUMP JUMPDEST CALLER PUSH1 0x0 SWAP1 DUP2 MSTORE PUSH32 0x2F0A9CC3579D9A1B82746FEC99ED9E27B3C9D44E220D80B4B64711A402F0C075 PUSH1 0x20 SWAP1 DUP2 MSTORE PUSH1 0x40 DUP1 DUP4 KECCAK256 SLOAD SWAP1 SWAP3 SWAP1 PUSH32 0x3C11D16CBAFFD01DF69CE1C404F6340EE057498F5F00246190EA54220576A848 SWAP1 PUSH1 0xFF AND ISZERO PUSH2 0x469F JUMPI POP POP POP POP JUMP JUMPDEST PUSH2 0x46A8 CALLER PUSH2 0x53E3 JUMP JUMPDEST DUP5 MLOAD SWAP2 PUSH2 0x46B4 DUP4 PUSH2 0x3EDF JUMP JUMPDEST PUSH1 0x42 DUP4 MSTORE DUP5 DUP4 ADD SWAP4 PUSH1 0x60 CALLDATASIZE DUP7 CALLDATACOPY DUP4 MLOAD ISZERO PUSH2 0x43B2 JUMPI PUSH1 0x30 DUP6 MSTORE8 DUP4 MLOAD SWAP1 PUSH1 0x1 SWAP2 DUP3 LT ISZERO PUSH2 0x43B2 JUMPI SWAP1 PUSH1 0x78 PUSH1 0x21 DUP7 ADD MSTORE8 PUSH1 0x41 SWAP2 JUMPDEST DUP2 DUP4 GT PUSH2 0x472E JUMPI POP POP POP PUSH2 0x4302 JUMPI PUSH2 0x1AA5 SWAP4 DUP6 SWAP4 PUSH2 0x42EC SWAP4 PUSH2 0x42DD PUSH1 0x48 SWAP5 PUSH2 0x1AF1 SWAP10 MLOAD SWAP9 DUP6 PUSH1 0x0 DUP1 MLOAD PUSH1 0x20 PUSH2 0x5D95 DUP4 CODECOPY DUP2 MLOAD SWAP2 MSTORE DUP12 SWAP8 DUP9 ADD MSTORE DUP3 MLOAD SWAP3 DUP4 SWAP2 PUSH1 0x37 DUP10 ADD SWAP2 ADD PUSH2 0x3D72 JUMP JUMPDEST SWAP1 SWAP2 SWAP3 PUSH1 0xF DUP2 AND PUSH1 0x10 DUP2 LT ISZERO PUSH2 0x439E JUMPI PUSH16 0x181899199A1A9B1B9C1CB0B131B232B3 PUSH1 0x81 SHL SWAP1 BYTE PUSH2 0x475E DUP6 DUP9 PUSH2 0x53D2 JUMP JUMPDEST MSTORE8 PUSH1 0x4 SHR SWAP3 DUP1 ISZERO PUSH2 0x438A JUMPI PUSH1 0x0 NOT ADD SWAP2 SWAP1 PUSH2 0x46E5 JUMP JUMPDEST CALLER PUSH1 0x0 SWAP1 DUP2 MSTORE PUSH32 0x87ABF7B738B5B0F23B2E555EB56721F20406FE4AEC0B75C67590E223BFF8712C PUSH1 0x20 SWAP1 DUP2 MSTORE PUSH1 0x40 DUP1 DUP4 KECCAK256 SLOAD SWAP1 SWAP3 SWAP1 PUSH32 0x442A94F1A1FAC79AF32856AF2A64F63648CFA2EF3B98610A5BB7CBEC4CEE6985 SWAP1 PUSH1 0xFF AND ISZERO PUSH2 0x47D9 JUMPI POP POP POP POP JUMP JUMPDEST PUSH2 0x47E2 CALLER PUSH2 0x53E3 JUMP JUMPDEST DUP5 MLOAD SWAP2 PUSH2 0x47EE DUP4 PUSH2 0x3EDF JUMP JUMPDEST PUSH1 0x42 DUP4 MSTORE DUP5 DUP4 ADD SWAP4 PUSH1 0x60 CALLDATASIZE DUP7 CALLDATACOPY DUP4 MLOAD ISZERO PUSH2 0x43B2 JUMPI PUSH1 0x30 DUP6 MSTORE8 DUP4 MLOAD SWAP1 PUSH1 0x1 SWAP2 DUP3 LT ISZERO PUSH2 0x43B2 JUMPI SWAP1 PUSH1 0x78 PUSH1 0x21 DUP7 ADD MSTORE8 PUSH1 0x41 SWAP2 JUMPDEST DUP2 DUP4 GT PUSH2 0x4868 JUMPI POP POP POP PUSH2 0x4302 JUMPI PUSH2 0x1AA5 SWAP4 DUP6 SWAP4 PUSH2 0x42EC SWAP4 PUSH2 0x42DD PUSH1 0x48 SWAP5 PUSH2 0x1AF1 SWAP10 MLOAD SWAP9 DUP6 PUSH1 0x0 DUP1 MLOAD PUSH1 0x20 PUSH2 0x5D95 DUP4 CODECOPY DUP2 MLOAD SWAP2 MSTORE DUP12 SWAP8 DUP9 ADD MSTORE DUP3 MLOAD SWAP3 DUP4 SWAP2 PUSH1 0x37 DUP10 ADD SWAP2 ADD PUSH2 0x3D72 JUMP JUMPDEST SWAP1 SWAP2 SWAP3 PUSH1 0xF DUP2 AND PUSH1 0x10 DUP2 LT ISZERO PUSH2 0x439E JUMPI PUSH16 0x181899199A1A9B1B9C1CB0B131B232B3 PUSH1 0x81 SHL SWAP1 BYTE PUSH2 0x4898 DUP6 DUP9 PUSH2 0x53D2 JUMP JUMPDEST MSTORE8 PUSH1 0x4 SHR SWAP3 DUP1 ISZERO PUSH2 0x438A JUMPI PUSH1 0x0 NOT ADD SWAP2 SWAP1 PUSH2 0x481F JUMP JUMPDEST PUSH1 0x0 DUP2 DUP2 MSTORE PUSH1 0x20 SWAP1 PUSH2 0x12D DUP3 MSTORE PUSH1 0x40 SWAP3 DUP4 DUP3 KECCAK256 CALLER DUP4 MSTORE DUP4 MSTORE PUSH1 0xFF DUP5 DUP4 KECCAK256 SLOAD AND ISZERO PUSH2 0x48D8 JUMPI POP POP POP POP JUMP JUMPDEST PUSH2 0x48E1 CALLER PUSH2 0x53E3 JUMP JUMPDEST DUP5 MLOAD SWAP2 PUSH2 0x48ED DUP4 PUSH2 0x3EDF JUMP JUMPDEST PUSH1 0x42 DUP4 MSTORE DUP5 DUP4 ADD SWAP4 PUSH1 0x60 CALLDATASIZE DUP7 CALLDATACOPY DUP4 MLOAD ISZERO PUSH2 0x43B2 JUMPI PUSH1 0x30 DUP6 MSTORE8 DUP4 MLOAD SWAP1 PUSH1 0x1 SWAP2 DUP3 LT ISZERO PUSH2 0x43B2 JUMPI SWAP1 PUSH1 0x78 PUSH1 0x21 DUP7 ADD MSTORE8 PUSH1 0x41 SWAP2 JUMPDEST DUP2 DUP4 GT PUSH2 0x4967 JUMPI POP POP POP PUSH2 0x4302 JUMPI PUSH2 0x1AA5 SWAP4 DUP6 SWAP4 PUSH2 0x42EC SWAP4 PUSH2 0x42DD PUSH1 0x48 SWAP5 PUSH2 0x1AF1 SWAP10 MLOAD SWAP9 DUP6 PUSH1 0x0 DUP1 MLOAD PUSH1 0x20 PUSH2 0x5D95 DUP4 CODECOPY DUP2 MLOAD SWAP2 MSTORE DUP12 SWAP8 DUP9 ADD MSTORE DUP3 MLOAD SWAP3 DUP4 SWAP2 PUSH1 0x37 DUP10 ADD SWAP2 ADD PUSH2 0x3D72 JUMP JUMPDEST SWAP1 SWAP2 SWAP3 PUSH1 0xF DUP2 AND PUSH1 0x10 DUP2 LT ISZERO PUSH2 0x439E JUMPI PUSH16 0x181899199A1A9B1B9C1CB0B131B232B3 PUSH1 0x81 SHL SWAP1 BYTE PUSH2 0x4997 DUP6 DUP9 PUSH2 0x53D2 JUMP JUMPDEST MSTORE8 PUSH1 0x4 SHR SWAP3 DUP1 ISZERO PUSH2 0x438A JUMPI PUSH1 0x0 NOT ADD SWAP2 SWAP1 PUSH2 0x491E JUMP JUMPDEST SWAP1 PUSH1 0x0 SWAP2 DUP1 DUP4 MSTORE PUSH2 0x12D DUP1 PUSH1 0x20 MSTORE PUSH1 0x40 DUP5 KECCAK256 SWAP3 PUSH1 0x1 DUP1 PUSH1 0xA0 SHL SUB AND SWAP3 DUP4 DUP6 MSTORE PUSH1 0x20 MSTORE PUSH1 0xFF PUSH1 0x40 DUP6 KECCAK256 SLOAD AND PUSH2 0x49E1 JUMPI POP POP POP POP JUMP JUMPDEST DUP2 DUP5 MSTORE PUSH1 0x20 MSTORE PUSH1 0x40 DUP4 KECCAK256 DUP3 DUP5 MSTORE PUSH1 0x20 MSTORE PUSH1 0x40 DUP4 KECCAK256 PUSH1 0xFF NOT DUP2 SLOAD AND SWAP1 SSTORE PUSH32 0xF6391F5C32D9C69D2A47EA670B442974B53935D1EDC7FD64EB21E047A839171B CALLER SWAP4 DUP1 LOG4 CODESIZE DUP1 DUP1 DUP1 PUSH2 0x4143 JUMP JUMPDEST ISZERO PUSH2 0x4A32 JUMPI JUMP JUMPDEST PUSH1 0x40 MLOAD PUSH3 0x461BCD PUSH1 0xE5 SHL DUP2 MSTORE PUSH1 0x20 PUSH1 0x4 DUP3 ADD MSTORE PUSH1 0x2C PUSH1 0x24 DUP3 ADD MSTORE PUSH32 0x46756E6374696F6E206D7573742062652063616C6C6564207468726F75676820 PUSH1 0x44 DUP3 ADD MSTORE PUSH12 0x19195B1959D85D1958D85B1B PUSH1 0xA2 SHL PUSH1 0x64 DUP3 ADD MSTORE PUSH1 0x84 SWAP1 REVERT JUMPDEST ISZERO PUSH2 0x4A93 JUMPI JUMP JUMPDEST PUSH1 0x40 MLOAD PUSH3 0x461BCD PUSH1 0xE5 SHL DUP2 MSTORE PUSH1 0x20 PUSH1 0x4 DUP3 ADD MSTORE PUSH1 0x2C PUSH1 0x24 DUP3 ADD MSTORE PUSH32 0x46756E6374696F6E206D7573742062652063616C6C6564207468726F75676820 PUSH1 0x44 DUP3 ADD MSTORE PUSH12 0x6163746976652070726F7879 PUSH1 0xA0 SHL PUSH1 0x64 DUP3 ADD MSTORE PUSH1 0x84 SWAP1 REVERT JUMPDEST DUP1 EXTCODESIZE ISZERO PUSH2 0x4B22 JUMPI PUSH1 0x0 DUP1 MLOAD PUSH1 0x20 PUSH2 0x5DD5 DUP4 CODECOPY DUP2 MLOAD SWAP2 MSTORE DUP1 SLOAD PUSH1 0x1 PUSH1 0x1 PUSH1 0xA0 SHL SUB NOT AND PUSH1 0x1 PUSH1 0x1 PUSH1 0xA0 SHL SUB SWAP1 SWAP3 AND SWAP2 SWAP1 SWAP2 OR SWAP1 SSTORE JUMP JUMPDEST PUSH1 0x40 MLOAD PUSH3 0x461BCD PUSH1 0xE5 SHL DUP2 MSTORE PUSH1 0x20 PUSH1 0x4 DUP3 ADD MSTORE PUSH1 0x2D PUSH1 0x24 DUP3 ADD MSTORE PUSH32 0x455243313936373A206E657720696D706C656D656E746174696F6E206973206E PUSH1 0x44 DUP3 ADD MSTORE PUSH13 0x1BDD08184818DBDB9D1C9858DD PUSH1 0x9A SHL PUSH1 0x64 DUP3 ADD MSTORE PUSH1 0x84 SWAP1 REVERT JUMPDEST SWAP2 SWAP1 DUP3 ADD DUP1 SWAP3 GT PUSH2 0x4B8A JUMPI JUMP JUMPDEST PUSH4 0x4E487B71 PUSH1 0xE0 SHL PUSH1 0x0 MSTORE PUSH1 0x11 PUSH1 0x4 MSTORE PUSH1 0x24 PUSH1 0x0 REVERT JUMPDEST PUSH1 0x1 PUSH1 0x1 PUSH1 0xA0 SHL SUB DUP1 DUP3 AND SWAP5 SWAP4 SWAP1 SWAP3 SWAP1 SWAP2 SWAP1 DUP6 ISZERO PUSH2 0x4ED4 JUMPI DUP4 DUP2 AND SWAP4 DUP5 ISZERO PUSH2 0x4E83 JUMPI PUSH1 0x0 SWAP7 DUP1 DUP9 MSTORE PUSH2 0x1FD SWAP6 PUSH1 0x20 SWAP2 DUP8 DUP4 MSTORE PUSH1 0x40 SWAP8 PUSH1 0xFF DUP10 DUP13 KECCAK256 SLOAD AND PUSH2 0x4E72 JUMPI DUP3 DUP12 MSTORE DUP4 MSTORE PUSH1 0xFF DUP9 DUP12 KECCAK256 SLOAD AND PUSH2 0x4E61 JUMPI DUP1 DUP11 MSTORE PUSH1 0x33 DUP4 MSTORE PUSH2 0x4C0D DUP9 DUP12 KECCAK256 SLOAD PUSH2 0x1FE DUP6 MSTORE DUP10 DUP13 KECCAK256 SLOAD SWAP1 PUSH2 0x5251 JUMP JUMPDEST DUP8 GT PUSH2 0x4E50 JUMPI PUSH2 0x4C1C DUP7 PUSH2 0x580F JUMP JUMPDEST ISZERO PUSH2 0x4E3F JUMPI PUSH2 0x4C2A DUP6 PUSH2 0x580F JUMP JUMPDEST ISZERO PUSH2 0x4E3F JUMPI PUSH2 0x1F5 DUP1 SLOAD DUP10 MLOAD PUSH4 0x72331C73 PUSH1 0xE1 SHL DUP2 MSTORE PUSH1 0x1 PUSH1 0x1 PUSH1 0xA0 SHL SUB DUP10 DUP2 AND PUSH1 0x4 DUP4 ADD MSTORE DUP9 AND PUSH1 0x24 DUP3 ADD MSTORE PUSH1 0x44 DUP2 ADD DUP11 SWAP1 MSTORE SWAP2 SWAP5 SWAP2 SWAP1 DUP3 SWAP1 DUP3 SWAP1 PUSH1 0x64 SWAP1 DUP3 SWAP1 DUP11 AND GAS STATICCALL SWAP1 DUP2 ISZERO PUSH2 0x4E35 JUMPI DUP13 SWAP2 PUSH2 0x4E18 JUMPI JUMPDEST POP ISZERO PUSH2 0x4E07 JUMPI PUSH1 0xFF PUSH1 0x65 SLOAD AND PUSH2 0x4DB1 JUMPI PUSH2 0x4C96 DUP8 PUSH2 0x5C40 JUMP JUMPDEST PUSH2 0x4C9F DUP7 PUSH2 0x5C40 JUMP JUMPDEST DUP2 DUP12 MSTORE PUSH1 0x33 DUP2 MSTORE DUP9 DUP12 KECCAK256 SLOAD DUP9 DUP2 LT PUSH2 0x4D5E JUMPI SWAP1 DUP9 PUSH32 0xDDF252AD1BE2C89B69C2B068FC378DAA952BA7F163C4A11628F55A4DF523B3EF SWAP3 DUP5 DUP15 MSTORE PUSH1 0x33 DUP4 MSTORE SUB DUP11 DUP14 KECCAK256 SSTORE DUP4 DUP13 MSTORE DUP10 DUP13 KECCAK256 DUP10 DUP2 SLOAD ADD SWAP1 SSTORE DUP10 MLOAD DUP10 DUP2 MSTORE LOG3 SLOAD AND SWAP2 DUP3 EXTCODESIZE ISZERO PUSH2 0x2D3A JUMPI DUP5 MLOAD PUSH4 0x22EBCA6D PUSH1 0xE2 SHL DUP2 MSTORE PUSH1 0x1 PUSH1 0x1 PUSH1 0xA0 SHL SUB SWAP2 DUP3 AND PUSH1 0x4 DUP3 ADD MSTORE SWAP2 AND PUSH1 0x24 DUP3 ADD MSTORE PUSH1 0x44 DUP2 ADD SWAP3 SWAP1 SWAP3 MSTORE SWAP3 SWAP4 SWAP1 SWAP3 DUP2 SWAP1 DUP5 SWAP1 PUSH1 0x64 SWAP1 DUP3 SWAP1 DUP5 SWAP1 GAS CALL SWAP2 DUP3 ISZERO PUSH2 0x4D54 JUMPI POP POP PUSH2 0x4D49 JUMPI POP JUMP JUMPDEST PUSH2 0x4D52 SWAP1 PUSH2 0x3F10 JUMP JUMPDEST JUMP JUMPDEST MLOAD SWAP1 RETURNDATASIZE SWAP1 DUP3 RETURNDATACOPY RETURNDATASIZE SWAP1 REVERT JUMPDEST DUP10 MLOAD PUSH3 0x461BCD PUSH1 0xE5 SHL DUP2 MSTORE PUSH1 0x4 DUP2 ADD DUP4 SWAP1 MSTORE PUSH1 0x26 PUSH1 0x24 DUP3 ADD MSTORE PUSH32 0x45524332303A207472616E7366657220616D6F756E7420657863656564732062 PUSH1 0x44 DUP3 ADD MSTORE PUSH6 0x616C616E6365 PUSH1 0xD0 SHL PUSH1 0x64 DUP3 ADD MSTORE PUSH1 0x84 SWAP1 REVERT JUMPDEST PUSH1 0x84 SWAP1 DUP10 MLOAD SWAP1 PUSH3 0x461BCD PUSH1 0xE5 SHL DUP3 MSTORE PUSH1 0x4 DUP3 ADD MSTORE PUSH1 0x2A PUSH1 0x24 DUP3 ADD MSTORE PUSH32 0x45524332305061757361626C653A20746F6B656E207472616E73666572207768 PUSH1 0x44 DUP3 ADD MSTORE PUSH10 0x1A5B19481C185D5CD959 PUSH1 0xB2 SHL PUSH1 0x64 DUP3 ADD MSTORE REVERT JUMPDEST DUP9 MLOAD PUSH4 0x10A151F5 PUSH1 0xE0 SHL DUP2 MSTORE PUSH1 0x4 SWAP1 REVERT JUMPDEST PUSH2 0x4E2F SWAP2 POP DUP3 RETURNDATASIZE DUP5 GT PUSH2 0x17F8 JUMPI PUSH2 0x17EA DUP2 DUP4 PUSH2 0x3F3E JUMP JUMPDEST CODESIZE PUSH2 0x4C7D JUMP JUMPDEST DUP11 MLOAD RETURNDATASIZE DUP15 DUP3 RETURNDATACOPY RETURNDATASIZE SWAP1 REVERT JUMPDEST DUP8 MLOAD PUSH4 0x174A0BA5 PUSH1 0xE3 SHL DUP2 MSTORE PUSH1 0x4 SWAP1 REVERT JUMPDEST DUP8 MLOAD PUSH4 0x11ACC28F PUSH1 0xE0 SHL DUP2 MSTORE PUSH1 0x4 SWAP1 REVERT JUMPDEST DUP8 MLOAD PUSH4 0x28D329B7 PUSH1 0xE1 SHL DUP2 MSTORE PUSH1 0x4 SWAP1 REVERT JUMPDEST DUP9 MLOAD PUSH4 0x28D329B7 PUSH1 0xE1 SHL DUP2 MSTORE PUSH1 0x4 SWAP1 REVERT JUMPDEST PUSH1 0x40 MLOAD PUSH3 0x461BCD PUSH1 0xE5 SHL DUP2 MSTORE PUSH1 0x20 PUSH1 0x4 DUP3 ADD MSTORE PUSH1 0x23 PUSH1 0x24 DUP3 ADD MSTORE PUSH32 0x45524332303A207472616E7366657220746F20746865207A65726F2061646472 PUSH1 0x44 DUP3 ADD MSTORE PUSH3 0x657373 PUSH1 0xE8 SHL PUSH1 0x64 DUP3 ADD MSTORE PUSH1 0x84 SWAP1 REVERT JUMPDEST PUSH1 0x40 MLOAD PUSH3 0x461BCD PUSH1 0xE5 SHL DUP2 MSTORE PUSH1 0x20 PUSH1 0x4 DUP3 ADD MSTORE PUSH1 0x25 PUSH1 0x24 DUP3 ADD MSTORE PUSH32 0x45524332303A207472616E736665722066726F6D20746865207A65726F206164 PUSH1 0x44 DUP3 ADD MSTORE PUSH5 0x6472657373 PUSH1 0xD8 SHL PUSH1 0x64 DUP3 ADD MSTORE PUSH1 0x84 SWAP1 REVERT JUMPDEST PUSH1 0x1 PUSH1 0x1 PUSH1 0xA0 SHL SUB SWAP1 DUP2 AND SWAP2 DUP3 ISZERO PUSH2 0x4FD8 JUMPI AND SWAP2 DUP3 ISZERO PUSH2 0x4F88 JUMPI PUSH1 0x20 PUSH32 0x8C5BE1E5EBEC7D5BD14F71427D1E84F3DD0314C0F7B2291E5B200AC8C7C3B925 SWAP2 DUP4 PUSH1 0x0 MSTORE PUSH1 0x34 DUP3 MSTORE PUSH1 0x40 PUSH1 0x0 KECCAK256 DUP6 PUSH1 0x0 MSTORE DUP3 MSTORE DUP1 PUSH1 0x40 PUSH1 0x0 KECCAK256 SSTORE PUSH1 0x40 MLOAD SWAP1 DUP2 MSTORE LOG3 JUMP JUMPDEST PUSH1 0x40 MLOAD PUSH3 0x461BCD PUSH1 0xE5 SHL DUP2 MSTORE PUSH1 0x20 PUSH1 0x4 DUP3 ADD MSTORE PUSH1 0x22 PUSH1 0x24 DUP3 ADD MSTORE PUSH32 0x45524332303A20617070726F766520746F20746865207A65726F206164647265 PUSH1 0x44 DUP3 ADD MSTORE PUSH2 0x7373 PUSH1 0xF0 SHL PUSH1 0x64 DUP3 ADD MSTORE PUSH1 0x84 SWAP1 REVERT JUMPDEST PUSH1 0x40 MLOAD PUSH3 0x461BCD PUSH1 0xE5 SHL DUP2 MSTORE PUSH1 0x20 PUSH1 0x4 DUP3 ADD MSTORE PUSH1 0x24 DUP1 DUP3 ADD MSTORE PUSH32 0x45524332303A20617070726F76652066726F6D20746865207A65726F20616464 PUSH1 0x44 DUP3 ADD MSTORE PUSH4 0x72657373 PUSH1 0xE0 SHL PUSH1 0x64 DUP3 ADD MSTORE PUSH1 0x84 SWAP1 REVERT JUMPDEST PUSH1 0xCB SLOAD DUP2 LT ISZERO PUSH2 0x5060 JUMPI PUSH1 0xCB PUSH1 0x0 MSTORE PUSH32 0xA7CE836D032B2BF62B7E2097A8E0A6D8AEB35405AD15271E96D3B0188A1D06FB ADD SWAP1 PUSH1 0x0 SWAP1 JUMP JUMPDEST PUSH4 0x4E487B71 PUSH1 0xE0 SHL PUSH1 0x0 MSTORE PUSH1 0x32 PUSH1 0x4 MSTORE PUSH1 0x24 PUSH1 0x0 REVERT JUMPDEST PUSH1 0xCA SLOAD DUP2 LT ISZERO PUSH2 0x5060 JUMPI PUSH1 0xCA PUSH1 0x0 MSTORE PUSH32 0x42D72674974F694B5F5159593243114D38A5C39C89D6B62FEE061FF523240EE1 ADD SWAP1 PUSH1 0x0 SWAP1 JUMP JUMPDEST DUP1 SLOAD DUP3 LT ISZERO PUSH2 0x5060 JUMPI PUSH1 0x0 MSTORE PUSH1 0x20 PUSH1 0x0 KECCAK256 ADD SWAP1 PUSH1 0x0 SWAP1 JUMP JUMPDEST DUP1 ISZERO PUSH2 0x514B JUMPI PUSH1 0xCC SLOAD DUP2 GT PUSH2 0x5106 JUMPI PUSH2 0x50DD SWAP1 PUSH2 0x525E JUMP JUMPDEST PUSH1 0xCA SLOAD DUP2 SUB PUSH2 0x50EF JUMPI POP PUSH1 0x0 SWAP1 PUSH1 0x0 SWAP1 JUMP JUMPDEST PUSH2 0x50F8 SWAP1 PUSH2 0x5029 JUMP JUMPDEST SWAP1 SLOAD SWAP1 PUSH1 0x3 SHL SHR SWAP1 PUSH1 0x1 SWAP2 SWAP1 JUMP JUMPDEST PUSH1 0x40 MLOAD PUSH3 0x461BCD PUSH1 0xE5 SHL DUP2 MSTORE PUSH1 0x20 PUSH1 0x4 DUP3 ADD MSTORE PUSH1 0x1D PUSH1 0x24 DUP3 ADD MSTORE PUSH32 0x4552433230536E617073686F743A206E6F6E6578697374656E74206964000000 PUSH1 0x44 DUP3 ADD MSTORE PUSH1 0x64 SWAP1 REVERT JUMPDEST PUSH1 0x40 MLOAD PUSH3 0x461BCD PUSH1 0xE5 SHL DUP2 MSTORE PUSH1 0x20 PUSH1 0x4 DUP3 ADD MSTORE PUSH1 0x16 PUSH1 0x24 DUP3 ADD MSTORE PUSH22 0x4552433230536E617073686F743A206964206973203 PUSH1 0x54 SHL PUSH1 0x44 DUP3 ADD MSTORE PUSH1 0x64 SWAP1 REVERT JUMPDEST DUP1 ISZERO PUSH2 0x514B JUMPI PUSH1 0xCC SLOAD DUP2 GT PUSH2 0x5106 JUMPI PUSH2 0x51A2 SWAP1 DUP3 PUSH2 0x5338 JUMP JUMPDEST DUP2 SLOAD DUP2 SUB PUSH2 0x51B4 JUMPI POP POP PUSH1 0x0 SWAP1 PUSH1 0x0 SWAP1 JUMP JUMPDEST PUSH1 0x1 PUSH2 0x50F8 SWAP3 ADD PUSH2 0x50AD JUMP JUMPDEST SWAP2 SWAP3 SWAP1 ISZERO PUSH2 0x5222 JUMPI POP DUP2 MLOAD ISZERO PUSH2 0x51D4 JUMPI POP SWAP1 JUMP JUMPDEST EXTCODESIZE ISZERO PUSH2 0x51DD JUMPI SWAP1 JUMP JUMPDEST PUSH1 0x40 MLOAD PUSH3 0x461BCD PUSH1 0xE5 SHL DUP2 MSTORE PUSH1 0x20 PUSH1 0x4 DUP3 ADD MSTORE PUSH1 0x1D PUSH1 0x24 DUP3 ADD MSTORE PUSH32 0x416464726573733A2063616C6C20746F206E6F6E2D636F6E7472616374000000 PUSH1 0x44 DUP3 ADD MSTORE PUSH1 0x64 SWAP1 REVERT JUMPDEST DUP3 MLOAD SWAP1 SWAP2 POP ISZERO PUSH2 0x5235 JUMPI POP DUP1 MLOAD SWAP1 PUSH1 0x20 ADD REVERT JUMPDEST PUSH1 0x40 MLOAD PUSH3 0x461BCD PUSH1 0xE5 SHL DUP2 MSTORE SWAP1 DUP2 SWAP1 PUSH2 0x1AF1 SWAP1 PUSH1 0x4 DUP4 ADD PUSH2 0x3D95 JUMP JUMPDEST SWAP2 SWAP1 DUP3 SUB SWAP2 DUP3 GT PUSH2 0x4B8A JUMPI JUMP JUMPDEST PUSH1 0xCA DUP1 SLOAD SWAP2 DUP3 ISZERO PUSH2 0x5330 JUMPI PUSH1 0x0 SWAP3 JUMPDEST DUP1 DUP5 LT PUSH2 0x52D2 JUMPI POP DUP3 ISZERO ISZERO SWAP2 DUP3 PUSH2 0x5295 JUMPI JUMPDEST POP POP ISZERO PUSH2 0x4208 JUMPI PUSH1 0x0 NOT DUP2 ADD SWAP1 DUP2 GT PUSH2 0x4B8A JUMPI SWAP1 JUMP JUMPDEST SWAP1 SWAP2 POP DUP3 PUSH1 0x0 NOT DUP2 ADD GT PUSH2 0x4B8A JUMPI PUSH1 0x0 MSTORE PUSH32 0x42D72674974F694B5F5159593243114D38A5C39C89D6B62FEE061FF523240EE0 DUP3 ADD SLOAD EQ CODESIZE DUP1 PUSH2 0x527F JUMP JUMPDEST PUSH1 0x1 SWAP1 PUSH2 0x52E5 DUP2 DUP7 XOR DUP4 SHR DUP3 DUP8 AND PUSH2 0x4B7D JUMP JUMPDEST SWAP2 DUP5 PUSH1 0x0 MSTORE DUP4 DUP4 PUSH32 0x42D72674974F694B5F5159593243114D38A5C39C89D6B62FEE061FF523240EE1 ADD SLOAD GT PUSH1 0x0 EQ PUSH2 0x531E JUMPI POP POP PUSH2 0x526D JUMP JUMPDEST SWAP1 SWAP5 POP DUP2 ADD DUP1 SWAP2 GT PUSH2 0x4B8A JUMPI SWAP3 PUSH2 0x526D JUMP JUMPDEST POP POP POP PUSH1 0x0 SWAP1 JUMP JUMPDEST DUP1 SLOAD SWAP2 DUP3 ISZERO PUSH2 0x5330 JUMPI PUSH1 0x0 SWAP3 JUMPDEST DUP1 DUP5 LT PUSH2 0x5390 JUMPI POP DUP3 ISZERO ISZERO SWAP2 DUP3 PUSH2 0x536C JUMPI POP POP ISZERO PUSH2 0x4208 JUMPI PUSH1 0x0 NOT DUP2 ADD SWAP1 DUP2 GT PUSH2 0x4B8A JUMPI SWAP1 JUMP JUMPDEST SWAP1 SWAP2 POP PUSH1 0x0 NOT SWAP1 DUP4 DUP3 DUP2 ADD GT PUSH2 0x4B8A JUMPI PUSH1 0x0 MSTORE DUP3 PUSH1 0x20 PUSH1 0x0 KECCAK256 ADD ADD SLOAD EQ CODESIZE DUP1 PUSH2 0x527F JUMP JUMPDEST PUSH1 0x1 SWAP1 PUSH2 0x53A3 DUP2 DUP7 XOR DUP4 SHR DUP3 DUP8 AND PUSH2 0x4B7D JUMP JUMPDEST SWAP2 DUP5 PUSH1 0x0 MSTORE DUP4 DUP4 PUSH1 0x20 PUSH1 0x0 KECCAK256 ADD SLOAD GT PUSH1 0x0 EQ PUSH2 0x53C0 JUMPI POP POP PUSH2 0x5345 JUMP JUMPDEST SWAP1 SWAP5 POP DUP2 ADD DUP1 SWAP2 GT PUSH2 0x4B8A JUMPI SWAP3 PUSH2 0x5345 JUMP JUMPDEST SWAP1 DUP2 MLOAD DUP2 LT ISZERO PUSH2 0x5060 JUMPI ADD PUSH1 0x20 ADD SWAP1 JUMP JUMPDEST PUSH1 0x40 MLOAD SWAP1 PUSH2 0x53F0 DUP3 PUSH2 0x3F23 JUMP JUMPDEST PUSH1 0x2A DUP3 MSTORE PUSH1 0x20 DUP3 ADD PUSH1 0x40 CALLDATASIZE DUP3 CALLDATACOPY DUP3 MLOAD ISZERO PUSH2 0x5060 JUMPI PUSH1 0x30 SWAP1 MSTORE8 DUP2 MLOAD PUSH1 0x1 SWAP1 DUP2 LT ISZERO PUSH2 0x5060 JUMPI PUSH1 0x78 PUSH1 0x21 DUP5 ADD MSTORE8 PUSH1 0x29 SWAP1 JUMPDEST DUP1 DUP3 GT PUSH2 0x5473 JUMPI POP POP PUSH2 0x542F JUMPI SWAP1 JUMP JUMPDEST PUSH1 0x64 PUSH1 0x40 MLOAD PUSH3 0x461BCD PUSH1 0xE5 SHL DUP2 MSTORE PUSH1 0x20 PUSH1 0x4 DUP3 ADD MSTORE PUSH1 0x20 PUSH1 0x24 DUP3 ADD MSTORE PUSH32 0x537472696E67733A20686578206C656E67746820696E73756666696369656E74 PUSH1 0x44 DUP3 ADD MSTORE REVERT JUMPDEST SWAP1 SWAP2 PUSH1 0xF DUP2 AND PUSH1 0x10 DUP2 LT ISZERO PUSH2 0x54CC JUMPI PUSH16 0x181899199A1A9B1B9C1CB0B131B232B3 PUSH1 0x81 SHL SWAP1 BYTE PUSH2 0x54A2 DUP5 DUP7 PUSH2 0x53D2 JUMP JUMPDEST MSTORE8 PUSH1 0x4 SHR SWAP2 DUP1 ISZERO PUSH2 0x54B7 JUMPI PUSH1 0x0 NOT ADD SWAP1 PUSH2 0x541F JUMP JUMPDEST PUSH1 0x24 PUSH1 0x0 PUSH4 0x4E487B71 PUSH1 0xE0 SHL DUP2 MSTORE PUSH1 0x11 PUSH1 0x4 MSTORE REVERT JUMPDEST PUSH1 0x24 PUSH1 0x0 PUSH4 0x4E487B71 PUSH1 0xE0 SHL DUP2 MSTORE PUSH1 0x32 PUSH1 0x4 MSTORE REVERT JUMPDEST DUP2 DUP2 LT PUSH2 0x54EC JUMPI POP POP JUMP JUMPDEST PUSH1 0x0 DUP2 SSTORE PUSH1 0x1 ADD PUSH2 0x54E1 JUMP JUMPDEST ISZERO PUSH2 0x54FF JUMPI JUMP JUMPDEST PUSH1 0x40 MLOAD PUSH3 0x461BCD PUSH1 0xE5 SHL DUP2 MSTORE PUSH1 0x20 PUSH1 0x4 DUP3 ADD MSTORE PUSH1 0x2B PUSH1 0x24 DUP3 ADD MSTORE PUSH32 0x496E697469616C697A61626C653A20636F6E7472616374206973206E6F742069 PUSH1 0x44 DUP3 ADD MSTORE PUSH11 0x6E697469616C697A696E67 PUSH1 0xA8 SHL PUSH1 0x64 DUP3 ADD MSTORE PUSH1 0x84 SWAP1 REVERT JUMPDEST PUSH1 0xFF PUSH1 0x65 SLOAD AND PUSH2 0x5564 JUMPI JUMP JUMPDEST PUSH1 0x40 MLOAD PUSH3 0x461BCD PUSH1 0xE5 SHL DUP2 MSTORE PUSH1 0x20 PUSH1 0x4 DUP3 ADD MSTORE PUSH1 0x10 PUSH1 0x24 DUP3 ADD MSTORE PUSH16 0x14185D5CD8589B194E881C185D5CD959 PUSH1 0x82 SHL PUSH1 0x44 DUP3 ADD MSTORE PUSH1 0x64 SWAP1 REVERT JUMPDEST PUSH1 0x0 NOT DUP2 EQ PUSH2 0x4B8A JUMPI PUSH1 0x1 ADD SWAP1 JUMP JUMPDEST SWAP2 SWAP1 DUP2 LT ISZERO PUSH2 0x5060 JUMPI PUSH1 0x5 SHL ADD SWAP1 JUMP JUMPDEST CALLDATALOAD PUSH1 0x1 PUSH1 0x1 PUSH1 0xA0 SHL SUB DUP2 AND DUP2 SUB PUSH2 0xEB6 JUMPI SWAP1 JUMP JUMPDEST CALLDATALOAD PUSH1 0xFF DUP2 AND DUP2 SUB PUSH2 0xEB6 JUMPI SWAP1 JUMP JUMPDEST CALLDATALOAD PUSH2 0xFFFF DUP2 AND DUP2 SUB PUSH2 0xEB6 JUMPI SWAP1 JUMP JUMPDEST SWAP1 CALLDATALOAD SWAP1 PUSH1 0x1E NOT DUP2 CALLDATASIZE SUB ADD DUP3 SLT ISZERO PUSH2 0xEB6 JUMPI ADD DUP1 CALLDATALOAD SWAP1 PUSH1 0x1 PUSH1 0x1 PUSH1 0x40 SHL SUB DUP3 GT PUSH2 0xEB6 JUMPI PUSH1 0x20 ADD SWAP2 DUP2 CALLDATASIZE SUB DUP4 SGT PUSH2 0xEB6 JUMPI JUMP JUMPDEST SWAP1 DUP2 PUSH1 0x20 SWAP2 SUB SLT PUSH2 0xEB6 JUMPI MLOAD DUP1 ISZERO ISZERO DUP2 SUB PUSH2 0xEB6 JUMPI SWAP1 JUMP JUMPDEST SWAP1 DUP1 PUSH1 0x20 SWAP4 SWAP3 DUP2 DUP5 MSTORE DUP5 DUP5 ADD CALLDATACOPY PUSH1 0x0 DUP3 DUP3 ADD DUP5 ADD MSTORE PUSH1 0x1F ADD PUSH1 0x1F NOT AND ADD ADD SWAP1 JUMP JUMPDEST SWAP2 PUSH1 0xA0 SWAP4 PUSH1 0xFF PUSH2 0xFFFF SWAP3 PUSH2 0x4208 SWAP10 SWAP8 SWAP5 PUSH1 0x1 DUP1 DUP10 SHL SUB AND DUP7 MSTORE AND PUSH1 0x20 DUP6 ADD MSTORE AND PUSH1 0x40 DUP4 ADD MSTORE PUSH1 0x60 DUP3 ADD MSTORE DUP2 PUSH1 0x80 DUP3 ADD MSTORE ADD SWAP2 PUSH2 0x5636 JUMP JUMPDEST PUSH2 0x1F6 SLOAD SWAP1 SWAP2 PUSH1 0x1 PUSH1 0x1 PUSH1 0xA0 SHL SUB SWAP2 DUP3 AND SWAP2 SWAP1 PUSH2 0x56AA DUP2 PUSH2 0x55CF JUMP JUMPDEST SWAP1 PUSH1 0x20 SWAP5 DUP6 DUP3 ADD SWAP4 PUSH2 0x56F7 DUP8 PUSH2 0x56BF DUP8 PUSH2 0x55DD JUMP JUMPDEST SWAP6 PUSH1 0x40 SWAP9 DUP10 DUP8 ADD CALLDATALOAD SWAP8 DUP9 SWAP3 PUSH2 0x56D7 PUSH1 0x60 DUP11 ADD DUP11 PUSH2 0x55EC JUMP JUMPDEST DUP14 MLOAD PUSH4 0x1DA96125 PUSH1 0xE1 SHL DUP2 MSTORE SWAP8 DUP9 SWAP7 DUP8 SWAP6 DUP7 SWAP6 SWAP3 SWAP5 SWAP3 DUP14 PUSH1 0x4 DUP9 ADD PUSH2 0x5657 JUMP JUMPDEST SUB SWAP2 GAS STATICCALL SWAP1 DUP2 ISZERO PUSH2 0x5804 JUMPI PUSH1 0x0 SWAP2 PUSH2 0x57E7 JUMPI JUMPDEST POP ISZERO PUSH2 0x57D6 JUMPI TIMESTAMP DUP5 LT PUSH2 0x57C5 JUMPI PUSH2 0x34CE DUP4 DUP7 PUSH1 0x2 DUP10 SWAP9 SWAP8 SWAP6 PUSH2 0x34D4 SWAP6 PUSH32 0xED42ED2983F8437A9D3A38E7D50ABC7050716D3AB29FF7F5A6B268533A3F55B9 SWAP12 PUSH2 0xFFFF DUP15 PUSH1 0xFF PUSH2 0x5763 PUSH2 0x575D PUSH2 0x57C0 SWAP15 PUSH2 0x55CF JUMP JUMPDEST SWAP9 PUSH2 0x55DD JUMP JUMPDEST SWAP4 MLOAD SWAP8 PUSH2 0x576F DUP10 PUSH2 0x3EDF JUMP JUMPDEST AND DUP8 MSTORE DUP7 ADD SWAP2 AND DUP2 MSTORE PUSH2 0x1FF DUP13 DUP7 ADD SWAP3 DUP11 DUP5 MSTORE PUSH1 0x60 DUP8 ADD SWAP5 TIMESTAMP DUP7 MSTORE AND SWAP15 DUP16 PUSH1 0x0 MSTORE MSTORE PUSH1 0xFF DUP13 PUSH1 0x0 KECCAK256 SWAP6 MLOAD AND PUSH3 0xFFFF00 DUP7 SLOAD SWAP3 MLOAD PUSH1 0x8 SHL AND SWAP2 PUSH3 0xFFFFFF NOT AND OR OR DUP5 SSTORE MLOAD PUSH1 0x1 DUP5 ADD SSTORE MLOAD SWAP2 ADD SSTORE PUSH2 0x55CF JUMP JUMPDEST SUB SWAP1 LOG2 JUMP JUMPDEST DUP6 MLOAD PUSH4 0x4973D8D5 PUSH1 0xE1 SHL DUP2 MSTORE PUSH1 0x4 SWAP1 REVERT JUMPDEST DUP6 MLOAD PUSH4 0x249D7771 PUSH1 0xE2 SHL DUP2 MSTORE PUSH1 0x4 SWAP1 REVERT JUMPDEST PUSH2 0x57FE SWAP2 POP DUP9 RETURNDATASIZE DUP11 GT PUSH2 0x17F8 JUMPI PUSH2 0x17EA DUP2 DUP4 PUSH2 0x3F3E JUMP JUMPDEST CODESIZE PUSH2 0x570A JUMP JUMPDEST DUP8 MLOAD RETURNDATASIZE PUSH1 0x0 DUP3 RETURNDATACOPY RETURNDATASIZE SWAP1 REVERT JUMPDEST PUSH1 0xFF PUSH2 0x203 SLOAD AND ISZERO PUSH2 0x5897 JUMPI PUSH1 0x1 PUSH1 0x1 PUSH1 0xA0 SHL SUB AND PUSH1 0x0 SWAP1 DUP2 MSTORE PUSH2 0x1FF PUSH1 0x20 MSTORE PUSH1 0x40 DUP2 KECCAK256 PUSH1 0x2 DUP2 ADD SLOAD DUP1 ISZERO PUSH2 0x5892 JUMPI PUSH2 0x202 SLOAD PUSH2 0x584B SWAP2 PUSH2 0x4B7D JUMP JUMPDEST TIMESTAMP GT PUSH2 0x588E JUMPI PUSH1 0x1 DUP2 ADD SLOAD TIMESTAMP GT PUSH2 0x588E JUMPI SLOAD PUSH1 0xFF PUSH2 0x200 SLOAD AND PUSH1 0xFF DUP3 AND LT PUSH2 0x588E JUMPI PUSH1 0x8 SHR PUSH2 0xFFFF AND DUP2 MSTORE PUSH2 0x201 PUSH1 0x20 MSTORE PUSH1 0x40 DUP2 KECCAK256 SLOAD PUSH1 0xFF AND PUSH2 0x4208 JUMPI POP PUSH1 0x1 SWAP1 JUMP JUMPDEST POP SWAP1 JUMP JUMPDEST POP POP SWAP1 JUMP JUMPDEST POP PUSH1 0x1 SWAP1 JUMP JUMPDEST PUSH2 0x58B5 SWAP1 PUSH1 0x20 PUSH1 0x40 MLOAD SWAP3 DUP3 DUP5 DUP1 SWAP5 MLOAD SWAP4 DUP5 SWAP3 ADD PUSH2 0x3D72 JUMP JUMPDEST DUP2 ADD SUB SWAP1 KECCAK256 SWAP1 JUMP JUMPDEST CALLDATALOAD DUP1 ISZERO ISZERO DUP2 SUB PUSH2 0xEB6 JUMPI SWAP1 JUMP JUMPDEST PUSH1 0x1 PUSH1 0x1 PUSH1 0xA0 SHL SUB DUP2 AND SWAP2 DUP3 ISZERO PUSH2 0x599D JUMPI PUSH1 0xFF PUSH1 0x65 SLOAD AND PUSH2 0x5945 JUMPI PUSH1 0x20 PUSH32 0xDDF252AD1BE2C89B69C2B068FC378DAA952BA7F163C4A11628F55A4DF523B3EF SWAP2 PUSH2 0x5914 PUSH1 0x0 SWAP5 PUSH2 0x5C40 JUMP JUMPDEST PUSH2 0x591C PUSH2 0x5C8D JUMP JUMPDEST PUSH2 0x5928 DUP2 PUSH1 0x35 SLOAD PUSH2 0x4B7D JUMP JUMPDEST PUSH1 0x35 SSTORE DUP5 DUP5 MSTORE PUSH1 0x33 DUP3 MSTORE PUSH1 0x40 DUP5 KECCAK256 DUP2 DUP2 SLOAD ADD SWAP1 SSTORE PUSH1 0x40 MLOAD SWAP1 DUP2 MSTORE LOG3 JUMP JUMPDEST PUSH1 0x40 MLOAD PUSH3 0x461BCD PUSH1 0xE5 SHL DUP2 MSTORE PUSH1 0x20 PUSH1 0x4 DUP3 ADD MSTORE PUSH1 0x2A PUSH1 0x24 DUP3 ADD MSTORE PUSH32 0x45524332305061757361626C653A20746F6B656E207472616E73666572207768 PUSH1 0x44 DUP3 ADD MSTORE PUSH10 0x1A5B19481C185D5CD959 PUSH1 0xB2 SHL PUSH1 0x64 DUP3 ADD MSTORE PUSH1 0x84 SWAP1 REVERT JUMPDEST PUSH1 0x40 MLOAD PUSH3 0x461BCD PUSH1 0xE5 SHL DUP2 MSTORE PUSH1 0x20 PUSH1 0x4 DUP3 ADD MSTORE PUSH1 0x1F PUSH1 0x24 DUP3 ADD MSTORE PUSH32 0x45524332303A206D696E7420746F20746865207A65726F206164647265737300 PUSH1 0x44 DUP3 ADD MSTORE PUSH1 0x64 SWAP1 REVERT JUMPDEST PUSH1 0xFF PUSH2 0x203 SLOAD AND ISZERO PUSH2 0x5B14 JUMPI PUSH2 0x1F6 SLOAD PUSH1 0x1 PUSH1 0x1 PUSH1 0xA0 SHL SUB AND SWAP2 PUSH2 0x5A05 DUP2 PUSH2 0x55CF JUMP JUMPDEST PUSH1 0x20 DUP3 ADD SWAP3 PUSH1 0x20 PUSH2 0x5A15 DUP6 PUSH2 0x55DD JUMP JUMPDEST PUSH1 0x40 SWAP7 DUP8 DUP7 ADD CALLDATALOAD SWAP5 DUP6 SWAP5 PUSH2 0x5A4C PUSH2 0x5A2F PUSH1 0x60 DUP11 ADD DUP11 PUSH2 0x55EC JUMP JUMPDEST SWAP1 DUP13 MLOAD SWAP9 DUP10 SWAP8 DUP9 SWAP7 DUP8 SWAP7 PUSH4 0x1DA96125 PUSH1 0xE1 SHL DUP9 MSTORE PUSH1 0x4 DUP9 ADD PUSH2 0x5657 JUMP JUMPDEST SUB SWAP2 GAS STATICCALL SWAP1 DUP2 ISZERO PUSH2 0x5B09 JUMPI PUSH1 0x0 SWAP2 PUSH2 0x5AEB JUMPI JUMPDEST POP ISZERO PUSH2 0x5ADA JUMPI TIMESTAMP GT PUSH2 0x5AC9 JUMPI PUSH2 0x5A74 SWAP1 PUSH2 0x55CF JUMP JUMPDEST PUSH1 0xFF DUP1 PUSH2 0x200 SLOAD AND SWAP2 AND LT PUSH2 0x5AB8 JUMPI PUSH2 0x5A8F PUSH2 0xFFFF SWAP2 PUSH2 0x55DD JUMP JUMPDEST AND PUSH1 0x0 MSTORE PUSH2 0x201 PUSH1 0x20 MSTORE PUSH1 0xFF DUP2 PUSH1 0x0 KECCAK256 SLOAD AND PUSH2 0x5AA8 JUMPI POP JUMP JUMPDEST MLOAD PUSH4 0xA281120F PUSH1 0xE0 SHL DUP2 MSTORE PUSH1 0x4 SWAP1 REVERT JUMPDEST DUP2 MLOAD PUSH4 0x2CC37DF PUSH1 0xE5 SHL DUP2 MSTORE PUSH1 0x4 SWAP1 REVERT JUMPDEST DUP3 MLOAD PUSH4 0x4973D8D5 PUSH1 0xE1 SHL DUP2 MSTORE PUSH1 0x4 SWAP1 REVERT JUMPDEST DUP4 MLOAD PUSH4 0x249D7771 PUSH1 0xE2 SHL DUP2 MSTORE PUSH1 0x4 SWAP1 REVERT JUMPDEST PUSH2 0x5B03 SWAP2 POP PUSH1 0x20 RETURNDATASIZE DUP2 GT PUSH2 0x17F8 JUMPI PUSH2 0x17EA DUP2 DUP4 PUSH2 0x3F3E JUMP JUMPDEST CODESIZE PUSH2 0x5A5F JUMP JUMPDEST DUP6 MLOAD RETURNDATASIZE PUSH1 0x0 DUP3 RETURNDATACOPY RETURNDATASIZE SWAP1 REVERT JUMPDEST POP POP JUMP JUMPDEST PUSH1 0x1 PUSH1 0x1 PUSH1 0xA0 SHL SUB DUP2 AND SWAP1 DUP2 ISZERO PUSH2 0x5BF1 JUMPI PUSH1 0xFF PUSH1 0x65 SLOAD AND PUSH2 0x5945 JUMPI PUSH2 0x5B3C SWAP1 PUSH2 0x5C40 JUMP JUMPDEST PUSH2 0x5B44 PUSH2 0x5C8D JUMP JUMPDEST DUP1 PUSH1 0x0 MSTORE PUSH1 0x33 PUSH1 0x20 MSTORE PUSH1 0x40 PUSH1 0x0 KECCAK256 SLOAD SWAP2 DUP1 DUP4 LT PUSH2 0x5BA1 JUMPI PUSH1 0x20 DUP2 PUSH32 0xDDF252AD1BE2C89B69C2B068FC378DAA952BA7F163C4A11628F55A4DF523B3EF SWAP3 PUSH1 0x0 SWAP6 DUP6 DUP8 MSTORE PUSH1 0x33 DUP5 MSTORE SUB PUSH1 0x40 DUP7 KECCAK256 SSTORE DUP1 PUSH1 0x35 SLOAD SUB PUSH1 0x35 SSTORE PUSH1 0x40 MLOAD SWAP1 DUP2 MSTORE LOG3 JUMP JUMPDEST PUSH1 0x40 MLOAD PUSH3 0x461BCD PUSH1 0xE5 SHL DUP2 MSTORE PUSH1 0x20 PUSH1 0x4 DUP3 ADD MSTORE PUSH1 0x22 PUSH1 0x24 DUP3 ADD MSTORE PUSH32 0x45524332303A206275726E20616D6F756E7420657863656564732062616C616E PUSH1 0x44 DUP3 ADD MSTORE PUSH2 0x6365 PUSH1 0xF0 SHL PUSH1 0x64 DUP3 ADD MSTORE PUSH1 0x84 SWAP1 REVERT JUMPDEST PUSH1 0x40 MLOAD PUSH3 0x461BCD PUSH1 0xE5 SHL DUP2 MSTORE PUSH1 0x20 PUSH1 0x4 DUP3 ADD MSTORE PUSH1 0x21 PUSH1 0x24 DUP3 ADD MSTORE PUSH32 0x45524332303A206275726E2066726F6D20746865207A65726F20616464726573 PUSH1 0x44 DUP3 ADD MSTORE PUSH1 0x73 PUSH1 0xF8 SHL PUSH1 0x64 DUP3 ADD MSTORE PUSH1 0x84 SWAP1 REVERT JUMPDEST PUSH1 0x1 DUP1 PUSH1 0xA0 SHL SUB AND PUSH1 0x0 MSTORE PUSH1 0xC9 PUSH1 0x20 MSTORE PUSH1 0x40 PUSH1 0x0 KECCAK256 PUSH1 0x33 PUSH1 0x20 MSTORE PUSH1 0x40 PUSH1 0x0 KECCAK256 SLOAD PUSH1 0xCC SLOAD DUP1 PUSH2 0x5C6D DUP5 PUSH2 0x5D51 JUMP JUMPDEST LT PUSH2 0x5C77 JUMPI POP POP POP JUMP JUMPDEST DUP3 PUSH2 0x5C87 PUSH1 0x1 SWAP3 PUSH2 0x4D52 SWAP6 PUSH2 0x5D01 JUMP JUMPDEST ADD PUSH2 0x5D01 JUMP JUMPDEST PUSH1 0x35 SLOAD PUSH1 0xCC SLOAD SWAP1 DUP2 PUSH2 0x5C9D PUSH2 0x5D24 JUMP JUMPDEST LT PUSH2 0x5CA6 JUMPI POP POP JUMP JUMPDEST PUSH1 0xCA SLOAD PUSH1 0x1 PUSH1 0x40 SHL SWAP3 DUP4 DUP3 LT ISZERO PUSH2 0x3EFA JUMPI PUSH2 0x5CCA DUP3 PUSH1 0x1 PUSH2 0x5CE3 SWAP5 ADD PUSH1 0xCA SSTORE PUSH2 0x5076 JUMP JUMPDEST SWAP1 SWAP2 SWAP1 DUP3 SLOAD SWAP1 PUSH1 0x3 SHL SWAP2 DUP3 SHL SWAP2 PUSH1 0x0 NOT SWAP1 SHL NOT AND OR SWAP1 SSTORE JUMP JUMPDEST PUSH1 0xCB SLOAD SWAP2 DUP3 LT ISZERO PUSH2 0x3EFA JUMPI PUSH2 0x5CCA DUP3 PUSH1 0x1 PUSH2 0x4D52 SWAP5 ADD PUSH1 0xCB SSTORE PUSH2 0x5029 JUMP JUMPDEST SWAP1 DUP2 SLOAD SWAP2 PUSH1 0x1 PUSH1 0x40 SHL DUP4 LT ISZERO PUSH2 0x3EFA JUMPI DUP3 PUSH2 0x5CCA SWAP2 PUSH1 0x1 PUSH2 0x4D52 SWAP6 ADD DUP2 SSTORE PUSH2 0x50AD JUMP JUMPDEST PUSH1 0xCA SLOAD DUP1 PUSH2 0x5D32 JUMPI POP PUSH1 0x0 SWAP1 JUMP JUMPDEST PUSH1 0x0 NOT DUP2 ADD SWAP1 DUP2 GT PUSH2 0x4B8A JUMPI PUSH2 0x5D47 SWAP1 PUSH2 0x5076 JUMP JUMPDEST SWAP1 SLOAD SWAP1 PUSH1 0x3 SHL SHR SWAP1 JUMP JUMPDEST DUP1 SLOAD DUP1 PUSH2 0x5D5F JUMPI POP POP PUSH1 0x0 SWAP1 JUMP JUMPDEST PUSH1 0x0 NOT DUP2 ADD SWAP1 DUP2 GT PUSH2 0x4B8A JUMPI PUSH2 0x5D47 SWAP2 PUSH2 0x50AD JUMP INVALID 0x2F DUP8 DUP9 GT PUSH31 0x7EFF1D82E926EC794901D17C78024A50270940304540A733656F0D41636365 PUSH20 0x73436F6E74726F6C3A206163636F756E74200000 STOP STOP STOP STOP STOP STOP STOP EXTCODEHASH 0x2C SWAP14 JUMPI 0xC0 PUSH9 0x687834F0DE942A9BAB 0xB9 0xE5 0xAC 0xAB JUMPI 0xD5 AND 0xD3 BASEFEE EXP EXTCODECOPY AND 0xEE AND GAS TIMESTAMP PUSH20 0x360894A13BA1A3210667C828492DB98DCA3E2076 0xCC CALLDATACOPY CALLDATALOAD 0xA9 KECCAK256 LOG3 0xCA POP 0x5D CODESIZE 0x2B 0xBC LOG2 PUSH5 0x6970667358 0x22 SLT KECCAK256 PUSH9 0x5AC5B624681C149886 0xD4 0xB8 0x4A ADDRESS CALLVALUE 0xED PUSH5 0xF1ABB2590C 0xCD SWAP4 PUSH2 0x248A SIGNEXTEND 0xA5 0x4C EXTCODEHASH CALLDATACOPY PUSH5 0x736F6C6343 STOP ADDMOD EQ STOP CALLER "},"methodIdentifiers":{"AGENT_ROLE()":"22459e18","BURNER_ROLE()":"282c51f3","COMPLIANCE_ROLE()":"062d3bd7","DEFAULT_ADMIN_ROLE()":"a217fddf","MINTER_ROLE()":"d5391393","RECOVERY_ROLE()":"31993a1c","SNAPSHOT_ROLE()":"7028e2cd","allowance(address,address)":"dd62ed3e","approve(address,uint256)":"095ea7b3","balanceOf(address)":"70a08231","balanceOfAt(address,uint256)":"4ee2cd7e","batchBurn(address[],uint256[])":"4a6cc677","batchCacheKYC(address[],(uint8,uint16,uint256,bytes)[])":"30957ba8","batchForcedTransfer(address[],address[],uint256[])":"42a47abc","batchFreezePartialTokens(address[],uint256[])":"fc7e5fa8","batchMint(address[],uint256[])":"68573107","batchSetAddressFrozen(address[],bool[])":"1a7af379","batchUnfreezePartialTokens(address[],uint256[])":"4710362d","burn(address,uint256)":"9dc29fac","cacheKYC(address,(uint8,uint16,uint256,bytes))":"8446fae4","compliance()":"6290865d","decimals()":"313ce567","decreaseAllowance(address,uint256)":"a457c2d7","forcedTransfer(address,address,uint256)":"9fc1d0e7","freezePartialTokens(address,uint256)":"125c4a33","getCachedKYC(address)":"a1f8fb4c","getCurrentSnapshotId()":"5439ad86","getFrozenTokens(address)":"158b1a57","getKYCVerifier()":"b60da085","getRoleAdmin(bytes32)":"248a9ca3","getSnapshotBlock(uint256)":"16442f58","getUnfrozenBalance(address)":"2f750609","grantRole(bytes32,address)":"2f2ff15d","hasRole(bytes32,address)":"91d14854","increaseAllowance(address,uint256)":"39509351","initialize(string,string,address,address,address,uint256)":"edf3e29e","isCountryRestricted(uint16)":"bc4c8552","isFrozen(address)":"e5839836","isKYCValid(address)":"cf0e0f9d","isPaymentProcessed(string)":"149f2e88","kycCacheValidityDuration()":"0c848ed3","kycEnforced()":"a226e445","kycVerifier()":"b937e7cc","maxSupply()":"d5abeb01","minKYCLevel()":"c409e58b","mint(address,uint256)":"40c10f19","mintForOffChainPayment(address,uint256,string)":"d59b7e42","mintWithKYC(address,uint256,(uint8,uint16,uint256,bytes))":"31ac1a7a","name()":"06fdde03","onchainID()":"aba63705","pause()":"8456cb59","paused()":"5c975abb","proxiableUUID()":"52d1902d","recoveryAddress(address,address,address)":"9285948a","renounceRole(bytes32,address)":"36568abe","revokeRole(bytes32,address)":"d547741f","setAddressFrozen(address,bool)":"c69c09cf","setCompliance(address)":"f8981789","setCountryRestriction(uint16,bool)":"778af12b","setKYCCacheValidityDuration(uint256)":"6cf30d8c","setKYCEnforced(bool)":"8b3c4932","setKYCVerifier(address)":"d17f6417","setMaxSupply(uint256)":"6f8b44b0","setMinKYCLevel(uint8)":"0615f677","setName(string)":"c47f0027","setOnchainID(address)":"3d1ddc5b","setSymbol(string)":"b84c8246","snapshot()":"9711715a","supportsInterface(bytes4)":"01ffc9a7","symbol()":"95d89b41","totalSupply()":"18160ddd","totalSupplyAt(uint256)":"981b24d0","transfer(address,uint256)":"a9059cbb","transferFrom(address,address,uint256)":"23b872dd","unfreezePartialTokens(address,uint256)":"1fe56f7d","unpause()":"3f4ba83a","upgradeTo(address)":"3659cfe6","upgradeToAndCall(address,bytes)":"4f1ef286","version()":"54fd4d50"}},"storageLayout":{"storage":[{"astId":915,"contract":"contracts/core/RWASecurityToken.sol:RWASecurityToken","label":"_initialized","offset":0,"slot":"0","type":"t_uint8"},{"astId":918,"contract":"contracts/core/RWASecurityToken.sol:RWASecurityToken","label":"_initializing","offset":1,"slot":"0","type":"t_bool"},{"astId":3089,"contract":"contracts/core/RWASecurityToken.sol:RWASecurityToken","label":"__gap","offset":0,"slot":"1","type":"t_array(t_uint256)50_storage"},{"astId":1447,"contract":"contracts/core/RWASecurityToken.sol:RWASecurityToken","label":"_balances","offset":0,"slot":"51","type":"t_mapping(t_address,t_uint256)"},{"astId":1453,"contract":"contracts/core/RWASecurityToken.sol:RWASecurityToken","label":"_allowances","offset":0,"slot":"52","type":"t_mapping(t_address,t_mapping(t_address,t_uint256))"},{"astId":1455,"contract":"contracts/core/RWASecurityToken.sol:RWASecurityToken","label":"_totalSupply","offset":0,"slot":"53","type":"t_uint256"},{"astId":1457,"contract":"contracts/core/RWASecurityToken.sol:RWASecurityToken","label":"_name","offset":0,"slot":"54","type":"t_string_storage"},{"astId":1459,"contract":"contracts/core/RWASecurityToken.sol:RWASecurityToken","label":"_symbol","offset":0,"slot":"55","type":"t_string_storage"},{"astId":2039,"contract":"contracts/core/RWASecurityToken.sol:RWASecurityToken","label":"__gap","offset":0,"slot":"56","type":"t_array(t_uint256)45_storage"},{"astId":1236,"contract":"contracts/core/RWASecurityToken.sol:RWASecurityToken","label":"_paused","offset":0,"slot":"101","type":"t_bool"},{"astId":1341,"contract":"contracts/core/RWASecurityToken.sol:RWASecurityToken","label":"__gap","offset":0,"slot":"102","type":"t_array(t_uint256)49_storage"},{"astId":2178,"contract":"contracts/core/RWASecurityToken.sol:RWASecurityToken","label":"__gap","offset":0,"slot":"151","type":"t_array(t_uint256)50_storage"},{"astId":2211,"contract":"contracts/core/RWASecurityToken.sol:RWASecurityToken","label":"_accountBalanceSnapshots","offset":0,"slot":"201","type":"t_mapping(t_address,t_struct(Snapshots)2206_storage)"},{"astId":2214,"contract":"contracts/core/RWASecurityToken.sol:RWASecurityToken","label":"_totalSupplySnapshots","offset":0,"slot":"202","type":"t_struct(Snapshots)2206_storage"},{"astId":2217,"contract":"contracts/core/RWASecurityToken.sol:RWASecurityToken","label":"_currentSnapshotId","offset":0,"slot":"204","type":"t_struct(Counter)3096_storage"},{"astId":2527,"contract":"contracts/core/RWASecurityToken.sol:RWASecurityToken","label":"__gap","offset":0,"slot":"205","type":"t_array(t_uint256)46_storage"},{"astId":3547,"contract":"contracts/core/RWASecurityToken.sol:RWASecurityToken","label":"__gap","offset":0,"slot":"251","type":"t_array(t_uint256)50_storage"},{"astId":28,"contract":"contracts/core/RWASecurityToken.sol:RWASecurityToken","label":"_roles","offset":0,"slot":"301","type":"t_mapping(t_bytes32,t_struct(RoleData)23_storage)"},{"astId":335,"contract":"contracts/core/RWASecurityToken.sol:RWASecurityToken","label":"__gap","offset":0,"slot":"302","type":"t_array(t_uint256)49_storage"},{"astId":897,"contract":"contracts/core/RWASecurityToken.sol:RWASecurityToken","label":"__gap","offset":0,"slot":"351","type":"t_array(t_uint256)50_storage"},{"astId":1213,"contract":"contracts/core/RWASecurityToken.sol:RWASecurityToken","label":"__gap","offset":0,"slot":"401","type":"t_array(t_uint256)50_storage"},{"astId":1357,"contract":"contracts/core/RWASecurityToken.sol:RWASecurityToken","label":"_status","offset":0,"slot":"451","type":"t_uint256"},{"astId":1426,"contract":"contracts/core/RWASecurityToken.sol:RWASecurityToken","label":"__gap","offset":0,"slot":"452","type":"t_array(t_uint256)49_storage"},{"astId":5483,"contract":"contracts/core/RWASecurityToken.sol:RWASecurityToken","label":"compliance","offset":0,"slot":"501","type":"t_contract(IModularCompliance)7950"},{"astId":5486,"contract":"contracts/core/RWASecurityToken.sol:RWASecurityToken","label":"kycVerifier","offset":0,"slot":"502","type":"t_contract(IKYCVerifier)7854"},{"astId":5488,"contract":"contracts/core/RWASecurityToken.sol:RWASecurityToken","label":"maxSupply","offset":0,"slot":"503","type":"t_uint256"},{"astId":5490,"contract":"contracts/core/RWASecurityToken.sol:RWASecurityToken","label":"onchainID","offset":0,"slot":"504","type":"t_address"},{"astId":5492,"contract":"contracts/core/RWASecurityToken.sol:RWASecurityToken","label":"version","offset":0,"slot":"505","type":"t_string_storage"},{"astId":5496,"contract":"contracts/core/RWASecurityToken.sol:RWASecurityToken","label":"_snapshotBlocks","offset":0,"slot":"506","type":"t_mapping(t_uint256,t_uint256)"},{"astId":5498,"contract":"contracts/core/RWASecurityToken.sol:RWASecurityToken","label":"_currentSnapshotId","offset":0,"slot":"507","type":"t_uint256"},{"astId":5502,"contract":"contracts/core/RWASecurityToken.sol:RWASecurityToken","label":"_processedPaymentReferences","offset":0,"slot":"508","type":"t_mapping(t_string_memory_ptr,t_bool)"},{"astId":5506,"contract":"contracts/core/RWASecurityToken.sol:RWASecurityToken","label":"_frozen","offset":0,"slot":"509","type":"t_mapping(t_address,t_bool)"},{"astId":5510,"contract":"contracts/core/RWASecurityToken.sol:RWASecurityToken","label":"_frozenTokens","offset":0,"slot":"510","type":"t_mapping(t_address,t_uint256)"},{"astId":5515,"contract":"contracts/core/RWASecurityToken.sol:RWASecurityToken","label":"_cachedKYC","offset":0,"slot":"511","type":"t_mapping(t_address,t_struct(CachedKYC)5480_storage)"},{"astId":5517,"contract":"contracts/core/RWASecurityToken.sol:RWASecurityToken","label":"minKYCLevel","offset":0,"slot":"512","type":"t_uint8"},{"astId":5521,"contract":"contracts/core/RWASecurityToken.sol:RWASecurityToken","label":"_restrictedCountries","offset":0,"slot":"513","type":"t_mapping(t_uint16,t_bool)"},{"astId":5523,"contract":"contracts/core/RWASecurityToken.sol:RWASecurityToken","label":"kycCacheValidityDuration","offset":0,"slot":"514","type":"t_uint256"},{"astId":5525,"contract":"contracts/core/RWASecurityToken.sol:RWASecurityToken","label":"kycEnforced","offset":0,"slot":"515","type":"t_bool"}],"types":{"t_address":{"encoding":"inplace","label":"address","numberOfBytes":"20"},"t_array(t_uint256)45_storage":{"base":"t_uint256","encoding":"inplace","label":"uint256[45]","numberOfBytes":"1440"},"t_array(t_uint256)46_storage":{"base":"t_uint256","encoding":"inplace","label":"uint256[46]","numberOfBytes":"1472"},"t_array(t_uint256)49_storage":{"base":"t_uint256","encoding":"inplace","label":"uint256[49]","numberOfBytes":"1568"},"t_array(t_uint256)50_storage":{"base":"t_uint256","encoding":"inplace","label":"uint256[50]","numberOfBytes":"1600"},"t_array(t_uint256)dyn_storage":{"base":"t_uint256","encoding":"dynamic_array","label":"uint256[]","numberOfBytes":"32"},"t_bool":{"encoding":"inplace","label":"bool","numberOfBytes":"1"},"t_bytes32":{"encoding":"inplace","label":"bytes32","numberOfBytes":"32"},"t_contract(IKYCVerifier)7854":{"encoding":"inplace","label":"contract IKYCVerifier","numberOfBytes":"20"},"t_contract(IModularCompliance)7950":{"encoding":"inplace","label":"contract IModularCompliance","numberOfBytes":"20"},"t_mapping(t_address,t_bool)":{"encoding":"mapping","key":"t_address","label":"mapping(address => bool)","numberOfBytes":"32","value":"t_bool"},"t_mapping(t_address,t_mapping(t_address,t_uint256))":{"encoding":"mapping","key":"t_address","label":"mapping(address => mapping(address => uint256))","numberOfBytes":"32","value":"t_mapping(t_address,t_uint256)"},"t_mapping(t_address,t_struct(CachedKYC)5480_storage)":{"encoding":"mapping","key":"t_address","label":"mapping(address => struct RWASecurityToken.CachedKYC)","numberOfBytes":"32","value":"t_struct(CachedKYC)5480_storage"},"t_mapping(t_address,t_struct(Snapshots)2206_storage)":{"encoding":"mapping","key":"t_address","label":"mapping(address => struct ERC20SnapshotUpgradeable.Snapshots)","numberOfBytes":"32","value":"t_struct(Snapshots)2206_storage"},"t_mapping(t_address,t_uint256)":{"encoding":"mapping","key":"t_address","label":"mapping(address => uint256)","numberOfBytes":"32","value":"t_uint256"},"t_mapping(t_bytes32,t_struct(RoleData)23_storage)":{"encoding":"mapping","key":"t_bytes32","label":"mapping(bytes32 => struct AccessControlUpgradeable.RoleData)","numberOfBytes":"32","value":"t_struct(RoleData)23_storage"},"t_mapping(t_string_memory_ptr,t_bool)":{"encoding":"mapping","key":"t_string_memory_ptr","label":"mapping(string => bool)","numberOfBytes":"32","value":"t_bool"},"t_mapping(t_uint16,t_bool)":{"encoding":"mapping","key":"t_uint16","label":"mapping(uint16 => bool)","numberOfBytes":"32","value":"t_bool"},"t_mapping(t_uint256,t_uint256)":{"encoding":"mapping","key":"t_uint256","label":"mapping(uint256 => uint256)","numberOfBytes":"32","value":"t_uint256"},"t_string_memory_ptr":{"encoding":"bytes","label":"string","numberOfBytes":"32"},"t_string_storage":{"encoding":"bytes","label":"string","numberOfBytes":"32"},"t_struct(CachedKYC)5480_storage":{"encoding":"inplace","label":"struct RWASecurityToken.CachedKYC","members":[{"astId":5473,"contract":"contracts/core/RWASecurityToken.sol:RWASecurityToken","label":"level","offset":0,"slot":"0","type":"t_uint8"},{"astId":5475,"contract":"contracts/core/RWASecurityToken.sol:RWASecurityToken","label":"countryCode","offset":1,"slot":"0","type":"t_uint16"},{"astId":5477,"contract":"contracts/core/RWASecurityToken.sol:RWASecurityToken","label":"expiry","offset":0,"slot":"1","type":"t_uint256"},{"astId":5479,"contract":"contracts/core/RWASecurityToken.sol:RWASecurityToken","label":"cachedAt","offset":0,"slot":"2","type":"t_uint256"}],"numberOfBytes":"96"},"t_struct(Counter)3096_storage":{"encoding":"inplace","label":"struct CountersUpgradeable.Counter","members":[{"astId":3095,"contract":"contracts/core/RWASecurityToken.sol:RWASecurityToken","label":"_value","offset":0,"slot":"0","type":"t_uint256"}],"numberOfBytes":"32"},"t_struct(RoleData)23_storage":{"encoding":"inplace","label":"struct AccessControlUpgradeable.RoleData","members":[{"astId":20,"contract":"contracts/core/RWASecurityToken.sol:RWASecurityToken","label":"members","offset":0,"slot":"0","type":"t_mapping(t_address,t_bool)"},{"astId":22,"contract":"contracts/core/RWASecurityToken.sol:RWASecurityToken","label":"adminRole","offset":0,"slot":"1","type":"t_bytes32"}],"numberOfBytes":"64"},"t_struct(Snapshots)2206_storage":{"encoding":"inplace","label":"struct ERC20SnapshotUpgradeable.Snapshots","members":[{"astId":2202,"contract":"contracts/core/RWASecurityToken.sol:RWASecurityToken","label":"ids","offset":0,"slot":"0","type":"t_array(t_uint256)dyn_storage"},{"astId":2205,"contract":"contracts/core/RWASecurityToken.sol:RWASecurityToken","label":"values","offset":0,"slot":"1","type":"t_array(t_uint256)dyn_storage"}],"numberOfBytes":"64"},"t_uint16":{"encoding":"inplace","label":"uint16","numberOfBytes":"2"},"t_uint256":{"encoding":"inplace","label":"uint256","numberOfBytes":"32"},"t_uint8":{"encoding":"inplace","label":"uint8","numberOfBytes":"1"}}}}}}