{"contracts/KYCVerifier.sol":{"KYCVerifier":{"abi":[{"inputs":[],"stateMutability":"nonpayable","type":"constructor"},{"inputs":[],"name":"AlreadyRegistered","type":"error"},{"inputs":[],"name":"CountryRestricted","type":"error"},{"inputs":[],"name":"InsufficientFee","type":"error"},{"inputs":[],"name":"InvalidLevel","type":"error"},{"inputs":[],"name":"InvalidSignature","type":"error"},{"inputs":[],"name":"ProofExpired","type":"error"},{"inputs":[],"name":"TransferFailed","type":"error"},{"inputs":[],"name":"ZeroAddress","type":"error"},{"anonymous":false,"inputs":[{"indexed":false,"internalType":"address","name":"previousAdmin","type":"address"},{"indexed":false,"internalType":"address","name":"newAdmin","type":"address"}],"name":"AdminChanged","type":"event"},{"anonymous":false,"inputs":[{"indexed":true,"internalType":"address","name":"beacon","type":"address"}],"name":"BeaconUpgraded","type":"event"},{"anonymous":false,"inputs":[{"indexed":true,"internalType":"address","name":"oldRecipient","type":"address"},{"indexed":true,"internalType":"address","name":"newRecipient","type":"address"}],"name":"FeeRecipientUpdated","type":"event"},{"anonymous":false,"inputs":[{"indexed":true,"internalType":"address","name":"recipient","type":"address"},{"indexed":false,"internalType":"uint256","name":"amount","type":"uint256"}],"name":"FeesWithdrawn","type":"event"},{"anonymous":false,"inputs":[{"indexed":false,"internalType":"uint8","name":"version","type":"uint8"}],"name":"Initialized","type":"event"},{"anonymous":false,"inputs":[{"indexed":true,"internalType":"address","name":"previousOwner","type":"address"},{"indexed":true,"internalType":"address","name":"newOwner","type":"address"}],"name":"OwnershipTransferred","type":"event"},{"anonymous":false,"inputs":[{"indexed":false,"internalType":"address","name":"account","type":"address"}],"name":"Paused","type":"event"},{"anonymous":false,"inputs":[{"indexed":false,"internalType":"uint256","name":"oldFee","type":"uint256"},{"indexed":false,"internalType":"uint256","name":"newFee","type":"uint256"}],"name":"RegistrationFeeUpdated","type":"event"},{"anonymous":false,"inputs":[{"indexed":true,"internalType":"address","name":"oldSigner","type":"address"},{"indexed":true,"internalType":"address","name":"newSigner","type":"address"}],"name":"TrustedSignerUpdated","type":"event"},{"anonymous":false,"inputs":[{"indexed":false,"internalType":"address","name":"account","type":"address"}],"name":"Unpaused","type":"event"},{"anonymous":false,"inputs":[{"indexed":true,"internalType":"address","name":"implementation","type":"address"}],"name":"Upgraded","type":"event"},{"anonymous":false,"inputs":[{"indexed":true,"internalType":"address","name":"wallet","type":"address"},{"indexed":false,"internalType":"uint8","name":"level","type":"uint8"},{"indexed":false,"internalType":"uint16","name":"countryCode","type":"uint16"},{"indexed":false,"internalType":"uint256","name":"fee","type":"uint256"}],"name":"WalletRegistered","type":"event"},{"inputs":[],"name":"LEVEL_ACCREDITED","outputs":[{"internalType":"uint8","name":"","type":"uint8"}],"stateMutability":"view","type":"function"},{"inputs":[],"name":"LEVEL_BASIC","outputs":[{"internalType":"uint8","name":"","type":"uint8"}],"stateMutability":"view","type":"function"},{"inputs":[],"name":"LEVEL_INSTITUTIONAL","outputs":[{"internalType":"uint8","name":"","type":"uint8"}],"stateMutability":"view","type":"function"},{"inputs":[],"name":"LEVEL_NONE","outputs":[{"internalType":"uint8","name":"","type":"uint8"}],"stateMutability":"view","type":"function"},{"inputs":[],"name":"LEVEL_STANDARD","outputs":[{"internalType":"uint8","name":"","type":"uint8"}],"stateMutability":"view","type":"function"},{"inputs":[],"name":"domainSeparator","outputs":[{"internalType":"bytes32","name":"","type":"bytes32"}],"stateMutability":"view","type":"function"},{"inputs":[],"name":"emergencyWithdraw","outputs":[],"stateMutability":"nonpayable","type":"function"},{"inputs":[],"name":"feeRecipient","outputs":[{"internalType":"address","name":"","type":"address"}],"stateMutability":"view","type":"function"},{"inputs":[{"internalType":"address","name":"wallet","type":"address"}],"name":"getRegistrationInfo","outputs":[{"internalType":"bool","name":"registered","type":"bool"},{"internalType":"uint256","name":"registrationTime","type":"uint256"}],"stateMutability":"view","type":"function"},{"inputs":[{"internalType":"address","name":"_trustedSigner","type":"address"},{"internalType":"uint256","name":"_registrationFee","type":"uint256"},{"internalType":"address","name":"_feeRecipient","type":"address"}],"name":"initialize","outputs":[],"stateMutability":"nonpayable","type":"function"},{"inputs":[{"internalType":"address","name":"","type":"address"}],"name":"isRegistered","outputs":[{"internalType":"bool","name":"","type":"bool"}],"stateMutability":"view","type":"function"},{"inputs":[],"name":"owner","outputs":[{"internalType":"address","name":"","type":"address"}],"stateMutability":"view","type":"function"},{"inputs":[],"name":"pause","outputs":[],"stateMutability":"nonpayable","type":"function"},{"inputs":[],"name":"paused","outputs":[{"internalType":"bool","name":"","type":"bool"}],"stateMutability":"view","type":"function"},{"inputs":[],"name":"proxiableUUID","outputs":[{"internalType":"bytes32","name":"","type":"bytes32"}],"stateMutability":"view","type":"function"},{"inputs":[{"internalType":"uint8","name":"level","type":"uint8"},{"internalType":"uint16","name":"countryCode","type":"uint16"},{"internalType":"uint256","name":"expiry","type":"uint256"},{"internalType":"bytes","name":"signature","type":"bytes"}],"name":"registerWithProof","outputs":[],"stateMutability":"payable","type":"function"},{"inputs":[{"internalType":"address","name":"","type":"address"}],"name":"registeredAt","outputs":[{"internalType":"uint256","name":"","type":"uint256"}],"stateMutability":"view","type":"function"},{"inputs":[],"name":"registrationFee","outputs":[{"internalType":"uint256","name":"","type":"uint256"}],"stateMutability":"view","type":"function"},{"inputs":[],"name":"renounceOwnership","outputs":[],"stateMutability":"nonpayable","type":"function"},{"inputs":[{"internalType":"address","name":"_recipient","type":"address"}],"name":"setFeeRecipient","outputs":[],"stateMutability":"nonpayable","type":"function"},{"inputs":[{"internalType":"uint256","name":"_fee","type":"uint256"}],"name":"setRegistrationFee","outputs":[],"stateMutability":"nonpayable","type":"function"},{"inputs":[{"internalType":"address","name":"_trustedSigner","type":"address"}],"name":"setTrustedSigner","outputs":[],"stateMutability":"nonpayable","type":"function"},{"inputs":[],"name":"totalFeesCollected","outputs":[{"internalType":"uint256","name":"","type":"uint256"}],"stateMutability":"view","type":"function"},{"inputs":[{"internalType":"address","name":"newOwner","type":"address"}],"name":"transferOwnership","outputs":[],"stateMutability":"nonpayable","type":"function"},{"inputs":[],"name":"trustedSigner","outputs":[{"internalType":"address","name":"","type":"address"}],"stateMutability":"view","type":"function"},{"inputs":[],"name":"unpause","outputs":[],"stateMutability":"nonpayable","type":"function"},{"inputs":[{"internalType":"address","name":"newImplementation","type":"address"}],"name":"upgradeTo","outputs":[],"stateMutability":"nonpayable","type":"function"},{"inputs":[{"internalType":"address","name":"newImplementation","type":"address"},{"internalType":"bytes","name":"data","type":"bytes"}],"name":"upgradeToAndCall","outputs":[],"stateMutability":"payable","type":"function"},{"inputs":[{"internalType":"address","name":"wallet","type":"address"},{"internalType":"uint8","name":"level","type":"uint8"},{"internalType":"uint16","name":"countryCode","type":"uint16"},{"internalType":"uint256","name":"expiry","type":"uint256"},{"internalType":"bytes","name":"signature","type":"bytes"}],"name":"verify","outputs":[{"internalType":"bool","name":"","type":"bool"}],"stateMutability":"view","type":"function"},{"inputs":[{"internalType":"address","name":"wallet","type":"address"},{"internalType":"uint8","name":"level","type":"uint8"},{"internalType":"uint16","name":"countryCode","type":"uint16"},{"internalType":"uint256","name":"expiry","type":"uint256"},{"internalType":"bytes","name":"signature","type":"bytes"}],"name":"verifyOrRevert","outputs":[],"stateMutability":"view","type":"function"},{"inputs":[{"internalType":"address","name":"wallet","type":"address"},{"internalType":"uint8","name":"level","type":"uint8"},{"internalType":"uint16","name":"countryCode","type":"uint16"},{"internalType":"uint256","name":"expiry","type":"uint256"},{"internalType":"bytes","name":"signature","type":"bytes"},{"internalType":"uint8","name":"minLevel","type":"uint8"}],"name":"verifyWithMinLevel","outputs":[{"internalType":"bool","name":"","type":"bool"}],"stateMutability":"view","type":"function"},{"stateMutability":"payable","type":"receive"}],"evm":{"bytecode":{"linkReferences":{},"object":"60a080604052346100dc57306080526000549060ff8260081c1661008a575060ff8082160361004f575b604051611a2690816100e282396080518181816109f001528181610d0b015261107a0152f35b60ff90811916176000557f7f26b83ff96e1f2b6a682f133852f6798a09c465da95921460cefb3847402498602060405160ff8152a138610029565b62461bcd60e51b815260206004820152602760248201527f496e697469616c697a61626c653a20636f6e747261637420697320696e697469604482015266616c697a696e6760c81b6064820152608490fd5b600080fdfe6080604081815260049182361015610022575b505050361561002057600080fd5b005b600092833560e01c91826314c44e0914611332575081631545c238146112e75781631815c8eb146112cb5781631cf4135d1461124a5781633659cfe6146110525781633b52c24a146110275781633f4ba83a14610f915781634690484014610f675781634f1ef28614610c8f57816351696eaf14610a9d57816352d1902d146109da57816356a1c701146109655781635c975abb1461094157816360c6d8ae14610921578163715018a6146108c15781637b0240b1146108a55781638456cb591461084a5781638da5cb5b14610821578163a511c36714610806578163aaea3d9c146107cd578163c320c72714610777578163c350a1b514610438578163c3c5a547146103f9578163d285b081146103af578163d90fc8b114610392578163db2e21bc14610306578163e74b981b14610284578163f11db54414610268578163f2fde38b146101d257508063f698da25146101b35763f74d5480146101875780610012565b346101af57816003193601126101af5761012d5490516001600160a01b039091168152602090f35b5080fd5b50346101af57816003193601126101af57602090610133549051908152f35b905034610264576020366003190112610264576101ed61134f565b916101f66114a4565b6001600160a01b03831615610212578361020f846114fc565b80f35b906020608492519162461bcd60e51b8352820152602660248201527f4f776e61626c653a206e6577206f776e657220697320746865207a65726f206160448201526564647265737360d01b6064820152fd5b8280fd5b5050346101af57816003193601126101af576020905160038152f35b9050346102645760203660031901126102645761029f61134f565b906102a86114a4565b6001600160a01b039182169283156102f957505061012f80546001600160a01b031981168417909155167faaebcf1bfa00580e41d966056b48521fa9f202645c86d4ddf28113e617c1b1d38380a380f35b5163d92e233d60e01b8152fd5b9050346102645782600319360112610264576103206114a4565b47908161032b578380f35b60018060a01b0390848080808686603354165af1610347611697565b501561038457507fc0819c13be868895eb93e40eaceb96de976442fa1d404e5c55f14bb65a8c489a91602091603354169351908152a23880808380f35b83516312171d8360e31b8152fd5b919050346102645782600319360112610264576020925051908152f35b91905034610264576103cf6103c336611398565b9382969593919361183f565b156103eb5742116103de578280f35b5163b67a771360e01b8152fd5b5051638baa579f60e01b8152fd5b5050346101af5760203660031901126101af5760209160ff9082906001600160a01b0361042461134f565b168152610130855220541690519015158152f35b919050346102645760603660031901126102645761045461134f565b6044356001600160a01b0381811694909391602435908690036107735786549460ff8660081c161594858096610766575b801561074f575b156106f55760ff198781166001178a5596866106e4575b50169182156106d65786156106d657507f50b218c5a101ad05d53ab0a964d01da639ee79525ae4b7802ed714249740a8d59183916104f060ff8a5460081c166104eb8161179b565b61179b565b6104f9336114fc565b610502336114fc565b61053b89549760ff8960081c16906105198261179b565b6105228261179b565b61052b8261179b565b60c9541660c9556104eb8161179b565b600160fb556bffffffffffffffffffffffff60a01b61012d83828254161790558161012e558861012f918254161790556f292ba09025aca1902b32b934b334b2b960811b6020845161058c8161142e565b601081520152603160f81b602084516105a48161142e565b600181520152825160208101907f8b73c3c69bb8fe3d512ecc4cf759cc79239f7b179b0ffacaa9a75d522b39400f82527f9da7c91abead9378f96a96ea5f93a2fe3f9cad669db472a22e9bafce65e8e85b858201527fc89efdaa54c0f20c7adf612882df0950f5a951637e0307cdcb4c672f298b8bc660608201524660808201523060a082015260a081526106388161144a565b51902061013355825191897f4a297cf5d32586f80d2b0708a39d2da1f46e6ae7722171e1c51dfd685b5b8aa88180a38882526020820152a15192847faaebcf1bfa00580e41d966056b48521fa9f202645c86d4ddf28113e617c1b1d38180a361069f578280f35b61ff0019168255600181527f7f26b83ff96e1f2b6a682f133852f6798a09c465da95921460cefb384740249890602090a138808280f35b835163d92e233d60e01b8152fd5b61ffff1916610101178955386104a3565b845162461bcd60e51b8152602081860152602e60248201527f496e697469616c697a61626c653a20636f6e747261637420697320616c72656160448201526d191e481a5b9a5d1a585b1a5e995960921b6064820152608490fd5b50303b15801561048c5750600160ff88161461048c565b50600160ff881610610485565b8680fd5b91905034610264576020366003190112610264577f50b218c5a101ad05d53ab0a964d01da639ee79525ae4b7802ed714249740a8d591356107b66114a4565b61012e90808254925582519182526020820152a180f35b5050346101af5760203660031901126101af5760209181906001600160a01b036107f561134f565b168152610131845220549051908152f35b5050346101af57816003193601126101af5751908152602090f35b5050346101af57816003193601126101af5760335490516001600160a01b039091168152602090f35b5050346101af57816003193601126101af5760207f62e78cea01bee320cd4e420270b5ea74000d11b0c9f74754ebdbfc544b05a258916108886114a4565b6108906117fb565b600160ff1960c954161760c95551338152a180f35b5050346101af57816003193601126101af576020905160028152f35b833461091e578060031936011261091e576108da6114a4565b603380546001600160a01b0319811690915581906001600160a01b03167f8be0079c531659141344cd1fd0a4f28419497f9722a3daafe3b4186f6b6457e08280a380f35b80fd5b5050346101af57816003193601126101af57602090610132549051908152f35b5050346101af57816003193601126101af5760209060ff60c9541690519015158152f35b9050346102645760203660031901126102645761098061134f565b906109896114a4565b6001600160a01b039182169283156102f957505061012d80546001600160a01b031981168417909155167f4a297cf5d32586f80d2b0708a39d2da1f46e6ae7722171e1c51dfd685b5b8aa88380a380f35b9050823461091e578060031936011261091e57507f00000000000000000000000000000000000000000000000000000000000000006001600160a01b03163003610a3557602082516000805160206119d18339815191528152f35b6020608492519162461bcd60e51b8352820152603860248201527f555550535570677261646561626c653a206d757374206e6f742062652063616c60448201527f6c6564207468726f7567682064656c656761746563616c6c00000000000000006064820152fd5b919050608036600319011261026457813560ff811692838203610c8b5760243561ffff8116928382036107735760443560643567ffffffffffffffff8111610c8757610aec903690860161136a565b939092600260fb5414610c4457600260fb55610b066117fb565b61012e543410610c355788158015610c2c575b610c1c57428310610c0c5790610b32949392913361183f565b15610bfe57338552610130602052828520805460ff811615610be2575b5050610132805490348201809211610bcf5755848080803460018060a01b0361012f54165af1610b7d611697565b5015610bc157508151928352602083015234908201527f82e0101fdf4e5ee775f1f5d4cc59e423ba44e29c19ece412daf6d25933f79b3760603392a2600160fb5580f35b82516312171d8360e31b8152fd5b634e487b7160e01b875260118352602487fd5b60ff191660011790556101316020528285204290553880610b4f565b8251638baa579f60e01b8152fd5b875163b67a771360e01b81528690fd5b875163d1459f7960e01b81528690fd5b50858911610b19565b875162976f7560e21b81528690fd5b875162461bcd60e51b8152602081880152601f60248201527f5265656e7472616e637947756172643a207265656e7472616e742063616c6c006044820152606490fd5b8880fd5b8480fd5b9180915060031936011261026457610ca561134f565b906024359067ffffffffffffffff8211610c8b5736602383011215610c8b5781840135610cd181611488565b90610cde83519283611466565b80825286602094858401923660248284010111610264578060248893018537840101526001600160a01b037f0000000000000000000000000000000000000000000000000000000000000000811690610d3930831415611545565b610d566000805160206119d18339815191529282845416146115a6565b610d5e6114a4565b7f4910fdfa16fed3260ed0e7147f7cc6da11a60208b5b9406d12a635614ffd91435460ff1615610d985750505050505061020f9150611607565b8693949596169085516352d1902d60e01b815287818a81865afa8a9181610f34575b50610e1957865162461bcd60e51b8152808a01899052602e60248201527f45524331393637557067726164653a206e657720696d706c656d656e7461746960448201526d6f6e206973206e6f74205555505360901b6064820152608490fd5b9791929395949703610edf575090869291610e3385611607565b7fbc7cd75a20ee27fd9adebab32041f755214dbc6bffa90cc0225b39da2e5c2d3b8480a2855115801590610ed7575b610e70575b50505050505080f35b610ecb95660819985a5b195960ca1b837f416464726573733a206c6f772d6c6576656c2064656c65676174652063616c6c86955198610eae8a6113fc565b60278a528901528701525190845af4610ec5611697565b916116c7565b50388080838180610e67565b506001610e62565b835162461bcd60e51b8152908101869052602960248201527f45524331393637557067726164653a20756e737570706f727465642070726f786044820152681a58589b195555525160ba1b6064820152608490fd5b9091508881813d8311610f60575b610f4c8183611466565b81010312610f5c57519038610dba565b8a80fd5b503d610f42565b5050346101af57816003193601126101af5761012f5490516001600160a01b039091168152602090f35b905034610264578260031936011261026457610fab6114a4565b60c9549060ff821615610fed575060ff191660c955513381527f5db9ee0a495bf2e6ff9c91a7834c1ba4fdd244a5e8aa4e537bd38aeae4b073aa90602090a180f35b606490602084519162461bcd60e51b8352820152601460248201527314185d5cd8589b194e881b9bdd081c185d5cd95960621b6044820152fd5b5050346101af5760209061104961103d36611398565b9493909392919261183f565b90519015158152f35b91905034610264576020806003193601126112465761106f61134f565b916001600160a01b037f00000000000000000000000000000000000000000000000000000000000000008116906110a830831415611545565b6110c56000805160206119d18339815191529282845416146115a6565b6110cd6114a4565b8251918483019183831067ffffffffffffffff841117611233578285528884527f4910fdfa16fed3260ed0e7147f7cc6da11a60208b5b9406d12a635614ffd91435460ff16156111275750505050505061020f9150611607565b8693949596169085516352d1902d60e01b815287818a81865afa8a9181611204575b506111a857865162461bcd60e51b8152808a01899052602e60248201527f45524331393637557067726164653a206e657720696d706c656d656e7461746960448201526d6f6e206973206e6f74205555505360901b6064820152608490fd5b9791929395949703610edf5750908692916111c285611607565b7fbc7cd75a20ee27fd9adebab32041f755214dbc6bffa90cc0225b39da2e5c2d3b8480a28551158015906111fd57610e705750505050505080f35b5082610e62565b9091508881813d831161122c575b61121c8183611466565b81010312610f5c57519038611149565b503d611212565b634e487b7160e01b895260418852602489fd5b8380fd5b9050346102645760c03660031901126102645761126561134f565b6024359060ff82168203610c8b576044359261ffff841684036112c7576084359067ffffffffffffffff8211610773576112a19136910161136a565b93909260a4359660ff8816880361091e575091602096939161104995936064359261190f565b8580fd5b5050346101af57816003193601126101af576020905160018152f35b82843461091e57602036600319011261091e576001600160a01b0361130a61134f565b1681526101306020528160ff8183205416916101316020522054825191151582526020820152f35b8490346101af57816003193601126101af5760209061012e548152f35b600435906001600160a01b038216820361136557565b600080fd5b9181601f840112156113655782359167ffffffffffffffff8311611365576020838186019501011161136557565b60a0600319820112611365576004356001600160a01b0381168103611365579160243560ff81168103611365579160443561ffff811681036113655791606435916084359067ffffffffffffffff8211611365576113f89160040161136a565b9091565b6060810190811067ffffffffffffffff82111761141857604052565b634e487b7160e01b600052604160045260246000fd5b6040810190811067ffffffffffffffff82111761141857604052565b60c0810190811067ffffffffffffffff82111761141857604052565b90601f8019910116810190811067ffffffffffffffff82111761141857604052565b67ffffffffffffffff811161141857601f01601f191660200190565b6033546001600160a01b031633036114b857565b606460405162461bcd60e51b815260206004820152602060248201527f4f776e61626c653a2063616c6c6572206973206e6f7420746865206f776e65726044820152fd5b603380546001600160a01b039283166001600160a01b0319821681179092559091167f8be0079c531659141344cd1fd0a4f28419497f9722a3daafe3b4186f6b6457e0600080a3565b1561154c57565b60405162461bcd60e51b815260206004820152602c60248201527f46756e6374696f6e206d7573742062652063616c6c6564207468726f7567682060448201526b19195b1959d85d1958d85b1b60a21b6064820152608490fd5b156115ad57565b60405162461bcd60e51b815260206004820152602c60248201527f46756e6374696f6e206d7573742062652063616c6c6564207468726f7567682060448201526b6163746976652070726f787960a01b6064820152608490fd5b803b1561163c576000805160206119d183398151915280546001600160a01b0319166001600160a01b03909216919091179055565b60405162461bcd60e51b815260206004820152602d60248201527f455243313936373a206e657720696d706c656d656e746174696f6e206973206e60448201526c1bdd08184818dbdb9d1c9858dd609a1b6064820152608490fd5b3d156116c2573d906116a882611488565b916116b66040519384611466565b82523d6000602084013e565b606090565b9192901561172957508151156116db575090565b3b156116e45790565b60405162461bcd60e51b815260206004820152601d60248201527f416464726573733a2063616c6c20746f206e6f6e2d636f6e74726163740000006044820152606490fd5b82519091501561173c5750805190602001fd5b6040519062461bcd60e51b82528160208060048301528251908160248401526000935b828510611782575050604492506000838284010152601f80199101168101030190fd5b848101820151868601604401529381019385935061175f565b156117a257565b60405162461bcd60e51b815260206004820152602b60248201527f496e697469616c697a61626c653a20636f6e7472616374206973206e6f74206960448201526a6e697469616c697a696e6760a81b6064820152608490fd5b60ff60c9541661180757565b60405162461bcd60e51b815260206004820152601060248201526f14185d5cd8589b194e881c185d5cd95960821b6044820152606490fd5b94929190914281106119045761ffff6040519260ff60208501957f93b338c5abb380a56289b4286880405d1bf5cdbed463f75ab377ca7dccb6e3f2875260018060a01b03809a16604087015216606085015216608083015260a082015260a081526118a98161144a565b519020916101335460405193602085019161190160f01b83526022860152604285015260428452608084019380851067ffffffffffffffff861117611418576118f794604052519020611928565b908061012d541691161490565b505050505050600090565b9560ff1660ff821610611904576119259561183f565b90565b916041036119c957604081013560001a601b81106119a7575b60ff1690601b8214158061199c575b611994576020928360809260009460405193845282840152803560408401520135606082015282805260015afa156119885760005190565b6040513d6000823e3d90fd5b505050600090565b50601c821415611950565b601b0160ff81111561194157634e487b7160e01b600052601160045260246000fd5b505060009056fe360894a13ba1a3210667c828492db98dca3e2076cc3735a920a3ca505d382bbca2646970667358221220787b9f279e9812051ca7516904b26259dd6a4d0dde1a8f799171a5187a8d9a2b64736f6c63430008140033","opcodes":"PUSH1 0xA0 DUP1 PUSH1 0x40 MSTORE CALLVALUE PUSH2 0xDC JUMPI ADDRESS PUSH1 0x80 MSTORE PUSH1 0x0 SLOAD SWAP1 PUSH1 0xFF DUP3 PUSH1 0x8 SHR AND PUSH2 0x8A JUMPI POP PUSH1 0xFF DUP1 DUP3 AND SUB PUSH2 0x4F JUMPI JUMPDEST PUSH1 0x40 MLOAD PUSH2 0x1A26 SWAP1 DUP2 PUSH2 0xE2 DUP3 CODECOPY PUSH1 0x80 MLOAD DUP2 DUP2 DUP2 PUSH2 0x9F0 ADD MSTORE DUP2 DUP2 PUSH2 0xD0B ADD MSTORE PUSH2 0x107A ADD MSTORE RETURN JUMPDEST PUSH1 0xFF SWAP1 DUP2 NOT AND OR PUSH1 0x0 SSTORE PUSH32 0x7F26B83FF96E1F2B6A682F133852F6798A09C465DA95921460CEFB3847402498 PUSH1 0x20 PUSH1 0x40 MLOAD PUSH1 0xFF DUP2 MSTORE LOG1 CODESIZE PUSH2 0x29 JUMP JUMPDEST PUSH3 0x461BCD PUSH1 0xE5 SHL DUP2 MSTORE PUSH1 0x20 PUSH1 0x4 DUP3 ADD MSTORE PUSH1 0x27 PUSH1 0x24 DUP3 ADD MSTORE PUSH32 0x496E697469616C697A61626C653A20636F6E747261637420697320696E697469 PUSH1 0x44 DUP3 ADD MSTORE PUSH7 0x616C697A696E67 PUSH1 0xC8 SHL PUSH1 0x64 DUP3 ADD MSTORE PUSH1 0x84 SWAP1 REVERT JUMPDEST PUSH1 0x0 DUP1 REVERT INVALID PUSH1 0x80 PUSH1 0x40 DUP2 DUP2 MSTORE PUSH1 0x4 SWAP2 DUP3 CALLDATASIZE LT ISZERO PUSH2 0x22 JUMPI JUMPDEST POP POP POP CALLDATASIZE ISZERO PUSH2 0x20 JUMPI PUSH1 0x0 DUP1 REVERT JUMPDEST STOP JUMPDEST PUSH1 0x0 SWAP3 DUP4 CALLDATALOAD PUSH1 0xE0 SHR SWAP2 DUP3 PUSH4 0x14C44E09 EQ PUSH2 0x1332 JUMPI POP DUP2 PUSH4 0x1545C238 EQ PUSH2 0x12E7 JUMPI DUP2 PUSH4 0x1815C8EB EQ PUSH2 0x12CB JUMPI DUP2 PUSH4 0x1CF4135D EQ PUSH2 0x124A JUMPI DUP2 PUSH4 0x3659CFE6 EQ PUSH2 0x1052 JUMPI DUP2 PUSH4 0x3B52C24A EQ PUSH2 0x1027 JUMPI DUP2 PUSH4 0x3F4BA83A EQ PUSH2 0xF91 JUMPI DUP2 PUSH4 0x46904840 EQ PUSH2 0xF67 JUMPI DUP2 PUSH4 0x4F1EF286 EQ PUSH2 0xC8F JUMPI DUP2 PUSH4 0x51696EAF EQ PUSH2 0xA9D JUMPI DUP2 PUSH4 0x52D1902D EQ PUSH2 0x9DA JUMPI DUP2 PUSH4 0x56A1C701 EQ PUSH2 0x965 JUMPI DUP2 PUSH4 0x5C975ABB EQ PUSH2 0x941 JUMPI DUP2 PUSH4 0x60C6D8AE EQ PUSH2 0x921 JUMPI DUP2 PUSH4 0x715018A6 EQ PUSH2 0x8C1 JUMPI DUP2 PUSH4 0x7B0240B1 EQ PUSH2 0x8A5 JUMPI DUP2 PUSH4 0x8456CB59 EQ PUSH2 0x84A JUMPI DUP2 PUSH4 0x8DA5CB5B EQ PUSH2 0x821 JUMPI DUP2 PUSH4 0xA511C367 EQ PUSH2 0x806 JUMPI DUP2 PUSH4 0xAAEA3D9C EQ PUSH2 0x7CD JUMPI DUP2 PUSH4 0xC320C727 EQ PUSH2 0x777 JUMPI DUP2 PUSH4 0xC350A1B5 EQ PUSH2 0x438 JUMPI DUP2 PUSH4 0xC3C5A547 EQ PUSH2 0x3F9 JUMPI DUP2 PUSH4 0xD285B081 EQ PUSH2 0x3AF JUMPI DUP2 PUSH4 0xD90FC8B1 EQ PUSH2 0x392 JUMPI DUP2 PUSH4 0xDB2E21BC EQ PUSH2 0x306 JUMPI DUP2 PUSH4 0xE74B981B EQ PUSH2 0x284 JUMPI DUP2 PUSH4 0xF11DB544 EQ PUSH2 0x268 JUMPI DUP2 PUSH4 0xF2FDE38B EQ PUSH2 0x1D2 JUMPI POP DUP1 PUSH4 0xF698DA25 EQ PUSH2 0x1B3 JUMPI PUSH4 0xF74D5480 EQ PUSH2 0x187 JUMPI DUP1 PUSH2 0x12 JUMP JUMPDEST CALLVALUE PUSH2 0x1AF JUMPI DUP2 PUSH1 0x3 NOT CALLDATASIZE ADD SLT PUSH2 0x1AF JUMPI PUSH2 0x12D SLOAD SWAP1 MLOAD PUSH1 0x1 PUSH1 0x1 PUSH1 0xA0 SHL SUB SWAP1 SWAP2 AND DUP2 MSTORE PUSH1 0x20 SWAP1 RETURN JUMPDEST POP DUP1 REVERT JUMPDEST POP CALLVALUE PUSH2 0x1AF JUMPI DUP2 PUSH1 0x3 NOT CALLDATASIZE ADD SLT PUSH2 0x1AF JUMPI PUSH1 0x20 SWAP1 PUSH2 0x133 SLOAD SWAP1 MLOAD SWAP1 DUP2 MSTORE RETURN JUMPDEST SWAP1 POP CALLVALUE PUSH2 0x264 JUMPI PUSH1 0x20 CALLDATASIZE PUSH1 0x3 NOT ADD SLT PUSH2 0x264 JUMPI PUSH2 0x1ED PUSH2 0x134F JUMP JUMPDEST SWAP2 PUSH2 0x1F6 PUSH2 0x14A4 JUMP JUMPDEST PUSH1 0x1 PUSH1 0x1 PUSH1 0xA0 SHL SUB DUP4 AND ISZERO PUSH2 0x212 JUMPI DUP4 PUSH2 0x20F DUP5 PUSH2 0x14FC JUMP JUMPDEST DUP1 RETURN JUMPDEST SWAP1 PUSH1 0x20 PUSH1 0x84 SWAP3 MLOAD SWAP2 PUSH3 0x461BCD PUSH1 0xE5 SHL DUP4 MSTORE DUP3 ADD MSTORE PUSH1 0x26 PUSH1 0x24 DUP3 ADD MSTORE PUSH32 0x4F776E61626C653A206E6577206F776E657220697320746865207A65726F2061 PUSH1 0x44 DUP3 ADD MSTORE PUSH6 0x646472657373 PUSH1 0xD0 SHL PUSH1 0x64 DUP3 ADD MSTORE REVERT JUMPDEST DUP3 DUP1 REVERT JUMPDEST POP POP CALLVALUE PUSH2 0x1AF JUMPI DUP2 PUSH1 0x3 NOT CALLDATASIZE ADD SLT PUSH2 0x1AF JUMPI PUSH1 0x20 SWAP1 MLOAD PUSH1 0x3 DUP2 MSTORE RETURN JUMPDEST SWAP1 POP CALLVALUE PUSH2 0x264 JUMPI PUSH1 0x20 CALLDATASIZE PUSH1 0x3 NOT ADD SLT PUSH2 0x264 JUMPI PUSH2 0x29F PUSH2 0x134F JUMP JUMPDEST SWAP1 PUSH2 0x2A8 PUSH2 0x14A4 JUMP JUMPDEST PUSH1 0x1 PUSH1 0x1 PUSH1 0xA0 SHL SUB SWAP2 DUP3 AND SWAP3 DUP4 ISZERO PUSH2 0x2F9 JUMPI POP POP PUSH2 0x12F DUP1 SLOAD PUSH1 0x1 PUSH1 0x1 PUSH1 0xA0 SHL SUB NOT DUP2 AND DUP5 OR SWAP1 SWAP2 SSTORE AND PUSH32 0xAAEBCF1BFA00580E41D966056B48521FA9F202645C86D4DDF28113E617C1B1D3 DUP4 DUP1 LOG3 DUP1 RETURN JUMPDEST MLOAD PUSH4 0xD92E233D PUSH1 0xE0 SHL DUP2 MSTORE REVERT JUMPDEST SWAP1 POP CALLVALUE PUSH2 0x264 JUMPI DUP3 PUSH1 0x3 NOT CALLDATASIZE ADD SLT PUSH2 0x264 JUMPI PUSH2 0x320 PUSH2 0x14A4 JUMP JUMPDEST SELFBALANCE SWAP1 DUP2 PUSH2 0x32B JUMPI DUP4 DUP1 RETURN JUMPDEST PUSH1 0x1 DUP1 PUSH1 0xA0 SHL SUB SWAP1 DUP5 DUP1 DUP1 DUP1 DUP7 DUP7 PUSH1 0x33 SLOAD AND GAS CALL PUSH2 0x347 PUSH2 0x1697 JUMP JUMPDEST POP ISZERO PUSH2 0x384 JUMPI POP PUSH32 0xC0819C13BE868895EB93E40EACEB96DE976442FA1D404E5C55F14BB65A8C489A SWAP2 PUSH1 0x20 SWAP2 PUSH1 0x33 SLOAD AND SWAP4 MLOAD SWAP1 DUP2 MSTORE LOG2 CODESIZE DUP1 DUP1 DUP4 DUP1 RETURN JUMPDEST DUP4 MLOAD PUSH4 0x12171D83 PUSH1 0xE3 SHL DUP2 MSTORE REVERT JUMPDEST SWAP2 SWAP1 POP CALLVALUE PUSH2 0x264 JUMPI DUP3 PUSH1 0x3 NOT CALLDATASIZE ADD SLT PUSH2 0x264 JUMPI PUSH1 0x20 SWAP3 POP MLOAD SWAP1 DUP2 MSTORE RETURN JUMPDEST SWAP2 SWAP1 POP CALLVALUE PUSH2 0x264 JUMPI PUSH2 0x3CF PUSH2 0x3C3 CALLDATASIZE PUSH2 0x1398 JUMP JUMPDEST SWAP4 DUP3 SWAP7 SWAP6 SWAP4 SWAP2 SWAP4 PUSH2 0x183F JUMP JUMPDEST ISZERO PUSH2 0x3EB JUMPI TIMESTAMP GT PUSH2 0x3DE JUMPI DUP3 DUP1 RETURN JUMPDEST MLOAD PUSH4 0xB67A7713 PUSH1 0xE0 SHL DUP2 MSTORE REVERT JUMPDEST POP MLOAD PUSH4 0x8BAA579F PUSH1 0xE0 SHL DUP2 MSTORE REVERT JUMPDEST POP POP CALLVALUE PUSH2 0x1AF JUMPI PUSH1 0x20 CALLDATASIZE PUSH1 0x3 NOT ADD SLT PUSH2 0x1AF JUMPI PUSH1 0x20 SWAP2 PUSH1 0xFF SWAP1 DUP3 SWAP1 PUSH1 0x1 PUSH1 0x1 PUSH1 0xA0 SHL SUB PUSH2 0x424 PUSH2 0x134F JUMP JUMPDEST AND DUP2 MSTORE PUSH2 0x130 DUP6 MSTORE KECCAK256 SLOAD AND SWAP1 MLOAD SWAP1 ISZERO ISZERO DUP2 MSTORE RETURN JUMPDEST SWAP2 SWAP1 POP CALLVALUE PUSH2 0x264 JUMPI PUSH1 0x60 CALLDATASIZE PUSH1 0x3 NOT ADD SLT PUSH2 0x264 JUMPI PUSH2 0x454 PUSH2 0x134F JUMP JUMPDEST PUSH1 0x44 CALLDATALOAD PUSH1 0x1 PUSH1 0x1 PUSH1 0xA0 SHL SUB DUP2 DUP2 AND SWAP5 SWAP1 SWAP4 SWAP2 PUSH1 0x24 CALLDATALOAD SWAP1 DUP7 SWAP1 SUB PUSH2 0x773 JUMPI DUP7 SLOAD SWAP5 PUSH1 0xFF DUP7 PUSH1 0x8 SHR AND ISZERO SWAP5 DUP6 DUP1 SWAP7 PUSH2 0x766 JUMPI JUMPDEST DUP1 ISZERO PUSH2 0x74F JUMPI JUMPDEST ISZERO PUSH2 0x6F5 JUMPI PUSH1 0xFF NOT DUP8 DUP2 AND PUSH1 0x1 OR DUP11 SSTORE SWAP7 DUP7 PUSH2 0x6E4 JUMPI JUMPDEST POP AND SWAP2 DUP3 ISZERO PUSH2 0x6D6 JUMPI DUP7 ISZERO PUSH2 0x6D6 JUMPI POP PUSH32 0x50B218C5A101AD05D53AB0A964D01DA639EE79525AE4B7802ED714249740A8D5 SWAP2 DUP4 SWAP2 PUSH2 0x4F0 PUSH1 0xFF DUP11 SLOAD PUSH1 0x8 SHR AND PUSH2 0x4EB DUP2 PUSH2 0x179B JUMP JUMPDEST PUSH2 0x179B JUMP JUMPDEST PUSH2 0x4F9 CALLER PUSH2 0x14FC JUMP JUMPDEST PUSH2 0x502 CALLER PUSH2 0x14FC JUMP JUMPDEST PUSH2 0x53B DUP10 SLOAD SWAP8 PUSH1 0xFF DUP10 PUSH1 0x8 SHR AND SWAP1 PUSH2 0x519 DUP3 PUSH2 0x179B JUMP JUMPDEST PUSH2 0x522 DUP3 PUSH2 0x179B JUMP JUMPDEST PUSH2 0x52B DUP3 PUSH2 0x179B JUMP JUMPDEST PUSH1 0xC9 SLOAD AND PUSH1 0xC9 SSTORE PUSH2 0x4EB DUP2 PUSH2 0x179B JUMP JUMPDEST PUSH1 0x1 PUSH1 0xFB SSTORE PUSH12 0xFFFFFFFFFFFFFFFFFFFFFFFF PUSH1 0xA0 SHL PUSH2 0x12D DUP4 DUP3 DUP3 SLOAD AND OR SWAP1 SSTORE DUP2 PUSH2 0x12E SSTORE DUP9 PUSH2 0x12F SWAP2 DUP3 SLOAD AND OR SWAP1 SSTORE PUSH16 0x292BA09025ACA1902B32B934B334B2B9 PUSH1 0x81 SHL PUSH1 0x20 DUP5 MLOAD PUSH2 0x58C DUP2 PUSH2 0x142E JUMP JUMPDEST PUSH1 0x10 DUP2 MSTORE ADD MSTORE PUSH1 0x31 PUSH1 0xF8 SHL PUSH1 0x20 DUP5 MLOAD PUSH2 0x5A4 DUP2 PUSH2 0x142E JUMP JUMPDEST PUSH1 0x1 DUP2 MSTORE ADD MSTORE DUP3 MLOAD PUSH1 0x20 DUP2 ADD SWAP1 PUSH32 0x8B73C3C69BB8FE3D512ECC4CF759CC79239F7B179B0FFACAA9A75D522B39400F DUP3 MSTORE PUSH32 0x9DA7C91ABEAD9378F96A96EA5F93A2FE3F9CAD669DB472A22E9BAFCE65E8E85B DUP6 DUP3 ADD MSTORE PUSH32 0xC89EFDAA54C0F20C7ADF612882DF0950F5A951637E0307CDCB4C672F298B8BC6 PUSH1 0x60 DUP3 ADD MSTORE CHAINID PUSH1 0x80 DUP3 ADD MSTORE ADDRESS PUSH1 0xA0 DUP3 ADD MSTORE PUSH1 0xA0 DUP2 MSTORE PUSH2 0x638 DUP2 PUSH2 0x144A JUMP JUMPDEST MLOAD SWAP1 KECCAK256 PUSH2 0x133 SSTORE DUP3 MLOAD SWAP2 DUP10 PUSH32 0x4A297CF5D32586F80D2B0708A39D2DA1F46E6AE7722171E1C51DFD685B5B8AA8 DUP2 DUP1 LOG3 DUP9 DUP3 MSTORE PUSH1 0x20 DUP3 ADD MSTORE LOG1 MLOAD SWAP3 DUP5 PUSH32 0xAAEBCF1BFA00580E41D966056B48521FA9F202645C86D4DDF28113E617C1B1D3 DUP2 DUP1 LOG3 PUSH2 0x69F JUMPI DUP3 DUP1 RETURN JUMPDEST PUSH2 0xFF00 NOT AND DUP3 SSTORE PUSH1 0x1 DUP2 MSTORE PUSH32 0x7F26B83FF96E1F2B6A682F133852F6798A09C465DA95921460CEFB3847402498 SWAP1 PUSH1 0x20 SWAP1 LOG1 CODESIZE DUP1 DUP3 DUP1 RETURN JUMPDEST DUP4 MLOAD PUSH4 0xD92E233D PUSH1 0xE0 SHL DUP2 MSTORE REVERT JUMPDEST PUSH2 0xFFFF NOT AND PUSH2 0x101 OR DUP10 SSTORE CODESIZE PUSH2 0x4A3 JUMP JUMPDEST DUP5 MLOAD PUSH3 0x461BCD PUSH1 0xE5 SHL DUP2 MSTORE PUSH1 0x20 DUP2 DUP7 ADD MSTORE PUSH1 0x2E PUSH1 0x24 DUP3 ADD MSTORE PUSH32 0x496E697469616C697A61626C653A20636F6E747261637420697320616C726561 PUSH1 0x44 DUP3 ADD MSTORE PUSH14 0x191E481A5B9A5D1A585B1A5E9959 PUSH1 0x92 SHL PUSH1 0x64 DUP3 ADD MSTORE PUSH1 0x84 SWAP1 REVERT JUMPDEST POP ADDRESS EXTCODESIZE ISZERO DUP1 ISZERO PUSH2 0x48C JUMPI POP PUSH1 0x1 PUSH1 0xFF DUP9 AND EQ PUSH2 0x48C JUMP JUMPDEST POP PUSH1 0x1 PUSH1 0xFF DUP9 AND LT PUSH2 0x485 JUMP JUMPDEST DUP7 DUP1 REVERT JUMPDEST SWAP2 SWAP1 POP CALLVALUE PUSH2 0x264 JUMPI PUSH1 0x20 CALLDATASIZE PUSH1 0x3 NOT ADD SLT PUSH2 0x264 JUMPI PUSH32 0x50B218C5A101AD05D53AB0A964D01DA639EE79525AE4B7802ED714249740A8D5 SWAP2 CALLDATALOAD PUSH2 0x7B6 PUSH2 0x14A4 JUMP JUMPDEST PUSH2 0x12E SWAP1 DUP1 DUP3 SLOAD SWAP3 SSTORE DUP3 MLOAD SWAP2 DUP3 MSTORE PUSH1 0x20 DUP3 ADD MSTORE LOG1 DUP1 RETURN JUMPDEST POP POP CALLVALUE PUSH2 0x1AF JUMPI PUSH1 0x20 CALLDATASIZE PUSH1 0x3 NOT ADD SLT PUSH2 0x1AF JUMPI PUSH1 0x20 SWAP2 DUP2 SWAP1 PUSH1 0x1 PUSH1 0x1 PUSH1 0xA0 SHL SUB PUSH2 0x7F5 PUSH2 0x134F JUMP JUMPDEST AND DUP2 MSTORE PUSH2 0x131 DUP5 MSTORE KECCAK256 SLOAD SWAP1 MLOAD SWAP1 DUP2 MSTORE RETURN JUMPDEST POP POP CALLVALUE PUSH2 0x1AF JUMPI DUP2 PUSH1 0x3 NOT CALLDATASIZE ADD SLT PUSH2 0x1AF JUMPI MLOAD SWAP1 DUP2 MSTORE PUSH1 0x20 SWAP1 RETURN JUMPDEST POP POP CALLVALUE PUSH2 0x1AF JUMPI DUP2 PUSH1 0x3 NOT CALLDATASIZE ADD SLT PUSH2 0x1AF JUMPI PUSH1 0x33 SLOAD SWAP1 MLOAD PUSH1 0x1 PUSH1 0x1 PUSH1 0xA0 SHL SUB SWAP1 SWAP2 AND DUP2 MSTORE PUSH1 0x20 SWAP1 RETURN JUMPDEST POP POP CALLVALUE PUSH2 0x1AF JUMPI DUP2 PUSH1 0x3 NOT CALLDATASIZE ADD SLT PUSH2 0x1AF JUMPI PUSH1 0x20 PUSH32 0x62E78CEA01BEE320CD4E420270B5EA74000D11B0C9F74754EBDBFC544B05A258 SWAP2 PUSH2 0x888 PUSH2 0x14A4 JUMP JUMPDEST PUSH2 0x890 PUSH2 0x17FB JUMP JUMPDEST PUSH1 0x1 PUSH1 0xFF NOT PUSH1 0xC9 SLOAD AND OR PUSH1 0xC9 SSTORE MLOAD CALLER DUP2 MSTORE LOG1 DUP1 RETURN JUMPDEST POP POP CALLVALUE PUSH2 0x1AF JUMPI DUP2 PUSH1 0x3 NOT CALLDATASIZE ADD SLT PUSH2 0x1AF JUMPI PUSH1 0x20 SWAP1 MLOAD PUSH1 0x2 DUP2 MSTORE RETURN JUMPDEST DUP4 CALLVALUE PUSH2 0x91E JUMPI DUP1 PUSH1 0x3 NOT CALLDATASIZE ADD SLT PUSH2 0x91E JUMPI PUSH2 0x8DA PUSH2 0x14A4 JUMP JUMPDEST PUSH1 0x33 DUP1 SLOAD PUSH1 0x1 PUSH1 0x1 PUSH1 0xA0 SHL SUB NOT DUP2 AND SWAP1 SWAP2 SSTORE DUP2 SWAP1 PUSH1 0x1 PUSH1 0x1 PUSH1 0xA0 SHL SUB AND PUSH32 0x8BE0079C531659141344CD1FD0A4F28419497F9722A3DAAFE3B4186F6B6457E0 DUP3 DUP1 LOG3 DUP1 RETURN JUMPDEST DUP1 REVERT JUMPDEST POP POP CALLVALUE PUSH2 0x1AF JUMPI DUP2 PUSH1 0x3 NOT CALLDATASIZE ADD SLT PUSH2 0x1AF JUMPI PUSH1 0x20 SWAP1 PUSH2 0x132 SLOAD SWAP1 MLOAD SWAP1 DUP2 MSTORE RETURN JUMPDEST POP POP CALLVALUE PUSH2 0x1AF JUMPI DUP2 PUSH1 0x3 NOT CALLDATASIZE ADD SLT PUSH2 0x1AF JUMPI PUSH1 0x20 SWAP1 PUSH1 0xFF PUSH1 0xC9 SLOAD AND SWAP1 MLOAD SWAP1 ISZERO ISZERO DUP2 MSTORE RETURN JUMPDEST SWAP1 POP CALLVALUE PUSH2 0x264 JUMPI PUSH1 0x20 CALLDATASIZE PUSH1 0x3 NOT ADD SLT PUSH2 0x264 JUMPI PUSH2 0x980 PUSH2 0x134F JUMP JUMPDEST SWAP1 PUSH2 0x989 PUSH2 0x14A4 JUMP JUMPDEST PUSH1 0x1 PUSH1 0x1 PUSH1 0xA0 SHL SUB SWAP2 DUP3 AND SWAP3 DUP4 ISZERO PUSH2 0x2F9 JUMPI POP POP PUSH2 0x12D DUP1 SLOAD PUSH1 0x1 PUSH1 0x1 PUSH1 0xA0 SHL SUB NOT DUP2 AND DUP5 OR SWAP1 SWAP2 SSTORE AND PUSH32 0x4A297CF5D32586F80D2B0708A39D2DA1F46E6AE7722171E1C51DFD685B5B8AA8 DUP4 DUP1 LOG3 DUP1 RETURN JUMPDEST SWAP1 POP DUP3 CALLVALUE PUSH2 0x91E JUMPI DUP1 PUSH1 0x3 NOT CALLDATASIZE ADD SLT PUSH2 0x91E JUMPI POP PUSH32 0x0 PUSH1 0x1 PUSH1 0x1 PUSH1 0xA0 SHL SUB AND ADDRESS SUB PUSH2 0xA35 JUMPI PUSH1 0x20 DUP3 MLOAD PUSH1 0x0 DUP1 MLOAD PUSH1 0x20 PUSH2 0x19D1 DUP4 CODECOPY DUP2 MLOAD SWAP2 MSTORE DUP2 MSTORE RETURN JUMPDEST PUSH1 0x20 PUSH1 0x84 SWAP3 MLOAD SWAP2 PUSH3 0x461BCD PUSH1 0xE5 SHL DUP4 MSTORE DUP3 ADD MSTORE PUSH1 0x38 PUSH1 0x24 DUP3 ADD MSTORE PUSH32 0x555550535570677261646561626C653A206D757374206E6F742062652063616C PUSH1 0x44 DUP3 ADD MSTORE PUSH32 0x6C6564207468726F7567682064656C656761746563616C6C0000000000000000 PUSH1 0x64 DUP3 ADD MSTORE REVERT JUMPDEST SWAP2 SWAP1 POP PUSH1 0x80 CALLDATASIZE PUSH1 0x3 NOT ADD SLT PUSH2 0x264 JUMPI DUP2 CALLDATALOAD PUSH1 0xFF DUP2 AND SWAP3 DUP4 DUP3 SUB PUSH2 0xC8B JUMPI PUSH1 0x24 CALLDATALOAD PUSH2 0xFFFF DUP2 AND SWAP3 DUP4 DUP3 SUB PUSH2 0x773 JUMPI PUSH1 0x44 CALLDATALOAD PUSH1 0x64 CALLDATALOAD PUSH8 0xFFFFFFFFFFFFFFFF DUP2 GT PUSH2 0xC87 JUMPI PUSH2 0xAEC SWAP1 CALLDATASIZE SWAP1 DUP7 ADD PUSH2 0x136A JUMP JUMPDEST SWAP4 SWAP1 SWAP3 PUSH1 0x2 PUSH1 0xFB SLOAD EQ PUSH2 0xC44 JUMPI PUSH1 0x2 PUSH1 0xFB SSTORE PUSH2 0xB06 PUSH2 0x17FB JUMP JUMPDEST PUSH2 0x12E SLOAD CALLVALUE LT PUSH2 0xC35 JUMPI DUP9 ISZERO DUP1 ISZERO PUSH2 0xC2C JUMPI JUMPDEST PUSH2 0xC1C JUMPI TIMESTAMP DUP4 LT PUSH2 0xC0C JUMPI SWAP1 PUSH2 0xB32 SWAP5 SWAP4 SWAP3 SWAP2 CALLER PUSH2 0x183F JUMP JUMPDEST ISZERO PUSH2 0xBFE JUMPI CALLER DUP6 MSTORE PUSH2 0x130 PUSH1 0x20 MSTORE DUP3 DUP6 KECCAK256 DUP1 SLOAD PUSH1 0xFF DUP2 AND ISZERO PUSH2 0xBE2 JUMPI JUMPDEST POP POP PUSH2 0x132 DUP1 SLOAD SWAP1 CALLVALUE DUP3 ADD DUP1 SWAP3 GT PUSH2 0xBCF JUMPI SSTORE DUP5 DUP1 DUP1 DUP1 CALLVALUE PUSH1 0x1 DUP1 PUSH1 0xA0 SHL SUB PUSH2 0x12F SLOAD AND GAS CALL PUSH2 0xB7D PUSH2 0x1697 JUMP JUMPDEST POP ISZERO PUSH2 0xBC1 JUMPI POP DUP2 MLOAD SWAP3 DUP4 MSTORE PUSH1 0x20 DUP4 ADD MSTORE CALLVALUE SWAP1 DUP3 ADD MSTORE PUSH32 0x82E0101FDF4E5EE775F1F5D4CC59E423BA44E29C19ECE412DAF6D25933F79B37 PUSH1 0x60 CALLER SWAP3 LOG2 PUSH1 0x1 PUSH1 0xFB SSTORE DUP1 RETURN JUMPDEST DUP3 MLOAD PUSH4 0x12171D83 PUSH1 0xE3 SHL DUP2 MSTORE REVERT JUMPDEST PUSH4 0x4E487B71 PUSH1 0xE0 SHL DUP8 MSTORE PUSH1 0x11 DUP4 MSTORE PUSH1 0x24 DUP8 REVERT JUMPDEST PUSH1 0xFF NOT AND PUSH1 0x1 OR SWAP1 SSTORE PUSH2 0x131 PUSH1 0x20 MSTORE DUP3 DUP6 KECCAK256 TIMESTAMP SWAP1 SSTORE CODESIZE DUP1 PUSH2 0xB4F JUMP JUMPDEST DUP3 MLOAD PUSH4 0x8BAA579F PUSH1 0xE0 SHL DUP2 MSTORE REVERT JUMPDEST DUP8 MLOAD PUSH4 0xB67A7713 PUSH1 0xE0 SHL DUP2 MSTORE DUP7 SWAP1 REVERT JUMPDEST DUP8 MLOAD PUSH4 0xD1459F79 PUSH1 0xE0 SHL DUP2 MSTORE DUP7 SWAP1 REVERT JUMPDEST POP DUP6 DUP10 GT PUSH2 0xB19 JUMP JUMPDEST DUP8 MLOAD PUSH3 0x976F75 PUSH1 0xE2 SHL DUP2 MSTORE DUP7 SWAP1 REVERT JUMPDEST DUP8 MLOAD PUSH3 0x461BCD PUSH1 0xE5 SHL DUP2 MSTORE PUSH1 0x20 DUP2 DUP9 ADD MSTORE PUSH1 0x1F PUSH1 0x24 DUP3 ADD MSTORE PUSH32 0x5265656E7472616E637947756172643A207265656E7472616E742063616C6C00 PUSH1 0x44 DUP3 ADD MSTORE PUSH1 0x64 SWAP1 REVERT JUMPDEST DUP9 DUP1 REVERT JUMPDEST DUP5 DUP1 REVERT JUMPDEST SWAP2 DUP1 SWAP2 POP PUSH1 0x3 NOT CALLDATASIZE ADD SLT PUSH2 0x264 JUMPI PUSH2 0xCA5 PUSH2 0x134F JUMP JUMPDEST SWAP1 PUSH1 0x24 CALLDATALOAD SWAP1 PUSH8 0xFFFFFFFFFFFFFFFF DUP3 GT PUSH2 0xC8B JUMPI CALLDATASIZE PUSH1 0x23 DUP4 ADD SLT ISZERO PUSH2 0xC8B JUMPI DUP2 DUP5 ADD CALLDATALOAD PUSH2 0xCD1 DUP2 PUSH2 0x1488 JUMP JUMPDEST SWAP1 PUSH2 0xCDE DUP4 MLOAD SWAP3 DUP4 PUSH2 0x1466 JUMP JUMPDEST DUP1 DUP3 MSTORE DUP7 PUSH1 0x20 SWAP5 DUP6 DUP5 ADD SWAP3 CALLDATASIZE PUSH1 0x24 DUP3 DUP5 ADD ADD GT PUSH2 0x264 JUMPI DUP1 PUSH1 0x24 DUP9 SWAP4 ADD DUP6 CALLDATACOPY DUP5 ADD ADD MSTORE PUSH1 0x1 PUSH1 0x1 PUSH1 0xA0 SHL SUB PUSH32 0x0 DUP2 AND SWAP1 PUSH2 0xD39 ADDRESS DUP4 EQ ISZERO PUSH2 0x1545 JUMP JUMPDEST PUSH2 0xD56 PUSH1 0x0 DUP1 MLOAD PUSH1 0x20 PUSH2 0x19D1 DUP4 CODECOPY DUP2 MLOAD SWAP2 MSTORE SWAP3 DUP3 DUP5 SLOAD AND EQ PUSH2 0x15A6 JUMP JUMPDEST PUSH2 0xD5E PUSH2 0x14A4 JUMP JUMPDEST PUSH32 0x4910FDFA16FED3260ED0E7147F7CC6DA11A60208B5B9406D12A635614FFD9143 SLOAD PUSH1 0xFF AND ISZERO PUSH2 0xD98 JUMPI POP POP POP POP POP POP PUSH2 0x20F SWAP2 POP PUSH2 0x1607 JUMP JUMPDEST DUP7 SWAP4 SWAP5 SWAP6 SWAP7 AND SWAP1 DUP6 MLOAD PUSH4 0x52D1902D PUSH1 0xE0 SHL DUP2 MSTORE DUP8 DUP2 DUP11 DUP2 DUP7 GAS STATICCALL DUP11 SWAP2 DUP2 PUSH2 0xF34 JUMPI JUMPDEST POP PUSH2 0xE19 JUMPI DUP7 MLOAD PUSH3 0x461BCD PUSH1 0xE5 SHL DUP2 MSTORE DUP1 DUP11 ADD DUP10 SWAP1 MSTORE PUSH1 0x2E PUSH1 0x24 DUP3 ADD MSTORE PUSH32 0x45524331393637557067726164653A206E657720696D706C656D656E74617469 PUSH1 0x44 DUP3 ADD MSTORE PUSH14 0x6F6E206973206E6F742055555053 PUSH1 0x90 SHL PUSH1 0x64 DUP3 ADD MSTORE PUSH1 0x84 SWAP1 REVERT JUMPDEST SWAP8 SWAP2 SWAP3 SWAP4 SWAP6 SWAP5 SWAP8 SUB PUSH2 0xEDF JUMPI POP SWAP1 DUP7 SWAP3 SWAP2 PUSH2 0xE33 DUP6 PUSH2 0x1607 JUMP JUMPDEST PUSH32 0xBC7CD75A20EE27FD9ADEBAB32041F755214DBC6BFFA90CC0225B39DA2E5C2D3B DUP5 DUP1 LOG2 DUP6 MLOAD ISZERO DUP1 ISZERO SWAP1 PUSH2 0xED7 JUMPI JUMPDEST PUSH2 0xE70 JUMPI JUMPDEST POP POP POP POP POP POP DUP1 RETURN JUMPDEST PUSH2 0xECB SWAP6 PUSH7 0x819985A5B1959 PUSH1 0xCA SHL DUP4 PUSH32 0x416464726573733A206C6F772D6C6576656C2064656C65676174652063616C6C DUP7 SWAP6 MLOAD SWAP9 PUSH2 0xEAE DUP11 PUSH2 0x13FC JUMP JUMPDEST PUSH1 0x27 DUP11 MSTORE DUP10 ADD MSTORE DUP8 ADD MSTORE MLOAD SWAP1 DUP5 GAS DELEGATECALL PUSH2 0xEC5 PUSH2 0x1697 JUMP JUMPDEST SWAP2 PUSH2 0x16C7 JUMP JUMPDEST POP CODESIZE DUP1 DUP1 DUP4 DUP2 DUP1 PUSH2 0xE67 JUMP JUMPDEST POP PUSH1 0x1 PUSH2 0xE62 JUMP JUMPDEST DUP4 MLOAD PUSH3 0x461BCD PUSH1 0xE5 SHL DUP2 MSTORE SWAP1 DUP2 ADD DUP7 SWAP1 MSTORE PUSH1 0x29 PUSH1 0x24 DUP3 ADD MSTORE PUSH32 0x45524331393637557067726164653A20756E737570706F727465642070726F78 PUSH1 0x44 DUP3 ADD MSTORE PUSH9 0x1A58589B1955555251 PUSH1 0xBA SHL PUSH1 0x64 DUP3 ADD MSTORE PUSH1 0x84 SWAP1 REVERT JUMPDEST SWAP1 SWAP2 POP DUP9 DUP2 DUP2 RETURNDATASIZE DUP4 GT PUSH2 0xF60 JUMPI JUMPDEST PUSH2 0xF4C DUP2 DUP4 PUSH2 0x1466 JUMP JUMPDEST DUP2 ADD SUB SLT PUSH2 0xF5C JUMPI MLOAD SWAP1 CODESIZE PUSH2 0xDBA JUMP JUMPDEST DUP11 DUP1 REVERT JUMPDEST POP RETURNDATASIZE PUSH2 0xF42 JUMP JUMPDEST POP POP CALLVALUE PUSH2 0x1AF JUMPI DUP2 PUSH1 0x3 NOT CALLDATASIZE ADD SLT PUSH2 0x1AF JUMPI PUSH2 0x12F SLOAD SWAP1 MLOAD PUSH1 0x1 PUSH1 0x1 PUSH1 0xA0 SHL SUB SWAP1 SWAP2 AND DUP2 MSTORE PUSH1 0x20 SWAP1 RETURN JUMPDEST SWAP1 POP CALLVALUE PUSH2 0x264 JUMPI DUP3 PUSH1 0x3 NOT CALLDATASIZE ADD SLT PUSH2 0x264 JUMPI PUSH2 0xFAB PUSH2 0x14A4 JUMP JUMPDEST PUSH1 0xC9 SLOAD SWAP1 PUSH1 0xFF DUP3 AND ISZERO PUSH2 0xFED JUMPI POP PUSH1 0xFF NOT AND PUSH1 0xC9 SSTORE MLOAD CALLER DUP2 MSTORE PUSH32 0x5DB9EE0A495BF2E6FF9C91A7834C1BA4FDD244A5E8AA4E537BD38AEAE4B073AA SWAP1 PUSH1 0x20 SWAP1 LOG1 DUP1 RETURN JUMPDEST PUSH1 0x64 SWAP1 PUSH1 0x20 DUP5 MLOAD SWAP2 PUSH3 0x461BCD PUSH1 0xE5 SHL DUP4 MSTORE DUP3 ADD MSTORE PUSH1 0x14 PUSH1 0x24 DUP3 ADD MSTORE PUSH20 0x14185D5CD8589B194E881B9BDD081C185D5CD959 PUSH1 0x62 SHL PUSH1 0x44 DUP3 ADD MSTORE REVERT JUMPDEST POP POP CALLVALUE PUSH2 0x1AF JUMPI PUSH1 0x20 SWAP1 PUSH2 0x1049 PUSH2 0x103D CALLDATASIZE PUSH2 0x1398 JUMP JUMPDEST SWAP5 SWAP4 SWAP1 SWAP4 SWAP3 SWAP2 SWAP3 PUSH2 0x183F JUMP JUMPDEST SWAP1 MLOAD SWAP1 ISZERO ISZERO DUP2 MSTORE RETURN JUMPDEST SWAP2 SWAP1 POP CALLVALUE PUSH2 0x264 JUMPI PUSH1 0x20 DUP1 PUSH1 0x3 NOT CALLDATASIZE ADD SLT PUSH2 0x1246 JUMPI PUSH2 0x106F PUSH2 0x134F JUMP JUMPDEST SWAP2 PUSH1 0x1 PUSH1 0x1 PUSH1 0xA0 SHL SUB PUSH32 0x0 DUP2 AND SWAP1 PUSH2 0x10A8 ADDRESS DUP4 EQ ISZERO PUSH2 0x1545 JUMP JUMPDEST PUSH2 0x10C5 PUSH1 0x0 DUP1 MLOAD PUSH1 0x20 PUSH2 0x19D1 DUP4 CODECOPY DUP2 MLOAD SWAP2 MSTORE SWAP3 DUP3 DUP5 SLOAD AND EQ PUSH2 0x15A6 JUMP JUMPDEST PUSH2 0x10CD PUSH2 0x14A4 JUMP JUMPDEST DUP3 MLOAD SWAP2 DUP5 DUP4 ADD SWAP2 DUP4 DUP4 LT PUSH8 0xFFFFFFFFFFFFFFFF DUP5 GT OR PUSH2 0x1233 JUMPI DUP3 DUP6 MSTORE DUP9 DUP5 MSTORE PUSH32 0x4910FDFA16FED3260ED0E7147F7CC6DA11A60208B5B9406D12A635614FFD9143 SLOAD PUSH1 0xFF AND ISZERO PUSH2 0x1127 JUMPI POP POP POP POP POP POP PUSH2 0x20F SWAP2 POP PUSH2 0x1607 JUMP JUMPDEST DUP7 SWAP4 SWAP5 SWAP6 SWAP7 AND SWAP1 DUP6 MLOAD PUSH4 0x52D1902D PUSH1 0xE0 SHL DUP2 MSTORE DUP8 DUP2 DUP11 DUP2 DUP7 GAS STATICCALL DUP11 SWAP2 DUP2 PUSH2 0x1204 JUMPI JUMPDEST POP PUSH2 0x11A8 JUMPI DUP7 MLOAD PUSH3 0x461BCD PUSH1 0xE5 SHL DUP2 MSTORE DUP1 DUP11 ADD DUP10 SWAP1 MSTORE PUSH1 0x2E PUSH1 0x24 DUP3 ADD MSTORE PUSH32 0x45524331393637557067726164653A206E657720696D706C656D656E74617469 PUSH1 0x44 DUP3 ADD MSTORE PUSH14 0x6F6E206973206E6F742055555053 PUSH1 0x90 SHL PUSH1 0x64 DUP3 ADD MSTORE PUSH1 0x84 SWAP1 REVERT JUMPDEST SWAP8 SWAP2 SWAP3 SWAP4 SWAP6 SWAP5 SWAP8 SUB PUSH2 0xEDF JUMPI POP SWAP1 DUP7 SWAP3 SWAP2 PUSH2 0x11C2 DUP6 PUSH2 0x1607 JUMP JUMPDEST PUSH32 0xBC7CD75A20EE27FD9ADEBAB32041F755214DBC6BFFA90CC0225B39DA2E5C2D3B DUP5 DUP1 LOG2 DUP6 MLOAD ISZERO DUP1 ISZERO SWAP1 PUSH2 0x11FD JUMPI PUSH2 0xE70 JUMPI POP POP POP POP POP POP DUP1 RETURN JUMPDEST POP DUP3 PUSH2 0xE62 JUMP JUMPDEST SWAP1 SWAP2 POP DUP9 DUP2 DUP2 RETURNDATASIZE DUP4 GT PUSH2 0x122C JUMPI JUMPDEST PUSH2 0x121C DUP2 DUP4 PUSH2 0x1466 JUMP JUMPDEST DUP2 ADD SUB SLT PUSH2 0xF5C JUMPI MLOAD SWAP1 CODESIZE PUSH2 0x1149 JUMP JUMPDEST POP RETURNDATASIZE PUSH2 0x1212 JUMP JUMPDEST PUSH4 0x4E487B71 PUSH1 0xE0 SHL DUP10 MSTORE PUSH1 0x41 DUP9 MSTORE PUSH1 0x24 DUP10 REVERT JUMPDEST DUP4 DUP1 REVERT JUMPDEST SWAP1 POP CALLVALUE PUSH2 0x264 JUMPI PUSH1 0xC0 CALLDATASIZE PUSH1 0x3 NOT ADD SLT PUSH2 0x264 JUMPI PUSH2 0x1265 PUSH2 0x134F JUMP JUMPDEST PUSH1 0x24 CALLDATALOAD SWAP1 PUSH1 0xFF DUP3 AND DUP3 SUB PUSH2 0xC8B JUMPI PUSH1 0x44 CALLDATALOAD SWAP3 PUSH2 0xFFFF DUP5 AND DUP5 SUB PUSH2 0x12C7 JUMPI PUSH1 0x84 CALLDATALOAD SWAP1 PUSH8 0xFFFFFFFFFFFFFFFF DUP3 GT PUSH2 0x773 JUMPI PUSH2 0x12A1 SWAP2 CALLDATASIZE SWAP2 ADD PUSH2 0x136A JUMP JUMPDEST SWAP4 SWAP1 SWAP3 PUSH1 0xA4 CALLDATALOAD SWAP7 PUSH1 0xFF DUP9 AND DUP9 SUB PUSH2 0x91E JUMPI POP SWAP2 PUSH1 0x20 SWAP7 SWAP4 SWAP2 PUSH2 0x1049 SWAP6 SWAP4 PUSH1 0x64 CALLDATALOAD SWAP3 PUSH2 0x190F JUMP JUMPDEST DUP6 DUP1 REVERT JUMPDEST POP POP CALLVALUE PUSH2 0x1AF JUMPI DUP2 PUSH1 0x3 NOT CALLDATASIZE ADD SLT PUSH2 0x1AF JUMPI PUSH1 0x20 SWAP1 MLOAD PUSH1 0x1 DUP2 MSTORE RETURN JUMPDEST DUP3 DUP5 CALLVALUE PUSH2 0x91E JUMPI PUSH1 0x20 CALLDATASIZE PUSH1 0x3 NOT ADD SLT PUSH2 0x91E JUMPI PUSH1 0x1 PUSH1 0x1 PUSH1 0xA0 SHL SUB PUSH2 0x130A PUSH2 0x134F JUMP JUMPDEST AND DUP2 MSTORE PUSH2 0x130 PUSH1 0x20 MSTORE DUP2 PUSH1 0xFF DUP2 DUP4 KECCAK256 SLOAD AND SWAP2 PUSH2 0x131 PUSH1 0x20 MSTORE KECCAK256 SLOAD DUP3 MLOAD SWAP2 ISZERO ISZERO DUP3 MSTORE PUSH1 0x20 DUP3 ADD MSTORE RETURN JUMPDEST DUP5 SWAP1 CALLVALUE PUSH2 0x1AF JUMPI DUP2 PUSH1 0x3 NOT CALLDATASIZE ADD SLT PUSH2 0x1AF JUMPI PUSH1 0x20 SWAP1 PUSH2 0x12E SLOAD DUP2 MSTORE RETURN JUMPDEST PUSH1 0x4 CALLDATALOAD SWAP1 PUSH1 0x1 PUSH1 0x1 PUSH1 0xA0 SHL SUB DUP3 AND DUP3 SUB PUSH2 0x1365 JUMPI JUMP JUMPDEST PUSH1 0x0 DUP1 REVERT JUMPDEST SWAP2 DUP2 PUSH1 0x1F DUP5 ADD SLT ISZERO PUSH2 0x1365 JUMPI DUP3 CALLDATALOAD SWAP2 PUSH8 0xFFFFFFFFFFFFFFFF DUP4 GT PUSH2 0x1365 JUMPI PUSH1 0x20 DUP4 DUP2 DUP7 ADD SWAP6 ADD ADD GT PUSH2 0x1365 JUMPI JUMP JUMPDEST PUSH1 0xA0 PUSH1 0x3 NOT DUP3 ADD SLT PUSH2 0x1365 JUMPI PUSH1 0x4 CALLDATALOAD PUSH1 0x1 PUSH1 0x1 PUSH1 0xA0 SHL SUB DUP2 AND DUP2 SUB PUSH2 0x1365 JUMPI SWAP2 PUSH1 0x24 CALLDATALOAD PUSH1 0xFF DUP2 AND DUP2 SUB PUSH2 0x1365 JUMPI SWAP2 PUSH1 0x44 CALLDATALOAD PUSH2 0xFFFF DUP2 AND DUP2 SUB PUSH2 0x1365 JUMPI SWAP2 PUSH1 0x64 CALLDATALOAD SWAP2 PUSH1 0x84 CALLDATALOAD SWAP1 PUSH8 0xFFFFFFFFFFFFFFFF DUP3 GT PUSH2 0x1365 JUMPI PUSH2 0x13F8 SWAP2 PUSH1 0x4 ADD PUSH2 0x136A JUMP JUMPDEST SWAP1 SWAP2 JUMP JUMPDEST PUSH1 0x60 DUP2 ADD SWAP1 DUP2 LT PUSH8 0xFFFFFFFFFFFFFFFF DUP3 GT OR PUSH2 0x1418 JUMPI PUSH1 0x40 MSTORE JUMP JUMPDEST PUSH4 0x4E487B71 PUSH1 0xE0 SHL PUSH1 0x0 MSTORE PUSH1 0x41 PUSH1 0x4 MSTORE PUSH1 0x24 PUSH1 0x0 REVERT JUMPDEST PUSH1 0x40 DUP2 ADD SWAP1 DUP2 LT PUSH8 0xFFFFFFFFFFFFFFFF DUP3 GT OR PUSH2 0x1418 JUMPI PUSH1 0x40 MSTORE JUMP JUMPDEST PUSH1 0xC0 DUP2 ADD SWAP1 DUP2 LT PUSH8 0xFFFFFFFFFFFFFFFF DUP3 GT OR PUSH2 0x1418 JUMPI PUSH1 0x40 MSTORE JUMP JUMPDEST SWAP1 PUSH1 0x1F DUP1 NOT SWAP2 ADD AND DUP2 ADD SWAP1 DUP2 LT PUSH8 0xFFFFFFFFFFFFFFFF DUP3 GT OR PUSH2 0x1418 JUMPI PUSH1 0x40 MSTORE JUMP JUMPDEST PUSH8 0xFFFFFFFFFFFFFFFF DUP2 GT PUSH2 0x1418 JUMPI PUSH1 0x1F ADD PUSH1 0x1F NOT AND PUSH1 0x20 ADD SWAP1 JUMP JUMPDEST PUSH1 0x33 SLOAD PUSH1 0x1 PUSH1 0x1 PUSH1 0xA0 SHL SUB AND CALLER SUB PUSH2 0x14B8 JUMPI JUMP JUMPDEST PUSH1 0x64 PUSH1 0x40 MLOAD PUSH3 0x461BCD PUSH1 0xE5 SHL DUP2 MSTORE PUSH1 0x20 PUSH1 0x4 DUP3 ADD MSTORE PUSH1 0x20 PUSH1 0x24 DUP3 ADD MSTORE PUSH32 0x4F776E61626C653A2063616C6C6572206973206E6F7420746865206F776E6572 PUSH1 0x44 DUP3 ADD MSTORE REVERT JUMPDEST PUSH1 0x33 DUP1 SLOAD PUSH1 0x1 PUSH1 0x1 PUSH1 0xA0 SHL SUB SWAP3 DUP4 AND PUSH1 0x1 PUSH1 0x1 PUSH1 0xA0 SHL SUB NOT DUP3 AND DUP2 OR SWAP1 SWAP3 SSTORE SWAP1 SWAP2 AND PUSH32 0x8BE0079C531659141344CD1FD0A4F28419497F9722A3DAAFE3B4186F6B6457E0 PUSH1 0x0 DUP1 LOG3 JUMP JUMPDEST ISZERO PUSH2 0x154C JUMPI JUMP JUMPDEST PUSH1 0x40 MLOAD PUSH3 0x461BCD PUSH1 0xE5 SHL DUP2 MSTORE PUSH1 0x20 PUSH1 0x4 DUP3 ADD MSTORE PUSH1 0x2C PUSH1 0x24 DUP3 ADD MSTORE PUSH32 0x46756E6374696F6E206D7573742062652063616C6C6564207468726F75676820 PUSH1 0x44 DUP3 ADD MSTORE PUSH12 0x19195B1959D85D1958D85B1B PUSH1 0xA2 SHL PUSH1 0x64 DUP3 ADD MSTORE PUSH1 0x84 SWAP1 REVERT JUMPDEST ISZERO PUSH2 0x15AD JUMPI JUMP JUMPDEST PUSH1 0x40 MLOAD PUSH3 0x461BCD PUSH1 0xE5 SHL DUP2 MSTORE PUSH1 0x20 PUSH1 0x4 DUP3 ADD MSTORE PUSH1 0x2C PUSH1 0x24 DUP3 ADD MSTORE PUSH32 0x46756E6374696F6E206D7573742062652063616C6C6564207468726F75676820 PUSH1 0x44 DUP3 ADD MSTORE PUSH12 0x6163746976652070726F7879 PUSH1 0xA0 SHL PUSH1 0x64 DUP3 ADD MSTORE PUSH1 0x84 SWAP1 REVERT JUMPDEST DUP1 EXTCODESIZE ISZERO PUSH2 0x163C JUMPI PUSH1 0x0 DUP1 MLOAD PUSH1 0x20 PUSH2 0x19D1 DUP4 CODECOPY DUP2 MLOAD SWAP2 MSTORE DUP1 SLOAD PUSH1 0x1 PUSH1 0x1 PUSH1 0xA0 SHL SUB NOT AND PUSH1 0x1 PUSH1 0x1 PUSH1 0xA0 SHL SUB SWAP1 SWAP3 AND SWAP2 SWAP1 SWAP2 OR SWAP1 SSTORE JUMP JUMPDEST PUSH1 0x40 MLOAD PUSH3 0x461BCD PUSH1 0xE5 SHL DUP2 MSTORE PUSH1 0x20 PUSH1 0x4 DUP3 ADD MSTORE PUSH1 0x2D PUSH1 0x24 DUP3 ADD MSTORE PUSH32 0x455243313936373A206E657720696D706C656D656E746174696F6E206973206E PUSH1 0x44 DUP3 ADD MSTORE PUSH13 0x1BDD08184818DBDB9D1C9858DD PUSH1 0x9A SHL PUSH1 0x64 DUP3 ADD MSTORE PUSH1 0x84 SWAP1 REVERT JUMPDEST RETURNDATASIZE ISZERO PUSH2 0x16C2 JUMPI RETURNDATASIZE SWAP1 PUSH2 0x16A8 DUP3 PUSH2 0x1488 JUMP JUMPDEST SWAP2 PUSH2 0x16B6 PUSH1 0x40 MLOAD SWAP4 DUP5 PUSH2 0x1466 JUMP JUMPDEST DUP3 MSTORE RETURNDATASIZE PUSH1 0x0 PUSH1 0x20 DUP5 ADD RETURNDATACOPY JUMP JUMPDEST PUSH1 0x60 SWAP1 JUMP JUMPDEST SWAP2 SWAP3 SWAP1 ISZERO PUSH2 0x1729 JUMPI POP DUP2 MLOAD ISZERO PUSH2 0x16DB JUMPI POP SWAP1 JUMP JUMPDEST EXTCODESIZE ISZERO PUSH2 0x16E4 JUMPI SWAP1 JUMP JUMPDEST PUSH1 0x40 MLOAD PUSH3 0x461BCD PUSH1 0xE5 SHL DUP2 MSTORE PUSH1 0x20 PUSH1 0x4 DUP3 ADD MSTORE PUSH1 0x1D PUSH1 0x24 DUP3 ADD MSTORE PUSH32 0x416464726573733A2063616C6C20746F206E6F6E2D636F6E7472616374000000 PUSH1 0x44 DUP3 ADD MSTORE PUSH1 0x64 SWAP1 REVERT JUMPDEST DUP3 MLOAD SWAP1 SWAP2 POP ISZERO PUSH2 0x173C JUMPI POP DUP1 MLOAD SWAP1 PUSH1 0x20 ADD REVERT JUMPDEST PUSH1 0x40 MLOAD SWAP1 PUSH3 0x461BCD PUSH1 0xE5 SHL DUP3 MSTORE DUP2 PUSH1 0x20 DUP1 PUSH1 0x4 DUP4 ADD MSTORE DUP3 MLOAD SWAP1 DUP2 PUSH1 0x24 DUP5 ADD MSTORE PUSH1 0x0 SWAP4 JUMPDEST DUP3 DUP6 LT PUSH2 0x1782 JUMPI POP POP PUSH1 0x44 SWAP3 POP PUSH1 0x0 DUP4 DUP3 DUP5 ADD ADD MSTORE PUSH1 0x1F DUP1 NOT SWAP2 ADD AND DUP2 ADD SUB ADD SWAP1 REVERT JUMPDEST DUP5 DUP2 ADD DUP3 ADD MLOAD DUP7 DUP7 ADD PUSH1 0x44 ADD MSTORE SWAP4 DUP2 ADD SWAP4 DUP6 SWAP4 POP PUSH2 0x175F JUMP JUMPDEST ISZERO PUSH2 0x17A2 JUMPI JUMP JUMPDEST PUSH1 0x40 MLOAD PUSH3 0x461BCD PUSH1 0xE5 SHL DUP2 MSTORE PUSH1 0x20 PUSH1 0x4 DUP3 ADD MSTORE PUSH1 0x2B PUSH1 0x24 DUP3 ADD MSTORE PUSH32 0x496E697469616C697A61626C653A20636F6E7472616374206973206E6F742069 PUSH1 0x44 DUP3 ADD MSTORE PUSH11 0x6E697469616C697A696E67 PUSH1 0xA8 SHL PUSH1 0x64 DUP3 ADD MSTORE PUSH1 0x84 SWAP1 REVERT JUMPDEST PUSH1 0xFF PUSH1 0xC9 SLOAD AND PUSH2 0x1807 JUMPI JUMP JUMPDEST PUSH1 0x40 MLOAD PUSH3 0x461BCD PUSH1 0xE5 SHL DUP2 MSTORE PUSH1 0x20 PUSH1 0x4 DUP3 ADD MSTORE PUSH1 0x10 PUSH1 0x24 DUP3 ADD MSTORE PUSH16 0x14185D5CD8589B194E881C185D5CD959 PUSH1 0x82 SHL PUSH1 0x44 DUP3 ADD MSTORE PUSH1 0x64 SWAP1 REVERT JUMPDEST SWAP5 SWAP3 SWAP2 SWAP1 SWAP2 TIMESTAMP DUP2 LT PUSH2 0x1904 JUMPI PUSH2 0xFFFF PUSH1 0x40 MLOAD SWAP3 PUSH1 0xFF PUSH1 0x20 DUP6 ADD SWAP6 PUSH32 0x93B338C5ABB380A56289B4286880405D1BF5CDBED463F75AB377CA7DCCB6E3F2 DUP8 MSTORE PUSH1 0x1 DUP1 PUSH1 0xA0 SHL SUB DUP1 SWAP11 AND PUSH1 0x40 DUP8 ADD MSTORE AND PUSH1 0x60 DUP6 ADD MSTORE AND PUSH1 0x80 DUP4 ADD MSTORE PUSH1 0xA0 DUP3 ADD MSTORE PUSH1 0xA0 DUP2 MSTORE PUSH2 0x18A9 DUP2 PUSH2 0x144A JUMP JUMPDEST MLOAD SWAP1 KECCAK256 SWAP2 PUSH2 0x133 SLOAD PUSH1 0x40 MLOAD SWAP4 PUSH1 0x20 DUP6 ADD SWAP2 PUSH2 0x1901 PUSH1 0xF0 SHL DUP4 MSTORE PUSH1 0x22 DUP7 ADD MSTORE PUSH1 0x42 DUP6 ADD MSTORE PUSH1 0x42 DUP5 MSTORE PUSH1 0x80 DUP5 ADD SWAP4 DUP1 DUP6 LT PUSH8 0xFFFFFFFFFFFFFFFF DUP7 GT OR PUSH2 0x1418 JUMPI PUSH2 0x18F7 SWAP5 PUSH1 0x40 MSTORE MLOAD SWAP1 KECCAK256 PUSH2 0x1928 JUMP JUMPDEST SWAP1 DUP1 PUSH2 0x12D SLOAD AND SWAP2 AND EQ SWAP1 JUMP JUMPDEST POP POP POP POP POP POP PUSH1 0x0 SWAP1 JUMP JUMPDEST SWAP6 PUSH1 0xFF AND PUSH1 0xFF DUP3 AND LT PUSH2 0x1904 JUMPI PUSH2 0x1925 SWAP6 PUSH2 0x183F JUMP JUMPDEST SWAP1 JUMP JUMPDEST SWAP2 PUSH1 0x41 SUB PUSH2 0x19C9 JUMPI PUSH1 0x40 DUP2 ADD CALLDATALOAD PUSH1 0x0 BYTE PUSH1 0x1B DUP2 LT PUSH2 0x19A7 JUMPI JUMPDEST PUSH1 0xFF AND SWAP1 PUSH1 0x1B DUP3 EQ ISZERO DUP1 PUSH2 0x199C JUMPI JUMPDEST PUSH2 0x1994 JUMPI PUSH1 0x20 SWAP3 DUP4 PUSH1 0x80 SWAP3 PUSH1 0x0 SWAP5 PUSH1 0x40 MLOAD SWAP4 DUP5 MSTORE DUP3 DUP5 ADD MSTORE DUP1 CALLDATALOAD PUSH1 0x40 DUP5 ADD MSTORE ADD CALLDATALOAD PUSH1 0x60 DUP3 ADD MSTORE DUP3 DUP1 MSTORE PUSH1 0x1 GAS STATICCALL ISZERO PUSH2 0x1988 JUMPI PUSH1 0x0 MLOAD SWAP1 JUMP JUMPDEST PUSH1 0x40 MLOAD RETURNDATASIZE PUSH1 0x0 DUP3 RETURNDATACOPY RETURNDATASIZE SWAP1 REVERT JUMPDEST POP POP POP PUSH1 0x0 SWAP1 JUMP JUMPDEST POP PUSH1 0x1C DUP3 EQ ISZERO PUSH2 0x1950 JUMP JUMPDEST PUSH1 0x1B ADD PUSH1 0xFF DUP2 GT ISZERO PUSH2 0x1941 JUMPI PUSH4 0x4E487B71 PUSH1 0xE0 SHL PUSH1 0x0 MSTORE PUSH1 0x11 PUSH1 0x4 MSTORE PUSH1 0x24 PUSH1 0x0 REVERT JUMPDEST POP POP PUSH1 0x0 SWAP1 JUMP INVALID CALLDATASIZE ADDMOD SWAP5 LOG1 EXTCODESIZE LOG1 LOG3 0x21 MOD PUSH8 0xC828492DB98DCA3E KECCAK256 PUSH23 0xCC3735A920A3CA505D382BBCA264697066735822122078 PUSH28 0x9F279E9812051CA7516904B26259DD6A4D0DDE1A8F799171A5187A8D SWAP11 0x2B PUSH5 0x736F6C6343 STOP ADDMOD EQ STOP CALLER "},"methodIdentifiers":{"LEVEL_ACCREDITED()":"f11db544","LEVEL_BASIC()":"1815c8eb","LEVEL_INSTITUTIONAL()":"d90fc8b1","LEVEL_NONE()":"a511c367","LEVEL_STANDARD()":"7b0240b1","domainSeparator()":"f698da25","emergencyWithdraw()":"db2e21bc","feeRecipient()":"46904840","getRegistrationInfo(address)":"1545c238","initialize(address,uint256,address)":"c350a1b5","isRegistered(address)":"c3c5a547","owner()":"8da5cb5b","pause()":"8456cb59","paused()":"5c975abb","proxiableUUID()":"52d1902d","registerWithProof(uint8,uint16,uint256,bytes)":"51696eaf","registeredAt(address)":"aaea3d9c","registrationFee()":"14c44e09","renounceOwnership()":"715018a6","setFeeRecipient(address)":"e74b981b","setRegistrationFee(uint256)":"c320c727","setTrustedSigner(address)":"56a1c701","totalFeesCollected()":"60c6d8ae","transferOwnership(address)":"f2fde38b","trustedSigner()":"f74d5480","unpause()":"3f4ba83a","upgradeTo(address)":"3659cfe6","upgradeToAndCall(address,bytes)":"4f1ef286","verify(address,uint8,uint16,uint256,bytes)":"3b52c24a","verifyOrRevert(address,uint8,uint16,uint256,bytes)":"d285b081","verifyWithMinLevel(address,uint8,uint16,uint256,bytes,uint8)":"1cf4135d"}},"storageLayout":{"storage":[{"astId":505,"contract":"contracts/KYCVerifier.sol:KYCVerifier","label":"_initialized","offset":0,"slot":"0","type":"t_uint8"},{"astId":508,"contract":"contracts/KYCVerifier.sol:KYCVerifier","label":"_initializing","offset":1,"slot":"0","type":"t_bool"},{"astId":1397,"contract":"contracts/KYCVerifier.sol:KYCVerifier","label":"__gap","offset":0,"slot":"1","type":"t_array(t_uint256)50_storage"},{"astId":11,"contract":"contracts/KYCVerifier.sol:KYCVerifier","label":"_owner","offset":0,"slot":"51","type":"t_address"},{"astId":131,"contract":"contracts/KYCVerifier.sol:KYCVerifier","label":"__gap","offset":0,"slot":"52","type":"t_array(t_uint256)49_storage"},{"astId":487,"contract":"contracts/KYCVerifier.sol:KYCVerifier","label":"__gap","offset":0,"slot":"101","type":"t_array(t_uint256)50_storage"},{"astId":803,"contract":"contracts/KYCVerifier.sol:KYCVerifier","label":"__gap","offset":0,"slot":"151","type":"t_array(t_uint256)50_storage"},{"astId":826,"contract":"contracts/KYCVerifier.sol:KYCVerifier","label":"_paused","offset":0,"slot":"201","type":"t_bool"},{"astId":931,"contract":"contracts/KYCVerifier.sol:KYCVerifier","label":"__gap","offset":0,"slot":"202","type":"t_array(t_uint256)49_storage"},{"astId":947,"contract":"contracts/KYCVerifier.sol:KYCVerifier","label":"_status","offset":0,"slot":"251","type":"t_uint256"},{"astId":1016,"contract":"contracts/KYCVerifier.sol:KYCVerifier","label":"__gap","offset":0,"slot":"252","type":"t_array(t_uint256)49_storage"},{"astId":1549,"contract":"contracts/KYCVerifier.sol:KYCVerifier","label":"trustedSigner","offset":0,"slot":"301","type":"t_address"},{"astId":1552,"contract":"contracts/KYCVerifier.sol:KYCVerifier","label":"registrationFee","offset":0,"slot":"302","type":"t_uint256"},{"astId":1555,"contract":"contracts/KYCVerifier.sol:KYCVerifier","label":"feeRecipient","offset":0,"slot":"303","type":"t_address"},{"astId":1560,"contract":"contracts/KYCVerifier.sol:KYCVerifier","label":"isRegistered","offset":0,"slot":"304","type":"t_mapping(t_address,t_bool)"},{"astId":1565,"contract":"contracts/KYCVerifier.sol:KYCVerifier","label":"registeredAt","offset":0,"slot":"305","type":"t_mapping(t_address,t_uint256)"},{"astId":1568,"contract":"contracts/KYCVerifier.sol:KYCVerifier","label":"totalFeesCollected","offset":0,"slot":"306","type":"t_uint256"},{"astId":1571,"contract":"contracts/KYCVerifier.sol:KYCVerifier","label":"_domainSeparator","offset":0,"slot":"307","type":"t_bytes32"}],"types":{"t_address":{"encoding":"inplace","label":"address","numberOfBytes":"20"},"t_array(t_uint256)49_storage":{"base":"t_uint256","encoding":"inplace","label":"uint256[49]","numberOfBytes":"1568"},"t_array(t_uint256)50_storage":{"base":"t_uint256","encoding":"inplace","label":"uint256[50]","numberOfBytes":"1600"},"t_bool":{"encoding":"inplace","label":"bool","numberOfBytes":"1"},"t_bytes32":{"encoding":"inplace","label":"bytes32","numberOfBytes":"32"},"t_mapping(t_address,t_bool)":{"encoding":"mapping","key":"t_address","label":"mapping(address => bool)","numberOfBytes":"32","value":"t_bool"},"t_mapping(t_address,t_uint256)":{"encoding":"mapping","key":"t_address","label":"mapping(address => uint256)","numberOfBytes":"32","value":"t_uint256"},"t_uint256":{"encoding":"inplace","label":"uint256","numberOfBytes":"32"},"t_uint8":{"encoding":"inplace","label":"uint8","numberOfBytes":"1"}}}}}}