{
  "_format": "hh-sol-artifact-1",
  "contractName": "RWAProjectNFT",
  "sourceName": "contracts/core/RWAProjectNFT.sol",
  "abi": [
    {
      "inputs": [],
      "name": "InvalidStatus",
      "type": "error"
    },
    {
      "inputs": [],
      "name": "InvalidStatusTransition",
      "type": "error"
    },
    {
      "inputs": [],
      "name": "NameAlreadyExists",
      "type": "error"
    },
    {
      "inputs": [],
      "name": "NotAuthorized",
      "type": "error"
    },
    {
      "inputs": [],
      "name": "NotProjectOwner",
      "type": "error"
    },
    {
      "inputs": [],
      "name": "ProjectNotFound",
      "type": "error"
    },
    {
      "inputs": [],
      "name": "SoulboundToken",
      "type": "error"
    },
    {
      "inputs": [],
      "name": "ZeroAddress",
      "type": "error"
    },
    {
      "anonymous": false,
      "inputs": [
        {
          "indexed": false,
          "internalType": "address",
          "name": "previousAdmin",
          "type": "address"
        },
        {
          "indexed": false,
          "internalType": "address",
          "name": "newAdmin",
          "type": "address"
        }
      ],
      "name": "AdminChanged",
      "type": "event"
    },
    {
      "anonymous": false,
      "inputs": [
        {
          "indexed": true,
          "internalType": "address",
          "name": "owner",
          "type": "address"
        },
        {
          "indexed": true,
          "internalType": "address",
          "name": "approved",
          "type": "address"
        },
        {
          "indexed": true,
          "internalType": "uint256",
          "name": "tokenId",
          "type": "uint256"
        }
      ],
      "name": "Approval",
      "type": "event"
    },
    {
      "anonymous": false,
      "inputs": [
        {
          "indexed": true,
          "internalType": "address",
          "name": "owner",
          "type": "address"
        },
        {
          "indexed": true,
          "internalType": "address",
          "name": "operator",
          "type": "address"
        },
        {
          "indexed": false,
          "internalType": "bool",
          "name": "approved",
          "type": "bool"
        }
      ],
      "name": "ApprovalForAll",
      "type": "event"
    },
    {
      "anonymous": false,
      "inputs": [
        {
          "indexed": false,
          "internalType": "uint256",
          "name": "_fromTokenId",
          "type": "uint256"
        },
        {
          "indexed": false,
          "internalType": "uint256",
          "name": "_toTokenId",
          "type": "uint256"
        }
      ],
      "name": "BatchMetadataUpdate",
      "type": "event"
    },
    {
      "anonymous": false,
      "inputs": [
        {
          "indexed": true,
          "internalType": "address",
          "name": "beacon",
          "type": "address"
        }
      ],
      "name": "BeaconUpgraded",
      "type": "event"
    },
    {
      "anonymous": false,
      "inputs": [
        {
          "indexed": true,
          "internalType": "uint256",
          "name": "tokenId",
          "type": "uint256"
        },
        {
          "indexed": false,
          "internalType": "address",
          "name": "escrowVault",
          "type": "address"
        }
      ],
      "name": "EscrowVaultLinked",
      "type": "event"
    },
    {
      "anonymous": false,
      "inputs": [
        {
          "indexed": true,
          "internalType": "uint256",
          "name": "tokenId",
          "type": "uint256"
        },
        {
          "indexed": false,
          "internalType": "uint256",
          "name": "totalRaised",
          "type": "uint256"
        }
      ],
      "name": "FundingUpdated",
      "type": "event"
    },
    {
      "anonymous": false,
      "inputs": [
        {
          "indexed": false,
          "internalType": "uint8",
          "name": "version",
          "type": "uint8"
        }
      ],
      "name": "Initialized",
      "type": "event"
    },
    {
      "anonymous": false,
      "inputs": [
        {
          "indexed": false,
          "internalType": "uint256",
          "name": "_tokenId",
          "type": "uint256"
        }
      ],
      "name": "MetadataUpdate",
      "type": "event"
    },
    {
      "anonymous": false,
      "inputs": [
        {
          "indexed": true,
          "internalType": "uint256",
          "name": "tokenId",
          "type": "uint256"
        },
        {
          "indexed": false,
          "internalType": "string",
          "name": "uri",
          "type": "string"
        }
      ],
      "name": "MetadataUpdated",
      "type": "event"
    },
    {
      "anonymous": false,
      "inputs": [
        {
          "indexed": false,
          "internalType": "address",
          "name": "account",
          "type": "address"
        }
      ],
      "name": "Paused",
      "type": "event"
    },
    {
      "anonymous": false,
      "inputs": [
        {
          "indexed": true,
          "internalType": "uint256",
          "name": "tokenId",
          "type": "uint256"
        },
        {
          "indexed": true,
          "internalType": "address",
          "name": "owner",
          "type": "address"
        },
        {
          "indexed": false,
          "internalType": "string",
          "name": "name",
          "type": "string"
        }
      ],
      "name": "ProjectCreated",
      "type": "event"
    },
    {
      "anonymous": false,
      "inputs": [
        {
          "indexed": true,
          "internalType": "uint256",
          "name": "tokenId",
          "type": "uint256"
        },
        {
          "indexed": false,
          "internalType": "enum IRWAProjectNFT.ProjectStatus",
          "name": "oldStatus",
          "type": "uint8"
        },
        {
          "indexed": false,
          "internalType": "enum IRWAProjectNFT.ProjectStatus",
          "name": "newStatus",
          "type": "uint8"
        },
        {
          "indexed": false,
          "internalType": "address",
          "name": "changedBy",
          "type": "address"
        }
      ],
      "name": "ProjectStatusUpdated",
      "type": "event"
    },
    {
      "anonymous": false,
      "inputs": [
        {
          "indexed": true,
          "internalType": "bytes32",
          "name": "role",
          "type": "bytes32"
        },
        {
          "indexed": true,
          "internalType": "bytes32",
          "name": "previousAdminRole",
          "type": "bytes32"
        },
        {
          "indexed": true,
          "internalType": "bytes32",
          "name": "newAdminRole",
          "type": "bytes32"
        }
      ],
      "name": "RoleAdminChanged",
      "type": "event"
    },
    {
      "anonymous": false,
      "inputs": [
        {
          "indexed": true,
          "internalType": "bytes32",
          "name": "role",
          "type": "bytes32"
        },
        {
          "indexed": true,
          "internalType": "address",
          "name": "account",
          "type": "address"
        },
        {
          "indexed": true,
          "internalType": "address",
          "name": "sender",
          "type": "address"
        }
      ],
      "name": "RoleGranted",
      "type": "event"
    },
    {
      "anonymous": false,
      "inputs": [
        {
          "indexed": true,
          "internalType": "bytes32",
          "name": "role",
          "type": "bytes32"
        },
        {
          "indexed": true,
          "internalType": "address",
          "name": "account",
          "type": "address"
        },
        {
          "indexed": true,
          "internalType": "address",
          "name": "sender",
          "type": "address"
        }
      ],
      "name": "RoleRevoked",
      "type": "event"
    },
    {
      "anonymous": false,
      "inputs": [
        {
          "indexed": true,
          "internalType": "uint256",
          "name": "tokenId",
          "type": "uint256"
        },
        {
          "indexed": false,
          "internalType": "address",
          "name": "securityToken",
          "type": "address"
        }
      ],
      "name": "SecurityTokenLinked",
      "type": "event"
    },
    {
      "anonymous": false,
      "inputs": [
        {
          "indexed": true,
          "internalType": "address",
          "name": "from",
          "type": "address"
        },
        {
          "indexed": true,
          "internalType": "address",
          "name": "to",
          "type": "address"
        },
        {
          "indexed": true,
          "internalType": "uint256",
          "name": "tokenId",
          "type": "uint256"
        }
      ],
      "name": "Transfer",
      "type": "event"
    },
    {
      "anonymous": false,
      "inputs": [
        {
          "indexed": false,
          "internalType": "address",
          "name": "account",
          "type": "address"
        }
      ],
      "name": "Unpaused",
      "type": "event"
    },
    {
      "anonymous": false,
      "inputs": [
        {
          "indexed": true,
          "internalType": "address",
          "name": "implementation",
          "type": "address"
        }
      ],
      "name": "Upgraded",
      "type": "event"
    },
    {
      "inputs": [],
      "name": "DEFAULT_ADMIN_ROLE",
      "outputs": [
        {
          "internalType": "bytes32",
          "name": "",
          "type": "bytes32"
        }
      ],
      "stateMutability": "view",
      "type": "function"
    },
    {
      "inputs": [],
      "name": "MANAGER_ROLE",
      "outputs": [
        {
          "internalType": "bytes32",
          "name": "",
          "type": "bytes32"
        }
      ],
      "stateMutability": "view",
      "type": "function"
    },
    {
      "inputs": [],
      "name": "MINTER_ROLE",
      "outputs": [
        {
          "internalType": "bytes32",
          "name": "",
          "type": "bytes32"
        }
      ],
      "stateMutability": "view",
      "type": "function"
    },
    {
      "inputs": [
        {
          "internalType": "address",
          "name": "to",
          "type": "address"
        },
        {
          "internalType": "uint256",
          "name": "tokenId",
          "type": "uint256"
        }
      ],
      "name": "approve",
      "outputs": [],
      "stateMutability": "nonpayable",
      "type": "function"
    },
    {
      "inputs": [
        {
          "internalType": "address",
          "name": "owner",
          "type": "address"
        }
      ],
      "name": "balanceOf",
      "outputs": [
        {
          "internalType": "uint256",
          "name": "",
          "type": "uint256"
        }
      ],
      "stateMutability": "view",
      "type": "function"
    },
    {
      "inputs": [
        {
          "internalType": "address",
          "name": "_owner",
          "type": "address"
        },
        {
          "internalType": "string",
          "name": "_name",
          "type": "string"
        },
        {
          "internalType": "string",
          "name": "_category",
          "type": "string"
        },
        {
          "internalType": "uint256",
          "name": "_fundingGoal",
          "type": "uint256"
        },
        {
          "internalType": "string",
          "name": "_uri",
          "type": "string"
        }
      ],
      "name": "createProject",
      "outputs": [
        {
          "internalType": "uint256",
          "name": "",
          "type": "uint256"
        }
      ],
      "stateMutability": "nonpayable",
      "type": "function"
    },
    {
      "inputs": [
        {
          "internalType": "uint256",
          "name": "tokenId",
          "type": "uint256"
        }
      ],
      "name": "getApproved",
      "outputs": [
        {
          "internalType": "address",
          "name": "",
          "type": "address"
        }
      ],
      "stateMutability": "view",
      "type": "function"
    },
    {
      "inputs": [
        {
          "internalType": "address",
          "name": "_owner",
          "type": "address"
        }
      ],
      "name": "getOwnerProjects",
      "outputs": [
        {
          "internalType": "uint256[]",
          "name": "",
          "type": "uint256[]"
        }
      ],
      "stateMutability": "view",
      "type": "function"
    },
    {
      "inputs": [
        {
          "internalType": "uint256",
          "name": "_tokenId",
          "type": "uint256"
        }
      ],
      "name": "getProject",
      "outputs": [
        {
          "components": [
            {
              "internalType": "address",
              "name": "owner",
              "type": "address"
            },
            {
              "internalType": "address",
              "name": "securityToken",
              "type": "address"
            },
            {
              "internalType": "address",
              "name": "escrowVault",
              "type": "address"
            },
            {
              "internalType": "enum IRWAProjectNFT.ProjectStatus",
              "name": "status",
              "type": "uint8"
            },
            {
              "internalType": "uint256",
              "name": "createdAt",
              "type": "uint256"
            },
            {
              "internalType": "uint256",
              "name": "fundingGoal",
              "type": "uint256"
            },
            {
              "internalType": "uint256",
              "name": "totalRaised",
              "type": "uint256"
            },
            {
              "internalType": "string",
              "name": "name",
              "type": "string"
            },
            {
              "internalType": "string",
              "name": "category",
              "type": "string"
            }
          ],
          "internalType": "struct RWAProjectNFT.ProjectData",
          "name": "",
          "type": "tuple"
        }
      ],
      "stateMutability": "view",
      "type": "function"
    },
    {
      "inputs": [
        {
          "internalType": "bytes32",
          "name": "role",
          "type": "bytes32"
        }
      ],
      "name": "getRoleAdmin",
      "outputs": [
        {
          "internalType": "bytes32",
          "name": "",
          "type": "bytes32"
        }
      ],
      "stateMutability": "view",
      "type": "function"
    },
    {
      "inputs": [
        {
          "internalType": "bytes32",
          "name": "role",
          "type": "bytes32"
        },
        {
          "internalType": "address",
          "name": "account",
          "type": "address"
        }
      ],
      "name": "grantRole",
      "outputs": [],
      "stateMutability": "nonpayable",
      "type": "function"
    },
    {
      "inputs": [
        {
          "internalType": "bytes32",
          "name": "role",
          "type": "bytes32"
        },
        {
          "internalType": "address",
          "name": "account",
          "type": "address"
        }
      ],
      "name": "hasRole",
      "outputs": [
        {
          "internalType": "bool",
          "name": "",
          "type": "bool"
        }
      ],
      "stateMutability": "view",
      "type": "function"
    },
    {
      "inputs": [
        {
          "internalType": "uint256",
          "name": "_tokenId",
          "type": "uint256"
        },
        {
          "internalType": "uint256",
          "name": "_amount",
          "type": "uint256"
        }
      ],
      "name": "incrementTotalRaised",
      "outputs": [],
      "stateMutability": "nonpayable",
      "type": "function"
    },
    {
      "inputs": [
        {
          "internalType": "string",
          "name": "_name",
          "type": "string"
        },
        {
          "internalType": "string",
          "name": "_symbol",
          "type": "string"
        },
        {
          "internalType": "address",
          "name": "_admin",
          "type": "address"
        }
      ],
      "name": "initialize",
      "outputs": [],
      "stateMutability": "nonpayable",
      "type": "function"
    },
    {
      "inputs": [
        {
          "internalType": "address",
          "name": "owner",
          "type": "address"
        },
        {
          "internalType": "address",
          "name": "operator",
          "type": "address"
        }
      ],
      "name": "isApprovedForAll",
      "outputs": [
        {
          "internalType": "bool",
          "name": "",
          "type": "bool"
        }
      ],
      "stateMutability": "view",
      "type": "function"
    },
    {
      "inputs": [
        {
          "internalType": "uint256",
          "name": "_tokenId",
          "type": "uint256"
        },
        {
          "internalType": "address",
          "name": "_escrowVault",
          "type": "address"
        }
      ],
      "name": "linkEscrowVault",
      "outputs": [],
      "stateMutability": "nonpayable",
      "type": "function"
    },
    {
      "inputs": [
        {
          "internalType": "uint256",
          "name": "_tokenId",
          "type": "uint256"
        },
        {
          "internalType": "address",
          "name": "_securityToken",
          "type": "address"
        }
      ],
      "name": "linkSecurityToken",
      "outputs": [],
      "stateMutability": "nonpayable",
      "type": "function"
    },
    {
      "inputs": [],
      "name": "name",
      "outputs": [
        {
          "internalType": "string",
          "name": "",
          "type": "string"
        }
      ],
      "stateMutability": "view",
      "type": "function"
    },
    {
      "inputs": [
        {
          "internalType": "uint256",
          "name": "tokenId",
          "type": "uint256"
        }
      ],
      "name": "ownerOf",
      "outputs": [
        {
          "internalType": "address",
          "name": "",
          "type": "address"
        }
      ],
      "stateMutability": "view",
      "type": "function"
    },
    {
      "inputs": [],
      "name": "pause",
      "outputs": [],
      "stateMutability": "nonpayable",
      "type": "function"
    },
    {
      "inputs": [],
      "name": "paused",
      "outputs": [
        {
          "internalType": "bool",
          "name": "",
          "type": "bool"
        }
      ],
      "stateMutability": "view",
      "type": "function"
    },
    {
      "inputs": [
        {
          "internalType": "uint256",
          "name": "_tokenId",
          "type": "uint256"
        }
      ],
      "name": "projectExists",
      "outputs": [
        {
          "internalType": "bool",
          "name": "",
          "type": "bool"
        }
      ],
      "stateMutability": "view",
      "type": "function"
    },
    {
      "inputs": [
        {
          "internalType": "uint256",
          "name": "",
          "type": "uint256"
        }
      ],
      "name": "projects",
      "outputs": [
        {
          "internalType": "address",
          "name": "owner",
          "type": "address"
        },
        {
          "internalType": "address",
          "name": "securityToken",
          "type": "address"
        },
        {
          "internalType": "address",
          "name": "escrowVault",
          "type": "address"
        },
        {
          "internalType": "enum IRWAProjectNFT.ProjectStatus",
          "name": "status",
          "type": "uint8"
        },
        {
          "internalType": "uint256",
          "name": "createdAt",
          "type": "uint256"
        },
        {
          "internalType": "uint256",
          "name": "fundingGoal",
          "type": "uint256"
        },
        {
          "internalType": "uint256",
          "name": "totalRaised",
          "type": "uint256"
        },
        {
          "internalType": "string",
          "name": "name",
          "type": "string"
        },
        {
          "internalType": "string",
          "name": "category",
          "type": "string"
        }
      ],
      "stateMutability": "view",
      "type": "function"
    },
    {
      "inputs": [],
      "name": "proxiableUUID",
      "outputs": [
        {
          "internalType": "bytes32",
          "name": "",
          "type": "bytes32"
        }
      ],
      "stateMutability": "view",
      "type": "function"
    },
    {
      "inputs": [
        {
          "internalType": "bytes32",
          "name": "role",
          "type": "bytes32"
        },
        {
          "internalType": "address",
          "name": "account",
          "type": "address"
        }
      ],
      "name": "renounceRole",
      "outputs": [],
      "stateMutability": "nonpayable",
      "type": "function"
    },
    {
      "inputs": [
        {
          "internalType": "bytes32",
          "name": "role",
          "type": "bytes32"
        },
        {
          "internalType": "address",
          "name": "account",
          "type": "address"
        }
      ],
      "name": "revokeRole",
      "outputs": [],
      "stateMutability": "nonpayable",
      "type": "function"
    },
    {
      "inputs": [
        {
          "internalType": "address",
          "name": "from",
          "type": "address"
        },
        {
          "internalType": "address",
          "name": "to",
          "type": "address"
        },
        {
          "internalType": "uint256",
          "name": "tokenId",
          "type": "uint256"
        }
      ],
      "name": "safeTransferFrom",
      "outputs": [],
      "stateMutability": "nonpayable",
      "type": "function"
    },
    {
      "inputs": [
        {
          "internalType": "address",
          "name": "",
          "type": "address"
        },
        {
          "internalType": "address",
          "name": "",
          "type": "address"
        },
        {
          "internalType": "uint256",
          "name": "",
          "type": "uint256"
        },
        {
          "internalType": "bytes",
          "name": "",
          "type": "bytes"
        }
      ],
      "name": "safeTransferFrom",
      "outputs": [],
      "stateMutability": "pure",
      "type": "function"
    },
    {
      "inputs": [
        {
          "internalType": "address",
          "name": "operator",
          "type": "address"
        },
        {
          "internalType": "bool",
          "name": "approved",
          "type": "bool"
        }
      ],
      "name": "setApprovalForAll",
      "outputs": [],
      "stateMutability": "nonpayable",
      "type": "function"
    },
    {
      "inputs": [
        {
          "internalType": "bytes4",
          "name": "interfaceId",
          "type": "bytes4"
        }
      ],
      "name": "supportsInterface",
      "outputs": [
        {
          "internalType": "bool",
          "name": "",
          "type": "bool"
        }
      ],
      "stateMutability": "view",
      "type": "function"
    },
    {
      "inputs": [],
      "name": "symbol",
      "outputs": [
        {
          "internalType": "string",
          "name": "",
          "type": "string"
        }
      ],
      "stateMutability": "view",
      "type": "function"
    },
    {
      "inputs": [
        {
          "internalType": "uint256",
          "name": "index",
          "type": "uint256"
        }
      ],
      "name": "tokenByIndex",
      "outputs": [
        {
          "internalType": "uint256",
          "name": "",
          "type": "uint256"
        }
      ],
      "stateMutability": "view",
      "type": "function"
    },
    {
      "inputs": [
        {
          "internalType": "address",
          "name": "owner",
          "type": "address"
        },
        {
          "internalType": "uint256",
          "name": "index",
          "type": "uint256"
        }
      ],
      "name": "tokenOfOwnerByIndex",
      "outputs": [
        {
          "internalType": "uint256",
          "name": "",
          "type": "uint256"
        }
      ],
      "stateMutability": "view",
      "type": "function"
    },
    {
      "inputs": [
        {
          "internalType": "uint256",
          "name": "tokenId",
          "type": "uint256"
        }
      ],
      "name": "tokenURI",
      "outputs": [
        {
          "internalType": "string",
          "name": "",
          "type": "string"
        }
      ],
      "stateMutability": "view",
      "type": "function"
    },
    {
      "inputs": [],
      "name": "totalProjects",
      "outputs": [
        {
          "internalType": "uint256",
          "name": "",
          "type": "uint256"
        }
      ],
      "stateMutability": "view",
      "type": "function"
    },
    {
      "inputs": [],
      "name": "totalSupply",
      "outputs": [
        {
          "internalType": "uint256",
          "name": "",
          "type": "uint256"
        }
      ],
      "stateMutability": "view",
      "type": "function"
    },
    {
      "inputs": [
        {
          "internalType": "address",
          "name": "",
          "type": "address"
        },
        {
          "internalType": "address",
          "name": "",
          "type": "address"
        },
        {
          "internalType": "uint256",
          "name": "",
          "type": "uint256"
        }
      ],
      "name": "transferFrom",
      "outputs": [],
      "stateMutability": "pure",
      "type": "function"
    },
    {
      "inputs": [],
      "name": "unpause",
      "outputs": [],
      "stateMutability": "nonpayable",
      "type": "function"
    },
    {
      "inputs": [
        {
          "internalType": "uint256",
          "name": "_tokenId",
          "type": "uint256"
        },
        {
          "internalType": "string",
          "name": "_uri",
          "type": "string"
        }
      ],
      "name": "updateMetadata",
      "outputs": [],
      "stateMutability": "nonpayable",
      "type": "function"
    },
    {
      "inputs": [
        {
          "internalType": "uint256",
          "name": "_tokenId",
          "type": "uint256"
        },
        {
          "internalType": "enum IRWAProjectNFT.ProjectStatus",
          "name": "_status",
          "type": "uint8"
        }
      ],
      "name": "updateProjectStatus",
      "outputs": [],
      "stateMutability": "nonpayable",
      "type": "function"
    },
    {
      "inputs": [
        {
          "internalType": "uint256",
          "name": "_tokenId",
          "type": "uint256"
        },
        {
          "internalType": "uint256",
          "name": "_amount",
          "type": "uint256"
        }
      ],
      "name": "updateTotalRaised",
      "outputs": [],
      "stateMutability": "nonpayable",
      "type": "function"
    },
    {
      "inputs": [
        {
          "internalType": "address",
          "name": "newImplementation",
          "type": "address"
        }
      ],
      "name": "upgradeTo",
      "outputs": [],
      "stateMutability": "nonpayable",
      "type": "function"
    },
    {
      "inputs": [
        {
          "internalType": "address",
          "name": "newImplementation",
          "type": "address"
        },
        {
          "internalType": "bytes",
          "name": "data",
          "type": "bytes"
        }
      ],
      "name": "upgradeToAndCall",
      "outputs": [],
      "stateMutability": "payable",
      "type": "function"
    }
  ],
  "bytecode": "0x60a0806040523461003157306080526139f1908161003782396080518181816114940152818161162e015261195f0152f35b600080fdfe608080604052600436101561001357600080fd5b60003560e01c90816301ffc9a7146127c45750806306fdde0314612730578063077f224a1461212e578063081812fc146120d7578063095ea7b314611f5d578063107046bd14611e9c57806318160ddd14611e7e57806323b872dd14611e5b578063246f220b14611da6578063248a9ca314611d775780632aec93a114611cdc5780632f2ff15d14611c3b5780632f745c5914611b8957806336568abe14611af75780633659cfe61461193a5780633f4ba83a146118a557806342842e0e146118735780634f1ef286146115f05780634f6ccce71461154557806352d1902d1461148157806353c8388e146113325780635c975abb1461130e5780636352211e146112de578063638616a61461124e578063703d52af1461121357806370a08231146111e85780638456cb591461118d57806391d148541461114057806395d89b411461105e5780639c361e4e1461103f578063a217fddf14611023578063a22cb46514610f51578063b88d4fde14610efc578063bdae7bdd14610e61578063c87b56dd14610def578063c972f50114610d7c578063d11d498b14610d53578063d539139314610d18578063d547741f14610cd7578063e985e9c514610c81578063eb5a801e14610404578063ec87621c146103db5763f0f3f2c8146101f857600080fd5b346103d65760203660031901126103d657600435606061010060405161021d816128c5565b60008152600060208201526000604082015260008382015260006080820152600060a0820152600060c08201528260e0820152015280600052606760205260018060a01b0360406000205416156103c4576000526101c46020526040600020604051610288816128c5565b81546001600160a01b0390811682526001830154811660208301526002830154908116604083015260a01c60ff169160058310156103ae576007610304916103aa94606085015260038101546080850152600481015460a0850152600581015460c08501526102f960068201612a29565b60e085015201612a29565b6101008201526040519182916020835260018060a01b03815116602084015260018060a01b03602082015116604084015260018060a01b03604082015116606084015261035960608201516080850190612acf565b608081015160a084015260a081015160c084015260c081015160e084015260e08101516101006103966101209283838801526101408701906128a0565b92015190601f1985840301908501526128a0565b0390f35b634e487b7160e01b600052602160045260246000fd5b604051632627b46560e11b8152600490fd5b600080fd5b346103d65760003660031901126103d657602060405160008051602061399c8339815191528152f35b346103d65760a03660031901126103d65761041d6129c3565b6024356001600160401b0381116103d65761043c903690600401612b11565b906044356001600160401b0381116103d65761045c903690600401612b11565b6084939193356001600160401b0381116103d65761047e903690600401612b11565b3360009081527f72f2994cda805697ff5940dc92bd4118d9d7058b657a897ee8a2023e4f6734346020526040902054919590917f9f2df0fed2c77648de5860a4cc508cd0818c85b8b8a1ab4ceeef8d981c8956a69060ff1615610b0657506104e461344d565b6001600160a01b03871615610af45760ff604051858782376020818781016101c68152030190205416610ae2576101c354956000198714610acc57600187016101c355604051610533816128e1565b60008082528881526067602052604090205461055b906001600160a01b031615155b156134e5565b60cb54908860005260cc60205281604060002055600160401b82101561091357600182018060cb558210156108fd57886106749260cb6000527fa7ce836d032b2bf62b7e2097a8e0a6d8aeb35405ad15271e96d3b0188a1d06fb01556105c08a613127565b6001600160a01b038b8116600090815260c96020908152604080832085845282528083208e90558d835260ca82528083209490945560679052919091205461060a91161515610555565b6001600160a01b038a166000818152606860209081526040808320805460010190558c83526067909152812080546001600160a01b031916831790558a91907fddf252ad1be2c89b69c2b068fc378daa952ba7f163c4a11628f55a4df523b3ef8180a4888a613531565b15610aaf5761068b610691916106eb94369161296e565b87613629565b6040519261069e846128c5565b6001600160a01b0388168452600060208501819052604085018190526060850181905242608086015260643560a086015260c08501526106df36868861296e565b60e0850152369161296e565b610100820152836000526101c460205260406000209060018060a01b038151166001600160601b0360a01b8354161782556001820160018060a01b036020830151166001600160601b0360a01b8254161790556002820160018060a01b036040830151166001600160601b0360a01b825416178155606082015160058110156103ae5761077791613401565b6080810151600383015560a0810151600483015560c0810151600583015560e08101518051906001600160401b038211610913576107b860068501546129ef565b601f8111610a68575b50602090601f83116001146109f457610100939291600091836109e9575b50508160011b916000199060031b1c19161760068401555b01518051906001600160401b0382116109135761081760078401546129ef565b601f81116109a2575b50602090601f8311600114610934576007929160009183610929575b50508160011b916000199060031b1c1916179101555b6001600160a01b03841660009081526101c56020526040902080549091600160401b82101561091357600182018084558210156108fd57602095857f9d9ec461f162f3f4fdb9f6d189bfe13c59e48d8acd23a4c3bfcf7cc0fe4e84ed9381956000528860002001556040518286823787818481016101c6815203019020600160ff198254161790556108f260405192839260018060a01b03169683613425565b0390a3604051908152f35b634e487b7160e01b600052603260045260246000fd5b634e487b7160e01b600052604160045260246000fd5b01519050888061083c565b90601f198316916007850160005260206000209260005b81811061098a57509160019391856007969410610971575b505050811b01910155610852565b015160001960f88460031b161c19169055888080610963565b9293602060018192878601518155019501930161094b565b600784016000526020600020601f840160051c8101602085106109e2575b601f830160051c820181106109d6575050610820565b600081556001016109c0565b50806109c0565b0151905089806107df565b906006850160005260206000209160005b601f1985168110610a5057509183916001936101009695601f19811610610a37575b505050811b0160068401556107f7565b015160001960f88460031b161c19169055898080610a27565b91926020600181928685015181550194019201610a05565b600685016000526020600020601f840160051c810160208510610aa8575b601f830160051c82018110610a9c5750506107c1565b60008155600101610a86565b5080610a86565b60405162461bcd60e51b815280610ac860048201613492565b0390fd5b634e487b7160e01b600052601160045260246000fd5b604051633480a50360e21b8152600490fd5b60405163d92e233d60e01b8152600490fd5b610b0f336132e7565b60405191610b1c83612917565b60428352602083019060603683378351156108fd576030825383516001908110156108fd57607860218601536041905b808211610c3d575050610bf9576048610bca92610bd992610ac89560405195869376020b1b1b2b9b9a1b7b73a3937b61d1030b1b1b7bab73a1604d1b6020860152610ba181518092602060378901910161287d565b8401917001034b99036b4b9b9b4b733903937b6329607d1b60378401525180938684019061287d565b01036028810184520182612932565b60405162461bcd60e51b81526020600482015291829160248301906128a0565b606460405162461bcd60e51b815260206004820152602060248201527f537472696e67733a20686578206c656e67746820696e73756666696369656e746044820152fd5b9091600f811660108110156108fd576f181899199a1a9b1b9c1cb0b131b232b360811b901a610c6c84886132d6565b5360041c918015610acc576000190190610b4c565b346103d65760403660031901126103d657610c9a6129c3565b610ca26129d9565b9060018060a01b03809116600052606a60205260406000209116600052602052602060ff604060002054166040519015158152f35b346103d65760403660031901126103d657610d16600435610cf66129d9565b908060005260fb602052610d11600160406000200154612e54565b612f5f565b005b346103d65760003660031901126103d65760206040517f9f2df0fed2c77648de5860a4cc508cd0818c85b8b8a1ab4ceeef8d981c8956a68152f35b346103d65760403660031901126103d65760243560058110156103d657610d1690600435613817565b346103d657610d8a36612b3e565b610d92612b54565b6000828152606760205260409020546001600160a01b0316156103c45760207fa0159d36543995d812f4c98985d9b7442f5dbf089788e868e8ee1fffc3635ae891836000526101c4825280600560406000200155604051908152a2005b346103d65760203660031901126103d657600435600081815260676020526040902054610e26906001600160a01b0316151561319e565b60005260976020526103aa610e3e6040600020612a29565b6000604051610e4c816128e1565b526040519182916020835260208301906128a0565b346103d65760403660031901126103d657600435610e7d6129d9565b610e85612b54565b6000828152606760205260409020546001600160a01b0391908216156103c457168015610af45760207f3f79358fc9c276bdce4744c44e876fe6f93237802e1d166aaec50c006c6184de91836000526101c482526002604060002001816001600160601b0360a01b825416179055604051908152a2005b346103d65760803660031901126103d657610f156129c3565b50610f1e6129d9565b506064356001600160401b0381116103d657610f3e9036906004016129a5565b50604051636e10574960e01b8152600490fd5b346103d65760403660031901126103d657610f6a6129c3565b602435908115158092036103d6576001600160a01b031690338214610fde5733600052606a602052604060002082600052602052604060002060ff1981541660ff83161790556040519081527f17307eab39ab6107e8899845ad3d59bd9653f200f220920489ca2b5937696c3160203392a3005b60405162461bcd60e51b815260206004820152601960248201527f4552433732313a20617070726f766520746f2063616c6c6572000000000000006044820152606490fd5b346103d65760003660031901126103d657602060405160008152f35b346103d65760003660031901126103d65760206101c354604051908152f35b346103d65760003660031901126103d6576040516000606654611080816129ef565b8084529060019081811690811561111957506001146110be575b6103aa846110aa81860382612932565b6040519182916020835260208301906128a0565b6066600090815292507f46501879b8ca8525e8c2fd519e2fbfcfa2ebea26501294aa02cbfcfb12e943545b8284106111015750505081016020016110aa8261109a565b805460208587018101919091529093019281016110e9565b60ff191660208087019190915292151560051b850190920192506110aa915083905061109a565b346103d65760403660031901126103d6576111596129d9565b60043560005260fb60205260406000209060018060a01b0316600052602052602060ff604060002054166040519015158152f35b346103d65760003660031901126103d6576111a6612d30565b6111ae61344d565b610191600160ff198254161790557f62e78cea01bee320cd4e420270b5ea74000d11b0c9f74754ebdbfc544b05a2586020604051338152a1005b346103d65760203660031901126103d657602061120b6112066129c3565b613127565b604051908152f35b346103d65760203660031901126103d6576004356000908152606760209081526040909120546001600160a01b031615156040519015158152f35b346103d65761125c36612b3e565b611264612b54565b6000828152606760205260409020546001600160a01b0316156103c457816000526101c4908160205260056040600020018054918201809211610acc5755816000526020527fa0159d36543995d812f4c98985d9b7442f5dbf089788e868e8ee1fffc3635ae86020600560406000200154604051908152a2005b346103d65760203660031901126103d65760206112fc6004356131ea565b6040516001600160a01b039091168152f35b346103d65760003660031901126103d657602060ff61019154166040519015158152f35b346103d65760403660031901126103d6576004356024356001600160401b0381116103d657611365903690600401612b11565b6000838152606760205260409020546001600160a01b03908116156103c45760008481526101c460209081526040808320338085527f9416d2083cd31e86d1caeb352ca1a050bf600cfed6f282b61287b6e5faf220ee90935292205482549293909216149060ff16158080611479575b611467578161145f575b50611430575b507f459157ba24c7ab9878b165ef465fa6ae2ab42bcd8445f576be378768b0c473099161141c61141636848461296e565b85613629565b61142b60405192839283613425565b0390a2005b6002015460a01c60ff1660058110156103ae5761144d57836113e5565b60405163088bd32360e11b8152600490fd5b9050856113df565b60405163ea8e4eb560e01b8152600490fd5b5081156113d5565b346103d65760003660031901126103d6577f00000000000000000000000000000000000000000000000000000000000000006001600160a01b031630036114da57602060405160008051602061397c8339815191528152f35b60405162461bcd60e51b815260206004820152603860248201527f555550535570677261646561626c653a206d757374206e6f742062652063616c60448201527f6c6564207468726f7567682064656c656761746563616c6c00000000000000006064820152608490fd5b346103d65760203660031901126103d65760043560cb548110156115965760209060cb6000527fa7ce836d032b2bf62b7e2097a8e0a6d8aeb35405ad15271e96d3b0188a1d06fb0154604051908152f35b60405162461bcd60e51b815260206004820152602c60248201527f455243373231456e756d657261626c653a20676c6f62616c20696e646578206f60448201526b7574206f6620626f756e647360a01b6064820152608490fd5b60403660031901126103d6576116046129c3565b6024356001600160401b0381116103d6576116239036906004016129a5565b906001600160a01b037f000000000000000000000000000000000000000000000000000000000000000081169061165c30831415612fd5565b61167960008051602061397c833981519152928284541614613036565b611681612d30565b7f4910fdfa16fed3260ed0e7147f7cc6da11a60208b5b9406d12a635614ffd91435460ff16156116b7575050610d169150613097565b6040516352d1902d60e01b81526020939291831691908481600481865afa60009181611844575b5061173f5760405162461bcd60e51b815260048101869052602e60248201527f45524331393637557067726164653a206e657720696d706c656d656e7461746960448201526d6f6e206973206e6f74205555505360901b6064820152608490fd5b036117ed5761174d82613097565b7fbc7cd75a20ee27fd9adebab32041f755214dbc6bffa90cc0225b39da2e5c2d3b600080a28251158015906117e5575b61178357005b600080610d169460405194611797866128fc565b602786527f416464726573733a206c6f772d6c6576656c2064656c65676174652063616c6c81870152660819985a5b195960ca1b604087015281519101845af46117df61320d565b9161323d565b50600161177d565b60405162461bcd60e51b815260048101849052602960248201527f45524331393637557067726164653a20756e737570706f727465642070726f786044820152681a58589b195555525160ba1b6064820152608490fd5b9091508581813d831161186c575b61185c8183612932565b810103126103d6575190876116de565b503d611852565b346103d65761188136612adc565b5050506000604051611892816128e1565b52604051636e10574960e01b8152600490fd5b346103d65760003660031901126103d6576118be612d30565b610191805460ff8116156118fe5760ff191690557f5db9ee0a495bf2e6ff9c91a7834c1ba4fdd244a5e8aa4e537bd38aeae4b073aa6020604051338152a1005b60405162461bcd60e51b815260206004820152601460248201527314185d5cd8589b194e881b9bdd081c185d5cd95960621b6044820152606490fd5b346103d6576020806003193601126103d6576119546129c3565b6001600160a01b03917f0000000000000000000000000000000000000000000000000000000000000000831661198c30821415612fd5565b6119a960008051602061397c833981519152918583541614613036565b6119b1612d30565b604051936119be856128e1565b600085527f4910fdfa16fed3260ed0e7147f7cc6da11a60208b5b9406d12a635614ffd91435460ff16156119f957505050610d169150613097565b83929316906040516352d1902d60e01b81528481600481865afa60009181611ac8575b50611a7d5760405162461bcd60e51b815260048101869052602e60248201527f45524331393637557067726164653a206e657720696d706c656d656e7461746960448201526d6f6e206973206e6f74205555505360901b6064820152608490fd5b036117ed57611a8b82613097565b7fbc7cd75a20ee27fd9adebab32041f755214dbc6bffa90cc0225b39da2e5c2d3b600080a2825115801590611ac05761178357005b50600061177d565b9091508581813d8311611af0575b611ae08183612932565b810103126103d657519087611a1c565b503d611ad6565b346103d65760403660031901126103d657611b106129d9565b336001600160a01b03821603611b2c57610d1690600435612f5f565b60405162461bcd60e51b815260206004820152602f60248201527f416363657373436f6e74726f6c3a2063616e206f6e6c792072656e6f756e636560448201526e103937b632b9903337b91039b2b63360891b6064820152608490fd5b346103d65760403660031901126103d657611ba26129c3565b60243590611baf81613127565b821015611be25760018060a01b031660005260c96020526040600020906000526020526020604060002054604051908152f35b60405162461bcd60e51b815260206004820152602b60248201527f455243373231456e756d657261626c653a206f776e657220696e646578206f7560448201526a74206f6620626f756e647360a81b6064820152608490fd5b346103d65760403660031901126103d657600435611c576129d9565b8160005260fb602052611c71600160406000200154612e54565b8160005260fb60205260406000209060018060a01b0316908160005260205260ff6040600020541615611ca057005b8160005260fb6020526040600020816000526020526040600020600160ff19825416179055339160008051602061393c833981519152600080a4005b346103d65760403660031901126103d657600435611cf86129d9565b611d00612b54565b6000828152606760205260409020546001600160a01b0391908216156103c457168015610af45760207fa3892f1588a9e8b034fb26a801ea4ed4e56e51dbf58a4fcd0da9126fcd26915d91836000526101c482526001604060002001816001600160601b0360a01b825416179055604051908152a2005b346103d65760203660031901126103d65760043560005260fb6020526020600160406000200154604051908152f35b346103d6576020806003193601126103d6576001600160a01b03611dc86129c3565b166000526101c58152604060002060405190818382549182815201908192600052846000209060005b86828210611e47578686611e0782880383612932565b604051928392818401908285525180915260408401929160005b828110611e3057505050500390f35b835185528695509381019392810192600101611e21565b835485529093019260019283019201611df1565b346103d657611e6936612adc565b5050604051636e10574960e01b815260049150fd5b346103d65760003660031901126103d657602060cb54604051908152f35b346103d65760203660031901126103d6576004356000526101c4602052604060002060018060a01b036103aa8183541691611f4e816001860154169460028101546003820154600483015490611f2e600585015493611f096007611f0260068901612a29565b9701612a29565b976040519b8c9b8c5260208c0152811660408b015260ff60608b019160a01c16612acf565b608088015260a087015260c08601526101208060e08701528501906128a0565b908382036101008501526128a0565b346103d65760403660031901126103d657611f766129c3565b602435906001600160a01b038080611f8d856131ea565b1692169180831461208857803314908115612063575b5015611ff857600083815260696020526040902080546001600160a01b03191683179055611fd0836131ea565b167f8c5be1e5ebec7d5bd14f71427d1e84f3dd0314c0f7b2291e5b200ac8c7c3b925600080a4005b60405162461bcd60e51b815260206004820152603d60248201527f4552433732313a20617070726f76652063616c6c6572206973206e6f7420746f60448201527f6b656e206f776e6572206f7220617070726f76656420666f7220616c6c0000006064820152608490fd5b9050600052606a60205260406000203360005260205260ff6040600020541684611fa3565b60405162461bcd60e51b815260206004820152602160248201527f4552433732313a20617070726f76616c20746f2063757272656e74206f776e656044820152603960f91b6064820152608490fd5b346103d65760203660031901126103d65760043560008181526067602052604090205461210e906001600160a01b0316151561319e565b6000526069602052602060018060a01b0360406000205416604051908152f35b346103d65760603660031901126103d6576004356001600160401b0381116103d65761215e9036906004016129a5565b6024356001600160401b0381116103d65761217d9036906004016129a5565b6044356001600160a01b03811681036103d6576000549060ff8260081c161591828093612723575b801561270c575b156126b05760ff1981166001176000558261269e575b506001600160a01b03811615610af4576121ec60ff60005460081c166121e7816133a1565b6133a1565b83516001600160401b038111610913576122076065546129ef565b601f8111612631575b50602094601f82116001146125bf579481929394956000926125b4575b50508160011b916000199060031b1c1916176065555b82516001600160401b0381116109135761225e6066546129ef565b601f811161254f575b506020601f82116001146124cb57819293946000926124c0575b50508160011b916000199060031b1c1916176066555b6122d060ff60005460081c166122ac816133a1565b6122b5816133a1565b6122be816133a1565b6122c7816133a1565b6121e7816133a1565b610191805460ff191690556001600160a01b03811660009081527fc88390e7e62175be0932452175b6a7222b6b094ab0ef984a5153c620345d8975602052604090205460fb9060ff161561247c575b7f9f2df0fed2c77648de5860a4cc508cd0818c85b8b8a1ab4ceeef8d981c8956a66000818152602083815260408083206001600160a01b038716845290915290205460ff1615612435575b5060008051602061399c833981519152908160005280602052604060002060018060a01b03841660005260205260ff60406000205416156123e7575b5050506123af57005b61ff0019600054166000557f7f26b83ff96e1f2b6a682f133852f6798a09c465da95921460cefb3847402498602060405160018152a1005b6000828152602091825260408082206001600160a01b039590951680835294909252908120805460ff191660011790553392919060008051602061393c8339815191529080a48180806123a6565b6000818152602083815260408083206001600160a01b03871680855292528220805460ff191660011790553392909160008051602061393c8339815191529080a48361236a565b6000808052602082815260408083206001600160a01b03861680855292528220805460ff19166001179055339160008051602061393c8339815191528180a461231f565b015190508480612281565b601f1982169060666000527f46501879b8ca8525e8c2fd519e2fbfcfa2ebea26501294aa02cbfcfb12e943549160005b8181106125375750958360019596971061251e575b505050811b01606655612297565b015160001960f88460031b161c19169055848080612510565b9192602060018192868b0151815501940192016124fb565b60666000527f46501879b8ca8525e8c2fd519e2fbfcfa2ebea26501294aa02cbfcfb12e94354601f830160051c810191602084106125aa575b601f0160051c01905b81811061259e5750612267565b60008155600101612591565b9091508190612588565b01519050858061222d565b601f19821695606560005260008051602061395c8339815191529160005b88811061261957508360019596979810612600575b505050811b01606555612243565b015160001960f88460031b161c191690558580806125f2565b919260206001819286850151815501940192016125dd565b6065600052601f820160051c60008051602061395c833981519152019060208310612688575b601f0160051c60008051602061395c83398151915201905b81811061267c5750612210565b6000815560010161266f565b60008051602061395c8339815191529150612657565b61ffff191661010117600055846121c2565b60405162461bcd60e51b815260206004820152602e60248201527f496e697469616c697a61626c653a20636f6e747261637420697320616c72656160448201526d191e481a5b9a5d1a585b1a5e995960921b6064820152608490fd5b50303b1580156121ac5750600160ff8216146121ac565b50600160ff8216106121a5565b346103d65760003660031901126103d6576040516000606554612752816129ef565b80845290600190818116908115611119575060011461277b576103aa846110aa81860382612932565b60656000908152925060008051602061395c8339815191525b8284106127ac5750505081016020016110aa8261109a565b80546020858701810191909152909301928101612794565b346103d65760203660031901126103d6576004359063ffffffff60e01b82168092036103d657602091637965db0b60e01b8114908115612806575b5015158152f35b63780e9d6360e01b811491508115612820575b50836127ff565b632483248360e11b81149150811561283a575b5083612819565b6380ac58cd60e01b81149150811561286c575b811561285b575b5083612833565b6301ffc9a760e01b14905083612854565b635b5e139f60e01b8114915061284d565b60005b8381106128905750506000910152565b8181015183820152602001612880565b906020916128b98151809281855285808601910161287d565b601f01601f1916010190565b61012081019081106001600160401b0382111761091357604052565b602081019081106001600160401b0382111761091357604052565b606081019081106001600160401b0382111761091357604052565b608081019081106001600160401b0382111761091357604052565b90601f801991011681019081106001600160401b0382111761091357604052565b6001600160401b03811161091357601f01601f191660200190565b92919261297a82612953565b916129886040519384612932565b8294818452818301116103d6578281602093846000960137010152565b9080601f830112156103d6578160206129c09335910161296e565b90565b600435906001600160a01b03821682036103d657565b602435906001600160a01b03821682036103d657565b90600182811c92168015612a1f575b6020831014612a0957565b634e487b7160e01b600052602260045260246000fd5b91607f16916129fe565b9060405191826000825492612a3d846129ef565b908184526001948581169081600014612aac5750600114612a69575b5050612a6792500383612932565b565b9093915060005260209081600020936000915b818310612a94575050612a6793508201013880612a59565b85548884018501529485019487945091830191612a7c565b915050612a6794506020925060ff191682840152151560051b8201013880612a59565b9060058210156103ae5752565b60609060031901126103d6576001600160a01b039060043582811681036103d6579160243590811681036103d6579060443590565b9181601f840112156103d6578235916001600160401b0383116103d657602083818601950101116103d657565b60409060031901126103d6576004359060243590565b3360009081527f9416d2083cd31e86d1caeb352ca1a050bf600cfed6f282b61287b6e5faf220ee6020908152604080832054909260008051602061399c8339815191529160ff1615612ba65750505050565b612baf336132e7565b91845190612bbc82612917565b60428252848201926060368537825115612d1c5760308453825190600191821015612d1c5790607860218501536041915b818311612cae57505050612c6c576048610ac8938693612c5093612c41985198899376020b1b1b2b9b9a1b7b73a3937b61d1030b1b1b7bab73a1604d1b8a860152610ba1815180928c60378901910161287d565b01036028810187520185612932565b5192839262461bcd60e51b8452600484015260248301906128a0565b60648486519062461bcd60e51b825280600483015260248201527f537472696e67733a20686578206c656e67746820696e73756666696369656e746044820152fd5b909192600f81166010811015612d08576f181899199a1a9b1b9c1cb0b131b232b360811b901a612cde85876132d6565b5360041c928015612cf457600019019190612bed565b634e487b7160e01b82526011600452602482fd5b634e487b7160e01b83526032600452602483fd5b634e487b7160e01b81526032600452602490fd5b3360009081527fc88390e7e62175be0932452175b6a7222b6b094ab0ef984a5153c620345d8975602090815260408083205490929060ff1615612d7257505050565b612d7b336132e7565b9080845190612d8982612917565b60428252848201926060368537825115612d1c5760308453825190600191821015612d1c5790607860218501536041915b818311612e0e57505050612c6c576048610ac8938693612c5093612c41985198899376020b1b1b2b9b9a1b7b73a3937b61d1030b1b1b7bab73a1604d1b8a860152610ba1815180928c60378901910161287d565b909192600f81166010811015612d08576f181899199a1a9b1b9c1cb0b131b232b360811b901a612e3e85876132d6565b5360041c928015612cf457600019019190612dba565b60009080825260209060fb8252604092838120338252835260ff848220541615612e7e5750505050565b612e87336132e7565b91845190612e9482612917565b60428252848201926060368537825115612d1c5760308453825190600191821015612d1c5790607860218501536041915b818311612f1957505050612c6c576048610ac8938693612c5093612c41985198899376020b1b1b2b9b9a1b7b73a3937b61d1030b1b1b7bab73a1604d1b8a860152610ba1815180928c60378901910161287d565b909192600f81166010811015612d08576f181899199a1a9b1b9c1cb0b131b232b360811b901a612f4985876132d6565b5360041c928015612cf457600019019190612ec5565b9060009180835260fb602052604083209160018060a01b03169182845260205260ff604084205416612f9057505050565b80835260fb602052604083208284526020526040832060ff1981541690557ff6391f5c32d9c69d2a47ea670b442974b53935d1edc7fd64eb21e047a839171b339380a4565b15612fdc57565b60405162461bcd60e51b815260206004820152602c60248201527f46756e6374696f6e206d7573742062652063616c6c6564207468726f7567682060448201526b19195b1959d85d1958d85b1b60a21b6064820152608490fd5b1561303d57565b60405162461bcd60e51b815260206004820152602c60248201527f46756e6374696f6e206d7573742062652063616c6c6564207468726f7567682060448201526b6163746976652070726f787960a01b6064820152608490fd5b803b156130cc5760008051602061397c83398151915280546001600160a01b0319166001600160a01b03909216919091179055565b60405162461bcd60e51b815260206004820152602d60248201527f455243313936373a206e657720696d706c656d656e746174696f6e206973206e60448201526c1bdd08184818dbdb9d1c9858dd609a1b6064820152608490fd5b6001600160a01b0316801561314757600052606860205260406000205490565b60405162461bcd60e51b815260206004820152602960248201527f4552433732313a2061646472657373207a65726f206973206e6f7420612076616044820152683634b21037bbb732b960b91b6064820152608490fd5b156131a557565b60405162461bcd60e51b815260206004820152601860248201527f4552433732313a20696e76616c696420746f6b656e20494400000000000000006044820152606490fd5b6000908152606760205260409020546001600160a01b03166129c081151561319e565b3d15613238573d9061321e82612953565b9161322c6040519384612932565b82523d6000602084013e565b606090565b9192901561329f5750815115613251575090565b3b1561325a5790565b60405162461bcd60e51b815260206004820152601d60248201527f416464726573733a2063616c6c20746f206e6f6e2d636f6e74726163740000006044820152606490fd5b8251909150156132b25750805190602001fd5b60405162461bcd60e51b815260206004820152908190610ac89060248301906128a0565b9081518110156108fd570160200190565b604051906132f4826128fc565b602a82526020820160403682378251156108fd576030905381516001908110156108fd57607860218401536029905b808211613333575050610bf95790565b9091600f8116601081101561338c576f181899199a1a9b1b9c1cb0b131b232b360811b901a61336284866132d6565b5360041c918015613377576000190190613323565b60246000634e487b7160e01b81526011600452fd5b60246000634e487b7160e01b81526032600452fd5b156133a857565b60405162461bcd60e51b815260206004820152602b60248201527f496e697469616c697a61626c653a20636f6e7472616374206973206e6f74206960448201526a6e697469616c697a696e6760a81b6064820152608490fd5b9060058110156103ae57815460ff60a01b191660a09190911b60ff60a01b16179055565b90918060409360208452816020850152848401376000828201840152601f01601f1916010190565b60ff610191541661345a57565b60405162461bcd60e51b815260206004820152601060248201526f14185d5cd8589b194e881c185d5cd95960821b6044820152606490fd5b60809060208152603260208201527f4552433732313a207472616e7366657220746f206e6f6e20455243373231526560408201527131b2b4bb32b91034b6b83632b6b2b73a32b960711b60608201520190565b156134ec57565b60405162461bcd60e51b815260206004820152601c60248201527f4552433732313a20746f6b656e20616c7265616479206d696e746564000000006044820152606490fd5b909190803b15613621576020604051809281630a85bd0160e11b968782523360048301528161357a600098899384602485015260448401526080606484015260848301906128a0565b03926001600160a01b03165af1908290826135d2575b50506135c45761359e61320d565b805190816135bf5760405162461bcd60e51b815280610ac860048201613492565b602001fd5b6001600160e01b0319161490565b909192506020813d8211613619575b816135ee60209383612932565b810103126136155751906001600160e01b0319821682036136125750903880613590565b80fd5b5080fd5b3d91506135e1565b505050600190565b6000818152606760205260409020549192916001600160a01b0316156137bb576000908082526020916097835260408120908551906001600160401b0382116137a75761367683546129ef565b601f8111613764575b508490601f83116001146136e057907ff8e1a15aba9398e019f0b49df1a4fde98ee17ae345cb5f6b5e2c27f5033e8ce79697836136d5575b50508160011b916000199060031b1c19161790555b604051908152a1565b0151905038806136b7565b9196601f198816848452868420935b81811061374d57509160019391897ff8e1a15aba9398e019f0b49df1a4fde98ee17ae345cb5f6b5e2c27f5033e8ce7999a9410613734575b505050811b0190556136cc565b015160001960f88460031b161c19169055388080613727565b9293876001819287860151815501950193016136ef565b838252858220601f840160051c81019187851061379d575b601f0160051c01905b818110613792575061367f565b828155600101613785565b909150819061377c565b634e487b7160e01b81526041600452602490fd5b60405162461bcd60e51b815260206004820152602e60248201527f45524337323155524953746f726167653a2055524920736574206f66206e6f6e60448201526d32bc34b9ba32b73a103a37b5b2b760911b6064820152608490fd5b90600090828252606760205260409060018060a01b0382842054161561392a578383526101c460205260028284200160ff815460a01c169360058310156139165760058510156139165782851461390e57838160008051602061399c83398151915260ff935260fb602052818120338252602052205416156138fd57600384146138ec57916138e4826138ce7f34072acb75c09ae10925fc3e49e83b7032ac9d6ac265c11c1a1d8b3a00f4753b9694606096613401565b6138da83518095612acf565b6020840190612acf565b3390820152a2565b825163088bd32360e11b8152600490fd5b825163ea8e4eb560e01b8152600490fd5b505050505050565b634e487b7160e01b81526021600452602490fd5b8151632627b46560e11b8152600490fdfe2f8788117e7eff1d82e926ec794901d17c78024a50270940304540a733656f0d8ff97419363ffd7000167f130ef7168fbea05faf9251824ca5043f113cc6a7c7360894a13ba1a3210667c828492db98dca3e2076cc3735a920a3ca505d382bbc241ecf16d79d0f8dbfb92cbc07fe17840425976cf0667f022fe9877caa831b08a26469706673582212203b33e457aec35bffb26d0701712dccea6449af8497719110b349d2bef17e827c64736f6c63430008140033",
  "linkReferences": {},
  "deployedLinkReferences": {}
}