{
  "_format": "hh-sol-artifact-1",
  "contractName": "TransferFeesModule",
  "sourceName": "contracts/compliance/modules/TransferFeesModule.sol",
  "abi": [
    {
      "inputs": [],
      "name": "BatchTooLarge",
      "type": "error"
    },
    {
      "inputs": [],
      "name": "ComplianceAlreadyBound",
      "type": "error"
    },
    {
      "inputs": [],
      "name": "ComplianceNotBound",
      "type": "error"
    },
    {
      "inputs": [],
      "name": "FeeTooHigh",
      "type": "error"
    },
    {
      "inputs": [],
      "name": "Unauthorized",
      "type": "error"
    },
    {
      "inputs": [],
      "name": "ZeroAddress",
      "type": "error"
    },
    {
      "anonymous": false,
      "inputs": [
        {
          "indexed": true,
          "internalType": "address",
          "name": "compliance",
          "type": "address"
        },
        {
          "indexed": true,
          "internalType": "address",
          "name": "account",
          "type": "address"
        },
        {
          "indexed": false,
          "internalType": "bool",
          "name": "exempt",
          "type": "bool"
        }
      ],
      "name": "AddressExempted",
      "type": "event"
    },
    {
      "anonymous": false,
      "inputs": [
        {
          "indexed": false,
          "internalType": "address",
          "name": "previousAdmin",
          "type": "address"
        },
        {
          "indexed": false,
          "internalType": "address",
          "name": "newAdmin",
          "type": "address"
        }
      ],
      "name": "AdminChanged",
      "type": "event"
    },
    {
      "anonymous": false,
      "inputs": [
        {
          "indexed": true,
          "internalType": "address",
          "name": "beacon",
          "type": "address"
        }
      ],
      "name": "BeaconUpgraded",
      "type": "event"
    },
    {
      "anonymous": false,
      "inputs": [
        {
          "indexed": true,
          "internalType": "address",
          "name": "compliance",
          "type": "address"
        }
      ],
      "name": "ComplianceBound",
      "type": "event"
    },
    {
      "anonymous": false,
      "inputs": [
        {
          "indexed": true,
          "internalType": "address",
          "name": "compliance",
          "type": "address"
        }
      ],
      "name": "ComplianceUnbound",
      "type": "event"
    },
    {
      "anonymous": false,
      "inputs": [
        {
          "indexed": true,
          "internalType": "address",
          "name": "compliance",
          "type": "address"
        },
        {
          "indexed": true,
          "internalType": "address",
          "name": "from",
          "type": "address"
        },
        {
          "indexed": false,
          "internalType": "uint256",
          "name": "amount",
          "type": "uint256"
        }
      ],
      "name": "FeeCollected",
      "type": "event"
    },
    {
      "anonymous": false,
      "inputs": [
        {
          "indexed": true,
          "internalType": "address",
          "name": "compliance",
          "type": "address"
        },
        {
          "indexed": false,
          "internalType": "address",
          "name": "recipient",
          "type": "address"
        }
      ],
      "name": "FeeRecipientSet",
      "type": "event"
    },
    {
      "anonymous": false,
      "inputs": [
        {
          "indexed": false,
          "internalType": "uint8",
          "name": "version",
          "type": "uint8"
        }
      ],
      "name": "Initialized",
      "type": "event"
    },
    {
      "anonymous": false,
      "inputs": [
        {
          "indexed": true,
          "internalType": "address",
          "name": "compliance",
          "type": "address"
        },
        {
          "indexed": false,
          "internalType": "bool",
          "name": "enabled",
          "type": "bool"
        }
      ],
      "name": "ModuleEnabled",
      "type": "event"
    },
    {
      "anonymous": false,
      "inputs": [
        {
          "indexed": true,
          "internalType": "address",
          "name": "previousOwner",
          "type": "address"
        },
        {
          "indexed": true,
          "internalType": "address",
          "name": "newOwner",
          "type": "address"
        }
      ],
      "name": "OwnershipTransferred",
      "type": "event"
    },
    {
      "anonymous": false,
      "inputs": [
        {
          "indexed": true,
          "internalType": "address",
          "name": "compliance",
          "type": "address"
        },
        {
          "indexed": false,
          "internalType": "uint256",
          "name": "feeBps",
          "type": "uint256"
        }
      ],
      "name": "TransferFeeSet",
      "type": "event"
    },
    {
      "anonymous": false,
      "inputs": [
        {
          "indexed": true,
          "internalType": "address",
          "name": "implementation",
          "type": "address"
        }
      ],
      "name": "Upgraded",
      "type": "event"
    },
    {
      "inputs": [
        {
          "internalType": "address",
          "name": "_compliance",
          "type": "address"
        },
        {
          "internalType": "address[]",
          "name": "_accounts",
          "type": "address[]"
        },
        {
          "internalType": "bool",
          "name": "_exempt",
          "type": "bool"
        }
      ],
      "name": "batchSetAddressExempt",
      "outputs": [],
      "stateMutability": "nonpayable",
      "type": "function"
    },
    {
      "inputs": [
        {
          "internalType": "address",
          "name": "_compliance",
          "type": "address"
        }
      ],
      "name": "bindCompliance",
      "outputs": [],
      "stateMutability": "nonpayable",
      "type": "function"
    },
    {
      "inputs": [
        {
          "internalType": "address",
          "name": "_compliance",
          "type": "address"
        },
        {
          "internalType": "uint256",
          "name": "_amount",
          "type": "uint256"
        }
      ],
      "name": "calculateFee",
      "outputs": [
        {
          "internalType": "uint256",
          "name": "",
          "type": "uint256"
        }
      ],
      "stateMutability": "view",
      "type": "function"
    },
    {
      "inputs": [
        {
          "internalType": "address",
          "name": "_compliance",
          "type": "address"
        }
      ],
      "name": "canComplianceBind",
      "outputs": [
        {
          "internalType": "bool",
          "name": "",
          "type": "bool"
        }
      ],
      "stateMutability": "pure",
      "type": "function"
    },
    {
      "inputs": [],
      "name": "collectedFees",
      "outputs": [
        {
          "internalType": "uint256",
          "name": "",
          "type": "uint256"
        }
      ],
      "stateMutability": "view",
      "type": "function"
    },
    {
      "inputs": [
        {
          "internalType": "address",
          "name": "_compliance",
          "type": "address"
        }
      ],
      "name": "getFeeRecipient",
      "outputs": [
        {
          "internalType": "address",
          "name": "",
          "type": "address"
        }
      ],
      "stateMutability": "view",
      "type": "function"
    },
    {
      "inputs": [
        {
          "internalType": "address",
          "name": "_compliance",
          "type": "address"
        }
      ],
      "name": "getTransferFee",
      "outputs": [
        {
          "internalType": "uint256",
          "name": "",
          "type": "uint256"
        }
      ],
      "stateMutability": "view",
      "type": "function"
    },
    {
      "inputs": [],
      "name": "initialize",
      "outputs": [],
      "stateMutability": "nonpayable",
      "type": "function"
    },
    {
      "inputs": [
        {
          "internalType": "address",
          "name": "_compliance",
          "type": "address"
        }
      ],
      "name": "isComplianceBound",
      "outputs": [
        {
          "internalType": "bool",
          "name": "",
          "type": "bool"
        }
      ],
      "stateMutability": "view",
      "type": "function"
    },
    {
      "inputs": [
        {
          "internalType": "address",
          "name": "_compliance",
          "type": "address"
        },
        {
          "internalType": "address",
          "name": "_account",
          "type": "address"
        }
      ],
      "name": "isExempt",
      "outputs": [
        {
          "internalType": "bool",
          "name": "",
          "type": "bool"
        }
      ],
      "stateMutability": "view",
      "type": "function"
    },
    {
      "inputs": [
        {
          "internalType": "address",
          "name": "_compliance",
          "type": "address"
        }
      ],
      "name": "isModuleEnabled",
      "outputs": [
        {
          "internalType": "bool",
          "name": "",
          "type": "bool"
        }
      ],
      "stateMutability": "view",
      "type": "function"
    },
    {
      "inputs": [],
      "name": "isPlugAndPlay",
      "outputs": [
        {
          "internalType": "bool",
          "name": "",
          "type": "bool"
        }
      ],
      "stateMutability": "pure",
      "type": "function"
    },
    {
      "inputs": [
        {
          "internalType": "address",
          "name": "",
          "type": "address"
        },
        {
          "internalType": "uint256",
          "name": "",
          "type": "uint256"
        },
        {
          "internalType": "address",
          "name": "",
          "type": "address"
        }
      ],
      "name": "moduleBurnAction",
      "outputs": [],
      "stateMutability": "nonpayable",
      "type": "function"
    },
    {
      "inputs": [
        {
          "internalType": "address",
          "name": "",
          "type": "address"
        },
        {
          "internalType": "address",
          "name": "",
          "type": "address"
        },
        {
          "internalType": "uint256",
          "name": "",
          "type": "uint256"
        },
        {
          "internalType": "address",
          "name": "",
          "type": "address"
        }
      ],
      "name": "moduleCheck",
      "outputs": [
        {
          "internalType": "bool",
          "name": "",
          "type": "bool"
        }
      ],
      "stateMutability": "pure",
      "type": "function"
    },
    {
      "inputs": [
        {
          "internalType": "address",
          "name": "",
          "type": "address"
        },
        {
          "internalType": "uint256",
          "name": "",
          "type": "uint256"
        },
        {
          "internalType": "address",
          "name": "",
          "type": "address"
        }
      ],
      "name": "moduleMintAction",
      "outputs": [],
      "stateMutability": "nonpayable",
      "type": "function"
    },
    {
      "inputs": [
        {
          "internalType": "address",
          "name": "_from",
          "type": "address"
        },
        {
          "internalType": "address",
          "name": "",
          "type": "address"
        },
        {
          "internalType": "uint256",
          "name": "_value",
          "type": "uint256"
        },
        {
          "internalType": "address",
          "name": "_compliance",
          "type": "address"
        }
      ],
      "name": "moduleTransferAction",
      "outputs": [],
      "stateMutability": "nonpayable",
      "type": "function"
    },
    {
      "inputs": [],
      "name": "name",
      "outputs": [
        {
          "internalType": "string",
          "name": "",
          "type": "string"
        }
      ],
      "stateMutability": "pure",
      "type": "function"
    },
    {
      "inputs": [],
      "name": "owner",
      "outputs": [
        {
          "internalType": "address",
          "name": "",
          "type": "address"
        }
      ],
      "stateMutability": "view",
      "type": "function"
    },
    {
      "inputs": [],
      "name": "proxiableUUID",
      "outputs": [
        {
          "internalType": "bytes32",
          "name": "",
          "type": "bytes32"
        }
      ],
      "stateMutability": "view",
      "type": "function"
    },
    {
      "inputs": [],
      "name": "renounceOwnership",
      "outputs": [],
      "stateMutability": "nonpayable",
      "type": "function"
    },
    {
      "inputs": [
        {
          "internalType": "address",
          "name": "_compliance",
          "type": "address"
        },
        {
          "internalType": "address",
          "name": "_account",
          "type": "address"
        },
        {
          "internalType": "bool",
          "name": "_exempt",
          "type": "bool"
        }
      ],
      "name": "setAddressExempt",
      "outputs": [],
      "stateMutability": "nonpayable",
      "type": "function"
    },
    {
      "inputs": [
        {
          "internalType": "address",
          "name": "_compliance",
          "type": "address"
        },
        {
          "internalType": "address",
          "name": "_recipient",
          "type": "address"
        }
      ],
      "name": "setFeeRecipient",
      "outputs": [],
      "stateMutability": "nonpayable",
      "type": "function"
    },
    {
      "inputs": [
        {
          "internalType": "address",
          "name": "_compliance",
          "type": "address"
        },
        {
          "internalType": "bool",
          "name": "_enabled",
          "type": "bool"
        }
      ],
      "name": "setModuleEnabled",
      "outputs": [],
      "stateMutability": "nonpayable",
      "type": "function"
    },
    {
      "inputs": [
        {
          "internalType": "address",
          "name": "_compliance",
          "type": "address"
        },
        {
          "internalType": "uint256",
          "name": "_feeBps",
          "type": "uint256"
        }
      ],
      "name": "setTransferFee",
      "outputs": [],
      "stateMutability": "nonpayable",
      "type": "function"
    },
    {
      "inputs": [
        {
          "internalType": "address",
          "name": "newOwner",
          "type": "address"
        }
      ],
      "name": "transferOwnership",
      "outputs": [],
      "stateMutability": "nonpayable",
      "type": "function"
    },
    {
      "inputs": [
        {
          "internalType": "address",
          "name": "_compliance",
          "type": "address"
        }
      ],
      "name": "unbindCompliance",
      "outputs": [],
      "stateMutability": "nonpayable",
      "type": "function"
    },
    {
      "inputs": [
        {
          "internalType": "address",
          "name": "newImplementation",
          "type": "address"
        }
      ],
      "name": "upgradeTo",
      "outputs": [],
      "stateMutability": "nonpayable",
      "type": "function"
    },
    {
      "inputs": [
        {
          "internalType": "address",
          "name": "newImplementation",
          "type": "address"
        },
        {
          "internalType": "bytes",
          "name": "data",
          "type": "bytes"
        }
      ],
      "name": "upgradeToAndCall",
      "outputs": [],
      "stateMutability": "payable",
      "type": "function"
    }
  ],
  "bytecode": "0x60a0806040523461003157306080526118a8908161003782396080518181816108ff01528181610a250152610e8d0152f35b600080fdfe608060408181526004908136101561001657600080fd5b600092833560e01c908163013b7ce414611263575080630694a5fb146111b857806306fdde0314611143578063270401cb146110955780632d9ad53d146110575780633659cfe614610e675780633686cc401461032e5780634a93254414610cea5780634cf4d29514610cac5780634f1ef286146109ac57806352d1902d146108ea5780635d9c4f0f146108af578063715018a6146108525780638129fc1c1461070c57806383cb0fa9146106d457806385252e821461062f5780638b28ab1e146105ff5780638da5cb5b146105d65780639003adfe146105b7578063b62e022714610430578063bcc2105314610400578063cb2f377b146103e2578063d0bac4ae14610333578063d87d65671461032e578063dfc693f0146102e0578063e6f5e807146102c0578063f2fde38b1461022e5763f5e756511461015857600080fd5b3461022a57606036600319011261022a57610171611280565b61017961129b565b916101826113dd565b9161018b6113ec565b6001600160a01b0390811680875260c96020528287205490949060ff161561021a571693841561020c57507f4b721fc141ff09950b4a258109520b65018e3c119bb1b07caff78df39d9ef2989160209184875260cd83528087208688528352610202828289209060ff801983541691151516179055565b519015158152a380f35b905163d92e233d60e01b8152fd5b82516358b71d2b60e11b81528690fd5b8280fd5b50903461022a57602036600319011261022a57610249611280565b916102526113ec565b6001600160a01b0383161561026e578361026b84611444565b80f35b906020608492519162461bcd60e51b8352820152602660248201527f4f776e61626c653a206e6577206f776e657220697320746865207a65726f206160448201526564647265737360d01b6064820152fd5b8382346102dc57816003193601126102dc576020905160018152f35b5080fd5b8382346102dc57806003193601126102dc5760ff81602093610300611280565b61030861129b565b6001600160a01b03918216835260cd875283832091168252855220549151911615158152f35b61133c565b503461022a578060031936011261022a5761034c611280565b90602435801515928382036103de576103636113ec565b6001600160a01b031680865260c96020528286205490949060ff16156103d05750916020916103c87f5a16f9367e01a86c4c2edc62f5a9364d229352125194b50c35d26fba096e7a639486885260ca85528288209060ff801983541691151516179055565b51908152a280f35b82516358b71d2b60e11b8152fd5b8580fd5b83346103fd5761026b6103f4366112b1565b9290915061170e565b80fd5b8382346102dc5760203660031901126102dc576020906001600160a01b03610426611280565b1615159051908152f35b50903461022a57606036600319011261022a5761044b611280565b9060249283359267ffffffffffffffff8085116105b357366023860112156105b357848401359081116105b357858501948636918360051b0101116105b3576104926113dd565b9161049b6113ec565b60018060a01b038091169283895260209160c9835260ff868b205416156105a3576032841161059357895b8481106104d1578a80f35b8882888d8489846104eb6104e684848a6116d4565b6116fa565b1661051a575b5050505050506000198114610508576001016104c6565b634e487b7160e01b8b5260118852898bfd5b61053093838d6104e6955260cd8c5220956116d4565b168c52845261054d83888d209060ff801983541691151516179055565b8161055c6104e683888d6116d4565b16867f4b721fc141ff09950b4a258109520b65018e3c119bb1b07caff78df39d9ef298868a518715158152a38882888d84896104f1565b85516305beb17160e11b81528790fd5b85516358b71d2b60e11b81528790fd5b8680fd5b8382346102dc57816003193601126102dc5760209060ce549051908152f35b8382346102dc57816003193601126102dc5760975490516001600160a01b039091168152602090f35b8382346102dc57806003193601126102dc5760209061062861061f611280565b602435906117e3565b9051908152f35b503461022a578060031936011261022a57610648611280565b90602435916106556113ec565b6001600160a01b031680855260c96020528185205490939060ff16156106c6576103e883116106b857507f8296846afaac26e4f2252eae9d950efa4cac80982e31489a97ae989e5fccae0b9160209184865260cb8352818187205551908152a280f35b905163cd4e616760e01b8152fd5b90516358b71d2b60e11b8152fd5b8382346102dc5760203660031901126102dc5760209181906001600160a01b036106fc611280565b16815260cb845220549051908152f35b50903461022a578260031936011261022a57825460ff8160081c161591828093610845575b801561082e575b156107d4575060ff1981166001178455816107c3575b5061076860ff845460081c1661076381611674565b611674565b61077133611444565b82549061078360ff8360081c16611674565b61078b578280f35b61ff001916825551600181527f7f26b83ff96e1f2b6a682f133852f6798a09c465da95921460cefb384740249890602090a138808280f35b61ffff19166101011783553861074e565b608490602085519162461bcd60e51b8352820152602e60248201527f496e697469616c697a61626c653a20636f6e747261637420697320616c72656160448201526d191e481a5b9a5d1a585b1a5e995960921b6064820152fd5b50303b1580156107385750600160ff831614610738565b50600160ff831610610731565b83346103fd57806003193601126103fd5761086b6113ec565b609780546001600160a01b0319811690915581906001600160a01b03167f8be0079c531659141344cd1fd0a4f28419497f9722a3daafe3b4186f6b6457e08280a380f35b8382346102dc5760203660031901126102dc576020916001600160a01b03908290826108d9611280565b16815260cc85522054169051908152f35b5091346103fd57806003193601126103fd57507f00000000000000000000000000000000000000000000000000000000000000006001600160a01b0316300361094457602082516000805160206118538339815191528152f35b6020608492519162461bcd60e51b8352820152603860248201527f555550535570677261646561626c653a206d757374206e6f742062652063616c60448201527f6c6564207468726f7567682064656c656761746563616c6c00000000000000006064820152fd5b508060031936011261022a576109c0611280565b906024359067ffffffffffffffff8211610ca85736602383011215610ca857818401356109ec816113c1565b6109f88351918261139f565b8181528660209485830193366024828401011161022a578060248893018637830101526001600160a01b037f0000000000000000000000000000000000000000000000000000000000000000811690610a533083141561148d565b610a706000805160206118538339815191529282845416146114ee565b610a786113ec565b7f4910fdfa16fed3260ed0e7147f7cc6da11a60208b5b9406d12a635614ffd91435460ff1615610ab25750505050505061026b915061154f565b869293949596169085516352d1902d60e01b815287818a81865afa8a9181610c75575b50610b3457865162461bcd60e51b8152808a01899052602e60248201527f45524331393637557067726164653a206e657720696d706c656d656e7461746960448201526d6f6e206973206e6f74205555505360901b6064820152608490fd5b979192939695949703610c205750610b4b8261154f565b7fbc7cd75a20ee27fd9adebab32041f755214dbc6bffa90cc0225b39da2e5c2d3b8780a285845115801590610c18575b610b89575b50505050505080f35b80610c0296845196610b9a8861136d565b602788527f416464726573733a206c6f772d6c6576656c2064656c65676174652063616c6c87890152660819985a5b195960ca1b868901525190845af4913d15610c0e573d610bf4610beb826113c1565b9251928361139f565b81528681943d92013e6115df565b50388080808085610b80565b50606092506115df565b506001610b7b565b835162461bcd60e51b8152908101859052602960248201527f45524331393637557067726164653a20756e737570706f727465642070726f786044820152681a58589b195555525160ba1b6064820152608490fd5b9091508881813d8311610ca1575b610c8d818361139f565b81010312610c9d57519038610ad5565b8a80fd5b503d610c83565b8480fd5b8382346102dc5760203660031901126102dc5760209160ff9082906001600160a01b03610cd7611280565b16815260c9855220541690519015158152f35b503461022a5760209081600319360112610e63576001600160a01b0380610d0f611280565b16938415610e555784865260c9845260ff8387205416610e47578251630d47dbe560e31b815284818381895afa908115610e3d578791610e07575b508280609754163314159182610df9575b505080610def575b610de2575060cc9084865260c9845282862060ff199060018282541617905560ca855260018488209182541617905560cb84526032838720556097541692528320906bffffffffffffffffffffffff60a01b8254161790557f1f7b76c58fb697eb53c6c7c1becb96911516a136e24d7ced386b2355358b75a38280a280f35b82516282b42960e81b8152fd5b5084331415610d63565b909150163314158238610d5b565b90508481813d8311610e36575b610e1e818361139f565b810103126105b3575182811681036105b35738610d4a565b503d610e14565b84513d89823e3d90fd5b8251637330a8cb60e11b8152fd5b825163d92e233d60e01b8152fd5b8380fd5b503461022a57602080600319360112610e6357610e82611280565b916001600160a01b037f00000000000000000000000000000000000000000000000000000000000000008116610eba3082141561148d565b610ed76000805160206118538339815191529183835416146114ee565b610edf6113ec565b8251908482019282841067ffffffffffffffff851117611044578385528883527f4910fdfa16fed3260ed0e7147f7cc6da11a60208b5b9406d12a635614ffd91435460ff1615610f395750505050505061026b915061154f565b869293949596169085516352d1902d60e01b815287818a81865afa8a9181611015575b50610fbb57865162461bcd60e51b8152808a01899052602e60248201527f45524331393637557067726164653a206e657720696d706c656d656e7461746960448201526d6f6e206973206e6f74205555505360901b6064820152608490fd5b979192939695949703610c205750610fd28261154f565b7fbc7cd75a20ee27fd9adebab32041f755214dbc6bffa90cc0225b39da2e5c2d3b8780a28584511580159061100e57610b895750505050505080f35b5080610b7b565b9091508881813d831161103d575b61102d818361139f565b81010312610c9d57519038610f5c565b503d611023565b634e487b7160e01b895260418852602489fd5b8382346102dc5760203660031901126102dc5760209160ff9082906001600160a01b03611082611280565b16815260ca855220541690519015158152f35b50903461022a578160031936011261022a576110af611280565b916110b861129b565b926110c16113ec565b6001600160a01b0390811680865260c96020528286205490949060ff1615611134571691821561020c575082845260cc602090815281852080546001600160a01b0319168417905590519182527f15d80a013f22151bc7246e3bc132e12828cde19de98870475e3fa7084015272191a280f35b5050516358b71d2b60e11b8152fd5b508290346102dc57816003193601126102dc578051918183019083821067ffffffffffffffff8311176111a557506111a19350815260128252715472616e73666572466565734d6f64756c6560701b602083015251918291826112f3565b0390f35b634e487b7160e01b815260418552602490fd5b503461022a57602036600319011261022a576001600160a01b0391826111dc611280565b169283855260c960205260ff83862054161561125457609754163314158061124a575b61123d575081835260c96020528220805460ff191690557f408b49d9be1c914c52a0227e18a077e5a892dddf32a26cfa94a5d9708fad77188280a280f35b90516282b42960e81b8152fd5b50823314156111ff565b5090516358b71d2b60e11b8152fd5b8490346102dc57602090611276366112b1565b5050505060018152f35b600435906001600160a01b038216820361129657565b600080fd5b602435906001600160a01b038216820361129657565b6080906003190112611296576001600160a01b039060043582811681036112965791602435818116810361129657916044359160643590811681036112965790565b6020808252825181830181905290939260005b82811061132857505060409293506000838284010152601f8019910116010190565b818101860151848201604001528501611306565b34611296576060366003190112611296576001600160a01b0360043581811603611296576044359081160361129657005b6060810190811067ffffffffffffffff82111761138957604052565b634e487b7160e01b600052604160045260246000fd5b90601f8019910116810190811067ffffffffffffffff82111761138957604052565b67ffffffffffffffff811161138957601f01601f191660200190565b60443590811515820361129657565b6097546001600160a01b0316330361140057565b606460405162461bcd60e51b815260206004820152602060248201527f4f776e61626c653a2063616c6c6572206973206e6f7420746865206f776e65726044820152fd5b609780546001600160a01b039283166001600160a01b0319821681179092559091167f8be0079c531659141344cd1fd0a4f28419497f9722a3daafe3b4186f6b6457e0600080a3565b1561149457565b60405162461bcd60e51b815260206004820152602c60248201527f46756e6374696f6e206d7573742062652063616c6c6564207468726f7567682060448201526b19195b1959d85d1958d85b1b60a21b6064820152608490fd5b156114f557565b60405162461bcd60e51b815260206004820152602c60248201527f46756e6374696f6e206d7573742062652063616c6c6564207468726f7567682060448201526b6163746976652070726f787960a01b6064820152608490fd5b803b156115845760008051602061185383398151915280546001600160a01b0319166001600160a01b03909216919091179055565b60405162461bcd60e51b815260206004820152602d60248201527f455243313936373a206e657720696d706c656d656e746174696f6e206973206e60448201526c1bdd08184818dbdb9d1c9858dd609a1b6064820152608490fd5b9192901561164157508151156115f3575090565b3b156115fc5790565b60405162461bcd60e51b815260206004820152601d60248201527f416464726573733a2063616c6c20746f206e6f6e2d636f6e74726163740000006044820152606490fd5b8251909150156116545750805190602001fd5b60405162461bcd60e51b815290819061167090600483016112f3565b0390fd5b1561167b57565b60405162461bcd60e51b815260206004820152602b60248201527f496e697469616c697a61626c653a20636f6e7472616374206973206e6f74206960448201526a6e697469616c697a696e6760a81b6064820152608490fd5b91908110156116e45760051b0190565b634e487b7160e01b600052603260045260246000fd5b356001600160a01b03811681036112965790565b9160018060a01b03908181169260009284845260c960205260ff604085205416156117db5760ca60205260ff604085205416156117db5760cd6020526040842095169485845260205260ff6040842054166117d45761176c916117e3565b9081611779575b50505050565b60ce54908282018092116117c057507ff228de527fc1b9843baac03b9a04565473a263375950e63435d4138464386f469160209160ce55604051908152a338808080611773565b634e487b7160e01b81526011600452602490fd5b5050505050565b505050505050565b6001600160a01b0316600090815260ca602052604081205490919060ff161561184e5760cb60205260408220549081810291818304149015171561183a576127109004905060018110156118375750600190565b90565b634e487b7160e01b82526011600452602482fd5b509056fe360894a13ba1a3210667c828492db98dca3e2076cc3735a920a3ca505d382bbca2646970667358221220e2a6f60088c6b0ea9250a66c3367d86a398109e966507a90a99441415ba5301164736f6c63430008140033",
  "linkReferences": {},
  "deployedLinkReferences": {}
}