{
  "_format": "hh-sol-artifact-1",
  "contractName": "ComplianceModule",
  "sourceName": "contracts/compliance/modules/ComplianceModule.sol",
  "abi": [
    {
      "inputs": [
        {
          "internalType": "address",
          "name": "_kycVerifier",
          "type": "address"
        }
      ],
      "stateMutability": "nonpayable",
      "type": "constructor"
    },
    {
      "inputs": [],
      "name": "BelowMinInvestment",
      "type": "error"
    },
    {
      "inputs": [],
      "name": "CountryIsRestricted",
      "type": "error"
    },
    {
      "inputs": [],
      "name": "ExceedsMaxHolding",
      "type": "error"
    },
    {
      "inputs": [],
      "name": "InvalidAddress",
      "type": "error"
    },
    {
      "inputs": [],
      "name": "KYCNotVerified",
      "type": "error"
    },
    {
      "anonymous": false,
      "inputs": [
        {
          "indexed": true,
          "internalType": "uint16",
          "name": "country",
          "type": "uint16"
        },
        {
          "indexed": false,
          "internalType": "bool",
          "name": "restricted",
          "type": "bool"
        }
      ],
      "name": "CountryRestricted",
      "type": "event"
    },
    {
      "anonymous": false,
      "inputs": [
        {
          "indexed": true,
          "internalType": "address",
          "name": "oldVerifier",
          "type": "address"
        },
        {
          "indexed": true,
          "internalType": "address",
          "name": "newVerifier",
          "type": "address"
        }
      ],
      "name": "KYCVerifierUpdated",
      "type": "event"
    },
    {
      "anonymous": false,
      "inputs": [
        {
          "indexed": true,
          "internalType": "uint8",
          "name": "category",
          "type": "uint8"
        },
        {
          "indexed": false,
          "internalType": "uint256",
          "name": "amount",
          "type": "uint256"
        }
      ],
      "name": "MaxHoldingSet",
      "type": "event"
    },
    {
      "anonymous": false,
      "inputs": [
        {
          "indexed": false,
          "internalType": "uint256",
          "name": "maxInvestors",
          "type": "uint256"
        }
      ],
      "name": "MaxInvestorsSet",
      "type": "event"
    },
    {
      "anonymous": false,
      "inputs": [
        {
          "indexed": false,
          "internalType": "uint8",
          "name": "oldLevel",
          "type": "uint8"
        },
        {
          "indexed": false,
          "internalType": "uint8",
          "name": "newLevel",
          "type": "uint8"
        }
      ],
      "name": "MinKYCLevelUpdated",
      "type": "event"
    },
    {
      "anonymous": false,
      "inputs": [
        {
          "indexed": true,
          "internalType": "bytes32",
          "name": "role",
          "type": "bytes32"
        },
        {
          "indexed": true,
          "internalType": "bytes32",
          "name": "previousAdminRole",
          "type": "bytes32"
        },
        {
          "indexed": true,
          "internalType": "bytes32",
          "name": "newAdminRole",
          "type": "bytes32"
        }
      ],
      "name": "RoleAdminChanged",
      "type": "event"
    },
    {
      "anonymous": false,
      "inputs": [
        {
          "indexed": true,
          "internalType": "bytes32",
          "name": "role",
          "type": "bytes32"
        },
        {
          "indexed": true,
          "internalType": "address",
          "name": "account",
          "type": "address"
        },
        {
          "indexed": true,
          "internalType": "address",
          "name": "sender",
          "type": "address"
        }
      ],
      "name": "RoleGranted",
      "type": "event"
    },
    {
      "anonymous": false,
      "inputs": [
        {
          "indexed": true,
          "internalType": "bytes32",
          "name": "role",
          "type": "bytes32"
        },
        {
          "indexed": true,
          "internalType": "address",
          "name": "account",
          "type": "address"
        },
        {
          "indexed": true,
          "internalType": "address",
          "name": "sender",
          "type": "address"
        }
      ],
      "name": "RoleRevoked",
      "type": "event"
    },
    {
      "inputs": [],
      "name": "COMPLIANCE_ROLE",
      "outputs": [
        {
          "internalType": "bytes32",
          "name": "",
          "type": "bytes32"
        }
      ],
      "stateMutability": "view",
      "type": "function"
    },
    {
      "inputs": [],
      "name": "DEFAULT_ADMIN_ROLE",
      "outputs": [
        {
          "internalType": "bytes32",
          "name": "",
          "type": "bytes32"
        }
      ],
      "stateMutability": "view",
      "type": "function"
    },
    {
      "inputs": [
        {
          "internalType": "uint16[]",
          "name": "_countries",
          "type": "uint16[]"
        },
        {
          "internalType": "bool",
          "name": "_restricted",
          "type": "bool"
        }
      ],
      "name": "batchRestrictCountries",
      "outputs": [],
      "stateMutability": "nonpayable",
      "type": "function"
    },
    {
      "inputs": [
        {
          "internalType": "address",
          "name": "_from",
          "type": "address"
        },
        {
          "internalType": "address",
          "name": "_to",
          "type": "address"
        },
        {
          "internalType": "uint256",
          "name": "_amount",
          "type": "uint256"
        },
        {
          "internalType": "uint8",
          "name": "_fromLevel",
          "type": "uint8"
        },
        {
          "internalType": "uint16",
          "name": "_fromCountry",
          "type": "uint16"
        },
        {
          "internalType": "uint256",
          "name": "_fromExpiry",
          "type": "uint256"
        },
        {
          "internalType": "bytes",
          "name": "_fromSignature",
          "type": "bytes"
        },
        {
          "internalType": "uint8",
          "name": "_toLevel",
          "type": "uint8"
        },
        {
          "internalType": "uint16",
          "name": "_toCountry",
          "type": "uint16"
        },
        {
          "internalType": "uint256",
          "name": "_toExpiry",
          "type": "uint256"
        },
        {
          "internalType": "bytes",
          "name": "_toSignature",
          "type": "bytes"
        }
      ],
      "name": "canTransferBetweenWithProof",
      "outputs": [
        {
          "internalType": "bool",
          "name": "",
          "type": "bool"
        }
      ],
      "stateMutability": "view",
      "type": "function"
    },
    {
      "inputs": [
        {
          "internalType": "address",
          "name": "_to",
          "type": "address"
        },
        {
          "internalType": "uint256",
          "name": "_amount",
          "type": "uint256"
        },
        {
          "internalType": "uint8",
          "name": "_level",
          "type": "uint8"
        },
        {
          "internalType": "uint16",
          "name": "_countryCode",
          "type": "uint16"
        },
        {
          "internalType": "uint256",
          "name": "_expiry",
          "type": "uint256"
        },
        {
          "internalType": "bytes",
          "name": "_signature",
          "type": "bytes"
        }
      ],
      "name": "canTransferWithProof",
      "outputs": [
        {
          "internalType": "bool",
          "name": "",
          "type": "bool"
        }
      ],
      "stateMutability": "view",
      "type": "function"
    },
    {
      "inputs": [
        {
          "internalType": "uint16",
          "name": "",
          "type": "uint16"
        },
        {
          "internalType": "uint16",
          "name": "",
          "type": "uint16"
        }
      ],
      "name": "countryRestrictions",
      "outputs": [
        {
          "internalType": "bool",
          "name": "",
          "type": "bool"
        }
      ],
      "stateMutability": "view",
      "type": "function"
    },
    {
      "inputs": [
        {
          "internalType": "bytes32",
          "name": "role",
          "type": "bytes32"
        }
      ],
      "name": "getRoleAdmin",
      "outputs": [
        {
          "internalType": "bytes32",
          "name": "",
          "type": "bytes32"
        }
      ],
      "stateMutability": "view",
      "type": "function"
    },
    {
      "inputs": [
        {
          "internalType": "bytes32",
          "name": "role",
          "type": "bytes32"
        },
        {
          "internalType": "address",
          "name": "account",
          "type": "address"
        }
      ],
      "name": "grantRole",
      "outputs": [],
      "stateMutability": "nonpayable",
      "type": "function"
    },
    {
      "inputs": [
        {
          "internalType": "bytes32",
          "name": "role",
          "type": "bytes32"
        },
        {
          "internalType": "address",
          "name": "account",
          "type": "address"
        }
      ],
      "name": "hasRole",
      "outputs": [
        {
          "internalType": "bool",
          "name": "",
          "type": "bool"
        }
      ],
      "stateMutability": "view",
      "type": "function"
    },
    {
      "inputs": [
        {
          "internalType": "address",
          "name": "",
          "type": "address"
        }
      ],
      "name": "investorCount",
      "outputs": [
        {
          "internalType": "uint256",
          "name": "",
          "type": "uint256"
        }
      ],
      "stateMutability": "view",
      "type": "function"
    },
    {
      "inputs": [
        {
          "internalType": "address",
          "name": "",
          "type": "address"
        },
        {
          "internalType": "address",
          "name": "",
          "type": "address"
        }
      ],
      "name": "isInvestor",
      "outputs": [
        {
          "internalType": "bool",
          "name": "",
          "type": "bool"
        }
      ],
      "stateMutability": "view",
      "type": "function"
    },
    {
      "inputs": [],
      "name": "kycVerifier",
      "outputs": [
        {
          "internalType": "contract IKYCVerifier",
          "name": "",
          "type": "address"
        }
      ],
      "stateMutability": "view",
      "type": "function"
    },
    {
      "inputs": [
        {
          "internalType": "uint8",
          "name": "",
          "type": "uint8"
        }
      ],
      "name": "maxHolding",
      "outputs": [
        {
          "internalType": "uint256",
          "name": "",
          "type": "uint256"
        }
      ],
      "stateMutability": "view",
      "type": "function"
    },
    {
      "inputs": [],
      "name": "maxInvestors",
      "outputs": [
        {
          "internalType": "uint256",
          "name": "",
          "type": "uint256"
        }
      ],
      "stateMutability": "view",
      "type": "function"
    },
    {
      "inputs": [],
      "name": "minInvestment",
      "outputs": [
        {
          "internalType": "uint256",
          "name": "",
          "type": "uint256"
        }
      ],
      "stateMutability": "view",
      "type": "function"
    },
    {
      "inputs": [],
      "name": "minKYCLevel",
      "outputs": [
        {
          "internalType": "uint8",
          "name": "",
          "type": "uint8"
        }
      ],
      "stateMutability": "view",
      "type": "function"
    },
    {
      "inputs": [
        {
          "internalType": "bytes32",
          "name": "role",
          "type": "bytes32"
        },
        {
          "internalType": "address",
          "name": "account",
          "type": "address"
        }
      ],
      "name": "renounceRole",
      "outputs": [],
      "stateMutability": "nonpayable",
      "type": "function"
    },
    {
      "inputs": [
        {
          "internalType": "address",
          "name": "",
          "type": "address"
        }
      ],
      "name": "requiresAccreditation",
      "outputs": [
        {
          "internalType": "bool",
          "name": "",
          "type": "bool"
        }
      ],
      "stateMutability": "view",
      "type": "function"
    },
    {
      "inputs": [
        {
          "internalType": "uint16",
          "name": "",
          "type": "uint16"
        }
      ],
      "name": "restrictedCountries",
      "outputs": [
        {
          "internalType": "bool",
          "name": "",
          "type": "bool"
        }
      ],
      "stateMutability": "view",
      "type": "function"
    },
    {
      "inputs": [
        {
          "internalType": "bytes32",
          "name": "role",
          "type": "bytes32"
        },
        {
          "internalType": "address",
          "name": "account",
          "type": "address"
        }
      ],
      "name": "revokeRole",
      "outputs": [],
      "stateMutability": "nonpayable",
      "type": "function"
    },
    {
      "inputs": [
        {
          "internalType": "uint16",
          "name": "_country",
          "type": "uint16"
        },
        {
          "internalType": "bool",
          "name": "_restricted",
          "type": "bool"
        }
      ],
      "name": "setCountryRestriction",
      "outputs": [],
      "stateMutability": "nonpayable",
      "type": "function"
    },
    {
      "inputs": [
        {
          "internalType": "uint16",
          "name": "_fromCountry",
          "type": "uint16"
        },
        {
          "internalType": "uint16",
          "name": "_toCountry",
          "type": "uint16"
        },
        {
          "internalType": "bool",
          "name": "_restricted",
          "type": "bool"
        }
      ],
      "name": "setCountryToCountryRestriction",
      "outputs": [],
      "stateMutability": "nonpayable",
      "type": "function"
    },
    {
      "inputs": [
        {
          "internalType": "address",
          "name": "_kycVerifier",
          "type": "address"
        }
      ],
      "name": "setKYCVerifier",
      "outputs": [],
      "stateMutability": "nonpayable",
      "type": "function"
    },
    {
      "inputs": [
        {
          "internalType": "uint8",
          "name": "_level",
          "type": "uint8"
        },
        {
          "internalType": "uint256",
          "name": "_amount",
          "type": "uint256"
        }
      ],
      "name": "setMaxHolding",
      "outputs": [],
      "stateMutability": "nonpayable",
      "type": "function"
    },
    {
      "inputs": [
        {
          "internalType": "uint256",
          "name": "_maxInvestors",
          "type": "uint256"
        }
      ],
      "name": "setMaxInvestors",
      "outputs": [],
      "stateMutability": "nonpayable",
      "type": "function"
    },
    {
      "inputs": [
        {
          "internalType": "uint256",
          "name": "_minInvestment",
          "type": "uint256"
        }
      ],
      "name": "setMinInvestment",
      "outputs": [],
      "stateMutability": "nonpayable",
      "type": "function"
    },
    {
      "inputs": [
        {
          "internalType": "uint8",
          "name": "_level",
          "type": "uint8"
        }
      ],
      "name": "setMinKYCLevel",
      "outputs": [],
      "stateMutability": "nonpayable",
      "type": "function"
    },
    {
      "inputs": [
        {
          "internalType": "bytes4",
          "name": "interfaceId",
          "type": "bytes4"
        }
      ],
      "name": "supportsInterface",
      "outputs": [
        {
          "internalType": "bool",
          "name": "",
          "type": "bool"
        }
      ],
      "stateMutability": "view",
      "type": "function"
    },
    {
      "inputs": [
        {
          "internalType": "address",
          "name": "_from",
          "type": "address"
        },
        {
          "internalType": "address",
          "name": "_to",
          "type": "address"
        },
        {
          "internalType": "uint256",
          "name": "",
          "type": "uint256"
        }
      ],
      "name": "transferred",
      "outputs": [],
      "stateMutability": "nonpayable",
      "type": "function"
    }
  ],
  "bytecode": "0x6080346200016d57601f6200175738819003918201601f1916830192916001600160401b038411838510176200017257808392604095865283396020928391810103126200016d57516001600160a01b038116908190036200016d5780156200015c5760018060a01b0319600154161760015560ff19600181600a541617600a55600090818052818352838220338352835260ff84832054161562000126575b7f442a94f1a1fac79af32856af2a64f63648cfa2ef3b98610a5bb7cbec4cee698592838352828152848320338452815260ff858420541615620000ec575b84516115ae9081620001898239f35b8383528281528483209033845252600184832091825416179055339160008051602062001737833981519152339280a438808080620000dd565b8180528183528382203383528352838220600182825416179055333383600080516020620017378339815191528180a46200009f565b825163e6c4247b60e01b8152600490fd5b600080fd5b634e487b7160e01b600052604160045260246000fdfe608060408181526004918236101561001657600080fd5b600092833560e01c91826301ffc9a714610cc3575081630615f67714610c5c578163062d3bd714610c21578163248a9ca314610bf75781632e1623d514610bc75781632f2ff15d14610b1e57816335e896c114610ad057816336568abe14610a3e5781633700270914610a065781635ffa6e39146109b8578163778af12b1461093c5781637ff3fe01146108da57816387119fb5146108695781638ac2c6801461084a5781638baf29b4146107bd5781638f4072701461070757816391d14854146106c1578163a217fddf146106a6578163b937e7cc1461067d578163ba7ed2ff1461065b578163bc99cc371461063c578163bdc9a7b6146105d4578163c409e58b146105b2578163d125fa311461057b578163d17f6417146102fc578163d547741f146102be578163df5e0c8a14610280578163e97b0f2a146101af575063fbb5e0991461016457600080fd5b346101ab57806003193601126101ab5760ff81602093610182610d57565b61018a610d68565b61ffff91821683526003875283832091168252855220549151911615158152f35b5080fd5b82843461027557610160366003190112610275576101cb610d41565b6101d3610d2b565b6064359260ff84168403610275576084359561ffff92838816880361027c5767ffffffffffffffff9060c435828111610278576102139036908501610d88565b93909260e4359560ff8716870361027557610104359788168803610275576101443591821161027557509161025760209b9896949261026c9a989694369101610d88565b989097610124359760a4359360443591611446565b90519015158152f35b80fd5b8480fd5b8280fd5b5050346101ab5760203660031901126101ab5760209160ff9082906001600160a01b036102ab610d41565b1681526009855220541690519015158152f35b9190503461027c578060031936011261027c576102f991356102f460016102e3610d2b565b938387528660205286200154610fb1565b611133565b80f35b90503461027c576020908160031936011261057757610319610d41565b91848052848152838520338652815260ff84862054161561039857506001600160a01b0391821692831561038b575050600154826bffffffffffffffffffffffff60a01b821617600155167f4900e8de75d157a21080e6f17b8c48972095afb692f9fd506645277c99153ae38380a380f35b5163e6c4247b60e01b8152fd5b9083856103a4336111ce565b90808351906103b2826110df565b6042825286820192606036853782511561056457603084538251906001918210156105515790607860218501536041915b8183116104e6575050506104a5578361047560488895610497956104669560449a995196879361043d8b86019b76020b1b1b2b9b9a1b7b73a3937b61d1030b1b1b7bab73a1604d1b8d5282519283916037890191016110bc565b8401917001034b99036b4b9b9b4b733903937b6329607d1b6037840152518093868401906110bc565b01036028810185520183611111565b5195869462461bcd60e51b8652850152518092816024860152858501906110bc565b601f01601f19168101030190fd5b606485878087519262461bcd60e51b845283015260248201527f537472696e67733a20686578206c656e67746820696e73756666696369656e746044820152fd5b909192600f8116601081101561053e576f181899199a1a9b1b9c1cb0b131b232b360811b901a61051685876111a7565b53881c92801561052b576000190191906103e3565b634e487b7160e01b825260118952602482fd5b634e487b7160e01b835260328a52602483fd5b634e487b7160e01b815260328852602490fd5b634e487b7160e01b815260328752602490fd5b8380fd5b5050346101ab5760203660031901126101ab5760ff8160209361ffff61059f610d57565b1681526002855220541690519015158152f35b5050346101ab57816003193601126101ab5760209060ff600a54169051908152f35b5050346101ab5760603660031901126101ab576105ef610d57565b906105f8610d68565b90604435918215158303610278576102f993610612610db6565b61ffff809116865260036020528286209116855260205283209060ff801983541691151516179055565b5050346101ab57816003193601126101ab576020906005549051908152f35b8390346101ab5760203660031901126101ab57610676610db6565b3560085580f35b5050346101ab57816003193601126101ab5760015490516001600160a01b039091168152602090f35b5050346101ab57816003193601126101ab5751908152602090f35b90503461027c578160031936011261027c578160209360ff926106e2610d2b565b903582528186528282206001600160a01b039091168252855220549151911615158152f35b9190503461027c578060031936011261027c5781359067ffffffffffffffff92838311610278573660238401121561027857820135928311610577576024600592368286861b830101116107b95761075d610d79565b93610766610db6565b865b868110610773578780f35b8381831b840101359061ffff82168092036107b5576107b091895260026020526107ab87878b209060ff801983541691151516179055565b611553565b610768565b8880fd5b8580fd5b5050346101ab5760603660031901126101ab576107d8610d41565b506107e1610d2b565b338352600760209081528284206001600160a01b039092168085529190528183205460ff161561080f578280f35b3383526007602052818320908352602052808220600160ff19825416179055338252600660205281206108428154611553565b905538808280f35b5050346101ab57816003193601126101ab576020906008549051908152f35b90503461027c5760c036600319011261027c57610884610d41565b6044359160ff83168303610278576064359461ffff861686036102755760a4359067ffffffffffffffff82116102755750916108ca61026c949260209794369101610d88565b9390926084359260243590611345565b9190503461027c578060031936011261027c5760207fe7fc6dafe93def648785c36b75a7fe142125dbd8c9b28ce0ce27a2cd0f63f87091610919610d16565b9060ff60243592610928610db6565b16948587528352818187205551908152a280f35b5050346101ab57806003193601126101ab577fc5d2e7bc01b47c39ab352ccc3ff69a87e5bfbca7f3ad56f38aef06270e2e486b6020610979610d57565b61ffff610984610d79565b9161098d610db6565b1693848652600283526109ae828288209060ff801983541691151516179055565b519015158152a280f35b5050346101ab57806003193601126101ab5760ff816020936109d8610d41565b6109e0610d2b565b6001600160a01b0391821683526007875283832091168252855220549151911615158152f35b5050346101ab5760203660031901126101ab5760209181906001600160a01b03610a2e610d41565b1681526006845220549051908152f35b839150346101ab57826003193601126101ab57610a59610d2b565b90336001600160a01b03831603610a7557906102f99135611133565b608490602085519162461bcd60e51b8352820152602f60248201527f416363657373436f6e74726f6c3a2063616e206f6e6c792072656e6f756e636560448201526e103937b632b9903337b91039b2b63360891b6064820152fd5b90503461027c57602036600319011261027c577f0de3b656191db95f0ae3b33d959531021110a9da5b819655d9d13a57496144ad916020913590610b12610db6565b8160055551908152a180f35b90503461027c578160031936011261027c573590610b3a610d2b565b9082845283602052610b5160018286200154610fb1565b82845260208481528185206001600160a01b039093168086529290528084205460ff1615610b7d578380f35b828452836020528084208285526020528320600160ff1982541617905533917f2f8788117e7eff1d82e926ec794901d17c78024a50270940304540a733656f0d8480a43880808380f35b90503461027c57602036600319011261027c57602092829160ff610be9610d16565b168252845220549051908152f35b90503461027c57602036600319011261027c57816020936001923581528085522001549051908152f35b5050346101ab57816003193601126101ab57602090517f442a94f1a1fac79af32856af2a64f63648cfa2ef3b98610a5bb7cbec4cee69858152f35b5050346101ab5760203660031901126101ab577fa71931ddbbc8dd83299d827601bf2c7b962cf80465dc1cf5259521d550924dcb90610c99610d16565b610ca1610db6565b60ff600a5491168060ff19831617600a5560ff8351921682526020820152a180f35b84913461027c57602036600319011261027c573563ffffffff60e01b811680910361027c5760209250637965db0b60e01b8114908115610d05575b5015158152f35b6301ffc9a760e01b14905083610cfe565b6004359060ff82168203610d2657565b600080fd5b602435906001600160a01b0382168203610d2657565b600435906001600160a01b0382168203610d2657565b6004359061ffff82168203610d2657565b6024359061ffff82168203610d2657565b602435908115158203610d2657565b9181601f84011215610d265782359167ffffffffffffffff8311610d265760208381860195010111610d2657565b3360009081527f335573aa7cafba10a32e2694464d1e7e5294d917876d04d506249fbf84d791af6020908152604080832054909291907f442a94f1a1fac79af32856af2a64f63648cfa2ef3b98610a5bb7cbec4cee69859060ff1615610e1c5750505050565b610e25336111ce565b90845190610e32826110df565b60428252838201946060368737825115610f9d5760308653825190600191821015610f9d5790607860218501536041915b818311610f2f57505050610eed5784610ec96048610497936044979851988991610eba8984019876020b1b1b2b9b9a1b7b73a3937b61d1030b1b1b7bab73a1604d1b8a5261043d815180928d6037890191016110bc565b01036028810189520187611111565b5194859362461bcd60e51b85526004850152518092816024860152858501906110bc565b60648386519062461bcd60e51b825280600483015260248201527f537472696e67733a20686578206c656e67746820696e73756666696369656e746044820152fd5b909192600f81166010811015610f89576f181899199a1a9b1b9c1cb0b131b232b360811b901a610f5f85876111a7565b5360041c928015610f7557600019019190610e63565b634e487b7160e01b82526011600452602482fd5b634e487b7160e01b83526032600452602483fd5b634e487b7160e01b81526032600452602490fd5b60008181526020818152604092838320338452825260ff848420541615610fd85750505050565b610fe1336111ce565b90845190610fee826110df565b60428252838201946060368737825115610f9d5760308653825190600191821015610f9d5790607860218501536041915b81831161107657505050610eed5784610ec96048610497936044979851988991610eba8984019876020b1b1b2b9b9a1b7b73a3937b61d1030b1b1b7bab73a1604d1b8a5261043d815180928d6037890191016110bc565b909192600f81166010811015610f89576f181899199a1a9b1b9c1cb0b131b232b360811b901a6110a685876111a7565b5360041c928015610f755760001901919061101f565b60005b8381106110cf5750506000910152565b81810151838201526020016110bf565b6080810190811067ffffffffffffffff8211176110fb57604052565b634e487b7160e01b600052604160045260246000fd5b90601f8019910116810190811067ffffffffffffffff8211176110fb57604052565b9060009180835282602052604083209160018060a01b03169182845260205260ff60408420541661116357505050565b80835282602052604083208284526020526040832060ff1981541690557ff6391f5c32d9c69d2a47ea670b442974b53935d1edc7fd64eb21e047a839171b339380a4565b9081518110156111b8570160200190565b634e487b7160e01b600052603260045260246000fd5b604051906060820182811067ffffffffffffffff8211176110fb57604052602a82526020820160403682378251156111b8576030905381516001908110156111b857607860218401536029905b80821161126f57505061122b5790565b606460405162461bcd60e51b815260206004820152602060248201527f537472696e67733a20686578206c656e67746820696e73756666696369656e746044820152fd5b9091600f811660108110156112c8576f181899199a1a9b1b9c1cb0b131b232b360811b901a61129e84866111a7565b5360041c9180156112b357600019019061121b565b60246000634e487b7160e01b81526011600452fd5b60246000634e487b7160e01b81526032600452fd5b90816020910312610d2657518015158103610d265790565b94918694919360ff61ffff9260c0999660018060a01b03168952166020880152166040860152606085015260a060808501528160a0850152848401376000828201840152601f01601f1916010190565b94826020939661137c869796949960018060a01b03600154169460405198899788968796631da9612560e11b8852600488016112f5565b03915afa90811561143a5760009161140c575b50156114045760ff80600a541692169182106114045761ffff16600052600260205260ff604060002054166113fd57600052600460205260406000205480151590816113f3575b506113ed57600854116113e857600190565b600090565b50600090565b90508111386113d6565b5050600090565b505050600090565b61142d915060203d8111611433575b6114258183611111565b8101906112dd565b3861138f565b503d61141b565b6040513d6000823e3d90fd5b95899a999793899c979d95939d9996929960018060a01b0395868216611497575b5050505050506020959161137c91600154169460405198899788968796631da9612560e11b8852600488016112f5565b869a50859798506114c9906020969597600154169460405198899788968796631da9612560e11b8852600488016112f5565b03915afa90811561143a57600091611535575b50156115275761ffff8091166000526003602052604060002090871660005260205260ff6040600020541661151a5786908693388080808080611467565b5050505050505050600090565b505050505050505050600090565b61154d915060203d8111611433576114258183611111565b386114dc565b60001981146115625760010190565b634e487b7160e01b600052601160045260246000fdfea2646970667358221220b2711f28303d6b16ef4cfba8d6692176f53fce2828a6a8ce226ad45b2247561964736f6c634300081400332f8788117e7eff1d82e926ec794901d17c78024a50270940304540a733656f0d",
  "linkReferences": {},
  "deployedLinkReferences": {}
}