{
  "_format": "hh-sol-artifact-1",
  "contractName": "LockupModule",
  "sourceName": "contracts/compliance/modules/LockupModule.sol",
  "abi": [
    {
      "inputs": [],
      "name": "ComplianceAlreadyBound",
      "type": "error"
    },
    {
      "inputs": [],
      "name": "ComplianceNotBound",
      "type": "error"
    },
    {
      "inputs": [],
      "name": "InsufficientUnlockedBalance",
      "type": "error"
    },
    {
      "inputs": [],
      "name": "InvalidLockupIndex",
      "type": "error"
    },
    {
      "inputs": [],
      "name": "InvalidLockupPeriod",
      "type": "error"
    },
    {
      "inputs": [],
      "name": "LockupAlreadyReleased",
      "type": "error"
    },
    {
      "inputs": [],
      "name": "LockupNotExpired",
      "type": "error"
    },
    {
      "inputs": [],
      "name": "TooManyLockups",
      "type": "error"
    },
    {
      "inputs": [],
      "name": "Unauthorized",
      "type": "error"
    },
    {
      "inputs": [],
      "name": "ZeroAddress",
      "type": "error"
    },
    {
      "inputs": [],
      "name": "ZeroAmount",
      "type": "error"
    },
    {
      "anonymous": false,
      "inputs": [
        {
          "indexed": false,
          "internalType": "address",
          "name": "previousAdmin",
          "type": "address"
        },
        {
          "indexed": false,
          "internalType": "address",
          "name": "newAdmin",
          "type": "address"
        }
      ],
      "name": "AdminChanged",
      "type": "event"
    },
    {
      "anonymous": false,
      "inputs": [
        {
          "indexed": true,
          "internalType": "address",
          "name": "beacon",
          "type": "address"
        }
      ],
      "name": "BeaconUpgraded",
      "type": "event"
    },
    {
      "anonymous": false,
      "inputs": [
        {
          "indexed": true,
          "internalType": "address",
          "name": "compliance",
          "type": "address"
        }
      ],
      "name": "ComplianceBound",
      "type": "event"
    },
    {
      "anonymous": false,
      "inputs": [
        {
          "indexed": true,
          "internalType": "address",
          "name": "compliance",
          "type": "address"
        }
      ],
      "name": "ComplianceUnbound",
      "type": "event"
    },
    {
      "anonymous": false,
      "inputs": [
        {
          "indexed": true,
          "internalType": "address",
          "name": "compliance",
          "type": "address"
        },
        {
          "indexed": false,
          "internalType": "uint256",
          "name": "period",
          "type": "uint256"
        }
      ],
      "name": "DefaultLockupPeriodSet",
      "type": "event"
    },
    {
      "anonymous": false,
      "inputs": [
        {
          "indexed": false,
          "internalType": "uint8",
          "name": "version",
          "type": "uint8"
        }
      ],
      "name": "Initialized",
      "type": "event"
    },
    {
      "anonymous": false,
      "inputs": [
        {
          "indexed": true,
          "internalType": "address",
          "name": "compliance",
          "type": "address"
        },
        {
          "indexed": true,
          "internalType": "address",
          "name": "account",
          "type": "address"
        },
        {
          "indexed": false,
          "internalType": "uint256",
          "name": "amount",
          "type": "uint256"
        },
        {
          "indexed": false,
          "internalType": "uint256",
          "name": "releaseTime",
          "type": "uint256"
        }
      ],
      "name": "LockupCreated",
      "type": "event"
    },
    {
      "anonymous": false,
      "inputs": [
        {
          "indexed": true,
          "internalType": "address",
          "name": "compliance",
          "type": "address"
        },
        {
          "indexed": true,
          "internalType": "address",
          "name": "account",
          "type": "address"
        },
        {
          "indexed": false,
          "internalType": "uint256",
          "name": "index",
          "type": "uint256"
        }
      ],
      "name": "LockupReleased",
      "type": "event"
    },
    {
      "anonymous": false,
      "inputs": [
        {
          "indexed": true,
          "internalType": "address",
          "name": "compliance",
          "type": "address"
        },
        {
          "indexed": false,
          "internalType": "bool",
          "name": "enabled",
          "type": "bool"
        }
      ],
      "name": "ModuleEnabled",
      "type": "event"
    },
    {
      "anonymous": false,
      "inputs": [
        {
          "indexed": true,
          "internalType": "address",
          "name": "previousOwner",
          "type": "address"
        },
        {
          "indexed": true,
          "internalType": "address",
          "name": "newOwner",
          "type": "address"
        }
      ],
      "name": "OwnershipTransferred",
      "type": "event"
    },
    {
      "anonymous": false,
      "inputs": [
        {
          "indexed": true,
          "internalType": "address",
          "name": "oldToken",
          "type": "address"
        },
        {
          "indexed": true,
          "internalType": "address",
          "name": "newToken",
          "type": "address"
        }
      ],
      "name": "SecurityTokenUpdated",
      "type": "event"
    },
    {
      "anonymous": false,
      "inputs": [
        {
          "indexed": true,
          "internalType": "address",
          "name": "implementation",
          "type": "address"
        }
      ],
      "name": "Upgraded",
      "type": "event"
    },
    {
      "inputs": [
        {
          "internalType": "address",
          "name": "_compliance",
          "type": "address"
        }
      ],
      "name": "bindCompliance",
      "outputs": [],
      "stateMutability": "nonpayable",
      "type": "function"
    },
    {
      "inputs": [
        {
          "internalType": "address",
          "name": "_compliance",
          "type": "address"
        }
      ],
      "name": "canComplianceBind",
      "outputs": [
        {
          "internalType": "bool",
          "name": "",
          "type": "bool"
        }
      ],
      "stateMutability": "pure",
      "type": "function"
    },
    {
      "inputs": [
        {
          "internalType": "address",
          "name": "_compliance",
          "type": "address"
        },
        {
          "internalType": "address",
          "name": "_account",
          "type": "address"
        },
        {
          "internalType": "uint256",
          "name": "_amount",
          "type": "uint256"
        },
        {
          "internalType": "uint256",
          "name": "_releaseTime",
          "type": "uint256"
        }
      ],
      "name": "createLockup",
      "outputs": [],
      "stateMutability": "nonpayable",
      "type": "function"
    },
    {
      "inputs": [
        {
          "internalType": "address",
          "name": "_compliance",
          "type": "address"
        }
      ],
      "name": "getDefaultLockupPeriod",
      "outputs": [
        {
          "internalType": "uint256",
          "name": "",
          "type": "uint256"
        }
      ],
      "stateMutability": "view",
      "type": "function"
    },
    {
      "inputs": [
        {
          "internalType": "address",
          "name": "_compliance",
          "type": "address"
        },
        {
          "internalType": "address",
          "name": "_account",
          "type": "address"
        }
      ],
      "name": "getLockedBalance",
      "outputs": [
        {
          "internalType": "uint256",
          "name": "",
          "type": "uint256"
        }
      ],
      "stateMutability": "view",
      "type": "function"
    },
    {
      "inputs": [
        {
          "internalType": "address",
          "name": "_compliance",
          "type": "address"
        },
        {
          "internalType": "address",
          "name": "_account",
          "type": "address"
        }
      ],
      "name": "getLockupCount",
      "outputs": [
        {
          "internalType": "uint256",
          "name": "",
          "type": "uint256"
        }
      ],
      "stateMutability": "view",
      "type": "function"
    },
    {
      "inputs": [
        {
          "internalType": "address",
          "name": "_compliance",
          "type": "address"
        },
        {
          "internalType": "address",
          "name": "_account",
          "type": "address"
        }
      ],
      "name": "getLockups",
      "outputs": [
        {
          "components": [
            {
              "internalType": "uint256",
              "name": "amount",
              "type": "uint256"
            },
            {
              "internalType": "uint256",
              "name": "releaseTime",
              "type": "uint256"
            },
            {
              "internalType": "bool",
              "name": "released",
              "type": "bool"
            }
          ],
          "internalType": "struct LockupModule.Lockup[]",
          "name": "",
          "type": "tuple[]"
        }
      ],
      "stateMutability": "view",
      "type": "function"
    },
    {
      "inputs": [
        {
          "internalType": "address",
          "name": "_compliance",
          "type": "address"
        },
        {
          "internalType": "address",
          "name": "_account",
          "type": "address"
        }
      ],
      "name": "getUnlockedBalance",
      "outputs": [
        {
          "internalType": "uint256",
          "name": "",
          "type": "uint256"
        }
      ],
      "stateMutability": "view",
      "type": "function"
    },
    {
      "inputs": [
        {
          "internalType": "address",
          "name": "_securityToken",
          "type": "address"
        }
      ],
      "name": "initialize",
      "outputs": [],
      "stateMutability": "nonpayable",
      "type": "function"
    },
    {
      "inputs": [
        {
          "internalType": "address",
          "name": "_compliance",
          "type": "address"
        }
      ],
      "name": "isComplianceBound",
      "outputs": [
        {
          "internalType": "bool",
          "name": "",
          "type": "bool"
        }
      ],
      "stateMutability": "view",
      "type": "function"
    },
    {
      "inputs": [
        {
          "internalType": "address",
          "name": "_compliance",
          "type": "address"
        }
      ],
      "name": "isModuleEnabled",
      "outputs": [
        {
          "internalType": "bool",
          "name": "",
          "type": "bool"
        }
      ],
      "stateMutability": "view",
      "type": "function"
    },
    {
      "inputs": [],
      "name": "isPlugAndPlay",
      "outputs": [
        {
          "internalType": "bool",
          "name": "",
          "type": "bool"
        }
      ],
      "stateMutability": "pure",
      "type": "function"
    },
    {
      "inputs": [
        {
          "internalType": "address",
          "name": "",
          "type": "address"
        },
        {
          "internalType": "uint256",
          "name": "",
          "type": "uint256"
        },
        {
          "internalType": "address",
          "name": "",
          "type": "address"
        }
      ],
      "name": "moduleBurnAction",
      "outputs": [],
      "stateMutability": "nonpayable",
      "type": "function"
    },
    {
      "inputs": [
        {
          "internalType": "address",
          "name": "_from",
          "type": "address"
        },
        {
          "internalType": "address",
          "name": "",
          "type": "address"
        },
        {
          "internalType": "uint256",
          "name": "_value",
          "type": "uint256"
        },
        {
          "internalType": "address",
          "name": "_compliance",
          "type": "address"
        }
      ],
      "name": "moduleCheck",
      "outputs": [
        {
          "internalType": "bool",
          "name": "",
          "type": "bool"
        }
      ],
      "stateMutability": "view",
      "type": "function"
    },
    {
      "inputs": [
        {
          "internalType": "address",
          "name": "_to",
          "type": "address"
        },
        {
          "internalType": "uint256",
          "name": "_amount",
          "type": "uint256"
        },
        {
          "internalType": "address",
          "name": "_compliance",
          "type": "address"
        }
      ],
      "name": "moduleMintAction",
      "outputs": [],
      "stateMutability": "nonpayable",
      "type": "function"
    },
    {
      "inputs": [
        {
          "internalType": "address",
          "name": "",
          "type": "address"
        },
        {
          "internalType": "address",
          "name": "",
          "type": "address"
        },
        {
          "internalType": "uint256",
          "name": "",
          "type": "uint256"
        },
        {
          "internalType": "address",
          "name": "",
          "type": "address"
        }
      ],
      "name": "moduleTransferAction",
      "outputs": [],
      "stateMutability": "nonpayable",
      "type": "function"
    },
    {
      "inputs": [],
      "name": "name",
      "outputs": [
        {
          "internalType": "string",
          "name": "",
          "type": "string"
        }
      ],
      "stateMutability": "pure",
      "type": "function"
    },
    {
      "inputs": [],
      "name": "owner",
      "outputs": [
        {
          "internalType": "address",
          "name": "",
          "type": "address"
        }
      ],
      "stateMutability": "view",
      "type": "function"
    },
    {
      "inputs": [],
      "name": "proxiableUUID",
      "outputs": [
        {
          "internalType": "bytes32",
          "name": "",
          "type": "bytes32"
        }
      ],
      "stateMutability": "view",
      "type": "function"
    },
    {
      "inputs": [
        {
          "internalType": "address",
          "name": "_compliance",
          "type": "address"
        },
        {
          "internalType": "address",
          "name": "_account",
          "type": "address"
        },
        {
          "internalType": "uint256",
          "name": "_index",
          "type": "uint256"
        }
      ],
      "name": "releaseLockup",
      "outputs": [],
      "stateMutability": "nonpayable",
      "type": "function"
    },
    {
      "inputs": [],
      "name": "renounceOwnership",
      "outputs": [],
      "stateMutability": "nonpayable",
      "type": "function"
    },
    {
      "inputs": [],
      "name": "securityToken",
      "outputs": [
        {
          "internalType": "contract IRWASecurityToken",
          "name": "",
          "type": "address"
        }
      ],
      "stateMutability": "view",
      "type": "function"
    },
    {
      "inputs": [
        {
          "internalType": "address",
          "name": "_compliance",
          "type": "address"
        },
        {
          "internalType": "uint256",
          "name": "_period",
          "type": "uint256"
        }
      ],
      "name": "setDefaultLockupPeriod",
      "outputs": [],
      "stateMutability": "nonpayable",
      "type": "function"
    },
    {
      "inputs": [
        {
          "internalType": "address",
          "name": "_compliance",
          "type": "address"
        },
        {
          "internalType": "bool",
          "name": "_enabled",
          "type": "bool"
        }
      ],
      "name": "setModuleEnabled",
      "outputs": [],
      "stateMutability": "nonpayable",
      "type": "function"
    },
    {
      "inputs": [
        {
          "internalType": "address",
          "name": "_token",
          "type": "address"
        }
      ],
      "name": "setSecurityToken",
      "outputs": [],
      "stateMutability": "nonpayable",
      "type": "function"
    },
    {
      "inputs": [
        {
          "internalType": "address",
          "name": "newOwner",
          "type": "address"
        }
      ],
      "name": "transferOwnership",
      "outputs": [],
      "stateMutability": "nonpayable",
      "type": "function"
    },
    {
      "inputs": [
        {
          "internalType": "address",
          "name": "_compliance",
          "type": "address"
        }
      ],
      "name": "unbindCompliance",
      "outputs": [],
      "stateMutability": "nonpayable",
      "type": "function"
    },
    {
      "inputs": [
        {
          "internalType": "address",
          "name": "newImplementation",
          "type": "address"
        }
      ],
      "name": "upgradeTo",
      "outputs": [],
      "stateMutability": "nonpayable",
      "type": "function"
    },
    {
      "inputs": [
        {
          "internalType": "address",
          "name": "newImplementation",
          "type": "address"
        },
        {
          "internalType": "bytes",
          "name": "data",
          "type": "bytes"
        }
      ],
      "name": "upgradeToAndCall",
      "outputs": [],
      "stateMutability": "payable",
      "type": "function"
    }
  ],
  "bytecode": "0x60a080604052346100315730608052611c679081610037823960805181818161094f01528181610a760152610edd0152f35b600080fdfe6040608081526004908136101561001557600080fd5b600091823560e01c8063013b7ce4146114495780630694a5fb146113ac57806306fdde031461133d57806319e3b5081461125657806326bbbd931461121e5780632c24746e146110e55780632d9ad53d146110a75780633659cfe614610eb65780633686cc4014610ea15780634a93254414610d3b5780634cf4d29514610cfd5780634f1ef286146109fc57806352d1902d1461093a5780635dea898f146108f1578063715018a6146108945780637d4e7bee146107705780638da5cb5b146107475780639920f9c2146106c1578063b84dfbd214610698578063bcc2105314610668578063c03e86001461056a578063c4d66de8146103e5578063c736887e146103b0578063cb2f377b1461039a578063d0bac4ae146102ea578063d87d6567146102cf578063dd70f20014610214578063e6f5e807146101f45763f2fde38b1461016057600080fd5b346101f05760203660031901126101f057610179611471565b916101826115d1565b6001600160a01b0383161561019e578361019b84611629565b80f35b906020608492519162461bcd60e51b8352820152602660248201527f4f776e61626c653a206e6577206f776e657220697320746865207a65726f206160448201526564647265737360d01b6064820152fd5b8280fd5b5050346102105781600319360112610210576020905160018152f35b5080fd5b5090346101f057806003193601126101f05761022e611471565b906024359161023b6115d1565b6001600160a01b031680855260ca6020528185205490939060ff16156102c15762015180831080156102b4575b6102a657507f086778599d51880254fd95c3a71cd4abf50848682a8942ad7fdcaa529dfe3be49160209184865260cd8352818187205551908152a280f35b9051631578094360e01b8152fd5b506312cc03008311610268565b90516358b71d2b60e11b8152fd5b83346102e75761019b6102e13661152d565b91611a5c565b80fd5b5090346101f057806003193601126101f057610304611471565b90602435801515928382036103965761031b6115d1565b6001600160a01b031680865260ca6020528286205490949060ff16156103885750916020916103807f5a16f9367e01a86c4c2edc62f5a9364d229352125194b50c35d26fba096e7a639486885260cb85528288209060ff801983541691151516179055565b51908152a280f35b82516358b71d2b60e11b8152fd5b8580fd5b83346102e7576103a9366114a2565b5050505080f35b5050346102105780600319360112610210576020906103de6103d0611471565b6103d861148c565b90611b63565b9051908152f35b50346101f05760203660031901126101f0576103ff611471565b83549060ff8260081c16159182809361055d575b8015610546575b156104ec5760ff1981166001178655826104db575b506001600160a01b03169182156104cd575061045a60ff855460081c1661045581611859565b611859565b61046333611629565b83549161047560ff8460081c16611859565b6bffffffffffffffffffffffff60a01b60c954161760c955610495578280f35b61ff001916825551600181527f7f26b83ff96e1f2b6a682f133852f6798a09c465da95921460cefb384740249890602090a138808280f35b835163d92e233d60e01b8152fd5b61ffff19166101011785553861042f565b845162461bcd60e51b8152602081860152602e60248201527f496e697469616c697a61626c653a20636f6e747261637420697320616c72656160448201526d191e481a5b9a5d1a585b1a5e995960921b6064820152608490fd5b50303b15801561041a5750600160ff82161461041a565b50600160ff821610610413565b50346101f05760603660031901126101f057610584611471565b9061058d61148c565b926044359160018060a01b038094169384875260ca60205260ff8388205416156106595784875260cc602052828720951694858752602052818620805484101561064a57836105db916118b9565b50600281019182549160ff831661063b5760010154421061062d575060ff19166001179055519081527fef434e760a6b9b6ba6d09d4c579eb5a73a37f8984109da9112a5e07e48db298b90602090a380f35b83516354e21be360e11b8152fd5b508351631dd4df6760e11b8152fd5b509051630319d8a960e21b8152fd5b5090516358b71d2b60e11b8152fd5b505034610210576020366003190112610210576020906001600160a01b0361068e611471565b1615159051908152f35b50503461021057816003193601126102105760c95490516001600160a01b039091168152602090f35b50346101f05760203660031901126101f0576106db611471565b906106e46115d1565b6001600160a01b0391821692831561073a57505060c954826bffffffffffffffffffffffff60a01b82161760c955167f121af75e8446566fa9fc13c32bbb5f71f8e254f34d9cd5b142df1853124f83f78380a380f35b5163d92e233d60e01b8152fd5b50503461021057816003193601126102105760975490516001600160a01b039091168152602090f35b5082903461021057826003193601126102105761078b611471565b9061079461148c565b60018060a01b03809316845260209260cc84528585209116845282528383209182549167ffffffffffffffff8311610881575092908451906107db858260051b0183611593565b8082528482018094845285842084915b8383106108405750505050845193808501918186525180925285850193925b8281106108175785850386f35b83518051865280830151868401528701511515878601526060909401939281019260010161080a565b6003886001928b9a97989a5161085581611561565b85548152848601548382015260ff60028701541615158d820152815201920192019190969493966107eb565b634e487b7160e01b855260419052602484fd5b83346102e757806003193601126102e7576108ad6115d1565b609780546001600160a01b0319811690915581906001600160a01b03167f8be0079c531659141344cd1fd0a4f28419497f9722a3daafe3b4186f6b6457e08280a380f35b5050346102105780600319360112610210578060209261090f611471565b61091761148c565b6001600160a01b03918216835260cc865283832091168252845220549051908152f35b5082346102e757806003193601126102e757507f00000000000000000000000000000000000000000000000000000000000000006001600160a01b031630036109945760208251600080516020611c128339815191528152f35b6020608492519162461bcd60e51b8352820152603860248201527f555550535570677261646561626c653a206d757374206e6f742062652063616c60448201527f6c6564207468726f7567682064656c656761746563616c6c00000000000000006064820152fd5b5090806003193601126101f057610a11611471565b906024359067ffffffffffffffff8211610cf95736602383011215610cf95781840135610a3d816115b5565b610a4983519182611593565b818152866020948583019336602482840101116101f0578060248893018637830101526001600160a01b037f0000000000000000000000000000000000000000000000000000000000000000811690610aa430831415611672565b610ac1600080516020611c128339815191529282845416146116d3565b610ac96115d1565b7f4910fdfa16fed3260ed0e7147f7cc6da11a60208b5b9406d12a635614ffd91435460ff1615610b035750505050505061019b9150611734565b869293949596169085516352d1902d60e01b815287818a81865afa8a9181610cc6575b50610b8557865162461bcd60e51b8152808a01899052602e60248201527f45524331393637557067726164653a206e657720696d706c656d656e7461746960448201526d6f6e206973206e6f74205555505360901b6064820152608490fd5b979192939695949703610c715750610b9c82611734565b7fbc7cd75a20ee27fd9adebab32041f755214dbc6bffa90cc0225b39da2e5c2d3b8780a285845115801590610c69575b610bda575b50505050505080f35b80610c5396845196610beb88611561565b602788527f416464726573733a206c6f772d6c6576656c2064656c65676174652063616c6c87890152660819985a5b195960ca1b868901525190845af4913d15610c5f573d610c45610c3c826115b5565b92519283611593565b81528681943d92013e6117c4565b50388080808085610bd1565b50606092506117c4565b506001610bcc565b835162461bcd60e51b8152908101859052602960248201527f45524331393637557067726164653a20756e737570706f727465642070726f786044820152681a58589b195555525160ba1b6064820152608490fd5b9091508881813d8311610cf2575b610cde8183611593565b81010312610cee57519038610b26565b8a80fd5b503d610cd4565b8480fd5b5050346102105760203660031901126102105760209160ff9082906001600160a01b03610d28611471565b16815260ca855220541690519015158152f35b5090346101f057602080600319360112610e9d576001600160a01b039283610d61611471565b16938415610e8e5784865260ca835260ff8487205416610e7f578351630d47dbe560e31b81529083828481895afa918215610e75578792610e39575b5080609754163314159182610e2b575b505080610e21575b610e1457509060cd6276a7009284865260ca815282862060ff199060018282541617905560cb8252600184882091825416179055528320557f1f7b76c58fb697eb53c6c7c1becb96911516a136e24d7ced386b2355358b75a38280a280f35b82516282b42960e81b8152fd5b5083331415610db5565b909150163314153880610dad565b9091508381813d8311610e6e575b610e518183611593565b81010312610e6a57518181168103610e6a579038610d9d565b8680fd5b503d610e47565b85513d89823e3d90fd5b508251637330a8cb60e11b8152fd5b50825163d92e233d60e01b8152fd5b8380fd5b83346102e757610eb03661152d565b50505080f35b5090346101f057602080600319360112610e9d57610ed2611471565b916001600160a01b037f00000000000000000000000000000000000000000000000000000000000000008116610f0a30821415611672565b610f27600080516020611c128339815191529183835416146116d3565b610f2f6115d1565b8251908482019282841067ffffffffffffffff851117611094578385528883527f4910fdfa16fed3260ed0e7147f7cc6da11a60208b5b9406d12a635614ffd91435460ff1615610f895750505050505061019b9150611734565b869293949596169085516352d1902d60e01b815287818a81865afa8a9181611065575b5061100b57865162461bcd60e51b8152808a01899052602e60248201527f45524331393637557067726164653a206e657720696d706c656d656e7461746960448201526d6f6e206973206e6f74205555505360901b6064820152608490fd5b979192939695949703610c71575061102282611734565b7fbc7cd75a20ee27fd9adebab32041f755214dbc6bffa90cc0225b39da2e5c2d3b8780a28584511580159061105e57610bda5750505050505080f35b5080610bcc565b9091508881813d831161108d575b61107d8183611593565b81010312610cee57519038610fac565b503d611073565b634e487b7160e01b895260418852602489fd5b5050346102105760203660031901126102105760209160ff9082906001600160a01b036110d2611471565b16815260cb855220541690519015158152f35b5091903461021057608036600319011261021057611101611471565b61110961148c565b916044356064356111186115d1565b60018060a01b038094169384875260209560ca875260ff85892054161561120e57169485156111fe5782156111ee57428211156111de5784875260cc8152838720868852815260648488205410156111ce57907f66b41fd567f30dccd9f73792bcef7b9cdea41f514160c4d38a6a40e4621c419793929185885260cc815283882087895281526111c28489208551906111b082611561565b85825284848301528a878301526118eb565b8351928352820152a380f35b8351636844e1c360e01b81528890fd5b8351631578094360e01b81528890fd5b8351631f2a200560e01b81528890fd5b835163d92e233d60e01b81528890fd5b84516358b71d2b60e11b81528990fd5b5050346102105760203660031901126102105760209181906001600160a01b03611246611471565b16815260cd845220549051908152f35b5091346102e757816003193601126102e757611270611471565b9061127961148c565b60c95484516370a0823160e01b81526001600160a01b038381168883015290949160209186916024918391165afa9384156113335783946112fe575b50906112c091611b63565b808311156112f15782039182116112de575060209250905b51908152f35b634e487b7160e01b815260118452602490fd5b50905060209250906112d8565b9093506020813d821161132b575b8161131960209383611593565b810103126101f05751926112c06112b5565b3d915061130c565b85513d85823e3d90fd5b509190346102105781600319360112610210578051918183019083821067ffffffffffffffff831117611399575061139593508152600c82526b4c6f636b75704d6f64756c6560a01b602083015251918291826114e4565b0390f35b634e487b7160e01b815260418552602490fd5b5090346101f05760203660031901126101f0576001600160a01b0391826113d1611471565b169283855260ca60205260ff83862054161561065957609754163314158061143f575b611432575081835260ca6020528220805460ff191690557f408b49d9be1c914c52a0227e18a077e5a892dddf32a26cfa94a5d9708fad77188280a280f35b90516282b42960e81b8152fd5b50823314156113f4565b5050346102105760209061146861145f366114a2565b92909150611979565b90519015158152f35b600435906001600160a01b038216820361148757565b600080fd5b602435906001600160a01b038216820361148757565b6080906003190112611487576001600160a01b039060043582811681036114875791602435818116810361148757916044359160643590811681036114875790565b6020808252825181830181905290939260005b82811061151957505060409293506000838284010152601f8019910116010190565b8181018601518482016040015285016114f7565b6060906003190112611487576001600160a01b03600435818116810361148757916024359160443590811681036114875790565b6060810190811067ffffffffffffffff82111761157d57604052565b634e487b7160e01b600052604160045260246000fd5b90601f8019910116810190811067ffffffffffffffff82111761157d57604052565b67ffffffffffffffff811161157d57601f01601f191660200190565b6097546001600160a01b031633036115e557565b606460405162461bcd60e51b815260206004820152602060248201527f4f776e61626c653a2063616c6c6572206973206e6f7420746865206f776e65726044820152fd5b609780546001600160a01b039283166001600160a01b0319821681179092559091167f8be0079c531659141344cd1fd0a4f28419497f9722a3daafe3b4186f6b6457e0600080a3565b1561167957565b60405162461bcd60e51b815260206004820152602c60248201527f46756e6374696f6e206d7573742062652063616c6c6564207468726f7567682060448201526b19195b1959d85d1958d85b1b60a21b6064820152608490fd5b156116da57565b60405162461bcd60e51b815260206004820152602c60248201527f46756e6374696f6e206d7573742062652063616c6c6564207468726f7567682060448201526b6163746976652070726f787960a01b6064820152608490fd5b803b1561176957600080516020611c1283398151915280546001600160a01b0319166001600160a01b03909216919091179055565b60405162461bcd60e51b815260206004820152602d60248201527f455243313936373a206e657720696d706c656d656e746174696f6e206973206e60448201526c1bdd08184818dbdb9d1c9858dd609a1b6064820152608490fd5b9192901561182657508151156117d8575090565b3b156117e15790565b60405162461bcd60e51b815260206004820152601d60248201527f416464726573733a2063616c6c20746f206e6f6e2d636f6e74726163740000006044820152606490fd5b8251909150156118395750805190602001fd5b60405162461bcd60e51b815290819061185590600483016114e4565b0390fd5b1561186057565b60405162461bcd60e51b815260206004820152602b60248201527f496e697469616c697a61626c653a20636f6e7472616374206973206e6f74206960448201526a6e697469616c697a696e6760a81b6064820152608490fd5b80548210156118d5576000526003602060002091020190600090565b634e487b7160e01b600052603260045260246000fd5b80546801000000000000000081101561157d5761190d916001820181556118b9565b61194057600260408361193e94518455602081015160018501550151151591019060ff801983541691151516179055565b565b634e487b7160e01b600052600060045260246000fd5b9190820180921161196357565b634e487b7160e01b600052601160045260246000fd5b9160018060a01b03906000828216815260209460ca865260ff60408320541615611a515760cb865260ff60408320541615611a5157838116928315611a455786916119c391611b63565b9360c95416926024604051809581936370a0823160e01b835260048301525afa948515611a38578195611a03575b505050906119fe91611956565b111590565b909180939550813d8311611a31575b611a1c8183611593565b810103126102e7575051916119fe38806119f1565b503d611a12565b50604051903d90823e3d90fd5b50505050505050600190565b505050505050600190565b9060018060a01b038093169160009183835260209460ca865260409260ff848620541615611ac65760cb875260ff848620541615611ac65716948515611b5b5760cc815282842086855281526064838520541015611b4a5784845260cd8152828420549384611acf575b50505050505050565b7f66b41fd567f30dccd9f73792bcef7b9cdea41f514160c4d38a6a40e4621c419794611b2e611b349260cc85528681208a82528552868120611b118442611956565b91885192611b1e84611561565b88845287840152888301526118eb565b42611956565b908351928352820152a338808080808080611ac6565b8251636844e1c360e01b8152600490fd5b505050505050565b9060018060a01b038060009316835260cc60205260408320911682526020526040812081815491815b838110611b9a575050505090565b60ff6002611ba883856118b9565b500154161580611bfa575b611bdd575b6000198114611bc957600101611b8c565b634e487b7160e01b83526011600452602483fd5b93611bf490611bec86846118b9565b505490611956565b93611bb8565b506001611c0782846118b9565b5001544210611bb356fe360894a13ba1a3210667c828492db98dca3e2076cc3735a920a3ca505d382bbca2646970667358221220592e600dded9a6973d8a87b9f1ad8b576eabbda27dcfac1c8dd377f55dba7ba764736f6c63430008140033",
  "linkReferences": {},
  "deployedLinkReferences": {}
}