{
  "_format": "hh-sol-artifact-1",
  "contractName": "MaxBalanceModule",
  "sourceName": "contracts/compliance/modules/MaxBalanceModule.sol",
  "abi": [
    {
      "inputs": [],
      "name": "BalanceExceeded",
      "type": "error"
    },
    {
      "inputs": [],
      "name": "ComplianceAlreadyBound",
      "type": "error"
    },
    {
      "inputs": [],
      "name": "ComplianceNotBound",
      "type": "error"
    },
    {
      "inputs": [],
      "name": "InvalidMaxBalance",
      "type": "error"
    },
    {
      "inputs": [],
      "name": "Unauthorized",
      "type": "error"
    },
    {
      "inputs": [],
      "name": "ZeroAddress",
      "type": "error"
    },
    {
      "anonymous": false,
      "inputs": [
        {
          "indexed": true,
          "internalType": "address",
          "name": "compliance",
          "type": "address"
        },
        {
          "indexed": true,
          "internalType": "address",
          "name": "account",
          "type": "address"
        },
        {
          "indexed": false,
          "internalType": "bool",
          "name": "exempt",
          "type": "bool"
        }
      ],
      "name": "AddressExempted",
      "type": "event"
    },
    {
      "anonymous": false,
      "inputs": [
        {
          "indexed": false,
          "internalType": "address",
          "name": "previousAdmin",
          "type": "address"
        },
        {
          "indexed": false,
          "internalType": "address",
          "name": "newAdmin",
          "type": "address"
        }
      ],
      "name": "AdminChanged",
      "type": "event"
    },
    {
      "anonymous": false,
      "inputs": [
        {
          "indexed": true,
          "internalType": "address",
          "name": "beacon",
          "type": "address"
        }
      ],
      "name": "BeaconUpgraded",
      "type": "event"
    },
    {
      "anonymous": false,
      "inputs": [
        {
          "indexed": true,
          "internalType": "address",
          "name": "compliance",
          "type": "address"
        }
      ],
      "name": "ComplianceBound",
      "type": "event"
    },
    {
      "anonymous": false,
      "inputs": [
        {
          "indexed": true,
          "internalType": "address",
          "name": "compliance",
          "type": "address"
        }
      ],
      "name": "ComplianceUnbound",
      "type": "event"
    },
    {
      "anonymous": false,
      "inputs": [
        {
          "indexed": true,
          "internalType": "address",
          "name": "compliance",
          "type": "address"
        },
        {
          "indexed": true,
          "internalType": "address",
          "name": "account",
          "type": "address"
        },
        {
          "indexed": false,
          "internalType": "uint256",
          "name": "maxBalance",
          "type": "uint256"
        }
      ],
      "name": "CustomMaxBalanceSet",
      "type": "event"
    },
    {
      "anonymous": false,
      "inputs": [
        {
          "indexed": true,
          "internalType": "address",
          "name": "compliance",
          "type": "address"
        },
        {
          "indexed": false,
          "internalType": "uint256",
          "name": "maxBalance",
          "type": "uint256"
        }
      ],
      "name": "DefaultMaxBalanceSet",
      "type": "event"
    },
    {
      "anonymous": false,
      "inputs": [
        {
          "indexed": false,
          "internalType": "uint8",
          "name": "version",
          "type": "uint8"
        }
      ],
      "name": "Initialized",
      "type": "event"
    },
    {
      "anonymous": false,
      "inputs": [
        {
          "indexed": true,
          "internalType": "address",
          "name": "compliance",
          "type": "address"
        },
        {
          "indexed": false,
          "internalType": "bool",
          "name": "enabled",
          "type": "bool"
        }
      ],
      "name": "ModuleEnabled",
      "type": "event"
    },
    {
      "anonymous": false,
      "inputs": [
        {
          "indexed": true,
          "internalType": "address",
          "name": "previousOwner",
          "type": "address"
        },
        {
          "indexed": true,
          "internalType": "address",
          "name": "newOwner",
          "type": "address"
        }
      ],
      "name": "OwnershipTransferred",
      "type": "event"
    },
    {
      "anonymous": false,
      "inputs": [
        {
          "indexed": true,
          "internalType": "address",
          "name": "oldToken",
          "type": "address"
        },
        {
          "indexed": true,
          "internalType": "address",
          "name": "newToken",
          "type": "address"
        }
      ],
      "name": "SecurityTokenUpdated",
      "type": "event"
    },
    {
      "anonymous": false,
      "inputs": [
        {
          "indexed": true,
          "internalType": "address",
          "name": "implementation",
          "type": "address"
        }
      ],
      "name": "Upgraded",
      "type": "event"
    },
    {
      "inputs": [
        {
          "internalType": "address",
          "name": "_compliance",
          "type": "address"
        }
      ],
      "name": "bindCompliance",
      "outputs": [],
      "stateMutability": "nonpayable",
      "type": "function"
    },
    {
      "inputs": [
        {
          "internalType": "address",
          "name": "_compliance",
          "type": "address"
        }
      ],
      "name": "canComplianceBind",
      "outputs": [
        {
          "internalType": "bool",
          "name": "",
          "type": "bool"
        }
      ],
      "stateMutability": "pure",
      "type": "function"
    },
    {
      "inputs": [
        {
          "internalType": "address",
          "name": "_compliance",
          "type": "address"
        }
      ],
      "name": "getDefaultMaxBalance",
      "outputs": [
        {
          "internalType": "uint256",
          "name": "",
          "type": "uint256"
        }
      ],
      "stateMutability": "view",
      "type": "function"
    },
    {
      "inputs": [
        {
          "internalType": "address",
          "name": "_compliance",
          "type": "address"
        },
        {
          "internalType": "address",
          "name": "_account",
          "type": "address"
        }
      ],
      "name": "getMaxBalance",
      "outputs": [
        {
          "internalType": "uint256",
          "name": "",
          "type": "uint256"
        }
      ],
      "stateMutability": "view",
      "type": "function"
    },
    {
      "inputs": [
        {
          "internalType": "address",
          "name": "_securityToken",
          "type": "address"
        }
      ],
      "name": "initialize",
      "outputs": [],
      "stateMutability": "nonpayable",
      "type": "function"
    },
    {
      "inputs": [
        {
          "internalType": "address",
          "name": "_compliance",
          "type": "address"
        }
      ],
      "name": "isComplianceBound",
      "outputs": [
        {
          "internalType": "bool",
          "name": "",
          "type": "bool"
        }
      ],
      "stateMutability": "view",
      "type": "function"
    },
    {
      "inputs": [
        {
          "internalType": "address",
          "name": "_compliance",
          "type": "address"
        },
        {
          "internalType": "address",
          "name": "_account",
          "type": "address"
        }
      ],
      "name": "isExempt",
      "outputs": [
        {
          "internalType": "bool",
          "name": "",
          "type": "bool"
        }
      ],
      "stateMutability": "view",
      "type": "function"
    },
    {
      "inputs": [
        {
          "internalType": "address",
          "name": "_compliance",
          "type": "address"
        }
      ],
      "name": "isModuleEnabled",
      "outputs": [
        {
          "internalType": "bool",
          "name": "",
          "type": "bool"
        }
      ],
      "stateMutability": "view",
      "type": "function"
    },
    {
      "inputs": [],
      "name": "isPlugAndPlay",
      "outputs": [
        {
          "internalType": "bool",
          "name": "",
          "type": "bool"
        }
      ],
      "stateMutability": "pure",
      "type": "function"
    },
    {
      "inputs": [
        {
          "internalType": "address",
          "name": "",
          "type": "address"
        },
        {
          "internalType": "uint256",
          "name": "",
          "type": "uint256"
        },
        {
          "internalType": "address",
          "name": "",
          "type": "address"
        }
      ],
      "name": "moduleBurnAction",
      "outputs": [],
      "stateMutability": "nonpayable",
      "type": "function"
    },
    {
      "inputs": [
        {
          "internalType": "address",
          "name": "",
          "type": "address"
        },
        {
          "internalType": "address",
          "name": "_to",
          "type": "address"
        },
        {
          "internalType": "uint256",
          "name": "_value",
          "type": "uint256"
        },
        {
          "internalType": "address",
          "name": "_compliance",
          "type": "address"
        }
      ],
      "name": "moduleCheck",
      "outputs": [
        {
          "internalType": "bool",
          "name": "",
          "type": "bool"
        }
      ],
      "stateMutability": "view",
      "type": "function"
    },
    {
      "inputs": [
        {
          "internalType": "address",
          "name": "_to",
          "type": "address"
        },
        {
          "internalType": "uint256",
          "name": "_value",
          "type": "uint256"
        },
        {
          "internalType": "address",
          "name": "_compliance",
          "type": "address"
        }
      ],
      "name": "moduleMintAction",
      "outputs": [],
      "stateMutability": "view",
      "type": "function"
    },
    {
      "inputs": [
        {
          "internalType": "address",
          "name": "",
          "type": "address"
        },
        {
          "internalType": "address",
          "name": "_to",
          "type": "address"
        },
        {
          "internalType": "uint256",
          "name": "",
          "type": "uint256"
        },
        {
          "internalType": "address",
          "name": "_compliance",
          "type": "address"
        }
      ],
      "name": "moduleTransferAction",
      "outputs": [],
      "stateMutability": "view",
      "type": "function"
    },
    {
      "inputs": [],
      "name": "name",
      "outputs": [
        {
          "internalType": "string",
          "name": "",
          "type": "string"
        }
      ],
      "stateMutability": "pure",
      "type": "function"
    },
    {
      "inputs": [],
      "name": "owner",
      "outputs": [
        {
          "internalType": "address",
          "name": "",
          "type": "address"
        }
      ],
      "stateMutability": "view",
      "type": "function"
    },
    {
      "inputs": [],
      "name": "proxiableUUID",
      "outputs": [
        {
          "internalType": "bytes32",
          "name": "",
          "type": "bytes32"
        }
      ],
      "stateMutability": "view",
      "type": "function"
    },
    {
      "inputs": [],
      "name": "renounceOwnership",
      "outputs": [],
      "stateMutability": "nonpayable",
      "type": "function"
    },
    {
      "inputs": [],
      "name": "securityToken",
      "outputs": [
        {
          "internalType": "contract IRWASecurityToken",
          "name": "",
          "type": "address"
        }
      ],
      "stateMutability": "view",
      "type": "function"
    },
    {
      "inputs": [
        {
          "internalType": "address",
          "name": "_compliance",
          "type": "address"
        },
        {
          "internalType": "address",
          "name": "_account",
          "type": "address"
        },
        {
          "internalType": "bool",
          "name": "_exempt",
          "type": "bool"
        }
      ],
      "name": "setAddressExempt",
      "outputs": [],
      "stateMutability": "nonpayable",
      "type": "function"
    },
    {
      "inputs": [
        {
          "internalType": "address",
          "name": "_compliance",
          "type": "address"
        },
        {
          "internalType": "address",
          "name": "_account",
          "type": "address"
        },
        {
          "internalType": "uint256",
          "name": "_maxBalance",
          "type": "uint256"
        }
      ],
      "name": "setCustomMaxBalance",
      "outputs": [],
      "stateMutability": "nonpayable",
      "type": "function"
    },
    {
      "inputs": [
        {
          "internalType": "address",
          "name": "_compliance",
          "type": "address"
        },
        {
          "internalType": "uint256",
          "name": "_maxBalance",
          "type": "uint256"
        }
      ],
      "name": "setDefaultMaxBalance",
      "outputs": [],
      "stateMutability": "nonpayable",
      "type": "function"
    },
    {
      "inputs": [
        {
          "internalType": "address",
          "name": "_compliance",
          "type": "address"
        },
        {
          "internalType": "bool",
          "name": "_enabled",
          "type": "bool"
        }
      ],
      "name": "setModuleEnabled",
      "outputs": [],
      "stateMutability": "nonpayable",
      "type": "function"
    },
    {
      "inputs": [
        {
          "internalType": "address",
          "name": "_token",
          "type": "address"
        }
      ],
      "name": "setSecurityToken",
      "outputs": [],
      "stateMutability": "nonpayable",
      "type": "function"
    },
    {
      "inputs": [
        {
          "internalType": "address",
          "name": "newOwner",
          "type": "address"
        }
      ],
      "name": "transferOwnership",
      "outputs": [],
      "stateMutability": "nonpayable",
      "type": "function"
    },
    {
      "inputs": [
        {
          "internalType": "address",
          "name": "_compliance",
          "type": "address"
        }
      ],
      "name": "unbindCompliance",
      "outputs": [],
      "stateMutability": "nonpayable",
      "type": "function"
    },
    {
      "inputs": [
        {
          "internalType": "address",
          "name": "newImplementation",
          "type": "address"
        }
      ],
      "name": "upgradeTo",
      "outputs": [],
      "stateMutability": "nonpayable",
      "type": "function"
    },
    {
      "inputs": [
        {
          "internalType": "address",
          "name": "newImplementation",
          "type": "address"
        },
        {
          "internalType": "bytes",
          "name": "data",
          "type": "bytes"
        }
      ],
      "name": "upgradeToAndCall",
      "outputs": [],
      "stateMutability": "payable",
      "type": "function"
    }
  ],
  "bytecode": "0x60a0806040523461003157306080526119b29081610037823960805181818161083b015281816109610152610e7a0152f35b600080fdfe60406080815260048036101561001457600080fd5b600091823560e01c8063013b7ce4146111a05780630694a5fb146110f557806306fdde03146110825780632d9ad53d146110445780633659cfe614610e545780633686cc4014610e3f5780634485f48414610d865780634a93254414610c265780634cf4d29514610be85780634f1ef286146108e857806352d1902d14610826578063715018a6146107c95780638792ced71461075f5780638da5cb5b146107365780639920f9c2146106af578063b84dfbd214610686578063bcc2105314610656578063c4d66de8146104d0578063cb2f377b146104b6578063d0bac4ae14610407578063d0e49ee514610379578063d87d65671461035e578063dfc693f014610310578063e6f5e807146102f4578063ec945d83146102b8578063f2fde38b146102265763f5e756511461014957600080fd5b34610222576060366003190112610222576101626111c7565b61016a6111e2565b916044358015159283820361021e57610181611327565b6001600160a01b0390811680885260ca6020528388205490959060ff161561020e57169485156102005750916020916101f87f4b721fc141ff09950b4a258109520b65018e3c119bb1b07caff78df39d9ef2989486895260ce8552828920888a5285528289209060ff801983541691151516179055565b51908152a380f35b825163d92e233d60e01b8152fd5b83516358b71d2b60e11b81528790fd5b8680fd5b8280fd5b509034610222576020366003190112610222576102416111c7565b9161024a611327565b6001600160a01b0383161561026657836102638461137f565b80f35b906020608492519162461bcd60e51b8352820152602660248201527f4f776e61626c653a206e6577206f776e657220697320746865207a65726f206160448201526564647265737360d01b6064820152fd5b8382346102f05760203660031901126102f05760209181906001600160a01b036102e06111c7565b16815260cc845220549051908152f35b5080fd5b8382346102f057816003193601126102f0576020905160018152f35b8382346102f057806003193601126102f05760ff816020936103306111c7565b6103386111e2565b6001600160a01b03918216835260ce875283832091168252855220549151911615158152f35b83346103765761026361037036611283565b91611744565b80fd5b50346102225780600319360112610222576103926111c7565b906024359161039f611327565b6001600160a01b031680855260ca6020528185205490939060ff16156103f957507f76e0c2ebad55cacd4c58a01024f356411de45247bbc96e080ab4f5e204dac04e9160209184865260cc8352818187205551908152a280f35b90516358b71d2b60e11b8152fd5b50346102225780600319360112610222576104206111c7565b90602435801515928382036104b257610437611327565b6001600160a01b031680865260ca6020528286205490949060ff16156104a457509160209161049c7f5a16f9367e01a86c4c2edc62f5a9364d229352125194b50c35d26fba096e7a639486885260cb85528288209060ff801983541691151516179055565b51908152a280f35b82516358b71d2b60e11b8152fd5b8580fd5b8334610376576102636104c8366111f8565b92505061185e565b509034610222576020366003190112610222576104eb6111c7565b83549060ff8260081c161591828093610649575b8015610632575b156105d85760ff1981166001178655826105c7575b506001600160a01b03169182156105b9575061054660ff855460081c16610541816115af565b6115af565b61054f3361137f565b83549161056160ff8460081c166115af565b6bffffffffffffffffffffffff60a01b60c954161760c955610581578280f35b61ff001916825551600181527f7f26b83ff96e1f2b6a682f133852f6798a09c465da95921460cefb384740249890602090a138808280f35b835163d92e233d60e01b8152fd5b61ffff19166101011785553861051b565b845162461bcd60e51b8152602081860152602e60248201527f496e697469616c697a61626c653a20636f6e747261637420697320616c72656160448201526d191e481a5b9a5d1a585b1a5e995960921b6064820152608490fd5b50303b1580156105065750600160ff821614610506565b50600160ff8216106104ff565b8382346102f05760203660031901126102f0576020906001600160a01b0361067c6111c7565b1615159051908152f35b8382346102f057816003193601126102f05760c95490516001600160a01b039091168152602090f35b509034610222576020366003190112610222576106ca6111c7565b906106d3611327565b6001600160a01b0391821692831561072957505060c954826bffffffffffffffffffffffff60a01b82161760c955167f121af75e8446566fa9fc13c32bbb5f71f8e254f34d9cd5b142df1853124f83f78380a380f35b5163d92e233d60e01b8152fd5b8382346102f057816003193601126102f05760975490516001600160a01b039091168152602090f35b8382346102f057806003193601126102f0576020918161077d6111c7565b916107866111e2565b6001600160a01b0393841680835260cd87528383209190941682528552818120549283156107b957505050905b51908152f35b815260cc855220549190506107b3565b83346103765780600319360112610376576107e2611327565b609780546001600160a01b0319811690915581906001600160a01b03167f8be0079c531659141344cd1fd0a4f28419497f9722a3daafe3b4186f6b6457e08280a380f35b509134610376578060031936011261037657507f00000000000000000000000000000000000000000000000000000000000000006001600160a01b03163003610880576020825160008051602061195d8339815191528152f35b6020608492519162461bcd60e51b8352820152603860248201527f555550535570677261646561626c653a206d757374206e6f742062652063616c60448201527f6c6564207468726f7567682064656c656761746563616c6c00000000000000006064820152fd5b5080600319360112610222576108fc6111c7565b906024359067ffffffffffffffff8211610be45736602383011215610be457818401356109288161130b565b610934835191826112e9565b81815286602094858301933660248284010111610222578060248893018637830101526001600160a01b037f000000000000000000000000000000000000000000000000000000000000000081169061098f308314156113c8565b6109ac60008051602061195d833981519152928284541614611429565b6109b4611327565b7f4910fdfa16fed3260ed0e7147f7cc6da11a60208b5b9406d12a635614ffd91435460ff16156109ee57505050505050610263915061148a565b869293949596169085516352d1902d60e01b815287818a81865afa8a9181610bb1575b50610a7057865162461bcd60e51b8152808a01899052602e60248201527f45524331393637557067726164653a206e657720696d706c656d656e7461746960448201526d6f6e206973206e6f74205555505360901b6064820152608490fd5b979192939695949703610b5c5750610a878261148a565b7fbc7cd75a20ee27fd9adebab32041f755214dbc6bffa90cc0225b39da2e5c2d3b8780a285845115801590610b54575b610ac5575b50505050505080f35b80610b3e96845196610ad6886112b7565b602788527f416464726573733a206c6f772d6c6576656c2064656c65676174652063616c6c87890152660819985a5b195960ca1b868901525190845af4913d15610b4a573d610b30610b278261130b565b925192836112e9565b81528681943d92013e61151a565b50388080808085610abc565b506060925061151a565b506001610ab7565b835162461bcd60e51b8152908101859052602960248201527f45524331393637557067726164653a20756e737570706f727465642070726f786044820152681a58589b195555525160ba1b6064820152608490fd5b9091508881813d8311610bdd575b610bc981836112e9565b81010312610bd957519038610a11565b8a80fd5b503d610bbf565b8480fd5b8382346102f05760203660031901126102f05760209160ff9082906001600160a01b03610c136111c7565b16815260ca855220541690519015158152f35b503461022257602080600319360112610d82576001600160a01b039283610c4b6111c7565b16938415610d735784865260ca835260ff8487205416610d64578351630d47dbe560e31b81529083828481895afa918215610d5a578792610d22575b5080609754163314159182610d14575b505080610d0a575b610cfd575060cc9083855260ca815282852060ff199060018282541617905560cb825260018487209182541617905552600019908320557f1f7b76c58fb697eb53c6c7c1becb96911516a136e24d7ced386b2355358b75a38280a280f35b82516282b42960e81b8152fd5b5083331415610c9f565b909150163314153880610c97565b9091508381813d8311610d53575b610d3a81836112e9565b8101031261021e5751818116810361021e579038610c87565b503d610d30565b85513d89823e3d90fd5b508251637330a8cb60e11b8152fd5b50825163d92e233d60e01b8152fd5b8380fd5b503461022257606036600319011261022257610da06111c7565b610da86111e2565b9160443591610db5611327565b6001600160a01b0390811680875260ca6020528287205490949060ff1615610e2f5716938415610e2157507fd4deeed0eb344962a51fa053d394b2902e6a01a1ceba3698c4c35737f55617839160209184875260cd83528087208688528352818188205551908152a380f35b905163d92e233d60e01b8152fd5b82516358b71d2b60e11b81528690fd5b833461037657610e4e36611283565b50505080f35b503461022257602080600319360112610d8257610e6f6111c7565b916001600160a01b037f00000000000000000000000000000000000000000000000000000000000000008116610ea7308214156113c8565b610ec460008051602061195d833981519152918383541614611429565b610ecc611327565b8251908482019282841067ffffffffffffffff851117611031578385528883527f4910fdfa16fed3260ed0e7147f7cc6da11a60208b5b9406d12a635614ffd91435460ff1615610f2657505050505050610263915061148a565b869293949596169085516352d1902d60e01b815287818a81865afa8a9181611002575b50610fa857865162461bcd60e51b8152808a01899052602e60248201527f45524331393637557067726164653a206e657720696d706c656d656e7461746960448201526d6f6e206973206e6f74205555505360901b6064820152608490fd5b979192939695949703610b5c5750610fbf8261148a565b7fbc7cd75a20ee27fd9adebab32041f755214dbc6bffa90cc0225b39da2e5c2d3b8780a285845115801590610ffb57610ac55750505050505080f35b5080610ab7565b9091508881813d831161102a575b61101a81836112e9565b81010312610bd957519038610f49565b503d611010565b634e487b7160e01b895260418852602489fd5b8382346102f05760203660031901126102f05760209160ff9082906001600160a01b0361106f6111c7565b16815260cb855220541690519015158152f35b508290346102f057816003193601126102f0578051918183019083821067ffffffffffffffff8311176110e257506110de93508152601082526f4d617842616c616e63654d6f64756c6560801b6020830152519182918261123a565b0390f35b634e487b7160e01b815260418552602490fd5b5034610222576020366003190112610222576001600160a01b0391826111196111c7565b169283855260ca60205260ff838620541615611191576097541633141580611187575b61117a575081835260ca6020528220805460ff191690557f408b49d9be1c914c52a0227e18a077e5a892dddf32a26cfa94a5d9708fad77188280a280f35b90516282b42960e81b8152fd5b508233141561113c565b5090516358b71d2b60e11b8152fd5b8382346102f0576020906111be6111b6366111f8565b925090611632565b90519015158152f35b600435906001600160a01b03821682036111dd57565b600080fd5b602435906001600160a01b03821682036111dd57565b60809060031901126111dd576001600160a01b039060043582811681036111dd579160243581811681036111dd57916044359160643590811681036111dd5790565b6020808252825181830181905290939260005b82811061126f57505060409293506000838284010152601f8019910116010190565b81810186015184820160400152850161124d565b60609060031901126111dd576001600160a01b0360043581811681036111dd57916024359160443590811681036111dd5790565b6060810190811067ffffffffffffffff8211176112d357604052565b634e487b7160e01b600052604160045260246000fd5b90601f8019910116810190811067ffffffffffffffff8211176112d357604052565b67ffffffffffffffff81116112d357601f01601f191660200190565b6097546001600160a01b0316330361133b57565b606460405162461bcd60e51b815260206004820152602060248201527f4f776e61626c653a2063616c6c6572206973206e6f7420746865206f776e65726044820152fd5b609780546001600160a01b039283166001600160a01b0319821681179092559091167f8be0079c531659141344cd1fd0a4f28419497f9722a3daafe3b4186f6b6457e0600080a3565b156113cf57565b60405162461bcd60e51b815260206004820152602c60248201527f46756e6374696f6e206d7573742062652063616c6c6564207468726f7567682060448201526b19195b1959d85d1958d85b1b60a21b6064820152608490fd5b1561143057565b60405162461bcd60e51b815260206004820152602c60248201527f46756e6374696f6e206d7573742062652063616c6c6564207468726f7567682060448201526b6163746976652070726f787960a01b6064820152608490fd5b803b156114bf5760008051602061195d83398151915280546001600160a01b0319166001600160a01b03909216919091179055565b60405162461bcd60e51b815260206004820152602d60248201527f455243313936373a206e657720696d706c656d656e746174696f6e206973206e60448201526c1bdd08184818dbdb9d1c9858dd609a1b6064820152608490fd5b9192901561157c575081511561152e575090565b3b156115375790565b60405162461bcd60e51b815260206004820152601d60248201527f416464726573733a2063616c6c20746f206e6f6e2d636f6e74726163740000006044820152606490fd5b82519091501561158f5750805190602001fd5b60405162461bcd60e51b81529081906115ab906004830161123a565b0390fd5b156115b657565b60405162461bcd60e51b815260206004820152602b60248201527f496e697469616c697a61626c653a20636f6e7472616374206973206e6f74206960448201526a6e697469616c697a696e6760a81b6064820152608490fd5b9190820180921161161c57565b634e487b7160e01b600052601160045260246000fd5b919060018060a01b038092169260009284845260209360ca855260409260ff8483205416156117385760cb865260ff8483205416156117385782169182156117385760ce8652838220838352865260ff84832054166117385786825260cd8652838220838352865283822054968715611726575b50859060c954169260248551809581936370a0823160e01b835260048301525afa92831561171c575080926116e7575b50506116e2925061160f565b111590565b9150919282813d8311611715575b6116ff81836112e9565b810103126103765750906116e2915138806116d6565b503d6116f5565b51903d90823e3d90fd5b825260cc8652838220549650856116a6565b50505050505050600190565b60018060a01b0380931691600083815260209260ca845260409560ff8784205416156118555760cb855260ff8784205416156118555760ce855280878420921691828452855260ff87842054166118555785835260cd8552868320828452855286832054958615611843575b50849060c954169160248851809481936370a0823160e01b835260048301525afa918215611838578092611803575b50506117eb925061160f565b116117f35750565b51634d9d73a360e01b8152600490fd5b9150919282813d8311611831575b61181b81836112e9565b810103126103765750906117eb915138806117df565b503d611811565b8651903d90823e3d90fd5b835260cc8552868320549550846117b0565b50505050505050565b60018060a01b038092169060009082825260209160ca835260409460ff8683205416156119545760cb845260ff8683205416156119545760ce845280868320931692838352845260ff86832054166119545784825260cd8452858220838352845285822054948515611942575b50839060c954169260248751809581936370a0823160e01b835260048301525afa928315611936578193611905575b505050116117f35750565b9091809350813d831161192f575b61191d81836112e9565b810103126103765750513880806118fa565b503d611913565b508451903d90823e3d90fd5b825260cc8452858220549450836118cb565b50505050505056fe360894a13ba1a3210667c828492db98dca3e2076cc3735a920a3ca505d382bbca264697066735822122006c8eb174c2ef3dcb387ad30fef58972bd287068b3e6a427986d7c857202c8f364736f6c63430008140033",
  "linkReferences": {},
  "deployedLinkReferences": {}
}