{
  "_format": "hh-sol-artifact-1",
  "contractName": "ProjectBadgeManager",
  "sourceName": "contracts/core/ProjectBadgeManager.sol",
  "abi": [
    {
      "anonymous": false,
      "inputs": [
        {
          "indexed": false,
          "internalType": "address",
          "name": "previousAdmin",
          "type": "address"
        },
        {
          "indexed": false,
          "internalType": "address",
          "name": "newAdmin",
          "type": "address"
        }
      ],
      "name": "AdminChanged",
      "type": "event"
    },
    {
      "anonymous": false,
      "inputs": [
        {
          "indexed": true,
          "internalType": "uint256",
          "name": "projectId",
          "type": "uint256"
        },
        {
          "indexed": false,
          "internalType": "enum ProjectBadgeManager.BadgeType",
          "name": "badgeType",
          "type": "uint8"
        },
        {
          "indexed": false,
          "internalType": "enum ProjectBadgeManager.BadgeColor",
          "name": "color",
          "type": "uint8"
        }
      ],
      "name": "BadgeUpdated",
      "type": "event"
    },
    {
      "anonymous": false,
      "inputs": [
        {
          "indexed": true,
          "internalType": "address",
          "name": "beacon",
          "type": "address"
        }
      ],
      "name": "BeaconUpgraded",
      "type": "event"
    },
    {
      "anonymous": false,
      "inputs": [
        {
          "indexed": false,
          "internalType": "uint8",
          "name": "version",
          "type": "uint8"
        }
      ],
      "name": "Initialized",
      "type": "event"
    },
    {
      "anonymous": false,
      "inputs": [
        {
          "indexed": true,
          "internalType": "bytes32",
          "name": "role",
          "type": "bytes32"
        },
        {
          "indexed": true,
          "internalType": "bytes32",
          "name": "previousAdminRole",
          "type": "bytes32"
        },
        {
          "indexed": true,
          "internalType": "bytes32",
          "name": "newAdminRole",
          "type": "bytes32"
        }
      ],
      "name": "RoleAdminChanged",
      "type": "event"
    },
    {
      "anonymous": false,
      "inputs": [
        {
          "indexed": true,
          "internalType": "bytes32",
          "name": "role",
          "type": "bytes32"
        },
        {
          "indexed": true,
          "internalType": "address",
          "name": "account",
          "type": "address"
        },
        {
          "indexed": true,
          "internalType": "address",
          "name": "sender",
          "type": "address"
        }
      ],
      "name": "RoleGranted",
      "type": "event"
    },
    {
      "anonymous": false,
      "inputs": [
        {
          "indexed": true,
          "internalType": "bytes32",
          "name": "role",
          "type": "bytes32"
        },
        {
          "indexed": true,
          "internalType": "address",
          "name": "account",
          "type": "address"
        },
        {
          "indexed": true,
          "internalType": "address",
          "name": "sender",
          "type": "address"
        }
      ],
      "name": "RoleRevoked",
      "type": "event"
    },
    {
      "anonymous": false,
      "inputs": [
        {
          "indexed": true,
          "internalType": "address",
          "name": "implementation",
          "type": "address"
        }
      ],
      "name": "Upgraded",
      "type": "event"
    },
    {
      "inputs": [],
      "name": "BADGE_ADMIN_ROLE",
      "outputs": [
        {
          "internalType": "bytes32",
          "name": "",
          "type": "bytes32"
        }
      ],
      "stateMutability": "view",
      "type": "function"
    },
    {
      "inputs": [],
      "name": "DEFAULT_ADMIN_ROLE",
      "outputs": [
        {
          "internalType": "bytes32",
          "name": "",
          "type": "bytes32"
        }
      ],
      "stateMutability": "view",
      "type": "function"
    },
    {
      "inputs": [
        {
          "internalType": "uint256",
          "name": "projectId",
          "type": "uint256"
        }
      ],
      "name": "getBadge",
      "outputs": [
        {
          "components": [
            {
              "internalType": "enum ProjectBadgeManager.BadgeType",
              "name": "badgeType",
              "type": "uint8"
            },
            {
              "internalType": "enum ProjectBadgeManager.BadgeColor",
              "name": "color",
              "type": "uint8"
            },
            {
              "internalType": "uint256",
              "name": "grantedAt",
              "type": "uint256"
            }
          ],
          "internalType": "struct ProjectBadgeManager.Badge",
          "name": "",
          "type": "tuple"
        }
      ],
      "stateMutability": "view",
      "type": "function"
    },
    {
      "inputs": [
        {
          "internalType": "bytes32",
          "name": "role",
          "type": "bytes32"
        }
      ],
      "name": "getRoleAdmin",
      "outputs": [
        {
          "internalType": "bytes32",
          "name": "",
          "type": "bytes32"
        }
      ],
      "stateMutability": "view",
      "type": "function"
    },
    {
      "inputs": [
        {
          "internalType": "bytes32",
          "name": "role",
          "type": "bytes32"
        },
        {
          "internalType": "address",
          "name": "account",
          "type": "address"
        }
      ],
      "name": "grantRole",
      "outputs": [],
      "stateMutability": "nonpayable",
      "type": "function"
    },
    {
      "inputs": [
        {
          "internalType": "bytes32",
          "name": "role",
          "type": "bytes32"
        },
        {
          "internalType": "address",
          "name": "account",
          "type": "address"
        }
      ],
      "name": "hasRole",
      "outputs": [
        {
          "internalType": "bool",
          "name": "",
          "type": "bool"
        }
      ],
      "stateMutability": "view",
      "type": "function"
    },
    {
      "inputs": [
        {
          "internalType": "address",
          "name": "admin",
          "type": "address"
        }
      ],
      "name": "initialize",
      "outputs": [],
      "stateMutability": "nonpayable",
      "type": "function"
    },
    {
      "inputs": [
        {
          "internalType": "uint256",
          "name": "",
          "type": "uint256"
        }
      ],
      "name": "projectBadges",
      "outputs": [
        {
          "internalType": "enum ProjectBadgeManager.BadgeType",
          "name": "badgeType",
          "type": "uint8"
        },
        {
          "internalType": "enum ProjectBadgeManager.BadgeColor",
          "name": "color",
          "type": "uint8"
        },
        {
          "internalType": "uint256",
          "name": "grantedAt",
          "type": "uint256"
        }
      ],
      "stateMutability": "view",
      "type": "function"
    },
    {
      "inputs": [],
      "name": "proxiableUUID",
      "outputs": [
        {
          "internalType": "bytes32",
          "name": "",
          "type": "bytes32"
        }
      ],
      "stateMutability": "view",
      "type": "function"
    },
    {
      "inputs": [
        {
          "internalType": "bytes32",
          "name": "role",
          "type": "bytes32"
        },
        {
          "internalType": "address",
          "name": "account",
          "type": "address"
        }
      ],
      "name": "renounceRole",
      "outputs": [],
      "stateMutability": "nonpayable",
      "type": "function"
    },
    {
      "inputs": [
        {
          "internalType": "bytes32",
          "name": "role",
          "type": "bytes32"
        },
        {
          "internalType": "address",
          "name": "account",
          "type": "address"
        }
      ],
      "name": "revokeRole",
      "outputs": [],
      "stateMutability": "nonpayable",
      "type": "function"
    },
    {
      "inputs": [
        {
          "internalType": "uint256",
          "name": "projectId",
          "type": "uint256"
        },
        {
          "internalType": "enum ProjectBadgeManager.BadgeType",
          "name": "badgeType",
          "type": "uint8"
        },
        {
          "internalType": "enum ProjectBadgeManager.BadgeColor",
          "name": "color",
          "type": "uint8"
        }
      ],
      "name": "setBadge",
      "outputs": [],
      "stateMutability": "nonpayable",
      "type": "function"
    },
    {
      "inputs": [
        {
          "internalType": "bytes4",
          "name": "interfaceId",
          "type": "bytes4"
        }
      ],
      "name": "supportsInterface",
      "outputs": [
        {
          "internalType": "bool",
          "name": "",
          "type": "bool"
        }
      ],
      "stateMutability": "view",
      "type": "function"
    },
    {
      "inputs": [
        {
          "internalType": "address",
          "name": "newImplementation",
          "type": "address"
        }
      ],
      "name": "upgradeTo",
      "outputs": [],
      "stateMutability": "nonpayable",
      "type": "function"
    },
    {
      "inputs": [
        {
          "internalType": "address",
          "name": "newImplementation",
          "type": "address"
        },
        {
          "internalType": "bytes",
          "name": "data",
          "type": "bytes"
        }
      ],
      "name": "upgradeToAndCall",
      "outputs": [],
      "stateMutability": "payable",
      "type": "function"
    }
  ],
  "bytecode": "0x60a0806040523461003157306080526117a69081610037823960805181818161045a01528181610580015261082d0152f35b600080fdfe608060408181526004908136101561001657600080fd5b600092833560e01c90816301ffc9a714610e97575080631f801e2714610e5c578063248a9ca314610e315780632f2ff15d14610d8457806331d366d514610a8957806336568abe146109f75780633659cfe6146108075780634f1ef2861461050757806352d1902d14610445578063870f8bac146103f05780638d838622146103a057806391d1485414610359578063a217fddf1461033a578063c4d66de8146101095763d547741f146100c957600080fd5b3461010557806003193601126101055761010291356100fd60016100eb610eeb565b9383875260656020528620015461118f565b6112e8565b80f35b8280fd5b509034610105576020908160031936011261033657610126610f06565b84549060ff91828160081c16159384809561032a575b8015610314575b156102ba575060ff19818116600117885590846102a9575b5061017483885460081c1661016f81611666565b611666565b868052606585528587206001600160a01b0390921680885291855285872054831615610262575b7f4edf5afbdc763971556e31a9d4d295aa46e94ad2348abeeba4a0ffcac0b2296792838852606586528688208389528652868820541615610219575b5050506101e2578280f35b7f7f26b83ff96e1f2b6a682f133852f6798a09c465da95921460cefb38474024989161ff001984541684555160018152a138808280f35b82875260658552858720828852855260018688209182541617905533917f2f8788117e7eff1d82e926ec794901d17c78024a50270940304540a733656f0d8780a43880806101d7565b8680526065855285872082885285528587206001828254161790553382887f2f8788117e7eff1d82e926ec794901d17c78024a50270940304540a733656f0d8180a461019b565b61ffff19166101011787553861015b565b865162461bcd60e51b8152908101869052602e60248201527f496e697469616c697a61626c653a20636f6e747261637420697320616c72656160448201526d191e481a5b9a5d1a585b1a5e995960921b6064820152608490fd5b50303b1580156101435750600184831614610143565b5060018483161061013c565b8380fd5b83823461035557816003193601126103555751908152602090f35b5080fd5b5090346101055781600319360112610105578160209360ff9261037a610eeb565b90358252606586528282206001600160a01b039091168252855220549151911615158152f35b5082346103ed5760203660031901126103ed57506103c0606092356116c6565b908080519280516103d081610fa8565b845260208101516103e081610fa8565b6020850152015190820152f35b80fd5b50903461010557602036600319011261010557606092829135815260fb60205220805491600160ff8085169460081c169201549181519361043081610fa8565b845261043b81610fa8565b6020840152820152f35b5091346103ed57806003193601126103ed57507f00000000000000000000000000000000000000000000000000000000000000006001600160a01b0316300361049f57602082516000805160206117518339815191528152f35b6020608492519162461bcd60e51b8352820152603860248201527f555550535570677261646561626c653a206d757374206e6f742062652063616c60448201527f6c6564207468726f7567682064656c656761746563616c6c00000000000000006064820152fd5b50806003193601126101055761051b610f06565b906024359067ffffffffffffffff82116108035736602383011215610803578184013561054781610f8c565b61055383519182610f6a565b81815286602094858301933660248284010111610105578060248893018637830101526001600160a01b037f00000000000000000000000000000000000000000000000000000000000000008116906105ae3083141561135e565b6105cb6000805160206117518339815191529282845416146113bf565b6105d3610fc8565b7f4910fdfa16fed3260ed0e7147f7cc6da11a60208b5b9406d12a635614ffd91435460ff161561060d575050505050506101029150611420565b869293949596169085516352d1902d60e01b815287818a81865afa8a91816107d0575b5061068f57865162461bcd60e51b8152808a01899052602e60248201527f45524331393637557067726164653a206e657720696d706c656d656e7461746960448201526d6f6e206973206e6f74205555505360901b6064820152608490fd5b97919293969594970361077b57506106a682611420565b7fbc7cd75a20ee27fd9adebab32041f755214dbc6bffa90cc0225b39da2e5c2d3b8780a285845115801590610773575b6106e4575b50505050505080f35b8061075d968451966106f588610f1c565b602788527f416464726573733a206c6f772d6c6576656c2064656c65676174652063616c6c87890152660819985a5b195960ca1b868901525190845af4913d15610769573d61074f61074682610f8c565b92519283610f6a565b81528681943d92013e6114b0565b503880808080856106db565b50606092506114b0565b5060016106d6565b835162461bcd60e51b8152908101859052602960248201527f45524331393637557067726164653a20756e737570706f727465642070726f786044820152681a58589b195555525160ba1b6064820152608490fd5b9091508881813d83116107fc575b6107e88183610f6a565b810103126107f857519038610630565b8a80fd5b503d6107de565b8480fd5b50346101055760208060031936011261033657610822610f06565b916001600160a01b037f0000000000000000000000000000000000000000000000000000000000000000811661085a3082141561135e565b6108776000805160206117518339815191529183835416146113bf565b61087f610fc8565b8251908482019282841067ffffffffffffffff8511176109e4578385528883527f4910fdfa16fed3260ed0e7147f7cc6da11a60208b5b9406d12a635614ffd91435460ff16156108d9575050505050506101029150611420565b869293949596169085516352d1902d60e01b815287818a81865afa8a91816109b5575b5061095b57865162461bcd60e51b8152808a01899052602e60248201527f45524331393637557067726164653a206e657720696d706c656d656e7461746960448201526d6f6e206973206e6f74205555505360901b6064820152608490fd5b97919293969594970361077b575061097282611420565b7fbc7cd75a20ee27fd9adebab32041f755214dbc6bffa90cc0225b39da2e5c2d3b8780a2858451158015906109ae576106e45750505050505080f35b50806106d6565b9091508881813d83116109dd575b6109cd8183610f6a565b810103126107f8575190386108fc565b503d6109c3565b634e487b7160e01b895260418852602489fd5b50919034610355578260031936011261035557610a12610eeb565b90336001600160a01b03831603610a2e579061010291356112e8565b608490602085519162461bcd60e51b8352820152602f60248201527f416363657373436f6e74726f6c3a2063616e206f6e6c792072656e6f756e636560448201526e103937b632b9903337b91039b2b63360891b6064820152fd5b5082903461035557606036600319011261035557823590602493843590600382101561080357604435906003821015610d80577f4edf5afbdc763971556e31a9d4d295aa46e94ad2348abeeba4a0ffcac0b229679687875260209760658952858820338952895260ff868920541615610bbe575050507f23a62a1346a319c290bb03f3a38e02ee30a94c55a49068e090d918a203402c919394958351610b2e81610f1c565b610b3784610fa8565b8381526001828201610b4885610fa8565b84815286830190428252898b5260fb8552878b20935190610b6882610fa8565b610b7182610fa8565b60ff61ff0086549251610b8381610fa8565b610b8c81610fa8565b60081b1692169061ffff19161717835551910155835192610bac81610fa8565b8352610bb782610fa8565b820152a280f35b878693928a92610bcd33611568565b9091865192610bdb84610f4e565b60428452858401946060368737845115610d6e5760308653845190600191821015610d5c5790607860218701536041915b818311610cf357505050610cb25750610cae938693610c9a93610c8b604894610c629a519a8576020b1b1b2b9b9a1b7b73a3937b61d1030b1b1b7bab73a1604d1b8d978801528251928391603789019101611299565b8401917001034b99036b4b9b9b4b733903937b6329607d1b603784015251809386840190611299565b01036028810187520185610f6a565b5162461bcd60e51b815292839283016112bc565b0390fd5b9250505081606494519362461bcd60e51b85528401528201527f537472696e67733a20686578206c656e67746820696e73756666696369656e746044820152fd5b909192600f81166010811015610d4a576f181899199a1a9b1b9c1cb0b131b232b360811b901a610d238589611541565b53891c928015610d3857600019019190610c0c565b634e487b7160e01b825260118a528482fd5b634e487b7160e01b835260328b528583fd5b634e487b7160e01b8152603289528390fd5b634e487b7160e01b8152603288529050fd5b8580fd5b5090346101055781600319360112610105573590610da0610eeb565b908284526065602052610db86001828620015461118f565b828452606560209081528185206001600160a01b039093168086529290528084205460ff1615610de6578380f35b82845260656020528084208285526020528320600160ff1982541617905533917f2f8788117e7eff1d82e926ec794901d17c78024a50270940304540a733656f0d8480a43880808380f35b5090346101055760203660031901126101055781602093600192358152606585522001549051908152f35b838234610355578160031936011261035557602090517f4edf5afbdc763971556e31a9d4d295aa46e94ad2348abeeba4a0ffcac0b229678152f35b84908434610105576020366003190112610105573563ffffffff60e01b81168091036101055760209250637965db0b60e01b8114908115610eda575b5015158152f35b6301ffc9a760e01b14905083610ed3565b602435906001600160a01b0382168203610f0157565b600080fd5b600435906001600160a01b0382168203610f0157565b6060810190811067ffffffffffffffff821117610f3857604052565b634e487b7160e01b600052604160045260246000fd5b6080810190811067ffffffffffffffff821117610f3857604052565b90601f8019910116810190811067ffffffffffffffff821117610f3857604052565b67ffffffffffffffff8111610f3857601f01601f191660200190565b60031115610fb257565b634e487b7160e01b600052602160045260246000fd5b3360009081527fffdfc1249c027f9191656349feb0761381bb32c9f557e01f419fd08754bf5a1b602090815260408083205490929060ff161561100a57505050565b61101333611568565b8351908261102083610f4e565b6042835284830193606036863783511561117b576030855383519060019182101561117b5790607860218601536041915b81831161110d575050506110cb57610c629385936110b5936110a6604894610cae9951988576020b1b1b2b9b9a1b7b73a3937b61d1030b1b1b7bab73a1604d1b8b978801528251928391603789019101611299565b01036028810185520183610f6a565b5162461bcd60e51b8152918291600483016112bc565b60648486519062461bcd60e51b825280600483015260248201527f537472696e67733a20686578206c656e67746820696e73756666696369656e746044820152fd5b909192600f81166010811015611167576f181899199a1a9b1b9c1cb0b131b232b360811b901a61113d8588611541565b5360041c92801561115357600019019190611051565b634e487b7160e01b82526011600452602482fd5b634e487b7160e01b83526032600452602483fd5b634e487b7160e01b81526032600452602490fd5b600081815260209060658252604092838220338352835260ff8483205416156111b85750505050565b6111c133611568565b8451916111cd83610f4e565b6042835284830193606036863783511561117b576030855383519060019182101561117b5790607860218601536041915b818311611253575050506110cb57610c629385936110b5936110a6604894610cae9951988576020b1b1b2b9b9a1b7b73a3937b61d1030b1b1b7bab73a1604d1b8b978801528251928391603789019101611299565b909192600f81166010811015611167576f181899199a1a9b1b9c1cb0b131b232b360811b901a6112838588611541565b5360041c928015611153576000190191906111fe565b60005b8381106112ac5750506000910152565b818101518382015260200161129c565b604091602082526112dc8151809281602086015260208686019101611299565b601f01601f1916010190565b906000918083526065602052604083209160018060a01b03169182845260205260ff60408420541661131957505050565b8083526065602052604083208284526020526040832060ff1981541690557ff6391f5c32d9c69d2a47ea670b442974b53935d1edc7fd64eb21e047a839171b339380a4565b1561136557565b60405162461bcd60e51b815260206004820152602c60248201527f46756e6374696f6e206d7573742062652063616c6c6564207468726f7567682060448201526b19195b1959d85d1958d85b1b60a21b6064820152608490fd5b156113c657565b60405162461bcd60e51b815260206004820152602c60248201527f46756e6374696f6e206d7573742062652063616c6c6564207468726f7567682060448201526b6163746976652070726f787960a01b6064820152608490fd5b803b156114555760008051602061175183398151915280546001600160a01b0319166001600160a01b03909216919091179055565b60405162461bcd60e51b815260206004820152602d60248201527f455243313936373a206e657720696d706c656d656e746174696f6e206973206e60448201526c1bdd08184818dbdb9d1c9858dd609a1b6064820152608490fd5b9192901561151257508151156114c4575090565b3b156114cd5790565b60405162461bcd60e51b815260206004820152601d60248201527f416464726573733a2063616c6c20746f206e6f6e2d636f6e74726163740000006044820152606490fd5b8251909150156115255750805190602001fd5b60405162461bcd60e51b8152908190610cae90600483016112bc565b908151811015611552570160200190565b634e487b7160e01b600052603260045260246000fd5b6040519061157582610f1c565b602a82526020820160403682378251156115525760309053815160019081101561155257607860218401536029905b8082116115f85750506115b45790565b606460405162461bcd60e51b815260206004820152602060248201527f537472696e67733a20686578206c656e67746820696e73756666696369656e746044820152fd5b9091600f81166010811015611651576f181899199a1a9b1b9c1cb0b131b232b360811b901a6116278486611541565b5360041c91801561163c5760001901906115a4565b60246000634e487b7160e01b81526011600452fd5b60246000634e487b7160e01b81526032600452fd5b1561166d57565b60405162461bcd60e51b815260206004820152602b60248201527f496e697469616c697a61626c653a20636f6e7472616374206973206e6f74206960448201526a6e697469616c697a696e6760a81b6064820152608490fd5b6040809181516116d581610f1c565b60009381858093528260208201520152825260fb6020528082209160018251936116fe85610f1c565b60ff815481811661170e81610fa8565b875260081c1661171d81610fa8565b6020860152015480838501521561173357505090565b815192509061174183610f1c565b8183528160208401528201529056fe360894a13ba1a3210667c828492db98dca3e2076cc3735a920a3ca505d382bbca26469706673582212207ed98ea47c61bc13286cb1cf4e7288374261aff6f9e507cf6e15a16b0ace70c764736f6c63430008140033",
  "linkReferences": {},
  "deployedLinkReferences": {}
}