{
  "_format": "hh-sol-artifact-1",
  "contractName": "RWALaunchpadFactory",
  "sourceName": "contracts/core/RWALaunchpadFactory.sol",
  "abi": [
    {
      "inputs": [],
      "name": "ArrayLengthMismatch",
      "type": "error"
    },
    {
      "inputs": [
        {
          "internalType": "uint16",
          "name": "countryCode",
          "type": "uint16"
        }
      ],
      "name": "CountryRestricted",
      "type": "error"
    },
    {
      "inputs": [],
      "name": "DeployerNotApproved",
      "type": "error"
    },
    {
      "inputs": [],
      "name": "InsufficientFee",
      "type": "error"
    },
    {
      "inputs": [],
      "name": "InvalidAddress",
      "type": "error"
    },
    {
      "inputs": [],
      "name": "InvalidDeadline",
      "type": "error"
    },
    {
      "inputs": [],
      "name": "InvalidFee",
      "type": "error"
    },
    {
      "inputs": [],
      "name": "InvalidKYCLevel",
      "type": "error"
    },
    {
      "inputs": [],
      "name": "InvalidKYCProof",
      "type": "error"
    },
    {
      "inputs": [],
      "name": "KYCExpired",
      "type": "error"
    },
    {
      "inputs": [
        {
          "internalType": "uint8",
          "name": "required",
          "type": "uint8"
        },
        {
          "internalType": "uint8",
          "name": "provided",
          "type": "uint8"
        }
      ],
      "name": "KYCLevelTooLow",
      "type": "error"
    },
    {
      "inputs": [],
      "name": "ProjectNotFound",
      "type": "error"
    },
    {
      "inputs": [],
      "name": "TransferFailed",
      "type": "error"
    },
    {
      "anonymous": false,
      "inputs": [
        {
          "indexed": false,
          "internalType": "address",
          "name": "previousAdmin",
          "type": "address"
        },
        {
          "indexed": false,
          "internalType": "address",
          "name": "newAdmin",
          "type": "address"
        }
      ],
      "name": "AdminChanged",
      "type": "event"
    },
    {
      "anonymous": false,
      "inputs": [
        {
          "indexed": true,
          "internalType": "address",
          "name": "beacon",
          "type": "address"
        }
      ],
      "name": "BeaconUpgraded",
      "type": "event"
    },
    {
      "anonymous": false,
      "inputs": [
        {
          "indexed": false,
          "internalType": "uint256",
          "name": "oldFee",
          "type": "uint256"
        },
        {
          "indexed": false,
          "internalType": "uint256",
          "name": "newFee",
          "type": "uint256"
        }
      ],
      "name": "CreationFeeUpdated",
      "type": "event"
    },
    {
      "anonymous": false,
      "inputs": [
        {
          "indexed": true,
          "internalType": "address",
          "name": "oldFeed",
          "type": "address"
        },
        {
          "indexed": true,
          "internalType": "address",
          "name": "newFeed",
          "type": "address"
        }
      ],
      "name": "DefaultPriceFeedUpdated",
      "type": "event"
    },
    {
      "anonymous": false,
      "inputs": [
        {
          "indexed": false,
          "internalType": "uint16",
          "name": "countryCode",
          "type": "uint16"
        },
        {
          "indexed": false,
          "internalType": "bool",
          "name": "restricted",
          "type": "bool"
        }
      ],
      "name": "DefaultRestrictedCountryUpdated",
      "type": "event"
    },
    {
      "anonymous": false,
      "inputs": [
        {
          "indexed": true,
          "internalType": "address",
          "name": "deployer",
          "type": "address"
        },
        {
          "indexed": false,
          "internalType": "bool",
          "name": "approved",
          "type": "bool"
        }
      ],
      "name": "DeployerApprovalUpdated",
      "type": "event"
    },
    {
      "anonymous": false,
      "inputs": [
        {
          "indexed": true,
          "internalType": "address",
          "name": "oldRecipient",
          "type": "address"
        },
        {
          "indexed": true,
          "internalType": "address",
          "name": "newRecipient",
          "type": "address"
        }
      ],
      "name": "FeeRecipientUpdated",
      "type": "event"
    },
    {
      "anonymous": false,
      "inputs": [
        {
          "indexed": false,
          "internalType": "string",
          "name": "contractType",
          "type": "string"
        },
        {
          "indexed": true,
          "internalType": "address",
          "name": "oldImpl",
          "type": "address"
        },
        {
          "indexed": true,
          "internalType": "address",
          "name": "newImpl",
          "type": "address"
        }
      ],
      "name": "ImplementationUpdated",
      "type": "event"
    },
    {
      "anonymous": false,
      "inputs": [
        {
          "indexed": false,
          "internalType": "uint8",
          "name": "version",
          "type": "uint8"
        }
      ],
      "name": "Initialized",
      "type": "event"
    },
    {
      "anonymous": false,
      "inputs": [
        {
          "indexed": false,
          "internalType": "bool",
          "name": "required",
          "type": "bool"
        },
        {
          "indexed": false,
          "internalType": "uint8",
          "name": "minLevel",
          "type": "uint8"
        }
      ],
      "name": "KYCRequirementUpdated",
      "type": "event"
    },
    {
      "anonymous": false,
      "inputs": [
        {
          "indexed": true,
          "internalType": "address",
          "name": "oldVerifier",
          "type": "address"
        },
        {
          "indexed": true,
          "internalType": "address",
          "name": "newVerifier",
          "type": "address"
        }
      ],
      "name": "KYCVerifierUpdated",
      "type": "event"
    },
    {
      "anonymous": false,
      "inputs": [
        {
          "indexed": true,
          "internalType": "address",
          "name": "previousOwner",
          "type": "address"
        },
        {
          "indexed": true,
          "internalType": "address",
          "name": "newOwner",
          "type": "address"
        }
      ],
      "name": "OwnershipTransferred",
      "type": "event"
    },
    {
      "anonymous": false,
      "inputs": [
        {
          "indexed": false,
          "internalType": "address",
          "name": "account",
          "type": "address"
        }
      ],
      "name": "Paused",
      "type": "event"
    },
    {
      "anonymous": false,
      "inputs": [
        {
          "indexed": false,
          "internalType": "uint256",
          "name": "oldFee",
          "type": "uint256"
        },
        {
          "indexed": false,
          "internalType": "uint256",
          "name": "newFee",
          "type": "uint256"
        }
      ],
      "name": "PlatformFeeUpdated",
      "type": "event"
    },
    {
      "anonymous": false,
      "inputs": [
        {
          "indexed": true,
          "internalType": "uint256",
          "name": "projectId",
          "type": "uint256"
        },
        {
          "indexed": false,
          "internalType": "uint16",
          "name": "countryCode",
          "type": "uint16"
        },
        {
          "indexed": false,
          "internalType": "bool",
          "name": "restricted",
          "type": "bool"
        }
      ],
      "name": "ProjectCountryRestrictionUpdated",
      "type": "event"
    },
    {
      "anonymous": false,
      "inputs": [
        {
          "indexed": true,
          "internalType": "uint256",
          "name": "projectId",
          "type": "uint256"
        }
      ],
      "name": "ProjectDeactivated",
      "type": "event"
    },
    {
      "anonymous": false,
      "inputs": [
        {
          "indexed": true,
          "internalType": "uint256",
          "name": "projectId",
          "type": "uint256"
        },
        {
          "indexed": true,
          "internalType": "address",
          "name": "deployer",
          "type": "address"
        },
        {
          "indexed": false,
          "internalType": "address",
          "name": "securityToken",
          "type": "address"
        },
        {
          "indexed": false,
          "internalType": "address",
          "name": "escrowVault",
          "type": "address"
        },
        {
          "indexed": false,
          "internalType": "address",
          "name": "compliance",
          "type": "address"
        },
        {
          "indexed": false,
          "internalType": "uint8",
          "name": "minKYCLevel",
          "type": "uint8"
        }
      ],
      "name": "ProjectDeployed",
      "type": "event"
    },
    {
      "anonymous": false,
      "inputs": [
        {
          "indexed": true,
          "internalType": "uint256",
          "name": "projectId",
          "type": "uint256"
        },
        {
          "indexed": false,
          "internalType": "uint8",
          "name": "oldLevel",
          "type": "uint8"
        },
        {
          "indexed": false,
          "internalType": "uint8",
          "name": "newLevel",
          "type": "uint8"
        }
      ],
      "name": "ProjectKYCLevelUpdated",
      "type": "event"
    },
    {
      "anonymous": false,
      "inputs": [
        {
          "indexed": true,
          "internalType": "address",
          "name": "oldNFT",
          "type": "address"
        },
        {
          "indexed": true,
          "internalType": "address",
          "name": "newNFT",
          "type": "address"
        }
      ],
      "name": "ProjectNFTUpdated",
      "type": "event"
    },
    {
      "anonymous": false,
      "inputs": [
        {
          "indexed": false,
          "internalType": "address",
          "name": "account",
          "type": "address"
        }
      ],
      "name": "Unpaused",
      "type": "event"
    },
    {
      "anonymous": false,
      "inputs": [
        {
          "indexed": true,
          "internalType": "address",
          "name": "implementation",
          "type": "address"
        }
      ],
      "name": "Upgraded",
      "type": "event"
    },
    {
      "inputs": [
        {
          "internalType": "uint16",
          "name": "_countryCode",
          "type": "uint16"
        }
      ],
      "name": "addDefaultRestrictedCountry",
      "outputs": [],
      "stateMutability": "nonpayable",
      "type": "function"
    },
    {
      "inputs": [
        {
          "internalType": "address",
          "name": "",
          "type": "address"
        }
      ],
      "name": "approvedDeployers",
      "outputs": [
        {
          "internalType": "bool",
          "name": "",
          "type": "bool"
        }
      ],
      "stateMutability": "view",
      "type": "function"
    },
    {
      "inputs": [
        {
          "internalType": "address[]",
          "name": "_deployers",
          "type": "address[]"
        },
        {
          "internalType": "bool",
          "name": "_approved",
          "type": "bool"
        }
      ],
      "name": "batchSetDeployerApproval",
      "outputs": [],
      "stateMutability": "nonpayable",
      "type": "function"
    },
    {
      "inputs": [
        {
          "internalType": "uint256",
          "name": "_projectId",
          "type": "uint256"
        },
        {
          "internalType": "uint16[]",
          "name": "_countryCodes",
          "type": "uint16[]"
        },
        {
          "internalType": "bool",
          "name": "_restricted",
          "type": "bool"
        }
      ],
      "name": "batchSetProjectCountryRestrictions",
      "outputs": [],
      "stateMutability": "nonpayable",
      "type": "function"
    },
    {
      "inputs": [],
      "name": "creationFee",
      "outputs": [
        {
          "internalType": "uint256",
          "name": "",
          "type": "uint256"
        }
      ],
      "stateMutability": "view",
      "type": "function"
    },
    {
      "inputs": [
        {
          "internalType": "uint256",
          "name": "_projectId",
          "type": "uint256"
        }
      ],
      "name": "deactivateProject",
      "outputs": [],
      "stateMutability": "nonpayable",
      "type": "function"
    },
    {
      "inputs": [],
      "name": "defaultPriceFeed",
      "outputs": [
        {
          "internalType": "address",
          "name": "",
          "type": "address"
        }
      ],
      "stateMutability": "view",
      "type": "function"
    },
    {
      "inputs": [
        {
          "internalType": "uint256",
          "name": "",
          "type": "uint256"
        }
      ],
      "name": "defaultRestrictedCountries",
      "outputs": [
        {
          "internalType": "uint16",
          "name": "",
          "type": "uint16"
        }
      ],
      "stateMutability": "view",
      "type": "function"
    },
    {
      "inputs": [
        {
          "internalType": "string",
          "name": "_name",
          "type": "string"
        },
        {
          "internalType": "string",
          "name": "_symbol",
          "type": "string"
        },
        {
          "internalType": "address",
          "name": "",
          "type": "address"
        },
        {
          "internalType": "string",
          "name": "_category",
          "type": "string"
        },
        {
          "internalType": "uint256",
          "name": "_maxSupply",
          "type": "uint256"
        },
        {
          "internalType": "uint256",
          "name": "_fundingGoal",
          "type": "uint256"
        },
        {
          "internalType": "uint256",
          "name": "_deadlineDays",
          "type": "uint256"
        },
        {
          "internalType": "string",
          "name": "_metadataUri",
          "type": "string"
        }
      ],
      "name": "deployProject",
      "outputs": [
        {
          "internalType": "uint256",
          "name": "projectId",
          "type": "uint256"
        },
        {
          "internalType": "address",
          "name": "securityToken",
          "type": "address"
        },
        {
          "internalType": "address",
          "name": "escrowVault",
          "type": "address"
        },
        {
          "internalType": "address",
          "name": "compliance",
          "type": "address"
        }
      ],
      "stateMutability": "payable",
      "type": "function"
    },
    {
      "inputs": [
        {
          "internalType": "string",
          "name": "_name",
          "type": "string"
        },
        {
          "internalType": "string",
          "name": "_symbol",
          "type": "string"
        },
        {
          "internalType": "string",
          "name": "_category",
          "type": "string"
        },
        {
          "internalType": "uint256",
          "name": "_maxSupply",
          "type": "uint256"
        },
        {
          "internalType": "uint256",
          "name": "_fundingGoal",
          "type": "uint256"
        },
        {
          "internalType": "uint256",
          "name": "_deadlineDays",
          "type": "uint256"
        },
        {
          "internalType": "string",
          "name": "_metadataUri",
          "type": "string"
        },
        {
          "internalType": "uint8",
          "name": "_minKYCLevel",
          "type": "uint8"
        },
        {
          "components": [
            {
              "internalType": "uint8",
              "name": "level",
              "type": "uint8"
            },
            {
              "internalType": "uint16",
              "name": "countryCode",
              "type": "uint16"
            },
            {
              "internalType": "uint256",
              "name": "expiry",
              "type": "uint256"
            },
            {
              "internalType": "bytes",
              "name": "signature",
              "type": "bytes"
            }
          ],
          "internalType": "struct RWALaunchpadFactory.KYCProof",
          "name": "_kycProof",
          "type": "tuple"
        }
      ],
      "name": "deployProjectWithKYC",
      "outputs": [
        {
          "internalType": "uint256",
          "name": "projectId",
          "type": "uint256"
        },
        {
          "internalType": "address",
          "name": "securityToken",
          "type": "address"
        },
        {
          "internalType": "address",
          "name": "escrowVault",
          "type": "address"
        },
        {
          "internalType": "address",
          "name": "compliance",
          "type": "address"
        }
      ],
      "stateMutability": "payable",
      "type": "function"
    },
    {
      "inputs": [
        {
          "internalType": "address",
          "name": "",
          "type": "address"
        },
        {
          "internalType": "uint256",
          "name": "",
          "type": "uint256"
        }
      ],
      "name": "deployerProjects",
      "outputs": [
        {
          "internalType": "uint256",
          "name": "",
          "type": "uint256"
        }
      ],
      "stateMutability": "view",
      "type": "function"
    },
    {
      "inputs": [
        {
          "internalType": "uint256",
          "name": "",
          "type": "uint256"
        }
      ],
      "name": "deployments",
      "outputs": [
        {
          "internalType": "uint256",
          "name": "projectId",
          "type": "uint256"
        },
        {
          "internalType": "address",
          "name": "securityToken",
          "type": "address"
        },
        {
          "internalType": "address",
          "name": "escrowVault",
          "type": "address"
        },
        {
          "internalType": "address",
          "name": "compliance",
          "type": "address"
        },
        {
          "internalType": "address",
          "name": "dividendDistributor",
          "type": "address"
        },
        {
          "internalType": "address",
          "name": "maxBalanceModule",
          "type": "address"
        },
        {
          "internalType": "address",
          "name": "lockupModule",
          "type": "address"
        },
        {
          "internalType": "address",
          "name": "deployer",
          "type": "address"
        },
        {
          "internalType": "uint256",
          "name": "deployedAt",
          "type": "uint256"
        },
        {
          "internalType": "bool",
          "name": "active",
          "type": "bool"
        },
        {
          "internalType": "uint8",
          "name": "minKYCLevel",
          "type": "uint8"
        }
      ],
      "stateMutability": "view",
      "type": "function"
    },
    {
      "inputs": [
        {
          "internalType": "uint256",
          "name": "_offset",
          "type": "uint256"
        },
        {
          "internalType": "uint256",
          "name": "_limit",
          "type": "uint256"
        }
      ],
      "name": "getActiveProjects",
      "outputs": [
        {
          "internalType": "uint256[]",
          "name": "",
          "type": "uint256[]"
        }
      ],
      "stateMutability": "view",
      "type": "function"
    },
    {
      "inputs": [],
      "name": "getDefaultRestrictedCountries",
      "outputs": [
        {
          "internalType": "uint16[]",
          "name": "",
          "type": "uint16[]"
        }
      ],
      "stateMutability": "view",
      "type": "function"
    },
    {
      "inputs": [
        {
          "internalType": "address",
          "name": "_deployer",
          "type": "address"
        }
      ],
      "name": "getDeployerProjectCount",
      "outputs": [
        {
          "internalType": "uint256",
          "name": "",
          "type": "uint256"
        }
      ],
      "stateMutability": "view",
      "type": "function"
    },
    {
      "inputs": [
        {
          "internalType": "address",
          "name": "_deployer",
          "type": "address"
        }
      ],
      "name": "getDeployerProjects",
      "outputs": [
        {
          "internalType": "uint256[]",
          "name": "",
          "type": "uint256[]"
        }
      ],
      "stateMutability": "view",
      "type": "function"
    },
    {
      "inputs": [
        {
          "internalType": "uint256",
          "name": "_projectId",
          "type": "uint256"
        }
      ],
      "name": "getDeployment",
      "outputs": [
        {
          "components": [
            {
              "internalType": "uint256",
              "name": "projectId",
              "type": "uint256"
            },
            {
              "internalType": "address",
              "name": "securityToken",
              "type": "address"
            },
            {
              "internalType": "address",
              "name": "escrowVault",
              "type": "address"
            },
            {
              "internalType": "address",
              "name": "compliance",
              "type": "address"
            },
            {
              "internalType": "address",
              "name": "dividendDistributor",
              "type": "address"
            },
            {
              "internalType": "address",
              "name": "maxBalanceModule",
              "type": "address"
            },
            {
              "internalType": "address",
              "name": "lockupModule",
              "type": "address"
            },
            {
              "internalType": "address",
              "name": "deployer",
              "type": "address"
            },
            {
              "internalType": "uint256",
              "name": "deployedAt",
              "type": "uint256"
            },
            {
              "internalType": "bool",
              "name": "active",
              "type": "bool"
            },
            {
              "internalType": "uint8",
              "name": "minKYCLevel",
              "type": "uint8"
            }
          ],
          "internalType": "struct RWALaunchpadFactory.DeploymentRecord",
          "name": "",
          "type": "tuple"
        }
      ],
      "stateMutability": "view",
      "type": "function"
    },
    {
      "inputs": [],
      "name": "getImplementations",
      "outputs": [
        {
          "components": [
            {
              "internalType": "address",
              "name": "securityToken",
              "type": "address"
            },
            {
              "internalType": "address",
              "name": "escrowVault",
              "type": "address"
            },
            {
              "internalType": "address",
              "name": "compliance",
              "type": "address"
            },
            {
              "internalType": "address",
              "name": "kycVerifier",
              "type": "address"
            },
            {
              "internalType": "address",
              "name": "dividendDistributor",
              "type": "address"
            },
            {
              "internalType": "address",
              "name": "maxBalanceModule",
              "type": "address"
            },
            {
              "internalType": "address",
              "name": "lockupModule",
              "type": "address"
            }
          ],
          "internalType": "struct RWALaunchpadFactory.ImplementationAddresses",
          "name": "",
          "type": "tuple"
        }
      ],
      "stateMutability": "view",
      "type": "function"
    },
    {
      "inputs": [],
      "name": "getKYCVerifier",
      "outputs": [
        {
          "internalType": "address",
          "name": "",
          "type": "address"
        }
      ],
      "stateMutability": "view",
      "type": "function"
    },
    {
      "inputs": [
        {
          "internalType": "uint256",
          "name": "_projectId",
          "type": "uint256"
        }
      ],
      "name": "getProjectMinKYCLevel",
      "outputs": [
        {
          "internalType": "uint8",
          "name": "",
          "type": "uint8"
        }
      ],
      "stateMutability": "view",
      "type": "function"
    },
    {
      "inputs": [],
      "name": "implementations",
      "outputs": [
        {
          "internalType": "address",
          "name": "securityToken",
          "type": "address"
        },
        {
          "internalType": "address",
          "name": "escrowVault",
          "type": "address"
        },
        {
          "internalType": "address",
          "name": "compliance",
          "type": "address"
        },
        {
          "internalType": "address",
          "name": "kycVerifier",
          "type": "address"
        },
        {
          "internalType": "address",
          "name": "dividendDistributor",
          "type": "address"
        },
        {
          "internalType": "address",
          "name": "maxBalanceModule",
          "type": "address"
        },
        {
          "internalType": "address",
          "name": "lockupModule",
          "type": "address"
        }
      ],
      "stateMutability": "view",
      "type": "function"
    },
    {
      "inputs": [
        {
          "internalType": "address",
          "name": "_admin",
          "type": "address"
        },
        {
          "internalType": "address",
          "name": "_securityTokenImpl",
          "type": "address"
        },
        {
          "internalType": "address",
          "name": "_escrowVaultImpl",
          "type": "address"
        },
        {
          "internalType": "address",
          "name": "_complianceImpl",
          "type": "address"
        },
        {
          "internalType": "address",
          "name": "_kycVerifier",
          "type": "address"
        },
        {
          "internalType": "address",
          "name": "_projectNFT",
          "type": "address"
        },
        {
          "internalType": "address",
          "name": "_feeRecipient",
          "type": "address"
        }
      ],
      "name": "initialize",
      "outputs": [],
      "stateMutability": "nonpayable",
      "type": "function"
    },
    {
      "inputs": [
        {
          "internalType": "uint16",
          "name": "_countryCode",
          "type": "uint16"
        },
        {
          "internalType": "uint256",
          "name": "_projectId",
          "type": "uint256"
        }
      ],
      "name": "isCountryRestricted",
      "outputs": [
        {
          "internalType": "bool",
          "name": "",
          "type": "bool"
        }
      ],
      "stateMutability": "view",
      "type": "function"
    },
    {
      "inputs": [
        {
          "internalType": "address",
          "name": "_deployer",
          "type": "address"
        }
      ],
      "name": "isDeployerApproved",
      "outputs": [
        {
          "internalType": "bool",
          "name": "",
          "type": "bool"
        }
      ],
      "stateMutability": "view",
      "type": "function"
    },
    {
      "inputs": [],
      "name": "minKYCLevelForDeployment",
      "outputs": [
        {
          "internalType": "uint8",
          "name": "",
          "type": "uint8"
        }
      ],
      "stateMutability": "view",
      "type": "function"
    },
    {
      "inputs": [],
      "name": "owner",
      "outputs": [
        {
          "internalType": "address",
          "name": "",
          "type": "address"
        }
      ],
      "stateMutability": "view",
      "type": "function"
    },
    {
      "inputs": [],
      "name": "pause",
      "outputs": [],
      "stateMutability": "nonpayable",
      "type": "function"
    },
    {
      "inputs": [],
      "name": "paused",
      "outputs": [
        {
          "internalType": "bool",
          "name": "",
          "type": "bool"
        }
      ],
      "stateMutability": "view",
      "type": "function"
    },
    {
      "inputs": [],
      "name": "platformFeeBps",
      "outputs": [
        {
          "internalType": "uint256",
          "name": "",
          "type": "uint256"
        }
      ],
      "stateMutability": "view",
      "type": "function"
    },
    {
      "inputs": [],
      "name": "platformFeeRecipient",
      "outputs": [
        {
          "internalType": "address",
          "name": "",
          "type": "address"
        }
      ],
      "stateMutability": "view",
      "type": "function"
    },
    {
      "inputs": [],
      "name": "projectCounter",
      "outputs": [
        {
          "internalType": "uint256",
          "name": "",
          "type": "uint256"
        }
      ],
      "stateMutability": "view",
      "type": "function"
    },
    {
      "inputs": [],
      "name": "projectNFT",
      "outputs": [
        {
          "internalType": "contract IRWAProjectNFT",
          "name": "",
          "type": "address"
        }
      ],
      "stateMutability": "view",
      "type": "function"
    },
    {
      "inputs": [
        {
          "internalType": "uint256",
          "name": "",
          "type": "uint256"
        },
        {
          "internalType": "uint16",
          "name": "",
          "type": "uint16"
        }
      ],
      "name": "projectRestrictedCountries",
      "outputs": [
        {
          "internalType": "bool",
          "name": "",
          "type": "bool"
        }
      ],
      "stateMutability": "view",
      "type": "function"
    },
    {
      "inputs": [],
      "name": "proxiableUUID",
      "outputs": [
        {
          "internalType": "bytes32",
          "name": "",
          "type": "bytes32"
        }
      ],
      "stateMutability": "view",
      "type": "function"
    },
    {
      "inputs": [
        {
          "internalType": "uint16",
          "name": "_countryCode",
          "type": "uint16"
        }
      ],
      "name": "removeDefaultRestrictedCountry",
      "outputs": [],
      "stateMutability": "nonpayable",
      "type": "function"
    },
    {
      "inputs": [],
      "name": "renounceOwnership",
      "outputs": [],
      "stateMutability": "nonpayable",
      "type": "function"
    },
    {
      "inputs": [],
      "name": "requireApproval",
      "outputs": [
        {
          "internalType": "bool",
          "name": "",
          "type": "bool"
        }
      ],
      "stateMutability": "view",
      "type": "function"
    },
    {
      "inputs": [],
      "name": "requireKYCForDeployment",
      "outputs": [
        {
          "internalType": "bool",
          "name": "",
          "type": "bool"
        }
      ],
      "stateMutability": "view",
      "type": "function"
    },
    {
      "inputs": [
        {
          "internalType": "address",
          "name": "_impl",
          "type": "address"
        }
      ],
      "name": "setComplianceImplementation",
      "outputs": [],
      "stateMutability": "nonpayable",
      "type": "function"
    },
    {
      "inputs": [
        {
          "internalType": "uint256",
          "name": "_fee",
          "type": "uint256"
        }
      ],
      "name": "setCreationFee",
      "outputs": [],
      "stateMutability": "nonpayable",
      "type": "function"
    },
    {
      "inputs": [
        {
          "internalType": "address",
          "name": "_priceFeed",
          "type": "address"
        }
      ],
      "name": "setDefaultPriceFeed",
      "outputs": [],
      "stateMutability": "nonpayable",
      "type": "function"
    },
    {
      "inputs": [
        {
          "internalType": "address",
          "name": "_deployer",
          "type": "address"
        },
        {
          "internalType": "bool",
          "name": "_approved",
          "type": "bool"
        }
      ],
      "name": "setDeployerApproval",
      "outputs": [],
      "stateMutability": "nonpayable",
      "type": "function"
    },
    {
      "inputs": [
        {
          "internalType": "address",
          "name": "_impl",
          "type": "address"
        }
      ],
      "name": "setDividendDistributorImplementation",
      "outputs": [],
      "stateMutability": "nonpayable",
      "type": "function"
    },
    {
      "inputs": [
        {
          "internalType": "address",
          "name": "_impl",
          "type": "address"
        }
      ],
      "name": "setEscrowVaultImplementation",
      "outputs": [],
      "stateMutability": "nonpayable",
      "type": "function"
    },
    {
      "inputs": [
        {
          "internalType": "bool",
          "name": "_required",
          "type": "bool"
        },
        {
          "internalType": "uint8",
          "name": "_minLevel",
          "type": "uint8"
        }
      ],
      "name": "setKYCRequirement",
      "outputs": [],
      "stateMutability": "nonpayable",
      "type": "function"
    },
    {
      "inputs": [
        {
          "internalType": "address",
          "name": "_verifier",
          "type": "address"
        }
      ],
      "name": "setKYCVerifier",
      "outputs": [],
      "stateMutability": "nonpayable",
      "type": "function"
    },
    {
      "inputs": [
        {
          "internalType": "address",
          "name": "_impl",
          "type": "address"
        }
      ],
      "name": "setLockupModuleImplementation",
      "outputs": [],
      "stateMutability": "nonpayable",
      "type": "function"
    },
    {
      "inputs": [
        {
          "internalType": "address",
          "name": "_impl",
          "type": "address"
        }
      ],
      "name": "setMaxBalanceModuleImplementation",
      "outputs": [],
      "stateMutability": "nonpayable",
      "type": "function"
    },
    {
      "inputs": [
        {
          "internalType": "uint256",
          "name": "_feeBps",
          "type": "uint256"
        }
      ],
      "name": "setPlatformFeeBps",
      "outputs": [],
      "stateMutability": "nonpayable",
      "type": "function"
    },
    {
      "inputs": [
        {
          "internalType": "address",
          "name": "_recipient",
          "type": "address"
        }
      ],
      "name": "setPlatformFeeRecipient",
      "outputs": [],
      "stateMutability": "nonpayable",
      "type": "function"
    },
    {
      "inputs": [
        {
          "internalType": "uint256",
          "name": "_projectId",
          "type": "uint256"
        },
        {
          "internalType": "uint16",
          "name": "_countryCode",
          "type": "uint16"
        },
        {
          "internalType": "bool",
          "name": "_restricted",
          "type": "bool"
        }
      ],
      "name": "setProjectCountryRestriction",
      "outputs": [],
      "stateMutability": "nonpayable",
      "type": "function"
    },
    {
      "inputs": [
        {
          "internalType": "uint256",
          "name": "_projectId",
          "type": "uint256"
        },
        {
          "internalType": "uint8",
          "name": "_minLevel",
          "type": "uint8"
        }
      ],
      "name": "setProjectMinKYCLevel",
      "outputs": [],
      "stateMutability": "nonpayable",
      "type": "function"
    },
    {
      "inputs": [
        {
          "internalType": "address",
          "name": "_projectNFT",
          "type": "address"
        }
      ],
      "name": "setProjectNFT",
      "outputs": [],
      "stateMutability": "nonpayable",
      "type": "function"
    },
    {
      "inputs": [
        {
          "internalType": "bool",
          "name": "_require",
          "type": "bool"
        }
      ],
      "name": "setRequireApproval",
      "outputs": [],
      "stateMutability": "nonpayable",
      "type": "function"
    },
    {
      "inputs": [
        {
          "internalType": "address",
          "name": "_impl",
          "type": "address"
        }
      ],
      "name": "setSecurityTokenImplementation",
      "outputs": [],
      "stateMutability": "nonpayable",
      "type": "function"
    },
    {
      "inputs": [
        {
          "internalType": "address",
          "name": "newOwner",
          "type": "address"
        }
      ],
      "name": "transferOwnership",
      "outputs": [],
      "stateMutability": "nonpayable",
      "type": "function"
    },
    {
      "inputs": [],
      "name": "unpause",
      "outputs": [],
      "stateMutability": "nonpayable",
      "type": "function"
    },
    {
      "inputs": [
        {
          "internalType": "address",
          "name": "newImplementation",
          "type": "address"
        }
      ],
      "name": "upgradeTo",
      "outputs": [],
      "stateMutability": "nonpayable",
      "type": "function"
    },
    {
      "inputs": [
        {
          "internalType": "address",
          "name": "newImplementation",
          "type": "address"
        },
        {
          "internalType": "bytes",
          "name": "data",
          "type": "bytes"
        }
      ],
      "name": "upgradeToAndCall",
      "outputs": [],
      "stateMutability": "payable",
      "type": "function"
    },
    {
      "inputs": [
        {
          "internalType": "address",
          "name": "_investor",
          "type": "address"
        },
        {
          "internalType": "uint256",
          "name": "_projectId",
          "type": "uint256"
        },
        {
          "components": [
            {
              "internalType": "uint8",
              "name": "level",
              "type": "uint8"
            },
            {
              "internalType": "uint16",
              "name": "countryCode",
              "type": "uint16"
            },
            {
              "internalType": "uint256",
              "name": "expiry",
              "type": "uint256"
            },
            {
              "internalType": "bytes",
              "name": "signature",
              "type": "bytes"
            }
          ],
          "internalType": "struct RWALaunchpadFactory.KYCProof",
          "name": "_proof",
          "type": "tuple"
        }
      ],
      "name": "verifyInvestorKYC",
      "outputs": [
        {
          "internalType": "bool",
          "name": "valid",
          "type": "bool"
        }
      ],
      "stateMutability": "view",
      "type": "function"
    },
    {
      "stateMutability": "payable",
      "type": "receive"
    }
  ],
  "bytecode": "0x60a08060405234610031573060805261584d90816100378239608051818181612309015281816124420152612acf0152f35b600080fdfe60808060405260043610156200001f575b5036156200001d57600080fd5b005b60003560e01c90816306609bbe14620043ee57508063103b7cc714620043605780631274a90014620036265780631871e24314620035af5780631ea67d66146200358657806322dcd13e1462003565578063239c5ed8146200353e57806323e7135814620034fc57806325695cd7146200348557806325da169814620032ab57806328332423146200321757806330e9012c14620031a7578063358764761462002d3a5780633659cfe61462002aa65780633da90ea71462002a675780633dcf6b8a1462002a075780633f4ba83a146200296e578063436e695814620028eb57806345439af214620027df578063457779a214620027545780634ce5c353146200272d5780634e0e46a814620026a15780634f1ef28614620023bc57806352d1902d14620022f45780635c975abb14620022cf578063615f64fe14620021df5780636780f8e514620021b65780636afde33614620021685780636d38603a14620020f1578063715018a6146200209057806372adaab2146200204c57806375eb2bc81462001fbe57806382d5ea6c1462001f985780638456cb591462001f38578063876f6d481462001f075780638da5cb5b1462001edc578063933f52071462001df65780639b82178e1462001dc55780639d4c51aa1462001d8e578063a2fd69171462001d62578063b60da0851462001d36578063b749ff141462001bfb578063b7d862251462001b91578063ba6c4f8d146200180b578063bba45e31146200177a578063c1636bc9146200174e578063c580c94214620016ea578063d17f64171462001673578063d7e0e5411462001635578063daec9d7214620015a8578063dce0b4e41462001587578063dd6ca76214620014ef578063e724a4561462001460578063e8219b951462001375578063eb13554f1462001349578063f2fde38b14620012b3578063f8a518ed1462001292578063f8ade3f914620003e2578063fbe99ed214620003aa5763fd322a1f14620002fd573862000010565b34620003a5576040366003190112620003a5576200031a620044a4565b62000324620045e2565b906200032f6200470a565b6001600160a01b0316908115620003935760207f944b31d2fab28bfc29fbc2fb7020539e835cc45ecc5ab856fecef32647cd7bbc918360005261013c8252620003888160406000209060ff801983541691151516179055565b6040519015158152a2005b60405163e6c4247b60e01b8152600490fd5b600080fd5b34620003a5576020366003190112620003a55760043560005261013a602052602060ff60096040600020015460081c16604051908152f35b610120366003190112620003a5576004356001600160401b038111620003a55762000412903690600401620044d2565b6024356001600160401b038111620003a55762000434903690600401620044d2565b9190926044356001600160401b038111620003a55762000459903690600401620044d2565b909260c4356001600160401b038111620003a5576200047d903690600401620044d2565b9060ff60e4351660e43503620003a5576001600160401b036101043511620003a55760806101043536036003190112620003a557620004bb62004ac2565b620004c562004a7d565b61013f5460ff81168062001277575b8062001261575b6200124f5760ff8160081c166200122f575b50600460ff60e43516116200121d576000936101375434106200120c57600760a43510620011fa5769021e19e0c9bab240000060843510620011e8576101395498620005398a62004ee9565b6101395560018060a01b0361012f541660405163189acdbd60e31b6020820152306024820152602481526200056e816200465f565b60405191826104168101106001600160401b036104168501111762001115578291620005a891610416620053c28539610416840162004fec565b03906000f09889156200110957620006498862000603926200061660018060a01b0361012d54169560018060a01b036101305416926040519687956376f9f14f60e11b602088015260c060248801528d60e488019162004b38565b8581036023190160448701529162004b38565b903060648401528d60018060a01b0316608484015260a483015260643560c4830152601f19828203018252038262004697565b60405191826104168101106001600160401b0361041685011117620011155782916200068391610416620053c28539610416840162004fec565b03906000f0968715620011095761012e54610135546101365460405163c0c53b8b60e01b60208201523060248201526001600160a01b0392831660448201529082166064820152911690620006e681608481015b03601f19810183528262004697565b60405191826104168101106001600160401b0361041685011117620011155782916200072091610416620053c28539610416840162004fec565b03906000f096871562001109578660009660009560009760018060a01b036101315416806200112b575b50610132546001600160a01b03168062001020575b50610133546001600160a01b03168062000f0a575b5091620007f06020969492620007c29694620007d560018060a01b036101365416976040519b8c9a8b998a986375ad400f60e11b8a523360048b015260a060248b015260a48a019162004b38565b8781036003190160448901529162004b38565b91608435606486015260031985840301608486015262004b38565b03925af190811562000d9457859162000ed2575b50610136546001600160a01b0316803b1562000eab57604051632aec93a160e01b8152600481018390526001600160a01b03891660248201529086908290604490829084905af1801562000ec75790869162000eaf575b5050610136546001600160a01b031690813b1562000eab5760405163bdae7bdd60e01b815260048101919091526001600160a01b03871660248201529085908290604490829084905af1801562000d945790859162000e93575b50506001600160a01b0387163b1562000d9057604051631ffad50160e11b81526001600160a01b03878116600483015285908290602490829084908d165af1801562000d945790859162000e7b575b505060405163d539139360e01b81526020816004816001600160a01b038b165afa90811562000d9457859162000e43575b506001600160a01b0387163b1562000d9f57604051632f2ff15d60e01b815260048101919091526001600160a01b0386166024820152848180604481010381836001600160a01b038c165af1801562000d945790859162000e2b575b505060405163a217fddf60e01b81526020816004816001600160a01b038b165afa90811562000d9457859162000df3575b506001600160a01b0387163b1562000d9f57604051632f2ff15d60e01b815260048101919091523360248201528481604481836001600160a01b038c165af1801562000d945790859162000ddb575b505060405163a217fddf60e01b81526020816004816001600160a01b038b165afa90811562000d9457859162000da3575b506001600160a01b0387163b1562000d9f57604051631b2b455f60e11b815260048101919091523060248201528481604481836001600160a01b038c165af1801562000d945790859162000d78575b50509062000c2e92916040519262000aa98462004612565b89845260018060a01b038816602085015260018060a01b038716604085015260018060a01b038916606085015260018060a01b0316608084015260018060a01b031660a083015260018060a01b031660c08201523360e082015242610100820152600161012082015260ff60e4351661014082015286835261013a60205260ff610140600960408620845181556001810160018060a01b03602087015116906001600160601b0360a01b91828254161790556002820160018060a01b03604088015116828254161790556003820160018060a01b03606088015116828254161790556004820160018060a01b03608088015116828254161790556005820160018060a01b0360a088015116828254161790556006820160018060a01b0360c08801511682825416179055600782019060018060a01b0360e088015116908254161790556101008501516008820155019262000c176101208201511515859060ff801983541691151516179055565b0151825461ff001916911660081b61ff0016179055565b33815261013b60205260408120805490600160401b82101562000d64579062000c5d9160018201815562004596565b81549060031b9087821b91600019901b19161790556101375415158062000d5a575b62000d1e575b50604080516001600160a01b038085168252838116602083015285169181019190915260e43560ff16606082015262000d1a9290339086907fa71cbf951e8a8031d5113fba51d1c4aebc0d24e9860078371c53b1f36c497efc90608090a3600160fb55604080519586526001600160a01b03918216602087015291811691850191909152909116606083015281906080820190565b0390f35b8080803460018060a01b0361013554165af162000d3a62004902565b501562000d48578462000c85565b6040516312171d8360e31b8152600490fd5b5034151562000c7f565b634e487b7160e01b83526041600452602483fd5b62000d83906200464b565b62000d9057838962000a91565b8380fd5b6040513d87823e3d90fd5b8480fd5b90506020813d60201162000dd2575b8162000dc16020938362004697565b81010312620003a557518962000a42565b3d915062000db2565b62000de6906200464b565b62000d9057838962000a11565b90506020813d60201162000e22575b8162000e116020938362004697565b81010312620003a5575189620009c2565b3d915062000e02565b62000e36906200464b565b62000d9057838962000991565b90506020813d60201162000e72575b8162000e616020938362004697565b81010312620003a557518962000935565b3d915062000e52565b62000e86906200464b565b62000d9057838962000904565b62000e9e906200464b565b62000d90578389620008b5565b8580fd5b62000eba906200464b565b62000d9f57848a6200085b565b6040513d88823e3d90fd5b90506020813d60201162000f01575b8162000ef06020938362004697565b8101031262000d9f57518962000804565b3d915062000ee1565b91929350975060405163189acdbd60e31b602082015260018060a01b038d1660248201526024815262000f3d816200465f565b60405191826104168101106001600160401b03610416850111176200100c57829162000f7791610416620053c28539610416840162004fec565b03908af0801562001001576001600160a01b0390811697908d163b1562000ff25789808e60248b6040519485938492631ed86f1960e01b8452600484015260018060a01b03165af1801562000ff657908b9493929115620007745762000fe29094919293946200464b565b62000ff257908992918f62000774565b8980fd5b6040513d8d823e3d90fd5b6040513d8b823e3d90fd5b634e487b7160e01b8c52604160045260248cfd5b91929350965060405163189acdbd60e31b602082015260018060a01b038d1660248201526024815262001053816200465f565b60405191826104168101106001600160401b0361041685011117620011155782916200108d91610416620053c28539610416840162004fec565b03906000f0801562001109576001600160a01b0390811696908d163b15620003a5576000808e602460405180948193631ed86f1960e01b83528d600484015260018060a01b03165af180156200110957620010ee575b908a9392916200075f565b620010fd9193929a506200464b565b60009890918e620010e3565b6040513d6000823e3d90fd5b634e487b7160e01b600052604160045260246000fd5b919350985060018060a01b0361013554166200118b8d620006d760405193849263c0c53b8b60e01b6020850152339060018060a01b031660248501916040919493606084019560018060a01b039283809216865216602085015216910152565b60405191826104168101106001600160401b036104168501111762001115578291620011c591610416620053c28539610416840162004fec565b03906000f091821562001109576001600160a01b03909216978992908f6200074a565b6040516358d620b360e01b8152600490fd5b604051631da7447960e21b8152600490fd5b60405162976f7560e21b8152600490fd5b604051633d98a22f60e21b8152600490fd5b60ff620012489160101c16610104356004013362004b59565b88620004ed565b60405163a05532f560e01b8152600490fd5b506097546001600160a01b0316331415620004db565b503360005261013c60205260ff6040600020541615620004d4565b34620003a5576000366003190112620003a557602061013954604051908152f35b34620003a5576020366003190112620003a557620012d0620044a4565b620012da6200470a565b6001600160a01b03811615620012f5576200001d9062004763565b60405162461bcd60e51b815260206004820152602660248201527f4f776e61626c653a206e6577206f776e657220697320746865207a65726f206160448201526564647265737360d01b6064820152608490fd5b34620003a5576000366003190112620003a557610135546040516001600160a01b039091168152602090f35b34620003a5576040366003190112620003a55760043562001395620046f9565b8160005261013a60205260406000209060018060a01b038060078401541680156200144e5733141590816200143e575b506200124f57600460ff8216116200121d5760097f20f8614ec973832f31ecd79618f93042e80a562bcfb3899a4dc2cf63a067a3ca9201620014208260ff835460081c16929061ff0082549160081b169061ff001916179055565b6040805160ff9283168152929091166020830152819081015b0390a2005b90506097541633141584620013c5565b604051632627b46560e11b8152600490fd5b34620003a557602080600319360112620003a5576001600160a01b0362001486620044a4565b1660005261013b8152604060002090604051908181845491828152019360005281600020916000905b828210620014d75762000d1a85620014ca8189038262004697565b6040519182918262004502565b835486529485019460019384019390910190620014af565b34620003a5576040366003190112620003a5576200150c62004602565b62001516620046f9565b90620015216200470a565b60ff821691600483116200121d577fd78aa6e58e09d304582d80eb0741642b60f9291a2d180f37b605f39e681d655b9260409215159161013f9062ff000082549160101b169061ff008560081b169062ffff0019161717905582519182526020820152a1005b34620003a5576000366003190112620003a557602061013754604051908152f35b34620003a5576020366003190112620003a557620015c5620044a4565b620015cf6200470a565b6001600160a01b039081169081156200039357600080516020620057d8833981519152606061013392835493856001600160601b0360a01b86161790556040519360208552600c60208601526b4c6f636b75704d6f64756c6560a01b60408601521692a3005b34620003a5576020366003190112620003a5576200165262004602565b6200165c6200470a565b61013f9060ff801983541691151516179055600080f35b34620003a5576020366003190112620003a55762001690620044a4565b6200169a6200470a565b6001600160a01b03908116908115620003935761013080546001600160a01b031981168417909155167f4900e8de75d157a21080e6f17b8c48972095afb692f9fd506645277c99153ae3600080a3005b34620003a5576020366003190112620003a5576004356200170a6200470a565b6103e88111620011e85760407fd347e206f25a89b917fc9482f1a2d294d749baa4dc9bde7fb495ee11fe4916439161013890808254925582519182526020820152a1005b34620003a5576000366003190112620003a557610134546040516001600160a01b039091168152602090f35b34620003a5576020366003190112620003a55762001797620044a4565b620017a16200470a565b6001600160a01b039081169081156200039357600080516020620057d8833981519152606061013292835493856001600160601b0360a01b86161790556040519360208552601060208601526f4d617842616c616e63654d6f64756c6560801b60408601521692a3005b34620003a5576000366003190112620003a5576040518061013e9081548084528160208080960180956000527f3096b0ff83c28e07db9b87f650bc5521a4928b98f2734605e31b316abbb27235936000905b80600f83011062001ac6576200190d9554918482821062001ab1575b82821062001a99575b82821062001a82575b82821062001a6a575b82821062001a52575b82821062001a3a575b82821062001a22575b82821062001a0a575b828210620019f2575b828210620019da575b828210620019c2575b828210620019aa575b82821062001992575b8282106200197a575b82821062001962575b501062001953575b509050939293038362004697565b604051928392818401908285525180915260408401929160005b8281106200193757505050500390f35b835161ffff168552869550938101939281019260010162001927565b60f01c815201859087620018ff565b6001919461ffff8560e01c16815201930184620018f7565b6001919461ffff8560d01c16815201930184620018ee565b6001919461ffff8560c01c16815201930184620018e5565b6001919461ffff8560b01c16815201930184620018dc565b6001919461ffff8560a01c16815201930184620018d3565b6001919461ffff8560901c16815201930184620018ca565b6001919461ffff8560801c16815201930184620018c1565b6001919461ffff8560701c16815201930184620018b8565b6001919461ffff8560601c16815201930184620018af565b6001919461ffff8560501c16815201930184620018a6565b6001919461ffff8560401c168152019301846200189d565b6001919461ffff8560301c1681520193018462001894565b6001919461ffff85831c168152019301846200188b565b6001919461ffff8560101c1681520193018462001882565b6001919461ffff851681520193018462001879565b925092506001610200601092865461ffff80821683528082871c168c84015280828d1c16604084015280826060828260301c168187015282826080828260401c16818a0152828260a092828260501c16848d0152828260c0981c16878d0152828260701c1660e08d01521c166101008a0152828260901c166101208a01521c16610140870152828260b01c166101608701521c16610180840152808260d01c166101a08401528160e01c166101c083015260f01c6101e082015201940192019284929387926200185d565b34620003a5576020366003190112620003a55760043562001bb16200470a565b678ac7230489e800008111620011e85760407f5de302eeb1c80d4fb0c0953b692353f09ddf431411b8eb2034d5e857695619129161013790808254925582519182526020820152a1005b34620003a5576060366003190112620003a5576004356024356001600160401b038111620003a55762001c33903690600401620045af565b909162001c3f620045f2565b8160005260209061013a825260018060a01b03806007604060002001541680156200144e57331415908162001d26575b506200124f5760005b84811062001c8257005b62001d20908460005261013d8452604060002061ffff62001caf62001ca9848a8c62005013565b62004b28565b16600052845262001cd08360406000209060ff801983541691151516179055565b847f2d1c97bf1d93e12b5b8d18e29cdfd369ed8fe9363304aca2bd257833f372651f8462001d0462001ca9858b8d62005013565b6040805161ffff9290921682529115156020820152a262004ee9565b62001c78565b9050609754163314158662001c6f565b34620003a5576000366003190112620003a557610130546040516001600160a01b039091168152602090f35b34620003a5576000366003190112620003a557610136546040516001600160a01b039091168152602090f35b34620003a5576040366003190112620003a557602062001dbb62001db1620046e7565b6024359062004f60565b6040519015158152f35b34620003a5576020366003190112620003a5576200001d62001de6620046e7565b62001df06200470a565b620050e3565b34620003a5576060366003190112620003a55760043562001e16620046d5565b62001e20620045f2565b600083815261013a60205260409020600701546001600160a01b0390811680156200144e57331415908162001ecc575b506200124f577f2d1c97bf1d93e12b5b8d18e29cdfd369ed8fe9363304aca2bd257833f372651f918360005261013d602052604060002061ffff821660005260205262001ead8260406000209060ff801983541691151516179055565b6040805161ffff90921682529115156020820152908190810162001439565b9050609754163314158462001e50565b34620003a5576000366003190112620003a5576097546040516001600160a01b039091168152602090f35b34620003a5576020366003190112620003a5576200001d62001f28620046e7565b62001f326200470a565b62005024565b34620003a5576000366003190112620003a55762001f556200470a565b62001f5f62004a7d565b600160ff1960c954161760c9557f62e78cea01bee320cd4e420270b5ea74000d11b0c9f74754ebdbfc544b05a2586020604051338152a1005b34620003a5576000366003190112620003a557602060ff61013f54166040519015158152f35b34620003a557600319606036820112620003a55762001fdc620044a4565b9060243590604435906001600160401b038211620003a5576080908236030112620003a557600082815261013a6020526040902060078101549093906001600160a01b0316156200144e5760ff60096200204195015460081c16916004019062004d4f565b602060405160018152f35b34620003a5576020366003190112620003a5576001600160a01b0362002071620044a4565b1660005261013c602052602060ff604060002054166040519015158152f35b34620003a5576000366003190112620003a557620020ad6200470a565b609780546001600160a01b031981169091556000906001600160a01b03167f8be0079c531659141344cd1fd0a4f28419497f9722a3daafe3b4186f6b6457e08280a3005b34620003a5576020366003190112620003a5576200210e620044a4565b620021186200470a565b6001600160a01b03908116908115620003935761013480546001600160a01b031981168417909155167fcd91d75c4eb85a89557a80a53357f9119ec6073aa5ec9d3c656adfd9ab671790600080a3005b34620003a5576040366003190112620003a55762002185620046d5565b60043560005261013d60205261ffff60406000209116600052602052602060ff604060002054166040519015158152f35b34620003a5576020366003190112620003a557602062001dbb620021d9620044a4565b62005395565b34620003a5576000366003190112620003a557600060c060405162002204816200462f565b8281528260208201528260408201528260608201528260808201528260a0820152015260e060405162002237816200462f565b60018060a01b038061012d541691828152818061012e541660208301908152818061012f5416604085019081528180610130541660608701908152818061013154169360808901948552818061013254169760a08b0198895260c08261013354169b019a8b526040519c8d52511660208c0152511660408a01525116606088015251166080860152511660a0840152511660c0820152f35b34620003a5576000366003190112620003a557602060ff60c954166040519015158152f35b34620003a5576000366003190112620003a5577f00000000000000000000000000000000000000000000000000000000000000006001600160a01b0316300362002351576020604051600080516020620057f88339815191528152f35b60405162461bcd60e51b815260206004820152603860248201527f555550535570677261646561626c653a206d757374206e6f742062652063616c60448201527f6c6564207468726f7567682064656c656761746563616c6c00000000000000006064820152608490fd5b6040366003190112620003a557620023d3620044a4565b602435906001600160401b038211620003a55736602383011215620003a55781600401356200240281620046b9565b9262002412604051948562004697565b818452602091828501913660248383010111620003a5578160009260248693018537860101526001600160a01b037f00000000000000000000000000000000000000000000000000000000000000008116906200247230831415620047ac565b62002492600080516020620057f88339815191529282845416146200480e565b6200249c6200470a565b7f4910fdfa16fed3260ed0e7147f7cc6da11a60208b5b9406d12a635614ffd91435460ff1615620024d757505050506200001d915062004870565b84939416906040516352d1902d60e01b81528581600481865afa600091816200266c575b506200255d5760405162461bcd60e51b815260048101879052602e60248201527f45524331393637557067726164653a206e657720696d706c656d656e7461746960448201526d6f6e206973206e6f74205555505360901b6064820152608490fd5b0362002615576200256e8362004870565b7fbc7cd75a20ee27fd9adebab32041f755214dbc6bffa90cc0225b39da2e5c2d3b600080a28351158015906200260c575b620025a657005b600080916200001d957f416464726573733a206c6f772d6c6576656c2064656c65676174652063616c6c60405196620025df886200465f565b60278852870152660819985a5b195960ca1b60408701525190845af46200260562004902565b9162004937565b5060016200259f565b60405162461bcd60e51b815260048101859052602960248201527f45524331393637557067726164653a20756e737570706f727465642070726f786044820152681a58589b195555525160ba1b6064820152608490fd5b9091508681813d831162002699575b62002687818362004697565b81010312620003a557519088620024fb565b503d6200267b565b34620003a5576020366003190112620003a557620026be620044a4565b620026c86200470a565b6001600160a01b039081169081156200039357600080516020620057d8833981519152606061012e92835493856001600160601b0360a01b86161790556040519360208552600b60208601526a115cd8dc9bddd5985d5b1d60aa1b60408601521692a3005b34620003a5576000366003190112620003a557602060ff61013f5460101c16604051908152f35b34620003a5576020366003190112620003a55762002771620044a4565b6200277b6200470a565b6001600160a01b039081169081156200039357600080516020620057d8833981519152606061012f92835493856001600160601b0360a01b86161790556040519360208552600a602086015269436f6d706c69616e636560b01b60408601521692a3005b34620003a5576040366003190112620003a5576004356001600160401b038111620003a55762002814903690600401620045af565b6200281e620045e2565b620028286200470a565b60005b8281106200283557005b62002868906001600160a01b03806200285a6200285484888a62005013565b620051d8565b166200286e575b5062004ee9565b6200282b565b80620028806200285484888a62005013565b166000527f944b31d2fab28bfc29fbc2fb7020539e835cc45ecc5ab856fecef32647cd7bbc60209161013c8352620028c88660406000209060ff801983541691151516179055565b620028d96200285485898b62005013565b16916040518615158152a28562002861565b34620003a5576020366003190112620003a5576004356200290b6200470a565b600081815261013a60208190526040909120600701546001600160a01b0316156200144e5781600052602052600960406000200160ff1981541690557f32619b1c1bac9b073234f8ace80ba5659d4a461276966921ca62cc24a32c7ff3600080a2005b34620003a5576000366003190112620003a5576200298b6200470a565b60c95460ff811615620029cb5760ff191660c9557f5db9ee0a495bf2e6ff9c91a7834c1ba4fdd244a5e8aa4e537bd38aeae4b073aa6020604051338152a1005b60405162461bcd60e51b815260206004820152601460248201527314185d5cd8589b194e881b9bdd081c185d5cd95960621b6044820152606490fd5b34620003a5576040366003190112620003a55762002a24620044a4565b6001600160a01b0316600090815261013b6020526040902080546024359190821015620003a55760209162002a599162004596565b90546040519160031b1c8152f35b34620003a5576020366003190112620003a5576001600160a01b0362002a8c620044a4565b1660005261013b6020526020604060002054604051908152f35b34620003a557602080600319360112620003a55762002ac4620044a4565b6001600160a01b03917f0000000000000000000000000000000000000000000000000000000000000000831662002afe30821415620047ac565b62002b1e600080516020620057f88339815191529185835416146200480e565b62002b286200470a565b6040519362002b37856200467b565b600085527f4910fdfa16fed3260ed0e7147f7cc6da11a60208b5b9406d12a635614ffd91435460ff161562002b75575050506200001d915062004870565b83929316906040516352d1902d60e01b81528481600481865afa6000918162002d05575b5062002bfb5760405162461bcd60e51b815260048101869052602e60248201527f45524331393637557067726164653a206e657720696d706c656d656e7461746960448201526d6f6e206973206e6f74205555505360901b6064820152608490fd5b0362002cae5762002c0c8262004870565b7fbc7cd75a20ee27fd9adebab32041f755214dbc6bffa90cc0225b39da2e5c2d3b600080a282511580159062002ca5575b62002c4457005b6000806200001d946040519462002c5b866200465f565b602786527f416464726573733a206c6f772d6c6576656c2064656c65676174652063616c6c81870152660819985a5b195960ca1b604087015281519101845af46200260562004902565b50600062002c3d565b60405162461bcd60e51b815260048101849052602960248201527f45524331393637557067726164653a20756e737570706f727465642070726f786044820152681a58589b195555525160ba1b6064820152608490fd5b9091508581813d831162002d32575b62002d20818362004697565b81010312620003a55751908762002b99565b503d62002d14565b34620003a55760e0366003190112620003a55762002d57620044a4565b6024356001600160a01b0381168103620003a55762002d75620044bb565b906064356001600160a01b0381168103620003a5576084356001600160a01b0381168103620003a55760a435916001600160a01b0383168303620003a55760c435946001600160a01b0386168603620003a55760005460ff8160081c16159788809962003199575b801562003180575b15620031245760ff19828116600117600055918962003111575b506001600160a01b0316158015620030ff575b8015620030ed575b8015620030db575b8015620030c9575b8015620030b7575b8015620030a5575b620003935762002eaa9062002e6260ff60005460081c1662002e5c8162004a1c565b62004a1c565b62002e6d3362004763565b60ff60005460081c169062002e828262004a1c565b62002e8d8262004a1c565b62002e988262004a1c565b60c9541660c95562002e5c8162004a1c565b600160fb55600060c06040519262002ec2846200462f565b6001600160a01b039788168085529088166020850181905294881660408501819052958816606085018190526080850184905260a08501849052919093019190915261012d80546001600160a01b0319908116909317905561012e8054831690931790925561012f80548216909317909255610130805483169091179055610131805482169055610132805482169055610133805482169055610136805482169284169290921790915561013580549091169290911691909117905560006101375560fa6101385561013f805462ffffff1916905561013e8054600160401b919082811015620011155780600162002fbd920183556200453f565b929080549360031b61ffff9485610198831b921b1916179055815481811015620011155780600162002ff2920184556200453f565b81549060031b908561016c831b921b1916179055815481811015620011155780600162003022920184556200453f565b81549060031b90856102f8831b921b1916179055815490811015620011155762003052916001820190556200453f565b819291549060031b9160c0831b921b19161790556200306d57005b61ff0019600054166000557f7f26b83ff96e1f2b6a682f133852f6798a09c465da95921460cefb3847402498602060405160018152a1005b506001600160a01b0387161562002e3a565b506001600160a01b0385161562002e32565b506001600160a01b0384161562002e2a565b506001600160a01b0383161562002e22565b506001600160a01b0382161562002e1a565b506001600160a01b0386161562002e12565b61ffff1916610101176000558962002dff565b60405162461bcd60e51b815260206004820152602e60248201527f496e697469616c697a61626c653a20636f6e747261637420697320616c72656160448201526d191e481a5b9a5d1a585b1a5e995960921b6064820152608490fd5b50303b15801562002de55750600160ff83161462002de5565b50600160ff83161062002ddd565b34620003a5576000366003190112620003a55760e060018060a01b038061012d5416908061012e5416908061012f54168161013054168261013154169183610132541693610133541694604051968752602087015260408601526060850152608084015260a083015260c0820152f35b34620003a5576020366003190112620003a55762003234620044a4565b6200323e6200470a565b6001600160a01b039081169081156200039357600080516020620057d8833981519152606061013192835493856001600160601b0360a01b8616179055604051936020855260136020860152722234bb34b232b7322234b9ba3934b13aba37b960691b60408601521692a3005b34620003a5576020366003190112620003a5576000610140604051620032d18162004612565b8281528260208201528260408201528260608201528260808201528260a08201528260c08201528260e08201528261010082015282610120820152015260043560005261013a602052610160604060002060ff610140604051620033358162004612565b82600985549586845260018060a01b03600182015416602085015260018060a01b03600282015416604085015260018060a01b03600382015416606085015260018060a01b03600482015416608085015260018060a01b0360058201541660a085015260018060a01b0360068201541660c085015260018060a01b0360078201541660e085015260088101546101008501520154818116151561012084015260081c168282015260405193845260018060a01b03602082015116602085015260018060a01b03604082015116604085015260018060a01b03606082015116606085015260018060a01b03608082015116608085015260018060a01b0360a08201511660a085015260018060a01b0360c08201511660c085015260018060a01b0360e08201511660e08501526101008101516101008501526101208101511515610120850152015116610140820152f35b34620003a5576020366003190112620003a557620034a2620044a4565b620034ac6200470a565b6001600160a01b03908116908115620003935761013680546001600160a01b031981168417909155167f6c911092103e7620533bec87a4f592a66e2011a557702df220484f4b211de58d600080a3005b34620003a5576020366003190112620003a55760043561013e54811015620003a55761ffff6200352e6020926200453f565b9190546040519260031b1c168152f35b34620003a5576040366003190112620003a55762000d1a620014ca60243560043562005205565b34620003a5576000366003190112620003a557602061013854604051908152f35b34620003a5576000366003190112620003a557602060ff61013f5460081c166040519015158152f35b34620003a5576020366003190112620003a557620035cc620044a4565b620035d66200470a565b6001600160a01b03908116908115620003935761013580546001600160a01b031981168417909155167faaebcf1bfa00580e41d966056b48521fa9f202645c86d4ddf28113e617c1b1d3600080a3005b610100366003190112620003a5576004356001600160401b038111620003a55762003656903690600401620044d2565b6024356001600160401b038111620003a55762003678903690600401620044d2565b91909262003685620044bb565b506064356001600160401b038111620003a557620036a8903690600401620044d2565b909260e4356001600160401b038111620003a557620036cc903690600401620044d2565b90620036d762004ac2565b620036e162004a7d565b61013f5460ff81168062004345575b806200432f575b6200124f5760ff8160081c166200430a57506000936101375434106200120c57600760c43510620011fa5769021e19e0c9bab240000060a43510620011e8576101395498620037468a62004ee9565b6101395560018060a01b0361012f541660405163189acdbd60e31b6020820152306024820152602481526200377b816200465f565b60405191826104168101106001600160401b036104168501111762001115578291620037b591610416620053c28539610416840162004fec565b03906000f09889156200110957620038438862000603926200381060018060a01b0361012d54169560018060a01b036101305416926040519687956376f9f14f60e11b602088015260c060248801528d60e488019162004b38565b903060648401528d60018060a01b0316608484015260a483015260843560c4830152601f19828203018252038262004697565b60405191826104168101106001600160401b0361041685011117620011155782916200387d91610416620053c28539610416840162004fec565b03906000f0968715620011095761012e54610135546101365460405163c0c53b8b60e01b60208201523060248201526001600160a01b0392831660448201529082166064820152911690620038d68160848101620006d7565b60405191826104168101106001600160401b0361041685011117620011155782916200391091610416620053c28539610416840162004fec565b03906000f096871562001109578660009660009560009760018060a01b036101315416806200424d575b50610132546001600160a01b03168062004164575b50610133546001600160a01b0316806200407c575b5091620039cd6020969492620007c29694620039b260018060a01b036101365416976040519b8c9a8b998a986375ad400f60e11b8a523360048b015260a060248b015260a48a019162004b38565b60a43560648601528481036003190160848601529162004b38565b03925af190811562000d9457859162004044575b50610136546001600160a01b0316803b1562000eab57604051632aec93a160e01b8152600481018390526001600160a01b03891660248201529086908290604490829084905af1801562000ec7579086916200402c575b5050610136546001600160a01b031690813b1562000eab5760405163bdae7bdd60e01b815260048101919091526001600160a01b03871660248201529085908290604490829084905af1801562000d945790859162004014575b50506001600160a01b0387163b1562000d9057604051631ffad50160e11b81526001600160a01b03878116600483015285908290602490829084908d165af1801562000d945790859162003ffc575b505060405163d539139360e01b81526020816004816001600160a01b038b165afa90811562000d9457859162003fc4575b506001600160a01b0387163b1562000d9f57604051632f2ff15d60e01b815260048101919091526001600160a01b0386166024820152848180604481010381836001600160a01b038c165af1801562000d945790859162003fac575b505060405163a217fddf60e01b81526020816004816001600160a01b038b165afa90811562000d9457859162003f74575b506001600160a01b0387163b1562000d9f57604051632f2ff15d60e01b815260048101919091523360248201528481604481836001600160a01b038c165af1801562000d945790859162003f5c575b505060405163a217fddf60e01b81526020816004816001600160a01b038b165afa90811562000d9457859162003f24575b506001600160a01b0387163b1562000d9f57604051631b2b455f60e11b815260048101919091523060248201528481604481836001600160a01b038c165af1801562000d945790859162003f0c575b50509062003df092916040519262003c868462004612565b89845260018060a01b038816602085015260018060a01b038716604085015260018060a01b038916606085015260018060a01b0316608084015260018060a01b031660a083015260018060a01b031660c08201523360e0820152426101008201526001610120820152600161014082015286835261013a60205260ff610140600960408620845181556001810160018060a01b03602087015116906001600160601b0360a01b91828254161790556002820160018060a01b03604088015116828254161790556003820160018060a01b03606088015116828254161790556004820160018060a01b03608088015116828254161790556005820160018060a01b0360a088015116828254161790556006820160018060a01b0360c08801511682825416179055600782019060018060a01b0360e088015116908254161790556101008501516008820155019262000c176101208201511515859060ff801983541691151516179055565b33815261013b60205260408120805490600160401b82101562000d64579062003e1f9160018201815562004596565b81549060031b9087821b91600019901b19161790556101375415158062003f02575b62003ed8575b50604080516001600160a01b03808516825283811660208301528516918101919091526001606082015262000d1a9290339086907fa71cbf951e8a8031d5113fba51d1c4aebc0d24e9860078371c53b1f36c497efc90608090a3600160fb55604080519586526001600160a01b03918216602087015291811691850191909152909116606083015281906080820190565b8080803460018060a01b0361013554165af162003ef462004902565b501562000d48578462003e47565b5034151562003e41565b62003f17906200464b565b62000d9057838962003c6e565b90506020813d60201162003f53575b8162003f426020938362004697565b81010312620003a557518962003c1f565b3d915062003f33565b62003f67906200464b565b62000d9057838962003bee565b90506020813d60201162003fa3575b8162003f926020938362004697565b81010312620003a557518962003b9f565b3d915062003f83565b62003fb7906200464b565b62000d9057838962003b6e565b90506020813d60201162003ff3575b8162003fe26020938362004697565b81010312620003a557518962003b12565b3d915062003fd3565b62004007906200464b565b62000d9057838962003ae1565b6200401f906200464b565b62000d9057838962003a92565b62004037906200464b565b62000d9f57848a62003a38565b90506020813d60201162004073575b81620040626020938362004697565b8101031262000d9f575189620039e1565b3d915062004053565b91929350975060405163189acdbd60e31b602082015260018060a01b038d16602482015260248152620040af816200465f565b60405191826104168101106001600160401b03610416850111176200100c578291620040e991610416620053c28539610416840162004fec565b03908af0801562001001576001600160a01b0390811697908d163b1562000ff25789808e60248b6040519485938492631ed86f1960e01b8452600484015260018060a01b03165af1801562000ff657908b94939291156200396457620041549094919293946200464b565b62000ff257908992918f62003964565b91929350965060405163189acdbd60e31b602082015260018060a01b038d1660248201526024815262004197816200465f565b60405191826104168101106001600160401b036104168501111762001115578291620041d191610416620053c28539610416840162004fec565b03906000f0801562001109576001600160a01b0390811696908d163b15620003a5576000808e602460405180948193631ed86f1960e01b83528d600484015260018060a01b03165af18015620011095762004232575b908a9392916200394f565b620042419193929a506200464b565b60009890918e62004227565b919350985060018060a01b036101355416620042ad8d620006d760405193849263c0c53b8b60e01b6020850152339060018060a01b031660248501916040919493606084019560018060a01b039283809216865216602085015216910152565b60405191826104168101106001600160401b036104168501111762001115578291620042e791610416620053c28539610416840162004fec565b03906000f091821562001109576001600160a01b03909216978992908f6200393a565b60449060ff604051916301b1064f60e11b835260101c16600482015260006024820152fd5b506097546001600160a01b0316331415620036f7565b503360005261013c60205260ff6040600020541615620036f0565b34620003a5576020366003190112620003a5576200437d620044a4565b620043876200470a565b6001600160a01b039081169081156200039357600080516020620057d8833981519152606061012d92835493856001600160601b0360a01b86161790556040519360208552600d60208601526c29b2b1bab934ba3caa37b5b2b760991b60408601521692a3005b34620003a5576020366003190112620003a5576101609060043560005261013a60205260ff604060002080549060018060a01b03806001830154169080600284015416816003850154168260048601541690836005870154169284600688015416946007880154169560096008890154980154988b5260208b015260408a01526060890152608088015260a087015260c086015260e0850152610100840152818116151561012084015260081c16610140820152f35b600435906001600160a01b0382168203620003a557565b604435906001600160a01b0382168203620003a557565b9181601f84011215620003a5578235916001600160401b038311620003a55760208381860195010111620003a557565b6020908160408183019282815285518094520193019160005b8281106200452a575050505090565b8351855293810193928101926001016200451b565b9061013e80548310156200458057600052601e8260041c7f3096b0ff83c28e07db9b87f650bc5521a4928b98f2734605e31b316abbb27235019260011b1690565b634e487b7160e01b600052603260045260246000fd5b8054821015620045805760005260206000200190600090565b9181601f84011215620003a5578235916001600160401b038311620003a5576020808501948460051b010111620003a557565b602435908115158203620003a557565b604435908115158203620003a557565b600435908115158203620003a557565b61016081019081106001600160401b038211176200111557604052565b60e081019081106001600160401b038211176200111557604052565b6001600160401b0381116200111557604052565b606081019081106001600160401b038211176200111557604052565b602081019081106001600160401b038211176200111557604052565b90601f801991011681019081106001600160401b038211176200111557604052565b6001600160401b0381116200111557601f01601f191660200190565b6024359061ffff82168203620003a557565b6004359061ffff82168203620003a557565b6024359060ff82168203620003a557565b6097546001600160a01b031633036200471f57565b606460405162461bcd60e51b815260206004820152602060248201527f4f776e61626c653a2063616c6c6572206973206e6f7420746865206f776e65726044820152fd5b609780546001600160a01b039283166001600160a01b0319821681179092559091167f8be0079c531659141344cd1fd0a4f28419497f9722a3daafe3b4186f6b6457e0600080a3565b15620047b457565b60405162461bcd60e51b815260206004820152602c60248201527f46756e6374696f6e206d7573742062652063616c6c6564207468726f7567682060448201526b19195b1959d85d1958d85b1b60a21b6064820152608490fd5b156200481657565b60405162461bcd60e51b815260206004820152602c60248201527f46756e6374696f6e206d7573742062652063616c6c6564207468726f7567682060448201526b6163746976652070726f787960a01b6064820152608490fd5b803b15620048a757600080516020620057f883398151915280546001600160a01b0319166001600160a01b03909216919091179055565b60405162461bcd60e51b815260206004820152602d60248201527f455243313936373a206e657720696d706c656d656e746174696f6e206973206e60448201526c1bdd08184818dbdb9d1c9858dd609a1b6064820152608490fd5b3d1562004932573d906200491682620046b9565b9162004926604051938462004697565b82523d6000602084013e565b606090565b919290156200499c57508151156200494d575090565b3b15620049575790565b60405162461bcd60e51b815260206004820152601d60248201527f416464726573733a2063616c6c20746f206e6f6e2d636f6e74726163740000006044820152606490fd5b825190915015620049b05750805190602001fd5b60405162461bcd60e51b815260206004820152908190620049d6906024830190620049da565b0390fd5b919082519283825260005b84811062004a07575050826000602080949584010152601f8019910116010190565b602081830181015184830182015201620049e5565b1562004a2457565b60405162461bcd60e51b815260206004820152602b60248201527f496e697469616c697a61626c653a20636f6e7472616374206973206e6f74206960448201526a6e697469616c697a696e6760a81b6064820152608490fd5b60ff60c9541662004a8a57565b60405162461bcd60e51b815260206004820152601060248201526f14185d5cd8589b194e881c185d5cd95960821b6044820152606490fd5b600260fb541462004ad457600260fb55565b60405162461bcd60e51b815260206004820152601f60248201527f5265656e7472616e637947756172643a207265656e7472616e742063616c6c006044820152606490fd5b3560ff81168103620003a55790565b3561ffff81168103620003a55790565b908060209392818452848401376000828201840152601f01601f1916010190565b61013054919290916001600160a01b039190821690811562004d485762004b808562004b19565b9460208082019462004b928662004b28565b9660409889850135966060860135601e1987360301811215620003a5578601938435946001600160401b038611620003a5578601938536038513620003a55762004c1c879560ff978f5198899788968796631da9612560e11b885216600487015216602485015261ffff9e8f1660448501528c606485015260a0608485015260a484019162004b38565b03915afa91821562004d3d5760009262004cf9575b50501562004ce85762004c448162004b19565b60ff80841691161062004cae575050421162004c9d5762004c6f62004c698262004b28565b62004f0f565b62004c7957505050565b6024935062004c889062004b28565b9151638167b56960e01b815291166004820152fd5b8251634973d8d560e11b8152600490fd5b90620049d662004cbf879362004b19565b92516301b1064f60e11b815260ff92831660048201529190921660248201529081906044820190565b855163249d777160e21b8152600490fd5b81813d831162004d35575b62004d10818362004697565b8101031262004d31575190811515820362004d2e5750388062004c31565b80fd5b5080fd5b503d62004d04565b88513d6000823e3d90fd5b5050505050565b61013054919390926001600160a01b0392831690811562004ee15762004d758662004b19565b9560208082019562004d878762004b28565b976040998a850135966060860135601e1987360301811215620003a5578601938435946001600160401b038611620003a5578601938536038513620003a55786948e5196879586948594631da9612560e11b865216600485015260ff16602484015261ffff9e8f1660448401528b60648401526084830160a0905260a483019062004e129262004b38565b03915afa91821562004ed65760009262004e99575b50501562004e885762004e3a8162004b19565b60ff80841691161062004e77575050421162004e665762004c6f9062004e608362004b28565b62004f60565b8351634973d8d560e11b8152600490fd5b90620049d662004cbf889362004b19565b865163249d777160e21b8152600490fd5b81813d831162004ece575b62004eb0818362004697565b8101031262004d31575190811515820362004d2e5750388062004e27565b503d62004ea4565b89513d6000823e3d90fd5b505050505050565b600019811462004ef95760010190565b634e487b7160e01b600052601160045260246000fd5b61013e549060005b82811062004f2757505050600090565b62004f32816200453f565b905461ffff908185169260031b1c161462004f585762004f529062004ee9565b62004f17565b505050600190565b90801515908162004fc1575b5062004fbb5761013e549060005b82811062004f8a57505050600090565b62004f95816200453f565b905461ffff908185169260031b1c161462004f585762004fb59062004ee9565b62004f7a565b50600190565b905060005261013d602052604060002061ffff821660005260205260ff604060002054163862004f6c565b6001600160a01b0390911681526040602082018190526200501092910190620049da565b90565b9190811015620045805760051b0190565b61013e9081549060005b828110620050ac5750600160401b821015620011155762005099816200507e847f52447c0c1f6e76aceccd86733d7b9b1efa3fccde0f25070f3ca6193d0e3ba09c9660016040970190556200453f565b90919082549060031b9161ffff809116831b921b1916179055565b61ffff82519116815260016020820152a1565b620050b7816200453f565b905461ffff908185169260031b1c1614620050dd57620050d79062004ee9565b6200502e565b50505050565b61013e9081549060005b828110620050fb5750505050565b62005106816200453f565b905461ffff8481169260039290831b1c8116831462005133575050506200512d9062004ee9565b620050ed565b600019969295919450919286820191821162004ef9576200507e836200515d6200516b946200453f565b905490881b1c16916200453f565b8154948515620051c2577f52447c0c1f6e76aceccd86733d7b9b1efa3fccde0f25070f3ca6193d0e3ba09c950192620051a4846200453f565b81939154921b1b1916905555604090815190815260006020820152a1565b634e487b7160e01b600052603160045260246000fd5b356001600160a01b0381168103620003a55790565b6001600160401b038111620011155760051b60200190565b6101395491906000805b8481106200534f575080821015620053315782820180831162004ef95781106200531b575b506200524082620051ed565b90604090620052528251938462004697565b838352601f196200526385620051ed565b019160209236848601376000968795885b8881108062005311575b1562005304578060005261013a865260ff600985600020015416620052af575b620052a99062004ee9565b62005274565b9884811015620052d2575b620052c9620052a99162004ee9565b9990506200529e565b9686518110156200458057620052c9620052fa828c89620052a99560051b8c01015262004ee9565b98915050620052ba565b5050965050505091505090565b508188106200527e565b90809250810390811162004ef957903862005234565b5050505060405162005343816200467b565b60008152600036813790565b8060005261013a60205260ff600960406000200154166200537c575b620053769062004ee9565b6200520f565b906200538c620053769162004ee9565b9190506200536b565b60ff61013f54161562004fbb576001600160a01b0316600090815261013c602052604090205460ff169056fe604060808152610416908138038061001681610218565b93843982019181818403126102135780516001600160a01b038116808203610213576020838101516001600160401b0394919391858211610213570186601f820112156102135780519061007161006c83610253565b610218565b918083528583019886828401011161021357888661008f930161026e565b813b156101b9577f360894a13ba1a3210667c828492db98dca3e2076cc3735a920a3ca505d382bbc80546001600160a01b031916841790556000927fbc7cd75a20ee27fd9adebab32041f755214dbc6bffa90cc0225b39da2e5c2d3b8480a28051158015906101b2575b61010b575b855160d190816103458239f35b855194606086019081118682101761019e578697849283926101889952602788527f416464726573733a206c6f772d6c6576656c2064656c65676174652063616c6c87890152660819985a5b195960ca1b8a8901525190845af4913d15610194573d9061017a61006c83610253565b91825281943d92013e610291565b508038808080806100fe565b5060609250610291565b634e487b7160e01b84526041600452602484fd5b50826100f9565b855162461bcd60e51b815260048101859052602d60248201527f455243313936373a206e657720696d706c656d656e746174696f6e206973206e60448201526c1bdd08184818dbdb9d1c9858dd609a1b6064820152608490fd5b600080fd5b6040519190601f01601f191682016001600160401b0381118382101761023d57604052565b634e487b7160e01b600052604160045260246000fd5b6001600160401b03811161023d57601f01601f191660200190565b60005b8381106102815750506000910152565b8181015183820152602001610271565b919290156102f357508151156102a5575090565b3b156102ae5790565b60405162461bcd60e51b815260206004820152601d60248201527f416464726573733a2063616c6c20746f206e6f6e2d636f6e74726163740000006044820152606490fd5b8251909150156103065750805190602001fd5b6044604051809262461bcd60e51b825260206004830152610336815180928160248601526020868601910161026e565b601f01601f19168101030190fdfe608060405236156054577f360894a13ba1a3210667c828492db98dca3e2076cc3735a920a3ca505d382bbc54600090819081906001600160a01b0316368280378136915af43d82803e156050573d90f35b3d90fd5b7f360894a13ba1a3210667c828492db98dca3e2076cc3735a920a3ca505d382bbc54600090819081906001600160a01b0316368280378136915af43d82803e156050573d90f3fea2646970667358221220044b95600c5a8b16f58ad7053fc82847c6e00cbcad98e443169bf78d6395632364736f6c63430008140033b6bbe3bbfc71867f6077c6f16e542a54da5c211f21febbc290204b13a4dd7719360894a13ba1a3210667c828492db98dca3e2076cc3735a920a3ca505d382bbca2646970667358221220973bdbe25b22b8717a6be7ecda28a3ae7b8c704bbe216732909859fb9cd4cf0b64736f6c63430008140033",
  "linkReferences": {},
  "deployedLinkReferences": {}
}