{
  "_format": "hh-sol-artifact-1",
  "contractName": "RWASecurityExchange",
  "sourceName": "contracts/RWASecurityExchange.sol",
  "abi": [
    {
      "inputs": [],
      "stateMutability": "nonpayable",
      "type": "constructor"
    },
    {
      "inputs": [],
      "name": "AccountFrozen",
      "type": "error"
    },
    {
      "inputs": [],
      "name": "CannotCancelOrder",
      "type": "error"
    },
    {
      "inputs": [
        {
          "internalType": "uint16",
          "name": "countryCode",
          "type": "uint16"
        }
      ],
      "name": "CountryRestricted",
      "type": "error"
    },
    {
      "inputs": [],
      "name": "InvalidAmount",
      "type": "error"
    },
    {
      "inputs": [],
      "name": "InvalidKYCLevel",
      "type": "error"
    },
    {
      "inputs": [],
      "name": "InvalidKYCProof",
      "type": "error"
    },
    {
      "inputs": [],
      "name": "InvalidPrice",
      "type": "error"
    },
    {
      "inputs": [],
      "name": "InvalidSecurityToken",
      "type": "error"
    },
    {
      "inputs": [],
      "name": "KYCExpired",
      "type": "error"
    },
    {
      "inputs": [
        {
          "internalType": "uint8",
          "name": "required",
          "type": "uint8"
        },
        {
          "internalType": "uint8",
          "name": "provided",
          "type": "uint8"
        }
      ],
      "name": "KYCLevelTooLow",
      "type": "error"
    },
    {
      "inputs": [],
      "name": "NotOrderOwner",
      "type": "error"
    },
    {
      "inputs": [],
      "name": "PairAlreadyExists",
      "type": "error"
    },
    {
      "inputs": [],
      "name": "PairDoesNotExist",
      "type": "error"
    },
    {
      "inputs": [],
      "name": "PairNotActive",
      "type": "error"
    },
    {
      "inputs": [],
      "name": "PaymentTokenNotAccepted",
      "type": "error"
    },
    {
      "inputs": [],
      "name": "TokensLocked",
      "type": "error"
    },
    {
      "anonymous": false,
      "inputs": [
        {
          "indexed": false,
          "internalType": "address",
          "name": "previousAdmin",
          "type": "address"
        },
        {
          "indexed": false,
          "internalType": "address",
          "name": "newAdmin",
          "type": "address"
        }
      ],
      "name": "AdminChanged",
      "type": "event"
    },
    {
      "anonymous": false,
      "inputs": [
        {
          "indexed": true,
          "internalType": "address",
          "name": "beacon",
          "type": "address"
        }
      ],
      "name": "BeaconUpgraded",
      "type": "event"
    },
    {
      "anonymous": false,
      "inputs": [
        {
          "indexed": false,
          "internalType": "uint8",
          "name": "oldLevel",
          "type": "uint8"
        },
        {
          "indexed": false,
          "internalType": "uint8",
          "name": "newLevel",
          "type": "uint8"
        }
      ],
      "name": "DefaultMinKYCLevelUpdated",
      "type": "event"
    },
    {
      "anonymous": false,
      "inputs": [
        {
          "indexed": false,
          "internalType": "uint16",
          "name": "countryCode",
          "type": "uint16"
        },
        {
          "indexed": false,
          "internalType": "bool",
          "name": "restricted",
          "type": "bool"
        }
      ],
      "name": "DefaultRestrictedCountryUpdated",
      "type": "event"
    },
    {
      "anonymous": false,
      "inputs": [
        {
          "indexed": true,
          "internalType": "address",
          "name": "newCollector",
          "type": "address"
        }
      ],
      "name": "FeeCollectorUpdated",
      "type": "event"
    },
    {
      "anonymous": false,
      "inputs": [
        {
          "indexed": false,
          "internalType": "uint256",
          "name": "makerFeeBps",
          "type": "uint256"
        },
        {
          "indexed": false,
          "internalType": "uint256",
          "name": "takerFeeBps",
          "type": "uint256"
        }
      ],
      "name": "FeesUpdated",
      "type": "event"
    },
    {
      "anonymous": false,
      "inputs": [
        {
          "indexed": false,
          "internalType": "uint8",
          "name": "version",
          "type": "uint8"
        }
      ],
      "name": "Initialized",
      "type": "event"
    },
    {
      "anonymous": false,
      "inputs": [
        {
          "indexed": true,
          "internalType": "address",
          "name": "oldVerifier",
          "type": "address"
        },
        {
          "indexed": true,
          "internalType": "address",
          "name": "newVerifier",
          "type": "address"
        }
      ],
      "name": "KYCVerifierUpdated",
      "type": "event"
    },
    {
      "anonymous": false,
      "inputs": [
        {
          "indexed": true,
          "internalType": "uint256",
          "name": "orderId",
          "type": "uint256"
        }
      ],
      "name": "OrderCancelled",
      "type": "event"
    },
    {
      "anonymous": false,
      "inputs": [
        {
          "indexed": true,
          "internalType": "uint256",
          "name": "orderId",
          "type": "uint256"
        },
        {
          "indexed": true,
          "internalType": "address",
          "name": "trader",
          "type": "address"
        },
        {
          "indexed": false,
          "internalType": "address",
          "name": "securityToken",
          "type": "address"
        },
        {
          "indexed": false,
          "internalType": "address",
          "name": "paymentToken",
          "type": "address"
        },
        {
          "indexed": false,
          "internalType": "enum RWASecurityExchange.OrderSide",
          "name": "side",
          "type": "uint8"
        },
        {
          "indexed": false,
          "internalType": "uint256",
          "name": "price",
          "type": "uint256"
        },
        {
          "indexed": false,
          "internalType": "uint256",
          "name": "amount",
          "type": "uint256"
        }
      ],
      "name": "OrderCreated",
      "type": "event"
    },
    {
      "anonymous": false,
      "inputs": [
        {
          "indexed": true,
          "internalType": "uint256",
          "name": "orderId",
          "type": "uint256"
        },
        {
          "indexed": false,
          "internalType": "uint256",
          "name": "filledAmount",
          "type": "uint256"
        },
        {
          "indexed": false,
          "internalType": "uint256",
          "name": "remainingAmount",
          "type": "uint256"
        }
      ],
      "name": "OrderFilled",
      "type": "event"
    },
    {
      "anonymous": false,
      "inputs": [
        {
          "indexed": true,
          "internalType": "bytes32",
          "name": "pairId",
          "type": "bytes32"
        },
        {
          "indexed": false,
          "internalType": "uint16",
          "name": "countryCode",
          "type": "uint16"
        },
        {
          "indexed": false,
          "internalType": "bool",
          "name": "restricted",
          "type": "bool"
        }
      ],
      "name": "PairCountryRestrictionUpdated",
      "type": "event"
    },
    {
      "anonymous": false,
      "inputs": [
        {
          "indexed": false,
          "internalType": "address",
          "name": "account",
          "type": "address"
        }
      ],
      "name": "Paused",
      "type": "event"
    },
    {
      "anonymous": false,
      "inputs": [
        {
          "indexed": true,
          "internalType": "bytes32",
          "name": "role",
          "type": "bytes32"
        },
        {
          "indexed": true,
          "internalType": "bytes32",
          "name": "previousAdminRole",
          "type": "bytes32"
        },
        {
          "indexed": true,
          "internalType": "bytes32",
          "name": "newAdminRole",
          "type": "bytes32"
        }
      ],
      "name": "RoleAdminChanged",
      "type": "event"
    },
    {
      "anonymous": false,
      "inputs": [
        {
          "indexed": true,
          "internalType": "bytes32",
          "name": "role",
          "type": "bytes32"
        },
        {
          "indexed": true,
          "internalType": "address",
          "name": "account",
          "type": "address"
        },
        {
          "indexed": true,
          "internalType": "address",
          "name": "sender",
          "type": "address"
        }
      ],
      "name": "RoleGranted",
      "type": "event"
    },
    {
      "anonymous": false,
      "inputs": [
        {
          "indexed": true,
          "internalType": "bytes32",
          "name": "role",
          "type": "bytes32"
        },
        {
          "indexed": true,
          "internalType": "address",
          "name": "account",
          "type": "address"
        },
        {
          "indexed": true,
          "internalType": "address",
          "name": "sender",
          "type": "address"
        }
      ],
      "name": "RoleRevoked",
      "type": "event"
    },
    {
      "anonymous": false,
      "inputs": [
        {
          "indexed": true,
          "internalType": "uint256",
          "name": "tradeId",
          "type": "uint256"
        },
        {
          "indexed": true,
          "internalType": "uint256",
          "name": "buyOrderId",
          "type": "uint256"
        },
        {
          "indexed": true,
          "internalType": "uint256",
          "name": "sellOrderId",
          "type": "uint256"
        },
        {
          "indexed": false,
          "internalType": "address",
          "name": "buyer",
          "type": "address"
        },
        {
          "indexed": false,
          "internalType": "address",
          "name": "seller",
          "type": "address"
        },
        {
          "indexed": false,
          "internalType": "uint256",
          "name": "price",
          "type": "uint256"
        },
        {
          "indexed": false,
          "internalType": "uint256",
          "name": "amount",
          "type": "uint256"
        },
        {
          "indexed": false,
          "internalType": "uint256",
          "name": "buyerFee",
          "type": "uint256"
        },
        {
          "indexed": false,
          "internalType": "uint256",
          "name": "sellerFee",
          "type": "uint256"
        }
      ],
      "name": "TradeExecuted",
      "type": "event"
    },
    {
      "anonymous": false,
      "inputs": [
        {
          "indexed": true,
          "internalType": "address",
          "name": "securityToken",
          "type": "address"
        },
        {
          "indexed": true,
          "internalType": "address",
          "name": "paymentToken",
          "type": "address"
        },
        {
          "indexed": false,
          "internalType": "bytes32",
          "name": "pairId",
          "type": "bytes32"
        },
        {
          "indexed": false,
          "internalType": "uint8",
          "name": "minKYCLevel",
          "type": "uint8"
        }
      ],
      "name": "TradingPairCreated",
      "type": "event"
    },
    {
      "anonymous": false,
      "inputs": [
        {
          "indexed": true,
          "internalType": "bytes32",
          "name": "pairId",
          "type": "bytes32"
        },
        {
          "indexed": false,
          "internalType": "uint8",
          "name": "oldLevel",
          "type": "uint8"
        },
        {
          "indexed": false,
          "internalType": "uint8",
          "name": "newLevel",
          "type": "uint8"
        }
      ],
      "name": "TradingPairKYCLevelChanged",
      "type": "event"
    },
    {
      "anonymous": false,
      "inputs": [
        {
          "indexed": true,
          "internalType": "bytes32",
          "name": "pairId",
          "type": "bytes32"
        },
        {
          "indexed": false,
          "internalType": "bool",
          "name": "active",
          "type": "bool"
        }
      ],
      "name": "TradingPairStatusChanged",
      "type": "event"
    },
    {
      "anonymous": false,
      "inputs": [
        {
          "indexed": false,
          "internalType": "address",
          "name": "account",
          "type": "address"
        }
      ],
      "name": "Unpaused",
      "type": "event"
    },
    {
      "anonymous": false,
      "inputs": [
        {
          "indexed": true,
          "internalType": "address",
          "name": "implementation",
          "type": "address"
        }
      ],
      "name": "Upgraded",
      "type": "event"
    },
    {
      "inputs": [],
      "name": "DEFAULT_ADMIN_ROLE",
      "outputs": [
        {
          "internalType": "bytes32",
          "name": "",
          "type": "bytes32"
        }
      ],
      "stateMutability": "view",
      "type": "function"
    },
    {
      "inputs": [],
      "name": "FACTORY_ROLE",
      "outputs": [
        {
          "internalType": "bytes32",
          "name": "",
          "type": "bytes32"
        }
      ],
      "stateMutability": "view",
      "type": "function"
    },
    {
      "inputs": [],
      "name": "OPERATOR_ROLE",
      "outputs": [
        {
          "internalType": "bytes32",
          "name": "",
          "type": "bytes32"
        }
      ],
      "stateMutability": "view",
      "type": "function"
    },
    {
      "inputs": [],
      "name": "UPGRADER_ROLE",
      "outputs": [
        {
          "internalType": "bytes32",
          "name": "",
          "type": "bytes32"
        }
      ],
      "stateMutability": "view",
      "type": "function"
    },
    {
      "inputs": [
        {
          "internalType": "address",
          "name": "",
          "type": "address"
        }
      ],
      "name": "acceptedPaymentTokens",
      "outputs": [
        {
          "internalType": "bool",
          "name": "",
          "type": "bool"
        }
      ],
      "stateMutability": "view",
      "type": "function"
    },
    {
      "inputs": [
        {
          "internalType": "uint16",
          "name": "_countryCode",
          "type": "uint16"
        }
      ],
      "name": "addDefaultRestrictedCountry",
      "outputs": [],
      "stateMutability": "nonpayable",
      "type": "function"
    },
    {
      "inputs": [],
      "name": "autoCreatePairs",
      "outputs": [
        {
          "internalType": "bool",
          "name": "",
          "type": "bool"
        }
      ],
      "stateMutability": "view",
      "type": "function"
    },
    {
      "inputs": [
        {
          "internalType": "bytes32",
          "name": "_pairId",
          "type": "bytes32"
        },
        {
          "internalType": "uint16[]",
          "name": "_countryCodes",
          "type": "uint16[]"
        },
        {
          "internalType": "bool",
          "name": "_restricted",
          "type": "bool"
        }
      ],
      "name": "batchSetPairCountryRestrictions",
      "outputs": [],
      "stateMutability": "nonpayable",
      "type": "function"
    },
    {
      "inputs": [
        {
          "internalType": "bytes32",
          "name": "",
          "type": "bytes32"
        },
        {
          "internalType": "uint256",
          "name": "",
          "type": "uint256"
        }
      ],
      "name": "buyOrderBook",
      "outputs": [
        {
          "internalType": "uint256",
          "name": "",
          "type": "uint256"
        }
      ],
      "stateMutability": "view",
      "type": "function"
    },
    {
      "inputs": [
        {
          "internalType": "uint256",
          "name": "_orderId",
          "type": "uint256"
        }
      ],
      "name": "cancelOrder",
      "outputs": [],
      "stateMutability": "nonpayable",
      "type": "function"
    },
    {
      "inputs": [
        {
          "internalType": "address",
          "name": "_securityToken",
          "type": "address"
        },
        {
          "internalType": "address",
          "name": "_paymentToken",
          "type": "address"
        },
        {
          "internalType": "enum RWASecurityExchange.OrderSide",
          "name": "_side",
          "type": "uint8"
        },
        {
          "internalType": "uint256",
          "name": "_price",
          "type": "uint256"
        },
        {
          "internalType": "uint256",
          "name": "_amount",
          "type": "uint256"
        },
        {
          "components": [
            {
              "internalType": "uint8",
              "name": "level",
              "type": "uint8"
            },
            {
              "internalType": "uint16",
              "name": "countryCode",
              "type": "uint16"
            },
            {
              "internalType": "uint256",
              "name": "expiry",
              "type": "uint256"
            },
            {
              "internalType": "bytes",
              "name": "signature",
              "type": "bytes"
            }
          ],
          "internalType": "struct RWASecurityExchange.KYCProof",
          "name": "_kycProof",
          "type": "tuple"
        }
      ],
      "name": "createOrder",
      "outputs": [
        {
          "internalType": "uint256",
          "name": "orderId",
          "type": "uint256"
        }
      ],
      "stateMutability": "nonpayable",
      "type": "function"
    },
    {
      "inputs": [
        {
          "internalType": "address",
          "name": "_securityToken",
          "type": "address"
        }
      ],
      "name": "createPairForToken",
      "outputs": [
        {
          "internalType": "bytes32",
          "name": "",
          "type": "bytes32"
        }
      ],
      "stateMutability": "nonpayable",
      "type": "function"
    },
    {
      "inputs": [
        {
          "internalType": "address",
          "name": "_securityToken",
          "type": "address"
        },
        {
          "internalType": "address[]",
          "name": "_paymentTokens",
          "type": "address[]"
        }
      ],
      "name": "createPairsForToken",
      "outputs": [],
      "stateMutability": "nonpayable",
      "type": "function"
    },
    {
      "inputs": [
        {
          "internalType": "address",
          "name": "_securityToken",
          "type": "address"
        },
        {
          "internalType": "address",
          "name": "_paymentToken",
          "type": "address"
        }
      ],
      "name": "createTradingPair",
      "outputs": [
        {
          "internalType": "bytes32",
          "name": "pairId",
          "type": "bytes32"
        }
      ],
      "stateMutability": "nonpayable",
      "type": "function"
    },
    {
      "inputs": [
        {
          "internalType": "address",
          "name": "_securityToken",
          "type": "address"
        },
        {
          "internalType": "address",
          "name": "_paymentToken",
          "type": "address"
        },
        {
          "internalType": "uint8",
          "name": "_minKYCLevel",
          "type": "uint8"
        }
      ],
      "name": "createTradingPairWithKYCLevel",
      "outputs": [
        {
          "internalType": "bytes32",
          "name": "pairId",
          "type": "bytes32"
        }
      ],
      "stateMutability": "nonpayable",
      "type": "function"
    },
    {
      "inputs": [],
      "name": "defaultMinKYCLevel",
      "outputs": [
        {
          "internalType": "uint8",
          "name": "",
          "type": "uint8"
        }
      ],
      "stateMutability": "view",
      "type": "function"
    },
    {
      "inputs": [],
      "name": "defaultPaymentToken",
      "outputs": [
        {
          "internalType": "address",
          "name": "",
          "type": "address"
        }
      ],
      "stateMutability": "view",
      "type": "function"
    },
    {
      "inputs": [
        {
          "internalType": "uint256",
          "name": "",
          "type": "uint256"
        }
      ],
      "name": "defaultRestrictedCountries",
      "outputs": [
        {
          "internalType": "uint16",
          "name": "",
          "type": "uint16"
        }
      ],
      "stateMutability": "view",
      "type": "function"
    },
    {
      "inputs": [
        {
          "internalType": "address",
          "name": "_token",
          "type": "address"
        },
        {
          "internalType": "uint256",
          "name": "_amount",
          "type": "uint256"
        }
      ],
      "name": "emergencyWithdraw",
      "outputs": [],
      "stateMutability": "nonpayable",
      "type": "function"
    },
    {
      "inputs": [],
      "name": "feeCollector",
      "outputs": [
        {
          "internalType": "address",
          "name": "",
          "type": "address"
        }
      ],
      "stateMutability": "view",
      "type": "function"
    },
    {
      "inputs": [],
      "name": "getDefaultRestrictedCountries",
      "outputs": [
        {
          "internalType": "uint16[]",
          "name": "",
          "type": "uint16[]"
        }
      ],
      "stateMutability": "view",
      "type": "function"
    },
    {
      "inputs": [],
      "name": "getKYCVerifier",
      "outputs": [
        {
          "internalType": "address",
          "name": "",
          "type": "address"
        }
      ],
      "stateMutability": "view",
      "type": "function"
    },
    {
      "inputs": [
        {
          "internalType": "uint256",
          "name": "_orderId",
          "type": "uint256"
        }
      ],
      "name": "getOrder",
      "outputs": [
        {
          "components": [
            {
              "internalType": "uint256",
              "name": "id",
              "type": "uint256"
            },
            {
              "internalType": "address",
              "name": "trader",
              "type": "address"
            },
            {
              "internalType": "address",
              "name": "securityToken",
              "type": "address"
            },
            {
              "internalType": "address",
              "name": "paymentToken",
              "type": "address"
            },
            {
              "internalType": "enum RWASecurityExchange.OrderSide",
              "name": "side",
              "type": "uint8"
            },
            {
              "internalType": "uint256",
              "name": "price",
              "type": "uint256"
            },
            {
              "internalType": "uint256",
              "name": "amount",
              "type": "uint256"
            },
            {
              "internalType": "uint256",
              "name": "filled",
              "type": "uint256"
            },
            {
              "internalType": "uint256",
              "name": "createdAt",
              "type": "uint256"
            },
            {
              "internalType": "enum RWASecurityExchange.OrderStatus",
              "name": "status",
              "type": "uint8"
            }
          ],
          "internalType": "struct RWASecurityExchange.Order",
          "name": "",
          "type": "tuple"
        }
      ],
      "stateMutability": "view",
      "type": "function"
    },
    {
      "inputs": [
        {
          "internalType": "address",
          "name": "_securityToken",
          "type": "address"
        },
        {
          "internalType": "address",
          "name": "_paymentToken",
          "type": "address"
        },
        {
          "internalType": "uint256",
          "name": "_limit",
          "type": "uint256"
        }
      ],
      "name": "getOrderBook",
      "outputs": [
        {
          "components": [
            {
              "internalType": "uint256",
              "name": "id",
              "type": "uint256"
            },
            {
              "internalType": "address",
              "name": "trader",
              "type": "address"
            },
            {
              "internalType": "address",
              "name": "securityToken",
              "type": "address"
            },
            {
              "internalType": "address",
              "name": "paymentToken",
              "type": "address"
            },
            {
              "internalType": "enum RWASecurityExchange.OrderSide",
              "name": "side",
              "type": "uint8"
            },
            {
              "internalType": "uint256",
              "name": "price",
              "type": "uint256"
            },
            {
              "internalType": "uint256",
              "name": "amount",
              "type": "uint256"
            },
            {
              "internalType": "uint256",
              "name": "filled",
              "type": "uint256"
            },
            {
              "internalType": "uint256",
              "name": "createdAt",
              "type": "uint256"
            },
            {
              "internalType": "enum RWASecurityExchange.OrderStatus",
              "name": "status",
              "type": "uint8"
            }
          ],
          "internalType": "struct RWASecurityExchange.Order[]",
          "name": "buyOrders",
          "type": "tuple[]"
        },
        {
          "components": [
            {
              "internalType": "uint256",
              "name": "id",
              "type": "uint256"
            },
            {
              "internalType": "address",
              "name": "trader",
              "type": "address"
            },
            {
              "internalType": "address",
              "name": "securityToken",
              "type": "address"
            },
            {
              "internalType": "address",
              "name": "paymentToken",
              "type": "address"
            },
            {
              "internalType": "enum RWASecurityExchange.OrderSide",
              "name": "side",
              "type": "uint8"
            },
            {
              "internalType": "uint256",
              "name": "price",
              "type": "uint256"
            },
            {
              "internalType": "uint256",
              "name": "amount",
              "type": "uint256"
            },
            {
              "internalType": "uint256",
              "name": "filled",
              "type": "uint256"
            },
            {
              "internalType": "uint256",
              "name": "createdAt",
              "type": "uint256"
            },
            {
              "internalType": "enum RWASecurityExchange.OrderStatus",
              "name": "status",
              "type": "uint8"
            }
          ],
          "internalType": "struct RWASecurityExchange.Order[]",
          "name": "sellOrders",
          "type": "tuple[]"
        }
      ],
      "stateMutability": "view",
      "type": "function"
    },
    {
      "inputs": [
        {
          "internalType": "address",
          "name": "_securityToken",
          "type": "address"
        },
        {
          "internalType": "address",
          "name": "_paymentToken",
          "type": "address"
        }
      ],
      "name": "getPairId",
      "outputs": [
        {
          "internalType": "bytes32",
          "name": "",
          "type": "bytes32"
        }
      ],
      "stateMutability": "pure",
      "type": "function"
    },
    {
      "inputs": [
        {
          "internalType": "bytes32",
          "name": "_pairId",
          "type": "bytes32"
        },
        {
          "internalType": "uint256",
          "name": "_limit",
          "type": "uint256"
        }
      ],
      "name": "getPairTrades",
      "outputs": [
        {
          "components": [
            {
              "internalType": "uint256",
              "name": "id",
              "type": "uint256"
            },
            {
              "internalType": "uint256",
              "name": "buyOrderId",
              "type": "uint256"
            },
            {
              "internalType": "uint256",
              "name": "sellOrderId",
              "type": "uint256"
            },
            {
              "internalType": "address",
              "name": "buyer",
              "type": "address"
            },
            {
              "internalType": "address",
              "name": "seller",
              "type": "address"
            },
            {
              "internalType": "address",
              "name": "securityToken",
              "type": "address"
            },
            {
              "internalType": "address",
              "name": "paymentToken",
              "type": "address"
            },
            {
              "internalType": "uint256",
              "name": "price",
              "type": "uint256"
            },
            {
              "internalType": "uint256",
              "name": "amount",
              "type": "uint256"
            },
            {
              "internalType": "uint256",
              "name": "timestamp",
              "type": "uint256"
            }
          ],
          "internalType": "struct RWASecurityExchange.Trade[]",
          "name": "",
          "type": "tuple[]"
        }
      ],
      "stateMutability": "view",
      "type": "function"
    },
    {
      "inputs": [
        {
          "internalType": "bytes32",
          "name": "role",
          "type": "bytes32"
        }
      ],
      "name": "getRoleAdmin",
      "outputs": [
        {
          "internalType": "bytes32",
          "name": "",
          "type": "bytes32"
        }
      ],
      "stateMutability": "view",
      "type": "function"
    },
    {
      "inputs": [],
      "name": "getTotalOrders",
      "outputs": [
        {
          "internalType": "uint256",
          "name": "",
          "type": "uint256"
        }
      ],
      "stateMutability": "view",
      "type": "function"
    },
    {
      "inputs": [],
      "name": "getTotalTrades",
      "outputs": [
        {
          "internalType": "uint256",
          "name": "",
          "type": "uint256"
        }
      ],
      "stateMutability": "view",
      "type": "function"
    },
    {
      "inputs": [
        {
          "internalType": "uint256",
          "name": "_tradeId",
          "type": "uint256"
        }
      ],
      "name": "getTrade",
      "outputs": [
        {
          "components": [
            {
              "internalType": "uint256",
              "name": "id",
              "type": "uint256"
            },
            {
              "internalType": "uint256",
              "name": "buyOrderId",
              "type": "uint256"
            },
            {
              "internalType": "uint256",
              "name": "sellOrderId",
              "type": "uint256"
            },
            {
              "internalType": "address",
              "name": "buyer",
              "type": "address"
            },
            {
              "internalType": "address",
              "name": "seller",
              "type": "address"
            },
            {
              "internalType": "address",
              "name": "securityToken",
              "type": "address"
            },
            {
              "internalType": "address",
              "name": "paymentToken",
              "type": "address"
            },
            {
              "internalType": "uint256",
              "name": "price",
              "type": "uint256"
            },
            {
              "internalType": "uint256",
              "name": "amount",
              "type": "uint256"
            },
            {
              "internalType": "uint256",
              "name": "timestamp",
              "type": "uint256"
            }
          ],
          "internalType": "struct RWASecurityExchange.Trade",
          "name": "",
          "type": "tuple"
        }
      ],
      "stateMutability": "view",
      "type": "function"
    },
    {
      "inputs": [
        {
          "internalType": "address",
          "name": "_securityToken",
          "type": "address"
        },
        {
          "internalType": "address",
          "name": "_paymentToken",
          "type": "address"
        }
      ],
      "name": "getTradingPair",
      "outputs": [
        {
          "components": [
            {
              "internalType": "address",
              "name": "securityToken",
              "type": "address"
            },
            {
              "internalType": "address",
              "name": "paymentToken",
              "type": "address"
            },
            {
              "internalType": "bool",
              "name": "active",
              "type": "bool"
            },
            {
              "internalType": "uint256",
              "name": "lastPrice",
              "type": "uint256"
            },
            {
              "internalType": "uint256",
              "name": "totalVolume",
              "type": "uint256"
            },
            {
              "internalType": "uint256",
              "name": "tradesCount",
              "type": "uint256"
            },
            {
              "internalType": "uint256",
              "name": "createdAt",
              "type": "uint256"
            },
            {
              "internalType": "uint8",
              "name": "minKYCLevel",
              "type": "uint8"
            }
          ],
          "internalType": "struct RWASecurityExchange.TradingPair",
          "name": "",
          "type": "tuple"
        }
      ],
      "stateMutability": "view",
      "type": "function"
    },
    {
      "inputs": [
        {
          "internalType": "address",
          "name": "_user",
          "type": "address"
        }
      ],
      "name": "getUserActiveOrders",
      "outputs": [
        {
          "components": [
            {
              "internalType": "uint256",
              "name": "id",
              "type": "uint256"
            },
            {
              "internalType": "address",
              "name": "trader",
              "type": "address"
            },
            {
              "internalType": "address",
              "name": "securityToken",
              "type": "address"
            },
            {
              "internalType": "address",
              "name": "paymentToken",
              "type": "address"
            },
            {
              "internalType": "enum RWASecurityExchange.OrderSide",
              "name": "side",
              "type": "uint8"
            },
            {
              "internalType": "uint256",
              "name": "price",
              "type": "uint256"
            },
            {
              "internalType": "uint256",
              "name": "amount",
              "type": "uint256"
            },
            {
              "internalType": "uint256",
              "name": "filled",
              "type": "uint256"
            },
            {
              "internalType": "uint256",
              "name": "createdAt",
              "type": "uint256"
            },
            {
              "internalType": "enum RWASecurityExchange.OrderStatus",
              "name": "status",
              "type": "uint8"
            }
          ],
          "internalType": "struct RWASecurityExchange.Order[]",
          "name": "",
          "type": "tuple[]"
        }
      ],
      "stateMutability": "view",
      "type": "function"
    },
    {
      "inputs": [
        {
          "internalType": "address",
          "name": "_user",
          "type": "address"
        }
      ],
      "name": "getUserOrders",
      "outputs": [
        {
          "internalType": "uint256[]",
          "name": "",
          "type": "uint256[]"
        }
      ],
      "stateMutability": "view",
      "type": "function"
    },
    {
      "inputs": [
        {
          "internalType": "bytes32",
          "name": "role",
          "type": "bytes32"
        },
        {
          "internalType": "address",
          "name": "account",
          "type": "address"
        }
      ],
      "name": "grantRole",
      "outputs": [],
      "stateMutability": "nonpayable",
      "type": "function"
    },
    {
      "inputs": [
        {
          "internalType": "bytes32",
          "name": "role",
          "type": "bytes32"
        },
        {
          "internalType": "address",
          "name": "account",
          "type": "address"
        }
      ],
      "name": "hasRole",
      "outputs": [
        {
          "internalType": "bool",
          "name": "",
          "type": "bool"
        }
      ],
      "stateMutability": "view",
      "type": "function"
    },
    {
      "inputs": [
        {
          "internalType": "address",
          "name": "_admin",
          "type": "address"
        },
        {
          "internalType": "address",
          "name": "_kycVerifier",
          "type": "address"
        },
        {
          "internalType": "address",
          "name": "_defaultPaymentToken",
          "type": "address"
        },
        {
          "internalType": "address",
          "name": "_feeCollector",
          "type": "address"
        }
      ],
      "name": "initialize",
      "outputs": [],
      "stateMutability": "nonpayable",
      "type": "function"
    },
    {
      "inputs": [
        {
          "internalType": "uint16",
          "name": "_countryCode",
          "type": "uint16"
        },
        {
          "internalType": "bytes32",
          "name": "_pairId",
          "type": "bytes32"
        }
      ],
      "name": "isCountryRestricted",
      "outputs": [
        {
          "internalType": "bool",
          "name": "",
          "type": "bool"
        }
      ],
      "stateMutability": "view",
      "type": "function"
    },
    {
      "inputs": [],
      "name": "kycVerifier",
      "outputs": [
        {
          "internalType": "contract IKYCVerifier",
          "name": "",
          "type": "address"
        }
      ],
      "stateMutability": "view",
      "type": "function"
    },
    {
      "inputs": [],
      "name": "makerFeeBps",
      "outputs": [
        {
          "internalType": "uint256",
          "name": "",
          "type": "uint256"
        }
      ],
      "stateMutability": "view",
      "type": "function"
    },
    {
      "inputs": [
        {
          "internalType": "uint256",
          "name": "",
          "type": "uint256"
        }
      ],
      "name": "orders",
      "outputs": [
        {
          "internalType": "uint256",
          "name": "id",
          "type": "uint256"
        },
        {
          "internalType": "address",
          "name": "trader",
          "type": "address"
        },
        {
          "internalType": "address",
          "name": "securityToken",
          "type": "address"
        },
        {
          "internalType": "address",
          "name": "paymentToken",
          "type": "address"
        },
        {
          "internalType": "enum RWASecurityExchange.OrderSide",
          "name": "side",
          "type": "uint8"
        },
        {
          "internalType": "uint256",
          "name": "price",
          "type": "uint256"
        },
        {
          "internalType": "uint256",
          "name": "amount",
          "type": "uint256"
        },
        {
          "internalType": "uint256",
          "name": "filled",
          "type": "uint256"
        },
        {
          "internalType": "uint256",
          "name": "createdAt",
          "type": "uint256"
        },
        {
          "internalType": "enum RWASecurityExchange.OrderStatus",
          "name": "status",
          "type": "uint8"
        }
      ],
      "stateMutability": "view",
      "type": "function"
    },
    {
      "inputs": [
        {
          "internalType": "bytes32",
          "name": "",
          "type": "bytes32"
        },
        {
          "internalType": "uint16",
          "name": "",
          "type": "uint16"
        }
      ],
      "name": "pairRestrictedCountries",
      "outputs": [
        {
          "internalType": "bool",
          "name": "",
          "type": "bool"
        }
      ],
      "stateMutability": "view",
      "type": "function"
    },
    {
      "inputs": [
        {
          "internalType": "bytes32",
          "name": "",
          "type": "bytes32"
        },
        {
          "internalType": "uint256",
          "name": "",
          "type": "uint256"
        }
      ],
      "name": "pairTrades",
      "outputs": [
        {
          "internalType": "uint256",
          "name": "",
          "type": "uint256"
        }
      ],
      "stateMutability": "view",
      "type": "function"
    },
    {
      "inputs": [],
      "name": "pause",
      "outputs": [],
      "stateMutability": "nonpayable",
      "type": "function"
    },
    {
      "inputs": [],
      "name": "paused",
      "outputs": [
        {
          "internalType": "bool",
          "name": "",
          "type": "bool"
        }
      ],
      "stateMutability": "view",
      "type": "function"
    },
    {
      "inputs": [],
      "name": "proxiableUUID",
      "outputs": [
        {
          "internalType": "bytes32",
          "name": "",
          "type": "bytes32"
        }
      ],
      "stateMutability": "view",
      "type": "function"
    },
    {
      "inputs": [
        {
          "internalType": "uint16",
          "name": "_countryCode",
          "type": "uint16"
        }
      ],
      "name": "removeDefaultRestrictedCountry",
      "outputs": [],
      "stateMutability": "nonpayable",
      "type": "function"
    },
    {
      "inputs": [
        {
          "internalType": "bytes32",
          "name": "role",
          "type": "bytes32"
        },
        {
          "internalType": "address",
          "name": "account",
          "type": "address"
        }
      ],
      "name": "renounceRole",
      "outputs": [],
      "stateMutability": "nonpayable",
      "type": "function"
    },
    {
      "inputs": [
        {
          "internalType": "bytes32",
          "name": "role",
          "type": "bytes32"
        },
        {
          "internalType": "address",
          "name": "account",
          "type": "address"
        }
      ],
      "name": "revokeRole",
      "outputs": [],
      "stateMutability": "nonpayable",
      "type": "function"
    },
    {
      "inputs": [
        {
          "internalType": "bytes32",
          "name": "",
          "type": "bytes32"
        },
        {
          "internalType": "uint256",
          "name": "",
          "type": "uint256"
        }
      ],
      "name": "sellOrderBook",
      "outputs": [
        {
          "internalType": "uint256",
          "name": "",
          "type": "uint256"
        }
      ],
      "stateMutability": "view",
      "type": "function"
    },
    {
      "inputs": [
        {
          "internalType": "address",
          "name": "_token",
          "type": "address"
        },
        {
          "internalType": "bool",
          "name": "_accepted",
          "type": "bool"
        }
      ],
      "name": "setAcceptedPaymentToken",
      "outputs": [],
      "stateMutability": "nonpayable",
      "type": "function"
    },
    {
      "inputs": [
        {
          "internalType": "bool",
          "name": "_enabled",
          "type": "bool"
        }
      ],
      "name": "setAutoCreatePairs",
      "outputs": [],
      "stateMutability": "nonpayable",
      "type": "function"
    },
    {
      "inputs": [
        {
          "internalType": "uint8",
          "name": "_level",
          "type": "uint8"
        }
      ],
      "name": "setDefaultMinKYCLevel",
      "outputs": [],
      "stateMutability": "nonpayable",
      "type": "function"
    },
    {
      "inputs": [
        {
          "internalType": "address",
          "name": "_token",
          "type": "address"
        }
      ],
      "name": "setDefaultPaymentToken",
      "outputs": [],
      "stateMutability": "nonpayable",
      "type": "function"
    },
    {
      "inputs": [
        {
          "internalType": "address",
          "name": "_feeCollector",
          "type": "address"
        }
      ],
      "name": "setFeeCollector",
      "outputs": [],
      "stateMutability": "nonpayable",
      "type": "function"
    },
    {
      "inputs": [
        {
          "internalType": "uint256",
          "name": "_makerFeeBps",
          "type": "uint256"
        },
        {
          "internalType": "uint256",
          "name": "_takerFeeBps",
          "type": "uint256"
        }
      ],
      "name": "setFees",
      "outputs": [],
      "stateMutability": "nonpayable",
      "type": "function"
    },
    {
      "inputs": [
        {
          "internalType": "address",
          "name": "_kycVerifier",
          "type": "address"
        }
      ],
      "name": "setKYCVerifier",
      "outputs": [],
      "stateMutability": "nonpayable",
      "type": "function"
    },
    {
      "inputs": [
        {
          "internalType": "bytes32",
          "name": "_pairId",
          "type": "bytes32"
        },
        {
          "internalType": "uint16",
          "name": "_countryCode",
          "type": "uint16"
        },
        {
          "internalType": "bool",
          "name": "_restricted",
          "type": "bool"
        }
      ],
      "name": "setPairCountryRestriction",
      "outputs": [],
      "stateMutability": "nonpayable",
      "type": "function"
    },
    {
      "inputs": [
        {
          "internalType": "bytes32",
          "name": "_pairId",
          "type": "bytes32"
        },
        {
          "internalType": "uint8",
          "name": "_minKYCLevel",
          "type": "uint8"
        }
      ],
      "name": "setTradingPairKYCLevel",
      "outputs": [],
      "stateMutability": "nonpayable",
      "type": "function"
    },
    {
      "inputs": [
        {
          "internalType": "bytes32",
          "name": "_pairId",
          "type": "bytes32"
        },
        {
          "internalType": "bool",
          "name": "_active",
          "type": "bool"
        }
      ],
      "name": "setTradingPairStatus",
      "outputs": [],
      "stateMutability": "nonpayable",
      "type": "function"
    },
    {
      "inputs": [
        {
          "internalType": "bytes4",
          "name": "interfaceId",
          "type": "bytes4"
        }
      ],
      "name": "supportsInterface",
      "outputs": [
        {
          "internalType": "bool",
          "name": "",
          "type": "bool"
        }
      ],
      "stateMutability": "view",
      "type": "function"
    },
    {
      "inputs": [],
      "name": "takerFeeBps",
      "outputs": [
        {
          "internalType": "uint256",
          "name": "",
          "type": "uint256"
        }
      ],
      "stateMutability": "view",
      "type": "function"
    },
    {
      "inputs": [
        {
          "internalType": "uint256",
          "name": "",
          "type": "uint256"
        }
      ],
      "name": "trades",
      "outputs": [
        {
          "internalType": "uint256",
          "name": "id",
          "type": "uint256"
        },
        {
          "internalType": "uint256",
          "name": "buyOrderId",
          "type": "uint256"
        },
        {
          "internalType": "uint256",
          "name": "sellOrderId",
          "type": "uint256"
        },
        {
          "internalType": "address",
          "name": "buyer",
          "type": "address"
        },
        {
          "internalType": "address",
          "name": "seller",
          "type": "address"
        },
        {
          "internalType": "address",
          "name": "securityToken",
          "type": "address"
        },
        {
          "internalType": "address",
          "name": "paymentToken",
          "type": "address"
        },
        {
          "internalType": "uint256",
          "name": "price",
          "type": "uint256"
        },
        {
          "internalType": "uint256",
          "name": "amount",
          "type": "uint256"
        },
        {
          "internalType": "uint256",
          "name": "timestamp",
          "type": "uint256"
        }
      ],
      "stateMutability": "view",
      "type": "function"
    },
    {
      "inputs": [
        {
          "internalType": "bytes32",
          "name": "",
          "type": "bytes32"
        }
      ],
      "name": "tradingPairs",
      "outputs": [
        {
          "internalType": "address",
          "name": "securityToken",
          "type": "address"
        },
        {
          "internalType": "address",
          "name": "paymentToken",
          "type": "address"
        },
        {
          "internalType": "bool",
          "name": "active",
          "type": "bool"
        },
        {
          "internalType": "uint256",
          "name": "lastPrice",
          "type": "uint256"
        },
        {
          "internalType": "uint256",
          "name": "totalVolume",
          "type": "uint256"
        },
        {
          "internalType": "uint256",
          "name": "tradesCount",
          "type": "uint256"
        },
        {
          "internalType": "uint256",
          "name": "createdAt",
          "type": "uint256"
        },
        {
          "internalType": "uint8",
          "name": "minKYCLevel",
          "type": "uint8"
        }
      ],
      "stateMutability": "view",
      "type": "function"
    },
    {
      "inputs": [],
      "name": "unpause",
      "outputs": [],
      "stateMutability": "nonpayable",
      "type": "function"
    },
    {
      "inputs": [
        {
          "internalType": "address",
          "name": "newImplementation",
          "type": "address"
        }
      ],
      "name": "upgradeTo",
      "outputs": [],
      "stateMutability": "nonpayable",
      "type": "function"
    },
    {
      "inputs": [
        {
          "internalType": "address",
          "name": "newImplementation",
          "type": "address"
        },
        {
          "internalType": "bytes",
          "name": "data",
          "type": "bytes"
        }
      ],
      "name": "upgradeToAndCall",
      "outputs": [],
      "stateMutability": "payable",
      "type": "function"
    },
    {
      "inputs": [
        {
          "internalType": "address",
          "name": "",
          "type": "address"
        },
        {
          "internalType": "uint256",
          "name": "",
          "type": "uint256"
        }
      ],
      "name": "userOrders",
      "outputs": [
        {
          "internalType": "uint256",
          "name": "",
          "type": "uint256"
        }
      ],
      "stateMutability": "view",
      "type": "function"
    },
    {
      "inputs": [
        {
          "internalType": "address",
          "name": "_securityToken",
          "type": "address"
        },
        {
          "internalType": "address",
          "name": "_paymentToken",
          "type": "address"
        }
      ],
      "name": "validPairs",
      "outputs": [
        {
          "internalType": "bool",
          "name": "",
          "type": "bool"
        }
      ],
      "stateMutability": "view",
      "type": "function"
    }
  ],
  "bytecode": "0x60a08060405234620000e157306080526000549060ff8260081c166200008f575060ff8082160362000053575b6040516152689081620000e782396080518181816120b00152818161236701526133130152f35b60ff90811916176000557f7f26b83ff96e1f2b6a682f133852f6798a09c465da95921460cefb3847402498602060405160ff8152a1386200002c565b62461bcd60e51b815260206004820152602760248201527f496e697469616c697a61626c653a20636f6e747261637420697320696e697469604482015266616c697a696e6760c81b6064820152608490fd5b600080fdfe608080604052600436101561001357600080fd5b60003560e01c90816301ffc9a714613a815750806304a0fb1714613a4657806304dfcc66146139f25780630b78f9c0146139135780631acbd15d146138995780631e6c598e146137f95780631ff51bbb146137c757806323e713581461378a578063248a9ca31461375b5780632aa63492146136a95780632db25e05146135f45780632f2ff15d1461355357806336568abe146134c15780633659cfe6146132ef57806336e7a2311461283f578063375f16a7146128205780633f4ba83a1461278b5780633f92a339146127475780634037e19f146126e8578063484bb244146126a85780634cb7cb89146125a85780634f1ef286146122eb578063514fcac71461216157806352d1902d1461209d57806359ee327b146120025780635c975abb14611fde57806363c69f0814611f295780636412173e14611eff57806368314ca414611ed857806373fb7d0b14611e7a5780638456cb5914611e1f578063856652e914611dd4578063876f6d4814611dab5780638aef1b4714611b4c5780638d47ff8f14611b1a5780638f45fc2014611ae957806391d1485414611a9c5780639435298b1461186057806395ccea67146118285780639b82178e146117ff578063a0d1fab5146115af578063a1b72e94146114a6578063a217fddf1461148a578063a42dce8014611422578063a55c689e14611400578063a85c38ef1461134e578063ac5d87981461130c578063ad1bf0551461114f578063b60da08514610fdf578063b7faf78d14611009578063b937e7cc14610fdf578063ba6c4f8d14610c81578063c415b95c14610c57578063c729dfcf14610c14578063c8d594db14610bf5578063caa366c114610bb5578063d09ef24114610aea578063d17f641714610a7d578063d448eebc14610a5e578063d547741f14610a1d578063da4e81bc146109d3578063ebd34f50146109b4578063f1e9899e1461092b578063f5b541a6146108f0578063f6d628c31461081f578063f72c0d8b146107e4578063f74b059e146107525763f8c8765e1461030b57600080fd5b3461074d57608036600319011261074d57610324613ad4565b61032c613aea565b6044356001600160a01b0381811693929184900361074d576064359381851680950361074d576000549160ff95868460081c161594858096610741575b801561072b575b156106cf5760019760ff1995878a888316176000556106bd575b506103cc8160005460081c1661039f81614717565b6103a881614717565b6103b181614717565b6103ba81614717565b8a60fb556103c781614717565b614717565b61012d80548716905596831660008181527fffdfc1249c027f9191656349feb0761381bb32c9f557e01f419fd08754bf5a1b602090815260409091205490989190606590831615610683575b7f97667070c54ef182b0f5858b034beac1b6f3089aa2d3188bb1e8929f4fa9b92980600052818b526040600020836000528b52836040600020541615610648575b507f189ab7a9244df0848122154315af71fe140f3db0fe014031783b0946b8c9d2e39283600052818b526040600020836000528b52604060002054161561060d575b5050506001600160601b0360a01b9261015f911683825416179055610160838382541617905561016391825416179055600a6101615560196101625560005261016983528360406000209182541617905561017061010161ffff1982541617905561016f805490600160401b91828110156105f757808661051e92018355613b61565b929080549360031b61ffff9485610198831b921b19161790558154818110156105f757808761054f92018455613b61565b81549060031b908561016c831b921b19161790558154818110156105f757808761057b92018455613b61565b81549060031b90856102f8831b921b19161790558154908110156105f7576105a7918682019055613b61565b819291549060031b9160c0831b921b19161790556105c157005b7f7f26b83ff96e1f2b6a682f133852f6798a09c465da95921460cefb38474024989161ff001960005416600055604051908152a1005b634e487b7160e01b600052604160045260246000fd5b826000528952604060002081600052895260406000208a8882541617905533916000805160206151f3833981519152600080a438808061049b565b80600052818b526040600020836000528b5260406000208c8a8254161790558233916000805160206151f3833981519152600080a438610459565b60008052808a526040600020826000528a5260406000208b89825416179055338260006000805160206151f38339815191528180a4610418565b61ffff1916610101176000553861038a565b60405162461bcd60e51b815260206004820152602e60248201527f496e697469616c697a61626c653a20636f6e747261637420697320616c72656160448201526d191e481a5b9a5d1a585b1a5e995960921b6064820152608490fd5b50303b1580156103705750600188861614610370565b50600188861610610369565b600080fd5b3461074d57602036600319011261074d5761076b613ad4565b610773613fcf565b6001600160a01b03166000818152610169602052604090205460ff16156107aa5761016080546001600160a01b0319169091179055005b60405162461bcd60e51b8152602060048201526012602482015271151bdad95b881b9bdd081858d8d95c1d195960721b6044820152606490fd5b3461074d57600036600319011261074d5760206040517f189ab7a9244df0848122154315af71fe140f3db0fe014031783b0946b8c9d2e38152f35b3461074d57606036600319011261074d5760043561083b613cfb565b610843613b0f565b61084b613de7565b600083815261016860205260409020546001600160a01b0316156108de577f672157cb2cb2438e45656d9b1e5cf92f9e276eb195c48b97ce547cfcd9d609e5918360005261016e602052604060002061ffff82166000526020526108bf8260406000209060ff801983541691151516179055565b6040805161ffff9092168252911515602082015290819081015b0390a2005b60405163317f12fd60e21b8152600490fd5b3461074d57600036600319011261074d5760206040517f97667070c54ef182b0f5858b034beac1b6f3089aa2d3188bb1e8929f4fa9b9298152f35b3461074d57602036600319011261074d57600435600052610168602052610100604060002060018060a01b0380825416916001810154600282015460038301549060ff600485015493816006600588015497015416966040519889528116602089015260a01c16151560408701526060860152608085015260a084015260c083015260e0820152f35b3461074d57600036600319011261074d57602061016554604051908152f35b3461074d57604036600319011261074d576109ec613cfb565b60043560005261016e60205261ffff60406000209116600052602052602060ff604060002054166040519015158152f35b3461074d57604036600319011261074d57610a5c600435610a3c613aea565b90806000526065602052610a57600160406000200154614223565b614371565b005b3461074d57600036600319011261074d57602061016254604051908152f35b3461074d57602036600319011261074d57610a96613ad4565b610a9e613fcf565b61015f805490916001600160a01b039081169190829082167f4900e8de75d157a21080e6f17b8c48972095afb692f9fd506645277c99153ae3600080a36001600160a01b031916179055005b3461074d57602036600319011261074d57610b0361512b565b506004356000526101666020526101406040600020610ba660ff600860405193610b2c85613c40565b8054855260018101546001600160a01b03908116602087015260028201548116604087015260038201549081166060870152610b709060a01c841660808701614975565b600481015460a0860152600581015460c0860152600681015460e086015260078101546101008601520154166101208301614981565b610bb36040518092613d26565bf35b3461074d57610bc336613b1e565b9060005261016a6020526040600020805482101561074d57602091610be791613b49565b90546040519160031b1c8152f35b3461074d57600036600319011261074d57602061016154604051908152f35b3461074d57604036600319011261074d576020610c4f610c32613ad4565b610c3a613aea565b610c42613de7565b60ff610170541691614799565b604051908152f35b3461074d57600036600319011261074d57610163546040516001600160a01b039091168152602090f35b3461074d57600036600319011261074d576040518061016f9081548084528160208080960180956000527f47d2f800c57de5c44dff408e225b320f1ea140ca87907f0726fd6049ee5595d7936000905b80600f830110610f1557610d6e95549184828210610f01575b828210610eea575b828210610ed4575b828210610ebd575b828210610ea6575b828210610e8f575b828210610e78575b828210610e61575b828210610e4a575b828210610e33575b828210610e1c575b828210610e05575b828210610dee575b828210610dd7575b828210610dc0575b5010610db2575b5090509392930383613cae565b604051928392818401908285525180915260408401929160005b828110610d9757505050500390f35b835161ffff1685528695509381019392810192600101610d88565b60f01c815201859087610d61565b6001919461ffff8560e01c16815201930184610d5a565b6001919461ffff8560d01c16815201930184610d52565b6001919461ffff8560c01c16815201930184610d4a565b6001919461ffff8560b01c16815201930184610d42565b6001919461ffff8560a01c16815201930184610d3a565b6001919461ffff8560901c16815201930184610d32565b6001919461ffff8560801c16815201930184610d2a565b6001919461ffff8560701c16815201930184610d22565b6001919461ffff8560601c16815201930184610d1a565b6001919461ffff8560501c16815201930184610d12565b6001919461ffff8560401c16815201930184610d0a565b6001919461ffff8560301c16815201930184610d02565b6001919461ffff85831c16815201930184610cfa565b6001919461ffff8560101c16815201930184610cf2565b6001919461ffff8516815201930184610cea565b925092506001610200601092865461ffff80821683528082871c168c84015280828d1c16604084015280826060828260301c168187015282826080828260401c16818a0152828260a092828260501c16848d0152828260c0981c16878d0152828260701c1660e08d01521c166101008a0152828260901c166101208a01521c16610140870152828260b01c166101608701521c16610180840152808260d01c166101a08401528160e01c166101c083015260f01c6101e08201520194019201928492938792610cd1565b3461074d57600036600319011261074d5761015f546040516001600160a01b039091168152602090f35b3461074d57604036600319011261074d57611022613ad4565b61107a611088611030613aea565b600060e060405161104081613c5c565b8281528260208201528260408201528260608201528260808201528260a08201528260c08201520152604051928391602083019586614777565b03601f198101835282613cae565b519020600052610168602052610100604060002060ff6040516110aa81613c5c565b60018060a01b039283815416938483526001820154906020840191818116835285604086019160a01c1615158152600284015490606086019182526003850154926080870193845260048601549460a0880195865260e089600660058a01549960c08c019a8b520154169801978852604051998a525116602089015251151560408801525160608701525160808601525160a08501525160c0840152511660e0820152f35b3461074d5761115d36613b1e565b90600052602061016d81526040600020805492808410600014611306575082905b6111878261518b565b936111956040519586613cae565b828552601f196111a48461518b565b018460005b8281106112f057505050600019810190811160005b84811061121057604080518781528851818901819052898901928201908960005b8281106111ec5784840385f35b90919282610140826112016001948a51613ba1565b019601910194929190946111df565b816112da578061122c6112266112d59386614e01565b86613b49565b9054600391821b1c60005261016c8852600960406000206040519261125084613c40565b8154845260018201548b850152600282015460408501528101546001600160a01b0390811660608501526004820154811660808501526005820154811660a085015260068201541660c0840152600781015460e0840152600881015461010084015201546101208201526112c4828a615177565b526112cf8189615177565b5061492a565b6111be565b634e487b7160e01b600052601160045260246000fd5b6112f861512b565b82828a0101520185906111a9565b9061117e565b3461074d57602036600319011261074d5760043580151580910361074d57611332613de7565b6101709061ff0082549160081b169061ff001916179055600080f35b3461074d57602036600319011261074d576004356000526101666020526101406040600020610bb381549160018060a01b03908160018201541691806002830154169060038301546113e060048501549160058601549360068701549560ff600860078a015499015416986040519b8c5260208c015260408b0152811660608a015260ff60808a019160a01c16613d0c565b60a087015260c086015260e0850152610100840152610120830190613d19565b3461074d57600036600319011261074d57602060ff6101705416604051908152f35b3461074d57602036600319011261074d5761143b613ad4565b611443613fcf565b61016380546001600160a01b0319166001600160a01b039290921691821790557fe5693914d19c789bdee50a362998c0bc8d035a835f9871da5d51152f0582c34f600080a2005b3461074d57600036600319011261074d57602060405160008152f35b3461074d57606036600319011261074d576004356024356001600160401b03811161074d576114d9903690600401613c10565b90916114e3613b0f565b6114eb613de7565b81600052602090610168825260018060a01b0360406000205416156108de5760005b84811061151657005b6115aa908460005261016e8452604060002061ffff61153e611539848a8c614939565b614b9e565b16600052845261155e8360406000209060ff801983541691151516179055565b847f672157cb2cb2438e45656d9b1e5cf92f9e276eb195c48b97ce547cfcd9d609e58461158f611539858b8d614939565b6040805161ffff9290921682529115156020820152a261492a565b61150d565b3461074d5760208060031936011261074d576115c9613ad4565b7fdfbefbf47cfe66b701d8cfdbce1de81c821590819cb07e71cb01b6602fb0ee278060005260658352604060002033600052835260ff604060002054161561167357506101705460ff8160081c16156116375790610c4f9160ff60018060a01b036101605416911691614799565b60405162461bcd60e51b8152600481018490526014602482015273105d5d1bcb58dc99585d1948191a5cd8589b195960621b6044820152606490fd5b905061167e33614638565b6040519061168b82613c93565b604282528382019260603685378251156117e9576030845382516001908110156117e957607860218501536041905b8082116117a55750506117625761175e9361170e9361174693611737604894604051978576020b1b1b2b9b9a1b7b73a3937b61d1030b1b1b7bab73a1604d1b8a978801528251928391603789019101614322565b8401917001034b99036b4b9b9b4b733903937b6329607d1b603784015251809386840190614322565b01036028810184520182613cae565b60405162461bcd60e51b815291829160048301614345565b0390fd5b6064846040519062461bcd60e51b825280600483015260248201527f537472696e67733a20686578206c656e67746820696e73756666696369656e746044820152fd5b9091600f81169060108210156117e9576117e3916f181899199a1a9b1b9c1cb0b131b232b360811b901a6117d9858861461a565b5360041c9261462b565b906116ba565b634e487b7160e01b600052603260045260246000fd5b3461074d57602036600319011261074d57610a5c61181b613cea565b611823613fcf565b61505c565b3461074d57604036600319011261074d57610a5c611844613ad4565b61184c613fcf565b6024359033906001600160a01b0316614e0e565b3461074d5760608060031936011261074d5761187a613ad4565b611882613aea565b916044359160405161189e8161107a6020978883019586614777565b51902060005261016a835260406000209061016b84526040600020908254848110600014611a9557935b82549080821015611a8d5750915b6118df856151a2565b946118e9846151a2565b9460005b8281106119fa5750505060005b83811061192f5761191e8661192b8988604051948594604086526040860190613da5565b9184830390850152613da5565b0390f35b8061193d6119f59284613b49565b9054600391821b1c60005261016689526119e060406000209160086040519361196585613c40565b8054855260018101546001600160a01b039081168e870152600282015481166040870152928101549283168986015260ff9260a0906119ab90821c851660808801614975565b600482015490860152600581015460c0860152600681015460e086015260078101546101008601520154166101208301614981565b6119ea8288615177565b526112cf8187615177565b6118fa565b80611a08611a889284613b49565b9054600391821b1c6000526101668b52611a738b6008604060002060405194611a3086613c40565b8154865260018060a01b039384600184015416908701528360028301541660408701528101549283168b86015260ff926119ab8460a092831c1660808801614975565b611a7d828b615177565b526112cf818a615177565b6118ed565b9050916118d6565b50836118c8565b3461074d57604036600319011261074d57611ab5613aea565b600435600052606560205260406000209060018060a01b0316600052602052602060ff604060002054166040519015158152f35b3461074d57604036600319011261074d576020611b10611b07613cea565b60243590614d77565b6040519015158152f35b3461074d57611b2836613b1e565b9060005261016d6020526040600020805482101561074d57602091610be791613b49565b3461074d5760208060031936011261074d576001600160a01b0380611b6f613ad4565b166000526101678252604060002091604051808483829654938481520190600052836000209260005b85828210611d9557505050611baf92500384613cae565b60009060005b8451811015611c6357611bc88186615177565b5160005261016680835260ff6008818160406000200154166004811015611c4d5715928315611c1d575b505050611c08575b611c039061492a565b611bb5565b91611c15611c039161492a565b929050611bfa565b90919250611c2b8489615177565b51600052845260406000200154166004811015611c4d57600214868080611bf2565b634e487b7160e01b600052602160045260246000fd5b5091611c6f84926151a2565b60009060005b8451811015611d7f57611c888186615177565b5160005261016680875260ff600891818360406000200154166004811015611c4d57158015611d52575b611cc8575b505050611cc39061492a565b611c75565b91611d34849692611d4994611ce0611cc3978c615177565b516000528b5260406000209260405193611cf985613c40565b805485528a6001820154168d8601528a600282015416604086015260038101548b811660608701526119ab8460a092831c1660808801614975565b611d3e8286615177565b526112cf8185615177565b92908780611cb7565b50611d5d8489615177565b51600052808952818360406000200154166004811015611c4d57600214611cb2565b508461192b604051928284938452830190613da5565b8554845260019586019589955093019201611b98565b3461074d57602036600319011261074d57610a5c611dc7613cea565b611dcf613fcf565b614fa8565b3461074d57604036600319011261074d57611ded613ad4565b6001600160a01b03166000908152610167602052604090208054602435919082101561074d57602091610be791613b49565b3461074d57600036600319011261074d57611e38613fcf565b611e406149b0565b61012d600160ff198254161790557f62e78cea01bee320cd4e420270b5ea74000d11b0c9f74754ebdbfc544b05a2586020604051338152a1005b3461074d57606036600319011261074d57611e93613ad4565b611e9b613aea565b9060443560ff811680820361074d57600490611eb5613de7565b11611ec657602092610c4f92614799565b604051633d98a22f60e21b8152600490fd5b3461074d57600036600319011261074d57602060ff6101705460081c166040519015158152f35b3461074d57600036600319011261074d57610160546040516001600160a01b039091168152602090f35b3461074d5760208060031936011261074d576001600160a01b03611f4b613ad4565b166000526101678152604060002060405190818382549182815201908192600052846000209060005b86828210611fca578686611f8a82880383613cae565b604051928392818401908285525180915260408401929160005b828110611fb357505050500390f35b835185528695509381019392810192600101611fa4565b835485529093019260019283019201611f74565b3461074d57600036600319011261074d57602060ff61012d54166040519015158152f35b3461074d57604036600319011261074d5760043561201e613b00565b612026613de7565b600082815261016860208190526040909120546001600160a01b0316156108de576000838152602091825260409020600101805460ff60a01b191683151560a01b60ff60a01b161790557feb8ed1ec1d6fff0b840f0a594d36467babf6a3d8cfcd94197c5a331992a0c06b916040519015158152a2005b3461074d57600036600319011261074d577f00000000000000000000000000000000000000000000000000000000000000006001600160a01b031630036120f65760206040516000805160206152138339815191528152f35b60405162461bcd60e51b815260206004820152603860248201527f555550535570677261646561626c653a206d757374206e6f742062652063616c60448201527f6c6564207468726f7567682064656c656761746563616c6c00000000000000006064820152608490fd5b3461074d57602036600319011261074d5760043561217d6149f5565b60008181526101666020526040902060018101546001600160a01b0390811633036122d9576008820180549060ff82166004811015611c4d5780151590816122cd575b506122bb5760036121da6005860154600687015490614e01565b9260ff191617905560028301908282541693600381019260ff84549660405161220f8161107a60208201948b8d169086614777565b5190209660a01c166002811015611c4d5761228e5750670de0b6b3a7640000916004612257926122629760005261016a602052612250896040600020614e9d565b01546145fa565b049133915416614e0e565b7f61b9399f2f0f32ca39ce8d7be32caed5ec22fe07a6daba3a467ed479ec606582600080a2600160fb55005b925050916122b69360005261016b6020526122ad856040600020614e9d565b33915416614e0e565b612262565b604051633fb4e63f60e21b8152600490fd5b600291501415866121c0565b604051637b2095ad60e11b8152600490fd5b604036600319011261074d576122ff613ad4565b602435906001600160401b03821161074d573660238301121561074d57816004013561232a81613ccf565b926123386040519485613cae565b81845260209182850191366024838301011161074d578160009260248693018537860101526001600160a01b037f0000000000000000000000000000000000000000000000000000000000000000811690612395308314156143e7565b6123b2600080516020615213833981519152928284541614614448565b6123ba6140e8565b7f4910fdfa16fed3260ed0e7147f7cc6da11a60208b5b9406d12a635614ffd91435460ff16156123f25750505050610a5c91506144a9565b84939416906040516352d1902d60e01b81528581600481865afa60009181612579575b506124765760405162461bcd60e51b815260048101879052602e60248201527f45524331393637557067726164653a206e657720696d706c656d656e7461746960448201526d6f6e206973206e6f74205555505360901b6064820152608490fd5b0361252257612484836144a9565b7fbc7cd75a20ee27fd9adebab32041f755214dbc6bffa90cc0225b39da2e5c2d3b600080a283511580159061251a575b6124ba57005b60008091610a5c957f416464726573733a206c6f772d6c6576656c2064656c65676174652063616c6c604051966124f088613c78565b60278852870152660819985a5b195960ca1b60408701525190845af4612514614539565b91614569565b5060016124b4565b60405162461bcd60e51b815260048101859052602960248201527f45524331393637557067726164653a20756e737570706f727465642070726f786044820152681a58589b195555525160ba1b6064820152608490fd5b9091508681813d83116125a1575b6125918183613cae565b8101031261074d57519088612415565b503d612587565b3461074d57604036600319011261074d576125c1613ad4565b6024356001600160401b03811161074d576125e0903690600401613c10565b6125eb929192613de7565b60005b8181106125f757005b61263b906001600160a01b038061261761261284878a614939565b614949565b16600052602090610169825260ff918260406000205416612640575b50505061492a565b6125ee565b6101689061265261261286898c614939565b6040516126678161107a858201948d86614777565b519020600052526040600020541615612682575b8080612633565b6126a19061269461261284878a614939565b9061017054169086614799565b508561267b565b3461074d57602036600319011261074d576001600160a01b036126c9613ad4565b16600052610169602052602060ff604060002054166040519015158152f35b3461074d57604036600319011261074d57612701613ad4565b61107a61272061270f613aea565b604051928391602083019586614777565b519020600052610168602052602060ff60016040600020015460a01c166040519015158152f35b3461074d57604036600319011261074d576020612762613ad4565b61107a612780612770613aea565b6040519283918683019586614777565b519020604051908152f35b3461074d57600036600319011261074d576127a4613fcf565b61012d805460ff8116156127e45760ff191690557f5db9ee0a495bf2e6ff9c91a7834c1ba4fdd244a5e8aa4e537bd38aeae4b073aa6020604051338152a1005b60405162461bcd60e51b815260206004820152601460248201527314185d5cd8589b194e881b9bdd081c185d5cd95960621b6044820152606490fd5b3461074d57600036600319011261074d57602061016454604051908152f35b3461074d5760031960c03682011261074d57612859613ad4565b90612862613aea565b906002604435101561074d576001600160401b0360a4351161074d5760809060a4353603011261074d576128946149f5565b61289c6149b0565b606435156132de57608435156132cc5760405160208101906128c38161107a858786614777565b51902080600052610168602052604060002060ff600182015460a01c16156132ba578160ff60066128fd9301541660a43560040133614bad565b604051630d05166560e41b81523360048201526020816024816001600160a01b0388165afa90811561324c5760009161329b575b506132895760443560010361325857604051631293efbb60e21b81523360048201526020816024816001600160a01b0388165afa90811561324c5760009161321d575b5061320b5761299060843530336001600160a01b038716614a4b565b61299c6101645461492a565b80610164556040516129ad81613c40565b8181523360208201526001600160a01b038581166040830152841660608201526129dc60443560808301614975565b60643560a082015260843560c0820152600060e0820152426101008201526000610120820152816000526101666020526040600020908051825560018060a01b036020820151166001600160601b0360a01b6001840154161760018301556002820160018060a01b036040830151166001600160601b0360a01b82541617905560018060a01b036060820151169060038301546080820151926002841015611c4d576101209360ff60a01b9060a01b16916affffffffffffffffffffff60a81b161717600384015560a0810151600484015560c0810151600584015560e08101516006840155610100810151600784015501516004811015611c4d5760089060ff8019838501541691161791015533600052610167602052612b0281604060002061498d565b604435613169578160005261016a6020526040600020938454612b25838761498d565b8015158061312d575b15612b8757806000198101116112da57612b8290612b7d612b53600019830189613b49565b90549060031b1c612b64838a613b49565b90919082549060031b91821b91600019901b1916179055565b61462b565b612b25565b91612b64819593612b99939597613b49565b604080516001600160a01b03938416815291909216602082015290612bc2908201604435613d0c565b60643560608201526084356080820152817f307f9b959be718f26fcc4645b97ff685ee3f6043395c201893db9f710d77fec060a03393a38160005261016a60205260406000209061016b6020526040600020915b8054151580613123575b1561311757612c2e81613b34565b90549060031b1c6000526101666020526040600020612c4c84613b34565b90549060031b1c600052610166602052604060002060048201549160048201548093106130ff576005810154612c8760068301548092614e01565b612c9a6005850154600686015490614e01565b808210156130f857505b670de0b6b3a7640000612cb782876145fa565b04612710612cc861016254836145fa565b04908193612710612cdc61016154846145fa565b049460078701546007890154116130ef575b5091600482612d9283612d8d60089c96670de0b6b3a7640000612d878f9d9c9b8f8e6122508f92849f93612d23868f9661460d565b6006850155612d3686600684015461460d565b600683015560028401546001850154612d5d9188916001600160a01b039081169116614e0e565b6003840154600192909201546001600160a01b03928316921690612d81908a614e01565b91614e0e565b04614e01565b614e01565b806130c8575b50612da3868461460d565b801515806130b3575b61308d575b50612dbe6101655461492a565b61016581905587548a546001808b0154908d015460028c015460038d015460405196956001600160a01b039182169592821694938216939091169190612e0388613c40565b868852602088015260408701526060860152608085015260a084015260c08301528560e0830152866101008301524261012083015260005261016c60205260096101206040600020928051845560208101516001850155604081015160028501556003840160018060a01b036060830151166001600160601b0360a01b82541617905585840160018060a01b036080830151166001600160601b0360a01b8254161790556005840160018060a01b0360a0830151166001600160601b0360a01b8254161790556006840160018060a01b0360c0830151166001600160601b0360a01b82541617905560e081015160078501556101008101518c85015501519101558d60005261016d602052612f206040600020610165549061498d565b8d600052610168602052604060002090846002830155612f456003830191825461460d565b905501612f52815461492a565b9055610165547f6e00923936abb93d526534163528509e383c4b3753db04a70471e58a9cf33ae260c089885497889582549889988c6001808060a01b0391015416946001808060a01b0391015416604051958652602086015260408501526060840152608083015260a0820152a46006830154906040600585015493612fd88486614e01565b82519085825260208201527fc75938696bc974b3973ac0c1440e2ee3e9240af3b97c884edc4dc153be013e7b928391a26040600688015461301d8160058b0154614e01565b82519182526020820152a20361307c5701805460ff1916600117905561304283614f2b565b600681015460058201540361306b5701805460ff1916600117905561306683614f2b565b612c16565b01805460ff19166002179055612c16565b01805460ff19166002179055613042565b6003880154610163546130ad92916001600160a01b039182169116614e0e565b8e612db1565b50610163546001600160a01b03161515612dac565b600388015460018901546130e992916001600160a01b039182169116614e0e565b8e612d98565b94925085612cee565b9050612ca4565b505050509050602091505b600160fb55604051908152f35b5090506020915061310a565b5082541515612c20565b50806000198101116112da57613147600019820187613b49565b90549060031b1c60005261016660205260643560046040600020015410612b2e565b8160005261016b6020526040600020938454613185838761498d565b801515806131cf575b156131b857806000198101116112da576131b390612b7d612b53600019830189613b49565b613185565b91612b648195936131ca939597613b49565b612b99565b50806000198101116112da576131e9600019820187613b49565b90549060031b1c6000526101666020526064356004604060002001541161318e565b60405163de1af48d60e01b8152600490fd5b61323f915060203d602011613245575b6132378183613cae565b81019061495d565b84612974565b503d61322d565b6040513d6000823e3d90fd5b613284670de0b6b3a76400006132726084356064356145fa565b0430336001600160a01b038616614a4b565b612990565b6040516302a957f560e51b8152600490fd5b6132b4915060203d602011613245576132378183613cae565b84612931565b604051634fedf0ed60e01b8152600490fd5b60405163162908e360e11b8152600490fd5b60405162bfc92160e01b8152600490fd5b3461074d5760208060031936011261074d57613309613ad4565b6001600160a01b037f000000000000000000000000000000000000000000000000000000000000000081169290613342308514156143e7565b61335f600080516020615213833981519152948286541614614448565b6133676140e8565b60405193828501918583106001600160401b038411176105f757826040526000865260ff7f4910fdfa16fed3260ed0e7147f7cc6da11a60208b5b9406d12a635614ffd914354166000146133c35750505050610a5c91506144a9565b84939416906040516352d1902d60e01b81528581600481865afa60009181613492575b506134475760405162461bcd60e51b815260048101879052602e60248201527f45524331393637557067726164653a206e657720696d706c656d656e7461746960448201526d6f6e206973206e6f74205555505360901b6064820152608490fd5b0361252257613455836144a9565b7fbc7cd75a20ee27fd9adebab32041f755214dbc6bffa90cc0225b39da2e5c2d3b600080a283511580159061348a576124ba57005b5060006124b4565b9091508681813d83116134ba575b6134aa8183613cae565b8101031261074d575190886133e6565b503d6134a0565b3461074d57604036600319011261074d576134da613aea565b336001600160a01b038216036134f657610a5c90600435614371565b60405162461bcd60e51b815260206004820152602f60248201527f416363657373436f6e74726f6c3a2063616e206f6e6c792072656e6f756e636560448201526e103937b632b9903337b91039b2b63360891b6064820152608490fd5b3461074d57604036600319011261074d5760043561356f613aea565b816000526065602052613589600160406000200154614223565b81600052606560205260406000209060018060a01b0316908160005260205260ff60406000205416156135b857005b8160005260656020526040600020816000526020526040600020600160ff1982541617905533916000805160206151f3833981519152600080a4005b3461074d57602036600319011261074d5761360d61512b565b5060043560005261016c602052610140604060002060096040519161363183613c40565b80548352600181015460208401526002810154604084015260018060a01b038060038301541660608501528060048301541660808501528060058301541660a085015260068201541660c0840152600781015460e084015260088101546101008401520154610120820152610bb36040518092613ba1565b3461074d57604036600319011261074d5760043560243560ff81169081810361074d576136d4613de7565b82600052610168918260205260018060a01b0360406000205416156108de5760048111611ec6576108d960ff927fee3ce1a101853234e9fe2b7a44da3748a281d787df16254127cb46725c3d1f619486600052602052600660406000200180549385198516179055604051938493168390929160ff60209181604085019616845216910152565b3461074d57602036600319011261074d5760043560005260656020526020600160406000200154604051908152f35b3461074d57602036600319011261074d5760043561016f5481101561074d5761ffff6137b7602092613b61565b9190546040519260031b1c168152f35b3461074d576137d536613b1e565b9060005261016b6020526040600020805482101561074d57602091610be791613b49565b3461074d57602036600319011261074d5760043560005261016c6020526101406040600020805490600181015490600281015460018060a01b038060038401541690806004850154168160058601541691600686015416926007860154946009600888015497015497604051998a5260208a015260408901526060880152608087015260a086015260c085015260e0840152610100830152610120820152f35b3461074d57602036600319011261074d5760043560ff81169081810361074d576138c1613fcf565b60048211611ec657610170805460ff1981169390931790556040805160ff93841681529190921660208201527f16cb9d1e3d14b10726106a9bdc25f63fdee1f7756f966e980234c89172624c0b9190a1005b3461074d57604036600319011261074d57600435602435613932613fcf565b606482116139b8576064811161397e57816040917f5c6323bf1c2d7aaea2c091a4751c1c87af7f2864650c336507a77d0557af37a19361016155806101625582519182526020820152a1005b60405162461bcd60e51b81526020600482015260126024820152710a8c2d6cae440cccaca40e8dede40d0d2ced60731b6044820152606490fd5b60405162461bcd60e51b815260206004820152601260248201527109ac2d6cae440cccaca40e8dede40d0d2ced60731b6044820152606490fd5b3461074d57604036600319011261074d57610a5c613a0e613ad4565b613a16613b00565b90613a1f613de7565b60018060a01b031660005261016960205260406000209060ff801983541691151516179055565b3461074d57600036600319011261074d5760206040517fdfbefbf47cfe66b701d8cfdbce1de81c821590819cb07e71cb01b6602fb0ee278152f35b3461074d57602036600319011261074d576004359063ffffffff60e01b821680920361074d57602091637965db0b60e01b8114908115613ac3575b5015158152f35b6301ffc9a760e01b14905083613abc565b600435906001600160a01b038216820361074d57565b602435906001600160a01b038216820361074d57565b60243590811515820361074d57565b60443590811515820361074d57565b604090600319011261074d576004359060243590565b8054156117e957600052602060002090600090565b80548210156117e95760005260206000200190600090565b9061016f80548310156117e957600052601e8260041c7f47d2f800c57de5c44dff408e225b320f1ea140ca87907f0726fd6049ee5595d7019260011b1690565b80518252602081015160208301526040810151604083015260018060a01b038060608301511660608401528060808301511660808401528060a08301511660a084015260c08201511660c083015260e081015160e0830152610100808201519083015261012080910151910152565b9181601f8401121561074d578235916001600160401b03831161074d576020808501948460051b01011161074d57565b61014081019081106001600160401b038211176105f757604052565b61010081019081106001600160401b038211176105f757604052565b606081019081106001600160401b038211176105f757604052565b608081019081106001600160401b038211176105f757604052565b90601f801991011681019081106001600160401b038211176105f757604052565b6001600160401b0381116105f757601f01601f191660200190565b6004359061ffff8216820361074d57565b6024359061ffff8216820361074d57565b906002821015611c4d5752565b906004821015611c4d5752565b90613da3918051825260018060a01b038060208301511660208401528060408301511660408401526060820151166060830152613d6b60808201516080840190613d0c565b60a081015160a083015260c081015160c083015260e081015160e0830152610100808201519083015261012080910151910190613d19565b565b90815180825260208080930193019160005b828110613dc5575050505090565b909192938261014082613ddb6001948951613d26565b01950193929101613db7565b3360009081527fbdd154b7c599a43e8b8410b62e84571cd69a79e95c9fc5b630a687cb7c97edf960209081526040808320549092907f97667070c54ef182b0f5858b034beac1b6f3089aa2d3188bb1e8929f4fa9b9299060ff1615613e4c5750505050565b613e5533614638565b845191613e6183613c93565b60428352848301936060368637835115613fbb57603085538351600190811015613fa75790607860218601536041915b808311613f4d57505050613f0b5761170e938593613ef593613ee660489461175e9951988576020b1b1b2b9b9a1b7b73a3937b61d1030b1b1b7bab73a1604d1b8b978801528251928391603789019101614322565b01036028810185520183613cae565b5162461bcd60e51b815291829160048301614345565b60648486519062461bcd60e51b825280600483015260248201527f537472696e67733a20686578206c656e67746820696e73756666696369656e746044820152fd5b909192600f81166010811015613f9357613f8c91906f181899199a1a9b1b9c1cb0b131b232b360811b901a613f82868961461a565b5360041c9361462b565b9190613e91565b634e487b7160e01b84526032600452602484fd5b634e487b7160e01b82526032600452602482fd5b634e487b7160e01b81526032600452602490fd5b3360009081527fffdfc1249c027f9191656349feb0761381bb32c9f557e01f419fd08754bf5a1b602090815260408083205490929060ff161561401157505050565b61401a33614638565b8351908261402783613c93565b60428352848301936060368637835115613fbb57603085538351600190811015613fa75790607860218601536041915b8083116140ac57505050613f0b5761170e938593613ef593613ee660489461175e9951988576020b1b1b2b9b9a1b7b73a3937b61d1030b1b1b7bab73a1604d1b8b978801528251928391603789019101614322565b909192600f81166010811015613f93576140e191906f181899199a1a9b1b9c1cb0b131b232b360811b901a613f82868961461a565b9190614057565b3360009081527f61c6261e6978331c793eee420d743e773864e0ec05cc862750e423d64f73e9f660209081526040808320549092907f189ab7a9244df0848122154315af71fe140f3db0fe014031783b0946b8c9d2e39060ff161561414d5750505050565b61415633614638565b84519161416283613c93565b60428352848301936060368637835115613fbb57603085538351600190811015613fa75790607860218601536041915b8083116141e757505050613f0b5761170e938593613ef593613ee660489461175e9951988576020b1b1b2b9b9a1b7b73a3937b61d1030b1b1b7bab73a1604d1b8b978801528251928391603789019101614322565b909192600f81166010811015613f935761421c91906f181899199a1a9b1b9c1cb0b131b232b360811b901a613f82868961461a565b9190614192565b600081815260209060658252604092838220338352835260ff84832054161561424c5750505050565b61425533614638565b84519161426183613c93565b60428352848301936060368637835115613fbb57603085538351600190811015613fa75790607860218601536041915b8083116142e657505050613f0b5761170e938593613ef593613ee660489461175e9951988576020b1b1b2b9b9a1b7b73a3937b61d1030b1b1b7bab73a1604d1b8b978801528251928391603789019101614322565b909192600f81166010811015613f935761431b91906f181899199a1a9b1b9c1cb0b131b232b360811b901a613f82868961461a565b9190614291565b60005b8381106143355750506000910152565b8181015183820152602001614325565b604091602082526143658151809281602086015260208686019101614322565b601f01601f1916010190565b906000918083526065602052604083209160018060a01b03169182845260205260ff6040842054166143a257505050565b8083526065602052604083208284526020526040832060ff1981541690557ff6391f5c32d9c69d2a47ea670b442974b53935d1edc7fd64eb21e047a839171b339380a4565b156143ee57565b60405162461bcd60e51b815260206004820152602c60248201527f46756e6374696f6e206d7573742062652063616c6c6564207468726f7567682060448201526b19195b1959d85d1958d85b1b60a21b6064820152608490fd5b1561444f57565b60405162461bcd60e51b815260206004820152602c60248201527f46756e6374696f6e206d7573742062652063616c6c6564207468726f7567682060448201526b6163746976652070726f787960a01b6064820152608490fd5b803b156144de5760008051602061521383398151915280546001600160a01b0319166001600160a01b03909216919091179055565b60405162461bcd60e51b815260206004820152602d60248201527f455243313936373a206e657720696d706c656d656e746174696f6e206973206e60448201526c1bdd08184818dbdb9d1c9858dd609a1b6064820152608490fd5b3d15614564573d9061454a82613ccf565b916145586040519384613cae565b82523d6000602084013e565b606090565b919290156145cb575081511561457d575090565b3b156145865790565b60405162461bcd60e51b815260206004820152601d60248201527f416464726573733a2063616c6c20746f206e6f6e2d636f6e74726163740000006044820152606490fd5b8251909150156145de5750805190602001fd5b60405162461bcd60e51b815290819061175e9060048301614345565b818102929181159184041417156112da57565b919082018092116112da57565b9081518110156117e9570160200190565b80156112da576000190190565b6040519061464582613c78565b602a82526020820160403682378251156117e9576030905381516001908110156117e957607860218401536029905b8082116146c85750506146845790565b606460405162461bcd60e51b815260206004820152602060248201527f537472696e67733a20686578206c656e67746820696e73756666696369656e746044820152fd5b9091600f8116906010821015614702576146fc916f181899199a1a9b1b9c1cb0b131b232b360811b901a6117d9858761461a565b90614674565b60246000634e487b7160e01b81526032600452fd5b1561471e57565b60405162461bcd60e51b815260206004820152602b60248201527f496e697469616c697a61626c653a20636f6e7472616374206973206e6f74206960448201526a6e697469616c697a696e6760a81b6064820152608490fd5b906028926001600160601b0319809260601b16835260601b1660148201520190565b6001600160a01b039291838216919082156149185784811693600095858752602093610169855260409360ff858a20541615614907576147e561107a9186519283918983019586614777565b5190209687815261016885528184822054166148f657908488939285519261480c84613c5c565b8884528284018a8152878501906001825260608601918483526080870193858552808b60a08a019780895260c08b0199428b5260e08c019d60ff8f9e169e8f90528252610168905220985116906001600160601b0360a01b91828a5416178955600189019351169083541617825551151561489e919081549060ff60a01b90151560a01b169060ff60a01b1916179055565b516002850155516003840155516004830155516005820155600601905160ff1660ff198254161790558151928684528301527f7e892ac16b23b1b9b2ebd58bdafd1e688563e8f5726b90b622d3e042c471008a91a390565b835163c9bb25eb60e01b8152600490fd5b84516307a8470d60e51b8152600490fd5b604051631e12bd1d60e21b8152600490fd5b60001981146112da5760010190565b91908110156117e95760051b0190565b356001600160a01b038116810361074d5790565b9081602091031261074d5751801515810361074d5790565b6002821015611c4d5752565b6004821015611c4d5752565b90815491600160401b8310156105f75782612b64916001613da395018155613b49565b60ff61012d54166149bd57565b60405162461bcd60e51b815260206004820152601060248201526f14185d5cd8589b194e881c185d5cd95960821b6044820152606490fd5b600260fb5414614a0657600260fb55565b60405162461bcd60e51b815260206004820152601f60248201527f5265656e7472616e637947756172643a207265656e7472616e742063616c6c006044820152606490fd5b6040516323b872dd60e01b60208201526001600160a01b03928316602482015292909116604483015260648083019390935291815260a08101918183106001600160401b038411176105f757613da3926040525b60408051908101916001600160a01b03166001600160401b038311828410176105f757614b08926040526000806020958685527f5361666545524332303a206c6f772d6c6576656c2063616c6c206661696c656487860152868151910182855af1612514614539565b805190828215928315614b78575b50505015614b215750565b6084906040519062461bcd60e51b82526004820152602a60248201527f5361666545524332303a204552433230206f7065726174696f6e20646964206e6044820152691bdd081cdd58d8d9595960b21b6064820152fd5b614b88935082018101910161495d565b388281614b16565b3560ff8116810361074d5790565b3561ffff8116810361074d5790565b61015f546001600160a01b0394908516939091908415614d6f57614bd084614b90565b936020810194614bdf86614b9e565b9660409889840135956060850135601e198636030181121561074d5785018035906001600160401b03821161074d57602001813603811361074d5781908d519687958695631da9612560e11b875216600486015260ff16602485015261ffff809d1660448501528960648501526084840160a090528160a485015260c484013780820160c40160009052601f1990601f011681010360c401815a93602094fa908115614d6457600091614d46575b5015614d3557614c9c81614b90565b60ff808416911610614cfe5750504211614ced57614cc290614cbd83614b9e565b614d77565b614ccb57505050565b60249350614cd890614b9e565b9151638167b56960e01b815291166004820152fd5b8351634973d8d560e11b8152600490fd5b9061175e614d0c8893614b90565b92516301b1064f60e11b815260ff92831660048201529190921660248201529081906044820190565b865163249d777160e21b8152600490fd5b614d5e915060203d8111613245576132378183613cae565b38614c8d565b88513d6000823e3d90fd5b505050505050565b908015159081614dd7575b50614dd15761016f549060005b828110614d9e57505050600090565b614da781613b61565b905461ffff908185169260031b1c1614614dc957614dc49061492a565b614d8f565b505050600190565b50600190565b905060005261016e602052604060002061ffff821660005260205260ff6040600020541638614d82565b919082039182116112da57565b60405163a9059cbb60e01b60208201526001600160a01b03909216602483015260448083019390935291815260808101916001600160401b038311828410176105f757613da392604052614a9f565b8054908115614e875760001991820191614e778383613b49565b909182549160031b1b1916905555565b634e487b7160e01b600052603160045260246000fd5b600091825b825480821015614f24578290614eb88386613b49565b929054600393841b1c14614ed6575050614ed19061492a565b614ea2565b9193949092506000198201918211614f10575091612b64614f0b92614eff8695613da397613b49565b9054911b1c9184613b49565b614e5d565b634e487b7160e01b81526011600452602490fd5b5050505050565b8054614f345750565b9060005b825460001981019081116112da57811015614f9d5760018101908181116112da57614f93614f69614f989386613b49565b9054614f758488613b49565b91909260031b1c9082549060031b91821b91600019901b1916179055565b61492a565b614f38565b5090613da390614e5d565b61016f9081549060005b82811061502b5750600160401b8210156105f75761501881614ffd847f52447c0c1f6e76aceccd86733d7b9b1efa3fccde0f25070f3ca6193d0e3ba09c966001604097019055613b61565b90919082549060031b9161ffff809116831b921b1916179055565b61ffff82519116815260016020820152a1565b61503481613b61565b905461ffff908185169260031b1c1614615056576150519061492a565b614fb2565b50505050565b61016f9081549060005b8281106150735750505050565b61507c81613b61565b905461ffff8481169260039290831b1c811683146150a5575050506150a09061492a565b615066565b60001996929591945091928682019182116112da57614ffd836150ca6150d794613b61565b905490881b1c1691613b61565b8154948515614e87577f52447c0c1f6e76aceccd86733d7b9b1efa3fccde0f25070f3ca6193d0e3ba09c95019261510d84613b61565b81939154921b1b1916905555604090815190815260006020820152a1565b6040519061513882613c40565b816101206000918281528260208201528260408201528260608201528260808201528260a08201528260c08201528260e0820152826101008201520152565b80518210156117e95760209160051b010190565b6001600160401b0381116105f75760051b60200190565b906151ac8261518b565b6151b96040519182613cae565b82815280926151ca601f199161518b565b019060005b8281106151db57505050565b6020906151e661512b565b828285010152016151cf56fe2f8788117e7eff1d82e926ec794901d17c78024a50270940304540a733656f0d360894a13ba1a3210667c828492db98dca3e2076cc3735a920a3ca505d382bbca264697066735822122014dd83bcad71217bfb27885dc9db56d8e0777e4a90285c569034cc216007b2ec64736f6c63430008140033",
  "linkReferences": {},
  "deployedLinkReferences": {}
}