{
  "_format": "hh-sol-artifact-1",
  "contractName": "DividendDistributor",
  "sourceName": "contracts/core/DividendDistributor.sol",
  "abi": [
    {
      "inputs": [],
      "name": "AlreadyClaimed",
      "type": "error"
    },
    {
      "inputs": [],
      "name": "AlreadyReclaimed",
      "type": "error"
    },
    {
      "inputs": [],
      "name": "BatchTooLarge",
      "type": "error"
    },
    {
      "inputs": [],
      "name": "DistributionCancelled_Error",
      "type": "error"
    },
    {
      "inputs": [],
      "name": "DistributionExpired",
      "type": "error"
    },
    {
      "inputs": [],
      "name": "DistributionNotExpired",
      "type": "error"
    },
    {
      "inputs": [],
      "name": "FeeTooHigh",
      "type": "error"
    },
    {
      "inputs": [],
      "name": "InvalidAddress",
      "type": "error"
    },
    {
      "inputs": [],
      "name": "InvalidAmount",
      "type": "error"
    },
    {
      "inputs": [],
      "name": "InvalidDistribution",
      "type": "error"
    },
    {
      "inputs": [],
      "name": "NoBalance",
      "type": "error"
    },
    {
      "inputs": [],
      "name": "SnapshotTooRecent",
      "type": "error"
    },
    {
      "anonymous": false,
      "inputs": [
        {
          "indexed": false,
          "internalType": "address",
          "name": "previousAdmin",
          "type": "address"
        },
        {
          "indexed": false,
          "internalType": "address",
          "name": "newAdmin",
          "type": "address"
        }
      ],
      "name": "AdminChanged",
      "type": "event"
    },
    {
      "anonymous": false,
      "inputs": [
        {
          "indexed": true,
          "internalType": "address",
          "name": "beacon",
          "type": "address"
        }
      ],
      "name": "BeaconUpgraded",
      "type": "event"
    },
    {
      "anonymous": false,
      "inputs": [
        {
          "indexed": true,
          "internalType": "uint256",
          "name": "distributionId",
          "type": "uint256"
        }
      ],
      "name": "DistributionCancelled",
      "type": "event"
    },
    {
      "anonymous": false,
      "inputs": [
        {
          "indexed": true,
          "internalType": "uint256",
          "name": "distributionId",
          "type": "uint256"
        },
        {
          "indexed": false,
          "internalType": "uint256",
          "name": "snapshotId",
          "type": "uint256"
        },
        {
          "indexed": false,
          "internalType": "address",
          "name": "paymentToken",
          "type": "address"
        },
        {
          "indexed": false,
          "internalType": "uint256",
          "name": "totalAmount",
          "type": "uint256"
        },
        {
          "indexed": false,
          "internalType": "uint256",
          "name": "expiresAt",
          "type": "uint256"
        }
      ],
      "name": "DistributionCreated",
      "type": "event"
    },
    {
      "anonymous": false,
      "inputs": [
        {
          "indexed": true,
          "internalType": "uint256",
          "name": "distributionId",
          "type": "uint256"
        },
        {
          "indexed": true,
          "internalType": "address",
          "name": "investor",
          "type": "address"
        },
        {
          "indexed": false,
          "internalType": "uint256",
          "name": "amount",
          "type": "uint256"
        },
        {
          "indexed": false,
          "internalType": "uint256",
          "name": "fee",
          "type": "uint256"
        }
      ],
      "name": "DividendClaimed",
      "type": "event"
    },
    {
      "anonymous": false,
      "inputs": [
        {
          "indexed": true,
          "internalType": "address",
          "name": "oldRecipient",
          "type": "address"
        },
        {
          "indexed": true,
          "internalType": "address",
          "name": "newRecipient",
          "type": "address"
        }
      ],
      "name": "FeeRecipientUpdated",
      "type": "event"
    },
    {
      "anonymous": false,
      "inputs": [
        {
          "indexed": false,
          "internalType": "uint256",
          "name": "oldFee",
          "type": "uint256"
        },
        {
          "indexed": false,
          "internalType": "uint256",
          "name": "newFee",
          "type": "uint256"
        }
      ],
      "name": "FeeUpdated",
      "type": "event"
    },
    {
      "anonymous": false,
      "inputs": [
        {
          "indexed": false,
          "internalType": "uint8",
          "name": "version",
          "type": "uint8"
        }
      ],
      "name": "Initialized",
      "type": "event"
    },
    {
      "anonymous": false,
      "inputs": [
        {
          "indexed": false,
          "internalType": "address",
          "name": "account",
          "type": "address"
        }
      ],
      "name": "Paused",
      "type": "event"
    },
    {
      "anonymous": false,
      "inputs": [
        {
          "indexed": true,
          "internalType": "bytes32",
          "name": "role",
          "type": "bytes32"
        },
        {
          "indexed": true,
          "internalType": "bytes32",
          "name": "previousAdminRole",
          "type": "bytes32"
        },
        {
          "indexed": true,
          "internalType": "bytes32",
          "name": "newAdminRole",
          "type": "bytes32"
        }
      ],
      "name": "RoleAdminChanged",
      "type": "event"
    },
    {
      "anonymous": false,
      "inputs": [
        {
          "indexed": true,
          "internalType": "bytes32",
          "name": "role",
          "type": "bytes32"
        },
        {
          "indexed": true,
          "internalType": "address",
          "name": "account",
          "type": "address"
        },
        {
          "indexed": true,
          "internalType": "address",
          "name": "sender",
          "type": "address"
        }
      ],
      "name": "RoleGranted",
      "type": "event"
    },
    {
      "anonymous": false,
      "inputs": [
        {
          "indexed": true,
          "internalType": "bytes32",
          "name": "role",
          "type": "bytes32"
        },
        {
          "indexed": true,
          "internalType": "address",
          "name": "account",
          "type": "address"
        },
        {
          "indexed": true,
          "internalType": "address",
          "name": "sender",
          "type": "address"
        }
      ],
      "name": "RoleRevoked",
      "type": "event"
    },
    {
      "anonymous": false,
      "inputs": [
        {
          "indexed": true,
          "internalType": "address",
          "name": "oldToken",
          "type": "address"
        },
        {
          "indexed": true,
          "internalType": "address",
          "name": "newToken",
          "type": "address"
        }
      ],
      "name": "SecurityTokenUpdated",
      "type": "event"
    },
    {
      "anonymous": false,
      "inputs": [
        {
          "indexed": true,
          "internalType": "uint256",
          "name": "distributionId",
          "type": "uint256"
        },
        {
          "indexed": false,
          "internalType": "uint256",
          "name": "amount",
          "type": "uint256"
        }
      ],
      "name": "UnclaimedReclaimed",
      "type": "event"
    },
    {
      "anonymous": false,
      "inputs": [
        {
          "indexed": false,
          "internalType": "address",
          "name": "account",
          "type": "address"
        }
      ],
      "name": "Unpaused",
      "type": "event"
    },
    {
      "anonymous": false,
      "inputs": [
        {
          "indexed": true,
          "internalType": "address",
          "name": "implementation",
          "type": "address"
        }
      ],
      "name": "Upgraded",
      "type": "event"
    },
    {
      "inputs": [],
      "name": "DEFAULT_ADMIN_ROLE",
      "outputs": [
        {
          "internalType": "bytes32",
          "name": "",
          "type": "bytes32"
        }
      ],
      "stateMutability": "view",
      "type": "function"
    },
    {
      "inputs": [],
      "name": "DISTRIBUTOR_ROLE",
      "outputs": [
        {
          "internalType": "bytes32",
          "name": "",
          "type": "bytes32"
        }
      ],
      "stateMutability": "view",
      "type": "function"
    },
    {
      "inputs": [
        {
          "internalType": "uint256[]",
          "name": "_distributionIds",
          "type": "uint256[]"
        }
      ],
      "name": "batchClaimDividends",
      "outputs": [],
      "stateMutability": "nonpayable",
      "type": "function"
    },
    {
      "inputs": [
        {
          "internalType": "uint256",
          "name": "_distributionId",
          "type": "uint256"
        }
      ],
      "name": "cancelDistribution",
      "outputs": [],
      "stateMutability": "nonpayable",
      "type": "function"
    },
    {
      "inputs": [
        {
          "internalType": "uint256",
          "name": "_distributionId",
          "type": "uint256"
        }
      ],
      "name": "claimDividend",
      "outputs": [],
      "stateMutability": "nonpayable",
      "type": "function"
    },
    {
      "inputs": [
        {
          "internalType": "uint256",
          "name": "",
          "type": "uint256"
        },
        {
          "internalType": "address",
          "name": "",
          "type": "address"
        }
      ],
      "name": "claimedAmounts",
      "outputs": [
        {
          "internalType": "uint256",
          "name": "",
          "type": "uint256"
        }
      ],
      "stateMutability": "view",
      "type": "function"
    },
    {
      "inputs": [
        {
          "internalType": "address",
          "name": "_paymentToken",
          "type": "address"
        },
        {
          "internalType": "uint256",
          "name": "_amount",
          "type": "uint256"
        },
        {
          "internalType": "string",
          "name": "_description",
          "type": "string"
        }
      ],
      "name": "createDistribution",
      "outputs": [
        {
          "internalType": "uint256",
          "name": "",
          "type": "uint256"
        }
      ],
      "stateMutability": "nonpayable",
      "type": "function"
    },
    {
      "inputs": [
        {
          "internalType": "address",
          "name": "_paymentToken",
          "type": "address"
        },
        {
          "internalType": "uint256",
          "name": "_amount",
          "type": "uint256"
        },
        {
          "internalType": "string",
          "name": "_description",
          "type": "string"
        }
      ],
      "name": "createDistributionWithSnapshot",
      "outputs": [
        {
          "internalType": "uint256",
          "name": "distributionId",
          "type": "uint256"
        },
        {
          "internalType": "uint256",
          "name": "snapshotId",
          "type": "uint256"
        }
      ],
      "stateMutability": "nonpayable",
      "type": "function"
    },
    {
      "inputs": [
        {
          "internalType": "uint256",
          "name": "",
          "type": "uint256"
        }
      ],
      "name": "distributions",
      "outputs": [
        {
          "internalType": "uint256",
          "name": "snapshotId",
          "type": "uint256"
        },
        {
          "internalType": "uint256",
          "name": "snapshotBlock",
          "type": "uint256"
        },
        {
          "internalType": "address",
          "name": "paymentToken",
          "type": "address"
        },
        {
          "internalType": "uint256",
          "name": "totalAmount",
          "type": "uint256"
        },
        {
          "internalType": "uint256",
          "name": "claimedAmount",
          "type": "uint256"
        },
        {
          "internalType": "uint256",
          "name": "createdAt",
          "type": "uint256"
        },
        {
          "internalType": "uint256",
          "name": "expiresAt",
          "type": "uint256"
        },
        {
          "internalType": "bool",
          "name": "reclaimed",
          "type": "bool"
        },
        {
          "internalType": "string",
          "name": "description",
          "type": "string"
        }
      ],
      "stateMutability": "view",
      "type": "function"
    },
    {
      "inputs": [],
      "name": "dividendFeeBps",
      "outputs": [
        {
          "internalType": "uint256",
          "name": "",
          "type": "uint256"
        }
      ],
      "stateMutability": "view",
      "type": "function"
    },
    {
      "inputs": [],
      "name": "feeRecipient",
      "outputs": [
        {
          "internalType": "address",
          "name": "",
          "type": "address"
        }
      ],
      "stateMutability": "view",
      "type": "function"
    },
    {
      "inputs": [],
      "name": "getActiveDistributions",
      "outputs": [
        {
          "internalType": "uint256[]",
          "name": "",
          "type": "uint256[]"
        }
      ],
      "stateMutability": "view",
      "type": "function"
    },
    {
      "inputs": [
        {
          "internalType": "uint256",
          "name": "_distributionId",
          "type": "uint256"
        },
        {
          "internalType": "address",
          "name": "_investor",
          "type": "address"
        }
      ],
      "name": "getClaimableAmount",
      "outputs": [
        {
          "internalType": "uint256",
          "name": "",
          "type": "uint256"
        }
      ],
      "stateMutability": "view",
      "type": "function"
    },
    {
      "inputs": [
        {
          "internalType": "uint256",
          "name": "_distributionId",
          "type": "uint256"
        }
      ],
      "name": "getDistribution",
      "outputs": [
        {
          "components": [
            {
              "internalType": "uint256",
              "name": "snapshotId",
              "type": "uint256"
            },
            {
              "internalType": "uint256",
              "name": "snapshotBlock",
              "type": "uint256"
            },
            {
              "internalType": "address",
              "name": "paymentToken",
              "type": "address"
            },
            {
              "internalType": "uint256",
              "name": "totalAmount",
              "type": "uint256"
            },
            {
              "internalType": "uint256",
              "name": "claimedAmount",
              "type": "uint256"
            },
            {
              "internalType": "uint256",
              "name": "createdAt",
              "type": "uint256"
            },
            {
              "internalType": "uint256",
              "name": "expiresAt",
              "type": "uint256"
            },
            {
              "internalType": "bool",
              "name": "reclaimed",
              "type": "bool"
            },
            {
              "internalType": "string",
              "name": "description",
              "type": "string"
            }
          ],
          "internalType": "struct DividendDistributor.Distribution",
          "name": "",
          "type": "tuple"
        }
      ],
      "stateMutability": "view",
      "type": "function"
    },
    {
      "inputs": [],
      "name": "getDistributionCount",
      "outputs": [
        {
          "internalType": "uint256",
          "name": "",
          "type": "uint256"
        }
      ],
      "stateMutability": "view",
      "type": "function"
    },
    {
      "inputs": [
        {
          "internalType": "address",
          "name": "_investor",
          "type": "address"
        }
      ],
      "name": "getInvestorClaimableDistributions",
      "outputs": [
        {
          "internalType": "uint256[]",
          "name": "",
          "type": "uint256[]"
        }
      ],
      "stateMutability": "view",
      "type": "function"
    },
    {
      "inputs": [
        {
          "internalType": "bytes32",
          "name": "role",
          "type": "bytes32"
        }
      ],
      "name": "getRoleAdmin",
      "outputs": [
        {
          "internalType": "bytes32",
          "name": "",
          "type": "bytes32"
        }
      ],
      "stateMutability": "view",
      "type": "function"
    },
    {
      "inputs": [
        {
          "internalType": "bytes32",
          "name": "role",
          "type": "bytes32"
        },
        {
          "internalType": "address",
          "name": "account",
          "type": "address"
        }
      ],
      "name": "grantRole",
      "outputs": [],
      "stateMutability": "nonpayable",
      "type": "function"
    },
    {
      "inputs": [
        {
          "internalType": "uint256",
          "name": "",
          "type": "uint256"
        },
        {
          "internalType": "address",
          "name": "",
          "type": "address"
        }
      ],
      "name": "hasClaimed",
      "outputs": [
        {
          "internalType": "bool",
          "name": "",
          "type": "bool"
        }
      ],
      "stateMutability": "view",
      "type": "function"
    },
    {
      "inputs": [
        {
          "internalType": "bytes32",
          "name": "role",
          "type": "bytes32"
        },
        {
          "internalType": "address",
          "name": "account",
          "type": "address"
        }
      ],
      "name": "hasRole",
      "outputs": [
        {
          "internalType": "bool",
          "name": "",
          "type": "bool"
        }
      ],
      "stateMutability": "view",
      "type": "function"
    },
    {
      "inputs": [
        {
          "internalType": "address",
          "name": "_securityToken",
          "type": "address"
        },
        {
          "internalType": "address",
          "name": "_admin",
          "type": "address"
        },
        {
          "internalType": "address",
          "name": "_feeRecipient",
          "type": "address"
        }
      ],
      "name": "initialize",
      "outputs": [],
      "stateMutability": "nonpayable",
      "type": "function"
    },
    {
      "inputs": [],
      "name": "pause",
      "outputs": [],
      "stateMutability": "nonpayable",
      "type": "function"
    },
    {
      "inputs": [],
      "name": "paused",
      "outputs": [
        {
          "internalType": "bool",
          "name": "",
          "type": "bool"
        }
      ],
      "stateMutability": "view",
      "type": "function"
    },
    {
      "inputs": [],
      "name": "proxiableUUID",
      "outputs": [
        {
          "internalType": "bytes32",
          "name": "",
          "type": "bytes32"
        }
      ],
      "stateMutability": "view",
      "type": "function"
    },
    {
      "inputs": [
        {
          "internalType": "uint256",
          "name": "_distributionId",
          "type": "uint256"
        }
      ],
      "name": "reclaimUnclaimed",
      "outputs": [],
      "stateMutability": "nonpayable",
      "type": "function"
    },
    {
      "inputs": [
        {
          "internalType": "bytes32",
          "name": "role",
          "type": "bytes32"
        },
        {
          "internalType": "address",
          "name": "account",
          "type": "address"
        }
      ],
      "name": "renounceRole",
      "outputs": [],
      "stateMutability": "nonpayable",
      "type": "function"
    },
    {
      "inputs": [
        {
          "internalType": "bytes32",
          "name": "role",
          "type": "bytes32"
        },
        {
          "internalType": "address",
          "name": "account",
          "type": "address"
        }
      ],
      "name": "revokeRole",
      "outputs": [],
      "stateMutability": "nonpayable",
      "type": "function"
    },
    {
      "inputs": [],
      "name": "securityToken",
      "outputs": [
        {
          "internalType": "contract IRWASecurityToken",
          "name": "",
          "type": "address"
        }
      ],
      "stateMutability": "view",
      "type": "function"
    },
    {
      "inputs": [
        {
          "internalType": "uint256",
          "name": "_feeBps",
          "type": "uint256"
        }
      ],
      "name": "setDividendFee",
      "outputs": [],
      "stateMutability": "nonpayable",
      "type": "function"
    },
    {
      "inputs": [
        {
          "internalType": "address",
          "name": "_feeRecipient",
          "type": "address"
        }
      ],
      "name": "setFeeRecipient",
      "outputs": [],
      "stateMutability": "nonpayable",
      "type": "function"
    },
    {
      "inputs": [
        {
          "internalType": "address",
          "name": "_securityToken",
          "type": "address"
        }
      ],
      "name": "setSecurityToken",
      "outputs": [],
      "stateMutability": "nonpayable",
      "type": "function"
    },
    {
      "inputs": [
        {
          "internalType": "bytes4",
          "name": "interfaceId",
          "type": "bytes4"
        }
      ],
      "name": "supportsInterface",
      "outputs": [
        {
          "internalType": "bool",
          "name": "",
          "type": "bool"
        }
      ],
      "stateMutability": "view",
      "type": "function"
    },
    {
      "inputs": [],
      "name": "unpause",
      "outputs": [],
      "stateMutability": "nonpayable",
      "type": "function"
    },
    {
      "inputs": [
        {
          "internalType": "address",
          "name": "newImplementation",
          "type": "address"
        }
      ],
      "name": "upgradeTo",
      "outputs": [],
      "stateMutability": "nonpayable",
      "type": "function"
    },
    {
      "inputs": [
        {
          "internalType": "address",
          "name": "newImplementation",
          "type": "address"
        },
        {
          "internalType": "bytes",
          "name": "data",
          "type": "bytes"
        }
      ],
      "name": "upgradeToAndCall",
      "outputs": [],
      "stateMutability": "payable",
      "type": "function"
    }
  ],
  "bytecode": "0x60a0806040523461003157306080526134839081610037823960805181818161116a0152818161126701526117d50152f35b600080fdfe608060408181526004918236101561001657600080fd5b60009260e08435811c92836301ffc9a7146122035750826303a5f8f4146121e257826303c1c727146120ee57826310558ebf14611e7457826317418a2214611d785782631c8f9e7714611bc4578263248a9ca314611b985782632f2ff15d14611aea57826336568abe14611a585782633659cfe6146117ad5782633b345a87146116565782633f4ba83a146115bf57826342c916051461159e5782634487d3df146114ed57826346904840146114c25782634f1ef2861461121757826352d1902d146111545782635c177608146110855782635c975abb14611060578263640bdd7014610fef57826378c5195e14610fbc5782638456cb5914610f60578263873f6f9e14610f1757826389f64bd014610ed357826391d1485414610e8b5782639920f9c214610e155782639abd357214610b53578263a217fddf14610b37578263b84dfbd214610b0c578263baf148ff146107cb578263c0c53b8b146104ea578263c6028e82146102aa57508163d547741f1461026b578163e74b981b146101e5575063f0bd87cc146101a857600080fd5b346101e157816003193601126101e157602090517ffbd454f36a7e1a388bd6fc3ab10d434aa4578f811acbbcf33afb1c697486313c8152f35b5080fd5b90503461026757602036600319011261026757610200612257565b90610209612794565b6001600160a01b0391821692831561025a57505061016380546001600160a01b031981168417909155167faaebcf1bfa00580e41d966056b48521fa9f202645c86d4ddf28113e617c1b1d38380a380f35b5163e6c4247b60e01b8152fd5b8280fd5b919050346102675780600319360112610267576102a791356102a26001610290612272565b9383875260c9602052862001546128b8565b6129c3565b80f35b929150346104e6576102bb366122c3565b929391906102c7613007565b6102cf612579565b6102d7612fc3565b6001600160a01b03858116949085156104d65783156104c65761015f5416988751988996632a1cd6c360e11b88528b888860209d8e935afa97881561047d578398610497575b508715610487578a60249b9c8b519c8d80926302c885eb60e31b82528c8c8301525afa9a8b1561047d57839b61044e575b50438b101561043e576103638630338461305e565b610160549a6301e1338042019788421161042b575061041c958c9a98958a98958f957f11d0761b0fcb1809080f95c01e894ca4d9e75e55d9a5f99365c07a02cdb3f75e9c958f6103e7966103f2998251996103bd8b6123f8565b8a528901528701528760608701528160808701524260a08701528860c08701528501523691612542565b610100820152612df9565b875194859485909493926060926080830196835260018060a01b0316602083015260408201520152565b0390a2600161012d5551908152f35b634e487b7160e01b855260119052602484fd5b89516348177ac760e01b81528790fd5b909a508b81813d8311610476575b6104668183612460565b810103126102675751993861034e565b503d61045c565b8a513d85823e3d90fd5b8951630d16b83360e31b81528790fd5b9097508a81813d83116104bf575b6104af8183612460565b810103126102675751963861031d565b503d6104a5565b875163162908e360e11b81528590fd5b875163e6c4247b60e01b81528590fd5b8380fd5b5090503461026757606036600319011261026757610506612257565b61050e612272565b6001600160a01b03929060443584811691908290036107c75786549060ff91828160081c1615958680976107bb575b80156107a5575b1561074b57879060ff1992886001858316178d5561073a575b50169485158015610730575b8015610728575b61071a57506105b9838a5460081c1661058881612d99565b61059181612d99565b61059a81612d99565b6105a381612d99565b8260fb541660fb556105b481612d99565b612d99565b600161012d5588805260209660c98852888a20921691828a52875282888a205416156106d3575b7ffbd454f36a7e1a388bd6fc3ab10d434aa4578f811acbbcf33afb1c697486313c92838a5260c98852888a20838b528852888a2054161561068a575b5050506bffffffffffffffffffffffff60a01b9161015f908382541617905561016391825416179055606461016455610653578280f35b7f7f26b83ff96e1f2b6a682f133852f6798a09c465da95921460cefb38474024989161ff001984541684555160018152a138808280f35b82895260c98752878920828a5287526001888a209182541617905533917f2f8788117e7eff1d82e926ec794901d17c78024a50270940304540a733656f0d8980a438808061061c565b88805260c98752878920828a52875287892060018282541617905533828a7f2f8788117e7eff1d82e926ec794901d17c78024a50270940304540a733656f0d8180a46105e0565b885163e6c4247b60e01b8152fd5b508415610570565b5087831615610569565b61ffff1916610101178b553861055d565b885162461bcd60e51b8152602081880152602e60248201527f496e697469616c697a61626c653a20636f6e747261637420697320616c72656160448201526d191e481a5b9a5d1a585b1a5e995960921b6064820152608490fd5b50303b1580156105445750600184831614610544565b5060018483161061053d565b8680fd5b84828534610267576020806003193601126104e6578235906001600160401b0392838311610b085736602384011215610b085782850135938411610b085760249236848660051b830101116107c757610822613007565b61082a612fc3565b60328511610af857865b8581106108455787600161012d5580f35b848160051b830101359061016054821015610aee576108638261236c565b509160ff9081600785015416610ae25760068401544211610ae257808b5261016191828852868c20338d528852868c205416610ae25761015f548454875163277166bf60e11b815233818e01908152602081018390526001600160a01b03938416978f9490939092918c908390819060400103818c5afa918215610ad857908f8e908e938895610a9e575b508415610a8a578d519b8c938492630981b24d60e41b84528301525afa978815610a8057918e8c949286948d979b610a43575b50610a029a61093761093c926003870154612c54565b6131b3565b908115610a3557879461016454966127106109578986612c54565b0497600190818a109081610a2b575b50610a23575b986109bb939285928a9b6109836109cf9c866131d3565b9e8f9b8452825283832033845282528383209060ff198254161790558c82526101628152828220903383525220558401918254612c7d565b905584610a07575b600233920154166131e0565b8651928352878301527f61dcf32f3d62fa2764a2ba98a47c28c828034b7e5a6454dc6d796c10192d1c26863393a3613221565b610834565b610a1e8582600285015416836101635416906131e0565b6109c3565b97508761096c565b9050151538610966565b505050505050505050613221565b95929a5095505083813d8311610a79575b610a5e8183612460565b810103126101e15791519689938b9391908f9061093c610921565b503d610a54565b8a513d86823e3d90fd5b50505050505050505050610a029150613221565b93929450505081813d8311610ad1575b610ab88183612460565b81010312610acd578e918d8d925193386108ee565b8480fd5b503d610aae565b8b513d87823e3d90fd5b5050610a029150613221565b610a029150613221565b81516305beb17160e11b81528690fd5b8580fd5b505050346101e157816003193601126101e15761015f5490516001600160a01b039091168152602090f35b505050346101e157816003193601126101e15751908152602090f35b8482853461026757602091826003193601126104e657803591610b74613007565b610b7c612fc3565b61016054831015610e0857610b908361236c565b509160ff600784015416610dfa5760068301544211610dec5783865261016194858152828720338852815260ff8388205416610ddd5761015f548454845163277166bf60e11b815233858201908152602081018390526001600160a01b0393841692908590839081906040010381865afa918215610dd3578b92610da0575b508115610d905784906024885180958193630981b24d60e41b83528a8301525afa918215610d86578a92610d51575b5090610937610c51926003890154612c54565b8015610d41576101645493612710610c698684612c54565b0494600186109081610d37575b50610d2e575b610c8685836131d3565b98888b528452858a20338b528452858a2060ff198154166001179055878a526101628452858a20338b52845281868b2055860190815490610cc691612c7d565b90558683151595610d03927f61dcf32f3d62fa2764a2ba98a47c28c828034b7e5a6454dc6d796c10192d1c2697610d1757600233920154166131e0565b82519586528501523393a3600161012d5580f35b610a1e8682600285015416836101635416906131e0565b60019450610c7c565b905015158b610c76565b845163162908e360e11b81528490fd5b91508382813d8311610d7f575b610d688183612460565b81010312610d7b57905190610937610c3e565b8980fd5b503d610d5e565b86513d8c823e3d90fd5b8651636165515360e11b81528690fd5b9091508481813d8311610dcc575b610db88183612460565b81010312610dc85751908b610c0f565b8a80fd5b503d610dae565b87513d8d823e3d90fd5b509051630c8d9eab60e31b8152fd5b905163931d311760e01b8152fd5b90516301d70c3760e51b8152fd5b51630d16b83360e31b8152fd5b5090503461026757602036600319011261026757610e31612257565b90610e3a612794565b6001600160a01b0391821692831561025a57505061015f80546001600160a01b031981168417909155167f121af75e8446566fa9fc13c32bbb5f71f8e254f34d9cd5b142df1853124f83f78380a380f35b509050346102675781600319360112610267578160209360ff92610ead612272565b9035825260c986528282206001600160a01b039091168252855220549151911615158152f35b509050346102675781600319360112610267576020928291610ef3612272565b9035825261016285528282206001600160a01b039091168252845220549051908152f35b509050346102675781600319360112610267578160209360ff92610f39612272565b9035825261016186528282206001600160a01b039091168252855220549151911615158152f35b505050346101e157816003193601126101e15760207f62e78cea01bee320cd4e420270b5ea74000d11b0c9f74754ebdbfc544b05a25891610f9f612794565b610fa7612fc3565b600160ff1960fb54161760fb5551338152a180f35b50828434610fec5781600319360112610fec5750610fe5602092610fde612272565b9035613230565b9051908152f35b80fd5b509050346102675760203660031901126102675780359061100e612794565b6103e882116110525750907f528d9479e9f9889a87a3c30c7f7ba537e5e59c4c85a37733b16e57c62df613029161016490808254925582519182526020820152a180f35b825163cd4e616760e01b8152fd5b505050346101e157816003193601126101e15760209060ff60fb541690519015158152f35b50905034610267576020366003190112610267578035916110a4613007565b6110ac612794565b61016054831015610e08576110c08361236c565b5091600783019081549260ff841661114757506110e8600191600386015490860154906131d3565b9260ff191617905580611125575b50507f301b79d5a6d67c8b210ac38661dbc6a6018558ec5b10dd5dab04ff3c98f4d0188280a2600161012d5580f35b600290910154611140919033906001600160a01b03166131e0565b38806110f6565b516357ef322b60e01b8152fd5b83828634610fec5780600319360112610fec57507f00000000000000000000000000000000000000000000000000000000000000006001600160a01b031630036111af576020825160008051602061342e8339815191528152f35b6020608492519162461bcd60e51b8352820152603860248201527f555550535570677261646561626c653a206d757374206e6f742062652063616c60448201527f6c6564207468726f7567682064656c656761746563616c6c00000000000000006064820152fd5b848285806003193601126102675761122d612257565b906024356001600160401b038111610acd5736602382011215610acd5761125d9036906024818701359101612542565b6001600160a01b037f0000000000000000000000000000000000000000000000000000000000000000811692919061129730851415612a39565b6112b460008051602061342e833981519152948286541614612a9a565b6112bc612794565b7f4910fdfa16fed3260ed0e7147f7cc6da11a60208b5b9406d12a635614ffd91435460ff16156112f457505050506102a79150612afb565b8491929394168351946352d1902d60e01b865260209586818981865afa899181611493575b5061137857855162461bcd60e51b8152808901889052602e60248201527f45524331393637557067726164653a206e657720696d706c656d656e7461746960448201526d6f6e206973206e6f74205555505360901b6064820152608490fd5b969192949593960361143e575090859161139184612afb565b7fbc7cd75a20ee27fd9adebab32041f755214dbc6bffa90cc0225b39da2e5c2d3b8380a2845115801590611436575b6113cd575b505050505080f35b61142b948291660819985a5b195960ca1b8651966113ea8861242a565b602788527f416464726573733a206c6f772d6c6576656c2064656c65676174652063616c6c8389015287015281519101845af4611425612b8b565b91612bbb565b5081808083816113c5565b5060016113c0565b845162461bcd60e51b8152908101839052602960248201527f45524331393637557067726164653a20756e737570706f727465642070726f786044820152681a58589b195555525160ba1b6064820152608490fd5b9091508781813d83116114bb575b6114ab8183612460565b81010312610d7b5751908a611319565b503d6114a1565b505050346101e157816003193601126101e1576101635490516001600160a01b039091168152602090f35b838534610fec576020366003190112610fec5783359061016054821015610fec57509061151c61159a9261236c565b509283549360018101549560018060a01b036002830154169060038301549083015460058401549160068501549361155e600860ff6007890154169701612481565b9780519b8c9b8c5260208c01528a01526060890152608088015260a087015260c086015215159084015261012080610100850152830190612347565b0390f35b505050346101e157816003193601126101e157602090610160549051908152f35b509050346102675782600319360112610267576115da612794565b60fb549060ff82161561161c575060ff191660fb55513381527f5db9ee0a495bf2e6ff9c91a7834c1ba4fdd244a5e8aa4e537bd38aeae4b073aa90602090a180f35b606490602084519162461bcd60e51b8352820152601460248201527314185d5cd8589b194e881b9bdd081c185d5cd95960621b6044820152fd5b939150346101e15760203660031901126101e1578035835192611678846123f8565b80845280602085015280858501528060608501528060808501528060a08501528060c0850152858401526060610100809401526101605481101561179e5791602093916116c761159a9461236c565b509583518097819582946116da846123f8565b825484526001830154918a850192835260018060a01b039081600286015416908087019182526003860154936060880194855286015494608088019586528a61174e600860058a01549960a08c019a8b5260c060068201549c019b8c528c60ff6007830154169e01809e1515905201612481565b9c019b8c5281519e8f9e8f918183525191015251908d0152511660608b01525160808a01525160a08901525160c08801525190860152511515908401525161012080840152610140830190612347565b508251630d16b83360e31b8152fd5b84828534610267576020806003193601126104e6576117ca612257565b916001600160a01b037f000000000000000000000000000000000000000000000000000000000000000081169061180330831415612a39565b61182060008051602061342e833981519152928284541614612a9a565b611828612794565b825191848301918383106001600160401b03841117611a45578285528884527f4910fdfa16fed3260ed0e7147f7cc6da11a60208b5b9406d12a635614ffd91435460ff1615611881575050505050506102a79150612afb565b8693949596169085516352d1902d60e01b815287818a81865afa8a9181611a16575b5061190257865162461bcd60e51b8152808a01899052602e60248201527f45524331393637557067726164653a206e657720696d706c656d656e7461746960448201526d6f6e206973206e6f74205555505360901b6064820152608490fd5b97919293959497036119c157509086929161191c85612afb565b7fbc7cd75a20ee27fd9adebab32041f755214dbc6bffa90cc0225b39da2e5c2d3b8480a28551158015906119ba575b611959575b50505050505080f35b6119ae95660819985a5b195960ca1b837f416464726573733a206c6f772d6c6576656c2064656c65676174652063616c6c869551986119978a61242a565b60278a528901528701525190845af4611425612b8b565b50818080838180611950565b508261194b565b835162461bcd60e51b8152908101869052602960248201527f45524331393637557067726164653a20756e737570706f727465642070726f786044820152681a58589b195555525160ba1b6064820152608490fd5b9091508881813d8311611a3e575b611a2e8183612460565b81010312610dc85751908b6118a3565b503d611a24565b634e487b7160e01b895260418852602489fd5b838583346101e157826003193601126101e157611a73612272565b90336001600160a01b03831603611a8f57906102a791356129c3565b608490602085519162461bcd60e51b8352820152602f60248201527f416363657373436f6e74726f6c3a2063616e206f6e6c792072656e6f756e636560448201526e103937b632b9903337b91039b2b63360891b6064820152fd5b509050346102675781600319360112610267573590611b07612272565b9082845260c9602052611b1f600182862001546128b8565b82845260c960209081528185206001600160a01b039093168086529290528084205460ff1615611b4d578380f35b82845260c96020528084208285526020528320600160ff1982541617905533917f2f8788117e7eff1d82e926ec794901d17c78024a50270940304540a733656f0d8480a43880808380f35b50905034610267576020366003190112610267578160209360019235815260c985522001549051908152f35b9150919234610fec57611bd6366122c3565b9590611be3939293613007565b611beb612579565b611bf3612fc3565b6001600160a01b0383811697908815611d68578515611d5857869061015f5416978a5198634b88b8ad60e11b8a5289868160209b8c945af1988915611d4e578299611d1f575b50611c468730338d61305e565b61016054996301e13380420195864211611d0c57506103e77f11d0761b0fcb1809080f95c01e894ca4d9e75e55d9a5f99365c07a02cdb3f75e9795611cf9958d9a98958f958e95878f611cca995198611c9e8a6123f8565b895243908901528701528a60608701528160808701524260a08701528760c08701528501523691612542565b89518881526001600160a01b039093166020840152604083019390935260608201929092529081906080820190565b0390a2600161012d558351928352820152f35b634e487b7160e01b845260119052602483fd5b9098508781813d8311611d47575b611d378183612460565b810103126101e157519738611c39565b503d611d2d565b8b513d84823e3d90fd5b895163162908e360e11b81528490fd5b895163e6c4247b60e01b81528490fd5b838534610fec5780600319360112610fec57610160549181805b848110611e1d5750611da3906133e7565b91805b848110611dba5782518061159a8682612288565b60ff6007611dc78361236c565b500154161580611e06575b611de5575b611de090613221565b611da6565b90611dfe8183611df8611de09488613419565b52613221565b919050611dd7565b506006611e128261236c565b500154421115611dd2565b60ff6007611e2a8361236c565b500154161580611e5d575b611e48575b611e4390613221565b611d92565b90611e55611e4391613221565b919050611e3a565b506006611e698261236c565b500154421115611e35565b83828634610fec5760209081600319360112610fec57611e92612257565b9080926101605493825b858110611fdd5750611ead906133e7565b948293835b868110611ec65788518061159a8a82612288565b83611ed08261236c565b5060ff80600783015416159081611fce575b81611fa7575b50611efe575b5050611ef990613221565b611eb2565b61015f5490548b5163277166bf60e11b81526001600160a01b0386811688830190815260208101939093529093928492839003604001918391165afa908115611f9d578691611f70575b50611f55575b838a611eee565b94611f688187611df8611ef9948c613419565b959050611f4e565b90508481813d8311611f96575b611f878183612460565b81010312610b0857518a611f48565b503d611f7d565b8a513d88823e3d90fd5b84895261016184528c89206001600160a01b0387168a5284528c892054161590508c611ee8565b60068301544211159150611ee2565b82611fe78261236c565b5060ff806007830154161590816120df575b816120b8575b50612015575b505061201090613221565b611e9c565b61015f5490548a5163277166bf60e11b81526001600160a01b038981168c830190815260208101939093529093928492839003604001918391165afa9081156120ae578591612081575b5061206c575b8289612005565b9061207961201091613221565b919050612065565b90508381813d83116120a7575b6120988183612460565b81010312610acd57518961205f565b503d61208e565b89513d87823e3d90fd5b84885261016184528b88206001600160a01b038a16895284528b882054161590508b611fff565b60068301544211159150611ff9565b509050346102675760203660031901126102675780359161210d613007565b612115612579565b61016054831015610e08576121298361236c565b5060068101544211156121d45760078101805460ff81166121c457612156600384015486850154906131d3565b9485156121b6575060ff19166001179055600201547f645111cf835499be5cb7c96449b867cf56479b5ec00133fe9237634d5c0c73519260209290916121a890839033906001600160a01b03166131e0565b51908152a2600161012d5580f35b845163162908e360e11b8152fd5b505050516357ef322b60e01b8152fd5b5051631bf145a960e21b8152fd5b505050346101e157816003193601126101e157602090610164549051908152f35b85908334610267576020366003190112610267573563ffffffff60e01b81168091036102675760209250637965db0b60e01b8114908115612246575b5015158152f35b6301ffc9a760e01b1490508361223f565b600435906001600160a01b038216820361226d57565b600080fd5b602435906001600160a01b038216820361226d57565b6020908160408183019282815285518094520193019160005b8281106122af575050505090565b8351855293810193928101926001016122a1565b90606060031983011261226d576004356001600160a01b038116810361226d5791602435916044356001600160401b039283821161226d578060238301121561226d57816004013593841161226d576024848301011161226d576024019190565b60005b8381106123375750506000910152565b8181015183820152602001612327565b9060209161236081518092818552858086019101612324565b601f01601f1916010190565b6101609081548110156123a857600991600052027fec7e130cdeeae65215fabbcddb1de429e603c4887cc659532eda903e493396630190600090565b634e487b7160e01b600052603260045260246000fd5b90600182811c921680156123ee575b60208310146123d857565b634e487b7160e01b600052602260045260246000fd5b91607f16916123cd565b61012081019081106001600160401b0382111761241457604052565b634e487b7160e01b600052604160045260246000fd5b606081019081106001600160401b0382111761241457604052565b608081019081106001600160401b0382111761241457604052565b90601f801991011681019081106001600160401b0382111761241457604052565b9060405191826000825492612495846123be565b90818452600194858116908160001461250457506001146124c1575b50506124bf92500383612460565b565b9093915060005260209081600020936000915b8183106124ec5750506124bf935082010138806124b1565b855488840185015294850194879450918301916124d4565b9150506124bf94506020925060ff191682840152151560051b82010138806124b1565b6001600160401b03811161241457601f01601f191660200190565b92919261254e82612527565b9161255c6040519384612460565b82948184528183011161226d578281602093846000960137010152565b3360009081527fb6a7cc25b150db860a7b87ed64dfba6948e59ff212d0b24ee0b112af4eff9500602090815260408083205490927ffbd454f36a7e1a388bd6fc3ab10d434aa4578f811acbbcf33afb1c697486313c9160ff16156125dd5750505050565b6125e633612c9b565b918451906125f382612445565b6042825284820192606036853782511561278057603084538251906001918210156127805790607860218501536041915b818311612712575050506126d05760486126cc9386936126b0936126a1985198899376020b1b1b2b9b9a1b7b73a3937b61d1030b1b1b7bab73a1604d1b8a860152612678815180928c603789019101612324565b8401917001034b99036b4b9b9b4b733903937b6329607d1b603784015251809386840190612324565b01036028810187520185612460565b5192839262461bcd60e51b845260048401526024830190612347565b0390fd5b60648486519062461bcd60e51b825280600483015260248201527f537472696e67733a20686578206c656e67746820696e73756666696369656e746044820152fd5b909192600f8116601081101561276c576f181899199a1a9b1b9c1cb0b131b232b360811b901a6127428587612c8a565b5360041c92801561275857600019019190612624565b634e487b7160e01b82526011600452602482fd5b634e487b7160e01b83526032600452602483fd5b634e487b7160e01b81526032600452602490fd5b3360009081527f81fe90a866a48a634a12852c1be675b683a22307409932a7443b8029347be756602090815260408083205490929060ff16156127d657505050565b6127df33612c9b565b90808451906127ed82612445565b6042825284820192606036853782511561278057603084538251906001918210156127805790607860218501536041915b818311612872575050506126d05760486126cc9386936126b0936126a1985198899376020b1b1b2b9b9a1b7b73a3937b61d1030b1b1b7bab73a1604d1b8a860152612678815180928c603789019101612324565b909192600f8116601081101561276c576f181899199a1a9b1b9c1cb0b131b232b360811b901a6128a28587612c8a565b5360041c9280156127585760001901919061281e565b60009080825260209060c98252604092838120338252835260ff8482205416156128e25750505050565b6128eb33612c9b565b918451906128f882612445565b6042825284820192606036853782511561278057603084538251906001918210156127805790607860218501536041915b81831161297d575050506126d05760486126cc9386936126b0936126a1985198899376020b1b1b2b9b9a1b7b73a3937b61d1030b1b1b7bab73a1604d1b8a860152612678815180928c603789019101612324565b909192600f8116601081101561276c576f181899199a1a9b1b9c1cb0b131b232b360811b901a6129ad8587612c8a565b5360041c92801561275857600019019190612929565b9060009180835260c9602052604083209160018060a01b03169182845260205260ff6040842054166129f457505050565b80835260c9602052604083208284526020526040832060ff1981541690557ff6391f5c32d9c69d2a47ea670b442974b53935d1edc7fd64eb21e047a839171b339380a4565b15612a4057565b60405162461bcd60e51b815260206004820152602c60248201527f46756e6374696f6e206d7573742062652063616c6c6564207468726f7567682060448201526b19195b1959d85d1958d85b1b60a21b6064820152608490fd5b15612aa157565b60405162461bcd60e51b815260206004820152602c60248201527f46756e6374696f6e206d7573742062652063616c6c6564207468726f7567682060448201526b6163746976652070726f787960a01b6064820152608490fd5b803b15612b305760008051602061342e83398151915280546001600160a01b0319166001600160a01b03909216919091179055565b60405162461bcd60e51b815260206004820152602d60248201527f455243313936373a206e657720696d706c656d656e746174696f6e206973206e60448201526c1bdd08184818dbdb9d1c9858dd609a1b6064820152608490fd5b3d15612bb6573d90612b9c82612527565b91612baa6040519384612460565b82523d6000602084013e565b606090565b91929015612c1d5750815115612bcf575090565b3b15612bd85790565b60405162461bcd60e51b815260206004820152601d60248201527f416464726573733a2063616c6c20746f206e6f6e2d636f6e74726163740000006044820152606490fd5b825190915015612c305750805190602001fd5b60405162461bcd60e51b8152602060048201529081906126cc906024830190612347565b81810292918115918404141715612c6757565b634e487b7160e01b600052601160045260246000fd5b91908201809211612c6757565b9081518110156123a8570160200190565b60405190612ca88261242a565b602a82526020820160403682378251156123a8576030905381516001908110156123a857607860218401536029905b808211612d2b575050612ce75790565b606460405162461bcd60e51b815260206004820152602060248201527f537472696e67733a20686578206c656e67746820696e73756666696369656e746044820152fd5b9091600f81166010811015612d84576f181899199a1a9b1b9c1cb0b131b232b360811b901a612d5a8486612c8a565b5360041c918015612d6f576000190190612cd7565b60246000634e487b7160e01b81526011600452fd5b60246000634e487b7160e01b81526032600452fd5b15612da057565b60405162461bcd60e51b815260206004820152602b60248201527f496e697469616c697a61626c653a20636f6e7472616374206973206e6f74206960448201526a6e697469616c697a696e6760a81b6064820152608490fd5b61016080546801000000000000000081101561241457612e2090600192838201905561236c565b612fad5782518155610100600860209283860151858201556002810160018060a01b036040880151166bffffffffffffffffffffffff60a01b825416179055606086015160038201556080860151600482015560a0860151600582015560c086015160068201556007810160e0870151151560ff8019835416911617905501930151908151916001600160401b03831161241457612ebe85546123be565b601f8111612f64575b5081601f8411600114612f015750928293918392600094612ef6575b50501b916000199060031b1c1916179055565b015192503880612ee3565b919083601f1981168760005284600020946000905b88838310612f4a5750505010612f31575b505050811b019055565b015160001960f88460031b161c19169055388080612f27565b858701518855909601959485019487935090810190612f16565b6000868152838120601f860160051c810192858710612fa3575b601f0160051c019186905b838110612f9857505050612ec7565b828155018690612f89565b9092508290612f7e565b634e487b7160e01b600052600060045260246000fd5b60ff60fb5416612fcf57565b60405162461bcd60e51b815260206004820152601060248201526f14185d5cd8589b194e881c185d5cd95960821b6044820152606490fd5b61012d60028154146130195760029055565b60405162461bcd60e51b815260206004820152601f60248201527f5265656e7472616e637947756172643a207265656e7472616e742063616c6c006044820152606490fd5b6040516323b872dd60e01b60208201526001600160a01b03928316602482015292909116604483015260648083019390935291815260a08101918183106001600160401b03841117612414576124bf926040525b60018060a01b03169060405160408101908082106001600160401b038311176124145761311d916040526020938482527f5361666545524332303a206c6f772d6c6576656c2063616c6c206661696c6564858301526000808587829751910182855af1611425612b8b565b80519182159184831561318f575b5050509050156131385750565b6084906040519062461bcd60e51b82526004820152602a60248201527f5361666545524332303a204552433230206f7065726174696f6e20646964206e6044820152691bdd081cdd58d8d9595960b21b6064820152fd5b9193818094500103126101e157820151908115158203610fec57508038808461312b565b81156131bd570490565b634e487b7160e01b600052601260045260246000fd5b91908203918211612c6757565b60405163a9059cbb60e01b60208201526001600160a01b039290921660248301526044808301939093529181526124bf9161321c606483612460565b6130b2565b6000198114612c675760010190565b610160548110156133c9576132448161236c565b5060ff6007820154166133c157600681015442116133c157600091825260209261016184526040928381209460018060a01b03958684168352815260ff85832054166133b85761015f548454865163277166bf60e11b81526001600160a01b0395909516600486015260248501819052959693959316928186604481875afa9586156133ae57839661337f575b5085156133755781906024885180968193630981b24d60e41b835260048301525afa95861561336a57508195613334575b5050509161093761331a926003613331950154612c54565b61271061332a6101645483612c54565b04906131d3565b90565b909180939550813d8311613363575b61334d8183612460565b81010312610fec57505191610937826003613302565b503d613343565b51913d9150823e3d90fd5b5050935050505090565b9095508181813d83116133a7575b6133978183612460565b81010312610267575194386132d1565b503d61338d565b87513d85823e3d90fd5b50935050505090565b505050600090565b5050600090565b6001600160401b0381116124145760051b60200190565b906133f1826133d0565b6133fe6040519182612460565b828152809261340f601f19916133d0565b0190602036910137565b80518210156123a85760209160051b01019056fe360894a13ba1a3210667c828492db98dca3e2076cc3735a920a3ca505d382bbca26469706673582212207670ddae1b3b596302ade227414f46d199ec1bd6e0e900dc235595519aafed8a64736f6c63430008140033",
  "linkReferences": {},
  "deployedLinkReferences": {}
}