{
  "_format": "hh-sol-artifact-1",
  "contractName": "TrustedIssuersRegistry",
  "sourceName": "contracts/registry/TrustedIssuersRegistry.sol",
  "abi": [
    {
      "inputs": [],
      "name": "InvalidAddress",
      "type": "error"
    },
    {
      "inputs": [],
      "name": "IssuerAlreadyExists",
      "type": "error"
    },
    {
      "inputs": [],
      "name": "IssuerNotFound",
      "type": "error"
    },
    {
      "inputs": [],
      "name": "TooManyClaimTopics",
      "type": "error"
    },
    {
      "inputs": [],
      "name": "TooManyIssuers",
      "type": "error"
    },
    {
      "anonymous": false,
      "inputs": [
        {
          "indexed": false,
          "internalType": "address",
          "name": "previousAdmin",
          "type": "address"
        },
        {
          "indexed": false,
          "internalType": "address",
          "name": "newAdmin",
          "type": "address"
        }
      ],
      "name": "AdminChanged",
      "type": "event"
    },
    {
      "anonymous": false,
      "inputs": [
        {
          "indexed": true,
          "internalType": "address",
          "name": "beacon",
          "type": "address"
        }
      ],
      "name": "BeaconUpgraded",
      "type": "event"
    },
    {
      "anonymous": false,
      "inputs": [
        {
          "indexed": true,
          "internalType": "address",
          "name": "trustedIssuer",
          "type": "address"
        },
        {
          "indexed": false,
          "internalType": "uint256[]",
          "name": "claimTopics",
          "type": "uint256[]"
        }
      ],
      "name": "ClaimTopicsUpdated",
      "type": "event"
    },
    {
      "anonymous": false,
      "inputs": [
        {
          "indexed": false,
          "internalType": "uint8",
          "name": "version",
          "type": "uint8"
        }
      ],
      "name": "Initialized",
      "type": "event"
    },
    {
      "anonymous": false,
      "inputs": [
        {
          "indexed": true,
          "internalType": "address",
          "name": "previousOwner",
          "type": "address"
        },
        {
          "indexed": true,
          "internalType": "address",
          "name": "newOwner",
          "type": "address"
        }
      ],
      "name": "OwnershipTransferred",
      "type": "event"
    },
    {
      "anonymous": false,
      "inputs": [
        {
          "indexed": true,
          "internalType": "address",
          "name": "trustedIssuer",
          "type": "address"
        },
        {
          "indexed": false,
          "internalType": "uint256[]",
          "name": "claimTopics",
          "type": "uint256[]"
        }
      ],
      "name": "TrustedIssuerAdded",
      "type": "event"
    },
    {
      "anonymous": false,
      "inputs": [
        {
          "indexed": true,
          "internalType": "address",
          "name": "trustedIssuer",
          "type": "address"
        }
      ],
      "name": "TrustedIssuerRemoved",
      "type": "event"
    },
    {
      "anonymous": false,
      "inputs": [
        {
          "indexed": true,
          "internalType": "address",
          "name": "implementation",
          "type": "address"
        }
      ],
      "name": "Upgraded",
      "type": "event"
    },
    {
      "inputs": [
        {
          "internalType": "address",
          "name": "_issuer",
          "type": "address"
        },
        {
          "internalType": "uint256[]",
          "name": "_claimTopics",
          "type": "uint256[]"
        }
      ],
      "name": "addTrustedIssuer",
      "outputs": [],
      "stateMutability": "nonpayable",
      "type": "function"
    },
    {
      "inputs": [
        {
          "internalType": "address",
          "name": "_issuer",
          "type": "address"
        }
      ],
      "name": "getTrustedIssuerClaimTopics",
      "outputs": [
        {
          "internalType": "uint256[]",
          "name": "",
          "type": "uint256[]"
        }
      ],
      "stateMutability": "view",
      "type": "function"
    },
    {
      "inputs": [],
      "name": "getTrustedIssuers",
      "outputs": [
        {
          "internalType": "address[]",
          "name": "",
          "type": "address[]"
        }
      ],
      "stateMutability": "view",
      "type": "function"
    },
    {
      "inputs": [],
      "name": "getTrustedIssuersCount",
      "outputs": [
        {
          "internalType": "uint256",
          "name": "",
          "type": "uint256"
        }
      ],
      "stateMutability": "view",
      "type": "function"
    },
    {
      "inputs": [
        {
          "internalType": "uint256",
          "name": "_claimTopic",
          "type": "uint256"
        }
      ],
      "name": "getTrustedIssuersForClaimTopic",
      "outputs": [
        {
          "internalType": "address[]",
          "name": "",
          "type": "address[]"
        }
      ],
      "stateMutability": "view",
      "type": "function"
    },
    {
      "inputs": [
        {
          "internalType": "address",
          "name": "_issuer",
          "type": "address"
        },
        {
          "internalType": "uint256",
          "name": "_claimTopic",
          "type": "uint256"
        }
      ],
      "name": "hasClaimTopic",
      "outputs": [
        {
          "internalType": "bool",
          "name": "",
          "type": "bool"
        }
      ],
      "stateMutability": "view",
      "type": "function"
    },
    {
      "inputs": [
        {
          "internalType": "address",
          "name": "_owner",
          "type": "address"
        }
      ],
      "name": "initialize",
      "outputs": [],
      "stateMutability": "nonpayable",
      "type": "function"
    },
    {
      "inputs": [
        {
          "internalType": "address",
          "name": "_issuer",
          "type": "address"
        }
      ],
      "name": "isTrustedIssuer",
      "outputs": [
        {
          "internalType": "bool",
          "name": "",
          "type": "bool"
        }
      ],
      "stateMutability": "view",
      "type": "function"
    },
    {
      "inputs": [],
      "name": "owner",
      "outputs": [
        {
          "internalType": "address",
          "name": "",
          "type": "address"
        }
      ],
      "stateMutability": "view",
      "type": "function"
    },
    {
      "inputs": [],
      "name": "proxiableUUID",
      "outputs": [
        {
          "internalType": "bytes32",
          "name": "",
          "type": "bytes32"
        }
      ],
      "stateMutability": "view",
      "type": "function"
    },
    {
      "inputs": [
        {
          "internalType": "address",
          "name": "_issuer",
          "type": "address"
        }
      ],
      "name": "removeTrustedIssuer",
      "outputs": [],
      "stateMutability": "nonpayable",
      "type": "function"
    },
    {
      "inputs": [],
      "name": "renounceOwnership",
      "outputs": [],
      "stateMutability": "nonpayable",
      "type": "function"
    },
    {
      "inputs": [
        {
          "internalType": "address",
          "name": "newOwner",
          "type": "address"
        }
      ],
      "name": "transferOwnership",
      "outputs": [],
      "stateMutability": "nonpayable",
      "type": "function"
    },
    {
      "inputs": [
        {
          "internalType": "address",
          "name": "_issuer",
          "type": "address"
        },
        {
          "internalType": "uint256[]",
          "name": "_claimTopics",
          "type": "uint256[]"
        }
      ],
      "name": "updateIssuerClaimTopics",
      "outputs": [],
      "stateMutability": "nonpayable",
      "type": "function"
    },
    {
      "inputs": [
        {
          "internalType": "address",
          "name": "newImplementation",
          "type": "address"
        }
      ],
      "name": "upgradeTo",
      "outputs": [],
      "stateMutability": "nonpayable",
      "type": "function"
    },
    {
      "inputs": [
        {
          "internalType": "address",
          "name": "newImplementation",
          "type": "address"
        },
        {
          "internalType": "bytes",
          "name": "data",
          "type": "bytes"
        }
      ],
      "name": "upgradeToAndCall",
      "outputs": [],
      "stateMutability": "payable",
      "type": "function"
    }
  ],
  "bytecode": "0x60a080604052346100315730608052611845908161003782396080518181816108e201528181610a760152610d240152f35b600080fdfe6040608081526004908136101561001557600080fd5b600091823560e01c806304bc7e8414610f3557806334a8998714610eee5780633659cfe614610cfd5780634f1ef286146109fc57806352c111d11461098f57806352d1902d146108cd5780635e689206146108ae578063715018a6146108515780638da5cb5b146108285780639f63ea9814610672578063b93d28eb14610461578063c28fb278146103b4578063c4d66de814610237578063d9dd24c5146101a3578063ef2ed1a4146101655763f2fde38b146100d157600080fd5b34610161576020366003190112610161576100ea6110ca565b916100f36111f9565b6001600160a01b0383161561010f578361010c84611251565b80f35b906020608492519162461bcd60e51b8352820152602660248201527f4f776e61626c653a206e6577206f776e657220697320746865207a65726f206160448201526564647265737360d01b6064820152fd5b8280fd5b50503461019f57602036600319011261019f5760209181906001600160a01b0361018d6110ca565b16815260ca8452205415159051908152f35b5080fd5b828434610234578060031936011261023457815191829160c95480855260208095019460c983527f66be4f155c5ef2ebd3772b228f2f00681e4ed5826cdb3b1943cc11ad15ad1d2892905b828210610214576102108686610206828b0383611177565b51918291826111b5565b0390f35b83546001600160a01b0316875295860195600193840193909101906101ee565b80fd5b5034610161576020366003190112610161576102516110ca565b83549160ff8360081c1615928380946103a7575b8015610390575b156103365760ff198116600117865583610325575b506001600160a01b0382161561031757506102c5906102af60ff865460081c166102aa816114c0565b6114c0565b6102b833611251565b6102c06111f9565b611251565b8254906102d760ff8360081c166114c0565b6102df578280f35b61ff001916825551600181527f7f26b83ff96e1f2b6a682f133852f6798a09c465da95921460cefb384740249890602090a138808280f35b835163e6c4247b60e01b8152fd5b61ffff191661010117855538610281565b845162461bcd60e51b8152602081840152602e60248201527f496e697469616c697a61626c653a20636f6e747261637420697320616c72656160448201526d191e481a5b9a5d1a585b1a5e995960921b6064820152608490fd5b50303b15801561026c5750600160ff82161461026c565b50600160ff821610610265565b82843461023457602090816003193601126102345782906001600160a01b036103db6110ca565b16815260cb8352818120908251808584549182815201908194845286842090845b81811061044d5750505081610412910382611177565b83519485948186019282875251809352850193925b82811061043657505050500390f35b835185528695509381019392810192600101610427565b8254845292880192600192830192016103fc565b509034610161576020908160031936011261066e5761047e6110ca565b6104866111f9565b6001600160a01b0381811680875260ca855283872054909590801561065f576000199281840182811161064c5760c95490858201918211610639578181036105e7575b5050505060c9549081156105d45750016104fa6104e582611520565b81549060018060a01b039060031b1b19169055565b60c95583855260ca8352848281205560cb8352818520805491865b838110610581575050505082845260cb825283209081549184815582610560575b5050507f2214ded40113cc3fb63fc206cafee88270b0a903dac7245d54efdde30ebb03218280a280f35b84528320908101905b8181106105765780610536565b838155600101610569565b806105a16105926105cf938661156d565b919054600392831b1c856116c3565b888a5260cc8852868a20906105b6838761156d565b9054911b1c8a528752858920805460ff191690556115c8565b610515565b634e487b7160e01b885260319052602487fd5b610607926105f761062693611520565b90549060031b1c16928391611520565b90919082549060031b9160018060a01b03809116831b921b1916179055565b885260ca865284882055388080806104c9565b634e487b7160e01b8b526011855260248bfd5b634e487b7160e01b8a526011845260248afd5b5083516380385f3960e01b8152fd5b8380fd5b50903461016157610682366110e5565b9290919361068e6111f9565b6001600160a01b0385169485156108195785875260209160ca83528388205461080b5760c9549060328210156107fd57600f87116107ef57600160401b8210156107dc576106e78361060760019485810160c955611520565b60c954888a5260ca8552858a205560cb84528489209067ffffffffffffffff88116107c957506107178782611585565b885282882085828a5b8981106107b75750505050875b86811061076d5788887ffedc33fd34859594822c0ff6f3f4f9fc279cc6d5cae53068f706a088e450087289896107678a51928392836115fd565b0390a280f35b6107b290888a5260cc8552858a20610786828a8a6115ed565b358b528552858a20805460ff1916841790556107ad6107a6828a8a6115ed565b3585611626565b6115c8565b61072d565b86833593019281850155018390610720565b634e487b7160e01b8a5260419052602489fd5b634e487b7160e01b895260419052602488fd5b845163dbfce3a560e01b8152fd5b8451630111474b60e41b8152fd5b8351630eeb1b5960e21b8152fd5b50905163e6c4247b60e01b8152fd5b50503461019f578160031936011261019f5760975490516001600160a01b039091168152602090f35b833461023457806003193601126102345761086a6111f9565b609780546001600160a01b0319811690915581906001600160a01b03167f8be0079c531659141344cd1fd0a4f28419497f9722a3daafe3b4186f6b6457e08280a380f35b50503461019f578160031936011261019f5760209060c9549051908152f35b508234610234578060031936011261023457507f00000000000000000000000000000000000000000000000000000000000000006001600160a01b0316300361092757602082516000805160206117f08339815191528152f35b6020608492519162461bcd60e51b8352820152603860248201527f555550535570677261646561626c653a206d757374206e6f742062652063616c60448201527f6c6564207468726f7567682064656c656761746563616c6c00000000000000006064820152fd5b509034610161576020918260031936011261066e5735835260cd82528083209281518093808654928381520195835280832092905b8282106109dc576102108686610206828b0383611177565b83546001600160a01b0316875295860195600193840193909101906109c4565b50908060031936011261016157610a116110ca565b906024359067ffffffffffffffff8211610cf95736602383011215610cf95781840135610a3d81611199565b610a4983519182611177565b81815286602094858301933660248284010111610161578060248893018637830101526001600160a01b037f0000000000000000000000000000000000000000000000000000000000000000811690610aa43083141561129a565b610ac16000805160206117f08339815191529282845416146112fb565b610ac96111f9565b7f4910fdfa16fed3260ed0e7147f7cc6da11a60208b5b9406d12a635614ffd91435460ff1615610b035750505050505061010c915061135c565b869293949596169085516352d1902d60e01b815287818a81865afa8a9181610cc6575b50610b8557865162461bcd60e51b8152808a01899052602e60248201527f45524331393637557067726164653a206e657720696d706c656d656e7461746960448201526d6f6e206973206e6f74205555505360901b6064820152608490fd5b979192939695949703610c715750610b9c8261135c565b7fbc7cd75a20ee27fd9adebab32041f755214dbc6bffa90cc0225b39da2e5c2d3b8780a285845115801590610c69575b610bda575b50505050505080f35b80610c5396845196610beb88611145565b602788527f416464726573733a206c6f772d6c6576656c2064656c65676174652063616c6c87890152660819985a5b195960ca1b868901525190845af4913d15610c5f573d610c45610c3c82611199565b92519283611177565b81528681943d92013e6113ec565b50388080808085610bd1565b50606092506113ec565b506001610bcc565b835162461bcd60e51b8152908101859052602960248201527f45524331393637557067726164653a20756e737570706f727465642070726f786044820152681a58589b195555525160ba1b6064820152608490fd5b9091508881813d8311610cf2575b610cde8183611177565b81010312610cee57519038610b26565b8a80fd5b503d610cd4565b8480fd5b5090346101615760208060031936011261066e57610d196110ca565b916001600160a01b037f00000000000000000000000000000000000000000000000000000000000000008116610d513082141561129a565b610d6e6000805160206117f08339815191529183835416146112fb565b610d766111f9565b8251908482019282841067ffffffffffffffff851117610edb578385528883527f4910fdfa16fed3260ed0e7147f7cc6da11a60208b5b9406d12a635614ffd91435460ff1615610dd05750505050505061010c915061135c565b869293949596169085516352d1902d60e01b815287818a81865afa8a9181610eac575b50610e5257865162461bcd60e51b8152808a01899052602e60248201527f45524331393637557067726164653a206e657720696d706c656d656e7461746960448201526d6f6e206973206e6f74205555505360901b6064820152608490fd5b979192939695949703610c715750610e698261135c565b7fbc7cd75a20ee27fd9adebab32041f755214dbc6bffa90cc0225b39da2e5c2d3b8780a285845115801590610ea557610bda5750505050505080f35b5080610bcc565b9091508881813d8311610ed4575b610ec48183611177565b81010312610cee57519038610df3565b503d610eba565b634e487b7160e01b895260418852602489fd5b50503461019f578060031936011261019f5760209160ff9082906001600160a01b03610f186110ca565b16815260cc85528181206024358252855220541690519015158152f35b50903461016157610f45366110e5565b92909193610f516111f9565b60018060a01b0385169485875260209160ca835283882054156110bc57600f86116110ae5786885260cb8352838820805490895b82811061105b5750505086885260cb83528388209067ffffffffffffffff87116107dc5750610fb48682611585565b875281872084885b87811061104957505050865b85811061100357505050906107677fec753cfc52044f61676f18a11e500093a9f2b1cd5e4942bc476f2b0438159bcf939251928392836115fd565b6110449087895260cc845284892061101c8289896115ed565b358a528452848920805460ff191660011790556107ad61103d8289896115ed565b3584611626565b610fc8565b81358382015590840190600101610fbc565b8061107b61106c6110a9938561156d565b919054600392831b1c886116c3565b8b8d5260cc8852888d2090611090838661156d565b9054911b1c8d528752878c20805460ff191690556115c8565b610f85565b835163dbfce3a560e01b8152fd5b83516380385f3960e01b8152fd5b600435906001600160a01b03821682036110e057565b600080fd5b60406003198201126110e0576004356001600160a01b03811681036110e0579160243567ffffffffffffffff928382116110e057806023830112156110e05781600401359384116110e05760248460051b830101116110e0576024019190565b6060810190811067ffffffffffffffff82111761116157604052565b634e487b7160e01b600052604160045260246000fd5b90601f8019910116810190811067ffffffffffffffff82111761116157604052565b67ffffffffffffffff811161116157601f01601f191660200190565b6020908160408183019282815285518094520193019160005b8281106111dc575050505090565b83516001600160a01b0316855293810193928101926001016111ce565b6097546001600160a01b0316330361120d57565b606460405162461bcd60e51b815260206004820152602060248201527f4f776e61626c653a2063616c6c6572206973206e6f7420746865206f776e65726044820152fd5b609780546001600160a01b039283166001600160a01b0319821681179092559091167f8be0079c531659141344cd1fd0a4f28419497f9722a3daafe3b4186f6b6457e0600080a3565b156112a157565b60405162461bcd60e51b815260206004820152602c60248201527f46756e6374696f6e206d7573742062652063616c6c6564207468726f7567682060448201526b19195b1959d85d1958d85b1b60a21b6064820152608490fd5b1561130257565b60405162461bcd60e51b815260206004820152602c60248201527f46756e6374696f6e206d7573742062652063616c6c6564207468726f7567682060448201526b6163746976652070726f787960a01b6064820152608490fd5b803b15611391576000805160206117f083398151915280546001600160a01b0319166001600160a01b03909216919091179055565b60405162461bcd60e51b815260206004820152602d60248201527f455243313936373a206e657720696d706c656d656e746174696f6e206973206e60448201526c1bdd08184818dbdb9d1c9858dd609a1b6064820152608490fd5b9192901561144e5750815115611400575090565b3b156114095790565b60405162461bcd60e51b815260206004820152601d60248201527f416464726573733a2063616c6c20746f206e6f6e2d636f6e74726163740000006044820152606490fd5b8251909150156114615750805190602001fd5b6040519062461bcd60e51b82528160208060048301528251908160248401526000935b8285106114a7575050604492506000838284010152601f80199101168101030190fd5b8481018201518686016044015293810193859350611484565b156114c757565b60405162461bcd60e51b815260206004820152602b60248201527f496e697469616c697a61626c653a20636f6e7472616374206973206e6f74206960448201526a6e697469616c697a696e6760a81b6064820152608490fd5b60c9548110156115575760c96000527f66be4f155c5ef2ebd3772b228f2f00681e4ed5826cdb3b1943cc11ad15ad1d280190600090565b634e487b7160e01b600052603260045260246000fd5b80548210156115575760005260206000200190600090565b600160401b8211611161578054918082558281106115a257505050565b60009182526020822092830192015b8281106115bd57505050565b8181556001016115b1565b60001981146115d75760010190565b634e487b7160e01b600052601160045260246000fd5b91908110156115575760051b0190565b602080825281018390526001600160fb1b0383116110e05760409260051b809284830137010190565b600082815260ce602090815260408083206001600160a01b038516808552908352818420549295919490921561165f575b505050505050565b81845260cd8652848420805490600160401b8210156116af578161060791600161168c959401815561156d565b825260cd8452828220549360ce8152838320918352522055388080808080611657565b634e487b7160e01b86526041600452602486fd5b600082815260ce602090815260408083206001600160a01b039485168085529083528184205493959194909380156117e657600019918183018281116117d25784895260cd865287892054908482019182116117be5781810361176e575b5050505081865260cd8352848620908154801561175a5701906117476104e5838361156d565b55845260ce815282842091845252812055565b634e487b7160e01b88526031600452602488fd5b610607926117886117a293888d5260cd8a528b8d2061156d565b90549060031b1c16928391878c5260cd89528a8c2061156d565b83885260ce855286882090885284528587205538808080611721565b634e487b7160e01b8a52601160045260248afd5b634e487b7160e01b89526011600452602489fd5b5050505050505056fe360894a13ba1a3210667c828492db98dca3e2076cc3735a920a3ca505d382bbca26469706673582212209fdb730ec42655f371a1350333f4a91222837f82b43c27b733d3fd871afbdb4364736f6c63430008140033",
  "linkReferences": {},
  "deployedLinkReferences": {}
}